:100000000C9489080C94B1080C94B1080C94B108B4
:100010000C94B1080C94B1080C94B1080C94B1087C
:100020000C94B1080C94B1080C94C6220C9435239E
:100030000C94B1080C94B1080C94B1080C94B1085C
:100040000C94B1080C9409260C94B1080C94B108D6
:100050000C94B1080C94B1080C94B1080C94672569
:100060000C94B1080C94B1080C94B1080C94B1082C
:100070000C94B1080C94B1080C94B1080C94B1081C
:100080000C94B1250C94B1080C94B1080C94B108EF
:100090000C94B1080C94B1080C94B1080C94B108FC
:1000A0000C94B1080C94B1080C94B1080000000045
:1000B00000700100C0000C00CAA77C0A42F5550878
:1000C000534248195EF551120030000000274500E8
:1000D00040941C0014F3190504F1110420040000DD
:1000E0000441100400040000104208015E14450F92
:1000F00040F001005955551351555D0D8C927C0807
:100100005755550D5E55550D51520C015E55550F05
:100110005655550F00A0000000A4000000C22800A2
:1001200080A228008062080040500D0000E3180003
:100130009C92241F5F555D0D9C1445115F1425078B
:100140005F5555115F5114015E54551D1F41101F1D
:1001500040F44500100421071F41181D1F044110E1
:100160005EF0041F9C10041F5E54450F5F92140341
:100170005ED4451F5F92341B5655550D41F0050165
:100180001F0421071F4208011FE4410F1743181DD8
:1001900007C1090151564D1100F0450000F0010062
:1001A00040F4010080100C00100441109045000A3A
:1001B00080F0904A001480F0F0FC06020101012159
:1001C00022E6EF200060701090F0E0000002FFFFD8
:1001D000000002FFFF0000C0E0505070600020F0FF
:1001E000F0201030001070F09000009070100103AB
:1001F00007040C080808080F0700000E0F09080F75
:100200000F0800080F0F0800080F0F080003070E63
:100210000C0C0600080F0F0800000000C0C1671E8C
:1002200006010000504C41592054494D45004F42B1
:100230004E2D5930342056455220302E313100C0D9
:10024000C6CFDFFFFB73037CFEFFC7E3FF7F3E00EB
:10025000FFFFFF1B1B1B03000303FFFFFF03030044
:10026000000000000000008080808000000000008E
:100270000000000000000080E0F058AC56AB55AB29
:100280005500FF0101010202040810608000003FD8
:10029000FFAA55AA55AA55AA55A85FAC5CAC5CACA0
:1002A0005CAC5C0CCF3C0000000103060D1A152A63
:1002B000252A252A2522151209040201000000FF23
:1002C000FF57AB57AB57AB57AB03FF8080800000A5
:1002D00000000000000000FFFF55AA55AA55AA55CE
:1002E000AA00FF000000010102040830C000001F46
:1002F0007FD5AA55AA55AA55AA54AF56AE56AE56A2
:10030000AE562E86671E000000000103060D0A157A
:100310001215121512110A09040201000000000052
:1003200000000000008080C0C0C0C080808000004D
:1003300000000000000000C0F078AC56AB55AA5594
:10034000AA00FF000000010102040830C00000FF05
:10035000FF55AA55AA55AA55AA00FFFEAE56AE569D
:10036000AE56AE5607FE001F1715121512151215C0
:1003700012101F171215121512151215101F005208
:1003800045534554004352454449540053484F5740
:100390002048454C5000534F554E440047414C4C6B
:1003A00045525900504C41592050555A5A4C45001D
:1003B000434F4E54494E554500204F464600204F6E
:1003C0004E00000080E0FE7E3EFEECE0E020303893
:1003D000B8B020FCFCF8F0F0101010F8F8F8F0F0CD
:1003E000000010909090909090FEFEFEFEB2FCDC1B
:1003F000D890909090FEFEFEFE9690D0FCFCD89097
:10040000000000008080800000000000FEFEFEFC76
:10041000040000FEFEFEFC0400008080800000005E
:1004200000000000000000FEFEFEFE84C0C080F858
:10043000F8F8F01010101010101010181E1E1C18D4
:1004400010000202030382C2FAFFFF3F1F32F2F3E1
:10045000E3E383FFFFFFFFFF202020FFFFFF7F7FFD
:100460000000041C1C5C4C4C4C7F7F5F5F4642428A
:1004700046464444445F5F5FFFF4F4E4C6870706E2
:1004800004000000FFFFFFFFFF020202FFFFFFFF6B
:10049000020202FFFFFFFF020202FFFFFFFFFE0456
:1004A000000002020282FAFFFFFFFFC3C38303FFC3
:1004B000FFFFFF18F8E8080808E8FCFCFC783000AB
:1004C00000000004060703FFFFFFFFFE4242424315
:1004D00043434242424242FFFFFFFEFE040000004F
:1004E000000000000010D2D212D2D2D2D2D252D208
:1004F000D2D2D29212121292FFFFFFBF3F00000031
:1005000000000000FFFFFFFFFF020202FFFFFFFFEE
:10051000020202FFFFFFFF020202FFFFFFFFFF00D8
:10052000000040703C1F0FFFFFFFFF070707E7FFBA
:10053000FF7F1F00039FFFFCFEFFFF8F8300000073
:10054000000000000000003F3F3F3F3F0808080850
:10055000080808080808081F3F3F1F1F0000000088
:100560000000081C1E1F1F0F001F3F3F3F3F383871
:10057000393B3B3B383C3F3F3F18010F1F1F1E1EBE
:10058000000000003F3F3F3F3F0808080F0F0F0FDC
:100590000808080F0F0F0F0808083F3F3F1F1F00F4
:1005A000000000000000003F3F3F3F20381E2F2783
:1005B00031181C0E0F0703010103070F1F1F1E0632
:1005C00006002D2043484945204D414741524920CE
:1005D000495441202D00004D4152434820323031D2
:1005E000380050524F4752454D4D45442042592006
:1005F0004F424F4E4F0000544849532050524F47EE
:1006000052414D2049530052454C454153454420E9
:10061000554E44455200544845204D4954204C49BC
:1006200043454E53452E0090480064800019904A7F
:100630000064800019904C0064800019904D0064A3
:10064000800019904F00C880F0C0108330C1104E58
:1006500000CE418E314F100E31C101836190640094
:100660001E905D001E9056001E904F001E90480088
:100670001E80F09041002890450028904800288076
:10068000F0903C0040800040E0905100288000281D
:1006900090560028800028905A0028800028E0907A
:1006A000480028904500289041002880F09046009E
:1006B0000A9050000A904B000A9055000A90500092
:1006C0000A80F09058000A9056000A9054000A9050
:1006D00052000A9050000A80F03F211121452B1052
:1006E000001E0E1E3A1000414C524541445920460E
:1006F0004F554E440000000000E0183CF8C00000D8
:10070000000000000000040CFC3870E0C00004048D
:10071000FC040400804040C0800040C0C040004055
:10072000C0C0400040C04000000000000404FCFCC9
:100730000404048CF8700080C04040C0800040E099
:10074000F8404040E0F840400000804040C0800059
:1007500080C0C08040C00080C0C0804040C08000D9
:100760000020303C23020202233F3E3020000000E4
:10077000000020203F20200001070E1C3F00000F3A
:100780001F39313119000001071E380C03071E38CC
:100790000E0100000000000020203F3F2121010148
:1007A000000000393D24223F3F20001F3F20100061
:1007B0001F3F2010000F1F3931311900203F3F200B
:1007C000000000203F3F2000203F3F2000000102AA
:1007D000030405060708090A0B0C0D0E0F0002049E
:1007E00001030A09080506070D0B0E0C0F00040390
:1007F00002010706050A09080E0D0C0B0F00030184
:10080000040208090A0706050C0E0B0D0F0003046D
:10081000010207060508090A0E0C0D0B0F00010363
:10082000020408090A0506070C0B0E0D0F00020151
:1008300004030506070A09080B0D0C0E0F0004023D
:1008400003010A09080706050D0E0B0C0F05000031
:10085000000000000002090909090A000000000563
:10086000000000000000080B09090A000000050054
:100870000000050000000209090901000004090E3A
:100880000A0700070000000000000000000409093A
:100890000A06000000020A00000000000000000438
:1008A0000A05000600020901000000000000080E11
:1008B0000A0000060000080100000000000000041B
:1008C0000A000006000409010007000000000500FE
:1008D00000080F0A000007000000000000000500EB
:1008E00000000D0A0000060000080100002A410077
:1008F0004100412A000000000000002020100804F0
:100900000300000304081020200202040810600005
:10091000006010080402027C02010101027C7F00D9
:10092000000000007F1F20404040201F1C2241414A
:1009300041414141414141414141414141414122C6
:100940001C20201008102020000000081463000064
:100950006314080000000202040804020200000000
:1009600008000000000000000000001F1F0F070328
:100970000000000003070F1F1F7C7C7870600000E0
:1009800000006070787C7C007C7E7E7E7C00007F36
:100990007F7F7F7F00001F3F3F3F1F00001C3E3EC8
:1009A0003E3E3E3E3E3E3E3E3E3E3E3E3E3E3E1C89
:1009B000001F1F0F070F1F1F7F7F7F77630000003F
:1009C0000063777F7F7F7C7C7870787C7C7F7F7F03
:1009D000777F7F7F1E1E1E1F09090F1E12121F0F19
:1009E0000F0F00040E000E040000000A1B0A000096
:1009F000004D454E5500015049434B0000484F4CB7
:100A0000440001505554000002524F540000034668
:100A10004C495000025041474500004D454E55009D
:100A200000000000003E5B4F5B3E3E6B4F6B3E1C88
:100A30003E7C3E1C183C7E3C181C577D571C1C5E9F
:100A40007F5E1C00183C1800FFE7C3E7FF00182476
:100A50001800FFE7DBE7FF30483A060E2629792920
:100A600026407F050507407F05253F5A3CE73C5A55
:100A70007F3E1C1C08081C1C3E7F14227F22145F32
:100A80005F005F5F06097F017F006689956A60608D
:100A900060606094A2FFA29408047E040810207E87
:100AA000201008082A1C08081C2A08081E1010100C
:100AB000100C1E0C1E0C30383E3830060E3E0E0652
:100AC000000000000000005F0000000700070014A5
:100AD0007F147F14242A7F2A122313086462364964
:100AE0005620500008070300001C2241000041224C
:100AF0001C002A1C7F1C2A08083E08080080703051
:100B000000080808080800006060002010080402BF
:100B10003E5149453E00427F4000724949494621C5
:100B200041494D331814127F1027454545393C4A39
:100B30004949314121110907364949493646494950
:100B4000291E000014000000403400000008142298
:100B50004114141414140041221408020159090606
:100B60003E415D594E7C1211127C7F494949363E07
:100B7000414141227F4141413E7F494949417F09ED
:100B80000909013E414151737F0808087F00417FF8
:100B900041002040413F017F081422417F404040F6
:100BA000407F021C027F7F0408107F3E4141413E8E
:100BB0007F090909063E4151215E7F091929462610
:100BC0004949493203017F01033F4040403F1F2014
:100BD00040201F3F4038403F6314081463030478EB
:100BE00004036159494D43007F414141020408100B
:100BF00020004141417F0402010204404040404046
:100C0000000307080020545478407F2844443838B3
:100C100044444428384444287F3854545418000825
:100C20007E090218A4A49C787F0804047800447DFF
:100C300040002040403D007F1028440000417F409C
:100C4000007C047804787C080404783844444438F0
:100C5000FC1824241818242418FC7C0804040848D0
:100C60005454542404043F44243C4040207C1C2021
:100C700040201C3C4030403C44281028444C90907C
:100C8000907C4464544C44000836410000007700D6
:100C900000004136080002010204023C2623263CE3
:100CA0001EA1A161123A4040207A3854545559216E
:100CB0005555794121545478412155547840205458
:100CC0005579400C1E5272123955555559395454A4
:100CD000545939555454580000457C410002457D13
:100CE000420001457C40F0292429F0F0282528F015
:100CF0007C545545002054547C547C0A097F493269
:100D0000494949323248484832324A4848303A41E3
:100D100041217A3A42402078009DA0A07D39444488
:100D200044393D4040403D3C24FF2424487E494313
:100D3000662B2FFC2F2BFF0929F620C0887E090384
:100D400020545479410000447D413048484A3238AB
:100D50004040227A007A0A0A727D0D19317D2629D7
:100D6000292F28262929292630484D4020380808CF
:100D7000080808080808382F10C8ACBA2F10283403
:100D8000FA00007B000008142A142222142A1408F6
:100D90009500220095AA005500AAAA55AA55AA00B6
:100DA0000000FF00101010FF00141414FF001010BA
:100DB000FF00FF1010F010F0141414FC001414F7CE
:100DC00000FF0000FF00FF1414F404FC14141710BB
:100DD0001F10101F101F1414141F00101010F0000B
:100DE0000000001F101010101F10101010F0100045
:100DF0000000FF101010101010101010FF10000055
:100E000000FF140000FF00FF00001F10170000FC8F
:100E100004F414141710171414F404F40000FF0061
:100E2000F714141414141414F700F71414141714EA
:100E300010101F101F141414F4141010F010F000F0
:100E4000001F101F0000001F14000000FC14000011
:100E5000F010F01010FF10FF141414FF14101010F5
:100E60001F00000000F010FFFFFFFFFFF0F0F0F0A8
:100E7000F0FFFFFF0000000000FFFF0F0F0F0F0F3C
:100E800038444438447C2A2A3E147E020206060274
:100E90007E027E0263554941633844443C04407EEF
:100EA000201E2006027E020299A5E7A5991C2A4968
:100EB0002A1C4C7201724C304A4D4D3030487848F3
:100EC00030BC625A463D3E494949007E0101017EDF
:100ED0002A2A2A2A2A44445F444440514A44404032
:100EE000444A51400000FF0103E080FF0000080871
:100EF0006B6B083612362436060F090F06000018F1
:100F0000180000001010003040FF0101001F010117
:100F10001E00191D1712003C3C3C3C000000000064
:100F200006011501260137014A015D0172018801A0
:100F30009F01B801D201EE010B022A024B026E02A0
:100F40009302BA02E40210033F037003A403DC031C
:100F5000170455049704DD0427057505C805200608
:100F60007D06E0064907B8072D08A9082D09B9092B
:100F70004D0AEA0A900B400CFA0CC00D910E6F0F4F
:100F80005A1053115B1272139A14D415201780183B
:100F9000F519801B231DDE1EB420A622B524E426ED
:100FA0003429A72B402E0031EA330037453ABC3DA7
:100FB00068414C456B49C84D68524F57805C006290
:100FC00010111213151617181A1C1D1F212325277F
:100FD000292C2E3134373A3E4145494E52575C62F6
:100FE000686E757B838B939CA5AFB9C4D0DCE9F7A1
:100FF0000000000200090F0000030401000C0000C3
:1010000000000000000000000000000000000003DD
:101010000100000000240027002A002D003000D528
:10102000F08D1410A1C881CFD9F1AF2000040802BF
:101030000110408040102040804080080204018060
:1010400040201002011080102040402000000000CD
:10105000250028002B002E003100040404040403A2
:101060000405020202020403020202020606060648
:1010700006060404020202040414021302120215FA
:10108000020702080204010C010601003015F414E5
:101090002C199B217C15C019A714CA1DE817BF1D68
:1010A000831D0A1B080B0002020200000904000055
:1010B00001020200000524001001052401010104C1
:1010C00024020605240600010705810310004009DB
:1010D000040100020A0000000705020240000007A8
:1010E0000583024000000403090412010002EF021C
:1010F0000140412336800001010203014172647501
:10110000696E6F204C4C430041726475626F7900C8
:10111000742611241FBECFEFDAE0DEBFCDBF11E091
:10112000A0E0B1E0E2E2FAE502C005900D92A6333C
:10113000B107D9F726E0A6E3B1E001C01D92AB3DAF
:10114000B207E1F718E0C9E8D8E004C02197FE0132
:101150000E94162AC838D107C9F70E94AB260C9402
:101160000F2D0C9400002091D70630E0209530958B
:101170004091D80650E02423352390E028233923DA
:1011800081E0232B09F480E008950F93CF93DF9340
:1011900097FF0CC0EE27FF27E81BF90B4E171F0621
:1011A00009F00CF47CC0480F90E080E077FF0FC09E
:1011B000AA27BB27A61BB70BE22F022E000CFF0BA2
:1011C000AE17BF070CF06BC0260F70E060E0442341
:1011D00009F465C0803891050CF061C012160CF05E
:1011E0005EC0603471050CF05AC0FC01E40FF11DC3
:1011F000E138F10514F040E8481B562FFB01E20FDF
:10120000F11D27FDFA95E134F10514F020E4261BC9
:1012100057703FEF052E01C0330F0A94EAF7250FF0
:10122000651B710977FF02C0695F7F4F53E07595B9
:1012300067955A95E1F77695762F662777956795A6
:10124000860F971F81539D4FA8E0B0E0CFEFD0E00D
:1012500012162CF5283064F4BD01621B710927FDBC
:101260007395FE0102C0F595E7956A95E2F73E2376
:1012700001110DC03095FC01542F608163236193EF
:101280005150D9F7285080589F4F3FEFE1CFFC01D4
:10129000542F6081632B61935150D9F7F3CFDF91C5
:1012A000CF910F9108952F923F924F925F926F923C
:1012B0007F928F929F92AF92BF92CF92DF92EF92E6
:1012C000FF920F931F93CF93DF9300D000D01F9214
:1012D000CDB7DEB7822E912C9401280F391F37FD30
:1012E000D7C0803891050CF0D3C09B01200F311D71
:1012F00037FDCEC0603471050CF0CAC0DB0177FF4A
:1013000004C0AA27BB27A61BB70BA770BB279B014E
:1013100077FF02C0295F3F4FF3E035952795FA9597
:10132000E1F777FF08C02150310968E070E0FB0168
:10133000EA1BFB0BDF01202E269426942694312CE9
:10134000077019F0FFEF2F1A3F0ABA01A90156954D
:10135000542F442757954795480F591F5C834B835B
:10136000220E331E48E050E03A016A1A7B0A221628
:10137000330609F48DC02830310509F489C02F3FA8
:101380005FEF35070CF458C00B811C8105541D4FCD
:101390006C0150E040E0EB81FC81E55CFC4F2F01EB
:1013A000D7FC3BC02F3F320709F46EC05A01A60E8E
:1013B000B71EF801F488F1E0EF1249C0F501A490DE
:1013C000EA2D0A2E01C0EE0F0A94EAF7FE2AF80170
:1013D000F48A109711F127303105F9F0FA01E60F80
:1013E000F71FFA83E9835201A40EB51EF501F489B3
:1013F000FD83FF24F394E981FA81EF1036C0F49164
:10140000F983EF2FF0E0062C02C0F595E7950A94DA
:10141000E2F7FD80FE2AF501F48A4F5F5F4FFFEF90
:10142000CF1ADF0A0F5F1F4F481559052CF4F0E85B
:10143000CF16D10409F0B4CF2F5F3F4F680D791D4F
:101440004B815C8140585F4F5C834B8390CFF501AB
:10145000A490EA2DF0E00A2E02C0EE0FFF1F0A94BE
:10146000E2F7E095F095FE22B2CFF491F983EF2FE9
:10147000F0E0062C02C0F595E7950A94E2F7E095B6
:10148000F095FD80FE22C7CF109709F0A7CFC5CFFA
:101490000F900F900F900F900F90DF91CF911F91B1
:1014A0000F91FF90EF90DF90CF90BF90AF909F9003
:1014B0008F907F906F905F904F903F902F90089506
:1014C0008FEC92E020E0B22FB111BFEFFC010024BD
:1014D000B193B193B193B1930394D1F70895FC0103
:1014E00080916302882311F13FB7F89482E08093E2
:1014F000E9002091F200822F90E01816190614F4EA
:1015000081E090E0882339F0289844E64093620215
:101510004091F1004083222339F02091F200211103
:1015200003C02BE62093E8003FBF08958FEF9FEFA5
:1015300008952FB7F89483E08093E9009091E80034
:10154000892F807295FF04C09091F20080E4891B7E
:101550002FBF089580915A0281110DC082E08093BF
:10156000560284E08093570210925902109258025A
:1015700081E080935A0286E592E00895CF93DF934D
:101580001F92CDB7DEB76983DC01ED91FC9102803B
:10159000F381E02D41E050E0BE016F5F7F4F099580
:1015A0000F90DF91CF91089583E08093E9008091BF
:1015B000F200882319F08AE38093E80008950E94DE
:1015C000990A90E00895CF93DF931F92CDB7DEB7CD
:1015D000FC018485958597FD08C02FEF3FEF358787
:1015E00024870F90DF91CF910895CE0101960E943C
:1015F0006F0A019719F4898190E0F3CF8FEF9FEF85
:10160000F0CF0F931F93CF93DF931F92CDB7DEB729
:101610008C01FC018485958597FF0BC0CE01019656
:101620000E946F0A019771F4898190E0F801958713
:101630008487F801848595850F90DF91CF911F9164
:101640000F9108958FEF9FEFF1CFFC018485958571
:1016500097FD0BC09FB7F89482E08093E9008091DA
:10166000F2009FBF90E0019608959FB7F89482E042
:101670008093E9008091F2009FBF90E0089540912F
:1016800050025091510220914E0230914F02421768
:101690005307B4F49091E8009570E1F39091E8005D
:1016A00092FD19C08093F1008091500290915102F7
:1016B00001968F739927892B19F48EEF8093E80098
:1016C0008091500290915102019690935102809323
:1016D000500281E0089580E00895EF92FF920F9309
:1016E0001F93CF93DF93F82E192FE62E042F81E05E
:1016F000860F880F0E943F0B83E00E943F0BCF2D87
:10170000D12FEC0EFD2EF11CCE15DF05B9F007FF31
:1017100013C0FE0184910E943F0B182F80E00E94AD
:101720003F0B812321968111EFCFDF91CF911F9144
:101730000F91FF90EF9008958881EDCF81E0F5CF74
:10174000DF92EF92FF920F931F93CF93DF93D82EE8
:101750008A01EB017B01E40EF51ECE15DF0559F081
:10176000D7FE12C0FE0184910E943F0B2196811189
:10177000F4CF0FEF1FEFC801DF91CF911F910F91B1
:10178000FF90EF90DF9008958881EECF0F931F9325
:10179000CF93DF931F92CDB7DEB782E0898342E417
:1017A00050E064EA70E180E80E94A00B0E94AA0A5F
:1017B000DC0112960D911C910115110589F0D801DB
:1017C000ED91FC910280F381E02DBE016F5F7F4FB0
:1017D000C801099597FD04C0F80100851185ECCF7B
:1017E00089810F90DF91CF911F910F9108956150E2
:1017F00030F02091F100FC0120830196F8CF289869
:1018000084E6809362020895AF92BF92CF92DF92F6
:10181000EF92FF920F931F93CF93DF936C017B01A5
:101820008B01040F151FEB015E01AE18BF08C01736
:10183000D10759F06991D601ED91FC910190F081A9
:10184000E02DC6010995892B79F7C501DF91CF916C
:101850001F910F91FF90EF90DF90CF90BF90AF90CE
:101860000895282F30E0F901E051F04F9491F901EB
:10187000E35DFF4E8491265A3F4EF90124912223C5
:1018800009F430C09923E9F091509F30D0F4E92F4A
:10189000F0E0E35BF34F0C94162A7B0C7F0C5C0C9E
:1018A000730C770C610C610C610C820C880C8C0C35
:1018B000900C960C610C9A0C909180009F779093FD
:1018C0008000E22FF0E0EE0FFF1FE45BFF4EA591DA
:1018D000B4919FB7F894EC91611132C080958E233A
:1018E0008C939FBF0895909180009F7DE8CF909149
:1018F0008000977FE4CF94B59F7794BDE2CF94B5F5
:101900009F7DFBCF909190009F7790939000D9CFCF
:10191000909190009F7DF9CF90919000977FF5CFA7
:101920009091C0009F779093C000CBCF9091C00062
:101930009F7DF9CF9091C200977F9093C200C1CF55
:101940008E2BCECFCF93DF9390E0FC01E35DFF4E73
:101950002491865A9F4EFC0184918823C9F090E01F
:10196000880F991FFC01EF5EFF4EA591B491FC0119
:10197000E45BFF4EC591D49161110DC09FB7F894FF
:101980008C91209582238C938881282328839FBF64
:10199000DF91CF910895623051F49FB7F8943C9154
:1019A000822F809583238C93E8812E2BEFCF8FB7E6
:1019B000F894EC912E2B2C938FBFEACF1F93CF93EB
:1019C000DF93182FEB0161E00E94A20C209739F4FD
:1019D00060E0812FDF91CF911F910C94310CCF3FAC
:1019E000D10511F461E0F5CFE12FF0E0E051F04FC7
:1019F000E491E150EF3008F07FC0F0E0EE5FF24F8D
:101A00000C94162A110D190D1E0D280D320D7C0D8A
:101A10007C0D7C0D3C0D460D500D5A0D670D7C0D57
:101A20006F0D84B5806884BDC7BDDF91CF911F91D4
:101A3000089584B5806284BDC8BDF7CF80918000D1
:101A4000806880938000D0938900C0938800EDCF98
:101A500080918000806280938000D0938B00C0933F
:101A60008A00E3CF80918000886080938000D093CB
:101A70008D00C0938C00D9CF8091900080688093B6
:101A80009000D0939900C0939800CFCF80919000A0
:101A9000806280939000D0939B00C0939A00C5CF42
:101AA00080919000886080939000D0939D00C093B7
:101AB0009C00BBCF8091C00080688093C000809163
:101AC000C0008F7B8093C000C093CF00AECF8091C9
:101AD000C00080628093C000C093D000A6CF8091E8
:101AE000C20088608093C2008091C2008B7F809387
:101AF000C200C093D20099CFC038D1050CF072CF8C
:101B000067CF3FB7F8948091370290913802A09147
:101B10003902B0913A0226B5A89B05C02F3F19F0B3
:101B20000196A11DB11D3FBFBA2FA92F982F88275D
:101B3000BC01CD01620F711D811D911D42E0660F38
:101B4000771F881F991F4A95D1F708958F929F920A
:101B5000AF92BF92CF92DF92EF92FF924B015C0166
:101B60000E94810D6B017C010E94810D6C197D0921
:101B70008E099F09683E734081059105A8F321E015
:101B8000821A9108A108B10888EEC80E83E0D81E19
:101B9000E11CF11C81149104A104B10429F7FF9008
:101BA000EF90DF90CF90BF90AF909F908F9008956F
:101BB0008F929F92AF92BF92CF92DF92EF92FF925D
:101BC0000F931F93CF93DF936C017B018A01809168
:101BD0000B01882309F45CC080916302882309F417
:101BE00057C08091550280FF05C08091E00082605F
:101BF0008093E000E801B12C8AEFA82E93E0892EB3
:101C00002AE3922E209711F4BB20D9F10E94990A61
:101C100081110AC0AA94AA20D9F161E070E080E0A5
:101C200090E00E94A60DEECF8C171D0611F00CF06F
:101C30008C2F9FB7F8948092E9002091E80025FD51
:101C400002C09FBFDFCF282F30E0C21BD30BF701AC
:101C5000815020F041914093F100FACFE20EF31E43
:101C6000BB2021F09092E800B12CEBCF8091E800EE
:101C700085FDE7CF9092E800BB24B394209709F349
:101C8000F3CF5D9884E680935402101611063CF061
:101C900081E090E0F6019383828310E000E0C801C8
:101CA000DF91CF911F910F91FF90EF90DF90CF9038
:101CB000BF90AF909F908F9008954FB18CB123B19A
:101CC00090E08095909533E0959587953A95E1F76A
:101CD000887030E020953095359527953595279576
:101CE0002470822B942F9095907F892B089583B731
:101CF000817F83BF83B7816083BF889583B78E7FE1
:101D000083BF0895E0914602F0914702908180914F
:101D10004502982B9083A0914302B09144022C91EC
:101D200090914202909592239C9390818095892373
:101D300080830895E0914302F09144028081909164
:101D40004202892B8083E0914602F0914702908104
:101D5000809145028095892380830895CF92DF92F8
:101D6000EF92FF920F931F93CF93E82FF0E0E15F84
:101D7000FF4EC491E62FF0E0603398F5E054F04F49
:101D8000E4910E2F10E0F12CE12C60E074E284EF7E
:101D900090E0A70198010E94B22921503109410920
:101DA000510991E02115310581E0480751056CF09A
:101DB00060E970ED83E090E0A70198010E94B229EC
:101DC000215031094109510993E0C13089F0C330F4
:101DD000F9F0CF911F910F91FF90EF90DF90CF908E
:101DE0000895EE0FFF1FE054F14F05911491CBCFF2
:101DF00080918100887F892B8093810030938900B6
:101E00002093880080916F00826080936F00E1CF03
:101E100080919100887F892B809391003093990065
:101E200020939800109335020093340281E0809350
:101E3000330280917100826080937100CACFE82FD5
:101E4000F0E0E15FFF4EE491E13019F0E33089F01A
:101E5000089580916F008D7F80936F0080913E0286
:101E6000E0913F02F0914002908180958923808328
:101E700008951092330280913B02E0913C02F09170
:101E80003D02F2CFE0916602F0916702BF016F5F01
:101E90007F4F70936702609366022491922F907F28
:101EA000822F8F70903819F40E941F0FEBCF90395A
:101EB00081F43296F0936702E0936602FB0164912D
:101EC000909164028917F0F667FDDCCF0E94AE0E98
:101ED000D9CF903E49F48091680290916902909325
:101EE000670280936602CECF903F19F4109265028C
:101EF000089597FDC7CF3296F0936702E09366028C
:101F0000FB016491A0913402B0913502322F262F4B
:101F10000E94F3296C507E4F8F4F9F4F28EE33E085
:101F200040E050E00E94D12920932F0230933002EC
:101F3000409331025093320280912F0290913002EF
:101F4000A0913102B0913202892B8A2B8B2B61F444
:101F500081E090E0A0E0B0E080932F029093300207
:101F6000A0933102B093320208950F931F93CF9341
:101F7000DF9320916A02222329F1162FEC01809130
:101F80006502882381F08091D9068617D8F000E099
:101F900080916402081728F4802F0E941F0F0F5FA2
:101FA000F7CF109265021093D906D0936902C093BF
:101FB0006802D0936702C09366020E94420F81E0DC
:101FC00080936502DF91CF911F910F910895109238
:101FD0006A02E4E6F0E0808188608083E5E6F0E074
:101FE0008081886080830895E4E6F0E08081877FC7
:101FF0008083E5E6F0E08081877F808381E08093C5
:102000006A02089560387105E8F440345105D0F44F
:10201000342F369536953695A0E83A9FF001112475
:10202000E60FF71FE80FF91F3489CA018770992757
:1020300041E050E001C0440F8A95EAF7222319F0ED
:10204000432B448B089540954323FBCF2F923F921F
:102050004F925F926F927F928F929F92AF92BF92B8
:10206000CF92DF92EF92FF920F931F93CF93DF9364
:10207000CDB7DEB72D970FB6F894DEBF0FBECDBF3C
:102080006A3069F5FC01EA5EFB4FDC01A85EBB4FDC
:102090002C9148E0249F9001112440815181240F0C
:1020A000351F3183208314971D921C922D960FB6F5
:1020B000F894DEBF0FBECDBFDF91CF911F910F917E
:1020C000FF90EF90DF90CF90BF90AF909F908F9058
:1020D0007F906F905F904F903F902F9008956D305C
:1020E00029F39D878C878C5E9B4F9A838983FC01A3
:1020F000808091802C853D85285E3B4F3C832B83DF
:1021000030E8831691040CF071C0EC85FD85EA5E21
:10211000FB4F6080718040E4641671040CF066C06F
:10212000AB81BC814C9045E09401449E200D311D53
:102130001124121613060CF059C0242C312C9101D5
:1021400053E0220F331F5A95E1F7260D371D121663
:1021500013060CF04BC0649FB001112410E000E0A6
:10216000FB01E05EF54FFB87EA87E0E0053029F0F0
:10217000EA85FB85E00FF11FE491530198E0592EA9
:102180002E2F30E03E832D83E170EF83F12CE12C84
:10219000E414D8F4C4018E0D9F1D99878887D12C33
:1021A000C12CC41470F4A6014A0D5B1D2F816885F3
:1021B00079858C859D850E9402109FEFC91AD90AE6
:1021C000F0CFAFEFEA1AFA0AE3CFED81FE81F59581
:1021D000E7955A94A20CB31C5110D2CF0F5F1F4F3A
:1021E000820C931C0630110509F0BFCFEB81FC81F6
:1021F0002081422F50E0A981BA818D919C91B6E057
:102200002B9F800D911D1124E981FA819183808398
:10221000EC85FD85E75EFB4F2081222309F446CF44
:102220006AEF64039001659F300D112420583F4FE1
:10223000281739070CF03ACFAC85BD85ED91FC919C
:1022400011970190F081E02D6AE0CD012D960FB637
:10225000F894DEBF0FBECDBFDF91CF911F910F91DC
:10226000FF90EF90DF90CF90BF90AF909F908F90B6
:102270007F906F905F904F903F902F900994AF9216
:10228000BF92CF92DF92EF92FF920F93CF93DF93A3
:102290006C015B017A01E20EF11CEA0157FF02C0FA
:1022A000D0E0C0E0C70121E4E216F10414F080E4BC
:1022B00090E0C817D90744F4202FAE01B501C6013C
:1022C0000E9402102196EECFDF91CF910F91FF90E7
:1022D000EF90DF90CF90BF90AF9008957F928F9254
:1022E0009F92AF92BF92CF92DF92EF92FF920F93A5
:1022F0001F93CF93DF936C017B01722EEC01C40F0F
:10230000D11D8C0197FF02C010E000E058014E0182
:10231000C138D1051CF080E8882E912CA814B9048E
:102320005CF421E0A701B5018BEB92E00E94021062
:102330008FEFA81AB80AEBCF5701A70CB11C81E0A8
:10234000A81AB10821E0A501B8018BEB92E00E9428
:1023500002100F5F1F4F08151905A1F701E0272D87
:10236000A701B6018BEB92E00E943F11BE016150C4
:102370007109272DA7018BEB92E00E943F11DF919D
:10238000CF911F910F91FF90EF90DF90CF90BF9072
:10239000AF909F908F907F900895823029F480E0D5
:1023A00060FF82E086270895873019F483E0861B5A
:1023B0000895883041F0962F91959370862F8095DF
:1023C0008470892B089580E00895BF92CF92DF92A8
:1023D000EF92FF920F931F93CF93DF937C01062F11
:1023E00010E0FC01818182958F7098012827C90136
:1023F00082FF33C06701D0E088E0B82EF60180810B
:10240000382F32953695369533709181292F2F705C
:10241000220F220F232BCB2DC21B2C2F2295220FF4
:10242000220F207C8F73822B8083C695C695CF7038
:10243000907FC92BC1836C2F62956F708D2F0E9486
:10244000CD118295807FCF708C2BF6018183F2E0D5
:10245000CF0ED11CDF5FDA3089F64CE0F7018181C5
:1024600082958F7080171106C1F130E05081852F61
:102470008F7352955695569553709181292F2F70D1
:10248000220F220F252B542F521B252F8450582FFB
:102490005295550F550F507C2F73252B2083869511
:1024A0008695282F2F70892F807F822B818382959C
:1024B0008F70383081F091E0980F93708470892B81
:1024C0008295807F91819F70892B818332963F5FB7
:1024D0003A3061F6C3CF80E0F3CFDF91CF911F9107
:1024E0000F91FF90EF90DF90CF90BF900895AF9243
:1024F000BF92CF92DF92EF92FF920F931F93CF93F1
:10250000DF93522F9091290298134FC08091270298
:10251000909128029C01215031092230310508F0A8
:1025200044C0009123021091240220912502309191
:1025300026020297C1F5802F81700770112722278C
:102540003327FF24F394043011052105310508F0E9
:10255000F12CC7E05C02600111244C0250011124EF
:102560006C02E00111242496A6014C59564FE82E26
:1025700007E027E0B501CE010E945309A6014C50A7
:10258000574FEF2C27E0B501CE010E94530980E0A0
:10259000DF91CF911F910F91FF90EF90DF90CF903F
:1025A000BF90AF90089581E0C8CFF12C81E0D1CFEA
:1025B0008038910560F4FC01E153FD4FCF019C5F31
:1025C00025E52083E058FF4FE817F907D1F7089574
:1025D0008F929F92AF92BF92CF92DF92EF920F9322
:1025E000CF93DF93EC014F960E94D8124E018FE5F6
:1025F000880E911CC4010E94D812A79687E0C82EAD
:10260000D12C5E01EE24E39407E027E04DEE58E084
:10261000B601C5010E9453098EE0A80EB11C8A14B0
:102620009B0481F78EE0C80ED11C8FE3C816D1043D
:1026300041F7DF91CF910F91EF90DF90CF90BF9056
:10264000AF909F908F90089590E01216A4F561319D
:10265000A0F5493090F5062E000C770BA42F042E20
:10266000000CBB0BFB0191E14902E00DF11D1124AF
:10267000E657FE4F908197FD05C0392F330F91E04B
:102680003E3F09F490E031E13A9FF0013B9FF00DAD
:102690001124E60FF71FE657FE4F382F3F77808152
:1026A0008078832B808331E025300CF030E080810E
:1026B00030FB87F98083892F089591E0FCCF2F921A
:1026C0003F924F925F926F927F928F929F92AF92C2
:1026D000BF92CF92DF92EF92FF920F931F93CF930F
:1026E000DF93CDB7DEB729970FB6F894DEBF0FBEE4
:1026F000CDBF682E4B01082F082E000C110B22E0D5
:1027000028170CF49EC01B8244E04A837DEFB72E4D
:10271000F801EE0FFF1FE359FE4FE0808E2D8295EA
:102720008F70982F93709983933009F491C0E1E0F2
:10273000E91BE987923009F08DC0F981F250F887E2
:1027400091E0843008F09FEF980144E0220F331F9E
:102750004A95E1F7A901435B574F6A0150E1859F14
:10276000700111248885899F802D11248C83E9852F
:102770009E9F902D11249D83782E7194A92EA19453
:10278000EB9DF02D1124FF8328852B9D202D1124F6
:102790002E834FEF4983212C000F111F04591E4F28
:1027A0004E803F805B2C5FEFC51AD50AF60131974A
:1027B000E491EE0DFF2DF11DE353F84F2491F80144
:1027C0006081862F829586958695837041814F70B2
:1027D000440F440F482B4A0D44196F73670D630D66
:1027E000862DF40109958111282E5394F9853F0E09
:1027F0002885420E4A814515B4F659815F5F598399
:102800008C81780E9D81A90EEB81E5174CF6822D07
:1028100029960FB6F894DEBF0FBECDBFDF91CF91E2
:102820001F910F91FF90EF90DF90CF90BF90AF90EE
:102830009F908F907F906F905F904F903F902F90E0
:10284000089552E05B8382E08A83BB24BA9460CF10
:10285000198673CF29812195288772CF91E169026A
:10286000B0011124680F711D87FD7A95FB01E657B1
:10287000FE4F8081880F85958093290287FD1DC0BA
:10288000A0E8B1E0E9E0F0E011971A969C911A9760
:10289000891711F03197F8CFE930F10571F0E05860
:1028A000FE4F9181919391E0E938F907D1F7809338
:1028B000890164E273E10C945F130895EF92FF9233
:1028C0001F93CF93DF9330E020E051E190E080E070
:1028D000D901A170BB27529FB001539F700D1124E5
:1028E000FC013497399730F4FD01E823F9234FEFC9
:1028F000EF2B09F04EEFFB01E80FF91FE657FE4FF3
:102900004F77408301968131910551F72F5F3F4FFB
:1029100029303105D9F6C0E8D1E08AE8E82E81E017
:10292000F82E10E064E273E189910E945F13811137
:1029300001C0812F182FEC16FD06A1F791E09093AE
:102940006B01DF91CF911F91FF90EF9008958091DF
:10295000270290912802892BB9F4E0E8F1E080E0A9
:1029600081938F5F8A30E1F788E08093650184E08E
:102970008093640180E68093680110926101109257
:1029800060018FEF80935A010E945E146091640190
:10299000809165010E942E1481E090E090932802BE
:1029A0008093270210925F0180E4809369018091F7
:1029B0005C01811104C010926101109260011092BB
:1029C0005E0110925D0108952091510134E02302CF
:1029D000F0011124E35CFE4F938382837183608353
:1029E0002F5F209351010895CF93DF93D091380149
:1029F000D150D09338012D2F2F50330BC90163E0F4
:102A000070E00E94022A8AE39AEAA3EEBEEE04C0B6
:102A1000B695A795979587956A95D2F7C82FC170F7
:102A2000C09337016FEF70E08AE00E94DE0C6FEF19
:102A300070E08BE00E94DE0C8FE7C89F802D112490
:102A40006FEF70E0681B710989E00E94DE0C81E085
:102A500090E0DD2311F090E080E0DF91CF910895C8
:102A600088E78093380108956FEF82EB91E00C9432
:102A7000B50F0E94341584E090E090935401809348
:102A8000530181E08093520181E090E008950E941B
:102A9000341590916A0181E0982790936A018093A0
:102AA000520180935C0181E090E0089580916A0278
:102AB00081110CC00E94F40F0E94341581E08093B4
:102AC000520180935C0181E090E008950E94E70F3D
:102AD000F3CF6FEF8CEA91E00C94B50F0E9469156B
:102AE0008091530190915401029719F083E090E096
:102AF000089582E090E00895CF93DF93C091530151
:102B0000D0915401C430D105B1F48CE00E94B308D7
:102B1000882361F00E94341581E090E09093540185
:102B2000809353018093520180933C0181E090E0B7
:102B3000DF91CF91089580E80E94B308882361F067
:102B400080913B01181644F4815080933B010E9410
:102B5000691581E08093520180E10E94B3088823C7
:102B6000B9F020913B01422F022E000C550B8091B1
:102B70005101082E000C990B01974817590744F48E
:102B80002F5F20933B010E94691581E080935201E1
:102B900084E00E94B308882371F0E0913B0184E057
:102BA000E802F0011124E35CFE4F0190F081E02D7A
:102BB000DF91CF91099488E00E94B308882309F43B
:102BC000B5CF219709F4B2CFDF91CF910C946E1558
:102BD00010926301109262018091D806982F907F25
:102BE00041F190915F019F5F94310CF590935F01EB
:102BF00090915F01913011F09F30E9F485FF03C09F
:102C00009FEF9093620186FF05C0909162019F5FE4
:102C10009093620187FF03C09FEF9093630184FF4D
:102C20000AC0809163018F5F8093630108959FE0E4
:102C3000DDCF10925F0108952F923F924F925F92E5
:102C40006F927F928F929F92AF92BF92CF92DF92BC
:102C5000EF92FF920F931F93CF93DF93CDB7DEB721
:102C60002D970FB6F894DEBF0FBECDBF6A3071F559
:102C7000FC01EA5EFB4FDC01A85EBB4F4C9120815A
:102C8000318156E0459F200D311D11243183208371
:102C900014971D921C9281E090E02D960FB6F89447
:102CA000DEBF0FBECDBFDF91CF911F910F91FF907F
:102CB000EF90DF90CF90BF90AF909F908F907F90DC
:102CC0006F905F904F903F902F90089520EE260FC9
:102CD000203408F79D878C878C5E9B4F9E838D8365
:102CE000FC01208031802C853D85285E3B4F398753
:102CF000288730E8231631040CF064C0EC85FD858C
:102D0000EA5EFB4FE080F18050E4E516F1040CF040
:102D100059C0A885B9851C91412E512C9101B5E06F
:102D20001B9F200D311D112437FD4CC09701E6E09B
:102D30001E9F200D311D112437FD44C0EC85FD85FB
:102D4000E55EFB4F7080EC85FD85E65EFB4F6080A5
:102D500024E0629FF0011124E45DFF4F859095907F
:102D6000A590B490113009F05FC026E0522ED12C0E
:102D7000C12CD501C40181709927AA27BB2780FCEB
:102D800002C0761471F0262D892B8A2B8B2B09F427
:102D9000272DA7014C0D5D1DB1018C859D850E94DD
:102DA0000210B694A794979487943FEFC31AD30A5E
:102DB00056E0C516D104E9F65A948FEF281A380A5E
:102DC0005110D5CFA885B9852C91422F50E0ED81C7
:102DD000FE8180819181F6E02F9F800D911D11244D
:102DE000AD81BE818D939C93EC85FD85E75EFB4FA5
:102DF0002081222309F44FCF6AEF64039001659F7D
:102E0000300D112420583F4F281739070CF043CFBD
:102E1000AC85BD85ED91FC9111970190F081E02D7D
:102E20006AE0CD01099537CF96E09B83FA82E9826B
:102E3000A6E0AC83F101E40DF51DFB87EA87D5011F
:102E4000C40181709927AA27BB2780FC02C0761491
:102E5000D1F0892B8A2B8B2BA1F06F8261012A85FF
:102E60003B85C216D3067CF40F81212F49815A81FC
:102E7000B6018C859D850E943F113FEFC31AD30A8E
:102E8000EECF7F82EBCFB694A794979487945C8122
:102E900051505C8389819A81840D951D9A83898321
:102EA0005111CDCF9B8191509B83240C351C9111E6
:102EB000BDCF88CFEF92FF920F931F93CF93DF93F5
:102EC0008C017B01D0E0C0E0F701EC0FFD1F6491A5
:102ED000662339F0C8010E941C16892B11F0219637
:102EE000F3CFCE01DF91CF911F910F91FF90EF9023
:102EF00008958F929F92AF92BF92CF92DF92EF92FE
:102F0000FF920F931F93CF93DF936B015A012CE035
:102F1000289FE001299FD00D1124C051D64FBA013E
:102F20006150710900E041E2C60101970E94C508A5
:102F3000FE01449117E0419FA00111244C52564FCD
:102F4000EE24E39405E027E0B501C6010E94530991
:102F5000FE01369644914501F6E08F0E911C419F8B
:102F6000A00111244C52564F27E0B401C6010E9423
:102F7000530988E0C80ED11C8FECE82E86E0F82EAD
:102F8000F701D182C08201ED16E0F801B182A08282
:102F9000BE016F5F7F4F8BEB92E00E945A17F701E3
:102FA000D182C082F80191828082BE01695F7F4F29
:102FB0008BEB92E0DF91CF911F910F91FF90EF90FB
:102FC000DF90CF90BF90AF909F908F900C945A1746
:102FD000AF92BF92CF92DF92EF92FF920F931F9327
:102FE000CF93DF93C0902702D090280221E0C21A2D
:102FF000D10880916B01882309F442C00E94600AC5
:1030000090E080E00E94E812C0E8D1E067E772E15A
:1030100089910E945F1331E0CA38D307B9F7109243
:103020006B01809127029091280281309105A9F5CA
:1030300080916501082E000C990B019627E0289FCE
:103040005001299FB00C1124C0916401C202E0011B
:1030500011242296E09023022E2D2170E22E07E00B
:1030600027E040EE56E0BE01C5010E945309E12C65
:1030700027E049ED56E0BE01C5010E94530931C069
:1030800082E0C816D10468F68091290287FDC9CF75
:1030900067E772E10E945F13C4CF039711F5809137
:1030A000660190916701992309F489C0893608F473
:1030B00045C090E07C0139E3E31AF108F594E79408
:1030C00099E7B92EB81AD0E0C0E001E02B2DA70196
:1030D000BE018BEB92E00E943F112196C038D105D2
:1030E000A1F780916A01882309F4ABC082E0C81679
:1030F000D10408F0A6C08091270290912802019780
:1031000009F499C08091D80683FF98C082E090E0CE
:1031100040916901042E000C550B60916801062E48
:10312000000C770BDF91CF911F910F91FF90EF90E3
:10313000DF90CF90BF90AF900C9479178835A0F1B5
:10314000282F2855330BE901AA24A394B12CF12C84
:10315000E12C01E020E148E150E0B7018BEB92E087
:103160000E943F113FEFE31AF30A80E8E816F104EA
:1031700081F7CE0101968C9F90018D9F300D9C9F11
:10318000300D1124359527952A9DC0012B9D900D5A
:103190003A9D900D1124E12C00E12CE645EF56E01C
:1031A00068E170E00A9669CF813108F09ACFC1E1F9
:1031B000D0E0C81BD109AA24AA94BA2CC8CF843362
:1031C00020F190E0EC012396D595C7952DE330E0F2
:1031D0007901E81AF90A1E2DB12CA12C00E0212F4B
:1031E000AE01B5018BEB92E00E943F112FEFA21AC6
:1031F000B20A30E8A316B10489F72E2D42E8BE01C9
:103200008FEF9FEF0E946E116CCF833309F069CF6F
:1032100089E190E09093D0068093CF068DE190E015
:103220009093D2068093D10667EE76E08BEB92E026
:103230000E945A1756CF90E080E06ACF81E090E07C
:1032400067CFDF91CF911F910F91FF90EF90DF90AB
:10325000CF90BF90AF9008958F929F92AF92BF9200
:10326000CF92DF92EF920F93CF93DF930E94600A89
:103270002091380188E790E0821B91096CE270E0B0
:103280000E94022A4B018FE5C82E82E0D82E9CE1D5
:10329000A92EB12CD0E0C0E081E090E08C169D0614
:1032A00011F090E080E020913701289FB001299F24
:1032B000700D1124645F7F4FEE24E39400E228E157
:1032C000A601C5010E945309219688E1A80EB11CF0
:1032D00080E6C80ED11CC330D105F1F608E020E22B
:1032E0004FE352E06CE270E084E490E00E94530906
:1032F00080E190E09093D0068093CF068AE390E03F
:103300009093D2068093D1066EE272E08BEB92E04E
:10331000DF91CF910F91EF90DF90CF90BF90AF9062
:103320009F908F900C945A17089590E080E0089534
:10333000F999FECF80915701909158019C012F5F20
:103340003F4F30935801209357010C9479290E94E4
:10335000302A62E08DE596E00E94B50F44E150E02E
:1033600069E476E08CE691E00E94552981E0809343
:103370005C0182E090E090935401809353010895A2
:10338000CF92DF92EF92FF920F931F93CF93DF9331
:1033900080915201882399F1209153013091540179
:1033A00024303105A9F50E94600AC8E0D0E002ECA3
:1033B00015E064E170E0C8010E945E297C01FF24F1
:1033C000282F3DEF3203C0011124805C9F4F909362
:1033D000D0068093CF06D093D206C093D106B80111
:1033E0008BEB92E00E945A178FEFE81AF80A0E0D45
:1033F0001F1D2696C833D105E1F610925201DF91C8
:10340000CF911F910F91FF90EF90DF90CF90089593
:1034100080915101C2E22130310531F0982F990F8E
:10342000990FC82FC91BC05E182F110F180F110F4D
:103430000C2E000CDD0B80913C018823A1F0213083
:10344000310509F07EC00E94600AEE24E39400E298
:1034500020E842EC53E070E060E090E080E00E9401
:10346000530910923C011F5F6E01E1E0CE1AD108B2
:1034700083E1E82EF12C00E0212FA601B7018BEBB0
:1034800092E00E943F11FFEFEF1AFF0A2CE6E216CE
:10349000F10489F76E01F12CE12C0DE311E020918C
:1034A0003B01422F022E000C550B80915101082E3A
:1034B000000C990BE816F9060CF04EC0F801628179
:1034C00073818AE190E0E416F50611F08EE190E058
:1034D0009093D0068093CF06D092D206C092D106A8
:1034E0008BEB92E00E945A17F801808191818655FA
:1034F000954161F480916A026EEB73E0811102C024
:1035000069EB73E08BEB92E00E945A17F80180811F
:1035100091818754954161F480916A016EEB73E06B
:10352000811102C069EB73E08BEB92E00E945A17A5
:103530002FEFE21AF20A0C5F1F4F36E0C30ED11CC8
:10354000AECF23E0210F4BE5BE016250710982E14D
:1035500090E00E946E1185CFBE0186E02802600DCA
:10356000711D112401E025E045E084E190E00E9416
:10357000C50843CFCF92DF92EF92FF920F931F9334
:10358000CF93DF93CDB7DEB7A1970FB6F894DEBF28
:103590000FBECDBF182F8A3020F48BEB92E00E9433
:1035A0001C16212F30E050E040E019A28E010F5D83
:1035B0001F4F8AE0C82ED12CE12CF12CCA01B90191
:1035C000A70196010E94D129605DF80162938F01E5
:1035D000211531054105510589F7309761F00190BA
:1035E0000020E9F73197AF01401B510BB8018BEB7D
:1035F00092E00E94040CA1960FB6F894DEBF0FBEB5
:10360000CDBFDF91CF911F910F91FF90EF90DF9091
:10361000CF900895EF920F931F93CF93DF93CDB781
:10362000DEB728970FB6F894DEBF0FBECDBF8091EE
:103630003601882309F49EC00E94600A84EE9FEF41
:103640000E94E81210E067E772E1812F0E945F1389
:103650001F5F1A30C1F7EE24E39400E126E348EB44
:1036600051E064E070E088E490E00E94530980E655
:1036700090E09093D0068093CF0686E190E09093FF
:10368000D2068093D1068091590160E28F5F0E943B
:10369000BA1A6FE28BEB92E00E941C1660E28091F6
:1036A0005B010E94BA1A08E410E01093D006009360
:1036B000CF0682E290E09093D2068093D10664E236
:1036C00072E08BEB92E00E945A171093D0060093A1
:1036D000CF0688E290E09093D2068093D106609165
:1036E000230270912402809125029091260220EC01
:1036F0003BE443E050E00E94D1295F934F933F9316
:103700002F9381E391E09F938F938E010F5F1F4F63
:103710001F930F930E94422AF80101900020E9F7BD
:103720003197AF01401B510BB8018BEB92E00E9427
:10373000040C6091230270912402809125029091E3
:10374000260220E13EE040E050E00E94D129CA017B
:10375000B9012CE330E040E050E00E94D129862FEF
:1037600060E30E94BA1A109236010FB6F894DEBFD9
:103770000FBECDBF80916A01882359F04091690145
:10378000042E000C550B60E670E083E090E00E9490
:10379000791728960FB6F894DEBF0FBECDBFDF9124
:1037A000CF911F910F91EF900895CF93DF93EB018D
:1037B000F999FECF6091570170915801AE010E94B6
:1037C0008D2960915701709158016C0F7D1F709386
:1037D000580160935701DF91CF910895AB01BC016F
:1037E000F999FECF80915701909158010E94A52927
:1037F00080915701909158010496909358018093BD
:1038000057010895F999FECFBC018091570190911D
:1038100058010E94AD29809157019091580102965C
:1038200090935801809357010895F999FECF682F1E
:1038300080915701909158010E94972980915701DA
:1038400090915801019690935801809357010895E3
:10385000CF92DF92EF92FF928091390190913A01DD
:10386000019709F075C080E693E09093580180932A
:1038700057016FE472E48EE494E00E94EE1B64E171
:1038800070E08CE691E00E94D51B80916A010E9455
:10389000151C80915B010E94151C609123027091A0
:1038A000240280912502909126020E94EE1BECE6F4
:1038B000F1E025E030E049E35FE461917191629FBE
:1038C000C001639F900D729F900D1124480F591FE6
:1038D0002E5F3F4F2931310581F7C0902302D090F0
:1038E0002402E0902502F090260220915B01809155
:1038F0006A01322F282F69E1629FC001639F900DFA
:1039000011246DE16E9D90016F9D300D1124EBE14E
:10391000EC9DB001ED9D700D1124260F371F820F15
:10392000931F840F951F0E94021C60916A0282E01F
:1039300090E00E94972982E090E090933A01809372
:10394000390110925C01FF90EF90DF90CF900895C5
:1039500084E693E0909358018093570190CF0E94A2
:10396000341580915C0181110E94281C83E090E055
:1039700090935401809353010895CF93DF93EB010B
:10398000F999FECF6091570170915801AE010E94E4
:10399000692960915701709158016C0F7D1F7093D8
:1039A000580160935701DF91CF910895EF92FF92F4
:1039B0000F931F93CF93DF93CDB7DEB72A970FB640
:1039C000F894DEBF0FBECDBF809159012AE0829FDF
:1039D000C0011124809690935801809357016AE0AA
:1039E00070E0CE0101960E94BD1CECE6F1E030E0F3
:1039F00020E005E010E0EE24E394F12CEC0EFD1E37
:103A0000E20EF31ED7018C918F7190E0B8010E94F5
:103A1000022A8E5F880F8E73660F6E73462F429553
:103A2000440F440F407C482B4083D7015C91529552
:103A300056955770752F7295707F962F969596951F
:103A4000972B9183223031050CF04AC050FF10C0F3
:103A50006F5F862F8F736295660F660F607C4F7362
:103A6000642B608386958695907F982B918305C003
:103A70008F5F8F73407C842B80832F5F3F4F329604
:103A80002A30310509F0B7CF80916D01682F62951A
:103A90006F708F7080936D018CE691E00E94E5114C
:103AA00030E020E0F901EE0FFF1FE459FE4F808166
:103AB0009CE3980F9F73807C892B80832F5F3F4FFF
:103AC0002A30310579F72A960FB6F894DEBF0FBE7B
:103AD000CDBFDF91CF911F910F91FF90EF9008958F
:103AE000A901435051094530510538F68F5F6F5F8A
:103AF000462F4F736295660F660F607C8F73862B1F
:103B00008083842FAFCFCF93DF930E94E81588E0A6
:103B10000E94B3088823A1F00E94341581E48093A9
:103B2000690181E08093360181E090E02091690194
:103B300026331CF0215020936901DF91CF91089525
:103B4000C0916201CC23C1F0D091590120915B0159
:103B50008C2F0C2E000C990B8D0F911D2817190618
:103B600059F050F00E946915CD0FC09359010E9481
:103B7000D61C81E08093360183E090E0D7CF0E948D
:103B8000D61C10925F0180E48093690181E08093EC
:103B9000360108959F92AF92BF92CF92DF92EF923B
:103BA000FF920F931F93CF93DF93CDB7DEB76E973E
:103BB0000FB6F894DEBF0FBECDBF0E94E81580910E
:103BC0002702909128028130910509F056C020917A
:103BD00063018091620190916501482F082E000CCD
:103BE000550B490F511D97FD5A954131510508F06C
:103BF00080E060916401422F022E000C550B460FAD
:103C0000511D67FD5A954930510508F007C38111D0
:103C100009C3211107C384E00E94B308882389F0F7
:103C20008091290287FD0DC062E083E796E00E9443
:103C3000B50F82E090E0909328028093270281E004
:103C40005FC088E00E94B308882309F45BC000913C
:103C50006001109161010E94341580915C018823FC
:103C600049F0003B144030F00E94281C1092610182
:103C70001092600184E090E0DECF8230910509F07F
:103C800030C2D09029020D2D0D2C000C110B80910B
:103C9000D80683FF8CC080E20E94B308E82EF12C86
:103CA00080E40E94B308811159C0F194E194F108B5
:103CB000E114F10409F45BC063E083EC96E00E9438
:103CC000B50F000F111FF801E359FE4F9081929537
:103CD0009F7038E0D31609F448C0E90E6E2D63706A
:103CE000E62E9470E92AF801E459FE4FE294A0EF21
:103CF000EA2281818F70E82AE18281E080935C0171
:103D000080936B018091230290912402A09125025F
:103D1000B09126020196A11DB11D809323029093BC
:103D20002402A0932502B09326028091270290914D
:103D30002802029709F0F7C1E0912902EE0FFF0B6C
:103D4000E459FE4F20812F7391E02A300CF490E06B
:103D500081E027300CF4F1C180E0EFC181E090E018
:103D60009C012E193F097901A3CFE12CBCCF80E93A
:103D70000E94B308882331F263E08DEA96E00E9446
:103D8000B50F000F111FF801E359FE4F60816295D6
:103D90006F708D2D0E94CD11F801E459FE4F982FC0
:103DA0009295907F81818F70892B8183A6CFE0903F
:103DB000620141E082E08D150CF040E0242F30E0FC
:103DC000000F111FF801E459FE4F80818F736E2D93
:103DD0000E2C000C770B860F972F911D82179307DF
:103DE0000CF492C060E170E0411102C061E170E04A
:103DF000861797070CF088C0F0906301F801E4592A
:103E0000FE4F8081982F929596959695937081811B
:103E10008F70880F880F892B6F2D0F2C000C770B5C
:103E2000860F972F911D821793070CF407C228E085
:103E300030E0411102C029E030E0821793070CF016
:103E4000FDC1E110FFC1F110FDC184E00E94B30883
:103E5000882309F457CF0E945E14882309F456C0C2
:103E600062E08FE996E00E94B50F81E090E09093C8
:103E7000280280932702D801A459BE4F9C91692F34
:103E80006F736093650192959695969593701196D0
:103E90008C918F70880F880F892B8093640170E05C
:103EA00040912902042E000C550B91E1E82FF0E01F
:103EB000DB01989FA00DB11D1124A657BE4F2C9178
:103EC000220F2595022E000C330B2417350709F419
:103ED000B6CE9F0121503109929FF001939FF00DC2
:103EE0001124E60FF71FE657FE4F2081220F25957C
:103EF000022E000C330B9FEF4217530709F091E09D
:103F0000890F809364019BCEE12C76CF84E1ECE6AF
:103F1000F1E0DE01119601900D928A95E1F7FA80A9
:103F2000F2944FE0F42260E0CE0101960E94E51188
:103F3000F29450EFF5228A818F708F298A83DE01F7
:103F40005596FE0131966D012081422F4F7350E04E
:103F5000CA01049797FD0196AC0155954795922F9C
:103F600092959695969593702181822F8F70880FE8
:103F7000880F892B90E095958795982F990F990F29
:103F8000890F840F22952F702295220F207E8F712A
:103F9000822B8D933296EC15FD05B1F6AA24AA94D6
:103FA000BA2CEAE09E2EF0905B01FA141B0409F093
:103FB0000CF457C0EA2C2FEFA216B20611F4E090D1
:103FC0005A01EF1420F03FEFA31AB30AECCF80910F
:103FD0005A018A151B04B9F3E99CC001112480968B
:103FE00090935801809357016AE070E0CE010196EA
:103FF0000E94BD1C8D89998189278F7121F749E025
:1040000050E0BE016E5F7F4FCE0146960E94352A7A
:10401000892BC9F6F0905B0181E0FE1080E080936F
:10402000670180915A018E1509F41ACFE0925A0166
:1040300061E0FE1050C089E896E00E94B50F81E073
:104040008F0D80935B010E94281C109261011092D9
:104050006001F092590188E78093660183E090E067
:1040600006CF6AE0F69EC001112480969093580115
:10407000809357016AE070E0C6010E94D51B8091D1
:10408000550190915601F601AE01415E5F4F65E02A
:10409000F69E90011124220F331F2C193D09215047
:1040A0003109A191B1917901EE0EFF1EEA9EB00196
:1040B000EB9E700DFA9E700D1124860F971F4E1700
:1040C0005F0779F790935601809355010E94021C77
:1040D000E0905B019FCF81E896E00E94B50F8CE3F2
:1040E000BBCF039709F021CE1091660111501093B8
:1040F000660111111ACE80916402181728F4812FDD
:104100000E941F0F1F5FF7CF1092650281E090E0C1
:10411000909328028093270280E48093690181E0D4
:1041200080936B0102CE2091650191E02C300CF45C
:1041300090E081E025300CF00FCE992321F0909192
:104140006801191634F0882381F08091680181118B
:104150000CC09091680180E6891B8093680180E41F
:104160008093690181E080936B01809169018633BE
:104170001CF08150809369018091600190916101F0
:1041800080322CE1920728F401969093610180938C
:10419000600180915F01811139C080915D01909132
:1041A0005E018C3231E09307F8F4019690935E0142
:1041B00080935D018091270290912802049759F520
:1041C00081E090E06E960FB6F894DEBF0FBECDBFD3
:1041D000DF91CF911F910F91FF90EF90DF90CF90E3
:1041E000BF90AF909F90089580915C01882311F358
:1041F000809160019091610180329C41D8F20E94CF
:10420000281C1092610110926001D4CF10925E01BF
:1042100010925D01CFCF82E090E0D4CF882309F4E3
:10422000FACC20E0890F80936501620F60936401EE
:104230000E942E1481E080936B01EDCCF12CEE20D6
:1042400009F403CE0E946915F801E459FE4F8081FC
:10425000982F9E0D9F73807C982B392F3295369521
:10426000369533702181822F8F70880F880F832BB2
:104270008F0D382F3295330F330F307C9F73932B74
:104280009083869586958F70207F822B818381E035
:1042900080935C0180936B01D8CDCF93DF93C09165
:1042A0005301D0915401C130D10571F460E087E22F
:1042B00096E00E94B50F82E090E0909354018093C5
:1042C0005301DF91CF9108950E943415239799F7F8
:1042D00084E693E0909358018093570164E170E085
:1042E0008CE691E00E94BD1CE6CFCF93DF93F99955
:1042F000FECFC0915701D0915801CE010E94812973
:104300002496D0935801C0935701DF91CF9108951F
:10431000CF93DF93F999FECFC0915701D091580107
:10432000CE010E9487292296D0935801C09357014D
:10433000DF91CF910895EF92FF920F931F93CF9348
:10434000DF938091530190915401892B09F0A2C011
:1043500080E693E090935801809357010E94752165
:104360006F3472448E44944009F0DBC0C5E0D0E065
:1043700009E31FE40E948821AC014C9FC0014D9FBE
:10438000900D5C9F900D1124080F191F2296CF31BC
:10439000D10581F70E9488210817190709F0C1C0CB
:1043A00084E693E0909358018093570164E170E0B4
:1043B0008CE691E00E94BD1C0E94981991E0811149
:1043C00001C090E090936A010E949819C82F8093D1
:1043D0005B010E94752160932302709324028093F5
:1043E00025029093260282E090E090933A01809318
:1043F00039011092560110925501CC23C9F180E287
:1044000090E0909358018093570155E0C59FE001DB
:10441000112410E000E0E0905501F0905601C01723
:10442000D107C1F00E9488219801220F331F2F5F0E
:104430003F4FAC01249FC001259F900D349F900DEC
:1044400011248E0D9F1D90935601809355010F5F8F
:104450001F4FE1CF0E948821E816F90649F010921B
:104460005B01109256011092550181E080935C012E
:1044700080915B0181508093590180916A02882369
:1044800009F46BC00E94F40F81E090E09093540116
:104490008093530110925101C0915301D091540166
:1044A000C130D10509F05CC06DE471E284EA93E0AB
:1044B0000E94E414C330D10509F45DC080915B0112
:1044C000882331F06FEA7CE18CE993E00E94E414E8
:1044D00066E575E186E993E00E94E41467E475E11E
:1044E0008CE893E00E94E41469E375E185E893E0C9
:1044F000C130D10531F0229731F469EA79E18FE7D3
:1045000093E00E94E41410923B0181E080935201F9
:1045100080933C01DF91CF911F910F91FF90EF901D
:10452000089544E150E069E476E08CE691E00E9471
:10453000552981E080936A0110925B011092230259
:1045400010922402109225021092260221E030E0FF
:1045500030933A012093390189CF0E94E70F94CF1D
:104560006EE675E180EB93E00E94E414C230D10561
:1045700009F4A4CF99CF66E575E186E993E00E943E
:10458000E41467E475E18CE893E0BBCF1F920F92CF
:104590000FB60F9211248F939F938091E100909119
:1045A000E100937F9093E10083FF0FC01092E90038
:1045B00091E09093EB001092EC0092E39093ED0069
:1045C0001092630298E09093F00082FF22C093E083
:1045D0009093E9009091F200992319F09AE3909357
:1045E000E80090915402992341F090915402915027
:1045F00090935402911101C05D9A909162029923A7
:1046000041F090916202915090936202911101C029
:10461000289A84FF18C08091E2008E7E816080938A
:10462000E2008091E1008F7E8093E100809155024D
:104630008E7E8061809355029F918F910F900FBE67
:104640000F901F90189580FFF7CF8091E2008E7E2B
:1046500080618093E2008091E1008E7E8093E10092
:10466000809155028E7E8160E5CF1F920F920FB62A
:104670000F921124CF92DF92EF92FF920F931F932C
:104680002F933F934F935F936F937F938F939F935A
:10469000AF93BF93EF93FF93CF93DF93CDB7DEB785
:1046A0006C97DEBFCDBF1092E9008091E80083FFD8
:1046B00025C068E0CE0145960E94F70B82EF8093FB
:1046C000E8008D8987FF39C09091E80090FFFCCF0A
:1046D000982F907609F034C19E894F89588D2F8983
:1046E000F88C911131C0803861F58091530280932C
:1046F000F1001092F1008EEF8093E8006C960FB6F7
:10470000F894DEBF0FBECDBFDF91CF91FF91EF9147
:10471000BF91AF919F918F917F916F915F914F91D9
:104720003F912F911F910F91FF90EF90DF90CF90CD
:104730000F900FBE0F901F9018959EEF9093E8007A
:10474000C7CF1092F100D5CF913059F48111D3CF5A
:104750004130510581F6809153028D7F8093530241
:10476000CACF933049F48111C6CF4130510519F6B3
:10477000809153028260F2CF953041F48091E8003D
:1047800080FFFCCF20682093E300B5CF963009F07E
:10479000A9C00B8D1C8D22E01092E90010925102ED
:1047A00010925002F2122EC010924F0210924E023E
:1047B0000E94C60B1F8299E09983FA8291E09E8342
:1047C00090EA98879AEF9987209150023091510290
:1047D000275F3F4F3C832B838D831092E90010921B
:1047E00051021092500210934F0200934E0249E082
:1047F00050E0BE016F5F7F4F80E00E94A00B0E94DF
:10480000C60B79CF10934F0200934E020E94AA0A62
:10481000DC0112960D911C910115110509F451C18D
:10482000D801ED91FC910480F581E02DBE016B5E15
:104830007F4FC8010995009709F03EC1F801008536
:104840001185EACFF3E0FF120EC08F89882309F4A7
:1048500040C0823061F440E867E088E091E10E9466
:104860006D0B811148CF81E28093EB0047CF8130FF
:1048700029F440E86BE08CEF90E1F1CF833099F7B9
:104880000E94AA0ADC011296ED90FC908E010F5F47
:104890001F4F6801E114F10479F0D701ED91FC910B
:1048A0000680F781E02DB801C7010995080F111D99
:1048B000F701E084F184EECFD8011C92F60101905B
:1048C0000020E9F73197BF016C197D0940E0C6016E
:1048D000C6CF66EE70E1FB01449150E080E80E9493
:1048E000A00B09CF973009F4BECF983021F481E0B6
:1048F0008093F10000CF993009F0FDCE837009F06C
:10490000B2CFEDE0F1E081E031E096E321912223A6
:1049100071F08093E9003093EB00DF0111972C9147
:104920002093EC009093ED008F5F873079F78EE74E
:104930008093EA001092EA008F8980936302DBCEB5
:104940008B8D9C8D1092E9001092510210925002B2
:1049500090934F0280934E02898D811192C08E896F
:104960009D89913A49F4813209F07DCF47E050E0CA
:1049700064E071E080E0B3CF913209F074CF83320C
:1049800069F48F89988DB0E0A0E080930001909346
:104990000101A0930201B0930301ADCE803269F40E
:1049A0008091E80082FFFCCF67E084E091E00E9404
:1049B000F70B8BEF8093E8009ECE823209F09BCEFE
:1049C0008F8980930B01EEEFFFE7859194918B3FE8
:1049D0009C4D51F1E0E0F8E08091040190910501D7
:1049E000A0910601B0910701803B9440A105B1055B
:1049F000F1F480910B0180FD1AC0EE3F8AE0F807C8
:104A000089F587E797E791838083809160008093A1
:104A1000520288E19BE00FB6F894A895809360005D
:104A20000FBE9093600067CEEEEFFAE0D5CF8081A5
:104A300091818737974709F05ECEA89580916000F5
:104A40008861809360008091520280936000EE3F05
:104A50002AE0F20789F08091FE0A9091FF0A918383
:104A6000808349CE808191818737980751F2909356
:104A7000FF0A8093FE0AC5CF1092FF0A1092FE0A29
:104A80003ACE0E94AA0ADC0112960D911C910115E2
:104A9000110509F4E8CED801ED91FC910190F08167
:104AA000E02DBE016B5E7F4FC8010995811123CEB9
:104AB000F80100851185EBCF181619060CF41BCEF2
:104AC000D2CEF1E0FF12BECE6AEE70E104CF1F92AB
:104AD0000F920FB60F9211242F933F938F939F93B2
:104AE000AF93BF938091480290914902A0914A02EE
:104AF000B0914B023091360223E0230F2D3758F549
:104B00000196A11DB11D2093360280934802909317
:104B10004902A0934A02B0934B02809137029091D0
:104B20003802A0913902B0913A020196A11DB11D3F
:104B30008093370290933802A0933902B0933A02DF
:104B4000BF91AF919F918F913F912F910F900FBE89
:104B50000F901F90189526E8230F0296A11DB11DF6
:104B6000D2CF1F920F920FB60F9211242F933F9323
:104B70004F935F936F937F938F939F93AF93BF9365
:104B8000EF93FF9380913302882349F080913B0299
:104B9000E0913C02F0913D029081892780838091D1
:104BA0006502882329F180912F0290913002A09113
:104BB0003102B0913202892B8A2B8B2BC9F0809164
:104BC0002F0290913002A0913102B09132020197F0
:104BD000A109B10980932F0290933002A093310272
:104BE000B0933202892B8A2B8B2B11F40E94420F37
:104BF000FF91EF91BF91AF919F918F917F916F91B5
:104C00005F914F913F912F910F900FBE0F901F908A
:104C100018951F920F920FB60F9211248F939F93A6
:104C2000AF93BF93EF93FF9380912E02882309F4F3
:104C300052C080912A0290912B02A0912C02B09137
:104C40002D02892B8A2B8B2BA1F190913E02E091B2
:104C50003F02F091400280818927808380912A025F
:104C600090912B02A0912C02B0912D0218161906DA
:104C70001A061B069CF480912A0290912B02A091A7
:104C80002C02B0912D020197A109B10980932A024B
:104C900090932B02A0932C02B0932D02FF91EF91E1
:104CA000BF91AF919F918F910F900FBE0F901F906A
:104CB000189510922E0280916F008D7F80936F0067
:104CC00080913E02E0913F02F091400290818095F8
:104CD00089238083E3CF90913E02E0913F02F091DF
:104CE000400280818927F5CFEBE6F2E01382128241
:104CF00088EE93E0A0E0B0E084839583A683B78339
:104D000087E191E0918380838FEF9FEF9587848780
:104D1000EBEBF2E0138212828CE3868380E18187E1
:104D20001086178216861786108A118A128A1092A8
:104D3000D0061092CF061092D2061092D10681E0D2
:104D40008093D30629E231E0318320838093D50616
:104D50001092D6060895789484B5826084BD84B597
:104D6000816084BD85B5826085BD85B5816085BD66
:104D700080916E00816080936E001092810080911E
:104D800081008260809381008091810081608093A6
:104D900081008091800081608093800080919100EB
:104DA0008260809391008091910081608093910056
:104DB000809190008160809390008091C100846018
:104DC0008093C1008091C10082608093C100809176
:104DD000C10081608093C1008091C3008160809395
:104DE000C3008091C00082608093C0008091C200A7
:104DF00081608093C20080917A00846080937A0001
:104E000080917A00826080937A0080917A0081603C
:104E100080937A0080917A00806880937A00109263
:104E2000630210925302109255028091D700816064
:104E30008093D70080EA8093D80089B5806189BDCE
:104E400089B5826089BD09B400FEFDCF61E070E0E4
:104E500080E090E00E94A60D8091D8008F7C806158
:104E60008093D8008091E000807F8093E000809163
:104E7000E1008E7E8093E1008DE08093E200559A00
:104E8000209ACFB7F89480914102811127C0EBE6B8
:104E9000F0E18491EEE3F0E19491E82FF0E0EE0F81
:104EA000FF1FEF5EFF4EA591B491EC91E92321F431
:104EB00061E081E10E94310C61E081E10E94A20C7D
:104EC0008CB580618CBD8CB580648CBD61E08FE059
:104ED0000E94A20C61E080E10E94A20C809141023C
:104EE0008F5F80934102CFBFC9E7D0E1BE01FE01D1
:104EF00084916F5F7F4F2296FB016491882319F0A4
:104F00000E94A20CF3CF61E086E00E94310C61E0C8
:104F100070E080E090E00E94A60D60E086E00E94D4
:104F2000310C6AE070E080E090E00E94A60D61E044
:104F300086E00E94310CE6E6F0E1E491F0E0EE0F4D
:104F4000FF1FE45BFF4E85919491909347028093FD
:104F50004602E9E3F0E1E491E0934502EEE5F0E199
:104F6000E491F0E0EE0FFF1FE45BFF4E859194911A
:104F70009093440280934302E1E3F0E1E491E093F3
:104F800042028CB58C7F8CBD8DB581608DBD0E9439
:104F9000820EEFE1F0E18DE290E18E179F0749F07C
:104FA00024912EBD00000DB407FEFDCF2EB5319625
:104FB000F4CF0E949A0E8091640081608093640017
:104FC00080916400826080936400809164008068B6
:104FD0008093640080916400806480936400809179
:104FE00065008160809365000E945D0E87FF22C08E
:104FF0000E94820E85EA8EBD00000DB407FEFDCF33
:105000008EB50E949A0E70E060E08AE00E94DE0C8D
:1050100070E060E08BE00E94DE0C70E060E089E010
:105020000E94DE0C809164008062809364000E9484
:10503000770EFDCF80916402823091F0E82FF0E08E
:10504000E15FFF4EC4918F5F8093640261E085E071
:105050000E94A20CC13009F468C0C33009F487C0B3
:1050600061E08DE00E94A20C82E090E00E9479292C
:10507000882309F4A9C080916500877F809365002B
:1050800081E080936A028CE38093C10280E1809387
:10509000C40210924D0210924C02ECE8F0E18591AE
:1050A0009491FC01099586E0D82ECFECD6E000E083
:1050B00010E0CC24C3942FB7F894809148029091CB
:1050C0004902A0914A02B0914B022FBF2091CD021C
:1050D000222391F02091C502F82FF21BF093CE020B
:1050E0002091C2023091C3022F5F3F4F3093C30221
:1050F0002093C2021092CD024091C9025091CA027F
:105100006091CB027091CC0284179507A607B70770
:105110000CF062C0481B423010F00E94770E01155F
:10512000110549F20E940000C6CF10928000109233
:10513000810080918100886080938100809181004E
:10514000816080938100EFE5F0E1E491F0E0EE0F03
:10515000FF1FE45BFF4E85919491909340028093F2
:105160003F02E2E3F0E1E491E0933E0279CF109256
:10517000900010929100809191008860809391003E
:1051800080919100816080939100EFE5F0E1E491DE
:10519000F0E0EE0FFF1FE45BFF4E8591949190933A
:1051A0003D0280933C02E2E3F0E1E491E0933B02B4
:1051B00080916402882321F06CE380E00E94AE0EAF
:1051C00080E00E941F0F4CCF10926A028091650010
:1051D00088608093650057CF2091C402AC01BD0167
:1051E000420F511D611D711D4093C9025093CA02A7
:1051F0006093CB027093CC028093C5029093C60259
:10520000A093C702B093C802C092CD028091D80685
:105210008093D7060E945D0E8093D80680914C0241
:1052200090914D02D89EF001D99EF00D1124E257C5
:10523000FF4E85919491FC0109957C0180914C026F
:1052400090914D02D89EF001D99EF00D1124E057A7
:10525000FF4E85919491FC0109958091CF028EBDFE
:10526000E0EDF2E081910DB407FEFDCF8EBDCE17CB
:10527000DF07C1F70DB407FEFDCF80914C0290917E
:105280004D02E816F90609F44ACFF0924D02E09279
:105290004C02DE9CF001DF9CF00D1124E457FF4E20
:1052A00085919491FC0109953ACFFB01DC0102C084
:1052B00005900D9241505040D8F70895FC0105909B
:1052C000615070400110D8F7809590958E0F9F1F08
:1052D0000895DC01CB01FC01F999FECF06C0F2BDB7
:1052E000E1BDF89A319600B40D9241505040B8F7A4
:1052F0000895F999FECF92BD81BDF89A992780B59E
:105300000895A6E1B0E044E050E00C946B29A8E1D8
:10531000B0E042E050E00C946B29DC01CB0103C00B
:105320002D910E94982941505040D0F70895262F82
:10533000F999FECF1FBA92BD81BD20BD0FB6F8947A
:10534000FA9AF99A0FBE01960895242F0E9498297F
:10535000252F0E9498290C94AD290E949729272F68
:105360000C949829052E97FB1EF400940E94C929DD
:1053700057FD07D00E94D12907FC03D04EF40C94AE
:10538000C92950954095309521953F4F4F4F5F4F1C
:10539000089590958095709561957F4F8F4F9F4FA1
:1053A0000895A1E21A2EAA1BBB1BFD010DC0AA1F66
:1053B000BB1FEE1FFF1FA217B307E407F50720F07E
:1053C000A21BB30BE40BF50B661F771F881F991FF9
:1053D0001A9469F760957095809590959B01AC0142
:1053E000BD01CF010895A29FB001B39FC001A39F4B
:1053F000700D811D1124911DB29F700D811D11240E
:10540000911D089597FB072E16F4009407D077FDA1
:1054100009D00E941C2A07FC05D03EF49095819586
:105420009F4F0895709561957F4F0895EE0FFF1F70
:105430000590F491E02D0994AA1BBB1B51E107C014
:10544000AA1FBB1FA617B70710F0A61BB70B881F14
:10545000991F5A95A9F780959095BC01CD010895A3
:1054600081E090E0F8940C940F2DFB01DC0104C066
:105470008D910190801921F441505040C8F7881B4C
:10548000990B0895AEE0B0E0E8E4FAE20C94E62C63
:105490000D891E8986E08C831A8309838FEF9FE72D
:1054A0009E838D83AE01475E5F4F6F89788DCE01FD
:1054B00001960E94652A2F813885020F131FF8017B
:1054C00010822E96E4E00C94022DABE0B0E0EBE607
:1054D000FAE20C94D82C7C013B018A01FC01178272
:1054E0001682838181FFC8C1CE0101965C01F7015C
:1054F0009381F30193FD859193FF81913F0188236F
:1055000009F453C1853239F493FD859193FF81915C
:105510003F01853229F4B70190E00E944A2CE7CF81
:10552000912C212C312CFFE1F31538F08B3211F145
:1055300090F4803209F1833229F137FC3CC020ED30
:10554000280F2A3050F536FE20C08AE0989E200DA4
:105550001124922E06C08D3291F0803371F7689439
:1055600030F8F30193FD859193FF81913F01811103
:10557000DACF21C0689431F8689432F8F2CF689499
:1055800033F8EFCF689434F8ECCFEAE02E9E200D8C
:105590001124222E689435F8E4CF8E3229F436FC9B
:1055A00004C1689436F8DDCF8C3619F4689437F866
:1055B000D8CF8836B1F2982F9F7D95549330E0F084
:1055C0008336A1F18337C1F1833509F063C0280127
:1055D000F2E04F0E511CF801C080D180692D70E0BF
:1055E00036FC02C06FEF7FEFC6010E945E294C01BE
:1055F000689437F882010AC00C5F1F4FFFE3F983FC
:1056000088248394912C6501E89437F833FE2DC0EB
:10561000522C8114910471F5552009F468CFB7011B
:1056200080E290E00E944A2C5A94F6CFF8018081E3
:1056300089830E5F1F4FE4CF2801F2E04F0E511C0B
:10564000F801C080D180692D70E036FC02C06FEF98
:105650007FEFC6010E943F2C4C018201D5CFB701DC
:1056600080E290E00E944A2C2A942814190409F040
:10567000B0F7CECFF60137FC859137FE81916F01EF
:10568000B70190E00E944A2C51105A94F1E08F1A11
:105690009108BFCF843619F0893609F077C0F80138
:1056A00037FE6BC060817181828193810C5F1F4FD7
:1056B000F32DFF763F2E97FF09C09095809570954A
:1056C00061957F4F8F4F9F4F689437F82AE030E005
:1056D000A5010E947A2CC82ECA188C2C432C36FEA9
:1056E0000CC0E89440F8C91440F434FE05C032FC04
:1056F00003C0F32DFE7E4F2E892C44FE95C0FE0183
:10570000EC0DF11D8081803309F087C0242D297EA6
:10571000422E842D8870582E43FC95C040FE8FC0C9
:105720009C2C821418F42C0C922C981844FE91C0D6
:10573000B70180E390E00E944A2C42FE09C088E74E
:1057400090E041FE02C088E590E0B7010E944A2C3B
:10575000C91408F48AC0CA94D12C9FEFC91AD90A77
:10576000CA0CDB1CF60182916F01B70190E00E9428
:105770004A2CAC14BD04B1F74FCF60817181072E64
:10578000000C880B990B0E5F1F4F92CFD32CE8941F
:10579000D4F82AE030E0853739F1232D297FD22E45
:1057A0008F3601F148F48835A9F0F7018681978199
:1057B0002B96E2E10C94F42C803749F08837A9F756
:1057C000D4FE02C06894D2F820E130E00DC06894A5
:1057D000D4F8F6CF34FE03C0822F8660D82E20E1A5
:1057E00032E002C028E030E0F801D7FE0FC060814F
:1057F0007181828193810C5F1F4FA5010E947A2CD9
:10580000C82ECA183D2CE89437F867CF60817181A3
:1058100090E080E00E5F1F4FF0CF42FC02C0839407
:1058200078CF8394839475CF842D867809F471CFD3
:10583000F6CFB70180E290E00E944A2C8394821454
:10584000C0F3512C73CF522C5818821408F46ECF29
:10585000F8CF842D867809F47BCF8BE241FE80E27D
:1058600047FC8DE2B70190E071CFB70180E390E093
:105870000E944A2C9A946CCF8FEF9FEF99CFFC0136
:105880006150704001900110D8F7809590958E0F6F
:105890009F1F08950F931F93CF93DF93182F092F06
:1058A000EB018B8181FD09C01FEF0FEF812F902F3E
:1058B000DF91CF911F910F91089582FF14C02E8127
:1058C0003F818C819D81281739073CF4E881F9815B
:1058D000CF0101969983888310838E819F810196E1
:1058E0009F838E83E3CFE885F985812F0995892BE6
:1058F000A1F3DACFFA01AA27283051F1203181F142
:10590000E8946F936E7F6E5F7F4F8F4F9F4FAF4FC7
:10591000B1E03ED0B4E03CD0670F781F891F9A1FDA
:10592000A11D680F791F8A1F911DA11D6A0F711D8E
:10593000811D911DA11D20D009F468943F912AE09A
:10594000269F11243019305D3193DEF6CF01089582
:10595000462F4770405D4193B3E00FD0C9F7F6CFB3
:10596000462F4F70405D4A3318F0495D31FD40527B
:10597000419302D0A9F7EACFB4E0A6959795879511
:1059800077956795BA95C9F70097610571050895F0
:105990009B01AC010A2E069457954795379527959C
:1059A000BA95C9F7620F731F841F951FA01D089534
:1059B0002F923F924F925F926F927F928F929F921F
:1059C000AF92BF92CF92DF92EF92FF920F931F930D
:1059D000CF93DF93CDB7DEB7CA1BDB0B0FB6F894BE
:1059E000DEBF0FBECDBF09942A88398848885F84FE
:1059F0006E847D848C849B84AA84B984C884DF806F
:105A0000EE80FD800C811B81AA81B981CE0FD11D52
:105A10000FB6F894DEBF0FBECDBFED010895F89428
:025A2000FFCFB6
:105A2200FFFFFFFF00E100000000000000C18081D5
:105A320000000000000000BE0AD80DDF0AD40A25CB
:105A42000BE30A010B000000001C16040C951994CC
:065A5200192536643A003C
:00000001FF
