:100000000C94280A0C94500A0C94500A0C94500A30
:100010000C94500A0C94500A0C94500A0C94500AF8
:100020000C94500A0C94500A0C94331E0C94A21E8B
:100030000C94500A0C94500A0C94500A0C94500AD8
:100040000C94500A0C9476210C94500A0C94500A8B
:100050000C94500A0C94500A0C94500A0C94D4201E
:100060000C94500A0C94500A0C94500A0C94500AA8
:100070000C94500A0C94500A0C94500A0C94500A98
:100080000C941E210C94500A0C94500A0C94500AA3
:100090000C94500A0C94500A0C94500A0C94500A78
:1000A0000C94500A0C94500A0C94500A0000000062
:1000B00000700100C0000C00CAA77C0A42F5550878
:1000C000534248195EF551120030000000274500E8
:1000D00040941C0014F3190504F1110420040000DD
:1000E0000441100400040000104208015E14450F92
:1000F00040F001005955551351555D0D8C927C0807
:100100005755550D5E55550D51520C015E55550F05
:100110005655550F00A0000000A4000000C22800A2
:1001200080A228008062080040500D0000E3180003
:100130009C92241F5F555D0D9C1445115F1425078B
:100140005F5555115F5114015E54551D1F41101F1D
:1001500040F44500100421071F41181D1F044110E1
:100160005EF0041F9C10041F5E54450F5F92140341
:100170005ED4451F5F92341B5655550D41F0050165
:100180001F0421071F4208011FE4410F1743181DD8
:1001900007C1090151564D1100F0450000F0010062
:1001A00040F4010080100C0010044110905F000F1B
:1001B00080F09059000F80F09075001E9074001E22
:1001C0009073001E9071002880F0903700788000B6
:1001D0000A9036008C800014903500A080001E909C
:1001E0003400B4800028903300C880003290320080
:1001F000DC80003C903100F08000469030000480AC
:10020000F05041555345004E4557205245434F52FB
:100210004421000000000000000000000000000079
:1002200000000000000000000000000000000000CE
:100230000000000000000000383C06C2FEFE7E42C6
:1002400040E0FCFE0F0381C3633090F0F03060703B
:1002500090D0F0700010F0F00000C0E0B0D0F0706E
:100260000000000000000080C0603090F0F030001E
:10027000000000000000000000000000000000007E
:10028000000000000000000000000000000000006E
:10029000000000000000000000008080808080805E
:1002A00080000000000000000000000000000000CE
:1002B000000000000000D8D8D0181E0F0701001061
:1002C0001F1F1F10001E1F1F181C1F1F0F040000E0
:1002D000071F1F0C06838180809F9F1F190C84C0FD
:1002E000C040C0C000001E1F1F181C1FDFCFE460ED
:1002F0006000C0C0C00000000000000080C0E060DE
:10030000606000000000000000000000000000002D
:10031000000000000078FCC68301E1FEFE1E19FF0C
:10032000FFE700C0F0F80C04FCFCF80008E8FCFC57
:100330003C0C0616F8FCFC1C0008C8FCFC3C18C869
:10034000FCFC3C80E0F0380CC4FCFC7C00000000AD
:100350000000000E0F81F0FF7F1F10D0F8FF3F0359
:10036000C0F0F80C04FCFCF80000F8FF7F8F801050
:10037000F8FCFC1C0080E0F0380CC4FEFFBF81805C
:10038000E0F0180CE4FCFC0C10181CFCF8C0FCFCA1
:100390003C000000000000040407070705040703F1
:1003A0000301000307070406030100000607070115
:1003B0000000000707070301000607070100070701
:1003C0000762F2F79F8FC4E67F7F3F0000000000C6
:1003D00000060604060703010000040707070400DF
:1003E00003070704060301000007070703010007CE
:1003F00007070301000707070603070703030107B1
:10040000070706070707C3C1C0C060783F0F070191
:10041000000000E0F0180C84FCFCBCC4C41C1C04EC
:1004200080C040C0C080C04040C0C04000C0C000CC
:100430000080C040C0C0008080C000C0C0606000BC
:10044000FCFC7C00FCFC7C032322383F3F2700019E
:1004500001003C3F3F36331B0901011E3F3F31186D
:100460000E07013C3F3F36331B0900303F3F0F036F
:1004700000000030373700303737000F0F03000F10
:100480000F0300C0F03818FCF4F494CCFC7C380066
:10049000000080C040C0C000008080C040C0C0C01C
:1004A00000008080C040E0FCFE1F0383C3C08000CA
:1004B000C0C0C000000C8CC4FC78000327343E3F51
:1004C0003F213F7FFEE08000BCBF3F36331B093C2D
:1004D0003F3F31383F3F1F083C3E3F31183E3F1FF2
:1004E0001D0C0101018FFFFC3F0F03303737030163
:1004F00000000000000000000000000000010101F9
:1005000001000000000000000000000000000000EA
:1005100000000000000000000006060603030100C2
:1005200000000000000000000000000000000000CB
:10053000000000000000008000C000D0807000C0FB
:1005400090401000000000000000000000000000CB
:10055000000000000000000000000000000000009B
:10056000000000000000000000000000000000008B
:10057000000080C8F8FC3C1C1F070D1D73A96B66AA
:100580009202400000000000000000000000000097
:10059000008080C00040C08060FE7DFB75AB1618F7
:1005A0000008080000000000800000C0E0E0C0F883
:1005B000FEFFFFFFFFE0E0E0E0F0F0F0F0D8002009
:1005C00000200020001000100010000800040002AD
:1005D00000E1F8FF000858AD17EEF5F6F5F7F8FC66
:1005E000FCFCFCFCFCFEFFFF1F070300030F0D0BD0
:1005F0000303030303030303010103030303070EC0
:100600001E346CD8B0604000000000000078848385
:100610008083878FEF9F8ECEBF8F8F8F8F8F8FBFFF
:10062000CF8F9FE78787839190E0007CFEC7FEFC19
:10063000C6FFFEFCC0C0E0E0E0E0E0E0C0C080C07B
:1006400062321C0000000101030F0F03030F0F03B0
:100650000303030F0F03030F0F00007CFEC7FEFC14
:10066000C6FFFEFCC0C0E0E0E0E0E0E0C0C080C04B
:10067000C0623C000000010103030F0F03030F0FD2
:1006800003030707030307070300007CFEC7FEFC04
:10069000C6FFFEFCC0C0E0E0E0E0E0E0C0C080805B
:1006A0000080F800000001010303030F0F030F0F88
:1006B000030F0F03030F0F030101007CFEDFFEFC9D
:1006C000DEFFFEFCC0C0E0E0E0E0E0E0C0C080C0D3
:1006D000C0623C0000000101030307070303070792
:1006E00003030F0F03030F0F0300001C3262C080CF
:1006F000C0C0E0E0E0E0E0E0C0C0FCFEFFC6FCFE01
:10070000C7FE7C00000F0F03030F0F030303030F4B
:100710000F03030F0F0301010000003C62C0C08003
:10072000C0C0E0E0E0E0E0E0C0C0FCFEFFC6FCFED0
:10073000C7FE7C00000307070303070703030F0F2F
:1007400003030F0F03030101000000F88000808005
:10075000C0C0E0E0E0E0E0E0C0C0FCFEFFC6FCFEA0
:10076000C7FE7C000101030F0F03030F0F030F0FE0
:10077000030F0F03030301010000003C62C0C080AF
:10078000C0C0E0E0E0E0E0E0C0C0FCFEFFDEFCFE58
:10079000DFFE7C0000030F0F03030F0F03030707A7
:1007A00003030707030301010000004D454F5700F5
:1007B0007E9999FFFF99997E7E8DC9F99F93B17EAD
:1007C0007C47EDB99DB7E23E3C66E79999E7663C08
:1007D0003EE2B79DB9ED477C7EB1939FF9C98D7E0E
:1007E00090480064800019904A0064800019904C81
:1007F0000064800019904D0064800019904F00C87B
:1008000080F0464F5220324E4420234152445542FC
:100810004F594A414D004F424E2D593033205645D5
:100820005220302E303400C0C6CFDFFFFB73037C74
:10083000FEFFC7E3FF7F3E00FFFFFF1B1B1B030004
:100840000303FFFFFF03030000000000000000801F
:100850008080800000000000000000000000008098
:10086000E0F058AC56AB55AB5500FF010101020258
:10087000040810608000003FFFAA55AA55AA55AA97
:1008800055A85FAC5CAC5CAC5CAC5C0CCF3C0000D5
:10089000000103060D1A152A252A252A25221512DC
:1008A00009040201000000FFFF57AB57AB57AB57DD
:1008B000AB03FF808080000000000000000000FF0C
:1008C000FF55AA55AA55AA55AA00FF00000001012C
:1008D00002040830C000001F7FD5AA55AA55AA55AA
:1008E000AA54AF56AE56AE56AE562E86671E0000C0
:1008F00000000103060D0A151215121512110A093E
:10090000040201000000000000000000008080C020
:10091000C0C0C0808080000000000000000000C057
:10092000F078AC56AB55AA55AA00FF0000000101B3
:1009300002040830C00000FFFF55AA55AA55AA5569
:10094000AA00FFFEAE56AE56AE56AE5607FE001FCC
:10095000171512151215121512101F171215121550
:1009600012151215101F009045000A80F02D20432B
:100970004852492D424F4343484920434154202D7A
:100980000000444543454D42455220323031370046
:1009900050524F4752414D4D4544204259204F42FD
:1009A0004F4E4F0000544849532050524F47524138
:1009B0004D2049530052454C454153454420554E26
:1009C00044455200544845204D4954204C49434524
:1009D0004E53452E00504C41592054494D4520203E
:1009E00000504C415920434F554E5420005D20008B
:1009F0005B00424553542031302053434F524553FE
:100A0000004F4646004F4E00535441525420474138
:100A10004D4500534F554E4420005245434F5244DC
:100A2000004352454449540000000000000000000B
:100A30000000040404040A0A8A8ACACAB391910015
:100A4000000080E0EEEF5349CDDEDFDFFF9FCEE612
:100A5000F2FAFEFE01FEFFFFFFFFFFFFF9F080004C
:100A6000000000000000000000000080C040A06006
:100A7000B058A854AAD6E2FAFCFFFFFFFFFF7F7F21
:100A80007E36B93FA03FBF3F7F7F7F7F7E3DBB3734
:100A9000B7579747A753A9000080C0C04858D0F067
:100AA000E0ECEEEEDC3DFAF5EA15AA536B372717BA
:100AB0001B0B0B0D0602020302050E75AA55BA7D2B
:100AC0007E3D8A55AA55AA55AA55AA55AA55AA00E7
:100AD0000000000C060303390F0301030F0C000391
:100AE0000300000000000000000000000000000003
:100AF0000000000007FDAA55BE7FBE1D8255AA5505
:100B0000AA55AA55AA55AA00000000000040C080BE
:100B100080000000000000C04080808000000000D5
:100B2000C0E02EEEEEEEDEDEDCDDBCB9BA7972E5B9
:100B3000CA95AA55AA552A108FBFFFD7577FFFE045
:100B4000E03F3F8F8FBF3F3FF0F0FFFFFFDF575782
:100B500077FFFFFFFFFFFFFF7F7FFFFFFFDF070341
:100B600001002020101010080808040404020202EA
:100B70000101010000000000000000000000004131
:100B800041C3C58912326404090E080000E0FC7FED
:100B90000F3FF8FFFBF3FF7FB3DBDDFCFE7FBFCE33
:100BA000F5FBFDFEFE7F3F1F0F0F07070303030347
:100BB0000307070707070707070707337B7F7F7FC1
:100BC0003F1F0703030100000000000101010000B6
:100BD0000000000000000000000000000000000015
:100BE0000000000000000000000000000000000005
:100BF000000000808080C040A060A050B050B05085
:100C0000A060A040C000808080E0FEFFFFFFFCF0FD
:100C1000C0C0C0C0C0C0C0E0F8FEFEFEFCF08080D6
:100C2000C0C0C0E0E0C0C080000286FC78000000C8
:100C300000000000000000808080808080404040F4
:100C40004040402020200000000000C0B058AC56BA
:100C5000AA55AB55AA55AA55AA55AA55AA55AA559B
:100C60000AE5FAFDFEFFFFFFFFFFFFFFFFFFFFFFAB
:100C70007F7FFFFFFFFFFFFFFFFFFFFFFFFFFFFF84
:100C8000FFFFFFFFFFFFFFFFFF7F07018080424262
:100C9000424121212111111008080888848444420E
:100CA0004222222111100000904A001480F000001E
:100CB0000000003E5B4F5B3E3E6B4F6B3E1C3E7C3C
:100CC0003E1C183C7E3C181C577D571C1C5E7F5EEA
:100CD0001C00183C1800FFE7C3E7FF0018241800A9
:100CE000FFE7DBE7FF30483A060E26297929264040
:100CF0007F050507407F05253F5A3CE73C5A7F3E6C
:100D00001C1C08081C1C3E7F14227F22145F5F00FD
:100D10005F5F06097F017F006689956A6060606099
:100D20006094A2FFA29408047E040810207E201084
:100D300008082A1C08081C2A08081E101010100C8D
:100D40001E0C1E0C30383E3830060E3E0E060000DB
:100D500000000000005F00000007000700147F147F
:100D60007F14242A7F2A12231308646236495620EE
:100D7000500008070300001C2241000041221C0013
:100D80002A1C7F1C2A08083E0808008070300008D2
:100D900008080808000060600020100804023E51A6
:100DA00049453E00427F4000724949494621414938
:100DB0004D331814127F1027454545393C4A49499F
:100DC0003141211109073649494936464949291E09
:100DD00000001400000040340000000814224114F8
:100DE00014141414004122140802015909063E414A
:100DF0005D594E7C1211127C7F494949363E414172
:100E000041227F4141413E7F494949417F090909CA
:100E1000013E414151737F0808087F00417F410036
:100E20002040413F017F081422417F404040407FE5
:100E3000021C027F7F0408107F3E4141413E7F0932
:100E40000909063E4151215E7F0919294626494973
:100E5000493203017F01033F4040403F1F204020B3
:100E60001F3F4038403F63140814630304780403B1
:100E70006159494D43007F4141410204081020005F
:100E80004141417F040201020440404040400003D0
:100E900007080020545478407F284444383844449C
:100EA0004428384444287F385454541800087E0994
:100EB0000218A4A49C787F0804047800447D4000B4
:100EC0002040403D007F1028440000417F40007CCE
:100ED000047804787C080404783844444438FC18C6
:100EE00024241818242418FC7C08040408485454AA
:100EF000542404043F44243C4040207C1C204020D7
:100F00001C3C4030403C44281028444C9090907C3D
:100F10004464544C4400083641000000770000004F
:100F20004136080002010204023C2623263C1EA191
:100F3000A161123A4040207A3854545559215555F0
:100F400079412154547841215554784020545579A1
:100F5000400C1E5272123955555559395454545932
:100F600039555454580000457C410002457D4200EB
:100F700001457C40F0292429F0F0282528F07C54F4
:100F80005545002054547C547C0A097F4932494914
:100F900049323248484832324A4848303A41412181
:100FA0007A3A42402078009DA0A07D3944444439DB
:100FB0003D4040403D3C24FF2424487E4943662B6D
:100FC0002FFC2F2BFF0929F620C0887E090320540F
:100FD0005479410000447D413048484A323840400D
:100FE000227A007A0A0A727D0D19317D2629292F6D
:100FF00028262929292630484D4020380808080885
:1010000008080808382F10C8ACBA2F102834FA0086
:10101000007B000008142A142222142A14089500C8
:10102000220095AA005500AAAA55AA55AA000000B8
:10103000FF00101010FF00141414FF001010FF0028
:10104000FF1010F010F0141414FC001414F700FF3B
:101050000000FF00FF1414F404FC141417101F10F8
:10106000101F101F1414141F00101010F0000000A7
:10107000001F101010101F10101010F010000000B2
:10108000FF101010101010101010FF10000000FFC3
:10109000140000FF00FF00001F10170000FC04F404
:1010A00014141710171414F404F40000FF00F714BC
:1010B000141414141414F700F71414141714101043
:1010C0001F101F141414F4141010F010F000001F5F
:1010D000101F0000001F14000000FC140000F0109E
:1010E000F01010FF10FF141414FF141010101F0044
:1010F000000000F010FFFFFFFFFFF0F0F0F0F0FF46
:10110000FFFF0000000000FFFF0F0F0F0F0F38441C
:101110004438447C2A2A3E147E02020606027E02DD
:101120007E0263554941633844443C04407E201E9E
:101130002006027E020299A5E7A5991C2A492A1CCD
:101140004C7201724C304A4D4D303048784830BCBA
:10115000625A463D3E494949007E0101017E2A2AE4
:101160002A2A2A44445F444440514A444040444A65
:1011700051400000FF0103E080FF000008086B6B96
:10118000083612362436060F090F0600001818001C
:1011900000001010003040FF0101001F01011E007F
:1011A000191D1712003C3C3C3C00000000000601E9
:1011B0001501260137014A015D01720188019F0175
:1011C000B801D201EE010B022A024B026E02930219
:1011D000BA02E40210033F037003A403DC03170404
:1011E00055049704DD0427057505C80520067D060E
:1011F000E0064907B8072D08A9082D09B9094D0AC5
:10120000EA0A900B400CFA0CC00D910E6F0F5A10A9
:1012100053115B1272139A14D41520178018F51904
:10122000801B231DDE1EB420A622B524E42634290B
:10123000A72B402E0031EA330037453ABC3D6841C8
:101240004C456B49C84D68524F57805C0062101185
:101250001213151617181A1C1D1F21232527292CB8
:101260002E3134373A3E4145494E52575C62686EE2
:10127000757B838B939CA5AFB9C4D0DCE9F70301E0
:10128000D5F08D1410A1C881CFD9F1AF2000140280
:101290001302120215020702080204010C010601E2
:1012A0000000000000240027002A002D003000006C
:1012B000000000250028002B002E0031000404044B
:1012C00004040304050202020204030202020206ED
:1012D00006060606060404020202040404080201CB
:1012E000104080401020408040800802040180406F
:1012F0002010020110801020404020000000020059
:10130000090F0000030401000C00000000000000B1
:1013100000000000000000000000080B00020202B4
:101320000000090400000102020000052400100171
:101330000524010101042402060524060001070515
:10134000810310004009040100020A0000000705A3
:101350000202400000070583024000000403090464
:1013600012010002EF020140412336800001010218
:10137000030141726475696E6F204C4C43004172E9
:101380006475626F7900C0F8FC1E0602FEFEF8006C
:10139000071F1F18181E0F07000000001018E8FC98
:1013A000FE1E02001010181E1F1F1110000000006A
:1013B000080C86C2FE7E1C00101C1E1B19181C0C7B
:1013C00000000000044662FEDE8E000018181018AF
:1013D0001C0F070300000080C0E030FCFEFE0E0082
:1013E000020303021E1F1F030200000000383EE636
:1013F000E6C60703181810181C0F07030000C0E00A
:10140000F8782CE6E6C20200071F1F18181F0F0706
:10141000000000080E8EC6763E0E0602001C1E0F4F
:1014200001000000000000009CBCFEE2F21E0C0067
:101430000E1F1F10181F0F0700000078FCFE868289
:10144000FEFEF800101018180E0707010000E12139
:1014500011241FBECFEFDAE0DEBFCDBF11E0A0E068
:10146000B1E0E6E8F2E502C005900D92A235B107C1
:10147000D9F729E0A2E5B1E001C01D92A93BB2076E
:10148000E1F71AE0C8E2DAE004C02197FE010E9409
:101490005A26C732D107C9F70E9418220C94412955
:1014A0000C94000083559A4F9C013C5F4FEFFC0168
:1014B000408380589F4F28173907C9F708950F9325
:1014C000CF93DF9397FF0CC0EE27FF27E81BF90BA4
:1014D0004E171F0609F00CF47CC0480F90E080E026
:1014E00077FF0FC0AA27BB27A61BB70BE22F022E40
:1014F000000CFF0BAE17BF070CF06BC0260F70E09F
:1015000060E0442309F465C0803891050CF061C0A7
:1015100012160CF05EC0603471050CF05AC0FC016C
:10152000E40FF11DE138F10514F040E8481B562F97
:10153000FB01E20FF11D27FDFA95E134F10514F0EE
:1015400020E4261B57703FEF052E01C0330F0A948D
:10155000EAF7250F651B710977FF02C0695F7F4FAE
:1015600053E0759567955A95E1F77695762F66273E
:1015700077956795860F971F83559A4FA8E0B0E03F
:10158000CFEFD0E012162CF5283064F4BD01621BB9
:10159000710927FD7395FE0102C0F595E7956A95DF
:1015A000E2F73E2301110DC03095FC01542F6081FC
:1015B000632361935150D9F7285080589F4F3FEFD4
:1015C000E1CFFC01542F6081632B61935150D9F717
:1015D000F3CFDF91CF910F9108952F923F924F92C9
:1015E0005F926F927F928F929F92AF92BF92CF92B3
:1015F000DF92EF92FF920F931F93CF93DF9300D070
:1016000000D01F92CDB7DEB7822E912C9401280F07
:10161000391F37FDD7C0803891050CF0D3C09B012E
:10162000200F311D37FDCEC0603471050CF0CAC0EB
:10163000DB0177FF04C0AA27BB27A61BB70BA77047
:10164000BB279B0177FF02C0295F3F4FF3E0359531
:101650002795FA95E1F777FF08C02150310968E036
:1016600070E0FB01EA1BFB0BDF01202E2694269481
:101670002694312C077019F0FFEF2F1A3F0ABA0198
:10168000A9015695542F442757954795480F591F40
:101690005C834B83220E331E48E050E03A016A1A05
:1016A0007B0A2216330609F48DC02830310509F46F
:1016B00089C02F3F5FEF35070CF458C00B811C81A8
:1016C00007561A4F6C0150E040E0EB81FC81E75E69
:1016D000F94F2F01D7FC3BC02F3F320709F46EC0F2
:1016E0005A01A60EB71EF801F488F1E0EF1249C0C6
:1016F000F501A490EA2D0A2E01C0EE0F0A94EAF734
:10170000FE2AF801F48A109711F127303105F9F01B
:10171000FA01E60FF71FFA83E9835201A40EB51E02
:10172000F501F489FD83FF24F394E981FA81EF1038
:1017300036C0F491F983EF2FF0E0062C02C0F59546
:10174000E7950A94E2F7FD80FE2AF501F48A4F5FDF
:101750005F4FFFEFCF1ADF0A0F5F1F4F4815590584
:101760002CF4F0E8CF16D10409F0B4CF2F5F3F4F2F
:10177000680D791D4B815C8140585F4F5C834B83C2
:1017800090CFF501A490EA2DF0E00A2E02C0EE0FF2
:10179000FF1F0A94E2F7E095F095FE22B2CFF49194
:1017A000F983EF2FF0E0062C02C0F595E7950A9437
:1017B000E2F7E095F095FD80FE22C7CF109709F083
:1017C000A7CFC5CF0F900F900F900F900F90DF9184
:1017D000CF911F910F91FF90EF90DF90CF90BF902E
:1017E000AF909F908F907F906F905F904F903F90C1
:1017F0002F900895AF92BF92CF92DF92EF920F9306
:101800001F93CF93DF935C018B012BEF24036001C7
:101810001124D0E0C0E06A3071055CF0CB016AE0D1
:1018200070E00E944626C5018C0D9D1D0E94FA0B9A
:10183000EC01C8016AE070E00E94462624E1289F7E
:10184000A001299F500D11244A575C4EEE24E394C9
:101850000EE02AE070E060E0C5018C0F9D1F0E9441
:10186000ED0ACE010A968C0D9D1DDF91CF911F913F
:101870000F91EF90DF90CF90BF90AF90089590E0E0
:10188000EDEAF5E091119FEF8FEF91939193919392
:1018900091938150D0F70895E1E0F0E00E94610C4F
:1018A000319728F068517C4F8F4F9F4FF9CFAB0194
:1018B000FC010E94610C641775078E079F07C8F32F
:1018C0000895A8E2B5E02FB7F8947D918D919C9191
:1018D00066B52FBFA89B05C06F3F18F47F5F8F4F81
:1018E0009F4F22E0660F771F881F991F2A95D1F717
:1018F0000895FC0180914105882311F13FB7F894C8
:1019000082E08093E9002091F200822F90E0181687
:10191000190614F481E090E0882339F0289844E611
:10192000409340054091F1004083222339F02091FB
:10193000F200211103C02BE62093E8003FBF089579
:101940008FEF9FEF08952FB7F89483E08093E9001D
:101950009091E800892F807295FF04C09091F20069
:1019600080E4891B2FBF08958091380581110DC037
:1019700082E08093340584E080933505109237052A
:101980001092360581E08093380584E395E0089550
:101990008F929F92AF92BF92CF92DF92EF92FF927F
:1019A0000F931F93CF93DF936C017B018A0180918A
:1019B0000B01882309F458C080914105882309F45C
:1019C00053C08091330580FF05C08091E0008260A4
:1019D0008093E000E801B12C8AEFA82E93E0892ED5
:1019E0002AE3922E209711F4BB20B9F10E94A30C98
:1019F000811106C0AA94AA20B9F10E944C0CF2CF22
:101A00008C171D0611F00CF08C2F9FB7F894809264
:101A1000E9002091E80025FD02C09FBFE3CF282FF9
:101A200030E0C21BD30BF701815020F0419140936D
:101A3000F100FACFE20EF31EBB2021F09092E800F5
:101A4000B12CEBCF8091E80085FDE7CF9092E800C4
:101A5000BB24B394209709F3F3CF5D9884E6809379
:101A60003205101611063CF081E090E0F6019383F8
:101A7000828310E000E0C801DF91CF911F910F91A8
:101A8000FF90EF90DF90CF90BF90AF909F908F909E
:101A90000895CF93DF931F92CDB7DEB76983DC0142
:101AA000ED91FC910280F381E02D41E050E0BE0118
:101AB0006F5F7F4F09950F90DF91CF91089583E07D
:101AC0008093E9008091F200882319F08AE38093E3
:101AD000E80008950E94A30C90E00895CF93DF934F
:101AE0001F92CDB7DEB7FC018485958597FD08C0B0
:101AF0002FEF3FEF358724870F90DF91CF91089527
:101B0000CE0101960E94790C019719F4898190E029
:101B1000F3CF8FEF9FEFF0CF0F931F93CF93DF9310
:101B20001F92CDB7DEB78C01FC018485958597FFA8
:101B30000BC0CE0101960E94790C019771F4898146
:101B400090E0F80195878487F801848595850F904A
:101B5000DF91CF911F910F9108958FEF9FEFF1CFFC
:101B6000FC018485958597FD0BC09FB7F89482E0B2
:101B70008093E9008091F2009FBF90E00196089564
:101B80009FB7F89482E08093E9008091F2009FBFB4
:101B900090E0089540912E0550912F0520912C053D
:101BA00030912D0542175307B4F49091E8009570D9
:101BB000E1F39091E80092FD19C08093F1008091CB
:101BC0002E0590912F0501968F739927892B19F473
:101BD0008EEF8093E80080912E0590912F0501965D
:101BE00090932F0580932E0581E0089580E008955D
:101BF000EF92FF920F931F93CF93DF93F82E192F3D
:101C0000E62E042F81E0860F880F0E94CA0D83E024
:101C10000E94CA0DCF2DD12FEC0EFD2EF11CCE153A
:101C2000DF05B9F007FF13C0FE0184910E94CA0DC1
:101C3000182F80E00E94CA0D812321968111EFCFD9
:101C4000DF91CF911F910F91FF90EF9008958881C0
:101C5000EDCF81E0F5CFDF92EF92FF920F931F93CC
:101C6000CF93DF93D82E8A01EB017B01E40EF51EA2
:101C7000CE15DF0559F0D7FE12C0FE0184910E94F7
:101C8000CA0D21968111F4CF0FEF1FEFC801DF912C
:101C9000CF911F910F91FF90EF90DF900895888171
:101CA000EECF0F931F93CF93DF931F92CDB7DEB785
:101CB00082E0898342E450E06AE173E180E80E94B7
:101CC0002B0E0E94B40CDC0112960D911C91011593
:101CD000110589F0D801ED91FC910280F381E02D8E
:101CE000BE016F5F7F4FC801099597FD04C0F801E1
:101CF00000851185ECCF89810F90DF91CF911F91E5
:101D00000F910895615030F02091F100FC01208383
:101D10000196F8CF289884E6809340050895282FEF
:101D200030E0F901E550FD4E9491F901E452FD4E89
:101D3000849123543D4EF9012491222309F430C0AB
:101D40009923E9F091509F30D0F4E92FF0E0E55568
:101D5000F14F0C945A26D90EDD0EBA0ED10ED50EC7
:101D6000BF0EBF0EBF0EE00EE60EEA0EEE0EF40E34
:101D7000BF0EF80E909180009F7790938000E22F25
:101D8000F0E0EE0FFF1FE155FD4EA591B4919FB716
:101D9000F894EC91611132C080958E238C939FBF93
:101DA0000895909180009F7DE8CF90918000977F6B
:101DB000E4CF94B59F7794BDE2CF94B59F7DFBCFE0
:101DC000909190009F7790939000D9CF9091900040
:101DD0009F7DF9CF90919000977FF5CF9091C000B3
:101DE0009F779093C000CBCF9091C0009F7DF9CF9B
:101DF0009091C200977F9093C200C1CF8E2BCECF1F
:101E0000CF93DF9390E0FC01E452FD4E2491835484
:101E10009D4EFC0184918823C9F090E0880F991FA2
:101E2000FC01EF55FD4EA591B491FC01E155FD4E2D
:101E3000C591D49161110DC09FB7F8948C912095F4
:101E400082238C938881282328839FBFDF91CF91A1
:101E50000895623051F49FB7F8943C91822F809599
:101E600083238C93E8812E2BEFCF8FB7F894EC91DE
:101E70002E2B2C938FBFEACF1F93CF93DF93182F76
:101E8000EB0161E00E94000F209739F460E0812FA0
:101E9000DF91CF911F910C948F0ECF3FD10511F49C
:101EA00061E0F5CFE12FF0E0E550FD4EE491E15027
:101EB000EF3008F07FC0F0E0E05AF04F0C945A2663
:101EC0006F0F770F7C0F860F900FDA0FDA0FDA0F94
:101ED0009A0FA40FAE0FB80FC50FDA0FCD0F84B550
:101EE000806884BDC7BDDF91CF911F91089584B5EF
:101EF000806284BDC8BDF7CF8091800080688093E8
:101F00008000D0938900C0938800EDCF809180003D
:101F1000806280938000D0938B00C0938A00E3CFCF
:101F200080918000886080938000D0938D00C09362
:101F30008C00D9CF80919000806880939000D093DE
:101F40009900C0939800CFCF8091900080628093D9
:101F50009000D0939B00C0939A00C5CF80919000D1
:101F6000886080939000D0939D00C0939C00BBCF6D
:101F70008091C00080688093C0008091C0008F7BFA
:101F80008093C000C093CF00AECF8091C00080622C
:101F90008093C000C093D000A6CF8091C20088601B
:101FA0008093C2008091C2008B7F8093C200C09357
:101FB000D20099CFC038D1050CF072CF67CFAB01FA
:101FC000FC010E94610C41505109E109F10928F01E
:101FD00068517C4F8F4F9F4FF6CFAB01FC010E94A1
:101FE000610C641775078E079F07C8F3089588E78B
:101FF00080931F0508950895AF92BF92CF92DF920C
:10200000EF92FF920F931F93CF93DF936C017B01AD
:102010008B01040F151FEB015E01AE18BF08C0173E
:10202000D10759F06991D601ED91FC910190F081B1
:10203000E02DC6010995892B79F7C501DF91CF9174
:102040001F910F91FF90EF90DF90CF90BF90AF90D6
:1020500008958FB18095807F669B88601C9B84600B
:10206000089583B7817F83BF83B7816083BF8895DD
:1020700083B78E7F83BF0895E0911D05F0911E0503
:10208000908180911C058095892380830895CF924B
:10209000DF92EF92FF920F931F93CF93E82FF0E020
:1020A000E258FD4EC491E62FF0E0603398F5E25B14
:1020B000FD4EE4910E2F10E0F12CE12C60E074E273
:1020C00084EF90E0A70198010E94E3252150310997
:1020D0004109510991E02115310581E04807510579
:1020E0006CF060E970ED83E090E0A70198010E9438
:1020F000E325215031094109510993E0C13089F0AC
:10210000C330F9F0CF911F910F91FF90EF90DF90C6
:10211000CF900895EE0FFF1FE25BFE4E05911491E4
:10212000CBCF80918100887F892B80938100309371
:1021300089002093880080916F00826080936F00F7
:10214000E1CF80919100887F892B8093910030931B
:10215000990020939800109314050093130581E0D3
:102160008093120580917100826080937100CACFC4
:10217000E82FF0E0E258FD4EE491E13019F0E33051
:1021800089F0089580916F008D7F80936F0080911A
:102190001805E0911905F0911A0590818095892321
:1021A000808308951092120580911505E09116051F
:1021B000F0911705F2CFE0914405F0914505BF017C
:1021C0006F5F7F4F70934505609344052491922F74
:1021D000907F822F8F70903819F40E94B810EBCF47
:1021E000903981F43296F0934505E0934405FB0164
:1021F0006491909142058917F0F667FDDCCF0E944B
:102200004710D9CF903E49F48091460590914705FB
:102210009093450580934405CECF903F19F41092DA
:102220004305089597FDC7CF3296F0934505E09397
:102230004405FB016491A0911305B0911405322F60
:10224000262F0E9437266C507E4F8F4F9F4F28EECF
:1022500033E040E050E00E94152620930E053093B5
:102260000F05409310055093110580910E05909134
:102270000F05A0911005B0911105892B8A2B8B2B8E
:1022800061F481E090E0A0E0B0E080930E059093CF
:102290000F05A0931005B093110508950F931F9398
:1022A000CF93DF9320914805222329F1162FEC01CB
:1022B00080914305882381F08091B7098617D8F073
:1022C00000E080914205081728F4802F0E94B81082
:1022D0000F5FF7CF109243051093B709D0934705CE
:1022E000C0934605D0934505C09344050E94DB107A
:1022F00081E080934305DF91CF911F910F91089565
:1023000010924805E4E6F0E0808188608083E5E68D
:10231000F0E08081886080830895E4E6F0E08081C9
:10232000877F8083E5E6F0E08081877F808381E09E
:1023300080934805089560387105E8F440345105EC
:10234000D0F4342F369536953695A0E83A9FF001B3
:102350001124E60FF71FE80FF91F3489CA018770AF
:10236000992741E050E001C0440F8A95EAF7222303
:1023700019F0432B448B089540954323FBCF2F92B4
:102380003F924F925F926F927F928F929F92AF9205
:10239000BF92CF92DF92EF92FF920F931F93CF9352
:1023A000DF93CDB7DEB72D970FB6F894DEBF0FBE23
:1023B000CDBF6A3069F5FC01EA5EFB4FDC01A85E27
:1023C000BB4F2C9148E0249F900111244081518102
:1023D000240F351F3183208314971D921C922D9654
:1023E0000FB6F894DEBF0FBECDBFDF91CF911F9126
:1023F0000F91FF90EF90DF90CF90BF90AF909F90A4
:102400008F907F906F905F904F903F902F900895A6
:102410006D3029F39D878C878C5E9B4F9A838983CF
:10242000FC01808091802C853D85285E3B4F3C835C
:102430002B8330E8831691040CF071C0EC85FD8588
:10244000EA5EFB4F6080718040E4641671040CF01A
:1024500066C0AB81BC814C9045E09401449E200D48
:10246000311D1124121613060CF059C0242C312CE6
:10247000910153E0220F331F5A95E1F7260D371DC6
:10248000121613060CF04BC0649FB001112410E02B
:1024900000E0FB01E255F34FFB87EA87E0E00530FF
:1024A00029F0EA85FB85E00FF11FE491530198E0E4
:1024B000592E2E2F30E03E832D83E170EF83F12CD7
:1024C000E12CE414D8F4C4018E0D9F1D99878887F0
:1024D000D12CC12CC41470F4A6014A0D5B1D2F81B0
:1024E000688579858C859D850E949B119FEFC91A0F
:1024F000D90AF0CFAFEFEA1AFA0AE3CFED81FE81F5
:10250000F595E7955A94A20CB31C5110D2CF0F5FEA
:102510001F4F820C931C0630110509F0BFCFEB81D1
:10252000FC812081422F50E0A981BA818D919C913C
:10253000B6E02B9F800D911D1124E981FA819183D2
:102540008083EC85FD85E75EFB4F2081222309F423
:1025500046CF6AEF64039001659F300D1124205827
:102560003F4F281739070CF03ACFAC85BD85ED9168
:10257000FC9111970190F081E02D6AE0CD012D963C
:102580000FB6F894DEBF0FBECDBFDF91CF911F9184
:102590000F91FF90EF90DF90CF90BF90AF909F9002
:1025A0008F907F906F905F904F903F902F90099405
:1025B0006FEF88EA9CE00C944E11CF93DF93D0919B
:1025C0001F05D150D0931F052D2F2F50330BC9015C
:1025D00063E070E00E9446268AE39AEAA3EEBEEE2C
:1025E00004C0B695A795979587956A95D2F7C82F99
:1025F000C170C093E5046FEF70E08AE00E943C0F69
:102600006FEF70E08BE00E943C0F8FE7C89F802D3A
:1026100011246FEF70E0681B710989E00E943C0F84
:1026200081E0D11180E0DF91CF9108951092E40410
:102630001092E0041092E1041092E2041092E3047C
:1026400088E790E09093DF048093DE0480E29CE1D1
:102650009093DD048093DC041092DB041092DA0482
:1026600060E080EE97E00C944E112F923F924F92D3
:102670005F926F927F928F929F92AF92BF92CF9212
:10268000DF92EF92FF920F931F93CF93DF93CDB71B
:10269000DEB72F970FB6F894DEBF0FBECDBF6A30FE
:1026A00071F5FC01EA5EFB4FDC01A85EBB4F4C916B
:1026B0002081318156E0459F200D311D1124318349
:1026C000208314971D921C9281E090E02F960FB604
:1026D000F894DEBF0FBECDBFDF91CF911F910F9158
:1026E000FF90EF90DF90CF90BF90AF909F908F9032
:1026F0007F906F905F904F903F902F90089520EEC5
:10270000260F203408F79F878E878C5E9B4F9E8311
:102710008D83FC01008111812E853F85285E3B4F12
:1027200039872887003811050CF065C0EE85FF85D4
:10273000EA5EFB4F808191819B838A83803491057F
:102740000CF059C0D9018C91482E512C9801B5E05C
:102750008B9F200D311D112437FD4DC02A813B81F7
:10276000E6E08E9F200D311D112437FD44C0EE851B
:10277000FF85E55EFB4F7080EE85FF85E65EFB4FD3
:10278000608024E0629FF0011124E45DFF4F85909A
:102790009590A590B490813009F05FC026E0D22ECC
:1027A000F12CE12CD501C40181709927AA27BB2700
:1027B00080FC02C0761479F0262D892B8A2B8B2B76
:1027C00009F4272D4A815B814E0D5F1DB8018E856E
:1027D0009F850E949B11B694A794979487943FEF8E
:1027E000E31AF30A56E0E516F104E1F6DA940F5F16
:1027F0001F4FD110D5CFA885B9852C91422F50E01D
:10280000ED81FE8180819181F6E02F9F800D911DE9
:102810001124AD81BE818D939C93EE85FF85E75E8B
:10282000FB4F2081222309F44FCF6AEF640390010C
:10283000659F300D112420583F4F281739070CF0A1
:1028400043CFAE85BF85ED91FC9111970190F0814A
:10285000E02D6AE0CD01099537CF180186E0898324
:102860000A811B8196E09C83D101A40DB51DBD8713
:10287000AC87D501C40181709927AA27BB2780FCAA
:1028800002C0761481F1892B8A2B8B2B31F16F8258
:102890006101F801E40DF51DFB87EA872C853D8574
:1028A000C216D30604F5780117FF02C0F12CE12C03
:1028B0008A859B858134910514F080E490E0E816C8
:1028C000F9066CF42F81A701B6018E859F850E94C1
:1028D0009B113FEFE31AF30AEBCF7F82D9CF5FEF73
:1028E000C51AD50ADBCFB694A794979487948C81A8
:1028F00081508C83040D151D8111BBCF998191509E
:102900009983240C351C9111ABCF75CFEF92FF92B8
:102910000F931F93CF93DF938C017B01D0E0C0E036
:10292000F701EC0FFD1F6491662339F0C8010E9486
:102930003513892B11F02196F3CFCE01DF91CF9182
:102940001F910F91FF90EF9008958F929F92AF92F9
:10295000BF92CF92DF92EF920F93CF93DF930E94BB
:102960003F0C20911F0588E790E0821B910968E2E7
:1029700070E00E9446264B0187E4C82E88E0D82EDE
:102980009CE1A92EB12CD0E0C0E081E090E08C1653
:102990009D0611F090E080E02091E504289FB001B1
:1029A000299F700D1124645F7F4FEE24E39400E2B1
:1029B00028E1A601C5010E94ED0A219688E1A80E32
:1029C000B11C80E6C80ED11CC330D105F1F608E079
:1029D00020E247E258E06CE270E084E490E00E947C
:1029E000ED0A80E190E09093AE098093AD098AE30F
:1029F00090E09093B0098093AF0966E178E089E9AF
:102A000095E00E94861487E090E09093AE09809351
:102A1000AD091092B0091092AF0962E078E089E93F
:102A200095E0DF91CF910F91EF90DF90CF90BF9025
:102A3000AF909F908F900C948614AF92BF92CF92DC
:102A4000DF92EF920F931F93CF93DF938091D9047E
:102A5000882309F4CAC0C091D8041091E404CA3292
:102A600030F0113021F48091DE0480FFBEC00E945E
:102A70003F0C90E080E00E94520A8FE790E00E94B5
:102A8000520A80E490E05C01AC1AB108C8E5D4E0D9
:102A9000D12CC12CCA14DB0494F44981042E000CFF
:102AA000550B6881062E000C770B21E089E995E033
:102AB0000E949B112FEFC21AD20A2296EBCF13303D
:102AC000B9F1C8E5D1E008E5C02E04E0D02E86E0DB
:102AD000A82EB12CE881F981F7FD26C0B6E0F59566
:102AE000E795BA95E1F73497CF01B5010E944626E4
:102AF000AC0113E0440F551F1A95E1F74055584FAC
:102B00006A817B8177FF02C0615C7F4FA6E075958B
:102B10006795AA95E1F764507109EE24E39408E003
:102B200028E0CF010E94ED0A2696CC16DD0691F62C
:102B3000809157018823A9F0209156012C50330B26
:102B40003093AE092093AD09869590E08E969093D0
:102B5000B0098093AF096BEA77E089E995E00E94BC
:102B6000861480915601282F2C50330B6901C09197
:102B700055018C2F807100E023E048E067E370E0AE
:102B80008C0D9D2D911D0E945F0AC695C69530E360
:102B9000C39FA0011124455D594FEE24E3940CE03E
:102BA00028E164E370E0C6010E94ED0AC091E404EC
:102BB000C111BDC08091DE049091DF04C89700E28E
:102BC00020E44BE255E060E170E0880F991F0E941D
:102BD000ED0A03E128E343E854E070E060E084E2BA
:102BE00090E00E94ED0A1092D904DF91CF911F91DD
:102BF0000F91EF90DF90CF90BF90AF90089560E17C
:102C00007EE00E9446266C0140E08CE590E00E9448
:102C1000FA0BEE24E39404E024E04BE754E070E088
:102C200060E086E690E00E94ED0AC6016CE370E089
:102C30000E94462642E084E790E00E94FA0BC130F1
:102C4000D1F48091DC049091DD049C01255536403F
:102C5000243B310540F687709927EE24E3940497CE
:102C60000CF0E12C0EE024E343E154E060E170E07D
:102C700086E290E0B6CFC23009F047C0C091DE04D2
:102C8000D091DF04CB3C81E0D8079CF1CE018A5C77
:102C90009140880F991F6CE070E0681B790BEE245F
:102CA000E39400E220E843E152E090E080E00E94FB
:102CB000ED0A80915401882309F495CFCE0168E094
:102CC00070E00E94462604970CF08DCF8FE190E0D3
:102CD0009093AE098093AD098EE290E09093B00995
:102CE0008093AF0967E072E089E995E00E9486145D
:102CF0007ACF6CE070E0C53A21E0D20784F2BE01E1
:102D000061707727645F7F4FCACFC33009F06BCF04
:102D100081E390E09093AE098093AD098EE290E05C
:102D20009093B0098093AF0961E072E0DDCF6091CC
:102D3000DA047091DB0440E082E090E00E94FA0B3C
:102D40008091DC049091DD0480313EE093070CF02B
:102D500056CF6CE370E00E9446266C0142E082E6AA
:102D600090E00E94FA0BEE24E39404E028E04BE7A5
:102D700054E070E060E08CE690E00E94ED0AC6014D
:102D800066E070E00E94462640E055CF089590E04E
:102D900080E00895FB0101900020E9F73197AF0131
:102DA000461B570B0C94FC0F8F929F92AF92BF92D1
:102DB0000F931F93CF93DF93CDB7DEB7A1970FB6D5
:102DC000F894DEBF0FBECDBF19A2423008F44AE02E
:102DD0008E010F5D1F4F842E912CB12CA12CA501CB
:102DE00094010E941526E62FB901CA01EA3004F5C4
:102DF000E05DD801EE938D01232B242B252B79F751
:102E000090E080E0109729F0BD0189E995E00E94EB
:102E1000CA16A1960FB6F894DEBF0FBECDBFDF91E4
:102E2000CF911F910F91BF90AF909F908F90089579
:102E3000E95CDFCFAB01BC01F999FECF80910705BA
:102E4000909108050E94C62580910705909108057C
:102E5000049690930805809307050895F999FECF8D
:102E6000BC0180910705909108050E94CE258091B4
:102E70000705909108050296909308058093070531
:102E80000895CF93DF93F999FECFC0910705D091B4
:102E90000805CE010E94AC252496D0930805C09366
:102EA0000705DF91CF910895CF93DF93F999FECF76
:102EB000C0910705D0910805CE010E94B225229647
:102EC000D0930805C0930705DF91CF9108950F9324
:102ED0001F93CF93DF93109205051092020581E0B6
:102EE00080930605C0914805CC2309F457C00E9481
:102EF0008D11C09301058091E60481114AC080E4E0
:102F000093E090930805809307050E9441176F3462
:102F100072448E44934009F044C0C3E0D0E00BEE0D
:102F200018E40E9454179C01C29FC001C39F900DDA
:102F3000D29F900D1124080F191F2196C031D10581
:102F400081F70E9454170817190759F584E493E094
:102F50009093080580930705CDEED4E00E945417A6
:102F60008993999335E0C130D307C1F70E94541774
:102F70009093EC048093EB040E9441176093E70464
:102F80007093E8048093E9049093EA0482E08093CC
:102F9000E604DF91CF911F910F9108950E94801157
:102FA000A8CFEDEEF4E081E095E0119211928E173A
:102FB0009F07D9F71092EC041092EB041092E704EB
:102FC0001092E8041092E9041092EA0481E0DFCF45
:102FD0002F923F924F925F926F927F928F929F9229
:102FE000AF92BF92CF92DF92EF92FF920F931F9317
:102FF000CF93DF93CDB7DEB766970FB6F894DEBFF9
:103000000FBECDBF80910605882369F00E943F0C5A
:1030100080910505813009F4A6C0F0F0823009F4F2
:1030200099C11092060566960FB6F894DEBF0FBEE2
:10303000CDBFDF91CF911F910F91FF90EF90DF9067
:10304000CF90BF90AF909F908F907F906F905F9048
:103050004F903F902F900895EE24E39400E120E6F6
:1030600048EE5BE070E060E080E290E00E94ED0AF4
:1030700020E748E05BE060E170E088E090E00E94DB
:10308000ED0A00E228E348E25AE060E270E090E0F6
:1030900080E00E94ED0A60910305709104056115BE
:1030A000710569F01092AE091092AD091092B00945
:1030B0001092AF0990E080E04AE00E94D41668E2E6
:1030C000E62EF12C78E0C72E7AE0D72E10E000E053
:1030D000B601CE0101960E94922580910205082E2C
:1030E000000C990B80179107D9F184E490E090933C
:1030F000AE098093AD09F092B009E092AF09BE012C
:103100006F5F7F4F89E995E00E94CA160196C80E4D
:10311000D91E0130110561F48091010561E07AE06A
:10312000882311F065E07AE089E995E00E94861431
:103130000F5F1F4F26E0E20EF11C0430110541F62F
:103140006091020536E06302B0011124685D7F4F93
:1031500001E025E045E088E390E00E945F0A61CF4E
:1031600080E490E0C4CF86E190E09093AE09809334
:10317000AD0984E090E09093B0098093AF0962EFCD
:1031800079E089E995E00E948614EDE2F6E02DEA07
:1031900036E08081806181932E173F07D1F74DEE95
:1031A000242E44E0342EC12CD12C7601C39404E0AB
:1031B00010E0460181E0881A91083E8A2D8A260196
:1031C00037013EE0A32EB12C99E08916910409F055
:1031D000BEC086E090E0F801E81BF90BF093AE0961
:1031E000E093AD09B092B009A092AF0960EF79E029
:1031F00089E995E00E9486144AE0C301B2010E9469
:10320000D4166DEE79E089E995E00E948614ED8987
:10321000FE8961917191FE8BED8B90E080E04AE038
:103220000E94D416FFEF8F1A9F0A26E0A20EB11C4F
:103230003FEF431A530A630A730A8CE2A816B104DB
:1032400019F6045C1F4F95E0C90ED11CE11CF11C5E
:10325000EAE02E0E311C0C37110509F0AACFEDE281
:10326000F8E080818061819328E0ED3AF207C9F7A8
:1032700000E110E01093AE090093AD0980E390E007
:103280009093B0098093AF0961EE79E089E995E008
:103290000E9486146091EB047091EC0490E080E051
:1032A0004AE00E94D4161093AE090093AD0986E35C
:1032B00090E09093B0098093AF0965ED79E089E9DA
:1032C00095E00E9486146091E7047091E804809173
:1032D000E9049091EA0420E13EE040E050E00E94E1
:1032E0001526CA01B9014AE00E94D4166091E7048C
:1032F0007091E8048091E9049091EA042CE3C22ED5
:10330000D12CE12CF12CA70196010E941526CA01AF
:10331000B901A70196010E9415269F938F937F9371
:103320006F938BE491E09F938F938E010F5F1F4FFC
:103330001F930F930E947426B80189E995E00E94BB
:10334000CA160FB6F894DEBF0FBECDBF6ACE90E0AE
:1033500080E041CF08E010E08DE6E82E89E0F82E0D
:10336000B701CE0101960E94922564E170E0CE0182
:1033700001960E949925282F3DEF3203C0011124A8
:10338000805C9F4F9093AE098093AD091093B00974
:103390000093AF09BE016F5F7F4F89E995E00E94FE
:1033A000CA160196E80EF91E0A5F1F4F0833110571
:1033B000B9F637CECF92DF92EF92FF92CF93809102
:1033C000B6092091B50930E020953095909105051A
:1033D00091118AC0807890E082239323892B79F021
:1033E000809102058823B1F18150809302056FEF2F
:1033F00087E699E00E944E1181E080930605809156
:10340000B609807190E02091B50930E020953095A3
:1034100082239323892B79F0809102058330E1F098
:103420008F5F809302056FEF87E699E00E944E114F
:1034300081E0809306058091B50990E08095909594
:103440002091B6092C7030E082239323892B39F424
:10345000C0E01EC083E0C9CF10920205E4CF809186
:103460000205813079F124F4882341F0C0E00DC0D9
:103470008230B1F18330D1F782E033C060914805EA
:1034800082E090E00E94B825C1E081E080930605CB
:103490000E94DE246C01990FEE08FF080E94610C67
:1034A000C616D706E806F90631F06C257D258E256F
:1034B0009F250E9489258C2FCF91FF90EF90DF9060
:1034C000CF900895C0910105C82739F00E948D1151
:1034D000C09301050E94D812C9CF0E948011F8CF75
:1034E00081E080930505F6CF8C7090E082239323D2
:1034F000892B09F4ADCF109205050E94D81281E006
:1035000080930605A5CF2F923F924F925F926F92C4
:103510007F928F929F92AF92BF92CF92DF92EF9263
:10352000FF920F931F93CF93DF932091E4042330F6
:1035300049F58091B50990E0809590952091B60964
:103540002C7030E082239323892B41F081E080931B
:10355000E4049EE1909353018093D90480E0DF91CD
:10356000CF911F910F91FF90EF90DF90CF90BF9080
:10357000AF909F908F907F906F905F904F903F9013
:103580002F90089540915601842F90E021114EC153
:1035900020E430E06901C81AD90AC60121E030E010
:1035A0001816190614F030E020E0892F881F8827AC
:1035B000881F281B3109420F409356018091550105
:1035C0002115310509F454C18F5F8F702130310509
:1035D00009F44CC18093550180915701882309F467
:1035E00049C18150809357018091560160E4869FC4
:1035F000300111244091DC045091DD04D2E08D2E85
:10360000912C493077E057071CF4C3E08C2E912CA5
:1036100030915201C091D8046091DA047091DB04BA
:10362000E8E5F1E0B12C212C2FE0322EA6E0AA2E05
:10363000412CBFE15B2EDF01C080D180D7FC7CC074
:10364000E280F3808481C80ED11C87FDDA94D18298
:10365000C08225818701020F111D27FD1A95138352
:1036600002832F5F25839FEFC916D10411F00CF060
:1036700018C1C12CDD24D394D182C082DDEF8D022C
:10368000C001112497FD039695958795959587958B
:103690008483141615060CF029C101158FE0180754
:1036A0000CF44AC0E1149FE0F90608F01FC1E08065
:1036B000F180C701861997096C01D0E8CD1ADDEFBA
:1036C000DD0AD1E0CD16D5E0DD0608F00FC197FD8B
:1036D000CF96D6E095958795DA95E1F7B48027FDEA
:1036E0002F5F259521954930D7E05D070CF4E2C0A6
:1036F0000497D12CC12C285213963C922E921297EB
:103700001B2D180F14961C9314978C0197FF04C05F
:1037100000271127081B190B020F15960C931597FC
:10372000DFEFCD1ADD0A0896C814D9040CF4C4C022
:103730006F5F7F4FBB24B394369688E594E08E1775
:103740009F0709F078CF30935201C093D80470934B
:10375000DB046093DA04BB2049F0493057400CF495
:10376000D0C082EB91E063E00E944E1180E490E0D3
:103770008C1B9109181619060CF4C6C08091DE0442
:103780009091DF0401979093DF048093DE042091F1
:10379000E404222309F4F3C0213009F0FCC1809134
:1037A000DC049091DD04181619062CF4019790930F
:1037B000DD048093DC044091E0045091E1046091C9
:1037C000E2047091E3044F5F5F4F6F4F7F4F409370
:1037D000E0045093E1046093E2047093E304809169
:1037E000D8048111C4C182E08093E4042091DA04FA
:1037F0003091DB0430930405209303058AE090E0C8
:10380000EC01CE010197FC01EE0FFF1FE351FB4FCE
:103810000190F081E02DE217F30708F0E5C0893050
:10382000910509F0E6C0C9E0D0E0EBCF2091B609E0
:1038300025FB662760F970E026FD11C0222733279B
:10384000261B370B820F931F181619066CF481384C
:10385000910514F080E890E080935601AFCE21E00E
:1038600030E0261B370BEECF80E0F6CF8061B2CE82
:103870008071B0CE8091B50990E0809590952091AF
:10388000B609207130E082239323892B09F4ACCE52
:1038900088E08093570162E088EB91E00E944E112E
:1038A000A3CE91E0C9169FE1D9060CF4F2CE518265
:1038B0004082E4CE08971DCFC7FD1ECF032F10E036
:1038C0000F5F1F4F0F771127302FA09ED001A19EB1
:1038D000B00D1124A85ABE4F0D911C91119717FFDE
:1038E000EDCF1196FC92EE92CF5F06CF01381141D9
:1038F0000CF422CFCC24CA94DC2CD182C082C150DB
:103900001BCF8CEA91E02FCFC8E5D4E008ED14E09E
:1039100083E0C82ED12CE12CF12C92E0892E912C41
:10392000A12CB12C20E8422E512C612C712C0E942C
:103930003A25A70196010E94E325AB01BC01415045
:103940005109610971098881682F640F68830E9499
:103950003A25A50194010E94E3258981680F6983B6
:10396000603444F00E943A25A30192010E94E325AD
:103970006883198222960C171D07C9F6FFCE8C3377
:10398000910561F580E090E1909359018093580191
:1039900080E098E090935B0180935A0110925C0163
:1039A00080EC80935D0181E08093D8048091530185
:1039B00018161CF481508093530181E08093D90440
:1039C0008091E404823009F0C9CD8091DE049091A9
:1039D000DF04892B09F0C2CD81E0C1CD892B31F7FD
:1039E00081E08093E404E2CFCA30D10599F0CE01A2
:1039F00009C0CC0FDD1FC351DB4FF983E88300976B
:103A000009F0FECEFC01EE0FFF1FE351FB4F3183A7
:103A10002083EC018091EB049091EC04019690934B
:103A2000EC048093EB048091E7049091E804A0916A
:103A3000E904B091EA04840F951FA61FB71F809375
:103A4000E7049093E804A093E904B093EA0480911A
:103A5000E604813061F480E493E09093080580935C
:103A600007056FE472E48EE493E00E941A17CE011A
:103A70008E559E4F880F991F9093080580930705D8
:103A80008E01000F111F03511B4F4DEEE42E44E039
:103A9000F42E51E0C52E55E0D52EC016D10639F0D2
:103AA000F801819191918F010E942E17F6CF80919C
:103AB000EB049091EC040E942E176091E704709142
:103AC000E8048091E9049091EA040E941A1723E027
:103AD00030E04BEE58E4F701619171917F01629FF4
:103AE000C001639F900D729F900D1124480F591FC4
:103AF0002F5F3F4F2D30310571F7C090E704D09014
:103B0000E804E090E904F090EA048091EB049091DD
:103B1000EC046DE0689F9001699F300D11246EE008
:103B20006C9DC0016D9D900D1124280F391F6FE011
:103B30006E9DC0016F9D900D1124820F931F840F05
:103B4000951F0E942E1782E08093E60481E0C11148
:103B500080E08093540180EE91E09093DF048093A5
:103B6000DE0461E08AEC91E00E944E111FCF80914B
:103B7000530181111BCF8091B50990E080959095FC
:103B80002091B6092C7030E082239323892B09F40D
:103B900014CF83E026CF223009F008CF8091530163
:103BA000811104CF8091B50990E080959095209186
:103BB000B6092C7030E082239323892B09F4FDCEC3
:103BC0000E941613F3CE8F929F92AF92BF92CF9224
:103BD000DF92EF92FF920F931F93CF93DF93E8E56D
:103BE000F1E08FEF9FEF91838083369624E0E835F4
:103BF000F207C9F71092D80410925201C8E5D4E038
:103C000008ED14E080E8882E912CA12CB12C90E4D2
:103C1000C92ED12CE12CF12C0E943A25A50194014A
:103C20000E94E32568830E943A25A70196010E941D
:103C3000E325698322960C171D0771F780EA8093AC
:103C400056011092550110925701DF91CF911F91AB
:103C50000F91FF90EF90DF90CF90BF90AF909F902B
:103C60008F900C9416131F920F920FB60F9211247F
:103C70008F939F938091E1009091E100937F9093C7
:103C8000E10083FF0FC01092E90091E09093EB00F8
:103C90001092EC0092E39093ED001092410598E0B1
:103CA0009093F00082FF22C093E09093E9009091FE
:103CB000F200992319F09AE39093E800909132056D
:103CC000992341F0909132059150909332059111D2
:103CD00001C05D9A90914005992341F09091400573
:103CE000915090934005911101C0289A84FF18C00B
:103CF0008091E2008E7E81608093E2008091E100FD
:103D00008F7E8093E100809133058E7E8061809369
:103D100033059F918F910F900FBE0F901F901895B4
:103D200080FFF7CF8091E2008E7E80618093E20079
:103D30008091E1008E7E8093E100809133058E7E3C
:103D40008160E5CF1F920F920FB60F921124CF9290
:103D5000DF92EF92FF920F931F932F933F934F9316
:103D60005F936F937F938F939F93AF93BF93EF93E3
:103D7000FF93CF93DF93CDB7DEB76C97DEBFCDBF98
:103D80001092E9008091E80083FF25C068E0CE0131
:103D900045960E94820E82EF8093E8008D8987FF0E
:103DA00039C09091E80090FFFCCF982F907609F0F1
:103DB00034C19E894F89588D2F89F88C911131C05B
:103DC000803861F5809131058093F1001092F10007
:103DD0008EEF8093E8006C960FB6F894DEBF0FBEAE
:103DE000CDBFDF91CF91FF91EF91BF91AF919F91A7
:103DF0008F917F916F915F914F913F912F911F9183
:103E00000F91FF90EF90DF90CF900F900FBE0F902B
:103E10001F9018959EEF9093E800C7CF1092F10085
:103E2000D5CF913059F48111D3CF4130510581F66E
:103E3000809131058D7F80933105CACF933049F44D
:103E40008111C6CF4130510519F68091310582604C
:103E5000F2CF953041F48091E80080FFFCCF2068DC
:103E60002093E300B5CF963009F0A9C00B8D1C8DCF
:103E700022E01092E90010922F0510922E05F21206
:103E80002EC010922D0510922C050E94510E1F82FB
:103E900099E09983FA8291E09E8390EA98879AEF5D
:103EA000998720912E0530912F05275F3F4F3C8346
:103EB0002B838D831092E90010922F0510922E050E
:103EC00010932D0500932C0549E050E0BE016F5F73
:103ED0007F4F80E00E942B0E0E94510E79CF1093ED
:103EE0002D0500932C050E94B40CDC0112960D9157
:103EF0001C910115110509F451C1D801ED91FC91F6
:103F00000480F581E02DBE016B5E7F4FC8010995ED
:103F1000009709F03EC1F80100851185EACFF3E072
:103F2000FF120EC08F89882309F440C0823061F4EB
:103F300040E867E08EE793E10E94F80D811148CFD9
:103F400081E28093EB0047CF813029F440E86BE0B9
:103F500082E793E1F1CF833099F70E94B40CDC0142
:103F60001296ED90FC908E010F5F1F4F6801E114D7
:103F7000F10479F0D701ED91FC910680F781E02DF5
:103F8000B801C7010995080F111DF701E084F184FC
:103F9000EECFD8011C92F60101900020E9F731978D
:103FA000BF016C197D0940E0C601C6CF6CE573E125
:103FB000FB01449150E080E80E942B0E09CF97301E
:103FC00009F4BECF983021F481E08093F10000CF56
:103FD000993009F0FDCE837009F0B2CFE7E2F1E04D
:103FE00081E031E096E32191222371F08093E90092
:103FF0003093EB00DF0111972C912093EC0090930C
:10400000ED008F5F873079F78EE78093EA0010929A
:10401000EA008F8980934105DBCE8B8D9C8D1092B9
:10402000E90010922F0510922E0590932D05809394
:104030002C05898D811192C08E899D89913A49F410
:10404000813209F07DCF47E050E064E071E080E02C
:10405000B3CF913209F074CF833269F48F89988D90
:10406000B0E0A0E08093000190930101A0930201D1
:10407000B0930301ADCE803269F48091E80082FFF5
:10408000FCCF67E084E091E00E94820E8BEF80938A
:10409000E8009ECE823209F09BCE8F8980930B017F
:1040A000EEEFFFE7859194918B3F9C4D51F1E0E05D
:1040B000F8E08091040190910501A0910601B09172
:1040C0000701803B9440A105B105F1F480910B01FB
:1040D00080FD1AC0EE3F8AE0F80789F587E797E789
:1040E00091838083809160008093300588E19BE01C
:1040F0000FB6F894A895809360000FBE909360006F
:1041000067CEEEEFFAE0D5CF808191818737974770
:1041100009F05ECEA8958091600088618093600070
:104120008091300580936000EE3F2AE0F20789F02D
:104130008091FE0A9091FF0A9183808349CE80810D
:1041400091818737980751F29093FF0A8093FE0A76
:10415000C5CF1092FF0A1092FE0A3ACE0E94B40C0C
:10416000DC0112960D911C910115110509F4E8CEA0
:10417000D801ED91FC910190F081E02DBE016B5EC4
:104180007F4FC8010995811123CEF8010085118563
:10419000EBCF181619060CF41BCED2CEF1E0FF12AD
:1041A000BECE60E673E104CF0F920FB68F939F935C
:1041B000EF93FF93809123058D5F8D3708F08D5726
:1041C00080932305E4E2F5E080818E4F8083918126
:1041D0009F4F918382818F4F828383818F4F83830F
:1041E000E8E2F5E080818F5F808381818F4F81835A
:1041F00082818F4F828383818F4F83838FB18F60C2
:1042000066991C9B88278F3681F480912205981B24
:10421000963068F0E0E0F8E087E78083818388E10A
:1042200080936000F0936000FFCF90932205FF9190
:10423000EF919F918F910FBE0F9018951F920F9243
:104240000FB60F9211242F933F934F935F936F9369
:104250007F938F939F93AF93BF93EF93FF9380913F
:104260001205882349F080911505E0911605F0911B
:10427000170590818927808380914305882329F140
:1042800080910E0590910F05A0911005B091110538
:10429000892B8A2B8B2BC9F080910E0590910F05ED
:1042A000A0911005B09111050197A109B109809362
:1042B0000E0590930F05A0931005B0931105892B5F
:1042C0008A2B8B2B11F40E94DB10FF91EF91BF9191
:1042D000AF919F918F917F916F915F914F913F919E
:1042E0002F910F900FBE0F901F9018951F920F9255
:1042F0000FB60F9211248F939F93AF93BF93EF93B9
:10430000FF9380910D05882309F452C0809109051F
:1043100090910A05A0910B05B0910C05892B8A2B71
:104320008B2BA1F190911805E0911905F0911A05D8
:104330008081892780838091090590910A05A09149
:104340000B05B0910C05181619061A061B069CF4ED
:104350008091090590910A05A0910B05B0910C057B
:104360000197A109B1098093090590930A05A093CB
:104370000B05B0930C05FF91EF91BF91AF919F9109
:104380008F910F900FBE0F901F90189510920D05F2
:1043900080916F008D7F80936F0080911805E09170
:1043A0001905F0911A059081809589238083E3CFC8
:1043B00090911805E0911905F0911A0580818927DF
:1043C000F5CFE9E4F5E01382128288EE93E0A0E0F5
:1043D000B0E084839583A683B78381E391E09183E2
:1043E00080838FEF9FEF95878487E9E9F5E013825B
:1043F00012828CE3868380E181871086178216867D
:104400001786108A118A128A1092AE091092AD098D
:104410001092B0091092AF0981E08093B10923E4B2
:1044200031E0318320838093B3091092B409089559
:10443000789483E084BD83E085BD81E080936E0045
:10444000E1E8F0E083E08083E0E881E08083E1E977
:1044500083E08083E0E981E08083E1EC87E0808392
:10446000E3EC81E08083E0EC82E08083E2EC81E0B9
:104470008083EAE787E0808380688083109241052B
:1044800010923105109233058091D700816080939E
:10449000D70080EA8093D80089B5806189BD89B54D
:1044A000826089BD09B400FEFDCF0E944C0C809152
:1044B000D8008F7C80618093D8008091E000807F5D
:1044C0008093E0008091E1008E7E8093E1008DE09A
:1044D0008093E200559A209ACFB7F89480911B05FB
:1044E000811127C0EEECF2E18491EDEEF2E19491BE
:1044F000E82FF0E0EE0FFF1FEF55FD4EA591B491B0
:10450000EC91E92321F461E081E10E948F0E61E0EA
:1045100081E10E94000F8CB580618CBD8CB58064F8
:104520008CBD61E08FE00E94000F61E080E10E949D
:10453000000F80911B058F5F80931B05CFBFCEE8D6
:10454000D2E1BE01FE0184916F5F7F4F2296FB0195
:104550006491882319F00E94000FF3CF61E086E098
:104560000E948F0E61E070E080E090E00E94DF0F1B
:1045700060E086E00E948F0E6AE070E080E090E0EC
:104580000E94DF0F61E086E00E948F0E89EC92E1CD
:10459000FC012491E22FF0E0EE0FFF1FE155FD4EEC
:1045A00025913491E8EEF2E12491FC018491E82F09
:1045B000F0E0EE0FFF1FE155FD4EA591B4918C91F7
:1045C000E22FE095E823EC93E1ECF2E1E491F0E0F6
:1045D000EE0FFF1FE155FD4E8591949190931E05BE
:1045E00080931D05E0EEF2E1E491E0931C058CB5AB
:1045F0008C7F8CBD8DB581608DBD0E943C10E0E844
:10460000F2E184918EBD00000DB407FEFDCF8EB5A2
:10461000319632E1EE38F307A1F7E0911D05F091F4
:104620001E05808190911C05892B808380916400F8
:104630008160809364008091640082608093640054
:10464000809164008068809364008091640080643D
:1046500080936400809165008160809365000E9472
:10466000291087FF29C00E943C1085EA8EBD0000FA
:104670000DB407FEFDCF8EB5E0911D05F0911E052E
:10468000808190911C05892B808370E060E08AE036
:104690000E943C0F70E060E08BE00E943C0F70E0F5
:1046A00060E089E00E943C0F80916400806280930A
:1046B00064000E943110FDCF80914205823091F05C
:1046C000E82FF0E0E258FD4EC4918F5F80934205E1
:1046D00061E085E00E94000FC13009F45CC0C33086
:1046E00009F47BC061E08DE00E94000F82E090E061
:1046F0000E94A425882309F49DC080916500877FCE
:104700008093650081E0809348058CE380939F054A
:1047100080E18093A20588E780931F0516E0C0E042
:10472000D0E001E02FB7F894809124059091250501
:10473000A0912605B09127052FBF2091AB0522231C
:1047400091F02091A305E82FE21BE093AC052091A6
:10475000A0053091A1052F5F3F4F3093A105209315
:10476000A0051092AB054091A7055091A805609156
:10477000A9057091AA0584179507A607B7070CF03D
:1047800061C0481B423010F00E943110209751F256
:104790000E940000C7CF109280001092810080918B
:1047A0008100886080938100809181008160809386
:1047B0008100E2ECF2E1E491F0E0EE0FFF1FE15541
:1047C000FD4E8591949190931A0580931905E1EE21
:1047D000F2E1E491E093180585CF109290001092D9
:1047E0009100809191008860809391008091910068
:1047F000816080939100E2ECF2E1E491F0E0EE0F51
:10480000FF1FE155FD4E859194919093170580937C
:104810001605E1EEF2E1E491E09315058091420581
:10482000882321F06CE380E00E94471080E00E9422
:10483000B81058CF10924805809165008860809329
:10484000650063CF2091A205AC01BD01420F511D4F
:10485000611D711D4093A7055093A8056093A9059C
:104860007093AA058093A3059093A405A093A50532
:10487000B093A6050093AB058091B6098093B50966
:104880000E9429108093B6098091200590912105FE
:10489000189FF001199FF00D1124EC5EFE4F02806D
:1048A000F381E02D0995F82E809120059091210546
:1048B000189FF001199FF00D1124EC5EFE4F04804B
:1048C000F581E02D09958091AD058EBDEEEAF5E00C
:1048D00081910DB407FEFDCF8EBD39E0ED3AF307AF
:1048E000B9F70DB407FEFDCFFF2009F44FCF80913B
:1048F000200590912105019791F081E090E090933F
:10490000210580932005189FF001199FF00D1124B7
:10491000EC5EFE4F0190F081E02D099537CF82E0EB
:1049200090E0EDCF8F929F92AF92BF92CF92DF92A5
:10493000EF92FF92CF93DF93EC01688179818A81B6
:104940009B81611571058105910521F464E279ED82
:104950008BE597E02DE133EF41E050E00E94E32545
:1049600049015A019B01AC01A7EAB1E40E94022669
:104970006B017C01ACEEB4EFA50194010E941026FE
:10498000DC01CB018C0D9D1DAE1DBF1DB7FF03C00B
:104990000197A109B04888839983AA83BB839F7735
:1049A000DF91CF91FF90EF90DF90CF90BF90AF90CD
:1049B0009F908F9008950E94922408958CE091E03A
:1049C0000E9492240895B0E0A0E080930C0190939F
:1049D0000D01A0930E01B0930F0108958F929F9245
:1049E000AF92BF92CF92DF92EF92FF92CF93DF937D
:1049F000EC01688179818A819B816115710581054E
:104A0000910521F464E279ED8BE597E02DE133EF38
:104A100041E050E00E94E32549015A019B01AC01AD
:104A2000A7EAB1E40E9402266B017C01ACEEB4EF70
:104A3000A50194010E941026C60ED71EE81EF91E7D
:104A4000F7FE06C081E0C81AD108E10880E8F80A3C
:104A5000C882D982EA82FB82C701B6019F77DF91C3
:104A6000CF91FF90EF90DF90CF90BF90AF909F904D
:104A70008F9008958F929F92AF92BF92CF92DF92C4
:104A8000EF92FF92609110017091110180911201DB
:104A900090911301611571058105910521F464E27E
:104AA00079ED8BE597E02DE133EF41E050E00E9496
:104AB000E32549015A019B01AC01A7EAB1E40E9438
:104AC00002266B017C01ACEEB4EFA50194010E94BB
:104AD0001026C60ED71EE81EF91EF7FE06C081E09E
:104AE000C81AD108E10880E8F80AC0921001D092F3
:104AF0001101E0921201F0921301C701B6019F77F4
:104B0000FF90EF90DF90CF90BF90AF909F908F90ED
:104B10000895609310017093110180931201909396
:104B200013010895FB01DC0105900D920020E1F7CF
:104B30000895FC016150704001900110D8F78095F4
:104B400090958E0F9F1F0895F999FECF92BD81BD5C
:104B5000F89A992780B50895A6E1B0E044E050E0C6
:104B60000C94D525A8E1B0E042E050E00C94D525A6
:104B7000262FF999FECF1FBA92BD81BD20BD0FB679
:104B8000F894FA9AF99A0FBE01960895242F0E947C
:104B9000B925252F0E94B9250C94CE250E94B82551
:104BA000272F0C94B925DC01CB01FC01F999FECF2C
:104BB00006C0F2BDE1BDF89A319600B40D924150A5
:104BC0005040B8F70895052E97FB1EF400940E94FC
:104BD000FA2557FD07D00E94152607FC03D04EF496
:104BE0000C94FA2550954095309521953F4F4F4FA5
:104BF0005F4F089590958095709561957F4F8F4F89
:104C00009F4F08950E943726A59F900DB49F900D49
:104C1000A49F800D911D11240895B7FF0C940226C6
:104C20000E940226821B930B0895A1E21A2EAA1B52
:104C3000BB1BFD010DC0AA1FBB1FEE1FFF1FA2174C
:104C4000B307E407F50720F0A21BB30BE40BF50B49
:104C5000661F771F881F991F1A9469F760957095D2
:104C6000809590959B01AC01BD01CF010895A29F55
:104C7000B001B39FC001A39F700D811D1124911D30
:104C8000B29F700D811D1124911D089597FB072E71
:104C900016F4009407D077FD09D00E94602607FC27
:104CA00005D03EF4909581959F4F0895709561953C
:104CB0007F4F0895EE0FFF1F0590F491E02D0994AA
:104CC000AA1BBB1B51E107C0AA1FBB1FA617B70732
:104CD00010F0A61BB70B881F991F5A95A9F780954E
:104CE0009095BC01CD010895AEE0B0E0EAE7F6E2B0
:104CF0000C9418290D891E8986E08C831A830983F8
:104D00008FEF9FE79E838D83AE01475E5F4F6F8974
:104D1000788DCE0101960E9497262F813885020F4B
:104D2000131FF80110822E96E4E00C943429ABE0B6
:104D3000B0E0EDE9F6E20C940A297C013B018A011E
:104D4000FC0117821682838181FFC8C1CE010196C2
:104D50005C01F7019381F30193FD859193FF8191AC
:104D60003F01882309F453C1853239F493FD8591BD
:104D700093FF81913F01853229F4B70190E00E94B1
:104D80007C28E7CF912C212C312CFFE1F31538F052
:104D90008B3211F190F4803209F1833229F137FC22
:104DA0003CC020ED280F2A3050F536FE20C08AE0A6
:104DB000989E200D1124922E06C08D3291F08033E2
:104DC00071F7689430F8F30193FD859193FF819119
:104DD0003F018111DACF21C0689431F8689432F82C
:104DE000F2CF689433F8EFCF689434F8ECCFEAE070
:104DF0002E9E200D1124222E689435F8E4CF8E3299
:104E000029F436FC04C1689436F8DDCF8C3619F4E9
:104E1000689437F8D8CF8836B1F2982F9F7D955493
:104E20009330E0F08336A1F18337C1F1833509F087
:104E300063C02801F2E04F0E511CF801C080D18000
:104E4000692D70E036FC02C06FEF7FEFC6010E9453
:104E500071284C01689437F882010AC00C5F1F4F1B
:104E6000FFE3F98388248394912C6501E89437F853
:104E700033FE2DC0522C8114910471F5552009F494
:104E800068CFB70180E290E00E947C285A94F6CF68
:104E9000F801808189830E5F1F4FE4CF2801F2E083
:104EA0004F0E511CF801C080D180692D70E036FC96
:104EB00002C06FEF7FEFC6010E9499254C0182016D
:104EC000D5CFB70180E290E00E947C282A94281474
:104ED000190409F0B0F7CECFF60137FC859137FE03
:104EE00081916F01B70190E00E947C2851105A9483
:104EF000F1E08F1A9108BFCF843619F0893609F096
:104F000077C0F80137FE6BC0608171818281938127
:104F10000C5F1F4FF32DFF763F2E97FF09C0909532
:104F20008095709561957F4F8F4F9F4F689437F8AC
:104F30002AE030E0A5010E94AC28C82ECA188C2CAB
:104F4000432C36FE0CC0E89440F8C91440F434FEFB
:104F500005C032FC03C0F32DFE7E4F2E892C44FE8B
:104F600095C0FE01EC0DF11D8081803309F087C0F2
:104F7000242D297E422E842D8870582E43FC95C006
:104F800040FE8FC09C2C821418F42C0C922C981884
:104F900044FE91C0B70180E390E00E947C2842FE6D
:104FA00009C088E790E041FE02C088E590E0B701C3
:104FB0000E947C28C91408F48AC0CA94D12C9FEF9F
:104FC000C91AD90ACA0CDB1CF60182916F01B7011C
:104FD00090E00E947C28AC14BD04B1F74FCF6081F3
:104FE0007181072E000C880B990B0E5F1F4F92CF1B
:104FF000D32CE894D4F82AE030E0853739F1232D1A
:10500000297FD22E8F3601F148F48835A9F0F701B7
:10501000868197812B96E2E10C942629803749F00E
:105020008837A9F7D4FE02C06894D2F820E130E0B6
:105030000DC06894D4F8F6CF34FE03C0822F86608A
:10504000D82E20E132E002C028E030E0F801D7FE9F
:105050000FC060817181828193810C5F1F4FA50118
:105060000E94AC28C82ECA183D2CE89437F867CFA8
:105070006081718190E080E00E5F1F4FF0CF42FCB5
:1050800002C0839478CF8394839475CF842D8678DF
:1050900009F471CFF6CFB70180E290E00E947C283E
:1050A00083948214C0F3512C73CF522C581882145D
:1050B00008F46ECFF8CF842D867809F47BCF8BE28D
:1050C00041FE80E247FC8DE2B70190E071CFB7016D
:1050D00080E390E00E947C289A946CCF8FEF9FEF42
:1050E00099CFFC010590615070400110D8F7809570
:1050F00090958E0F9F1F08950F931F93CF93DF936B
:10510000182F092FEB018B8181FD09C01FEF0FEFD5
:10511000812F902FDF91CF911F910F91089582FFE2
:1051200014C02E813F818C819D81281739073CF462
:10513000E881F981CF0101969983888310838E815C
:105140009F8101969F838E83E3CFE885F985812F28
:105150000995892BA1F3DACFFA01AA27283051F15A
:10516000203181F1E8946F936E7F6E5F7F4F8F4F98
:105170009F4FAF4FB1E03ED0B4E03CD0670F781FF7
:10518000891F9A1FA11D680F791F8A1F911DA11DDC
:105190006A0F711D811D911DA11D20D009F4689415
:1051A0003F912AE0269F11243019305D3193DEF6BD
:1051B000CF010895462F4770405D4193B3E00FD073
:1051C000C9F7F6CF462F4F70405D4A3318F0495D5E
:1051D00031FD4052419302D0A9F7EACFB4E0A69541
:1051E0009795879577956795BA95C9F70097610563
:1051F000710508959B01AC010A2E069457954795B9
:1052000037952795BA95C9F7620F731F841F951FAD
:10521000A01D08952F923F924F925F926F927F92BE
:105220008F929F92AF92BF92CF92DF92EF92FF92B6
:105230000F931F93CF93DF93CDB7DEB7CA1BDB0B62
:105240000FB6F894DEBF0FBECDBF09942A88398807
:1052500048885F846E847D848C849B84AA84B9840E
:10526000C884DF80EE80FD800C811B81AA81B9811A
:10527000CE0FD11D0FB6F894DEBF0FBECDBFED012E
:065280000895F894FFCF31
:10528600FFFFFFFF00E1000000000000010000003A
:1052960001000000F70FDD12A5146717DA19E817E9
:1052A600E31D831A1D1500C1808100000000000067
:1052B60000490DC80C6A0D5F0DB00D6E0D8C0D000A
:1052C6000000003513FC0FC716C6162725303264BA
:0252D6002200B4
:00000001FF
