:100000000C94460A0C946E0A0C946E0A0C946E0AB8
:100010000C946E0A0C946E0A0C946E0A0C946E0A80
:100020000C946E0A0C946E0A0C9406200C947820A2
:100030000C946E0A0C946E0A0C946E0A0C946E0A60
:100040000C946E0A0C9422160C946E0A0C946E0A90
:100050000C946E0A0C946E0A0C946E0A0C9408159B
:100060000C946E0A0C946E0A0C946E0A0C946E0A30
:100070000C946E0A0C946E0A0C946E0A0C946E0A20
:100080000C9423170C946E0A0C946E0A0C946E0A4E
:100090000C946E0A0C946E0A0C946E0A0C946E0A00
:1000A0000C946E0A0C946E0A0C946E0A72197519EF
:1000B000641968196C1996199619961979197D1988
:1000C000811987198B1996199119101A151A1A1A6C
:1000D000241A2E1A781A781A781A381A421A4C1AD0
:1000E000561A631A781A6B1A00000000007001009B
:1000F000C0000C00CAA77C0A42F5550853424819B3
:100100005EF55112003000000027450040941C00AD
:1001100014F3190504F11104200400000441100433
:1001200000040000104208015E14450F40F0010079
:100130005955551351555D0D8C927C085755550DE9
:100140005E55550D51520C015E55550F5655550FC4
:1001500000A0000000A4000000C2280080A2280027
:100160008062080040500D0000E318009C92241F9C
:100170005F555D0D9C1445115F1425075F555511A2
:100180005F5114015E54551D1F41101F40F445007E
:10019000100421071F41181D1F0441105EF0041FA9
:1001A0009C10041F5E54450F5F9214035ED4451FDC
:1001B0005F92341B5655550D41F005011F04210770
:1001C0001F4208011FE4410F1743181D07C1090111
:1001D00051564D1100F0450000F0010040F40100BF
:1001E00080100C00100441109075001E9074001EC9
:1001F0009073001E9071002880F0905F000F80F0D7
:100200009059000F80F09037007880000A903600F7
:100210008C800014903500A080001E903400B480C3
:100220000028903300C8800032903200DC80003C0F
:10023000903100F08000469030000480F05041552D
:100240005345004E4557205245434F52442100002C
:10025000000000000000000000000000000000009E
:10026000000000000000000000000000000000008E
:1002700000000000383C06C2FEFE7E4240E0FCFE6C
:100280000F0381C3633090F0F030607090D0F07055
:100290000010F0F00000C0E0B0D0F07000000000EE
:1002A00000000080C0603090F0F0300000000000DE
:1002B000000000000000000000000000000000003E
:1002C000000000000000000000000000000000002E
:1002D000000000000000808080808080800000009E
:1002E000000000000000000000000000000000000E
:1002F0000000D8D8D0181E0F070100101F1F1F10B4
:10030000001E1F1F181C1F1F0F040000071F1F0CBB
:1003100006838180809F9F1F190C84C0C040C0C08D
:1003200000001E1F1F181C1FDFCFE4606000C0C04C
:10033000C00000000000000080C0E06060600000BD
:1003400000000000000000000000000000000000AD
:100350000078FCC68301E1FEFE1E19FFFFE700C026
:10036000F0F80C04FCFCF80008E8FCFC3C0C061659
:10037000F8FCFC1C0008C8FCFC3C18C8FCFC3C80D9
:10038000E0F0380CC4FCFC7C000000000000000E13
:100390000F81F0FF7F1F10D0F8FF3F03C0F0F80C73
:1003A00004FCFCF80000F8FF7F8F8010F8FCFC1CB8
:1003B0000080E0F0380CC4FEFFBF8180E0F0180C34
:1003C000E4FCFC0C10181CFCF8C0FCFC3C00000019
:1003D00000000004040707070504070303010003E6
:1003E00007070406030100000607070100000007D5
:1003F0000707030100060707010007070762F2F776
:100400009F8FC4E67F7F3F000000000000060604C7
:100410000607030100000407070704000307070499
:100420000603010000070707030100070707030190
:100430000007070706030707030301070707060767
:100440000707C3C1C0C060783F0F0701000000E08C
:10045000F0180C84FCFCBCC4C41C1C0480C040C04C
:10046000C080C04040C0C04000C0C0000080C0404C
:10047000C0C0008080C000C0C0606000FCFC7C0088
:10048000FCFC7C032322383F3F27000101003C3F56
:100490003F36331B0901011E3F3F31180E07013C57
:1004A0003F3F36331B0900303F3F0F030000003051
:1004B000373700303737000F0F03000F0F0300C02E
:1004C000F03818FCF4F494CCFC7C3800000080C0B8
:1004D00040C0C000008080C040C0C0C0000080801C
:1004E000C040E0FCFE1F0383C3C08000C0C0C0004A
:1004F000000C8CC4FC78000327343E3F3F213F7F33
:10050000FEE08000BCBF3F36331B093C3F3F313823
:100510003F3F1F083C3E3F31183E3F1F1D0C01016D
:10052000018FFFFC3F0F033037370301000000004D
:1005300000000000000000000001010101000000B7
:1005400000000000000000000000000000000000AB
:100550000000000000060606030301000000000082
:10056000000000000000000000000000000000008B
:100570000000008000C000D0807000C090401000DB
:10058000000000000000000000000000000000006B
:10059000000000000000000000000000000000005B
:1005A000000000000000000000000000000080C803
:1005B000F8FC3C1C1F070D1D73A96B6692024000DE
:1005C000000000000000000000000000008080C06B
:1005D0000040C08060FE7DFB75AB16180008080067
:1005E00000000000800000C0E0E0C0F8FEFFFFFF58
:1005F000FFE0E0E0E0F0F0F0F0D800200020002084
:1006000000100010001000080004000200E1F8FFD4
:10061000000858AD17EEF5F6F5F7F8FCFCFCFCFC0D
:10062000FCFEFFFF1F070300030F0D0B0303030373
:1006300003030303010103030303070E1E346CD8F5
:10064000B060400000000000007884838083878FC2
:10065000EF9F8ECEBF8F8F8F8F8F8FBFCF8F9FE7F4
:100660008787839190E0007CFEC7FEFCC6FFFEFCFE
:10067000C0C0E0E0E0E0E0E0C0C080C062321C004A
:1006800000000101030F0F03030F0F030303030F08
:100690000F03030F0F00007CFEC7FEFCC6FFFEFC2D
:1006A000C0C0E0E0E0E0E0E0C0C080C0C0623C006C
:1006B0000000010103030F0F03030F0F03030707DC
:1006C000030307070300007CFEC7FEFCC6FFFEFC19
:1006D000C0C0E0E0E0E0E0E0C0C080800080F80062
:1006E000000001010303030F0F030F0F030F0F039C
:1006F000030F0F030101007CFEDFFEFCDEFFFEFCAA
:10070000C0C0E0E0E0E0E0E0C0C080C0C0623C000B
:1007100000000101030307070303070703030F0F8B
:1007200003030F0F0300001C3262C080C0C0E0E072
:10073000E0E0E0E0C0C0FCFEFFC6FCFEC7FE7C00BF
:10074000000F0F03030F0F030303030F0F03030F28
:100750000F0301010000003C62C0C080C0C0E0E0A7
:10076000E0E0E0E0C0C0FCFEFFC6FCFEC7FE7C008F
:10077000000307070303070703030F0F03030F0F0C
:1007800003030101000000F880008080C0C0E0E0A9
:10079000E0E0E0E0C0C0FCFEFFC6FCFEC7FE7C005F
:1007A0000101030F0F03030F0F030F0F030F0F03BD
:1007B000030301010000003C62C0C080C0C0E0E053
:1007C000E0E0E0E0C0C0FCFEFFDEFCFEDFFE7C00FF
:1007D00000030F0F03030F0F0303070703030707AC
:1007E000030301010000004D454F57007E9999FF1A
:1007F000FF99997E7E8DC9F99F93B17E7C47EDB9B3
:100800009DB7E23E3C66E79999E7663C3EE2B79DBC
:10081000B9ED477C7EB1939FF9C98D7E9048006405
:10082000800019904A0064800019904C0064800098
:1008300019904D0064800019904F00C880F0464F19
:100840005220324E44202341524455424F594A418E
:100850004D004F424E2D5930332056455220302EF8
:10086000303400C0C6CFDFFFFB73037CFEFFC7E35D
:10087000FF7F3E00FFFFFF1B1B1B03000303FFFF67
:10088000FF03030000000000000000808080800063
:10089000000000000000000000000080E0F058AC04
:1008A00056AB55AB5500FF01010102020408106070
:1008B0008000003FFFAA55AA55AA55AA55A85FACCB
:1008C0005CAC5CAC5CAC5C0CCF3C00000001030693
:1008D0000D1A152A252A252A252215120904020196
:1008E000000000FFFF57AB57AB57AB57AB03FF8080
:1008F0008080000000000000000000FFFF55AA55A6
:10090000AA55AA55AA00FF00000001010204083000
:10091000C000001F7FD5AA55AA55AA55AA54AF56A4
:10092000AE56AE56AE562E86671E0000000001037E
:10093000060D0A151215121512110A0904020100FA
:100940000000000000000000008080C0C0C0C08027
:100950008080000000000000000000C0F078AC566D
:10096000AB55AA55AA00FF0000000101020408309F
:10097000C00000FFFF55AA55AA55AA55AA00FFFEC0
:10098000AE56AE56AE56AE5607FE001F17151215E0
:100990001215121512101F17121512151215121515
:1009A000101F009045000A80F02D20434852492D29
:1009B000424F4343484920434154202D00004445C1
:1009C00043454D42455220323031370050524F4757
:1009D00052454D4D4544204259204F424F4E4F0005
:1009E00000544849532050524F4752414D204953DB
:1009F0000052454C454153454420554E4445520014
:100A0000544845204D4954204C4943454E53452EAA
:100A100000504C41592054494D45202000504C4134
:100A20005920434F554E5420005D20005B00424545
:100A300053542031302053434F524553004F4646C4
:100A4000004F4E0053544152542047414D450053EE
:100A50004F554E4420005245434F524400435245A7
:100A6000444954000000000000000000000004049D
:100A700004040A0A8A8ACACAB3919100000080E07D
:100A8000EEEF5349CDDEDFDFFF9FCEE6F2FAFEFE4A
:100A900001FEFFFFFFFFFFFFF9F0800000000000F4
:100AA0000000000000000080C040A060B058A854C2
:100AB000AAD6E2FAFCFFFFFFFFFF7F7F7E36B93F39
:100AC000A03FBF3F7F7F7F7F7E3DBB37B7579747B4
:100AD000A753A9000080C0C04858D0F0E0ECEEEE6B
:100AE000DC3DFAF5EA15AA536B3727171B0B0B0DE4
:100AF0000602020302050E75AA55BA7D7E3D8A558F
:100B0000AA55AA55AA55AA55AA55AA000000000C34
:100B1000060303390F0301030F0C00030300000059
:100B200000000000000000000000000000000000C5
:100B300007FDAA55BE7FBE1D8255AA55AA55AA55C6
:100B4000AA55AA00000000000040C08080000000FC
:100B5000000000C04080808000000000C0E02EEE59
:100B6000EEEEDEDEDCDDBCB9BA7972E5CA95AA55D7
:100B7000AA552A108FBFFFD7577FFFE0E03F3F8F76
:100B80008FBF3F3FF0F0FFFFFFDF575777FFFFFFBB
:100B9000FFFFFFFF7F7FFFFFFFDF07030100202034
:100BA00010101008080804040402020201010100E8
:100BB00000000000000000000000004141C3C589A2
:100BC00012326404090E080000E0FC7F0F3FF8FFBA
:100BD000FBF3FF7FB3DBDDFCFE7FBFCEF5FBFDFE4D
:100BE000FE7F3F1F0F0F07070303030303070707DA
:100BF00007070707070707337B7F7F7F3F1F070331
:100C000003010000000000010101000000000000DD
:100C100000000000000000000000000000000000D4
:100C20000000000000000000000000000000008044
:100C30008080C040A060A050B050B050A060A040E4
:100C4000C000808080E0FEFFFFFFFCF0C0C0C0C09D
:100C5000C0C0C0E0F8FEFEFEFCF08080C0C0C0E076
:100C6000E0C0C080000286FC7800000000000000A8
:100C700000000080808080808040404040404020D4
:100C800020200000000000C0B058AC56AA55AB555B
:100C9000AA55AA55AA55AA55AA55AA550AE5FAFD74
:100CA000FEFFFFFFFFFFFFFFFFFFFFFF7F7FFFFF55
:100CB000FFFFFFFFFFFFFFFFFFFFFFFFFFFFFFFF44
:100CC000FFFFFFFFFF7F0701808042424241212159
:100CD00021111110080808888484444242222221EC
:100CE00011100000904A001480F000000000003E47
:100CF0005B4F5B3E3E6B4F6B3E1C3E7C3E1C183C8C
:100D00007E3C181C577D571C1C5E7F5E1C00183CE7
:100D10001800FFE7C3E7FF0018241800FFE7DBE730
:100D2000FF30483A060E2629792926407F05050717
:100D3000407F05253F5A3CE73C5A7F3E1C1C080873
:100D40001C1C3E7F14227F22145F5F005F5F060938
:100D50007F017F006689956A606060606094A2FF91
:100D6000A29408047E040810207E201008082A1C83
:100D700008081C2A08081E101010100C1E0C1E0C4F
:100D800030383E3830060E3E0E06000000000000EF
:100D9000005F00000007000700147F147F14242A5E
:100DA0007F2A122313086462364956205000080730
:100DB0000300001C2241000041221C002A1C7F1C51
:100DC0002A08083E08080080703000080808080853
:100DD000000060600020100804023E5149453E00BA
:100DE000427F400072494949462141494D33181418
:100DF000127F1027454545393C4A49493141211167
:100E000009073649494936464949291E0000140058
:100E1000000040340000000814224114141414147B
:100E2000004122140802015909063E415D594E7CD9
:100E30001211127C7F494949363E414141227F418E
:100E400041413E7F494949417F090909013E4141EC
:100E500051737F0808087F00417F41002040413FD7
:100E6000017F081422417F404040407F021C027FE6
:100E70007F0408107F3E4141413E7F090909063E3B
:100E80004151215E7F09192946264949493203010A
:100E90007F01033F4040403F1F2040201F3F40381C
:100EA000403F631408146303047804036159494DF7
:100EB00043007F4141410204081020004141417F2D
:100EC00004020102044040404040000307080020A3
:100ED000545478407F2844443838444444283844A3
:100EE00044287F385454541800087E090218A4A4DA
:100EF0009C787F0804047800447D40002040403DF9
:100F0000007F1028440000417F40007C0478047872
:100F10007C080404783844444438FC182424181805
:100F2000242418FC7C080404084854545424040461
:100F30003F44243C4040207C1C2040201C3C40304E
:100F4000403C44281028444C9090907C4464544C7D
:100F500044000836410000007700000041360800D8
:100F600002010204023C2623263C1EA1A161123A82
:100F70004040207A385454555921555579412154CF
:100F8000547841215554784020545579400C1E52D4
:100F90007212395555555939545454593955545478
:100FA000580000457C410002457D420001457C40DF
:100FB000F0292429F0F0282528F07C5455450020FC
:100FC00054547C547C0A097F493249494932324899
:100FD000484832324A4848303A4141217A3A424000
:100FE0002078009DA0A07D39444444393D404040D4
:100FF0003D3C24FF2424487E4943662B2FFC2F2BA5
:10100000FF0929F620C0887E090320545479410045
:1010100000447D413048484A32384040227A007AC4
:101020000A0A727D0D19317D2629292F28262929A2
:10103000292630484D4020380808080808080808C4
:10104000382F10C8ACBA2F102834FA00007B0000EB
:1010500008142A142222142A14089500220095AAA2
:10106000005500AAAA55AA55AA000000FF001010BA
:1010700010FF00141414FF001010FF00FF1010F0F8
:1010800010F0141414FC001414F700FF0000FF000B
:10109000FF1414F404FC141417101F10101F101F59
:1010A0001414141F00101010F0000000001F101086
:1010B00010101F10101010F010000000FF10101082
:1010C000101010101010FF10000000FF140000FF9F
:1010D00000FF00001F10170000FC04F41414171088
:1010E000171414F404F40000FF00F714141414147B
:1010F0001414F700F7141414171410101F101F14F1
:101100001414F4141010F010F000001F101F000051
:10111000001F14000000FC140000F010F01010FF7D
:1011200010FF141414FF141010101F00000000F022
:1011300010FFFFFFFFFFF0F0F0F0F0FFFFFF0000F7
:10114000000000FFFF0F0F0F0F0F38444438447C9E
:101150002A2A3E147E02020606027E027E026355A1
:101160004941633844443C04407E201E2006027EF0
:10117000020299A5E7A5991C2A492A1C4C72017202
:101180004C304A4D4D303048784830BC625A463D6C
:101190003E494949007E0101017E2A2A2A2A2A4421
:1011A000445F444440514A444040444A5140000056
:1011B000FF0103E080FF000008086B6B0836123661
:1011C0002436060F090F0600001818000000101042
:1011D000003040FF0101001F01011E00191D171200
:1011E000003C3C3C3C0000000000060115012601CB
:1011F00037014A015D01720188019F01B801D201E6
:10120000EE010B022A024B026E029302BA02E402C2
:1012100010033F037003A403DC0317045504970471
:10122000DD0427057505C80520067D06E00649078B
:10123000B8072D08A9082D09B9094D0AEA0A900B2B
:10124000400CFA0CC00D910E6F0F5A1053115B1227
:1012500072139A14D41520178018F519801B231DBA
:10126000DE1EB420A622B524E4263429A72B402E66
:101270000031EA330037453ABC3D68414C456B4983
:10128000C84D68524F57805C00621011121315163A
:1012900017181A1C1D1F21232527292C2E313437FE
:1012A0003A3E4145494E52575C62686E757B838B6E
:1012B000939CA5AFB9C4D0DCE9F700000002000997
:1012C0000F0000030401000C0000000000000000FB
:1012D00000000000000000000003010000000024E6
:1012E0000027002A002D003000D5F08D1410A1C871
:1012F00081CFD9F1AF2000040802011040804010D6
:10130000204080408008020401804020100201102B
:1013100080102040402000000000250028002B0005
:101320002E00310004040404040304050202020236
:10133000040302020202060606060606040402026E
:101340000204041402130212021502070208020426
:10135000010C01060100C0F8FC1E0602FEFEF800AA
:10136000071F1F18181E0F07000000001018E8FCC8
:10137000FE1E02001010181E1F1F1110000000009A
:10138000080C86C2FE7E1C00101C1E1B19181C0CAB
:1013900000000000044662FEDE8E000018181018DF
:1013A0001C0F070300000080C0E030FCFEFE0E00B2
:1013B000020303021E1F1F030200000000383EE666
:1013C000E6C60703181810181C0F07030000C0E03A
:1013D000F8782CE6E6C20200071F1F18181F0F0737
:1013E000000000080E8EC6763E0E0602001C1E0F80
:1013F00001000000000000009CBCFEE2F21E0C0098
:101400000E1F1F10181F0F0700000078FCFE8682B9
:10141000FEFEF800101018180E0707010000080B58
:10142000000202020100090400000102020000059E
:1014300024001001052401010104240206052406EC
:1014400000010705810310004009040100020A00A1
:10145000000007050202400000070583024000006B
:101460000403090412010002EF0201404123368007
:1014700000010102030141726475696E6F204C4CDA
:10148000430041726475626F7900562511241FBEB6
:10149000CFEFDAE0DEBFCDBF11E0A0E0B1E0E6EAD9
:1014A000F4E502C005900D92A235B107D9F729E005
:1014B000A2E5B1E001C01D92AB3BB207E1F71AE033
:1014C000C6E4DAE004C02197FE010E945327C53428
:1014D000D107C9F70E94B6220C94512A0C9400003F
:1014E00088E7809326050895089580E090E00895A8
:1014F0000F931F93CF9390910505809155092091EB
:101500005609911171C090E080959095207830E057
:1015100082239323892B89F080910205882311F07F
:10152000815001C083E0809302056FEF83EA99E068
:101530000E944F1C81E0809306058091550990E040
:101540008095909520915609207130E08223932355
:10155000892B91F080910205833021F08F5F809379
:10156000020502C0109202056FEF83EA99E00E9423
:101570004F1C81E0809306058091550990E080958D
:101580009095209156092C7030E082239323892B6B
:10159000D9F180910205813089F054F481111FC086
:1015A0006091380582E090E00E94B126C1E018C049
:1015B000823081F0833099F482E00DC0C091010542
:1015C000C82719F00E94881702C00E947B17C09399
:1015D000010503C081E0809305050E941819C0E051
:1015E00081E08093060511C090E0809590952C7065
:1015F00030E082239323892B39F0109205050E9455
:10160000181981E080930605C0E00E94D9258C015D
:101610000E94E314012E000C220B330B602771276C
:1016200082279327611571058105910511F00E94AC
:1016300082268C2FCF911F910F9108951092E40470
:101640001092E0041092E1041092E2041092E3047C
:1016500088E790E09093DF048093DE0480E29CE1D1
:101660009093DD048093DC041092DB041092DA0482
:1016700060E08CE198E00C944F1C0F931F93CF9384
:10168000DF93109205051092020581E08093060514
:10169000C0913805CC2319F00E94881702C00E941F
:1016A0007B17C09301058091E604811161C080E43D
:1016B00093E090930805809307050E94F2186F3419
:1016C00072448E44934029F0EDEEF4E081E095E021
:1016D0003BC0C3E0D0E00BEE18E40E9405199C016A
:1016E0002C9FC0012D9F900D3C9F900D1124080F41
:1016F000191F2196C031D10581F70E9405190817DD
:10170000190711F784E493E0909308058093070587
:10171000CDEED4E00E9405198993999335E0C1304C
:10172000D307C1F70E9405199093EC048093EB0452
:101730000E94F2186093E7047093E8048093E90430
:101740009093EA0482E012C0119211928E179F07C3
:10175000D9F71092EC041092EB041092E704109267
:10176000E8041092E9041092EA0481E08093E60410
:10177000DF91CF911F910F9108958F929F92AF9219
:10178000BF92CF92DF92EF920F93CF93DF930E949D
:101790004D1E2091260588E790E0821B910968E2A2
:1017A00070E00E943F274B0183E8C82E88E0D82EC6
:1017B0009CE1A92EB12CC0E0D0E081E090E08C1635
:1017C0009D0611F080E090E02091E504289FB00193
:1017D000299F700D1124645F7F4FEE24E39400E293
:1017E00028E1A601C5010E94811C219688E1A80E6E
:1017F000B11C80E6C80ED11CC330D105F1F608E05B
:1018000020E243E658E06CE270E084E490E00E945D
:10181000811C80E190E090934E0980934D098AE30A
:1018200090E09093500980934F0962E578E089E356
:1018300095E00E94871B87E090E090934E0980938B
:101840004D091092500910924F096EE378E089E338
:1018500095E0DF91CF910F91EF90DF90CF90BF9007
:10186000AF909F908F900C94871BCF93809126050B
:1018700081508093260590E00F9763E070E00E940E
:101880003F278AE39AEAA3EEBEEE04C0B695A79579
:10189000979587956A95D2F7C82FC170C093E504D4
:1018A0006FEF70E08AE00E94E9196FEF70E08BE063
:1018B0000E94E9198FE7C89F802D11246FEF70E017
:1018C000681B710989E00E94E91981E09091260561
:1018D000911180E0CF9108952F923F924F925F92A5
:1018E0006F927F928F929F92AF92BF92CF92DF9230
:1018F000EF92FF920F931F93CF93DF93CDB7DEB795
:101900002F970FB6F894DEBF0FBECDBF6A30A1F49B
:10191000FC01E85EFB4F408132972081318156E027
:10192000459F200D311D112431832083DC01AC5EE5
:10193000BB4F1D921C92F0C020EE260F203408F001
:10194000EBC09F878E878C5E9B4F9E838D83FC01AF
:10195000008111812E853F85285E3B4F398728877E
:1019600000381105D4F0A885B9852C91422F50E09C
:10197000ED81FE8180819181F6E02F9F800D911D88
:101980001124AD81BE818D939C93EE85FF85E75E2A
:10199000FB4F20812111AAC0BFC0EE85FF85EA5E02
:1019A000FB4F208131813A83298320343105DCF6D5
:1019B000A885B9858C91482E512C9801B5E08B9F54
:1019C000200D311D112437FDCECF29813A81E6E06B
:1019D0008E9F200D311D112437FDC5CFEE85FF856B
:1019E000E55EFB4F7080EE85FF85E65EFB4F608015
:1019F00024E0629FF0011124E859FF4F85909590F3
:101A0000A590B490813019F536E0D32EE980FA80A4
:101A100026E0C22E80FC04C0761449F0272D01C0B8
:101A2000262DA701B8018E859F850E949617B69432
:101A3000A79497948794CA943FEFE31AF30AC110CE
:101A4000E9CFDA940F5F1F4FD110E0CF8CCF180190
:101A500056E05B8309811A8186E08C83D201A20D56
:101A6000B31DBD87AC8780FC04C0761461F17F8212
:101A700001C06F826101F201E00FF11FFB87EA876D
:101A80002C853D85C216D306F4F4780117FF02C0F9
:101A9000E12CF12C8A859B858134910514F080E43A
:101AA00090E0E816F9065CF42F81A701B6018E8557
:101AB0009F850E9496173FEFE31AF30AEBCF5FEF83
:101AC000C51AD50ADDCFB694A794979487948C81D4
:101AD00081508C83040D151D8111C5CF9B819150C0
:101AE0009B83240C351C9111B5CF3DCF6AEF640365
:101AF0009001659F300D112420583F4F281739075A
:101B00005CF4AE85BF85ED91FC9111970190F08159
:101B1000E02D6AE0CD01099581E090E02F960FB6A7
:101B2000F894DEBF0FBECDBFDF91CF911F910F9113
:101B3000FF90EF90DF90CF90BF90AF909F908F90ED
:101B40007F906F905F904F903F902F900895AF924D
:101B5000BF92CF92DF92EF920F93CF93DF9380915A
:101B6000D904882309F499C1C091D804CA3240F03D
:101B70008091E404813021F48091DE0480FF8DC1E6
:101B80000E944D1E80E090E00E94A61B8FE790E02F
:101B90000E94A61B80E490E05C01AC1AB108C8E585
:101BA000D4E0C12CD12CCA14DB0494F44981042E56
:101BB000000C550B6881062E000C770B21E089E3A1
:101BC00095E00E9496172FEFC21AD20A2296EBCF09
:101BD0008091E4048330E1F480915701882309F473
:101BE0004FC02091560130E02C50310930934E09FE
:101BF00020934D09869590E08E969093500980939E
:101C00004F0967EE77E089E395E00E94871B38C0B3
:101C1000C8E5D1E088E5C82E84E0D82E96E0A92E4C
:101C2000B12CE881F981F7FD26C0B6E0F595E7957E
:101C3000BA95E1F73497CF01B5010E943F27AC0177
:101C400003E0440F551F0A95E1F74451584F6A814C
:101C50007B8177FF02C0615C7F4FA6E07595679539
:101C6000AA95E1F764507109EE24E39408E028E0B6
:101C7000CF010E94811C2696CC16DD0691F6ACCFD2
:101C8000C0905601D12C8CE0C81AD108C0915501E2
:101C90008C2F807100E023E048E067E370E0F601FC
:101CA000E80FF11DCF010E94BB1BC695C695F0E35E
:101CB000CF9FA00111244959594FEE24E3940CE021
:101CC00028E164E370E0C6010E94811CC091E40435
:101CD000C11118C08091DE049091DF04C89700E222
:101CE00020E447E655E060E170E0880F991F0E940C
:101CF000811C03E128E34FEB54E060E070E084E2F4
:101D000090E04DC06091DA047091DB0440E082E025
:101D100090E00E94FD1D8091DC049091DD048031F3
:101D2000EEE09E070CF463C060E17EE00E943F2776
:101D30006C0140E08CE590E00E94FD1DEE24E394F0
:101D400004E024E047EB54E060E070E086E690E0D9
:101D50000E94811CC6016CE370E00E943F2742E0B4
:101D600084E790E00E94FD1DC130E1F48091DC0425
:101D70009091DD049C0125553640243B3105A0F5AA
:101D800087709927EE24E39404970CF0E12C0EE081
:101D900024E34FE454E060E170E086E290E00E94CA
:101DA000811C22C0C23009F062C0C091DE04D09113
:101DB000DF04CB3C21E0D207BCF1CE018A5C91402C
:101DC000880F991F6CE070E0681B790BEE24E39498
:101DD00000E220E84FE452E080E090E00E94811CA5
:101DE0008091540181112DC01092D90456C06CE32A
:101DF00070E00E943F276C0142E082E690E00E9482
:101E0000FD1DEE24E39404E028E047EB54E060E09D
:101E100070E08CE690E00E94811CC60166E070E0F4
:101E20000E943F2740E09CCFC53A81E0D80734F0BC
:101E3000BE0161707727645F7F4FC8CF6CE070E0B0
:101E4000C5CFCE0168E070E00E943F27049764F69A
:101E50008FE190E090934E0980934D098EE290E0DF
:101E60009093500980934F0963E472E011C0C3302E
:101E700009F0BACF81E390E090934E0980934D0929
:101E80008EE290E09093500980934F096DE372E0E9
:101E900089E395E00E94871BA7CFDF91CF910F9137
:101EA000EF90DF90CF90BF90AF9008952F923F9228
:101EB0004F925F926F927F928F929F92AF92BF925A
:101EC000CF92DF92EF92FF920F931F93CF93DF9306
:101ED0009091E4049330B9F48091550990E0809595
:101EE0009095209156092C7030E082239323892B02
:101EF00009F4A6C281E08093E4049EE1909353012B
:101F00008093D9049DC280915601911113C040E481
:101F100050E0481B510921E030E01416150614F07A
:101F200020E030E0952F991F9927991F291B31092F
:101F3000820F1FC09091560995FB442740F950E04D
:101F400096FD05C022273327241B350B04C021E052
:101F500030E0241B350B6901C80ED11CC6011816D0
:101F6000190634F48138910524F080E890E001C02E
:101F700080E080935601809155012115310539F09B
:101F80008F5F8F702130310519F4806101C080713D
:101F90008093550180915701882361F1815080938E
:101FA00057014091DC045091DD048091560190E48A
:101FB000899F300111244930D7E05D0724F0D2E039
:101FC0008D2E912C03C0C3E08C2E912C30915201A8
:101FD000C091D8046091DA047091DB04E8E5F1E087
:101FE000B12C212C2FE0322EA6E0AA2E412CBFE1ED
:101FF0005B2E4CC08091550990E080959095209182
:102000005609207130E082239323892B51F288E016
:102010008093570162E088EE91E00E944F1CC1CF8F
:10202000E280F3808481C80ED11C87FDDA94D182CE
:10203000C08225818701020F111D27FD1A95138388
:1020400002832F5F25839FEFC916D10409F024F581
:10205000C12CDD24D394D182C082DDEF8D02C0017A
:10206000112497FD0396959587959595879584837B
:10207000141615060CF07DC001158FE01807A4F4A6
:10208000369684E0E835F80709F47EC0DF01C080A9
:10209000D180D7FCF5CFC4CF91E0C9169FE1D90616
:1020A0003CF351824082D9CFE1149FE0F90608F059
:1020B00060C0E080F180C701861997096C01D0E803
:1020C000CD1ADDEFDD0AD1E0CD16D5E0DD0608F052
:1020D00050C097FDCF96D6E095958795DA95E1F7B4
:1020E000B48027FD2F5F259521954930D7E05D0706
:1020F00014F0049701C00897C12CD12C28521396D4
:102100003C922E9212971B2D180F14961C93149725
:102110008C0197FF04C000271127081B190B020F21
:1021200015960C931597DFEFCD1ADD0A0896C814A3
:10213000D904D4F4C7FDE3CF032F10E00F5F1F4F86
:102140000F771127302FA09ED001A19EB00D112432
:10215000A85ABE4F0D911C91119717FFEDCF119604
:10216000FC92EE92CF5FCBCF6F5F7F4FBB24B394D7
:1021700087CF013811410CF483CFCC24CA94DC2CD6
:10218000D182C082C1507CCF30935201C093D80419
:102190007093DB046093DA04BB2059F04930574058
:1021A0001CF080E092E002C08AEF91E063E00E94C0
:1021B0004F1C80E490E08C1B91091816190674F0EE
:1021C0008091DE049091DF0401979093DF04809367
:1021D000DE042091E4042223D9F157C0C8E5D4E0FD
:1021E00008ED14E0B3E0CB2ED12CE12CF12C82E0F1
:1021F000882E912CA12CB12C90E8492E512C612CC9
:10220000712C0E943426A70196010E94DC26DC0175
:10221000CB010197A109B1092881622F680F68835A
:102220000E943426A50194010E94DC268981680F52
:102230006983603444F00E943426A30192010E9415
:10224000DC266883198222960C171D07D1F6B8CFB9
:102250008C339105A9F480E090E19093590180932B
:10226000580180E098E090935B0180935A011092AE
:102270005C0180EC80935D0181E08093D804CCC048
:10228000892B09F0C9C081E045C1213009F04FC058
:102290008091DC049091DD04181619062CF4019746
:1022A0009093DD048093DC044091E0045091E104BC
:1022B0006091E2047091E3044F5F5F4F6F4F7F4F77
:1022C0004093E0045093E1046093E2047093E304CC
:1022D0008091D804811118C082E08093E404209199
:1022E000DA043091DB043093040520930305E1E028
:1022F000F5E0CAE0D0E0CE010197B291A291A21719
:10230000B30708F4A1C0A9C080915301811184C012
:102310008091550990E080959095209156092C70F8
:1023200030E082239323892B09F0F3C07CC0223054
:1023300009F072C08091530181116EC080915509DE
:1023400090E080959095209156092C7030E0822382
:102350009323892B09F0E1C066C08091EB04909132
:10236000EC040E94DF186091E7047091E80480910A
:10237000E9049091EA040E94CB18EDEEF4E023E02A
:1023800030E04BEE58E461917191269FC001279F88
:10239000900D369F900D1124480F591F2F5F3F4F0E
:1023A0002D30310581F7C090E704D090E804E0902B
:1023B000E904F090EA048091EB049091EC046DE064
:1023C000689F9001699F300D11246EE06C9DC001E3
:1023D0006D9D900D1124820F931F6FE06E9D9001F3
:1023E0006F9D300D1124820F931F840F951F0E9443
:1023F000DF1882E08093E60481E0C11180E08093E1
:10240000540180EE91E09093DF048093DE0461E05C
:1024100086E092E00E944F1C8091530118161CF434
:1024200081508093530181E08093D9048091E4042A
:10243000823031F48091DE049091DF04892B11F019
:1024400080E06EC081E06CC08930910521F0B383DB
:10245000A283009731F0EC014ECFCA30D10549F08C
:10246000CE01FC01EE0FFF1FE351FB4F31832083B0
:10247000EC018091EB049091EC0401969093EC04B4
:102480008093EB048091E7049091E804A091E90423
:10249000B091EA04480F591F6A1F7B1F4093E7045D
:1024A0005093E8046093E9047093EA048091E60491
:1024B000813061F480E493E09093080580930705F0
:1024C0006FE472E48EE493E00E94CB18CE018E5547
:1024D0009E4F880F991F8031910514F480E190E0A0
:1024E00090930805809307058E01000F111F03517B
:1024F0001B4F7E01EAE0EE16F10409F42ECFF8013D
:10250000819191918F010E94DF18FFEFEF1AFF0A6E
:10251000F1CF83E08093E4047FCF0E941E0B7CCF39
:10252000DF91CF911F910F91FF90EF90DF90CF90AF
:10253000BF90AF909F908F907F906F905F904F90E3
:102540003F902F9008958F929F92AF92BF92CF921B
:10255000DF92EF92FF92CF93DF93E8E5F1E08FEF08
:102560009FEF91838083369624E0E835F207C9F720
:102570001092D80410925201C8E5D4E080E8882E69
:10258000912CA12CB12C90E4C92ED12CE12CF12C52
:102590000E943426A50194010E94DC2668830E94D3
:1025A0003426A70196010E94DC266983229684E0E6
:1025B000C83DD80769F780EA80935601109255010B
:1025C00010925701DF91CF91FF90EF90DF90CF9065
:1025D000BF90AF909F908F900C941E0B2F923F92C4
:1025E0004F925F926F927F928F929F92AF92BF9223
:1025F000CF92DF92EF92FF920F931F93CF93DF93CF
:10260000CDB7DEB766970FB6F894DEBF0FBECDBF6D
:1026100080910605882309F4BDC10E944D1E80915A
:102620000505813009F495C060F0823009F0B0C131
:1026300008E010E089EAE82E89E0F82E9DEFD92E17
:102640007EC1EE24E39400E120E644E25CE060E039
:1026500070E080E290E00E94811C20E744E45BE0AF
:1026600060E170E088E090E00E94811C00E228E3D5
:1026700044E65AE060E270E080E090E00E94811C55
:1026800060910305709104056115710569F0109260
:102690004E0910924D091092500910924F0980E096
:1026A00090E04AE00E945C1E68E2E62EF12C74E4A1
:1026B000C72E7AE0D72E00E010E0B601CE010196D9
:1026C0000E948B2680910205082E000C990B801722
:1026D000910719F084E490E002C080E490E09093C8
:1026E0004E0980934D09F0925009E0924F09BE01C6
:1026F0006F5F7F4F89E395E00E94771B0196C80EBC
:10270000D91E0130110569F480910105811103C0C2
:102710006DE37AE002C061E47AE089E395E00E942B
:10272000871B0F5F1F4F26E0E20EF11C04301105DE
:1027300021F66091020536E06302B0011124685D64
:102740007F4F01E025E045E088E390E00E94BB1B5D
:102750001FC186E190E090934E0980934D0984E07B
:1027600090E09093500980934F096EE27AE089E3FC
:1027700095E00E94871BEDECF5E0808180618193FC
:1027800086E0ED34F807C9F74DEE242E44E0342EF0
:10279000C12CD12C7601C39404E010E0460191E0F5
:1027A000891A91083E8A2D8A260137013EE0A32E20
:1027B000B12CE9E08E16910419F486E090E002C095
:1027C00080E090E09801281B390B30934E0920934C
:1027D0004D09B0925009A0924F096CE27AE089E36A
:1027E00095E00E94871B4AE0C301B2010E945C1E73
:1027F00069E27AE089E395E00E94871BED89FE8912
:1028000061917191FE8BED8B80E090E04AE00E9437
:102810005C1EFFEF8F1A9F0A26E0A20EB11C3FEF4D
:10282000431A530A630A730A8CE2A816B10409F624
:10283000045C1F4F95E0C90ED11CE11CF11CEAE0BD
:102840002E0E311C0C37110509F0A8CFEDECF7E086
:102850002DE438E08081806181932E173F07D1F706
:1028600000E110E010934E0900934D0980E390E0E1
:102870009093500980934F096DE17AE089E395E0E8
:102880000E94871B6091EB047091EC0480E090E063
:102890004AE00E945C1E10934E0900934D0986E3A6
:1028A00090E09093500980934F0961E17AE089E3C9
:1028B00095E00E94871B6091E7047091E804809185
:1028C000E9049091EA0420E13EE040E050E00E94FB
:1028D0000E27CA01B9014AE00E945C1E6091E7041C
:1028E0007091E8048091E9049091EA042CE3C22EEF
:1028F000D12CE12CF12CA70196010E940E27CA01D0
:10290000B901A70196010E940E279F938F937F9391
:102910006F938BE491E09F938F938E010F5F1F4F16
:102920001F930F930E947227B80189E395E00E94DC
:10293000771B0FB6F894DEBF0FBECDBF29C0B7011D
:10294000CE0101960E948B2664E170E0CE010196D3
:102950000E949226382F2D2D2303C0011124805C64
:102960009F4F90934E0980934D0910935009009307
:102970004F09BE016F5F7F4F89E395E00E94771B8F
:102980000196E80EF91E0A5F1F4F08331105B9F6CC
:102990001092060566960FB6F894DEBF0FBECDBF47
:1029A000DF91CF911F910F91FF90EF90DF90CF902B
:1029B000BF90AF909F908F907F906F905F904F905F
:1029C0003F902F9008953FB7F8948091160590910D
:1029D0001705A0911805B091190526B5A89B05C04B
:1029E0002F3F19F00196A11DB11D3FBFBA2FA92F8E
:1029F000982F8827820F911DA11DB11DBC01CD010B
:102A000042E0660F771F881F991F4A95D1F70895F6
:102A10001F920F920FB60F9211242F933F938F9313
:102A20009F93AF93BF938091270590912805A09124
:102A30002905B0912A053091150523E0230F2D3784
:102A400020F40196A11DB11D05C026E8230F0296B2
:102A5000A11DB11D2093150580932705909328058E
:102A6000A0932905B0932A0580911605909117052A
:102A7000A0911805B09119050196A11DB11D809373
:102A8000160590931705A0931805B0931905BF91EB
:102A9000AF919F918F913F912F910F900FBE0F900B
:102AA0001F9018958FB12CB193B130E020953095DF
:102AB00020743327A90123E0559547952A95E1F71E
:102AC000292F30E0209530952071332735952795B3
:102AD00035952795242B8095807F822B089583B789
:102AE000817F83BF83B7816083BF889583B78E7FE3
:102AF00083BF0895E0912405F09125059081809190
:102B00002305892B8083E0912105F0912205908196
:102B100080912005809589238083E0912405F091A0
:102B200025059081809123058095892380830895D0
:102B3000E0912105F0912205908180912005892B5B
:102B40008083E0912405F0912505908180912305F3
:102B50008095892380830895CF92DF92EF92FF9230
:102B60000F931F93CF93E82FF0E0E752FD4EC491EF
:102B7000E62FF0E0603330F4E657FD4EE4910E2F7F
:102B800010E006C0EE0FFF1FE657FE4E05911491B0
:102B90006801E12CF12C60E074E284EF90E0A70181
:102BA00096010E94DC26BA01A90141505109610930
:102BB00071094115510581E06807710580F060E9F0
:102BC00070ED83E090E0A70196010E94DC26BA0137
:102BD000A901415051096109710983E001C081E0F7
:102BE000C130C9F0C33031F590919100987F892BA5
:102BF000809391005093990040939800109314058E
:102C00000093130581E0809312058091710082602A
:102C1000809371000FC090918100987F892B8093E1
:102C20008100509389004093880080916F008260FA
:102C300080936F00CF911F910F91FF90EF90DF90E5
:102C4000CF9008951F920F920FB60F9211248F9379
:102C50009F93AF93BF93EF93FF9380910D058823CC
:102C600009F447C08091090590910A05A0910B05D0
:102C7000B0910C05892B8A2B8B2B51F190911D055E
:102C8000E0911E05F0911F05808189278083809146
:102C9000090590910A05A0910B05B0910C05181635
:102CA00019061A061B0674F58091090590910A050C
:102CB000A0910B05B0910C050197A109B109809372
:102CC000090590930A05A0930B05B0930C051AC053
:102CD00010920D0580916F008D7F80936F00809121
:102CE0001D05E0911E05F0911F05908180958923B7
:102CF00008C090911D05E0911E05F0911F0580818F
:102D000089278083FF91EF91BF91AF919F918F9120
:102D10000F900FBE0F901F901895E82FF0E0E7522C
:102D2000FD4EE491E13019F0E33069F008958091AF
:102D30006F008D7F80936F0080911D05E0911E05CF
:102D4000F0911F0508C01092120580911A05E091BC
:102D50001B05F0911C05908180958923808308953F
:102D6000E0913405F0913505BF016F5F7F4F70939F
:102D70003505609334052491922F907F822F8F70B8
:102D8000903819F40E948D16EBCF903981F4329669
:102D9000F0933505E0933405FB0164919091320581
:102DA0008917F0F667FDDCCF0E94AC15D9CF903EB5
:102DB00049F48091360590913705909335058093BD
:102DC0003405CECF903F19F410923305089597FD46
:102DD000C7CF3296F0933505E0933405FB01A491FB
:102DE000B0E0B22B20911305309114050E943027DA
:102DF0006C507E4F8F4F9F4F28EE33E040E050E005
:102E00000E940E2720930E0530930F054093100566
:102E10005093110580910E0590910F05A09110051A
:102E2000B0911105892B8A2B8B2B61F481E090E006
:102E3000A0E0B0E080930E0590930F05A0931005DD
:102E4000B093110508951F920F920FB60F9211249F
:102E50002F933F934F935F936F937F938F939F93A2
:102E6000AF93BF93EF93FF9380911205882349F0AE
:102E700090911A05E0911B05F0911C05808189272E
:102E8000808380913305882329F180910E059091EC
:102E90000F05A0911005B0911105892B8A2B8B2B62
:102EA000C9F080910E0590910F05A0911005B09189
:102EB00011050197A109B10980930E0590930F05A3
:102EC000A0931005B0931105892B8A2B8B2B11F43D
:102ED0000E94B016FF91EF91BF91AF919F918F919A
:102EE0007F916F915F914F913F912F910F900FBE06
:102EF0000F901F90189510923805E4E6F0E080815D
:102F000088608083E5E6F0E08081886080830895B2
:102F1000E4E6F0E08081877F8083E5E6F0E0808171
:102F2000877F808381E0809338050895603871053C
:102F300028F54034510510F5DA0133E0B595A79531
:102F40003A95E1F7FD01F695FE2FEE27F795E79507
:102F5000477055276E0F7F1FFC01E60FF71F81E0BA
:102F600090E001C0880F4A95EAF7222319F094896E
:102F7000892B03C0809594898923848B08952F928F
:102F80003F924F925F926F927F928F929F92AF92F9
:102F9000BF92CF92DF92EF92FF920F931F93CF9346
:102FA000DF93CDB7DEB72A970FB6F894DEBF0FBE1A
:102FB000CDBF6A30A1F4FC01E85EFB4F408132973F
:102FC0002081318158E0459F200D311D112431832E
:102FD0002083DC01AC5EBB4F1D921C92C3C06D30E0
:102FE00009F4C0C09A8789878C5E9B4F9B838A8334
:102FF000FC010081118129853A85285E3B4F3D8384
:103000002C8300381105D4F0AC81BD812C91422F66
:1030100050E0EA81FB8180819181F6E02F9F800D55
:10302000911D1124AA81BB818D939C93E985FA851A
:10303000E75EFB4F2081211167C094C0E985FA85C6
:10304000EA5EFB4F60807180B0E46B167104E4F6B9
:10305000EC81FD814080C801F5E04F9E800D911DFF
:1030600011241816190684F6242C312CC30128E0EB
:10307000429E800D911D1124181619062CF6A5E00C
:103080006A9FC001112498878F83E12CF12CB5E051
:10309000EB1641F0EF81F885EE0DFF1DE651F34F81
:1030A000549001C0512C6301E8E0E983F52DF170E3
:1030B000FE8358018A2D801B8415A0F44601882DBB
:1030C0008C19841558F42E81A401B50189859A853F
:1030D0000E9496172FEF821A920AF1CF3FEFA31AA0
:1030E000B30AE8CF5694598151505983C20CD31C6E
:1030F0005111DCCF8FEFE81AF80A020D131D96E08C
:10310000E916F10421F680CF6AEF64039001659F10
:10311000300D112420583F4F281739071CF5A98579
:10312000BA85ED91FC9111970190F081E02D6AE054
:10313000CD012A960FB6F894DEBF0FBECDBFDF914A
:10314000CF911F910F91FF90EF90DF90CF90BF90A4
:10315000AF909F908F907F906F905F904F903F9037
:103160002F9009942A960FB6F894DEBF0FBECDBFFC
:10317000DF91CF911F910F91FF90EF90DF90CF9053
:10318000BF90AF909F908F907F906F905F904F9087
:103190003F902F900895AB01BC01F999FECF80912B
:1031A0000705909108050E94BF2680910705909120
:1031B0000805049690930805809307050895F999EA
:1031C000FECFBC0180910705909108050E94C7269B
:1031D00080910705909108050296909308058093C9
:1031E00007050895CF93DF93F999FECFC0910705A6
:1031F000D0910805CE010E94A5262496D0930805FB
:10320000C0930705DF91CF910895CF93DF93F9998C
:10321000FECFC0910705D0910805CE010E94AB26D4
:103220002296D0930805C0930705DF91CF910895AA
:103230006FEF84EE9CE00C944F1CCF92DF92EF92E4
:10324000FF920F931F93CF93DF936C017A018B0151
:10325000C0E0D0E0CE15DF0581F0D8016D918D0181
:10326000D601ED91FC910190F081E02DC601099508
:10327000892B11F02196EECF7E01C701DF91CF910E
:103280001F910F91FF90EF90DF90CF900895362F10
:1032900090E0FC01E654FD4E4491FC01E950FD4EE6
:1032A0002491FC01EC5DFC4E8491882309F452C00A
:1032B0004423E1F150E0FA013197EF30F105B0F528
:1032C000EA5AFF4F0C945327909180009F7707C0D4
:1032D000909180009F7D03C090918000977F909394
:1032E000800024C094B59F7702C094B59F7D94BDA3
:1032F0001DC0909190009F7707C0909190009F7D96
:1033000003C090919000977F909390000FC0909190
:10331000C0009F7703C09091C0009F7D9093C00034
:1033200005C09091C200977F9093C200E82FF0E013
:10333000EE0FFF1FEA5EFC4EA591B4919FB7F89483
:10334000311104C08C912095282302C0EC912E2BC2
:103350002C939FBF0895CF93DF9390E0FC01E95039
:10336000FD4E2491FC01EC5DFC4E8491882361F1BB
:1033700090E0880F991FFC01E552FD4EC591D49154
:10338000FC01EA5EFC4EA591B491611109C09FB7A2
:10339000F8948881209582238883EC912E230BC09A
:1033A000623061F49FB7F8948881322F309583237F
:1033B0008883EC912E2B2C939FBF06C08FB7F89477
:1033C000E8812E2B28838FBFDF91CF9108950E9433
:1033D0006D271F93CF93DF93182FEB0161E00E94BD
:1033E000AB19209711F460E004C0CF3FD10539F448
:1033F00061E0812FDF91CF911F910C944719E12F4C
:10340000F0E0E654FD4EE4918E2F90E0FC01319700
:10341000EF30F10508F06CC0EB59FF4F0C945327C7
:1034200084B5806884BDC7BD68C084B5806284BD32
:10343000C8BD63C080918000806880938000D09375
:103440008900C093880059C0809180008062809379
:103450008000D0938B00C0938A004FC08091800081
:10346000886080938000D0938D00C0938C0045C00D
:1034700080919000806880939000D0939900C093D1
:1034800098003BC080919000806280939000D09320
:103490009B00C0939A0031C0809190008860809317
:1034A0009000D0939D00C0939C0027C08091C000E5
:1034B00080688093C0008091C0008F7B8093C000A3
:1034C000C093CF001AC08091C00080628093C0007A
:1034D000C093D00012C08091C20088608093C20067
:1034E0008091C2008B7F8093C200C093D20005C040
:1034F000C038D1050CF07CCF76CFDF91CF911F91F2
:1035000008958F929F92AF92BF92CF92DF92EF92E7
:10351000FF926B017C010E94E3144B015C01C1141A
:10352000D104E104F104F1F00E94E314DC01CB01C9
:1035300088199909AA09BB09883E9340A105B105DC
:1035400070F321E0C21AD108E108F10888EE880E74
:1035500083E0981EA11CB11CC114D104E104F10444
:1035600019F7DDCFFF90EF90DF90CF90BF90AF9035
:103570009F908F9008952FB7F89483E08093E9008F
:103580009091E800892F807295FF04C09091F2001D
:1035900080E4891B2FBF0895CF93DF931F92CDB78F
:1035A000DEB76983DC01ED91FC910280F381E02DAF
:1035B00041E050E0BE016F5F7F4F09950F90DF91B2
:1035C000CF91089583E08093E9008091F2008823F1
:1035D00019F08AE38093E80008950E94BB1A90E0F6
:1035E00008958F929F92AF92BF92CF92DF92EF9207
:1035F000FF920F931F93CF93DF936C017B018A019E
:1036000080910701882309F45CC0809131058823EB
:1036100009F457C080912F0580FF05C08091E0001C
:1036200082608093E000E801B12C8AEFA82E93E03D
:10363000892E2AE3922E209711F4BB20D9F10E9403
:10364000BB1A81110AC0AA94AA20D9F161E070E0E6
:1036500080E090E00E94811AEECF282F30E0C21760
:10366000D3070CF48C2F9FB7F8948092E900209137
:10367000E80025FF1DC0282F30E0C21BD30BF70147
:10368000815020F041914093F100FACFE20EF31EF9
:10369000BB2019F09092E8000AC08091E80085FDF7
:1036A00007C09092E800BB24B394209709F0B12C96
:1036B0009FBFC1CF5D9884E680932E05101611063A
:1036C00044F081E090E0F6019383828380E090E013
:1036D00001C0C801DF91CF911F910F91FF90EF9032
:1036E000DF90CF90BF90AF909F908F90089561151D
:1036F000710551F0FB0101900020E9F73197AF010E
:10370000461B570B0C941D1980E090E00895EF9232
:10371000FF920F931F93CF93DF938C017B01C0E047
:10372000D0E0F701EC0FFD1F6491662339F0C8016A
:103730000E946C0C892B11F02196F3CFCE01DF9102
:10374000CF911F910F91FF90EF90089580389105D0
:1037500088F4FC01E35BFA4F90E48FEF2081822B29
:1037600080839850E058FF4F992321F09830ACF7B0
:103770008FE7F4CF0895EF92FF920F93CF93DF93EB
:10378000FC0197FF0DC0842F90E0AA27BB27AE1B3A
:10379000BF0BA817B9070CF07CC04E0FE0E0F0E0BB
:1037A00077FF0FC0AA27BB27A61BB70B822F022EBD
:1037B000000C990BA817B9070CF06BC0260F60E03E
:1037C00070E0442309F465C0E038F1050CF061C0F5
:1037D00012160CF05EC0603471050CF05AC0CF01B7
:1037E000840F911D8138910514F040E84E1BCB01E8
:1037F000820F911D27FD9A958134910514F020E4E4
:10380000261B862F87709FEF082E01C0990F0A9400
:10381000EAF7280F681B710977FF02C0695F7F4FC5
:1038200083E0759567958A95E1F77695762F6627FB
:10383000779567956E0F7F1F635B7A4FA8E0B0E0C6
:10384000CFEFD0E012162CF5283064F4FD01E21B16
:10385000F10927FDF3957E0102C0F594E794EA95FE
:10386000E2F79E2101110DC09095FB01842F30815C
:10387000392331938150D9F7285060587F4F9FEFFB
:10388000E1CFFB01842F3081392B31938150D9F75F
:10389000F3CFDF91CF910F91FF90EF9008950F93A9
:1038A0001F93CF93DF9320913805222329F1162F00
:1038B000EC0180913305882381F0809157098617A8
:1038C000D8F000E080913205081728F4802F0E947C
:1038D0008D160F5FF7CF1092330510935709D093D1
:1038E0003705C0933605D0933505C09334050E9443
:1038F000B01681E080933305DF91CF911F910F9136
:1039000008952F923F924F925F926F927F928F9283
:103910009F92AF92BF92CF92DF92EF92FF920F935E
:103920001F93CF93DF93CDB7DEB72F970FB6F894E1
:10393000DEBF0FBECDBFEB82E22EF12CFF86EE86FE
:103940009701280F391F37FD3FC1803891050CF0D2
:103950003BC19B01200F311D37FD36C1603471051D
:103960000CF032C1DB0177FF04C0AA27BB27A61BDE
:10397000B70BA770BB279B0177FF02C0295F3F4FA2
:10398000E3E035952795EA95E1F777FF08C02150E8
:10399000310968E070E0FB01EA1BFB0BDF01E02F5F
:1039A000E695E695E695F0E0077009F03196B901E5
:1039B0007695762F662777956795680F791F675CF0
:1039C0007A4F7F01E20EF31EFF82EE82C12CD12CD2
:1039D000E8E0F0E08F010A1B1B0B1D830C83EE80D7
:1039E000FF80E216F30609F4EFC02830310509F430
:1039F000EBC02F3F0FEF30070CF4D9C08B010C56F2
:103A00001F4F1A830983045111095B014B013B01CC
:103A10002C01180119861886EE84FF84E885F98543
:103A2000EE15FF050CF0C3C0F0E84F16510409F481
:103A3000BEC057FCA0C02F3FEFEF3E0709F4C0C047
:103A4000E884F984EC0CFD1CFB81F130A9F4F7014A
:103A5000E40FF51FE491EE2EF12CF7010A2E02C0BF
:103A6000EE0FFF1F0A94E2F7FB87EA87F401E48870
:103A7000FA85EF2AF4012CC0FB81F11116C0F70181
:103A8000E40FF51FE491F0E00A2E02C0EE0FFF1FD5
:103A90000A94E2F77F01E094F094FB86EA86F50150
:103AA000E488FA85EF22F50113C0F701E40FF51F52
:103AB000E491F0E07F010A2E02C0EE0CFF1C0A9494
:103AC000E2F7FB86EA86F301E488FA85EF26F30144
:103AD000E48A109709F44FC02730310509F44BC030
:103AE000E884F984EC0CFD1CFB81F130B9F4F7019A
:103AF000E40FF51FE491F0E07F010C8002C0F59423
:103B0000E7940A94E2F7FB86EA86E981FA81E0808D
:103B1000FA85EF2AE981FA81E0822DC0FB81F1115B
:103B200016C0F701E40FF51FE491F0E00C8002C02D
:103B3000F595E7950A94E2F77F01E094F094FB860F
:103B4000EA86F801E488FA85EF22F80113C0F7014C
:103B5000E40FF51FE491F0E07F010C8002C0F594C2
:103B6000E7940A94E2F7FB86EA86F101E488FA8595
:103B7000EF26F101E48AE885F9853196F987E8872F
:103B8000E981FA813196FA83E9830F5F1F4FFFEFD6
:103B90002F1A3F0AEFEF4E1A5E0AFFEF6F1A7F0AE5
:103BA000EFEF8E1A9E0AFFEFAF1ABF0A35CF2F5FD5
:103BB0003F4F60587F4FEE84FF84CE0CDF1C0FCF49
:103BC000109709F08DCFD7CF2F960FB6F894DEBFA0
:103BD0000FBECDBFDF91CF911F910F91FF90EF905E
:103BE000DF90CF90BF90AF909F908F907F906F901D
:103BF0005F904F903F902F900895AF92BF92CF92D9
:103C0000DF92EF920F931F93CF93DF935C018B01B1
:103C1000C42ED12C6A30710594F0CB016AE070E0BB
:103C20000E943F275BEF96015203C001539F900D06
:103C300011248A0D9B1D0E94FD1DEC0102C0C0E0F5
:103C4000D0E0C8016AE070E00E943F2724E1289F8D
:103C5000A001299F500D11244A5A5C4EEE24E39492
:103C60000EE02AE060E070E0C5018C0F9D1F0E940D
:103C7000811C2A962BEFA6012403C001259F900DDD
:103C800011248C0F9D1FDF91CF911F910F91EF9009
:103C9000DF90CF90BF90AF90089520E08DE495E045
:103CA000B22FB111BFEFFC010024B193B193B193D6
:103CB000B1930394D1F708958F929F92AF92BF92E0
:103CC0000F931F93CF93DF93CDB7DEB7A1970FB6B6
:103CD000F894DEBF0FBECDBF19A2423008F44AE00F
:103CE0008E010F5D1F4F842E912CA12CB12CA501AC
:103CF00094010E940E27E62FB901CA010150110953
:103D0000EA3014F4E05D01C0E95CD801EC93232BA8
:103D1000242B252B61F7B80189E395E00E94771BDE
:103D2000A1960FB6F894DEBF0FBECDBFDF91CF9145
:103D30001F910F91BF90AF909F908F900895209109
:103D40003105211103C08FEF9FEF08955FB7F894FD
:103D500022E02093E9002091F20030E012161306D1
:103D600014F421E030E0422FFC0184E6415038F0A9
:103D70002898809330059091F1009193F7CF211509
:103D8000310521F08091F200882319F05FBFC9014D
:103D900008958BE68093E800F9CF80915D09811149
:103DA0000DC082E08093590984E080935A091092F3
:103DB0005C0910925B0981E080935D0989E599E0D7
:103DC0000895FC018485958597FD0BC09FB7F894F5
:103DD00082E08093E9008091F2009FBF90E001961D
:103DE00008959FB7F89482E08093E9008091F200F3
:103DF0009FBF90E008954091B8095091B909209172
:103E0000B6093091B70942175307B4F49091E8000E
:103E10009570E1F39091E80092FD19C08093F10054
:103E20008091B8099091B90901968F739927892BD0
:103E300019F48EEF8093E8008091B8099091B90948
:103E400001969093B9098093B80981E0089580E0C4
:103E50000895DF92EF92FF920F931F93CF93DF931A
:103E6000D82EF92EE42E062F10E0C8010196880FF7
:103E70000E94FB1E83E00E94FB1ECD2DDF2D0C0F48
:103E80001D1FC017D10789F0E7FE03C0FE01849112
:103E900001C088810E94FB1EF82E80E00E94FB1E5C
:103EA0008F2121968111EDCF01C081E0DF91CF916B
:103EB0001F910F91FF90EF90DF900895DF92EF92A6
:103EC000FF920F931F93CF93DF93D82E8A017B012C
:103ED000E40EF51EEB01CE15DF0571F0D7FE03C031
:103EE000FE01849101C088810E94FB1E21968111F0
:103EF000F2CF8FEF9FEF01C0C801DF91CF911F91EB
:103F00000F91FF90EF90DF900895615030F0209175
:103F1000F100FC0120830196F8CF289884E6809375
:103F2000300508950F931F93CF93DF931F92CDB762
:103F3000DEB78C01FC018485958597FF0EC0CE010C
:103F400001960E949F1E019719F4898190E002C09A
:103F50008FEF9FEFF80195878487F8018485958519
:103F60000F90DF91CF911F910F910895CF93DF9321
:103F70001F92CDB7DEB7FC018485958597FD05C0FE
:103F80002FEF3FEF358724870BC0CE0101960E94AB
:103F90009F1E019719F4898190E002C08FEF9FEF77
:103FA0000F90DF91CF9108950F931F93CF93DF93DD
:103FB0001F92CDB7DEB782E0898342E450E06EE124
:103FC00074E180E80E945E1F0E94CD1EDC01129603
:103FD0000D911C9113970115110589F0D801ED91F0
:103FE000FC910280F381E02DBE016F5F7F4FC8011D
:103FF000099597FD04C0F80100851185ECCF8981F2
:104000000F90DF91CF911F910F9108951F920F9202
:104010000FB60F9211248F939F938091E10090919E
:10402000E100937F9093E10083FF0FC01092E900BD
:1040300091E09093EB001092EC0092E39093ED00EE
:104040001092310598E09093F00082FF20C093E039
:104050009093E9009091F200992319F09AE39093DC
:10406000E80090912E05992339F090912E059150FA
:1040700090932E05992389F190913005992339F079
:1040800090913005915090933005992341F184FF30
:1040900010C08091E2008E7E81608093E20080916A
:1040A000E1008F7E8093E10080912F058E7E8061FC
:1040B00011C080FF16C08091E2008E7E80618093E7
:1040C000E2008091E1008E7E8093E10080912F05D7
:1040D0008E7E816080932F0504C05D9ACDCF289A93
:1040E000D6CF9F918F910F900FBE0F901F90189574
:1040F0001F920F920FB60F921124CF92DF92EF9280
:10410000FF920F931F932F933F934F935F936F9360
:104110007F938F939F93AF93BF93EF93FF93CF932F
:10412000DF93CDB7DEB76C97DEBFCDBF1092E9004D
:104130008091E80083FFFBC168E0CE0145960E94B4
:10414000851F82EF8093E8008D8987FF05C09091DD
:10415000E80090FFFCCF03C09EEF9093E800982FFB
:10416000907609F0C6C09E894F89588D2F89F88CAA
:1041700091110CC0803829F48091B5098093F10029
:1041800002C01092F1001092F10045C1913051F43B
:10419000811141C14130510509F03DC18091B509FE
:1041A0008D7F0BC0933061F4811135C141305105D1
:1041B00009F031C18091B50982608093B5092BC1A6
:1041C000953049F48091E80080FFFCCF822F806811
:1041D0008093E30020C1963009F05EC00B8D1C8DEA
:1041E00022E01092E9001092B9091092B809F21277
:1041F00032C01092B7091092B6090E94D41F99E0FC
:10420000BE016F5F7F4FDB01E92F1D92EA95E9F751
:104210009983FA8291E09E8390EA98879AEF998732
:104220002091B8093091B909275F3F4F3C832B8318
:104230008D831092E9001092B9091092B809109379
:10424000B7090093B60949E050E080E00E945E1F84
:104250000E94D41FE0C01093B7090093B6090E94D2
:10426000CD1EDC0112960D911C91139701151105BD
:1042700009F4BBC0D801ED91FC910480F581E02DDB
:10428000BE016B5E7F4FC8010995009709F0C7C05A
:10429000F80100851185EACF973009F445C19830BF
:1042A00021F481E08093F100B6C0993009F0B3C0E9
:1042B000837009F039C1E5E4F1E081E031E096E393
:1042C0002081211109C08EE78093EA001092EA0054
:1042D0008F89809331059FC08093E9003093EB0074
:1042E00021912093EC009093ED008F5F873041F790
:1042F000EACF8B8D9C8D1092E9001092B909109233
:10430000B8099093B7098093B609898D811153C07C
:104310008E899D89913A49F4813209F005C147E0BF
:1043200050E060E071E080E0BBC0913209F0FCC079
:10433000833269F48F89988DA0E0B0E08093080102
:1043400090930901A0930A01B0930B0164C08032DD
:1043500069F48091E80082FFFCCF67E080E091E0A3
:104360000E94851F8BEF8093E80055C0823209F0D0
:1043700052C08F8980930701EEEFFFE785919491FA
:104380008B3F9C4D19F0E0E0F8E002C0EEEFFAE060
:104390008091000190910101A0910201B09103016F
:1043A000803B9440A105B10509F09EC080910701B2
:1043B00080FF79C099C00E94CD1EFC01028113814B
:1043C0000115110509F4B0C0D801ED91FC910190DF
:1043D000F081E02DBE016B5E7F4FC8010995811110
:1043E0001AC0F80100851185EBCFF1E0FF1609F442
:1043F0004EC0F3E0FF1298C08F89882309F44AC0A9
:10440000823089F440E867E082E894E10E94291F45
:10441000882309F489C08EEF8093E80088C01816BD
:104420001906CCF381C0813029F440E86BE086E7BF
:1044300094E1ECCF833009F077C00E94CD1EDC01FF
:104440001296ED90FC9013978E010F5F1F4F68013D
:10445000E114F10479F0D701ED91FC910680F78128
:10446000E02DB801C7010995080F111DF701E0847F
:10447000F184EECFD8011C92F60101900020E9F7FB
:104480003197BF016C197D0940E0C601BFCF64E6DA
:1044900074E102C060E674E1FB01449150E080E801
:1044A0000E945E1FB8CFEE3F2AE0F20751F08081F4
:1044B00091818737A7E79A0721F09093FF0A8093AD
:1044C000FE0A87E797E7918380838091600080935D
:1044D000BA099BE088E10FB6F894A8958093600034
:1044E0000FBE9093600097CF808191818737974767
:1044F00009F091CFA8958091600088618093600059
:104500008091BA0980936000EE3FBAE0FB0739F072
:104510008091FE0A9091FF0A918380837CCF109254
:10452000FF0A1092FE0A77CF81E28093EB006C962F
:104530000FB6F894DEBF0FBECDBFDF91CF91FF91D4
:10454000EF91BF91AF919F918F917F916F915F910B
:104550004F913F912F911F910F91FF90EF90DF901E
:10456000CF900F900FBE0F901F901895789484B540
:10457000826084BD84B5816084BD85B5826085BD5F
:1045800085B5816085BD80916E00816080936E00ED
:1045900010928100809181008260809381008091DF
:1045A0008100816080938100809180008160809390
:1045B00080008091910082608093910080919100B1
:1045C0008160809391008091900081608093900041
:1045D0008091C10084608093C1008091C10082609D
:1045E0008093C1008091C10081608093C10080915F
:1045F000C30081608093C3008091C000826080937B
:10460000C0008091C20081608093C20080917A00D6
:10461000846080937A0080917A00826080937A002F
:1046200080917A00816080937A0080917A0080681E
:1046300080937A00109231051092B50910922F05DF
:104640008091D70081608093D70080EA8093D80062
:1046500089B5806189BD89B5826089BD09B400FED4
:10466000FDCF61E070E080E090E00E94811A8091CF
:10467000D8008F7C80618093D8008091E000807F9B
:104680008093E0008091E1008E7E8093E1008DE0D8
:104690008093E200559A209ACFB7F89480912B0529
:1046A000811127C0E5E3F3E18491E8E0F3E194911F
:1046B000E82FF0E0EE0FFF1FE552FD4EA591B491FB
:1046C000EC91E92321F461E081E10E94471961E066
:1046D00081E10E94AB198CB580618CBD8CB5806482
:1046E0008CBD61E08FE00E94AB1961E080E10E9427
:1046F000AB1980912B058F5F80932B05CFBFC3E44F
:10470000D3E1FE018491229631966491882319F0B9
:104710000E94AB19F6CF61E086E00E94471961E084
:1047200070E080E090E00E94811A60E086E00E94E4
:1047300047196AE070E080E090E00E94811A61E031
:1047400086E00E944719E0E3F3E1E491F0E0EE0F28
:10475000FF1FEA5EFC4E859194919093250580930E
:104760002405E3E0F3E1E491E0932305E8E2F3E1DB
:10477000E491F0E0EE0FFF1FEA5EFC4E859194910C
:104780009093220580932105EBEFF2E1E491E09311
:1047900020058CB58C7F8CBD8DB581608DBD0E9450
:1047A0007A15E9EEF2E187EF92E18E179F0749F063
:1047B00024912EBD00000DB407FEFDCF2EB531961D
:1047C000F4CF0E949815809164008160809364000A
:1047D00080916400826080936400809164008068AE
:1047E0008093640080916400806480936400809171
:1047F00065008160809365000E94521587FF22C08A
:104800000E947A1585EA8EBD00000DB407FEFDCF2B
:104810008EB50E94981560E070E08AE00E94E91968
:1048200060E070E08BE00E94E91960E070E089E0F0
:104830000E94E919809164008062809364000E9464
:104840006F15FDCF80913205823009F45FC0E82FEB
:10485000F0E0E752FD4EC4918F5F8093320561E036
:1048600085E00E94AB19C13019F0C33019F14EC078
:104870001092800010928100809181008860809366
:10488000810080918100816080938100E9E2F3E101
:10489000E491F0E0EE0FFF1FEA5EFC4E85919491EB
:1048A00090931F0580931E05ECEFF2E1E491E093F5
:1048B0001D052CC0109290001092910080919100E3
:1048C0008860809391008091910081608093910035
:1048D000E9E2F3E1E491F0E0EE0FFF1FEA5EFC4E47
:1048E0008591949190931C0580931B05ECEFF2E168
:1048F000E491E0931A0580913205882321F06CE35E
:1049000080E00E94AC1580E00E948D1661E08DE091
:104910000E94AB1982E090E00E949D26882349F016
:1049200080916500877F8093650081E080933805E2
:1049300007C01092380580916500886080936500FB
:104940008CE380933F0580E18093420588E7809364
:10495000260516E0C0E0D0E001E02FB7F894809182
:10496000270590912805A0912905B0912A052FBF10
:1049700020914B05222391F020914305F82FF21B43
:10498000F0934C0520914005309141052F5F3F4F3A
:10499000309341052093400510924B054091470507
:1049A000509148056091490570914A058417950713
:1049B000A607B7073CF4481B423008F471C00E94B8
:1049C0006F156EC020914205AC01BD01420F511D13
:1049D000611D711D4093470550934805609349053B
:1049E00070934A058093430590934405A093450531
:1049F000B093460500934B05809156098093550965
:104A00000E9452158093560980912C0590912D0596
:104A1000189FF001199FF00D1124EC5EFE4F0280EB
:104A2000F381E02D0995F82E80912C0590912D05AC
:104A3000189FF001199FF00D1124EC5EFE4F0480C9
:104A4000F581E02D099580914D058EBDEEE4F5E0F0
:104A500081910DB407FEFDCF8EBD39E0ED34F30733
:104A6000B9F70DB407FEFDCFFF20D1F080912C05E2
:104A700090912D05019719F081E090E002C082E04D
:104A800090E090932D0580932C05189FF001199FBD
:104A9000F00D1124EC5EFE4F0190F081E02D0995A0
:104AA000209709F45ACF0E94000057CFE5E6F9E0BD
:104AB0001382128288EE93E0A0E0B0E084839583B5
:104AC000A683B7838AE291E0918380838FEF9FEF83
:104AD00095878487E9E3F5E0138212828CE386836D
:104AE00080E181871086178216861786108A118AC0
:104AF000128A10924E0910924D091092500910928C
:104B00004F0981E0809351092CE331E03183208308
:104B1000809353091092540908958F929F92AF92F7
:104B2000BF92CF92DF92EF92FF92CF93DF93EC018F
:104B3000688179818A819B81611571058105910563
:104B400021F464E279ED8BE597E02DE133EF41E06C
:104B500050E00E94DC2649015A019B01AC01A7EA02
:104B6000B1E40E94FB266B017C01ACEEB4EFA50121
:104B700094010E940927DC01CB018C0D9D1DAE1D07
:104B8000BF1DB7FF03C00197A109B048888399836F
:104B9000AA83BB839F77DF91CF91FF90EF90DF9047
:104BA000CF90BF90AF909F908F9008950E948D25D9
:104BB00008958CE091E00E948D250895A0E0B0E07A
:104BC00080930C0190930D01A0930E01B0930F01FF
:104BD00008958F929F92AF92BF92CF92DF92EF9201
:104BE000FF92CF93DF93EC01688179818A819B8169
:104BF000611571058105910521F464E279ED8BE57C
:104C000097E02DE133EF41E050E00E94DC264901BE
:104C10005A019B01AC01A7EAB1E40E94FB266B019B
:104C20007C01ACEEB4EFA50194010E940927DC01E0
:104C3000CB018C0D9D1DAE1DBF1DB7FF03C001979D
:104C4000A109B04888839983AA83BB83BC01CD01A5
:104C50009F77DF91CF91FF90EF90DF90CF90BF9043
:104C6000AF909F908F9008958F929F92AF92BF9236
:104C7000CF92DF92EF92FF9260911001709111013B
:104C800080911201909113016115710581059105C3
:104C900021F464E279ED8BE597E02DE133EF41E01B
:104CA00050E00E94DC2649015A019B01AC01A7EAB1
:104CB000B1E40E94FB266B017C01ACEEB4EFA501D0
:104CC00094010E940927DC01CB018C0D9D1DAE1DB6
:104CD000BF1DB7FF03C00197A109B0488093100121
:104CE00090931101A0931201B0931301BC01CD0167
:104CF0009F77FF90EF90DF90CF90BF90AF909F9005
:104D00008F900895609310017093110180931201A8
:104D1000909313010895FB01DC0105900D92002092
:104D2000E1F70895FC016150704001900110D8F73F
:104D3000809590958E0F9F1F0895F999FECF92BD93
:104D400081BDF89A992780B50895A6E1B0E044E0C6
:104D500050E00C94CE26A8E1B0E042E050E00C9484
:104D6000CE26262FF999FECF1FBA92BD81BD20BD58
:104D70000FB6F894FA9AF99A0FBE01960895242F67
:104D80000E94B226252F0E94B2260C94C7260E94AC
:104D9000B126272F0C94B226DC01CB01FC01F99936
:104DA000FECF06C0F2BDE1BDF89A319600B40D9277
:104DB00041505040B8F70895052E97FB1EF400941B
:104DC0000E94F32657FD07D00E940E2707FC03D050
:104DD0004EF40C94F32650954095309521953F4F15
:104DE0004F4F5F4F089590958095709561957F4FD7
:104DF0008F4F9F4F08950E943027A59F900DB49F1D
:104E0000900DA49F800D911D11240895B7FF0C945F
:104E1000FB260E94FB26821B930B0895A1E21A2E0B
:104E2000AA1BBB1BFD010DC0AA1FBB1FEE1FFF1F4E
:104E3000A217B307E407F50720F0A21BB30BE40B9E
:104E4000F50B661F771F881F991F1A9469F76095E5
:104E50007095809590959B01AC01BD01CF0108959F
:104E6000A29FB001B39FC001A39F700D811D1124AB
:104E7000911DB29F700D811D1124911D089597FB06
:104E8000072E16F4009407D077FD09D00E94592709
:104E900007FC05D03EF4909581959F4F089570953D
:104EA00061957F4F0895EE0FFF1F0590F491E02D5F
:104EB0000994AA1BBB1B51E107C0AA1FBB1FA61761
:104EC000B70710F0A61BB70B881F991F5A95A9F7B3
:104ED00080959095BC01CD01089581E090E0F89413
:104EE0000C94512AAEE0B0E0E8E7F7E20C94282AEF
:104EF0000D891E8986E08C831A8309838FEF9FE7D3
:104F00009E838D83AE01475E5F4F6F89788DCE01A2
:104F100001960E949427EF81F885E00FF11F10821F
:104F20002E96E4E00C94442AABE0B0E0EAE9F7E224
:104F30000C941A2A6C017B018A01FC0117821682EB
:104F4000838181FFCCC1CE0101963C01F6019381A2
:104F5000F70193FD859193FF81917F01882309F4E7
:104F6000BAC1853239F493FD859193FF81917F0118
:104F7000853229F4B60190E00E948029E7CF912C78
:104F8000212C312CFFE1F315D8F08B3279F038F475
:104F9000803279F08332A1F4232D20611DC08D323F
:104FA00061F0803369F4232D216016C0832D826067
:104FB000382EE32DE4603E2E2AC0F32DF8601DC08C
:104FC00037FC2DC020ED280F2A3040F08E32B9F486
:104FD00036FC81C1232D2064322E19C036FE06C056
:104FE0008AE0989E200D1124922E11C0EAE02E9E98
:104FF000200D1124222EF32DF0623F2E08C08C3696
:1050000021F4832D8068382E02C0883641F4F701E0
:1050100093FD859193FF81917F018111B3CF982FEB
:105020009F7D9554933028F40C5F1F4F9FE3998325
:105030000DC0833631F0833771F0833509F059C0E4
:1050400021C0F801808189830E5F1F4F88248394DB
:10505000912C530113C02801F2E04F0E511CF801AE
:10506000A080B18036FE03C0692D70E002C06FEFF2
:105070007FEFC5010E9492264C018201F32DFF773C
:105080003F2E16C0280122E0420E511CF801A080DC
:10509000B18036FE03C0692D70E002C06FEF7FEF74
:1050A000C5010E9475294C01F32DF0683F2E820145
:1050B00033FC1BC0822D90E088169906B0F4B6012F
:1050C00080E290E00E9480292A94F4CFF50137FC19
:1050D000859137FE81915F01B60190E00E948029A1
:1050E00021102A9421E0821A91088114910471F709
:1050F000E8C0843611F0893641F5F80137FE07C063
:1051000060817181828193810C5F1F4F08C0608133
:105110007181072E000C880B990B0E5F1F4FF32D2A
:10512000FF763F2E97FF09C0909580957095619509
:105130007F4F8F4F9F4FF0683F2E2AE030E0A30152
:105140000E94BC29882E861845C0853731F4232D4E
:105150002F7EB22E2AE030E025C0932D997FB92E04
:105160008F36C1F018F4883579F0B5C0803719F062
:10517000883721F0B0C0E92FE061BE2EB4FE0DC02B
:10518000FB2DF460BF2E09C034FE0AC0292F266013
:10519000B22E06C028E030E005C020E130E002C0B9
:1051A00020E132E0F801B7FE07C0608171818281A1
:1051B00093810C5F1F4F06C06081718180E090E099
:1051C0000E5F1F4FA3010E94BC29882E8618FB2D5D
:1051D000FF773F2E36FE0DC0232D2E7FA22E891481
:1051E00058F434FE0BC032FC09C0832D8E7EA82EED
:1051F00005C0B82CA32C03C0B82C01C0B92CA4FE48
:105200000FC0FE01E80DF11D8081803321F49A2D3D
:10521000997EA92E09C0A2FE06C0B394B39404C01F
:105220008A2D867809F0B394A3FC11C0A0FE06C0B5
:10523000B21488F4280C922C9B180EC0B21460F49F
:10524000B60180E290E00E948029B394F7CFB214B7
:1052500018F42B1802C0982C212CA4FE10C0B60103
:1052600080E390E00E948029A2FE17C0A1FC03C049
:1052700088E790E002C088E590E0B6010CC08A2D76
:10528000867859F0A1FE02C08BE201C080E2A7FC43
:105290008DE2B60190E00E948029891438F4B601AD
:1052A00080E390E00E9480299A94F7CF8A94F301DA
:1052B000E80DF11D8081B60190E00E9480298110E7
:1052C000F5CF222009F442CEB60180E290E00E94A0
:1052D00080292A94F6CFF6018681978102C08FEF4C
:1052E0009FEF2B96E2E10C94362AFC010590615069
:1052F00070400110D8F7809590958E0F9F1F0895EC
:105300000F931F93CF93DF93FB01238121FD03C0F4
:105310008FEF9FEF2CC022FF16C04681578124815A
:1053200035814217530744F4A081B1819D012F5F5D
:105330003F4F318320838C93268137812F5F3F4FEE
:105340003783268314C08B01EC01FB010084F185B7
:10535000E02D0995892BE1F6D80116968D919C9147
:105360001797019617969C938E931697CE01DF910F
:10537000CF911F910F910895FA01AA27283051F17A
:10538000203181F1E8946F936E7F6E5F7F4F8F4F76
:105390009F4FAF4FB1E03ED0B4E03CD0670F781FD5
:1053A000891F9A1FA11D680F791F8A1F911DA11DBA
:1053B0006A0F711D811D911DA11D20D009F46894F3
:1053C0003F912AE0269F11243019305D3193DEF69B
:1053D000CF010895462F4770405D4193B3E00FD051
:1053E000C9F7F6CF462F4F70405D4A3318F0495D3C
:1053F00031FD4052419302D0A9F7EACFB4E0A6951F
:105400009795879577956795BA95C9F70097610540
:10541000710508959B01AC010A2E06945795479596
:1054200037952795BA95C9F7620F731F841F951F8B
:10543000A01D08952F923F924F925F926F927F929C
:105440008F929F92AF92BF92CF92DF92EF92FF9294
:105450000F931F93CF93DF93CDB7DEB7CA1BDB0B40
:105460000FB6F894DEBF0FBECDBF09942A883988E5
:1054700048885F846E847D848C849B84AA84B984EC
:10548000C884DF80EE80FD800C811B81AA81B981F8
:10549000CE0FD11D0FB6F894DEBF0FBECDBFED010C
:0654A0000895F894FFCF0F
:1054A60000E1000000000000FFFFFFFF0100000018
:1054B60001000000700A350CBD0B3D0B780AEE1298
:1054C600A312560FA70D00000000CC1AF11AED1A10
:1054D600E21AE11EB61F921F000000006C0C1D1997
:1054E600750A740A00C180810000002725303264E5
:0254F600220092
:00000001FF
