:100000000C9493050C94BB050C94BB050C94BB0598
:100010000C94BB050C94BB050C94BB050C94BB0560
:100020000C94BB050C94BB050C94B5160C942417CA
:100030000C94BB050C94BB050C94BB050C94BB0540
:100040000C94BB050C94181A0C94BB050C94BB05BE
:100050000C94BB050C94BB050C94BB050C94561971
:100060000C94BB050C94BB050C94BB050C94BB0510
:100070000C94BB050C94BB050C94BB050C94BB0500
:100080000C94A0190C94BB050C94BB050C94BB05F7
:100090000C94BB050C94BB050C94BB050C94BB05E0
:1000A0000C94BB050C94BB050C94BB059C59000C2F
:1000B0009C48000C9C450018D49C35000C9C4500C5
:1000C00010E280F0FFFF07FF077707FF077707FFC2
:1000D000077707FF077707FFFF07070707070707E8
:1000E00007070707070707070707070707079C5BB7
:1000F00000089C4A00089C47000CD39C3B000A9CCB
:100100003E000FE280F0FFFF475717FF077707FF1A
:10011000077707FF077707FFFF07070707070707A7
:100120000707070707070707070707079C60000877
:100130009C4C00089C43000CD29C3C000A9C48004C
:100140000FE280F0FFFFFF07FF077707FF07770742
:10015000FF077707FFFFFF070707070707070707DF
:1001600007070707070707070707944B0010943F87
:100170000018945200109466001880F0F844561746
:10018000FF87B7076E0CF80001030707070707038F
:10019000010094510018944100109460001880F000
:1001A0007C82FFC3DB83B7867C0000010101010173
:1001B0000000944F0012943E000C945F001280F0F7
:1001C0007CA2AB8BFF87B7867C0000010101010197
:1001D0000000903D0014904F001E80F07CFE83FFD5
:1001E00087B787FE7C0000010101010100009042F9
:1001F000000C9053001080F01C3E5155453E1C9061
:10020000470008904C000C80F01C3E7F417F3E1C54
:100210000000000000700100C0000C00CAA77C0AAA
:10022000CAE22D0A534248195EF55112003000000F
:100230000027450040941C0014F3190504F1110433
:1002400020040000044110040004000010420801D2
:100250005E14450F40F001005955551351555D0D81
:100260008C927C085755550D5E55550D51520C0119
:100270005E55550F5655550F00A0000000A4000014
:1002800000C2280080A228008062080040500D00B3
:100290005E7455079C92241F5F555D0D9C1445119B
:1002A0005F1425075F5555115F5114015E54551DAC
:1002B0001F41101F40F44500100421071F41181D65
:1002C0001F0441105EF0041F9C10041F5E54450F74
:1002D0005F9214035ED4451F5F92341B5655550D33
:1002E00041F005011F0421071F4208011FE4410FCF
:1002F0001743181D07C1090151564D1100F0450063
:1003000000F0010040F4010080100C0010044110C6
:10031000050115012501370149015D0172018801BF
:100320009F01B801D201EE010B022A024B026E02BC
:100330009302BA02E40210033E037003A403DC0339
:10034000160454049604DC0426057505C805200629
:100350007D06E0064807B7072D08A9082D09B90949
:100360004D0AEA0A900B400CFA0CC00D910E6F0F6B
:100370005A1053115A1272139A14D3152017801859
:10038000F519801B221DDE1EB420A622B524E4260A
:100390003429A72B402E0031080809090A0B0B0C41
:1003A0000D0E0E0F10111213141617181A1B1D1F05
:1003B00020222427292B2E3134373A3D4145494EFE
:1003C00052575C62686E747B838A939BA5AEB9C4F6
:1003D000CFDCE9F7000102030406080C00F4F8FA88
:1003E000FCFDFEFF90480064904A0064904C00645D
:1003F000904D0064904F00C880F04241434B205420
:100400004F205449544C45004245434F4D452050E0
:10041000454E4E494C45535300434F4E54494E555B
:1004200045002435205155414452494C4C494F4ECA
:100430002100594F5527564520474F540000808EC4
:1004400015F555554E5555F5158E80000364949756
:100450006A35555555356A9794640380404E95F535
:1004600055554E5555F5158E8000016292936A35AB
:10047000555555352A7794946300809C2AEAAAAA98
:100480009CAAAAEA2A9C8000639494635D6AAAAA43
:10049000AA6A5D6394946300808E15F555554E5598
:1004A00055F5954E4080639494772A3555555535CA
:1004B0006A9392620100000000000000000007073C
:1004C00009020100FF015D0707F8010500EE01A820
:1004D0000909DC010A00D201DE0909C0013200B2BB
:1004E00001820909A00164009201870B0B7C01F4D1
:1004F000016A01A5130B4401E8032C0159130B06F3
:10050000018813EE0076150BC4001027AC00C20F53
:10051000100000000000000043414E43454C004FD6
:100520004B00903700789036008C903500A09034C6
:1005300000B4903300C8903200DC903100F090306D
:1005400000FF80F0464F52202341524455424F59FC
:10055000204D454D45204A414D004F424E2D5931C9
:10056000362056455220302E303100C0C6CFDFFF36
:10057000FB73037CFEFFC7E3FF7F3E00FFFFFF1B13
:100580001B1B03000303FFFFFF0303000000000029
:10059000000000808080800000000000000000005B
:1005A00000000080E0F058AC56AB55AB5500FF01A1
:1005B00001010202040810608000003FFFAA55AA52
:1005C00055AA55AA55A85FAC5CAC5CAC5CAC5C0CA5
:1005D000CF3C0000000103060D1A152A252A252A02
:1005E0002522151209040201000000FFFF57AB5736
:1005F000AB57AB57AB03FF808080000000000000CA
:10060000000000FFFF55AA55AA55AA55AA00FF00F1
:100610000000010102040830C000001F7FD5AA5568
:10062000AA55AA55AA54AF56AE56AE56AE562E8609
:10063000671E000000000103060D0A1512151215B1
:1006400012110A090402010000000000000000006D
:10065000008080C0C0C0C08080800000000000001A
:10066000000000C0F078AC56AB55AA55AA00FF00B8
:100670000000010102040830C00000FFFF55AA5528
:10068000AA55AA55AA00FFFEAE56AE56AE56AE56B5
:1006900007FE001F171512151215121512101F173D
:1006A0001215121512151215101F000000A040A0FF
:1006B0000028104438827C007C8ED6DADA827C00F6
:1006C000383800387CFE00DD09C10C440CC51055DB
:1006D000137E104352454449540047414D45205331
:1006E0005441525400492057414E54202435205142
:1006F00055414452494C4C494F4E0000004445433B
:10070000454D42455220323032330050524F47520D
:10071000414D4D4544204259204F424F4E4F00001D
:10072000544849532050524F4752414D204953009D
:1007300052454C454153454420554E444552005482
:100740004845204D4954204C4943454E53452E00C1
:100750001B00000000000080C4663B391E0F02FE33
:10076000FC6009CDF6FFFFFF3E463E5E2FC7F7FA5D
:10077000FC7F9F6F170B0403000000000000C0E027
:10078000F8FC7F9F6F170B05050400000080E7FF52
:10079000FFFFFC00F0000080F8FEFF7FBF5F2F131B
:1007A0000D020180E0F8FFFF7F1FC3F1FD7FBFCF87
:1007B0006270BC5F4F07FBFF7FBF5300FCFFFFFF72
:1007C000FFE1EEE1E0F0F070B0B8582C160278FFCF
:1007D000FFFFFF7C9D661A05020000060EBCBFBF2E
:1007E0005F2F170986E1E0F0F767AB4C03000000CC
:1007F00000000000030B0B0B0505050505050200B5
:100800000201010000000105020100000001030BCC
:100810000B0B0B05050502020100000000000000A3
:1008200001050502010000000000000000000000BA
:10083000000000000001030B0502010000000000A1
:1008400000000000000000000000806018060202A6
:1008500082828282828282424242BEC03810080472
:10086000048242C1010101020206FC80C06010083E
:1008700004048242C101010102020CF080C0201078
:100880000804048242C101010102020CF00060A0D0
:1008900010080402120E070181E1790D0701010120
:1008A0000905834C50A0C0C0781E030101C121A1DD
:1008B0006101010101C121A16101010101C131CD2C
:1008C000330C000000304C4340404060A061000009
:1008D00000000001FEE13F07010000C030CCF23D06
:1008E0000E0300008060F81F07010000806098E69A
:1008F000390E0300008070F81F07010000C030CCE3
:10090000F23D0E030000C030ECFB1C07848405029E
:10091000030180E0701E07018060C0828141A2B5A2
:10092000CAF1791E070100C040404744434140409E
:1009300040C00704030100806098661906010000AA
:10094000007FC1818181818384834140A0A05028A0
:10095000140B3F40808080808083824140A05028DB
:10096000140B043F41808080808083824140A050EE
:1009700028140B047FC0808080808083824140A047
:100980005028140B0C7782834241A1505028147BCD
:10099000C78180808082834140A050EDF39C878195
:1009A0008080609C631C030101E19F83834343417A
:1009B00040A05028160906010000000000000000B9
:1009C0000002020202020202010100000000000017
:1009D0000000000202020202020101000000000009
:1009E00000000000020202020202030100000000F7
:1009F00000000000020282E2F27A72313100D8F087
:100A0000F06080F0FA727101808000000080D2F204
:100A1000F2E2E2628201010000000202020202C26E
:100A2000E1C0C0C00000000002028281010101009B
:100A300000000000000080C0C0E0E0C0C0D5F08D24
:100A40001410A1C881CFD9F1AF200000000000240C
:100A50000027002A002D003000000000002500289B
:100A6000002B002E003100040802011040804010CD
:100A700020408040800802040180402010020110C4
:100A800080102040402004040404040304050202F2
:100A90000202040302020202060606060606040417
:100AA0000202020404FD09F409A30FEA095211929B
:100AB000092C0ECB135C12080B0002020200000985
:100AC00004000001020200000524001001052401B9
:100AD0000101042402060524060001070581031014
:100AE000004009040100020A00000007050202405C
:100AF00000000705830240000004030904120100FE
:100B000002EF02014041233680000101020301414E
:100B1000726475696E6F204C4C430041726475625B
:100B20006F790000F41A11241FBECFEFDAE0DEBFA8
:100B3000CDBF11E0A0E0B1E0ECEDFEE302C0059016
:100B40000D92AC33B107D9F726E0ACE3B1E001C0B8
:100B50001D92AA3DB207E1F715E0C3E9D5E004C054
:100B60002197FE010E94661FC239D107C9F70E9472
:100B7000111B0C946C1F0C940000E4E8F2E080E080
:100B8000A0E0B8E000800EBC8111012C1197A0FDFF
:100B9000FDCF0192B9F70DB40895CF93DF93DC0137
:100BA00077FF13C022273327261B370B842F042EF1
:100BB000000C990B281739072CF4460F70E060E001
:100BC000141644F0DF91CF9108951416DCF76034C9
:100BD0007105C4F7A038B105A8F7262FCB01840F03
:100BE000911D47FD9A958134910514F040E4461B10
:100BF00027709FEF022E01C0990F0A94EAF7420F67
:100C0000621B710977FF02C0695F7F4F83E07595B2
:100C100067958A95E1F7FB01F695FE2FEE27F7958C
:100C2000E795EA0FFB1FEC57FD4F28E030E06FEF30
:100C300070E014163CF6483064F4D901A41BB109E5
:100C400047FDB395EB0102C0D595C795AA95E2F78C
:100C50009C238081982B90834850E058FF4F9FEF52
:100C6000E8CF2F923F924F925F926F927F928F9236
:100C70009F92AF92BF92CF92DF92EF92FF920F932B
:100C80001F93CF93DF9300D000D000D0CDB7DEB755
:100C900030E0F901E80FF91F1E161F060CF09BC08B
:100CA000803891050CF097C010E0F801E60FF71FAF
:100CB0001E161F060CF08FC0603471050CF08BC03F
:100CC000E62FE7707E2E095F1F4F4801E3E0959401
:100CD0008794EA95E1F7DA01F3E075956795FA955F
:100CE000E1F7062E000C770BAB015695542F4427E5
:100CF00057954795480F591F10E000E01C821B8252
:100D0000FA01EC57FD4FFA83E983FA01EC5FFC4FDF
:100D10005F01CB80DC808C149D0409F45CC07601FB
:100D2000E60EF71E48E0E416F1040CF054C05FEF45
:100D3000E516F5060CF441C049805A80400E511E5C
:100D40001501200E311E50E040E042175307ACF56C
:100D5000FA01E80FF91FE038F1057CF5F7FD2AC02C
:100D6000FD01E40FF51FE491F0E06F01072C02C0D4
:100D7000CC0CDD1C0A94E2F7DE82CD82EFEFEE169A
:100D8000FE0631F16201C40ED51EF6016080FD81C0
:100D90006F2AF6016082772069F0F7E0EF16F10420
:100DA00049F06101C40ED51EF6016080FE816F2AF4
:100DB000F60160824F5F5F4FC8CF4B815C814F5F10
:100DC0005F4F5C834B83A20FB31F00581F4FA1CF0F
:100DD0007110E7CFEFCF26960FB6F894DEBF0FBEA7
:100DE000CDBFDF91CF911F910F91FF90EF90DF90DA
:100DF000CF90BF90AF909F908F907F906F905F90BB
:100E00004F903F902F900895FC0180916B028823B2
:100E100011F13FB7F89482E08093E9002091F2004D
:100E2000822F90E01816190614F481E090E08823D0
:100E300039F0289844E640936A024091F1004083DB
:100E4000222339F02091F200211103C02BE62093D8
:100E5000E8003FBF08958FEF9FEF08952FB7F894F4
:100E600083E08093E9009091E800892F807295FFDC
:100E700004C09091F20080E4891B2FBF08958091F7
:100E8000620281110DC082E080935E0284E0809353
:100E90005F02109261021092600281E08093620210
:100EA0008EE592E00895CF93DF931F92CDB7DEB722
:100EB0006983DC01ED91FC910280F381E02D41E03A
:100EC00050E0BE016F5F7F4F09950F90DF91CF918A
:100ED000089583E08093E9008091F200882319F05F
:100EE0008AE38093E80008950E942E0790E0089519
:100EF000CF93DF931F92CDB7DEB7FC018485958534
:100F000097FD08C02FEF3FEF358724870F90DF91C3
:100F1000CF910895CE0101960E940407019719F41C
:100F2000898190E0F3CF8FEF9FEFF0CF0F931F9366
:100F3000CF93DF931F92CDB7DEB78C01FC01848580
:100F4000958597FF0BC0CE0101960E94040701977B
:100F500071F4898190E0F80195878487F801848590
:100F600095850F90DF91CF911F910F9108958FEF8D
:100F70009FEFF1CFFC018485958597FD0BC09FB74E
:100F8000F89482E08093E9008091F2009FBF90E0A6
:100F9000019608959FB7F89482E08093E9008091CC
:100FA000F2009FBF90E0089540915802509159027D
:100FB000209156023091570242175307B4F4909192
:100FC000E8009570E1F39091E80092FD19C08093DC
:100FD000F100809158029091590201968F739927E0
:100FE000892B19F48EEF8093E8008091580290913C
:100FF00059020196909359028093580281E0089516
:1010000080E00895DF92EF92FF920F931F93CF93AA
:10101000DF93D82E8A01EB017B01E40EF51ECE157D
:10102000DF0559F0D7FE12C0FE0184910E94D4075B
:1010300021968111F4CF0FEF1FEFC801DF91CF91FF
:101040001F910F91FF90EF90DF9008958881EECF70
:101050000F931F93CF93DF931F92CDB7DEB782E03C
:10106000898342E450E067EB7AE080E80E9402085E
:101070000E943F07DC0112960D911C91011511058C
:1010800089F0D801ED91FC910280F381E02DBE0141
:101090006F5F7F4FC801099597FD04C0F801008577
:1010A0001185ECCF89810F90DF91CF911F910F9126
:1010B0000895615030F02091F100FC0120830196E9
:1010C000F8CF289884E680936A020895FC010E9474
:1010D000FD08319728F068517C4F8F4F9F4FF9CF13
:1010E000AB01FC010E94FD08641775078E079F077E
:1010F000C8F308958F929F92AF92BF92CF92DF92E2
:10110000EF92FF920F931F93CF93DF936C017B01BC
:101110008A0180910D01882309F45AC080916B02E5
:10112000882309F455C080915D0280FF05C080913D
:10113000E00082608093E000E801B12C8AEFA82EE5
:1011400093E0892E2AE3922E209711F4BB20C9F157
:101150000E942E07811108C0AA94AA20C9F181E03B
:1011600090E00E946608F0CF8C171D0611F00CF07D
:101170008C2F9FB7F8948092E9002091E80025FD1C
:1011800002C09FBFE1CF282F30E0C21BD30BF70175
:10119000815020F041914093F100FACFE20EF31E0E
:1011A000BB2021F09092E800B12CEBCF8091E800B9
:1011B00085FDE7CF9092E800BB24B394209709F314
:1011C000F3CF5D9884E680935C02101611063CF024
:1011D00081E090E0F6019383828310E000E0C80193
:1011E000DF91CF911F910F91FF90EF90DF90CF9003
:1011F000BF90AF909F908F900895A2E5B2E02FB777
:10120000F8947D918D919C9166B52FBFA89B05C0E8
:101210006F3F18F47F5F8F4F9F4F22E0660F771F5D
:10122000881F991F2A95D1F7089580913502089556
:10123000AF92BF92CF92DF92EF92FF920F931F93E4
:10124000CF93DF936C017B018B01040F151FEB0122
:101250005E01AE18BF08C017D10759F06991D601D9
:10126000ED91FC910190F081E02DC6010995892B4B
:1012700079F7C501DF91CF911F910F91FF90EF900A
:10128000DF90CF90BF90AF90089590E00C946608E7
:101290008FB18095807F669B88601C9B84600895D9
:1012A000109235023E983F9808953E9A3F9A81E009
:1012B00080933502089590E0E4E8F2E091119FEF09
:1012C0008FEF91939193919391938150D0F71092D6
:1012D0002E0210922D0210922C0210922B020895D1
:1012E000EF92FF920F93CF93DF937C01EB0100E22B
:1012F0002EE745E458E00E943106BE01605E7F4F54
:1013000004E121E542E557E0C7018F960E943106CE
:10131000DF91CF910F91FF90EF90089583E080933C
:1013200027020895E0912702E33059F0F0E0EE0F34
:10133000FF1FE353F94F85919491FC010995109299
:101340002A0208959C0190911F0293306CF484E06E
:101350009802F0011124ED5EFD4F338322837183E7
:1013600060839F5F90931F02089510921F026EE8A2
:1013700079E08AED96E00E94A2096BE37CE083EDC0
:1013800096E00E94A2091092200281E08093290237
:101390009CE19093260295E39093250298E4909324
:1013A00024029BE090932302109222028093210258
:1013B0008093270280932A02089580912802815009
:1013C00080932802811102C00E94B50981E08093B8
:1013D0002A02089580912702811104C08EE1809332
:1013E000280208950C94B509909128029150909389
:1013F000280281E0911180E0089588E78093280217
:101400000895FF920F931F93CF93DF93EC01FB019D
:1014100080819181A881B9812B8139E0F32E2F9DA4
:1014200090011124F901EB54FB4FE4918C010A1B4C
:101430001B0BF0E031964E0F5F1F0417150754F594
:10144000FB0143814F9DA0011124FA01EB54FB4F96
:10145000E491A81BB90BEA171B06E4F0F901EA5462
:10146000FB4FA591B491FB01228130E08A8190E08D
:10147000B901681B790BA617170664F0FA01EA5444
:10148000FB4F45915491BC01621B730B81E04617E1
:1014900017060CF480E0DF91CF911F910F91FF9020
:1014A00008958F929F92AF92BF92EF92FF920F9307
:1014B0001F93CF93DF938C01AB01DC01ED90FC9087
:1014C0001197F194E194F1081396EC91B9E0EB9F38
:1014D000F0011124EB54FB4FE491CE2FD0E0EC1639
:1014E000FD069CF1F801238139E0239FF0011124CE
:1014F000E754FB4F45915491809138029091390205
:10150000A0913A02B0913B02840F951FA11DB11D1D
:1015100040913C0250913D0260913E0270913F0229
:101520004A015B01EFEF8E1A9E0AAE0ABE0A8115D0
:10153000F1EE9F07F5EFAF07F5E0BF07B8F0915E5A
:10154000A54FB540B501A401EBCF6EE072E00E945B
:10155000010A8111C7CFDF91CF911F910F91FF90A9
:10156000EF90BF90AF909F908F9008958093380236
:1015700090933902A0933A02B0933B02411531EEA9
:10158000530735EF630735E07307A8F440933C0237
:1015900050933D0260933E0270933F0281E080933E
:1015A0003602EC16FD0614F420930D02D8011396B2
:1015B0001C9281E0D0CF8FEF90EEA5EFB5E0809345
:1015C0003C0290933D02A0933E02B0933F02809371
:1015D000380290933902A0933A02B0933B02DECFD7
:1015E000E8E3F2E02081318145E0429FC001439F62
:1015F000900D11244281538167E0649F9001659FA3
:10160000300D1124820F931F875C9A4744815581C6
:1016100069E0649F9001659F300D1124280F391FE8
:10162000468157816BE0649FC001659F900D112436
:10163000820F931F408551856DE0649F9001659FE7
:10164000300D1124820F931F0895CF92DF92EF92F5
:10165000FF920F931F93CF93DF93082F142F469F72
:10166000E001479FD00D1124F12CE12C60E074E2E1
:1016700084EF90E0A7019E010E94CF1E2150310906
:101680004109510991E02115310581E048075105D3
:101690006CF060E970ED83E090E0A7019E010E948C
:1016A000CF1E215031094109510993E0013059F011
:1016B0000330F9F0DF91CF911F910F91FF90EF90E0
:1016C000DF90CF90089510933E0180918100887F34
:1016D000892B809381003093890020938800109299
:1016E00085001092840080916F00826080936F006B
:1016F000E1CF10933F01D0933D01C0933C01809115
:101700009100887F892B80939100309399002093DA
:101710009800109295001092940080917100826060
:1017200080937100C7CF811116C010927D02809105
:10173000730281110AC080913202E0913302F0916C
:101740003402908180958923808342E064EF71E0C8
:1017500083E00C94250B80917802811110C0809158
:101760006F008D7F80936F0080912F02E091300297
:10177000F0913102908180958923808308950895A6
:10178000FF920F931F93CF93DF93EC01909183020D
:10179000992309F464C08B01913071F48091820225
:1017A000882351F0809181028F3F09F058C080E07A
:1017B0000E94930B10928202E0917F02F0918002CE
:1017C0000995FF24F3948F2580937E0230E020E07A
:1017D000A9019801220F331F441F551FDE010E94EB
:1017E000EE1E6C507E4F8F4F9F4F28EE33E040E04F
:1017F00050E00E94011F809183028130A1F4809308
:101800007D022093790230937A0240937B025093B9
:101810007C0283E042E0BE01DF91CF911F910F91E6
:10182000FF900C94250BF092780220937402309371
:10183000750240937602509377028091820288234A
:1018400051F081E0909181029F3F09F080E0809308
:10185000730281E0DFCF8FEF80938102FACFDF91B7
:10186000CF911F910F91FF90089564E170E08BE498
:1018700092E00C94C00B0E94350C82E0809327020A
:1018800081E080932A0208958091D80690E08095A7
:1018900090952091D9062C7030E082239323892BD8
:1018A00039F00E94350C81E08093270280932A0250
:1018B0000895E0914A02EE2359F1409120022091CF
:1018C0001F02022E000C330B0E2E000CFF0BCF015B
:1018D000840F911D47FD9A95820F931FB9010E94B5
:1018E0003E1F482FDC01AA0FBB1FAA0FBB1FAD5E16
:1018F000BD4F6D917C91672B51F3809320026AE07C
:1019000070E088EB91E00E94C00B81E08093290297
:10191000809121028823C1F08091D906887090E0DF
:101920002091D80630E02095309582239323892B8F
:1019300059F080913502811120C00E9455090E9402
:10194000350C81E0809329028091D906847090E063
:101950002091D80630E02095309582239323892B5F
:1019600079F0E091200284E0E802F0011124ED5EBC
:10197000FD4F0190F081E02D09940E945009DFCFC6
:1019800008950C94590C0E94350C82E08093120249
:1019900008950E94350C1092120281E080932A0271
:1019A0000895CF93DF93C091200286E0C802E00142
:1019B000112469960E94350C10921F026AE976E1A3
:1019C0008FE195E00E94A20969EC7CE088E195E056
:1019D0000E94A20988E280932602C09325028FE22A
:1019E000809324028BE08093230281E08093220283
:1019F000809321028093200280932902DF91CF916E
:101A00000895FF920F931F93CF93DF9301E010E0AF
:101A1000FF24F394E0916F02F0917002AF014F5FE9
:101A20005F4F5093700240936F022491822F807F0A
:101A3000C22FCF70D22FD370803821F48D2F0E9407
:101A4000930BE8CF803909F03FC0E0917F02F0911D
:101A5000800209958F2580937E02E0916F02F091BC
:101A60007002CF0101969093700280936F02E4910F
:101A700080916E0290918302D91760F6D13021F4E3
:101A8000909178029111C6CF8E0F87FDC3CFE82FBA
:101A9000F0E08C3390F4E856FC4FE4916E2F70E048
:101AA00081E0D11103C0F0927D0283E04C2F469576
:101AB00046954E5F0E94250BADCFEE0FFF1FE856F7
:101AC000FD4F65917491ECCF87FD3FC03296F09346
:101AD0007002E0936F02FA014491A0913C01B09131
:101AE0003D01322F242F0E94231F6C507E4F8F4FB9
:101AF0009F4F28EE33E040E050E00E94011F20930A
:101B0000790230937A0240937B0250937C02809159
:101B1000790290917A02A0917B02B0917C02892B8C
:101B20008A2B8B2B61F481E090E0A0E0B0E0809301
:101B3000790290937A02A0937B02B0937C02DF91AA
:101B4000CF911F910F91FF900895803DA1F4F093E4
:101B50007202E093710280916C02882309F45ACFDB
:101B6000EC2FF0E0EC52FC4FE491C0916E02EC0FD0
:101B7000E0936E024FCF803E21F5C11109C08091E4
:101B80007102909172029093700280936F0242CF23
:101B900080916C028F5F80936C02980102C0220FCB
:101BA000331FCA95E2F7821713064CF35093720263
:101BB0004093710280916D0280936E0210926C02CC
:101BC00029CF803F09F026CF10928202B8CF0F9321
:101BD0001F93CF93DF938C01D62F809182028823AD
:101BE00049F180918102861790F1C0E080918302D3
:101BF000C81728F48C2F0E94930BCF5FF7CF109259
:101C00008202D093810210937202009371021093AA
:101C1000700200936F0210926E0210926D02109289
:101C20006C0281E080938202DF91CF911F910F912E
:101C30000C94010D80917802882319F381E0909132
:101C40008102961708F080E080937302DACFDF916B
:101C5000CF911F910F91089560E084EE93E00E9470
:101C6000E70D8091400290914102019690934102CC
:101C70008093400281E080933602EDE4F1E013822C
:101C8000349682E0ED30F807D1F71092400188E0F9
:101C900090E090930F0280930E028BE180931002EC
:101CA0008AE0809311021092280210924A01109249
:101CB000490110924C0110924B0110924101109277
:101CC000120281E080932A020895EF920F93CF933E
:101CD000DF9377FF0CC088279927861B970B28175F
:101CE000190609F00CF47CC0260F70E060E057FF85
:101CF0000FC0EE27FF27E41BF50B802F002E000CF2
:101D0000990BE817F9070CF06BC0040F50E040E0A6
:101D1000222309F465C0603871050CF061C010160B
:101D20000CF05EC0403451050CF05AC0CB01820F5C
:101D3000911D8138910514F020E8261B942FFA019B
:101D4000E00FF11D07FDFA95E134F10514F000E410
:101D5000041B97708FEF092E01C0880F0A94EAF7D1
:101D6000090F491B510957FF02C0495F5F4F93E0BC
:101D7000559547959A95E1F75695542F44275795D1
:101D80004795640F751F6C577D4F48E050E0AFEFEB
:101D9000B0E010162CF5083064F4FA01E01BF109EC
:101DA00007FDF395ED0102C0D595C795EA95E2F7D9
:101DB0008C23E1100DC08095FB01922F30813823D8
:101DC00031939150D9F7085060587F4F8FEFE1CF92
:101DD000FB01922F3081382B31939150D9F7F3CFFB
:101DE000DF91CF910F91EF9008957F928F929F9204
:101DF000AF92BF92CF92DF92EF92FF920F931F9319
:101E0000CF93DF9300D01F92CDB7DEB76A3001F5D4
:101E100080912D0290912E02069690932E0280932F
:101E20002D0210922C0210922B0281E090E00F9074
:101E30000F900F90DF91CF911F910F91FF90EF9036
:101E4000DF90CF90BF90AF909F908F907F9008953C
:101E500080EE860F803448F710910001A0902D028B
:101E6000B0902E0240912B0250912C029A01CA018F
:101E700005968538910538F5C50106968634910595
:101E800010F504E0609FF0011124E057FE4FC5906B
:101E9000D590E590F490F0E090E1792E70E060E06C
:101EA000C0FC18C0E0E0111116C0F694E794D79476
:101EB000C7946F5F7F4F6630710591F72F5F3F4F7B
:101EC000FF5FF63059F74A5F5F4F50932C02409303
:101ED0002B02ABCFE12F2038310538F7C501860F33
:101EE000971F8034910508F701E081FD04E080FD33
:101EF000000F82FD0295887F789ED0011124A20FE9
:101F0000AC57BD4F0C90002AE0FF00260C92CDCFBD
:101F10000F931F93CF93DF938C01D0E0C0E0F801C3
:101F2000EC0FFD1F6491662341F084ED96E00E9462
:101F3000F50E892B11F02196F2CFCE01DF91CF91D2
:101F40001F910F9108958F929F92AF92BF92CF925F
:101F5000DF92EF92FF920F93CF93DF93809128024D
:101F60008F50990B63E070E00E943E1F8AE39AEA6B
:101F7000A3EEBEEE04C0B695A795979587956A9592
:101F8000D2F7C82FC1708FE7C89F802D112493E826
:101F900094BD9FEF97BD91EF909380008093880050
:101FA00010928A000E945B092091280288E790E045
:101FB000821B91096CE270E00E943E1F4B018BE88E
:101FC000C82E85E0D82E9CE1A92EB12CF12CE12C55
:101FD000D0E081E090E08E149F0411F090E080E06A
:101FE0008C9FB0018D9F700D9C9F700D1124645FBC
:101FF0007F4F00E228E1A601C5010E9431068FEF64
:10200000E81AF80A88E1A80EB11C80E6C80ED11CB7
:1020100083E0E816F104E9F608E020E24BE655E03B
:102020006CE270E084E490E00E94310680E190E090
:1020300090932C0280932B028AE390E090932E02DF
:1020400080932D028AE595E00E94880F81E090E060
:1020500090932C0280932B0210922E0210922D024C
:1020600084E495E0DF91CF910F91FF90EF90DF90A6
:10207000CF90BF90AF909F908F900C94880F089551
:1020800090E080E0089597FF0DC022273327281B9A
:10209000390B4217130629F024F0480F90E080E036
:1020A00031F408954423E9F380389105D4F760347E
:1020B0007105B8F79C01240F311D2138310514F04A
:1020C00040E8481B362F377021E001C0220F3A95B7
:1020D000EAF7FB0133E0F595E7953A95E1F7F695D8
:1020E000FE2FEE27F795E795E80FF91FEC57FD4F08
:1020F0008081822B81934150D9F7D3CFCF92DF9249
:10210000EF92FF920F931F93CF93DF9380912A0258
:10211000882391F10E945B090BE010E0C5EED6E048
:10212000FE0184918B3141F165E170E0CE010E94A6
:10213000691E7C016C01DD24282F3DEF3203C001B4
:102140001124805C9F4F90932C0280932B0210935C
:102150002E0200932D02CE010E94880F8FEFC81A25
:10216000D80ACC0DDD1D86E090E0E11002C082E0CF
:1021700090E0080F191FD4CFDF91CF911F910F91DD
:10218000FF90EF90DF90CF9008954F925F926F9203
:102190007F928F929F92AF92BF92CF92DF92EF92F7
:1021A000FF92CF93DF93CDB7DEB72C970FB6F8949D
:1021B000DEBF0FBECDBF0E945B0980902802912C2C
:1021C0006627772768197909CB01770FAA0BBB0B14
:1021D00089839A83AB83BC839FEF891A990A092C60
:1021E000000CAA08BB0889819A81AB81BC81881A3E
:1021F000990AAA0ABB0A0E94081E6D837E838F83F8
:102200009887C0902802D12C442455244C185D088E
:10221000052C000C660877089FEFC91AD90A0D2C07
:10222000000CEE08FF08C418D508E608F7080E945D
:10223000081E69877A878B879C876D817E818F8155
:102240009885A50194010E94CF1E89809A80AB8059
:10225000BC80860E971EA81EB91E69857A858B855F
:102260009C85A70196010E94CF1EDC01CB01840D45
:10227000951DA61DB71DB4012C960FB6F894DEBFB0
:102280000FBECDBFDF91CF91FF90EF90DF90CF9049
:10229000BF90AF909F908F907F906F905F904F9086
:1022A0000C947009CF92DF92EF92FF92E091270297
:1022B000F0E0EE0FFF1FE953F94F85919491FC0177
:1022C00009950E94AC1D6C01990FEE08FF080E9451
:1022D000FD08C616D706E806F90631F06C257D25FF
:1022E0008E259F250E94571E80912702833031F052
:1022F00081E0FF90EF90DF90CF90089582E0F9CFDA
:102300006F927F929F92AF92BF92CF92DF92EF92A5
:10231000FF920F931F93CF93DF93A090230222E0AD
:10232000922E9A0C10912402F09025026F2C0F2C03
:10233000000C7708630181E0C81AD108C091260219
:102340000C2E000CDD0B22E0210FBE016150710943
:10235000E12C092DA60184ED96E00E94650E809186
:102360002202882331F194E0B92EB10EE2E06E1A18
:10237000710822974B2DB301CE010E94431084E0D7
:102380008A0DB301680F711D87FD7A95615071093F
:102390004B2DCE010E944310492DB601CE010E9463
:1023A000CD05CE018B0D911D492DB60101970E94DF
:1023B000CD05D0E0C0E083E1C82E82E0D82E809128
:1023C0001F02082E000C990BC817D9070CF04AC041
:1023D000F60182819381009709F441C0AF2C0F2C44
:1023E000000CBB0820912602022E000C330B245F48
:1023F0003F4F40912002042E000C550BC417D50707
:1024000059F544E050E0241B350B30932C02209307
:102410002B02B0922E02A0922D020E94880F809172
:102420002002082E000C990BC817D90771F460918F
:102430002602062E000C770BEE24E39405E025E03F
:10244000A50184ED96E00E94650EF6E0FF0E219650
:1024500084E0C80ED11CB3CF50E040E0D4CFF39459
:10246000F394F5CF809121028823B1F040E150E050
:1024700067EB76E08EE696E00E94601E6091350282
:10248000E6E06E9FB00111246555794F46E050E0BB
:102490008EE796E00E94601E10922902DF91CF9194
:1024A0001F910F91FF90EF90DF90CF90BF90AF9072
:1024B0009F907F906F900895BF92CF92DF92EF929E
:1024C000FF920F931F93CF93DF938091120282307C
:1024D00009F4D6C08111DEC00E945B09CDE4D1E0D1
:1024E00019E08B818823C1F0819FC0011124FC0178
:1024F000EA54FB4FA591B491FC01EB54FB4F24919E
:10250000FC01E954FB4F459154916A8170E00A2F18
:10251000888199810E943106249622E0CD30D2072D
:1025200001F7409128024695469543708EE1489FF9
:10253000A0011124435C5B4F6091100270E000E148
:102540002FE080910E0290910F020E94310660915F
:1025500038027091390280913A0290913B02CAE7A9
:102560002AE0C22ED12CE12CF12C2C2F30E030931C
:102570002C0220932B0210922E0210922D02A70102
:1025800096010E94011FB22E032F142FD52F605DDC
:1025900084ED96E00E94F50E6B2D702F812F9D2FFC
:1025A000C650CA3441F460913C0270913D02809162
:1025B0003E0290913F026115710581059105A9F6D2
:1025C00000913C0210913D0220913E0230913F0269
:1025D000012B022B032B11F0CB3438F6D0E0D09333
:1025E0002C02C0932B0210922E0210922D0264E254
:1025F00084ED96E00E94F50E80913C0290913D02A0
:10260000A0913E02B0913F028038904FAA4FB24055
:10261000A8F1EE24E3940FE020E848E150E070E0F8
:1026200060E084ED96E00E94650E8091280284FFB0
:1026300025C01092000182E290E090932C028093DA
:102640002B028AE190E090932E0280932D0282E388
:1026500094E00E94880F83E190E090932C02809395
:102660002B0280E290E090932E0280932D0282E272
:1026700094E00E94880F81E08093000110922A026A
:10268000DF91CF911F910F91FF90EF90DF90CF904E
:10269000BF90089580912902811104C080912A027F
:1026A000882361F30E948011E9CFCF93C0912A0261
:1026B000CC2341F00E945B0970E060E090E080E094
:1026C0000E94700980912902811102C0CC2319F067
:1026D000CF910C948011CF910895CF93DF93809187
:1026E0003702813009F054C080E692E090934302B3
:1026F00080934202F999FECF4FE452E46EE476E112
:1027000080E692E00E94C21E8091420290914302B4
:1027100004969093430280934202F999FECF609110
:102720004202709143024AE050E088E392E00E9446
:10273000AA1EC0914202D09143022A96D09343022E
:10274000C09342020E94F00AF999FECFBC01CE016B
:102750000E94CA1E80914202909143020296909379
:10276000430280934202C091350282E090E00E94D1
:10277000841EC81729F06C2F82E090E00E94B41EDE
:1027800082E08093370210923602DF91CF91089554
:1027900084E692E0BECF2F923F924F925F926F926B
:1027A0007F928F929F92AF92BF92CF92DF92EF92E1
:1027B000FF920F931F93CF93DF9300D000D000D0F0
:1027C0001F92CDB7DEB72091120281E0223009F4CA
:1027D00058C22111ACC22091D90626FB882780F966
:1027E00090E025FB662760F970E0861B970B6091EF
:1027F0000E0270910F02860F971F8237910514F019
:1028000081E790E097FF02C090E080E090930F0294
:1028100080930E0224FB442740F950E0822F022EC1
:10282000000C990B8827990F881F9927481B590B73
:1028300080911002840F813308F080E3863008F421
:1028400086E080931002809128028F5F8093280297
:1028500022FF30C280914B0190914C01803A29EFC8
:10286000920728F4019690934C0180934B01C090FD
:102870004B01D0904C010091490110914A010C0D7F
:102880001D1D005A1F4F10934A0100934901612FEB
:1028900077277F836E8310920D028DE0A82E82E051
:1028A000B82E9DE4E92E91E0F92ED70113968C9174
:1028B0001397882369F08D919C911197EE81FF8188
:1028C0008E1B9F0B8D939C93BF01C7010E94510AE1
:1028D000F4E0EF0EF11CAE14BF0439F72E813F81F6
:1028E0002115310509F4C5C0922F8827081B190B43
:1028F00010934A01009349018D2D86958F5F8B308F
:1029000008F4DDC1982F843108F093E19A509B833D
:102910008A3008F089E02E803F80882E912C6FEF5E
:10292000861A960A092C000CAA08BB08809140015F
:10293000A82FB0E0BD83AC83AA0FBB1FAA0FBB1F9B
:10294000BA83A983FD01E35BFE4F8381811184C0BB
:10295000BB81CB2ED12CF12CE12CC814D904EA0474
:10296000FB049CF4240135014C185D086E087F08B7
:1029700041F00E94081EA30192010E94CF1E2B016C
:102980003C01C40CD51CE61CF71C09811A81035BB1
:102990001E4FF801C3820E94081E28E030E040E08C
:1029A00050E00E94CF1E20E830E022193309C9010F
:1029B000860F971FD80111969C938E931396EC91D6
:1029C000B9E0EB9FF0011124EA54FB4F85919491FB
:1029D00001E410E0081B110946E050E060E070E0FF
:1029E00007301105A4F00E94081E012E000C220BD6
:1029F000330BA901980126503109410951090E9460
:102A0000CF1EAB01BC014A5F5F4F6F4F7F4F8C8180
:102A10009D81880F991F880F991FFC01E35BFE4F72
:102A20007F01E981FA81E35BFE4F4283B101C70177
:102A30000E94510A811110C02E813F812032310540
:102A40000CF44DC18091400190E0C19660E370E0CC
:102A50000E943E1F80934001EE81FF8184E090E060
:102A6000B0970CF439C1281A390A121413040CF463
:102A70005DCFE0910D02EE2359F029E0E29FF001D5
:102A80001124E554FB4F8591949162E00E94E70D7B
:102A9000E0910D02EE2309F443C139E0E39FF00118
:102AA0001124E354FB4F25913491822F64E20E945C
:102AB000321F8093440136E0822F632F0E94321F21
:102AC000292F0E94321F909343012093420188E0F6
:102AD000809341018091410120914201829F202DEC
:102AE000112490914301899F902D1124309144012C
:102AF000839F802D112433E834BD909597BD91EFCD
:102B0000909380002093880080938A008091D9065A
:102B1000887090E02091D80630E02095309582238F
:102B20009323892B09F43EC00E94350C10921F029A
:102B300069EC7CE089E194E00E94A20961ED7CE00F
:102B400088E094E00E94A20963EC7CE08AEF93E0C5
:102B50000E94A2098AE08093260287E180932502E1
:102B60008BE68093240281E18093230281E08093AD
:102B700022028093210210922002809329028091E8
:102B8000360281110E946D1383E884BD8FEF87BDEB
:102B900081EF809380001092880010928A0081E07B
:102BA000809312028091D80690E080959095609174
:102BB000D906A62FB0E0A823B923BA83A983209110
:102BC000450130914601409147015091480182E012
:102BD000C82ED12CE12CF12C812C912C5401839402
:102BE000412C64EA562E6AE9662E63E0762ED50102
:102BF000C4010C2C04C0880F991FAA1FBB1F0A9484
:102C0000D2F7E981FA818E239F23892B91F0A6E0E8
:102C1000B0E00E94EE1EA30192010E94011FA701D5
:102C200096012250310941095109260F371F481FCB
:102C3000591FFFEFCF1ADF0AEF0AFF0A68E0C61636
:102C4000D104E104F10499F6209345013093460143
:102C50004093470150934801293F3C464B4853401D
:102C600061F48FE790EFAAEFB2E080933C0290937B
:102C70003D02A0933E02B0933F0281E080932A027E
:102C800082E027960FB6F894DEBF0FBECDBFDF916E
:102C9000CF911F910F91FF90EF90DF90CF90BF9059
:102CA000AF909F908F907F906F905F904F903F90EC
:102CB0002F90089510924C0110924B01D8CD31E025
:102CC0003B8326CE34E0C30ED11C882371F0E9810A
:102CD000FA81E35BFE4F138281E090E0C4CE7DE495
:102CE000C72E71E0D72E10E000E0809140018017E0
:102CF0001106A1F0D60113968C91882379F050E04B
:102D000040E0B701C6010E94010A0F5F1F4F003368
:102D10001105C1F6882309F495CED9CF80E0F5CF0F
:102D200080914101882309F4D5CE8150D1CE0E94F3
:102D3000590CA6CFCF9361E082E295E00E94E70DA7
:102D4000E8E3F2E014821582168217821082118263
:102D500012821382C1E0C09336020E946D1310925A
:102D60001202C0932A02CF9108951F920F920FB6BC
:102D70000F9211248F939F938091E1009091E10035
:102D8000937F9093E10083FF0FC01092E90091E0E0
:102D90009093EB001092EC0092E39093ED00109270
:102DA0006B0298E09093F00082FF22C093E0909332
:102DB000E9009091F200992319F09AE39093E800CA
:102DC00090915C02992341F090915C029150909314
:102DD0005C02911101C05D9A90916A02992341F0C1
:102DE00090916A02915090936A02911101C0289AC1
:102DF00084FF18C08091E2008E7E81608093E200A3
:102E00008091E1008F7E8093E10080915D028E7E53
:102E1000806180935D029F918F910F900FBE0F9004
:102E20001F90189580FFF7CF8091E2008E7E806121
:102E30008093E2008091E1008E7E8093E10080919A
:102E40005D028E7E8160E5CF1F920F920FB60F92CA
:102E50001124CF92DF92EF92FF920F931F932F9343
:102E60003F934F935F936F937F938F939F93AF9312
:102E7000BF93EF93FF93CF93DF93CDB7DEB76C97FC
:102E8000DEBFCDBF1092E9008091E80083FF25C02E
:102E900068E0CE0145960E94590882EF8093E800D1
:102EA0008D8987FF39C09091E80090FFFCCF982F63
:102EB000907609F034C19E894F89588D2F89F88CFE
:102EC000911131C0803861F580915B028093F100EF
:102ED0001092F1008EEF8093E8006C960FB6F89494
:102EE000DEBF0FBECDBFDF91CF91FF91EF91BF91BC
:102EF000AF919F918F917F916F915F914F913F9192
:102F00002F911F910F91FF90EF90DF90CF900F9036
:102F10000FBE0F901F9018959EEF9093E800C7CFBB
:102F20001092F100D5CF913059F48111D3CF4130B7
:102F3000510581F680915B028D7F80935B02CACF41
:102F4000933049F48111C6CF4130510519F6809173
:102F50005B028260F2CF953041F48091E80080FFFF
:102F6000FCCF20682093E300B5CF963009F0A9C0CC
:102F70000B8D1C8D22E01092E900109259021092E4
:102F80005802F2122EC010925702109256020E945E
:102F900028081F8299E09983FA8291E09E8390EA43
:102FA00098879AEF99872091580230915902275FAC
:102FB0003F4F3C832B838D831092E900109259027E
:102FC00010925802109357020093560249E050E0C5
:102FD000BE016F5F7F4F80E00E9402080E942808B8
:102FE00079CF10935702009356020E943F07DC01ED
:102FF00012960D911C910115110509F451C1D801CA
:10300000ED91FC910480F581E02DBE016B5E7F4F58
:10301000C8010995009709F03EC1F80100851185A6
:10302000EACFF3E0FF120EC08F89882309F440C075
:10303000823061F440E867E08BE19BE00E94C11AB6
:10304000811148CF81E28093EB0047CF813029F492
:1030500040E86BE08FE09BE0F1CF833099F70E946E
:103060003F07DC011296ED90FC908E010F5F1F4F21
:103070006801E114F10479F0D701ED91FC9106802B
:10308000F781E02DB801C7010995080F111DF7015F
:10309000E084F184EECFD8011C92F601019000206B
:1030A000E9F73197BF016C197D0940E0C601C6CF31
:1030B00069EF7AE0FB01449150E080E80E94020849
:1030C00009CF973009F4BECF983021F481E0809386
:1030D000F10000CF993009F0FDCE837009F0B2CF36
:1030E000E7E1F1E081E031E096E32191222371F004
:1030F0008093E9003093EB00DF0111972C9120932E
:10310000EC009093ED008F5F873079F78EE7809326
:10311000EA001092EA008F8980936B02DBCE8B8DE0
:103120009C8D1092E90010925902109258029093CF
:10313000570280935602898D811192C08E899D8994
:10314000913A49F4813209F07DCF47E050E066E0E2
:1031500071E080E0B3CF913209F074CF833269F42B
:103160008F89988DB0E0A0E08093020190930301D5
:10317000A0930401B0930501ADCE803269F4809133
:10318000E80082FFFCCF67E086E091E00E945908EA
:103190008BEF8093E8009ECE823209F09BCE8F8920
:1031A00080930D01EEEFFFE7859194918B3F9C4D4D
:1031B00051F1E0E0F8E08091060190910701A091C3
:1031C0000801B0910901803B9440A105B105F1F4DB
:1031D00080910D0180FD1AC0EE3F8AE0F80789F565
:1031E00087E797E7918380838091600080935A02FC
:1031F00088E19BE00FB6F894A895809360000FBE1D
:103200009093600067CEEEEFFAE0D5CF8081918198
:103210008737974709F05ECEA89580916000886156
:103220008093600080915A0280936000EE3F2AE014
:10323000F20789F08091FE0A9091FF0A91838083C2
:1032400049CE808191818737980751F29093FF0A88
:103250008093FE0AC5CF1092FF0A1092FE0A3ACE62
:103260000E943F07DC0112960D911C91011511057A
:1032700009F4E8CED801ED91FC910190F081E02DA8
:10328000BE016B5E7F4FC8010995811123CEF80105
:1032900000851185EBCF181619060CF41BCED2CE83
:1032A000F1E0FF12BECE6DEF7AE004CF0F920FB6C1
:1032B0008F939F93EF93FF9380914D028D5F8D3796
:1032C00008F08D5780934D02EEE4F2E080818E4F3E
:1032D000808391819F4F918382818F4F82838381ED
:1032E0008F4F8383E2E5F2E080818F5F808381816D
:1032F0008F4F818382818F4F828383818F4F83831E
:103300008FB18F6066991C9B88278F3681F48091DE
:103310004C02981B963068F0E0E0F8E087E7808385
:10332000818388E180936000F0936000FFCF9093E9
:103330004C02FF91EF919F918F910FBE0F901895C6
:103340001F920F920FB60F9211242F933F934F931A
:103350005F936F937F938F939F93AF93BF93EF93FD
:10336000FF9380917D02882329F18091730281115E
:1033700021C080917E0281111DC0609179027091FF
:103380007A0280917B0290917C0220913F0130E093
:1033900050E040E00E94011F6230710581059105F7
:1033A00048F490913202E0913302F091340280812E
:1033B000892780838091790290917A02A0917B0283
:1033C000B0917C02892B8A2B8B2BE9F080917902BA
:1033D00090917A02A0917B02B0917C020197A109A1
:1033E000B1098093790290937A02A0937B02B09303
:1033F0007C02892B8A2B8B2B31F4809182028823CB
:1034000099F00E94010DFF91EF91BF91AF919F91B3
:103410008F917F916F915F914F913F912F910F907D
:103420000FBE0F901F90189580E00E94930BEBCF7A
:103430001F920F920FB60F9211242F933F934F9329
:103440005F936F937F938F939F93AF93BF93EF930C
:10345000FF9380917802882309F472C080917402EE
:1034600090917502A0917602B0917702892B8A2BF8
:103470008B2B09F451C080917E0281111DC0609197
:10348000740270917502809176029091770220917A
:103490003E0130E050E040E00E94011F62307105C3
:1034A0008105910548F490912F02E0913002F0914E
:1034B0003102808189278083809174029091750206
:1034C000A0917602B0917702892B8A2B8B2B99F0F1
:1034D0008091740290917502A0917602B09177026A
:1034E0000197A109B1098093740290937502A0938A
:1034F0007602B0937702FF91EF91BF91AF919F91C8
:103500008F917F916F915F914F913F912F910F908C
:103510000FBE0F901F9018951092730210927802B0
:1035200080916F008D7F80936F0080912F02E091DA
:103530003002F09131029081809589238083DBCF26
:1035400080917E028111D7CF6091740270917502D3
:10355000809176029091770220913E0130E050E018
:1035600040E00E94011F623071058105910518F647
:1035700090912F02E0913002F091310280818927F1
:10358000DDCFEF92FF920F931F93CF93DF93F82E2F
:10359000192FE62E042F81E0860F880F0E94D40792
:1035A00083E00E94D407CF2DD12FEC0EFD2EF11C0D
:1035B000CE15DF05B9F007FF13C0FE0184910E940C
:1035C000D407182F80E00E94D4078123219681110F
:1035D000EFCFDF91CF911F910F91FF90EF90089562
:1035E0008881EDCF81E0F5CFE4E8F6E01382128226
:1035F00088EE93E0A0E0B0E084839583A683B78350
:1036000081E291E0918380838FEF9FEF958784879C
:10361000E4EDF6E01382128283E391E091838083EC
:103620000895789483E084BD83E085BD81E0809334
:103630006E00E1E8F0E083E08083E0E881E08083F1
:10364000E1E983E08083E0E981E08083E1EC87E0E9
:103650008083E3EC81E08083E0EC82E08083E2EC35
:1036600081E08083EAE787E080838068808310922E
:103670006B0210925B0210925D028091D700816014
:103680008093D70080EA8093D80089B5806189BD96
:1036900089B5826089BD09B400FEFDCF81E090E06C
:1036A0000E9466088091D8008F7C80618093D8004A
:1036B0008091E000807F8093E0008091E1008E7E29
:1036C0008093E1008DE08093E200559A209A81EC8E
:1036D00080937C0081EF85B987EE84B982E38BB952
:1036E00082EF8AB9769A6E9880EF81BB10BA80E536
:1036F0008CBD81E08DBD85E00E9445095F9A85E023
:103700000E9445095C98EDE3FAE085918EBD0000CA
:103710000DB407FEFDCFEB34C1F75C9A81E88093CE
:10372000640081E0809365000E94BD050E94480905
:1037300087FF15C05C9885EA8EBD00000DB407FEBA
:10374000FDCF5C9A2E982F982D988091640080620E
:103750008093640081E083BF889513BEFCCF0E94F4
:10376000480982FF37C02D980E9448098478843820
:10377000A1F42D9A88EC0E9445092F986FEF82E002
:1037800090E00E94981E84EF91E00E9466082F9AB4
:103790000E94480984788438D9F30E9448098471CA
:1037A0008431A1F42D9A88EC0E9445092E9860E09E
:1037B00082E090E00E94981E84EF91E00E946608EB
:1037C0002E9A0E94480984718431D9F388EC0E94B2
:1037D0004509C5CF2D9A82E090E00E94841E88237F
:1037E00069F10E94550980E18093010185E199E02A
:1037F0009093800280937F02809183028823C9F195
:1038000090E023E080918302981768F5911119C028
:10381000809171008D7F8093710080913202E091E0
:103820003302F0913402308180958323808380912C
:1038300065008860809365009F5FE4CF0E94500917
:10384000D2CF80916F008D7F80936F0080912F0287
:10385000E0913002F09131023081809583238083A2
:1038600020938100E9CF1092730210927802109297
:10387000820281E080938302EBE8FAE08491ECE637
:10388000FAE0249190E0880F991FFC01E75AF54F68
:1038900045915491FC01E55BF54FA591B4918C9154
:1038A000822B8C9380916500877F809365001092B6
:1038B000900089E08093910050933402409333024A
:1038C0002093320280E00E94930B80E692E0909376
:1038D000430280934202F999FECF80E692E00E9473
:1038E0008C1E24E632E030934302209342026F3470
:1038F00072448E44964109F055C0F999FECF4AE0D2
:1039000050E064E672E088E392E00E94741EC09189
:103910004202D09143022A96D0934302C0934202BE
:10392000F999FECFCE010E94921E8C012296D0936F
:103930004302C09342020E94F00A8017910791F55A
:1039400082E08093370210923602809135028823FC
:10395000B1F10E945509E0914B02B6E0EB9FF001F6
:103960001124EB55F54F85919491FC010995CC24D8
:10397000C39484E4E82E82E0F82ED6E000E010E064
:10398000BB24B394DD24DA949FE0A92E80914602F3
:103990008823C1F01092460201151105B9F30E9467
:1039A0000000F4CFE8E3F2E08AE0DF011D928A959F
:1039B000E9F781E08093370280933602C6CF0E94F8
:1039C0005009C9CF90914E0280914702F92FF81B00
:1039D0008F2F20910101F21738F48F5F8217E0F6E4
:1039E000C3BE889513BED8CFB092460290934702CB
:1039F000F701808191810196808391838091D9061E
:103A00008093D8060E9448098093D90610924A02F2
:103A100010924902982F907F09F44FC0909148026C
:103A20009F5F94310CF046C09093480290914802F9
:103A3000913011F09F30A1F485FDD092490286FFAC
:103A400005C0909149029F5F9093490287FDD092F3
:103A50004A0284FF05C080914A028F5F80934A0228
:103A6000E0914B02DE9FF0011124E955F54F85915D
:103A70009491FC010995C82FE0914B02DE9FF00163
:103A80001124E755F54F85919491FC0109950E9409
:103A9000BD0580914B02C81709F47ECFC0934B023D
:103AA000DC9FF0011124EB55F54F85919491FC01B9
:103AB000099572CFA0924802B9CF10924802D0CF98
:103AC0008F929F92AF92BF92CF92DF92EF92FF922E
:103AD000CF93DF93EC01688179818A819B816115A5
:103AE00071058105910521F464E279ED8BE597E09C
:103AF0002DE133EF41E050E00E94CF1E49015A0111
:103B00009B01AC01A7EAB1E40E94EE1E6B017C01AF
:103B1000ACEEB4EFA50194010E94FC1EDC01CB01C8
:103B20008C0D9D1DAE1DBF1DB7FF03C00197A109E0
:103B3000B04888839983AA83BB839F77DF91CF9115
:103B4000FF90EF90DF90CF90BF90AF909F908F90BD
:103B500008950E94601D08958EE091E00E94601D0E
:103B60000895B0E0A0E080930E0190930F01A09320
:103B70001001B093110108958F929F92AF92BF925E
:103B8000CF92DF92EF92FF92CF93DF93EC016881A7
:103B900079818A819B81611571058105910521F4E7
:103BA00064E279ED8BE597E02DE133EF41E050E001
:103BB0000E94CF1E49015A019B01AC01A7EAB1E462
:103BC0000E94EE1E6B017C01ACEEB4EFA5019401E6
:103BD0000E94FC1EC60ED71EE81EF91EF7FE06C088
:103BE00081E0C81AD108E10880E8F80AC882D982C1
:103BF000EA82FB82C701B6019F77DF91CF91FF90E8
:103C0000EF90DF90CF90BF90AF909F908F900895EE
:103C10008F929F92AF92BF92CF92DF92EF92FF92DC
:103C2000609112017091130180911401909115011E
:103C3000611571058105910521F464E279ED8BE54B
:103C400097E02DE133EF41E050E00E94CF1E4901A3
:103C50005A019B01AC01A7EAB1E40E94EE1E6B0180
:103C60007C01ACEEB4EFA50194010E94FC1EC60ECF
:103C7000D71EE81EF91EF7FE06C081E0C81AD1085B
:103C8000E10880E8F80AC0921201D0921301E09294
:103C90001401F0921501C701B6019F77FF90EF90D4
:103CA000DF90CF90BF90AF909F908F9008956093DA
:103CB00012017093130180931401909315010895DC
:103CC000FB01DC0102C005900D9241505040D8F735
:103CD0000895FC010590615070400110D8F780955F
:103CE00090958E0F9F1F0895DC01CB01FC01F9997F
:103CF000FECF06C0F2BDE1BDF89A319600B40D9238
:103D000041505040B8F70895F999FECF92BD81BD5A
:103D1000F89A992780B50895A6E1B0E044E050E014
:103D20000C94761EA8E1B0E042E050E00C94761EC0
:103D3000262FF999FECF92BD81BDF89A019700B464
:103D4000021639F01FBA20BD0FB6F894FA9AF99A04
:103D50000FBE0895DC01CB0103C02D910E94B51E5A
:103D600041505040D0F70895262FF999FECF1FBA41
:103D700092BD81BD20BD0FB6F894FA9AF99A0FBE94
:103D800001960895242F0E94B51E252F0E94B51E6E
:103D90000C94CA1E0E94B41E272F0C94B51E052E2B
:103DA00097FB1EF400940E94E61E57FD07D00E9468
:103DB000011F07FC03D04EF40C94E61E509540956D
:103DC000309521953F4F4F4F5F4F089590958095C7
:103DD000709561957F4F8F4F9F4F08950E94231FCD
:103DE000A59F900DB49F900DA49F800D911D11244F
:103DF0000895B7FF0C94EE1E0E94EE1E821B930BDB
:103E00000895A1E21A2EAA1BBB1BFD010DC0AA1F1B
:103E1000BB1FEE1FFF1FA217B307E407F50720F033
:103E2000A21BB30BE40BF50B661F771F881F991FAE
:103E30001A9469F760957095809590959B01AC01F7
:103E4000BD01CF010895A29FB001B39FC001A39F00
:103E5000700D811D1124911DB29F700D811D1124C3
:103E6000911D0895991B79E004C0991F961708F0D9
:103E7000961B881F7A95C9F78095089597FB072EA2
:103E800016F4009407D077FD09D00E94521F07FC5A
:103E900005D03EF4909581959F4F0895709561955A
:103EA0007F4F0895AA1BBB1B51E107C0AA1FBB1F70
:103EB000A617B70710F0A61BB70B881F991F5A95B6
:103EC000A9F780959095BC01CD010895EE0FFF1FD5
:0C3ED0000590F491E02D0994F894FFCFC8
:103EDC000110FFFFFFFF00E10000000000000100E7
:103EEC0000000100000000C1808100000000000003
:103EFC000053077A0874076907BA07780796070012
:0C3F0C00000000F50E180940103F1000E6
:00000001FF
