:100000000C9441080C9469080C9469080C946908D4
:100010000C9469080C9469080C9469080C9469089C
:100020000C9469080C9469080C94531C0C94C51C1E
:100030000C9469080C9469080C9469080C9469087C
:100040000C9469080C9442200C9469080C9469087B
:100050000C9469080C9469080C9469080C94281F86
:100060000C9469080C9469080C9469080C9469084C
:100070000C9469080C9469080C9469080C9469083C
:100080000C9443210C9469080C9469080C94690839
:100090000C9469080C9469080C9469080C9469081C
:1000A0000C9469080C9469080C946908BB15BE157A
:1000B000AD15B115B515DF15DF15DF15C215C61560
:1000C000CA15D015D415DF15DA1559165E16631644
:1000D0006D167716C116C116C11681168B169516A8
:1000E0009F16AC16C116B41605A84CCDB2D44EB9A5
:1000F0003836A9020C50B9918688083CA6AAAA2ACB
:10010000BE000000803F544845204D4954204C49D2
:1001100043454E53452E0052454C454153454420DE
:10012000554E44455200544849532050524F47526F
:10013000414D2049530050524F4752454D4D454483
:10014000204259204F424F4E4F00444543454D42B7
:1001500045522032303136002D20484F4C4C4F57FD
:10016000205345454B4552202D00435245444954A8
:10017000005245434F52440053544152542047418A
:100180004D4500E0F8FC1C1CFCF8F00F1F3F383810
:100190003F1F07383838FCFCFC00000000003F3FE0
:1001A0003F000000381C1C9CFCF878383C3E3B3B70
:1001B000393838001CDCDCDCFC7838003839393957
:1001C0003F1F0E00C0F07CFCFCFC000F0F0D0C3F2D
:1001D0003F3F0CFCFCFCFCDCDC9C00393838383838
:1001E0003F1F0FE0F0F8BCDCDCDC800F1F3F39392B
:1001F0003F1F0F1C1C1C9CDCFC7C1C00303E3F3F46
:1002000003000070F8FC8C8CFCF8700E1F3F31313D
:100210003F1F0EF0F8FC9C9CFCF8E0003939393D9A
:100220001F1F074F424E2D59303120564552203066
:100230002E333200C0C6CFDFFFFB73037CFEFFC747
:10024000E3FF7F3E00FFFFFF1B1B1B03000303FFB9
:10025000FFFF03030000000000000000808080809A
:1002600000000000000000000000000080E0F058E6
:10027000AC56AB55AB5500FF01010102020408105A
:10028000608000003FFFAA55AA55AA55AA55A85F4D
:10029000AC5CAC5CAC5CAC5C0CCF3C000000010323
:1002A000060D1A152A252A252A25221512090402C7
:1002B00001000000FFFF57AB57AB57AB57AB03FF35
:1002C000808080000000000000000000FFFF55AAB1
:1002D00055AA55AA55AA00FF000000010102040812
:1002E00030C000001F7FD5AA55AA55AA55AA54AF01
:1002F00056AE56AE56AE562E86671E000000000162
:1003000003060D0A151215121512110A090402012D
:10031000000000000000000000008080C0C0C0C0DD
:10032000808080000000000000000000C0F078AC79
:1003300056AB55AA55AA00FF0000000101020408AF
:1003400030C00000FFFF55AA55AA55AA55AA00FFC4
:10035000FEAE56AE56AE56AE5607FE001F1715122D
:10036000151215121512101F17121512151215124B
:1003700015101F003C7EFFFFFF7E3CFD8181FDFDCF
:10038000FDFEC0C0FEFD8D8DFDFDFDFEC6C6FEDD81
:10039000DDDDDDFDFDEEEEEEEE580100004A01363A
:1003A000010000260117010601504C415920544913
:1003B0004D45202000504C415920434F554E54206C
:1003C000005D20005B0042455354203130205343F0
:1003D0004F524553004F4646004F4E00534F554E27
:1003E0004420007801DC0371016A0153434F5245F8
:1003F000004C415354000000000000000080C0E0A9
:10040000F070787800F8FC06F3F9FDFDFDF9F204D0
:10041000F8006040800000000000000000000000C4
:1004200000E0D8D6CBD4EAE4EAF5F2F5F2F9F7F633
:10043000ECEDEBEBEBE9F4FAF9F8FA797A7B7C6016
:100440000000000000000000000707073FC7070387
:10045000AB53FBFBFBFDFD8181FDFDFDFEC0C0FE3E
:10046000FEFEFEFF1F00000000000000000000C0B4
:10047000201028488404A556AC59AA5DB757B76F19
:10048000AF69A828E86EAF57B757AB54AA56EA42EF
:10049000E2160C0408F00003040404050203010F33
:1004A000F920202522252A352A35EA203FF52A354C
:1004B0002A25222520F03F00000101010100F0F86B
:1004C000FCFEFE9E1E1E1E1E3C00000000008080E2
:1004D000C0C0C0C0C0C08000000000008080C0C09C
:1004E000C0C0C0C080000000FFFFFFFFFF00008011
:1004F000C0C0C0C0C0C000008080C0C0C0C0C0C0FC
:1005000080000000C0C0C0C0C080C0C0C000E1C347
:10051000C7878F8F9FFFFEFEFCF800007CFFFFFF68
:10052000FFBB39393F3F3FBF3E007CFFFFFFFFBBB2
:1005300039393F3F3FBF3E00FFFFFFFFFF187EFFFF
:10054000FFFFFFE783007CFFFFFFFFBB39393F3F21
:100550003FBF3E00FFFFFFFFFF070303030003074A
:100560000707070707070303010000000001030353
:100570000707070707070703000000010303070732
:100580000707070707030000070707070700000121
:1005900007070707070704010303070707070707FC
:1005A0000703000007070707070000000000FEFE22
:1005B000FEFEFE80808080808080FEFEFEFEFE00CB
:1005C0000000008080C0C0C0C0C0C08080000000AB
:1005D000FFFFFFFFFF0000FFFFFFFFFF0000000025
:1005E0008080C0C0C0C0C0C080800000C0C0C0C08B
:1005F000C0C0000000C0C0C0C0C0800000C0C0C0FB
:10060000C0C0FFFFFFFFFF0F0F0F0F0F0F0FFFFF08
:10061000FFFFFF00007CFFFFFFFFC78383C7FFFFD3
:10062000FFFF7C00FFFFFFFFFF0000FFFFFFFFFF5A
:1006300000007CFFFFFFFFC78383C7FFFFFFFF7C36
:10064000000F7FFFFFFFF0F0FFFF1F1FFFFFFFF016
:10065000F0FFFF7F07000707070707000000000003
:10066000000007070707070000000103030707074B
:100670000707070303010000070707070700000734
:10068000070707070000000103030707070707071D
:100690000303010000000007070707070703000026
:1006A00007070707070703000000000000000070AD
:1006B0000100C0000C00CAA77C0A42F5550853424D
:1006C00048195EF5511200300000002745004094A3
:1006D0001C0014F3190504F1110420040000044166
:1006E000100400040000104208015E14450F40F0A1
:1006F00001005955551351555D0D8C927C08575585
:10070000550D5E55550D51520C015E55550F565500
:10071000550F00A0000000A4000000C2280080A225
:1007200028008062080040500D0000E318009C92F1
:10073000241F5F555D0D9C1445115F1425075F55FF
:1007400055115F5114015E54551D1F41101F40F497
:100750004500100421071F41181D1F0441105EF0C1
:10076000041F9C10041F5E54450F5F9214035ED457
:10077000451F5F92341B5655550D41F005011F046E
:1007800021071F4208011FE4410F1743181D07C12D
:10079000090151564D1100F0450000F0010040F4F0
:1007A000010080100C00100441109048006480008B
:1007B00019904A0064800019904C006480001990E0
:1007C0004D0064800019904F00C880F09037007889
:1007D00080000A9036008C800014903500A08000C4
:1007E0001E903400B4800028903300C880003290FE
:1007F0003200DC80003C903100F0800046903000F8
:100800000480F09043000A904F000A904C000A8048
:10081000F09014911301F48081F01083AC696DADF8
:10082000821000136C69EDAD022000232CE9ED2D40
:1008300002202006D8D25A5AC4101082AD6D69AC7D
:1008400083102002ADED696C130020022DEDE92C20
:10085000230010C45A5AD2D806204E45572052457C
:10086000434F52440053434F524500594F55520095
:100870000000E0F0F83C9C9C9C9C9C800000C060C8
:10088000606060E0C08000E0E0E0406060E0E0C008
:100890006060E0E0C00080C0E0E06060E0C0800038
:1008A000E0F0F83C1C1C1C3CF8F0E00060E0E0E0EC
:1008B0000000E0E0E06080C0E0E06060E0C0800058
:1008C000E0E0E0C0E0E000000000070F1F3C3B3B21
:1008D0003B3F3F1F001C3E3F3333133F3F3F003F32
:1008E0003F3F0000003F3F3F00003F3F3F000F1FE2
:1008F0003F36363637370700070F1F3C3838383C4D
:100900001F0F070000031F3F3E3E3F1F03000F1F46
:100910003F363636373707003F3F3F0000000000C4
:100920000000FCFCFC8C8CCCFCF8780080C0E0E083
:100930006060E0C0800000C060606060E0C0800077
:1009400080C0E0E0E0E0C0FEFEFE0020E0E0E0006D
:1009500000E0E0E0600000381C1C9CFCFC7800001B
:1009600000003F3F3F03071F3E3E38200F1F3F362A
:100970003636373707001C3E3F3333133F3F3F00C7
:100980000F1F3F313030183F3F3F000000C3CFFF03
:10099000FC7F1F0300000000383B3B3900000000D3
:1009A00090064EE4C08818990000000200090F006C
:1009B00000030401000C0000000000000000000023
:1009C00000000000000000030100000000240027D8
:1009D000002A002D003000D5F08D1410A1C881CF61
:1009E000D9F1AF20000408020110408040102040DF
:1009F0008040800802040180402010020110801015
:100A00002040402000000000250028002B002E0080
:100A10003100040404040403040502020202040376
:100A20000202020206060606060604040202020488
:100A30000414021302120215020702080204010C38
:100A400001060100080B0002020201000904000077
:100A50000102020000052400100105240101010427
:100A60002402060524060001070581031000400941
:100A7000040100020A00000007050202400000070E
:100A80000583024000000403090412010002EF0282
:100A90000140412336800001010203014172647567
:100AA000696E6F204C4C430041726475626F79002F
:100AB00000000000003E5B4F5B3E3E6B4F6B3E1CF8
:100AC0003E7C3E1C183C7E3C181C577D571C1C5E0F
:100AD0007F5E1C00183C1800FFE7C3E7FF001824E6
:100AE0001800FFE7DBE7FF30483A060E2629792990
:100AF00026407F050507407F05253F5A3CE73C5AC5
:100B00007F3E1C1C08081C1C3E7F14227F22145FA1
:100B10005F005F5F06097F017F006689956A6060FC
:100B200060606094A2FFA29408047E040810207EF6
:100B3000201008082A1C08081C2A08081E1010107B
:100B4000100C1E0C1E0C30383E3830060E3E0E06C1
:100B5000000000000000005F000000070007001414
:100B60007F147F14242A7F2A1223130864623649D3
:100B70005620500008070300001C224100004122BB
:100B80001C002A1C7F1C2A08083E080800807030C0
:100B9000000808080808000060600020100804022F
:100BA0003E5149453E00427F400072494949462135
:100BB00041494D331814127F1027454545393C4AA9
:100BC00049493141211109073649494936464949C0
:100BD000291E000014000000403400000008142208
:100BE0004114141414140041221408020159090676
:100BF0003E415D594E7C1211127C7F494949363E77
:100C0000414141227F4141413E7F494949417F095C
:100C10000909013E414151737F0808087F00417F67
:100C200041002040413F017F081422417F40404065
:100C3000407F021C027F7F0408107F3E4141413EFD
:100C40007F090909063E4151215E7F09192946267F
:100C50004949493203017F01033F4040403F1F2083
:100C600040201F3F4038403F63140814630304785A
:100C700004036159494D43007F414141020408107A
:100C800020004141417F04020102044040404040B5
:100C9000000307080020545478407F284444383823
:100CA00044444428384444287F3854545418000895
:100CB0007E090218A4A49C787F0804047800447D6F
:100CC00040002040403D007F1028440000417F400C
:100CD000007C047804787C08040478384444443860
:100CE000FC1824241818242418FC7C080404084840
:100CF0005454542404043F44243C4040207C1C2091
:100D000040201C3C4030403C44281028444C9090EB
:100D1000907C4464544C4400083641000000770045
:100D200000004136080002010204023C2623263C52
:100D30001EA1A161123A4040207A385454555921DD
:100D400055557941215454784121555478402054C7
:100D50005579400C1E527212395555555939545413
:100D6000545939555454580000457C410002457D82
:100D7000420001457C40F0292429F0F0282528F084
:100D80007C545545002054547C547C0A097F4932D8
:100D9000494949323248484832324A4848303A4153
:100DA00041217A3A42402078009DA0A07D394444F8
:100DB00044393D4040403D3C24FF2424487E494383
:100DC000662B2FFC2F2BFF0929F620C0887E0903F4
:100DD00020545479410000447D413048484A32381B
:100DE0004040227A007A0A0A727D0D19317D262947
:100DF000292F28262929292630484D40203808083F
:100E0000080808080808382F10C8ACBA2F10283472
:100E1000FA00007B000008142A142222142A140865
:100E20009500220095AA005500AAAA55AA55AA0025
:100E30000000FF00101010FF00141414FF00101029
:100E4000FF00FF1010F010F0141414FC001414F73D
:100E500000FF0000FF00FF1414F404FC141417102A
:100E60001F10101F101F1414141F00101010F0007A
:100E70000000001F101010101F10101010F01000B4
:100E80000000FF101010101010101010FF100000C4
:100E900000FF140000FF00FF00001F10170000FCFF
:100EA00004F414141710171414F404F40000FF00D1
:100EB000F714141414141414F700F714141417145A
:100EC00010101F101F141414F4141010F010F00060
:100ED000001F101F0000001F14000000FC14000081
:100EE000F010F01010FF10FF141414FF1410101065
:100EF0001F00000000F010FFFFFFFFFFF0F0F0F018
:100F0000F0FFFFFF0000000000FFFF0F0F0F0F0FAB
:100F100038444438447C2A2A3E147E0202060602E3
:100F20007E027E0263554941633844443C04407E5E
:100F3000201E2006027E020299A5E7A5991C2A49D7
:100F40002A1C4C7201724C304A4D4D303048784862
:100F500030BC625A463D3E494949007E0101017E4E
:100F60002A2A2A2A2A44445F444440514A444040A1
:100F7000444A51400000FF0103E080FF00000808E0
:100F80006B6B083612362436060F090F0600001860
:100F9000180000001010003040FF0101001F010187
:100FA0001E00191D1712003C3C3C3C0000000000D4
:100FB00006011501260137014A015D017201880110
:100FC0009F01B801D201EE010B022A024B026E0210
:100FD0009302BA02E40210033F037003A403DC038C
:100FE000170455049704DD0427057505C805200678
:100FF0007D06E0064907B8072D08A9082D09B9099B
:101000004D0AEA0A900B400CFA0CC00D910E6F0FBE
:101010005A1053115B1272139A14D41520178018AA
:10102000F519801B231DDE1EB420A622B524E4265C
:101030003429A72B402E0031EA330037453ABC3D16
:1010400068414C456B49C84D68524F57805C0062FF
:1010500010111213151617181A1C1D1F21232527EE
:10106000292C2E3134373A3E4145494E52575C6265
:10107000686E757B838B939CA5AFB9C4D0DCE9F710
:101080001A2611241FBECFEFDAE0DEBFCDBF11E07C
:10109000A0E0B1E0E6E9FAE502C005900D92A635C0
:1010A000B107D9F727E0A6E5B1E001C01D92AE383F
:1010B000B207E1F718E0C1E4D8E004C02197FE01CF
:1010C0000E944B2AC034D107C9F70E947A230C949E
:1010D000492D0C94000088E78093E60208952F9232
:1010E0003F924F925F926F927F928F929F92AF92B8
:1010F000BF92CF92DF92EF92FF920F931F93CF9305
:10110000DF93CDB7DEB768970FB6F894DEBF0FBE9A
:10111000CDBF80917B01882309F400C20E944D1B42
:1011200080917A01813009F4D2C060F0823009F0F8
:10113000F3C189E9E82E83E0F82E08E010E09DEF86
:10114000D92EC3C1EE24E39404E124E54EEA55E030
:1011500060E070E083E090E00E948E1920E54EEBA5
:1011600054E063E170E08DE290E00E948E1908E2A5
:1011700028E246EF53E068E170E084E090E00E94EE
:101180008E1980917101909172019E012F5F3F4FE6
:101190007901892B09F443C002E610E010930E0791
:1011A00000930D071092100710920F0761EF73E084
:1011B00089EF92E00E94401810930E0700930D07EC
:1011C00086E090E09093100780930F076BEE73E03A
:1011D00089EF92E00E944018809172018F93809174
:1011E00071018F938BE491E09F938F93FF92EF9225
:1011F0000E946A2A10930E0700930D078EE090E07C
:101200009093100780930F07B70189EF92E00E9437
:1012100030180F900F900F900F900F900F9063EE7B
:10122000A62E63E0B62E78E2C72ED12C00E010E0A7
:10123000F50185909490B401C7010E9458278091D0
:101240007901082E000C990B8017910719F080E4A2
:1012500090E002C08CE390E090930E0780930D071E
:10126000D0921007C0920F07B70189EF92E00E9459
:1012700030183CED831633E0930669F480917801D1
:10128000811103C065ED73E002C069ED73E089EF81
:1012900092E00E9440180F5F1F4F82E0A80EB11C21
:1012A00096E0C90ED11C0430110509F0C1CF609140
:1012B0007901E6E06E02B0011124685D7F4F01E024
:1012C00025E045E084E390E00E94C81825C186E14E
:1012D00090E090930E0780930D0784E090E0909348
:1012E000100780930F0766EC73E089EF92E00E948D
:1012F0004018EDE8F3E02CE034E0808180618193D8
:101300002E173F07D1F74DE5242E41E0342EC12C96
:10131000D12C7601C39404E010E04601F1E08F1A6D
:101320009108388E2F8A260137013EE0A32EB12C7A
:1013300029E08216910419F486E090E002C080E072
:1013400090E0F801E81BF90BF0930E07E0930D070E
:10135000B0921007A0920F0764EC73E089EF92E05F
:101360000E9440184AE0C301B2010E940A1B61ECCE
:1013700073E089EF92E00E944018EF89F88D619147
:101380007191F88FEF8B80E090E04AE00E940A1B99
:10139000FFEF8F1A9F0A26E0A20EB11C3FEF431AFF
:1013A000530A630A730A8CE2A816B10409F6045CB6
:1013B0001F4F95E0C90ED11CE11CF11CEAE02E0E76
:1013C000311C0C37110509F0A8CFEDE8F5E080815C
:1013D0008061819326E0EC30F207C9F700E110E06C
:1013E00010930E0700930D0780E390E09093100791
:1013F00080930F0765EB73E089EF92E00E9440183D
:1014000060915B0170915C0180E090E04AE00E9495
:101410000A1B10930E0700930D0786E390E090934C
:10142000100780930F0769EA73E089EF92E00E944A
:101430004018609157017091580180915901909125
:101440005A0120E13EE040E050E00E94DB27CA0163
:10145000B9014AE00E940A1B60915701709158013E
:101460008091590190915A012CE3C22ED12CE12C8C
:10147000F12CA70196010E94DB27CA01B901A7013F
:1014800096010E94DB279F938F937F936F938FE446
:1014900091E09F938F938E010F5F1F4F1F930F93C8
:1014A0000E946A2AB80189EF92E00E9430180FB6B4
:1014B000F894DEBF0FBECDBF2FC082E0E80EF11C56
:1014C0000A5F1F4F0833110539F1F70165917491D7
:1014D0006115710591F3CE0101960E94582766E1CE
:1014E00070E0CE0101960E945F27282F3D2D320328
:1014F000C0011124805C9F4F90930E0780930D07CD
:101500001093100700930F07BE016F5F7F4F89EFA5
:1015100092E00E943018D1CF10927B0180917A0125
:10152000811127C0809177018695869563E070E0F0
:10153000681B710977FF02C060E070E0633009F456
:1015400061E09AE0699FB001112465587C4F4AE040
:1015500050E081EA95E00E944F27E090760108E094
:1015600027E044E753E06AE170E086E190E00E9402
:101570008E1968960FB6F894DEBF0FBECDBFDF910F
:10158000CF911F910F91FF90EF90DF90CF90BF9080
:10159000AF909F908F907F906F905F904F903F9013
:1015A0002F9008958F929F92AF92BF92CF92DF9229
:1015B000EF920F93CF93DF930E944D1B2091E60291
:1015C00088E790E0821B910968E270E00E94372A68
:1015D0004B0184E5C82E82E0D82E9CE1A92EB12CC7
:1015E000C0E0D0E081E090E08C169D0611F080E034
:1015F00090E020917301289FB001299F700D112464
:10160000645F7F4FEE24E39400E228E1A601C50168
:101610000E948E19219688E1A80EB11C80E6C80EA2
:10162000D11CC330D105F1F608E020E244E352E0DA
:101630006CE270E084E490E00E948E1980E190E01A
:1016400090930E0780930D078AE390E09093100724
:1016500080930F0763E272E089EF92E0DF91CF9110
:101660000F91EF90DF90CF90BF90AF909F908F90B1
:101670000C9440180F931F93CF9380917A0181119E
:10168000A2C0809177019FEF980F9093770181110D
:1016900009C00E949D2664E670E00E94372A8A569F
:1016A000809377013091750190917401332341F05B
:1016B00090FF06C08091760121E0281B20937601DF
:1016C0008FEF890F8093740191110DC081E0832702
:1016D000809375010E949D2664EB70E00E94372A7A
:1016E000845C809374018091150790E080959095BB
:1016F00020911607207830E082239323892B71F004
:1017000080917901882311F0815001C083E080939A
:1017100079010E94592381E080937B018091150714
:1017200090E08095909520911607207130E08223FB
:101730009323892B79F080917901833021F08F5F99
:101740008093790102C0109279010E94592381E0AF
:1017500080937B018091150790E080959095209172
:1017600016072C7030E082239323892B09F43FC0A5
:1017700080917901813089F054F481111FC060910A
:10178000F80282E090E00E947E27C1E018C082301B
:1017900081F0833099F482E00DC0C0917801C827B0
:1017A00019F00E94A82102C00E949B21C0937801D9
:1017B00003C081E080937A010E943823C0E081E079
:1017C00080937B0115C08091150790E080959095DE
:1017D000209116072C7030E082239323892B39F057
:1017E00010927A010E94382381E080937B01C0E04F
:1017F0000E949D268C010E94031F012E000C220BCB
:10180000330B6027712782279327611571058105A6
:10181000910511F00E9446278C2FCF911F910F91B7
:1018200008950F931F93CF93DF9310927A0181E075
:1018300080937B01C091F802CC2319F00E94A8216B
:1018400002C00E949B21C09378011092790180917F
:101850005601811161C080E093E090937C078093F2
:101860007B070E9412236F3472448E44914029F00A
:10187000EDE5F1E081E791E03BC0C3E0D0E00BEEA5
:1018800014E40E9425239C012C9FC0012D9F900DE4
:101890003C9F900D1124080F191F2196C031D105CE
:1018A00081F70E9425230817190711F784E093E0B8
:1018B00090937C0780937B07CDE5D1E00E942523A0
:1018C0008993999331E0C137D307C1F70E9425234B
:1018D00090935C0180935B010E94122360935701F7
:1018E000709358018093590190935A0182E012C07D
:1018F000119211928E179F07D9F710925C011092E6
:101900005B011092570110925801109259011092E8
:101910005A0181E0809356010E949D2664E670E0A2
:101920000E94372A8A568093770181E0809376015E
:10193000109275010E949D2664EB70E00E94372A88
:10194000845C80937401DF91CF911F910F91089572
:10195000CF938091E60281508093E60290E00F974A
:1019600063E070E00E94372A8AE39AEAA3EEBEEEB3
:1019700004C0B695A795979587956A95D2F7C82F15
:10198000C170C09373016FEF70E08AE00E9432165D
:101990006FEF70E08BE00E9432168FE7C89F802DBA
:1019A00011246FEF70E0681B710989E00E94321604
:1019B00081E09091E602911180E0CF910895CF925D
:1019C000DF92EF920F931F93CF93DF93EC016B01A4
:1019D0008A014A3051055CF0CA016AE070E00E9459
:1019E000372AAB01B601CE010A970E94DF0CC8016D
:1019F0006AE070E00E94372AAC0184E0440F551F72
:101A00008A95E1F74D575E4FEE24E39400E128E01C
:101A1000B601CE010E948E19DF91CF911F910F91D7
:101A2000EF90DF90CF900895AF92BF92CF92DF9268
:101A3000EF92FF920F931F93CF93DF938C01B62EFB
:101A40006A01FA01C181D0E08081C81BD1090E94DE
:101A50009D2663E070E00E94372A7C01BB2031F0B4
:101A600088E090E09C012E193F097901F6018181FF
:101A700090E0829765E070E00E94372A5B010E9447
:101A80009D2697012C1B3D0BA90137FF04C044275D
:101A90005527421B530B61E170E0641B750BA501D8
:101AA000B7FE04C0442755274A195B09641B750B10
:101AB0000E94372A0897CE15DF0514F4820F931F72
:101AC000B7FE02C08A199B09F6012181820F911D80
:101AD0008833910534F4803191052CF480E190E055
:101AE00002C088E390E0982F9E19F80190838183CB
:101AF000DF91CF911F910F91FF90EF90DF90CF90EA
:101B0000BF90AF900895089580E090E008952F92DF
:101B10003F924F925F926F927F928F929F92AF927D
:101B2000BF92CF92DF92EF92FF920F931F93CF93CA
:101B3000DF93CDB7DEB72F970FB6F894DEBF0FBE99
:101B4000CDBF6A30A1F4FC01E85EFB4F40813297C3
:101B50002081318156E0459F200D311D11243183B4
:101B60002083DC01AC5EBB4F1D921C92F0C020EEC6
:101B7000260F203408F0EBC09F878E878C5E9B4F2A
:101B80009E838D83FC01008111812E853F85285E17
:101B90003B4F3987288700381105D4F0A885B985CF
:101BA0002C91422F50E0ED81FE8180819181F6E001
:101BB0002F9F800D911D1124AD81BE818D939C932B
:101BC000EE85FF85E75EFB4F20812111AAC0BFC0D3
:101BD000EE85FF85EA5EFB4F208131813A832983C0
:101BE00020343105DCF6A885B9858C91482E512C1E
:101BF0009801B5E08B9F200D311D112437FDCECF0C
:101C000029813A81E6E08E9F200D311D112437FD98
:101C1000C5CFEE85FF85E55EFB4F7080EE85FF85C5
:101C2000E65EFB4F608024E0629FF0011124E65DD8
:101C3000F94F85909590A590B490813019F536E0D4
:101C4000D32EE980FA8026E0C22E80FC04C07614F0
:101C500049F0272D01C0262DA701B8018E859F854B
:101C60000E94B621B694A79497948794CA943FEFA4
:101C7000E31AF30AC110E9CFDA940F5F1F4FD110B6
:101C8000E0CF8CCF180156E05B8309811A8186E092
:101C90008C83D201A20DB31DBD87AC8780FC04C02C
:101CA000761461F17F8201C06F826101F201E00F61
:101CB000F11FFB87EA872C853D85C216D306F4F415
:101CC000780117FF02C0E12CF12C8A859B858134B5
:101CD000910514F080E490E0E816F9065CF42F8199
:101CE000A701B6018E859F850E94B6213FEFE31ABA
:101CF000F30AEBCF5FEFC51AD50ADDCFB694A794F0
:101D0000979487948C8181508C83040D151D8111CB
:101D1000C5CF9B8191509B83240C351C9111B5CF6D
:101D20003DCF6AEF64039001659F300D1124205868
:101D30003F4F281739075CF4AE85BF85ED91FC91C4
:101D400011970190F081E02D6AE0CD01099581E0C5
:101D500090E02F960FB6F894DEBF0FBECDBFDF9197
:101D6000CF911F910F91FF90EF90DF90CF90BF9098
:101D7000AF909F908F907F906F905F904F903F902B
:101D80002F9008952F923F925F926F927F928F9241
:101D90009F92AF92BF92CF92DF92EF92FF920F93FA
:101DA0001F93CF93DF93CDB7DEB72E970FB6F8947E
:101DB000DEBF0FBECDBF0E944D1B8091D802909117
:101DC000D902813D23E092072CF081FB222420F8E8
:101DD000312C02C0212C312C6091D6027091D70297
:101DE000C101860F971F9A8389836091D4027091F5
:101DF000D5024101860E971E00E010E072E1672EC9
:101E0000712C877099279E838D8391958195910977
:101E10009C01277033273A872987882799278819B3
:101E200099099C012770332738872F83C901919521
:101E3000819591099C01277033273C872B878091DE
:101E4000D302F801E80FF11DCF01089660E970E0B8
:101E50000E94372A6C017C0153E0F594E7945A956F
:101E6000E1F75C0137E0A322BB24E770FF27E056CF
:101E7000F64F5490C701880F991F9C838B83FC01F8
:101E8000E155FD4F9081292F30E03E872D87A11429
:101E9000B10469F4C7014196B3010E94372AFC01DD
:101EA000EE0FFF1FE155FD4F8081A90111C087E0B2
:101EB000A816B10491F4C7014396B3010E94372AD2
:101EC000FC01EE0FFF1FE155FD4F80814D855E85C2
:101ED000481B51094F5F5F4F02C041E050E02D8524
:101EE0003E8589819A81280F391F3E872D8737FDCE
:101EF0004AC01416150614F041E050E02D853E85C9
:101F0000241735070CF4A9018D859E85841B950B3C
:101F10009E878D87BC01C8010E945F18452D0984EA
:101F200001C046950A94EAF7852D0D8001C0880FFF
:101F30000A94EAF7482BF801E35FFC4F28E030E011
:101F40008D859E85281B390B8D859E851816190653
:101F5000D4F408974CF48FEF90E0022E02C09595D0
:101F600087950A94E2F701C08FEF84239081892B33
:101F70008083E058FF4F8D859E8508979E878D87CB
:101F8000285F3F4FE1CFEB81FC81E155FD4F21817F
:101F900030E0A114B10419F4C701419606C087E0EE
:101FA000A816B10489F4C7014396B3010E94372AE9
:101FB000FC01EE0FFF1FE155FD4F9181892F90E04D
:101FC000821B930B019602C081E090E09C838B837F
:101FD00080E490E07C01E21AF30AE818F908F7FCC3
:101FE00048C02B813C811216130624F081E090E05A
:101FF0009C838B832B813C81E216F30614F4FC82D4
:10200000EB8260E470E06E197F094B81C8010E9489
:102010005F188B819C81E81AF90A852D0F8001C019
:1020200086950A94EAF70B8401C0550C0A94EAF7E6
:10203000582AD801A357B94F28E030E02E193F099C
:102040001E141F04B4F48FEF98E0E916F1042CF489
:10205000022E01C0880F0A94EAF785219C91892BF2
:102060008C93A058B10988E0E81AF108285F3F4F27
:10207000E7CFF601EE0FFF1FE157FE4F40814423EB
:10208000A9F0449FA0011124B6E055954795BA9553
:10209000E1F78181480F511D87FD5A95420D531D6F
:1020A00021E0B80189EF92E00E94B6210F5F1F4F37
:1020B0000038110509F0C3CEE0918E01F0E0EE0F7B
:1020C000FF1FE155FD4F318120918D0140918C0121
:1020D000608170E080918B0181111DC02403C001DB
:1020E000112497FD0796F3E095958795FA95E1F70A
:1020F000830F911D0897880D991D29813A81620FE0
:10210000731F681779070CF4BC01693371052CF053
:1021100068E370E002C0680D791D80918A014695E0
:1021200050E034E0839F400D511D1124E3E0440F43
:10213000551FEA95E1F7465E574F80918901EE24DD
:10214000E39408E028E090E00E948E1980918801D5
:102150008823C9F08695863018F490E0069702C06F
:1021600080E090E010920E0710920D0790931007F8
:1021700080930F07609186017091870180E090E065
:102180004AE00E940A1B80918501882329F18091F1
:102190008301909184018831910524F440979A83BA
:1021A000898304C028E030E03A83298300E020E1FD
:1021B00040E469817A8180E290E00E94C818EE24B0
:1021C000E39400E120E440E259E069817A8180E211
:1021D00090E00E948E19B6C080918B01882309F48B
:1021E000B1C080918301909184019A83898380EDAD
:1021F00091E06C0129813A81C21AD30A1C141D0492
:1022000014F4C12CD12C00E020E148E5B60184E1B2
:1022100090E00E94C818EE24E39400E128E540E72E
:1022200058E0B60184E190E00E948E1989819A817C
:10223000813C21E092071CF08059914002C080E36C
:1022400090E09A8389838091820190E09C012E5FC7
:102250003F4F220F220F220F33E0880F991F3A952C
:10226000E1F769817A81681B790B00E048E48CE131
:1022700090E00E94C81840918601509187016981C1
:102280007A818AE590E00E94DF0C0EE110E0109365
:102290000E0700930D0789819A810396909310078A
:1022A00080930F076BE678E089EF92E00E94401878
:1022B00010930E0700930D0789819A8109969093D8
:1022C000100780930F0765E678E089EF92E00E949F
:1022D0004018809182018823A9F18091D8029091C1
:1022E000D90268E070E00E94372A04975CF582E228
:1022F00090E090930E0780930D0729813A81265034
:1023000031093093100720930F076AE578E089EFD1
:1023100092E02E960FB6F894DEBF0FBECDBFDF91D0
:10232000CF911F910F91FF90EF90DF90CF90BF90D2
:10233000AF909F908F907F906F905F903F902F9085
:102340000C9440182E960FB6F894DEBF0FBECDBF8A
:10235000DF91CF911F910F91FF90EF90DF90CF9081
:10236000BF90AF909F908F907F906F905F903F90C5
:102370002F9008950F931F93CF93DF9381E0809365
:10238000850110928B0188E790E0909384018093FF
:102390008301109287011092860110928801109299
:1023A000D3021092D9021092D80210927C0110929E
:1023B0007E0110927D0180E280938101EFEAF2E0DC
:1023C00090E288E290838183329622E0E13CF2073A
:1023D000C9F7C0E0D0E08E0101541D4F80917C010F
:1023E0009FEF980F90937C0187FF1EC00E949D264F
:1023F000092E000CAA0BBB0B9C01AD0130584F4FAE
:102400005F4FA0918601B09187010E94C827DC012F
:10241000CB0126E1B595A795979587952A95D1F794
:1024200080937C0161E001C060E0A801CE018F5380
:102430009D4F0E94140D2296C231D10561F6EFE83E
:10244000F1E08FEA92E0108232968E179F07D9F75B
:102450001092890181E080938E0180938A0110920D
:102460008C0110928D0160E08AEA97E0DF91CF91B4
:102470001F910F910C945C19AF92BF92CF92DF9293
:10248000EF92FF920F931F93CF93DF93809185017B
:10249000811105C080918B01882309F40AC38091C2
:1024A000830190918401019790938401809383012B
:1024B000892B11F41092850110918501111111C021
:1024C0008091D8029091D902029620918B01821BB3
:1024D000910960E074E00E94372A9093D9028093BA
:1024E000D802E090D802F090D90280EDE81683E09F
:1024F000F80629F462E081E198E00E945C19B701D6
:10250000FF0C880B990B0E94B6282BED3FE049E4A5
:1025100050E40E94812920E030E040E05BE30E942B
:1025200081290E94792820E030E040E05FE30E94AA
:1025300081299B01AC0160E070E080E09FE30E9494
:102540000C286B017C016091810170E080E090E0DB
:102550000E94B6289B01AC01C701B6010E948129E7
:102560000E947E286B017C019B0170938001609327
:102570007F01CB018095909597FD01969595879564
:102580009093D7028093D602C60137FD01969595A8
:1025900087959093D5028093D402B0908B01BB2095
:1025A00089F08091150790E080959095209116070D
:1025B0002C7030E082239323892B09F468C00E9499
:1025C000BA1165C080918C01811165C0111108C0DC
:1025D00090911607892F807296FF08C0811178C0EC
:1025E00081E080938A0101E010E00CC0882309F4A7
:1025F0006FC010928A0180918901882309F468C014
:102600000FEF1FEF20918E0130E0C901800F911F65
:10261000429662E170E00E94372ADC01AA0FBB1FDC
:10262000A155BD4F1196AC901197220F331FF901A0
:10263000E155FD4F21816A2D70E03081422F50E03D
:10264000EC914E1B5109631B7109461757070CF497
:10265000BA016C0D7D1D68307105D4F12A192093E3
:102660008D0180938E0188E080938C018091890197
:10267000080F111D093311050CF068C18091850107
:10268000811105C063E083E098E00E945C198091AD
:102690008C018823E9F0815080938C0180918A011C
:1026A000880F90918901890F9FEF980F993318F443
:1026B000909389010DC08250809389018091D3024B
:1026C00090E0019660E970E00E94372A8093D3027F
:1026D0002091D4023091D502EFE8F1E0E12CF12C09
:1026E000C70187709927892B79F4D70173E0B595D5
:1026F000A7957A95E1F7AA0FBB1FA155BD4F11967B
:102700008C91E901C80FD11D8081882399F08F5FDA
:102710008083889FC001112466E0959587956A950E
:10272000E1F74181840F911D47FD9A95C817D9079C
:102730000CF410829FEFE91AF90A329680E9E81644
:10274000F10471F680918501811132C00E949D26AD
:102750006091D8027091D90256E0759567955A95A7
:10276000E1F76F5F7F4F0E94372A892B09F50E949E
:102770009D26B7010E94372ADC01AA0FBB1FA15773
:10278000BE4F2C91211114C021E02C9397FD079688
:10279000FC0133E0F595E7953A95E1F7EE0FFF1F61
:1027A000E155FD4F90818091D602890F11968C934F
:1027B000809185018111A6C08091D8029091D902A3
:1027C000892B09F09FC080917D0190917E01019637
:1027D00090937E0180937D01209181012F3F19F01C
:1027E0002F5F20938101E0918E01F0E0EE0FFF1F3B
:1027F000E155FD4F218130E04081241B3109243017
:1028000031050CF07FC021E020938B01982F8827A1
:10281000990F092E000CAA0BBB0B20918601309159
:1028200087013093720120937101E1E7F1E0CAE082
:10283000D0E0AE0141505109729162916217730765
:1028400008F4CEC031C180915B0190915C010E947F
:10285000FF22609157017091580180915901909128
:102860005A010E94EB22EDE5F1E023E030E04BEE6F
:1028700054E461917191269FC001279F900D369F6E
:10288000900D1124480F591F2F5F3F4F2D303105F8
:1028900081F7C0905701D0905801E0905901F09015
:1028A0005A0180915B0190915C016DE0689F9001FD
:1028B000699F300D11246EE06C9DC0016D9D900DDF
:1028C0001124820F931F6FE06E9D90016F9D300D5C
:1028D0001124820F931F840F951F0E94FF2282E014
:1028E0008093560181E0C11180E08093820180EEE7
:1028F00091E0909384018093830161E08CEC97E0F8
:102900000E945C192091890180918B01909188012E
:10291000203330F020918501211102C0882321F05D
:10292000992339F0915003C0903218F49F5F90932F
:102930008801882309F4BFC081E020918301309190
:102940008401232B09F4B7C080E0B5C0E090D30226
:10295000E694E694E694F12CC701419662E170E0BA
:102960000E94372A8C01000F111F01551D4F8091C5
:102970007C019FEF980F90937C0187FF1EC00E94FF
:102980009D26092E000CAA0BBB0B9C01AD013058F3
:102990004F4F5F4FA0918601B09187010E94C827D9
:1029A000DC01CB0136E1B595A795979587953A95CA
:1029B000D1F780937C01BB24B394C701880F991F82
:1029C000A8016B2D81559D4F0E94140D80918601A9
:1029D00090918701019690938701809386014ECE56
:1029E0004930510529F0738362834115510511F077
:1029F000EA011FCFC0E0D0E0FE01EE0FFF1FE35A57
:102A0000FE4F3183208320915B0130915C012F5F69
:102A10003F4F30935C0120935B01409157015091EF
:102A200058016091590170915A01840F951FA61F9A
:102A3000B71F8093570190935801A0935901B09309
:102A40005A0180915601813061F480E093E09093C7
:102A50007C0780937B076FE472E48EE491E00E9430
:102A6000EB22CE018E579E4F880F991F8031910522
:102A700014F480E190E090937C0780937B078E01B3
:102A8000000F111F035A1E4F7E019AE0E916F10450
:102A900009F4D9CEF801819191918F010E94FF2212
:102AA000FFEFEF1AFF0AF1CFCA30D10509F4ABCF1F
:102AB000A3CF10E005CDDF91CF911F910F91FF9033
:102AC000EF90DF90CF90BF90AF900895CF92DF92BC
:102AD000EF92FF920F931F93CF93DF936C017A01D4
:102AE0008B01C0E0D0E0CE15DF0581F0D8016D91FB
:102AF0008D01D601ED91FC910190F081E02DC60190
:102B00000995892B11F02196EECF7E01C701DF9147
:102B1000CF911F910F91FF90EF90DF90CF9008958C
:102B2000362F90E0FC01E855F64F4491FC01EB5143
:102B3000F64F2491FC01EE5EF54F8491882309F451
:102B400052C04423E1F150E0FA013197EF30F10532
:102B5000B0F5EA5AFF4F0C944B2A909180009F7772
:102B600007C0909180009F7D03C090918000977F67
:102B70009093800024C094B59F7702C094B59F7D48
:102B800094BD1DC0909190009F7707C090919000D8
:102B90009F7D03C090919000977F909390000FC00D
:102BA0009091C0009F7703C09091C0009F7D90934B
:102BB000C00005C09091C200977F9093C200E82F9B
:102BC000F0E0EE0FFF1FEC5FF54FA591B4919FB7BA
:102BD000F894311104C08C912095282302C0EC9107
:102BE0002E2B2C939FBF0895CF93DF9390E0FC0191
:102BF000EB51F64F2491FC01EE5EF54F8491882352
:102C000061F190E0880F991FFC01E753F64FC591E1
:102C1000D491FC01EC5FF54FA591B491611109C00D
:102C20009FB7F8948881209582238883EC912E2386
:102C30000BC0623061F49FB7F8948881322F3095D1
:102C400083238883EC912E2B2C939FBF06C08FB7D4
:102C5000F894E8812E2B28838FBFDF91CF910895C0
:102C60000E94652A1F93CF93DF93182FEB0161E039
:102C70000E94F415209711F460E004C0CF3FD10505
:102C800039F461E0812FDF91CF911F910C94901561
:102C9000E12FF0E0E855F64FE4918E2F90E0FC0133
:102CA0003197EF30F10508F06CC0EB59FF4F0C94F1
:102CB0004B2A84B5806884BDC7BD68C084B5806276
:102CC00084BDC8BD63C0809180008068809380000F
:102CD000D0938900C093880059C0809180008062A1
:102CE00080938000D0938B00C0938A004FC0809166
:102CF0008000886080938000D0938D00C0938C000A
:102D000045C080919000806880939000D093990096
:102D1000C09398003BC080919000806280939000A7
:102D2000D0939B00C0939A0031C08091900088603E
:102D300080939000D0939D00C0939C0027C0809109
:102D4000C00080688093C0008091C0008F7B80931A
:102D5000C000C093CF001AC08091C00080628093F1
:102D6000C000C093D00012C08091C20088608093E0
:102D7000C2008091C2008B7F8093C200C093D200BA
:102D800005C0C038D1050CF07CCF76CFDF91CF9154
:102D90001F9108958F929F92AF92BF92CF92DF9230
:102DA000EF92FF926B017C010E94031F4B015C01BB
:102DB000C114D104E104F104F1F00E94031FDC010D
:102DC000CB0188199909AA09BB09883E9340A1053E
:102DD000B10570F321E0C21AD108E108F10888EECC
:102DE000880E83E0981EA11CB11CC114D104E1041B
:102DF000F10419F7DDCFFF90EF90DF90CF90BF90F7
:102E0000AF909F908F9008952091F102211103C0FF
:102E10008FEF9FEF08955FB7F89422E02093E900C9
:102E20002091F20030E01216130614F421E030E095
:102E3000422FFC0184E6415038F028988093F0023C
:102E40009091F1009193F7CF2115310521F08091F8
:102E5000F200882319F05FBFC90108958BE68093C3
:102E6000E800F9CF2FB7F89483E08093E9009091C0
:102E7000E800892F807295FF04C09091F20080E4F1
:102E8000891B2FBF0895CF93DF931F92CDB7DEB775
:102E90006983DC01ED91FC910280F381E02D41E03A
:102EA00050E0BE016F5F7F4F09950F90DF91CF918A
:102EB000089583E08093E9008091F200882319F05F
:102EC0008AE38093E80008950E94321790E0089505
:102ED000CF93DF931F92CDB7DEB7FC018485958534
:102EE00097FD05C02FEF3FEF358724870BC0CE013C
:102EF00001960E940417019719F4898190E002C09D
:102F00008FEF9FEF0F90DF91CF9108950F931F9355
:102F1000CF93DF931F92CDB7DEB78C01FC01848580
:102F2000958597FF0EC0CE0101960E940417019768
:102F300019F4898190E002C08FEF9FEFF801958727
:102F40008487F801848595850F90DF91CF911F913B
:102F50000F9108958F929F92AF92BF92CF92DF927E
:102F6000EF92FF920F931F93CF93DF936C017B013E
:102F70008A0180910701882309F45CC08091F102E5
:102F8000882309F457C08091EF0280FF05C080912B
:102F9000E00082608093E000E801B12C8AEFA82E67
:102FA00093E0892E2AE3922E209711F4BB20D9F1C9
:102FB0000E94321781110AC0AA94AA20D9F161E0B7
:102FC00070E080E090E00E94CA16EECF282F30E03B
:102FD000C217D3070CF48C2F9FB7F8948092E900A6
:102FE0002091E80025FF1DC0282F30E0C21BD30B25
:102FF000F701815020F041914093F100FACFE20EA9
:10300000F31EBB2019F09092E8000AC08091E800FE
:1030100085FD07C09092E800BB24B394209709F087
:10302000B12C9FBFC1CF5D9884E68093EE0210164D
:10303000110644F081E090E0F6019383828380E002
:1030400090E001C0C801DF91CF911F910F91FF90D7
:10305000EF90DF90CF90BF90AF909F908F900895AA
:103060006115710551F0FB0101900020E9F73197DE
:10307000AF01461B570B0C94661580E090E0089555
:10308000EF92FF920F931F93CF93DF938C017B01FD
:10309000C0E0D0E0F701EC0FFD1F6491662339F02A
:1030A000C8010E94870D892B11F02196F3CFCE0124
:1030B000DF91CF911F910F91FF90EF900895CF93E3
:1030C000DF9377FF13C0EE27FF27E61BF70B242FB4
:1030D000042E000C330BE217F3070CF056C0460F1A
:1030E00014160CF052C060E070E007C014160CF02B
:1030F0004CC0603471050CF048C08038910508F070
:1031000044C09B01240F311D47FD3A952134310500
:1031100014F040E4461B362F37702FEF032E01C00A
:10312000220F0A94EAF7430F631B710977FF02C06D
:10313000695F7F4F33E0759567953A95E1F776952E
:10314000762F662777956795680F791FFB01E35FF8
:10315000FC4F68E070E0AFEFB0E01416B4F4483014
:1031600064F4CB01841B910947FD9395ED0102C0E6
:10317000D595C7958A95E2F72C238081282B20834B
:103180004850E058FF4F2FEFE8CFDF91CF910895DF
:10319000EF92FF920F93CF93DF93FC0197FF0DC047
:1031A000842F90E0AA27BB27AE1BBF0BA817B90737
:1031B0000CF07CC04E0FE0E0F0E077FF0FC0AA27D4
:1031C000BB27A61BB70B822F022E000C990BA8174A
:1031D000B9070CF06BC0260F60E070E0442309F4DF
:1031E00065C0E038F1050CF061C012160CF05EC04D
:1031F000603471050CF05AC0CF01840F911D8138E5
:10320000910514F040E84E1BCB01820F911D27FD64
:103210009A958134910514F020E4261B862F87703F
:103220009FEF082E01C0990F0A94EAF7280F681B38
:10323000710977FF02C0695F7F4F83E075956795DD
:103240008A95E1F77695762F6627779567956E0FC5
:103250007F1F635F7C4FA8E0B0E0CFEFD0E0121695
:103260002CF5283064F4FD01E21BF10927FDF395EC
:103270007E0102C0F594E794EA95E2F79E210111E0
:103280000DC09095FB01842F3081392331938150FB
:10329000D9F7285060587F4F9FEFE1CFFB01842F73
:1032A0003081392B31938150D9F7F3CFDF91CF9112
:1032B0000F91FF90EF9008950F931F93CF93DF939B
:1032C0002091F802222329F1162FEC018091F302BC
:1032D000882381F0809117078617D8F000E080914D
:1032E000F202081728F4802F0E94AD200F5FF7CF5D
:1032F0001092F30210931707D093F702C093F602CF
:10330000D093F502C093F4020E94D02081E0809314
:10331000F302DF91CF911F910F9108952F923F9269
:103320004F925F926F927F928F929F92AF92BF92D5
:10333000CF92DF92EF92FF920F931F93CF93DF9381
:10334000CDB7DEB72F970FB6F894DEBF0FBECDBF57
:10335000EB82E22EF12CFF86EE869701280F391FB3
:1033600037FD3FC1803891050CF03BC19B01200F18
:10337000311D37FD36C1603471050CF032C1DB01FF
:1033800077FF04C0AA27BB27A61BB70BA770BB27D4
:103390009B0177FF02C0295F3F4FE3E035952795FA
:1033A000EA95E1F777FF08C02150310968E070E045
:1033B000FB01EA1BFB0BDF01E02FE695E695E695A6
:1033C000F0E0077009F03196B9017695762F6627FF
:1033D00077956795680F791F67507D4F7F01E20EE3
:1033E000F31EFF82EE82C12CD12CE8E0F0E08F01C9
:1033F0000A1B1B0B1D830C83EE80FF80E216F30675
:1034000009F4EFC02830310509F4EBC02F3F0FEF6E
:1034100030070CF4D9C08B010C561F4F1A83098357
:10342000045111095B014B013B012C011801198664
:103430001886EE84FF84E885F985EE15FF050CF00B
:10344000C3C0F0E84F16510409F4BEC057FCA0C039
:103450002F3FEFEF3E0709F4C0C0E884F984EC0C7D
:10346000FD1CFB81F130A9F4F701E40FF51FE49195
:10347000EE2EF12CF7010A2E02C0EE0FFF1F0A9468
:10348000E2F7FB87EA87F401E488FA85EF2AF40182
:103490002CC0FB81F11116C0F701E40FF51FE49178
:1034A000F0E00A2E02C0EE0FFF1F0A94E2F77F0140
:1034B000E094F094FB86EA86F501E488FA85EF2231
:1034C000F50113C0F701E40FF51FE491F0E07F016F
:1034D0000A2E02C0EE0CFF1C0A94E2F7FB86EA8675
:1034E000F301E488FA85EF26F301E48A109709F4E2
:1034F0004FC02730310509F44BC0E884F984EC0C47
:10350000FD1CFB81F130B9F4F701E40FF51FE491E4
:10351000F0E07F010C8002C0F594E7940A94E2F792
:10352000FB86EA86E981FA81E080FA85EF2AE98163
:10353000FA81E0822DC0FB81F11116C0F701E40F82
:10354000F51FE491F0E00C8002C0F595E7950A9430
:10355000E2F77F01E094F094FB86EA86F801E488C4
:10356000FA85EF22F80113C0F701E40FF51FE4918B
:10357000F0E07F010C8002C0F594E7940A94E2F732
:10358000FB86EA86F101E488FA85EF26F101E48AF8
:10359000E885F9853196F987E887E981FA813196DE
:1035A000FA83E9830F5F1F4FFFEF2F1A3F0AEFEFF8
:1035B0004E1A5E0AFFEF6F1A7F0AEFEF8E1A9E0A0D
:1035C000FFEFAF1ABF0A35CF2F5F3F4F60587F4FD5
:1035D000EE84FF84CE0CDF1C0FCF109709F08DCF47
:1035E000D7CF2F960FB6F894DEBF0FBECDBFDF91B9
:1035F000CF911F910F91FF90EF90DF90CF90BF90F0
:10360000AF909F908F907F906F905F904F903F9082
:103610002F9008958F929F92AF92BF920F931F9316
:10362000CF93DF93CDB7DEB7A1970FB6F894DEBF87
:103630000FBECDBF19A2423008F44AE08E010F5DE3
:103640001F4F842E912CA12CB12CA50194010E9416
:10365000DB27E62FB901CA0101501109EA3014F441
:10366000E05D01C0E95CD801EC93232B242B252BD2
:1036700061F7B80189EF92E00E943018A1960FB669
:10368000F894DEBF0FBECDBFDF91CF911F910F9198
:10369000BF90AF909F908F90089520E08DE093E0D1
:1036A000B22FB111BFEFFC010024B193B193B193DC
:1036B000B1930394D1F7089580911D0781110DC036
:1036C00082E08093190784E080931A0710921C0708
:1036D00010921B0781E080931D0789E197E0089510
:1036E000FC018485958597FD0BC09FB7F89482E017
:1036F0008093E9008091F2009FBF90E001960895C9
:103700009FB7F89482E08093E9008091F2009FBF18
:1037100090E00895409178075091790720917607BD
:103720003091770742175307B4F49091E8009570F1
:10373000E1F39091E80092FD19C08093F10080912F
:1037400078079091790701968F739927892B19F43F
:103750008EEF8093E8008091780790917907019629
:10376000909379078093780781E0089580E0089529
:10377000DF92EF92FF920F931F93CF93DF93D82E98
:10378000F92EE42E062F10E0C8010196880F0E9442
:103790008A1B83E00E948A1BCD2DDF2D0C0F1D1F7D
:1037A000C017D10789F0E7FE03C0FE01849101C074
:1037B00088810E948A1BF82E80E00E948A1B8F213C
:1037C00021968111EDCF01C081E0DF91CF911F9152
:1037D0000F91FF90EF90DF900895DF92EF92FF92AC
:1037E0000F931F93CF93DF93D82E8A017B01E40EB2
:1037F000F51EEB01CE15DF0571F0D7FE03C0FE010B
:10380000849101C088810E948A1B21968111F2CF88
:103810008FEF9FEF01C0C801DF91CF911F910F91F2
:10382000FF90EF90DF900895615030F02091F1000B
:10383000FC0120830196F8CF289884E68093F0025B
:1038400008950F931F93CF93DF931F92CDB7DEB7E9
:1038500082E0898342E450E064E47AE080E80E94F8
:10386000ED1B0E945C1BDC0112960D911C911397BD
:103870000115110589F0D801ED91FC910280F381C9
:10388000E02DBE016F5F7F4FC801099597FD04C011
:10389000F80100851185ECCF89810F90DF91CF91E0
:1038A0001F910F9108951F920F920FB60F9211243E
:1038B0008F939F938091E1009091E100937F90938B
:1038C000E10083FF0FC01092E90091E09093EB00BC
:1038D0001092EC0092E39093ED001092F10298E0C8
:1038E0009093F00082FF20C093E09093E9009091C4
:1038F000F200992319F09AE39093E8009091EE0278
:10390000992339F09091EE0291509093EE02992311
:1039100089F19091F002992339F09091F002915041
:103920009093F002992341F184FF10C08091E2004E
:103930008E7E81608093E2008091E1008F7E809393
:10394000E1008091EF028E7E806111C080FF16C081
:103950008091E2008E7E80618093E2008091E100A0
:103960008E7E8093E1008091EF028E7E8160809355
:10397000EF0204C05D9ACDCF289AD6CF9F918F9148
:103980000F900FBE0F901F9018951F920F920FB6B9
:103990000F921124CF92DF92EF92FF920F931F9319
:1039A0002F933F934F935F936F937F938F939F9347
:1039B000AF93BF93EF93FF93CF93DF93CDB7DEB772
:1039C0006C97DEBFCDBF1092E9008091E80083FFC5
:1039D000FBC168E0CE0145960E94141C82EF8093E3
:1039E000E8008D8987FF05C09091E80090FFFCCF2B
:1039F00003C09EEF9093E800982F907609F0C6C020
:103A00009E894F89588D2F89F88C91110CC0803870
:103A100029F4809175078093F10002C01092F100A3
:103A20001092F10045C1913051F4811141C14130F2
:103A3000510509F03DC1809175078D7F0BC0933012
:103A400061F4811135C14130510509F031C18091D6
:103A500075078260809375072BC1953049F480917A
:103A6000E80080FFFCCF822F80688093E30020C1B4
:103A7000963009F05EC00B8D1C8D22E01092E9009B
:103A80001092790710927807F21232C010927707DD
:103A9000109276070E94211C99E0BE016F5F7F4F54
:103AA000DB01E92F1D92EA95E9F79983FA8291E00B
:103AB0009E8390EA98879AEF9987209178073091B2
:103AC0007907275F3F4F3C832B838D831092E9005A
:103AD0001092790710927807109377070093760772
:103AE00049E050E080E00E94ED1B0E94211CE0C0F4
:103AF00010937707009376070E945C1BDC011296F7
:103B00000D911C9113970115110509F4BBC0D80143
:103B1000ED91FC910480F581E02DBE016B5E7F4F3D
:103B2000C8010995009709F0C7C0F8010085118503
:103B3000EACF973009F445C1983021F481E08093B1
:103B4000F100B6C0993009F0B3C0837009F039C1F3
:103B5000E5E4F1E081E031E096E32081211109C044
:103B60008EE78093EA001092EA008F898093F10239
:103B70009FC08093E9003093EB0021912093EC00EB
:103B80009093ED008F5F873041F7EACF8B8D9C8D4E
:103B90001092E900109279071092780790937707B6
:103BA00080937607898D811153C08E899D89913AC2
:103BB00049F4813209F005C147E050E060E071E06E
:103BC00080E0BBC0913209F0FCC0833269F48F8978
:103BD000988DA0E0B0E08093080190930901A09334
:103BE0000A01B0930B0164C0803269F48091E8004F
:103BF00082FFFCCF67E080E091E00E94141C8BEF15
:103C00008093E80055C0823209F052C08F898093BA
:103C10000701EEEFFFE7859194918B3F9C4D19F0E2
:103C2000E0E0F8E002C0EEEFFAE080910001909150
:103C30000101A0910201B0910301803B9440A105D4
:103C4000B10509F09EC08091070180FF79C099C03D
:103C50000E945C1BFC01028113810115110509F40E
:103C6000B0C0D801ED91FC910190F081E02DBE0132
:103C70006B5E7F4FC801099581111AC0F80100855C
:103C80001185EBCFF1E0FF1609F44EC0F3E0FF120F
:103C900098C08F89882309F44AC0823089F440E8AB
:103CA00067E088EA9AE00E94B81B882309F489C07B
:103CB0008EEF8093E80088C018161906CCF381C0F7
:103CC000813029F440E86BE08CE99AE0ECCF833056
:103CD00009F077C00E945C1BDC011296ED90FC900D
:103CE00013978E010F5F1F4F6801E114F10479F003
:103CF000D701ED91FC910680F781E02DB801C70155
:103D00000995080F111DF701E084F184EECFD80169
:103D10001C92F60101900020E9F73197BF016C1960
:103D20007D0940E0C601BFCF6AE87AE002C066E8DC
:103D30007AE0FB01449150E080E80E94ED1BB8CF8F
:103D4000EE3F2AE0F20751F0808191818737A7E7A3
:103D50009A0721F09093FF0A8093FE0A87E797E77E
:103D6000918380838091600080937A079BE088E153
:103D70000FB6F894A895809360000FBE90936000F2
:103D800097CF808191818737974709F091CFA89588
:103D90008091600088618093600080917A078093B1
:103DA0006000EE3FBAE0FB0739F08091FE0A909187
:103DB000FF0A918380837CCF1092FF0A1092FE0A43
:103DC00077CF81E28093EB006C960FB6F894DEBF5C
:103DD0000FBECDBFDF91CF91FF91EF91BF91AF911A
:103DE0009F918F917F916F915F914F913F912F9113
:103DF0001F910F91FF90EF90DF90CF900F900FBE2B
:103E00000F901F9018953FB7F89480918A07909172
:103E10008B07A0918C07B0918D0726B5A89B05C094
:103E20002F3F19F00196A11DB11D3FBFBA2FA92F39
:103E3000982F8827820F911DA11DB11DBC01CD01B6
:103E400042E0660F771F881F991F4A95D1F70895A2
:103E50001F920F920FB60F9211242F933F938F93BF
:103E60009F93AF93BF938091E7029091E802A09156
:103E7000E902B091EA023091890723E0230F2D3740
:103E800020F40196A11DB11D05C026E8230F02965E
:103E9000A11DB11D209389078093E7029093E8024A
:103EA000A093E902B093EA0280918A0790918B0770
:103EB000A0918C07B0918D070196A11DB11D809333
:103EC0008A0790938B07A0938C07B0938D07BF91BF
:103ED000AF919F918F913F912F910F900FBE0F90B7
:103EE0001F9018958FB12CB193B130E0209530958B
:103EF00020743327A90123E0559547952A95E1F7CA
:103F0000292F30E02095309520713327359527955E
:103F100035952795242B8095807F822B089583B734
:103F2000817F83BF83B7816083BF889583B78E7F8E
:103F300083BF0895E091E402F091E50290818091C1
:103F4000E302892B8083E091E102F091E20290810B
:103F50008091E002809589238083E091E402F091D2
:103F6000E50290818091E302809589238083089502
:103F7000E091E102F091E20290818091E002892BD0
:103F80008083E091E402F091E50290818091E30268
:103F90008095892380830895CF92DF92EF92FF92DC
:103FA0000F931F93CF93E82FF0E0E953F64FC4919E
:103FB000E62FF0E0603330F4E05BFF4EE4910E2F2B
:103FC00010E006C0EE0FFF1FE05BF04F059114916B
:103FD0006801E12CF12C60E074E284EF90E0A7012D
:103FE00096010E94A927BA01A9014150510961090E
:103FF00071094115510581E06807710580F060E99C
:1040000070ED83E090E0A70196010E94A927BA0114
:10401000A901415051096109710983E001C081E0A2
:10402000C130C9F0C33031F590919100987F892B50
:1040300080939100509399004093980010938807C3
:104040000093870781E080938607809171008260EA
:10405000809371000FC090918100987F892B80938D
:104060008100509389004093880080916F008260A6
:1040700080936F00CF911F910F91FF90EF90DF9091
:10408000CF9008951F920F920FB60F9211248F9325
:104090009F93AF93BF93EF93FF9380918107882302
:1040A00009F447C080917D0790917E07A0917F071A
:1040B000B0918007892B8A2B8B2B51F19091DD02D7
:1040C000E091DE02F091DF02808189278083809178
:1040D0007D0790917E07A0917F07B0918007181609
:1040E00019061A061B0674F580917D0790917E07CC
:1040F000A0917F07B09180070197A109B109809332
:104100007D0790937E07A0937F07B09380071AC026
:104110001092810780916F008D7F80936F00809156
:10412000DD02E091DE02F091DF029081809589232B
:1041300008C09091DD02E091DE02F091DF02808103
:1041400089278083FF91EF91BF91AF919F918F91CC
:104150000F900FBE0F901F901895E82FF0E0E953D5
:10416000F64FE491E13019F0E33069F00895809161
:104170006F008D7F80936F008091DD02E091DE0201
:10418000F091DF0208C0109286078091DA02E09178
:10419000DB02F091DC029081809589238083089571
:1041A000E091F402F091F502BF016F5F7F4F7093D1
:1041B000F5026093F4022491922F907F822F8F70EA
:1041C000903819F40E94AD20EBCF903981F43296EB
:1041D000F093F502E093F402FB0164919091F202F6
:1041E0008917F0F667FDDCCF0E94CC1FD9CF903E37
:1041F00049F48091F6029091F7029093F502809332
:10420000F402CECF903F19F41092F302089597FD77
:10421000C7CF3296F093F502E093F402FB01A4912C
:10422000B0E0B22B20918707309188070E94FD27CC
:104230006C507E4F8F4F9F4F28EE33E040E050E0B0
:104240000E94DB27209382073093830740938407E3
:10425000509385078091820790918307A0918407EE
:10426000B0918507892B8A2B8B2B61F481E090E03C
:10427000A0E0B0E08093820790938307A093840727
:10428000B093850708951F920F920FB60F921124D5
:104290002F933F934F935F936F937F938F939F934E
:1042A000AF93BF93EF93FF9380918607882349F0E4
:1042B0009091DA02E091DB02F091DC0280818927A3
:1042C00080838091F302882329F180918207909165
:1042D0008307A0918407B0918507892B8A2B8B2BAC
:1042E000C9F08091820790918307A0918407B091D3
:1042F00085070197A109B1098093820790938307ED
:10430000A0938407B0938507892B8A2B8B2B11F4FC
:104310000E94D020FF91EF91BF91AF919F918F911B
:104320007F916F915F914F913F912F910F900FBEB1
:104330000F901F9018951092F802E4E6F0E080814B
:1043400088608083E5E6F0E080818860808308955E
:10435000E4E6F0E08081877F8083E5E6F0E080811D
:10436000877F808381E08093F8020895603871052B
:1043700028F54034510510F5DA0133E0B595A795DD
:104380003A95E1F7FD01F695FE2FEE27F795E795B3
:10439000477055276E0F7F1FFC01E60FF71F81E066
:1043A00090E001C0880F4A95EAF7222319F094891A
:1043B000892B03C0809594898923848B08952F923B
:1043C0003F924F925F926F927F928F929F92AF92A5
:1043D000BF92CF92DF92EF92FF920F931F93CF93F2
:1043E000DF93CDB7DEB72A970FB6F894DEBF0FBEC6
:1043F000CDBF6A30A1F4FC01E85EFB4F40813297EB
:104400002081318158E0459F200D311D11243183D9
:104410002083DC01AC5EBB4F1D921C92C3C06D308B
:1044200009F4C0C09A8789878C5E9B4F9B838A83DF
:10443000FC010081118129853A85285E3B4F3D832F
:104440002C8300381105D4F0AC81BD812C91422F12
:1044500050E0EA81FB8180819181F6E02F9F800D01
:10446000911D1124AA81BB818D939C93E985FA85C6
:10447000E75EFB4F2081211167C094C0E985FA8572
:10448000EA5EFB4F60807180B0E46B167104E4F665
:10449000EC81FD814080C801F5E04F9E800D911DAB
:1044A00011241816190684F6242C312CC30128E097
:1044B000429E800D911D1124181619062CF6A5E0B8
:1044C0006A9FC001112498878F83E12CF12CB5E0FD
:1044D000EB1641F0EF81F885EE0DFF1DE055F54F2D
:1044E000549001C0512C6301E8E0E983F52DF1708F
:1044F000FE8358018A2D801B8415A0F44601882D67
:104500008C19841558F42E81A401B50189859A85EA
:104510000E94B6212FEF821A920AF1CF3FEFA31A21
:10452000B30AE8CF5694598151505983C20CD31C19
:104530005111DCCF8FEFE81AF80A020D131D96E037
:10454000E916F10421F680CF6AEF64039001659FBC
:10455000300D112420583F4F281739071CF5A98525
:10456000BA85ED91FC9111970190F081E02D6AE000
:10457000CD012A960FB6F894DEBF0FBECDBFDF91F6
:10458000CF911F910F91FF90EF90DF90CF90BF9050
:10459000AF909F908F907F906F905F904F903F90E3
:1045A0002F9009942A960FB6F894DEBF0FBECDBFA8
:1045B000DF91CF911F910F91FF90EF90DF90CF90FF
:1045C000BF90AF909F908F907F906F905F904F9033
:1045D0003F902F900895AB01BC01F999FECF8091D7
:1045E0007B0790917C070E948C2780917B0790919C
:1045F0007C07049690937C0780937B070895F99934
:10460000FECFBC0180917B0790917C070E9494278C
:1046100080917B0790917C07029690937C07809312
:104620007B070895CF93DF93F999FECFC0917B0765
:10463000D0917C07CE010E9472272496D0937C07EC
:10464000C0937B07DF91CF910895CF93DF93F999C2
:10465000FECFC0917B07D0917C07CE010E947827C6
:104660002296D0937C07C0937B07DF91CF9108956A
:1046700081E080938107E1E8F0E08081887F8160BC
:1046800080838BE395E3909389008093880087E192
:1046900090E0A0E0B0E080937D0790937E07A09328
:1046A0007F07B0938007EFE6F0E08081826080832F
:1046B000089581E080938107E1E8F0E08081887FC0
:1046C0008160808384E097E49093890080938800E0
:1046D00088E090E0A0E0B0E080937D0790937E07B3
:1046E000A0937F07B0938007EFE6F0E080818260BF
:1046F00080830895789484B5826084BD84B5816098
:1047000084BD85B5826085BD85B5816085BD80919C
:104710006E00816080936E00109281008091810014
:10472000826080938100809181008160809381000C
:1047300080918000816080938000809191008260F0
:10474000809391008091910081608093910080918D
:1047500090008160809390008091C100846080937C
:10476000C1008091C10082608093C1008091C1002E
:1047700081608093C1008091C30081608093C300F9
:104780008091C00082608093C0008091C2008160EF
:104790008093C20080917A00846080937A00809137
:1047A0007A00826080937A0080917A0081608093A1
:1047B0007A0080917A00806880937A001092F102EA
:1047C000109275071092EF028091D700816080935C
:1047D000D70080EA8093D80089B5806189BD89B50A
:1047E000826089BD09B400FEFDCF61E070E080E029
:1047F00090E00E94CA168091D8008F7C80618093DF
:10480000D8008091E000807F8093E0008091E100FB
:104810008E7E8093E1008DE08093E200559A209A8D
:10482000CFB7F8948091EB02811127C0E3E2FAE060
:104830008491E6EFF9E09491E82FF0E0EE0FFF1F8E
:10484000E753F64FA591B491EC91E92321F461E08F
:1048500081E10E94901561E081E10E94F4158CB520
:1048600080618CBD8CB580648CBD61E08FE00E945E
:10487000F41561E080E10E94F4158091EB028F5FF6
:104880008093EB02CFBFC1E3DAE0FE018491229670
:1048900031966491882319F00E94F415F6CF61E0F7
:1048A00086E00E94901561E070E080E090E00E9458
:1048B000CA1660E086E00E9490156AE070E080E031
:1048C00090E00E94CA1661E086E00E949015EEE139
:1048D000FAE0E491F0E0EE0FFF1FEC5FF54F8591F9
:1048E00094919093E5028093E402E1EFF9E0E49182
:1048F000E093E302E6E1FAE0E491F0E0EE0FFF1F5F
:10490000EC5FF54F859194919093E2028093E102E0
:10491000E9EEF9E0E491E093E0028CB58C7F8CBD88
:104920008DB581608DBD0E949A1FE7EDF9E085EE9F
:1049300099E08E179F0749F024912EBD00000DB419
:1049400007FEFDCF2EB53196F4CF0E94B81F80919F
:104950006400816080936400809164008260809331
:10496000640080916400806880936400809164009A
:10497000806480936400809165008160809365000D
:104980000E94721F87FF22C00E949A1F85EA8EBD77
:1049900000000DB407FEFDCF8EB50E94B81F60E089
:1049A00070E08AE00E94321660E070E08BE00E94C6
:1049B000321660E070E089E00E9432168091640057
:1049C0008062809364000E948F1FFDCF8091F2026D
:1049D000823009F45FC0E82FF0E0E953F64FC4914C
:1049E0008F5F8093F20261E085E00E94F415C13090
:1049F00019F0C33019F14EC010928000109281005E
:104A00008091810088608093810080918100816025
:104A100080938100E7E1FAE0E491F0E0EE0FFF1F00
:104A2000EC5FF54F859194919093DF028093DE02C5
:104A3000EAEEF9E0E491E093DD022CC010929000E0
:104A400010929100809191008860809391008091F4
:104A50009100816080939100E7E1FAE0E491F0E059
:104A6000EE0FFF1FEC5FF54F859194919093DC0260
:104A70008093DB02EAEEF9E0E491E093DA028091C0
:104A8000F202882321F06CE380E00E94CC1F80E0DA
:104A90000E94AD2061E08DE00E94F41582E090E07C
:104AA0000E946A27882349F080916500877F809360
:104AB000650081E08093F80207C01092F8028091AF
:104AC00065008860809365008CE38093FF0280E13D
:104AD0008093020388E78093E60216E0C0E0D0E00E
:104AE00001E02FB7F8948091E7029091E802A0913D
:104AF000E902B091EA022FBF20910B03222391F02B
:104B000020910303F82FF21BF0930C032091000374
:104B1000309101032F5F3F4F309301032093000337
:104B200010920B0340910703509108036091090311
:104B300070910A0384179507A607B7073CF4481B32
:104B4000423008F471C00E948F1F6EC02091020392
:104B5000AC01BD01420F511D611D711D4093070342
:104B6000509308036093090370930A03809303032F
:104B700090930403A0930503B093060300930B03E3
:104B800080911607809315070E94721F8093160765
:104B90008091EC029091ED02189FF001199FF00DA9
:104BA0001124EC5EFE4F0280F381E02D0995F82E72
:104BB0008091EC029091ED02189FF001199FF00D89
:104BC0001124EC5EFE4F0480F581E02D0995809163
:104BD0000D038EBDEEE0F3E081910DB407FEFDCF35
:104BE0008EBD37E0ED30F307B9F70DB407FEFDCF0A
:104BF000FF20D1F08091EC029091ED02019719F025
:104C000081E090E002C082E090E09093ED0280931A
:104C1000EC02189FF001199FF00D1124EC5EFE4F7D
:104C20000190F081E02D0995209709F45ACF0E9458
:104C3000000057CFE5E2F7E01382128288EE93E09E
:104C4000A0E0B0E084839583A683B7838AE291E0F5
:104C5000918380838FEF9FEF95878487E9EFF2E060
:104C6000138212828CE3868380E18187108617820B
:104C700016861786108A118A128A10920E071092D1
:104C80000D071092100710920F0781E08093110713
:104C90002CE331E0318320838093130710921407B3
:104CA00008958F929F92AF92BF92CF92DF92EF9230
:104CB000FF92CF93DF93EC01688179818A819B8198
:104CC000611571058105910521F464E279ED8BE5AB
:104CD00097E02DE133EF41E050E00E94A927490120
:104CE0005A019B01AC01A7EAB1E40E94C8276B01FD
:104CF0007C01ACEEB4EFA50194010E94D627DC0143
:104D0000CB018C0D9D1DAE1DBF1DB7FF03C00197CC
:104D1000A109B04888839983AA83BB839F77DF91D9
:104D2000CF91FF90EF90DF90CF90BF90AF909F908A
:104D30008F9008950E94512608958CE091E00E9482
:104D400051260895A0E0B0E080930C0190930D01EE
:104D5000A0930E01B0930F0108958F929F92AF928E
:104D6000BF92CF92DF92EF92FF92CF93DF93EC014D
:104D7000688179818A819B81611571058105910521
:104D800021F464E279ED8BE597E02DE133EF41E02A
:104D900050E00E94A92749015A019B01AC01A7EAF2
:104DA000B1E40E94C8276B017C01ACEEB4EFA50111
:104DB00094010E94D627DC01CB018C0D9D1DAE1DF8
:104DC000BF1DB7FF03C00197A109B048888399832D
:104DD000AA83BB83BC01CD019F77DF91CF91FF9068
:104DE000EF90DF90CF90BF90AF909F908F900895FD
:104DF0008F929F92AF92BF92CF92DF92EF92FF92EB
:104E00006091100170911101809112019091130134
:104E1000611571058105910521F464E279ED8BE559
:104E200097E02DE133EF41E050E00E94A9274901CE
:104E30005A019B01AC01A7EAB1E40E94C8276B01AB
:104E40007C01ACEEB4EFA50194010E94D627DC01F1
:104E5000CB018C0D9D1DAE1DBF1DB7FF03C001977B
:104E6000A109B0488093100190931101A093120101
:104E7000B0931301BC01CD019F77FF90EF90DF90BD
:104E8000CF90BF90AF909F908F9008956093100146
:104E90007093110180931201909313010895FB0107
:104EA000DC0102C005900D9241505040D8F70895A2
:104EB000FB01DC0105900D920020E1F70895FC0153
:104EC0006150704001900110D8F7809590958E0F39
:104ED0009F1F0895F999FECF92BD81BDF89A992739
:104EE00080B50895A6E1B0E044E050E00C949B2723
:104EF000A8E1B0E042E050E00C949B27262FF999FE
:104F0000FECF1FBA92BD81BD20BD0FB6F894FA9AAC
:104F1000F99A0FBE01960895242F0E947F27252F0E
:104F20000E947F270C9494270E947E27272F0C94A1
:104F30007F27DC01CB01FC01F999FECF06C0F2BD51
:104F4000E1BDF89A319600B40D9241505040B8F747
:104F50000895052E97FB1EF400940E94C02757FD6C
:104F600007D00E94DB2707FC03D04EF40C94C02727
:104F700050954095309521953F4F4F4F5F4F089585
:104F800090958095709561957F4F8F4F9F4F0895B5
:104F90000E94FD27A59F900DB49F900DA49F800DAA
:104FA000911D11240895B7FF0C94C8270E94C827AB
:104FB000821B930B0895A1E21A2EAA1BBB1BFD01B5
:104FC0000DC0AA1FBB1FEE1FFF1FA217B307E407E8
:104FD000F50720F0A21BB30BE40BF50B661F771F40
:104FE000881F991F1A9469F7609570958095909520
:104FF0009B01AC01BD01CF010895A29FB001B39FF9
:10500000C001A39F700D811D1124911DB29F700DD1
:10501000811D1124911D08955058BB27AA270E9475
:1050200024280C9433290E94FA2838F00E94012980
:1050300020F039F49F3F19F426F40C94F7280EF46D
:10504000E095E7FB0C94F128E92F0E94582958F3CA
:10505000BA17620773078407950720F079F4A6F55D
:105060000C947A290EF4E0950B2EBA2FA02D0B018B
:10507000B90190010C01CA01A0011124FF27591B9D
:1050800099F0593F50F4503E68F11A16F040A22FA3
:10509000232F342F4427585FF3CF46953795279514
:1050A000A795F0405395C9F77EF41F16BA0B620B13
:1050B000730B840BBAF09150A1F0FF0FBB1F661F5A
:1050C000771F881FC2F70EC0BA0F621F731F841F9D
:1050D00048F4879577956795B795F7959E3F08F0C3
:1050E000B0CF9395880F08F09927EE0F9795879585
:1050F00008950E940A29E3950C9444290E9485286A
:105100006894B1110C947B2908950E94602988F05D
:105110009F5798F0B92F9927B751B0F0E1F0660F7B
:10512000771F881F991F1AF0BA95C9F714C0B130BC
:1051300091F00E947A29B1E008950C947A29672FA2
:10514000782F8827B85F39F0B93FCCF386957795EB
:105150006795B395D9F73EF49095809570956195D4
:105160007F4F8F4F9F4F0895E89409C097FB3EF4FF
:1051700090958095709561957F4F8F4F9F4F9923A4
:10518000A9F0F92F96E9BB279395F6958795779522
:105190006795B795F111F8CFFAF4BB0F11F460FFE2
:1051A0001BC06F5F7F4F8F4F9F4F16C0882311F03A
:1051B00096E911C0772321F09EE8872F762F05C04E
:1051C000662371F096E8862F70E060E02AF09A95E9
:1051D000660F771F881FDAF7880F9695879597F9DE
:1051E000089597F99F6780E870E060E008959FEF69
:1051F00080EC089500240A9416161706180609066E
:10520000089500240A94121613061406050608953C
:105210000C94F7280E946029D8F3E894E0E0BB27BB
:105220009F57F0F02AED3FE049EC06C0EE0FBB0FB0
:10523000661F771F881F28F0B23A6207730784073A
:1052400028F0B25A620B730B840BE3959A9572F7B0
:10525000803830F49A95BB0F661F771F881FD2F7EE
:1052600090480C94F029092E0394000C11F4882323
:1052700052F0BB0F40F4BF2B11F460FF04C06F5F0E
:105280007F4F8F4F9F4F0895EF93E0FF07C0A2EA33
:105290002AED3FE049EC5FEB0E9424280E9433296D
:1052A0000F90039401FC9058E8EEF0E00C94FC2978
:1052B00057FD9058440F551F59F05F3F71F04795C7
:1052C000880F97FB991F61F09F3F79F087950895AC
:1052D000121613061406551FF2CF4695F1DF08C0CB
:1052E000161617061806991FF1CF869571056105E8
:1052F00008940895E894BB2766277727CB0197F990
:1053000008950E9494290C9433290E94FA2838F0B9
:105310000E94012920F0952311F00C94F1280C949F
:10532000F72811240C947B290E94582970F3959F2B
:10533000C1F3950F50E0551F629FF001729FBB278C
:10534000F00DB11D639FAA27F00DB11DAA1F649F28
:105350006627B00DA11D661F829F2227B00DA11DDB
:10536000621F739FB00DA11D621F839FA00D611D61
:10537000221F749F3327A00D611D231F849F600D82
:10538000211D822F762F6A2F11249F5750409AF0AB
:10539000F1F088234AF0EE0FFF1FBB1F661F771F37
:1053A000881F91505040A9F79E3F510580F00C9402
:1053B000F1280C947B295F3FE4F3983ED4F3869563
:1053C00077956795B795F795E7959F5FC1F7FE2BA2
:1053D000880F911D9695879597F908959F3F31F015
:1053E000915020F4879577956795B795880F911D13
:1053F0009695879597F908959F938F937F936F93D1
:10540000FF93EF939B01AC010E948129EF91FF91E3
:105410000E94102A2F913F914F915F910C94812906
:10542000DF93CF931F930F93FF92EF92DF927B0155
:105430008C01689406C0DA2EEF010E949429FE01C7
:10544000E894A5912591359145915591A6F3EF01E9
:105450000E942428FE019701A801DA9469F7DF90E1
:10546000EF90FF900F911F91CF91DF91089597FBDF
:10547000072E16F4009407D077FD09D00E94512A18
:1054800007FC05D03EF4909581959F4F0895709547
:1054900061957F4F0895EE0FFF1F0590F491E02D69
:1054A0000994AA1BBB1B51E107C0AA1FBB1FA6176B
:1054B000B70710F0A61BB70B881F991F5A95A9F7BD
:1054C00080959095BC01CD01089581E090E0F8941D
:1054D0000C94492DAEE0B0E0E0E7FAE20C94202D08
:1054E0000D891E8986E08C831A8309838FEF9FE7DD
:1054F0009E838D83AE01475E5F4F6F89788DCE01AD
:1055000001960E948C2AEF81F885E00FF11F10822E
:105510002E96E4E00C943C2DABE0B0E0E2E9FAE238
:105520000C94122D6C017B018A01FC0117821682FA
:10553000838181FFCCC1CE0101963C01F6019381AC
:10554000F70193FD859193FF81917F01882309F4F1
:10555000BAC1853239F493FD859193FF81917F0122
:10556000853229F4B60190E00E94782CE7CF912C87
:10557000212C312CFFE1F315D8F08B3279F038F47F
:10558000803279F08332A1F4232D20611DC08D3249
:1055900061F0803369F4232D216016C0832D826071
:1055A000382EE32DE4603E2E2AC0F32DF8601DC096
:1055B00037FC2DC020ED280F2A3040F08E32B9F490
:1055C00036FC81C1232D2064322E19C036FE06C060
:1055D0008AE0989E200D1124922E11C0EAE02E9EA2
:1055E000200D1124222EF32DF0623F2E08C08C36A0
:1055F00021F4832D8068382E02C0883641F4F701EB
:1056000093FD859193FF81917F018111B3CF982FF5
:105610009F7D9554933028F40C5F1F4F9FE399832F
:105620000DC0833631F0833771F0833509F059C0EE
:1056300021C0F801808189830E5F1F4F88248394E5
:10564000912C530113C02801F2E04F0E511CF801B8
:10565000A080B18036FE03C0692D70E002C06FEFFC
:105660007FEFC5010E945F274C018201F32DFF7778
:105670003F2E16C0280122E0420E511CF801A080E6
:10568000B18036FE03C0692D70E002C06FEF7FEF7E
:10569000C5010E946D2C4C01F32DF0683F2E820154
:1056A00033FC1BC0822D90E088169906B0F4B60139
:1056B00080E290E00E94782C2A94F4CFF50137FC28
:1056C000859137FE81915F01B60190E00E94782CB0
:1056D00021102A9421E0821A91088114910471F713
:1056E000E8C0843611F0893641F5F80137FE07C06D
:1056F00060817181828193810C5F1F4F08C060813E
:105700007181072E000C880B990B0E5F1F4FF32D34
:10571000FF763F2E97FF09C0909580957095619513
:105720007F4F8F4F9F4FF0683F2E2AE030E0A3015C
:105730000E94B42C882E861845C0853731F4232D5D
:105740002F7EB22E2AE030E025C0932D997FB92E0E
:105750008F36C1F018F4883579F0B5C0803719F06C
:10576000883721F0B0C0E92FE061BE2EB4FE0DC035
:10577000FB2DF460BF2E09C034FE0AC0292F26601D
:10578000B22E06C028E030E005C020E130E002C0C3
:1057900020E132E0F801B7FE07C0608171818281AB
:1057A00093810C5F1F4F06C06081718180E090E0A3
:1057B0000E5F1F4FA3010E94B42C882E8618FB2D6C
:1057C000FF773F2E36FE0DC0232D2E7FA22E89148B
:1057D00058F434FE0BC032FC09C0832D8E7EA82EF7
:1057E00005C0B82CA32C03C0B82C01C0B92CA4FE52
:1057F0000FC0FE01E80DF11D8081803321F49A2D48
:10580000997EA92E09C0A2FE06C0B394B39404C029
:105810008A2D867809F0B394A3FC11C0A0FE06C0BF
:10582000B21488F4280C922C9B180EC0B21460F4A9
:10583000B60180E290E00E94782CB394F7CFB214C6
:1058400018F42B1802C0982C212CA4FE10C0B6010D
:1058500080E390E00E94782CA2FE17C0A1FC03C058
:1058600088E790E002C088E590E0B6010CC08A2D80
:10587000867859F0A1FE02C08BE201C080E2A7FC4D
:105880008DE2B60190E00E94782C891438F4B601BC
:1058900080E390E00E94782C9A94F7CF8A94F301E9
:1058A000E80DF11D8081B60190E00E94782C8110F6
:1058B000F5CF222009F442CEB60180E290E00E94AA
:1058C000782C2A94F6CFF6018681978102C08FEF5B
:1058D0009FEF2B96E2E10C942E2DFC010590615078
:1058E00070400110D8F7809590958E0F9F1F0895F6
:1058F0000F931F93CF93DF93FB01238121FD03C0FF
:105900008FEF9FEF2CC022FF16C046815781248164
:1059100035814217530744F4A081B1819D012F5F67
:105920003F4F318320838C93268137812F5F3F4FF8
:105930003783268314C08B01EC01FB010084F185C1
:10594000E02D0995892BE1F6D80116968D919C9151
:105950001797019617969C938E931697CE01DF9119
:10596000CF911F910F910895FA01AA27283051F184
:10597000203181F1E8946F936E7F6E5F7F4F8F4F80
:105980009F4FAF4FB1E03ED0B4E03CD0670F781FDF
:10599000891F9A1FA11D680F791F8A1F911DA11DC4
:1059A0006A0F711D811D911DA11D20D009F46894FD
:1059B0003F912AE0269F11243019305D3193DEF6A5
:1059C000CF010895462F4770405D4193B3E00FD05B
:1059D000C9F7F6CF462F4F70405D4A3318F0495D46
:1059E00031FD4052419302D0A9F7EACFB4E0A69529
:1059F0009795879577956795BA95C9F7009761054B
:105A0000710508959B01AC010A2E069457954795A0
:105A100037952795BA95C9F7620F731F841F951F95
:105A2000A01D08952F923F924F925F926F927F92A6
:105A30008F929F92AF92BF92CF92DF92EF92FF929E
:105A40000F931F93CF93DF93CDB7DEB7CA1BDB0B4A
:105A50000FB6F894DEBF0FBECDBF09942A883988EF
:105A600048885F846E847D848C849B84AA84B984F6
:105A7000C884DF80EE80FD800C811B81AA81B98102
:105A8000CE0FD11D0FB6F894DEBF0FBECDBFED0116
:065A90000895F894FFCF19
:105A960000E1000000000000FFFFFFFF0100000022
:105AA600010000006B08A80CD20A110C3A0B6F0813
:105AB600BA113C12C20E000000004317AA17641761
:105AC6005917701B6817861700000000870D6615AA
:105AD600840D830D00C180810000002535640027F8
