:100000000C9497080C94BF080C94BF080C94BF087C
:100010000C94BF080C94BF080C94BF080C94BF0844
:100020000C94BF080C94BF080C948B230C94FD23F4
:100030000C94BF080C94BF080C94BF080C94BF0824
:100040000C94BF080C94DB180C94BF080C94BF08E8
:100050000C94BF080C94BF080C94BF080C94C117F3
:100060000C94BF080C94BF080C94BF080C94BF08F4
:100070000C94BF080C94BF080C94BF080C94BF08E4
:100080000C94DC190C94BF080C94BF080C94BF08A6
:100090000C94BF080C94BF080C94BF080C94BF08C4
:1000A0000C94BF080C94BF080C94BF08681C6B1C10
:1000B0005A1C5E1C621C8C1C8C1C8C1C6F1C731CC0
:1000C000771C7D1C811C8C1C871C131D181D1D1D7D
:1000D000271D311D7B1D7B1D7B1D3B1D451D4F1DA0
:1000E000591D661D7B1D6E1D084AD73B3BCE016E18
:1000F00084BCBFFDC12F3D6C74319ABD56833DDA7F
:100100003D00C77F11BED9E4BB4C3E916BAAAABE8D
:10011000000000803F05A84CCDB2D44EB93836A9B6
:10012000020C50B9918688083CA6AAAA2ABE0000F3
:1001300000803F000000000000700100C0000C00C3
:10014000CAA77C0A42F55508534248195EF5511278
:10015000003000000027450040941C0014F31905EE
:1001600004F1110420040000044110040004000004
:10017000104208015E14450F40F001005955551317
:1001800051555D0D8C927C085755550D5E55550D9A
:1001900051520C015E55550F5655550F00A00000E9
:1001A00000A4000000C2280080A22800806208008D
:1001B00040500D0000E318009C92241F5F555D0D18
:1001C0009C1445115F1425075F5555115F511401AB
:1001D0005E54551D1F41101F40F4450010042107B7
:1001E0001F41181D1F0441105EF0041F9C10041FC6
:1001F0005E54450F5F9214035ED4451F5F92341B1B
:100200005655550D41F005011F0421071F420801F5
:100210001FE4410F1743181D07C1090151564D1125
:1002200000F0450000F0010040F4010080100C00D7
:10023000100441109005000F9011000F901D000F49
:100240009029000F9035000F9041000F904D000F46
:100250009059000F80F0905100288000289056009F
:1002600028800028905A0028800028E090370078E5
:1002700080000A9036008C800014903500A0800029
:100280001E903400B4800028903300C88000329063
:100290003200DC80003C903100F08000469030005D
:1002A0000480F05041555345004E45572052454378
:1002B0004F5244210078FEFE870363E7EFEE6000B3
:1002C00090D848F8F8F0000010F8F8F810F8F8F8AE
:1002D00010F8F8F800E0F0F848787000000000002E
:1002E00078FEFEC383070FFEFE78001838F8F8D8B2
:1002F000C0381800E0F0F84878700010F8F8F818E6
:1003000018000101030303030100000001030303BC
:1003100003030100030303030003030300030303B8
:1003200003000303030301000000000000010103B8
:1003300003030301010000000000030300000000AC
:100340000003030303010003030303030054525992
:10035000204E455854204C4556454C0003FFFFFFA6
:10036000337B7B87C00018B878F8E0B81800E0F05D
:10037000F81838B000E0F0F84878700004FEFEFE8F
:10038000000004FEFEFE00E0F0F84878700010F077
:10039000F8F810F8F80018FCFCFE1818008FBF9F42
:1003A0000303030303030303010003030003030325
:1003B0000300000103030301000003030303010022
:1003C0000303030303000303030303000303030303
:1003D00001000303030300030303000103030301FC
:1003E000000303034C4556454C0053434F52450010
:1003F00003FFFFFF33F3FFFF8E0000E0F0F84878C3
:10040000700090D848F8F8F00000F0F8F81AFEFEF6
:10041000FE00001838F8F8D8C07818000E8FB3BF67
:100420001F0E03030303030003030303000003037E
:10043000030301000103030303030100000303039B
:100440000303030200060E0C0F0701000000000367
:1004500003030000243433434241313020101101A2
:100460000203131466243CFF3C5A5A3C3013FD3CF3
:100470005AB5F4380C443F5DBCF46A3026126C9CCB
:10048000FFED546408699FFCFC9F69086454EDFF0C
:100490009C6C1226306AF4BC5D3F440C38F4B55AAB
:1004A0003CFD13303C5A5A3CFF3C24661C2FAD5A8D
:1004B0003CBFC80C0C562F3DBAFC2230262AB7FF91
:1004C000393648641096F93F3FF99610644836393A
:1004D000FFB72A263022FCBA3D2F560C0CC8BF3C71
:1004E0005AAD2F1C55AA55AA3366CC9900AA00AA6A
:1004F00055FF55FF90480064800019904A006480C1
:100500000019904C0064800019904D00648000191F
:10051000904F00C880F04F424E2D59303220564542
:100520005220302E323200C0C6CFDFFFFB73037C77
:10053000FEFFC7E3FF7F3E00FFFFFF1B1B1B030007
:100540000303FFFFFF030300000000000000008022
:10055000808080000000000000000000000000809B
:10056000E0F058AC56AB55AB5500FF01010102025B
:10057000040810608000003FFFAA55AA55AA55AA9A
:1005800055A85FAC5CAC5CAC5CAC5C0CCF3C0000D8
:10059000000103060D1A152A252A252A25221512DF
:1005A00009040201000000FFFF57AB57AB57AB57E0
:1005B000AB03FF808080000000000000000000FF0F
:1005C000FF55AA55AA55AA55AA00FF00000001012F
:1005D00002040830C000001F7FD5AA55AA55AA55AD
:1005E000AA54AF56AE56AE56AE562E86671E0000C3
:1005F00000000103060D0A151215121512110A0941
:10060000040201000000000000000000008080C023
:10061000C0C0C0808080000000000000000000C05A
:10062000F078AC56AB55AA55AA00FF0000000101B6
:1006300002040830C00000FFFF55AA55AA55AA556C
:10064000AA00FFFEAE56AE56AE56AE5607FE001FCF
:10065000171512151215121512101F171215121553
:1006600012151215101F0006FEFEFFFFFF0C1F1FC4
:100670001F0E0607070707070606000000F8FCFE26
:10068000FFFF33333F3E3E380001030707070606EE
:100690000603030CFEFEFFFFFF020307FFFFFFFE42
:1006A000F8303F7F7F7F7F6206070707030100F076
:1006B000FCFEFEFF83030FFFFFFEFCF800010307B3
:1006C00007070606070303010003FFFFFFFFFFC341
:1006D000C0C0C3FFFFFFFFFF03C0FFFFFFFFFFC15D
:1006E0000101C1FFFFFFFFFFC02D20484F505045C3
:1006F00052202D00004E4F56454D4245522032307B
:1007000031370050524F4752454D4D4544204259D4
:10071000204F424F4E4F0000544849532050524FF3
:100720004752414D2049530052454C4541534544A1
:1007300020554E44455200544845204D4954204CC4
:100740004943454E53452E00504C41592054494D84
:1007500045202000504C415920434F554E54200015
:100760005D20005B00424553542031302053434FFD
:10077000524553004F4646004F4E00C90610AF0683
:100780000D93060E93060E7D060B67060B53544120
:1007900052542047414D4500534F554E442000527E
:1007A00045434F5244004352454449540000000021
:1007B0000000F0FCFE1E3FFF8F1FFFFEFEFCF0005E
:1007C0000000000000000000000000000000000029
:1007D000C0E0E0F3F7F7FEFFFFFFFFFFFFFFFC7C49
:1007E0003E1E1E1E3E3C38000000000000000003BC
:1007F0000707030100E0F1FFFFFF3F1FFFFFFFFEC0
:10080000F8000000000000000000000000000000F0
:1008100000000000000103070F1F1F1C00071F7FBF
:10082000FFFFFC700000000000000000000000005E
:1008300000000000000000000000000000000000B8
:1008400000000000000000000000000000000000A8
:1008500000808080A06060C0800000000000000078
:1008600000008080C0C0E0F0F8F8F8700078FEFF6B
:10087000E5E5E5FFFFFFFFFEF9FFFFFEFEFEFEFEE2
:10088000FFFFFFFFEFC7C3838180800000000103EB
:100890000307377B7D3D3E0E0F070301010100007A
:1008A000000101030307070F0F1F1F1F0F000000A8
:1008B000000000000000000000F0FCFCFCFC180040
:1008C0000000000000000000000000000000001C0C
:1008D0003E3F1F1F3F7EFCF8F0FFFFFFFFF8C00008
:1008E0000000000000000000000000000000000008
:1008F000000000000000838FDFFFFFFFFFFFFFFF0E
:100900007EFF97376FEEDC00000000000000000063
:100910000000001C3E3F1F0F030101010F3F7F7FBE
:10092000FEFCF9FF7E7F3F0F00000000000000008A
:1009300000000000000000000000008080808000B7
:10094000000080C0C0E0E0E0E0C0C0800000000027
:100950000000808080C0C0C0BC7F7F8FF7F7FFFFA2
:10096000FFFEFFE7A7A7BFFFFFFFFF7F1E00007C82
:10097000FEFF7F0F0F070707078FFFFFFFE7DB3B38
:100980007B777F3F3F0F0101010000000000000066
:10099000000000000000060F0F0F0F070703010003
:1009A0000000000000000000000000000053434F62
:1009B00052450000000000003E5B4F5B3E3E6B4F27
:1009C0006B3E1C3E7C3E1C183C7E3C181C577D57E1
:1009D0001C1C5E7F5E1C00183C1800FFE7C3E7FF8D
:1009E0000018241800FFE7DBE7FF30483A060E2620
:1009F00029792926407F050507407F05253F5A3C78
:100A0000E73C5A7F3E1C1C08081C1C3E7F14227FBA
:100A100022145F5F005F5F06097F017F0066899592
:100A20006A606060606094A2FFA29408047E04087B
:100A300010207E201008082A1C08081C2A08081EFE
:100A4000101010100C1E0C1E0C30383E3830060EE4
:100A50003E0E06000000000000005F0000000700DE
:100A60000700147F147F14242A7F2A12231308649A
:100A70006236495620500008070300001C2241003E
:100A80000041221C002A1C7F1C2A08083E0808007E
:100A9000807030000808080808000060600020101E
:100AA0000804023E5149453E00427F4000724949D8
:100AB00049462141494D331814127F1027454545B9
:100AC000393C4A49493141211109073649494936DA
:100AD000464949291E00001400000040340000006F
:100AE00008142241141414141400412214080201A1
:100AF0005909063E415D594E7C1211127C7F4949CD
:100B000049363E414141227F4141413E7F49494969
:100B1000417F090909013E414151737F0808087F5F
:100B200000417F41002040413F017F081422417F66
:100B3000404040407F021C027F7F0408107F3E41FE
:100B400041413E7F090909063E4151215E7F091955
:100B50002946264949493203017F01033F4040406D
:100B60003F1F2040201F3F4038403F63140814635C
:100B700003047804036159494D43007F4141410218
:100B800004081020004141417F040201020440405A
:100B9000404040000307080020545478407F284418
:100BA00044383844444428384444287F3854545402
:100BB0001800087E090218A4A49C787F0804047811
:100BC00000447D40002040403D007F10284400004C
:100BD000417F40007C047804787C08040478384421
:100BE000444438FC1824241818242418FC7C0804D5
:100BF0000408485454542404043F44243C404020F6
:100C00007C1C2040201C3C4030403C4428102844A0
:100C10004C9090907C4464544C4400083641000051
:100C200000770000004136080002010204023C2661
:100C300023263C1EA1A161123A4040207A38545428
:100C400055592155557941215454784121555478AD
:100C50004020545579400C1E527212395555555941
:100C6000395454545939555454580000457C410066
:100C700002457D420001457C40F0292429F0F028FE
:100C80002528F07C545545002054547C547C0A0996
:100C90007F4932494949323248484832324A484805
:100CA000303A4141217A3A42402078009DA0A07D0F
:100CB00039444444393D4040403D3C24FF242448CD
:100CC0007E4943662B2FFC2F2BFF0929F620C08875
:100CD0007E090320545479410000447D4130484846
:100CE0004A32384040227A007A0A0A727D0D193160
:100CF0007D2629292F28262929292630484D4020BC
:100D0000380808080808080808382F10C8ACBA2F97
:100D1000102834FA00007B000008142A1422221440
:100D20002A14089500220095AA005500AAAA55AADF
:100D300055AA000000FF00101010FF00141414FF4B
:100D4000001010FF00FF1010F010F0141414FC003D
:100D50001414F700FF0000FF00FF1414F404FC1447
:100D60001417101F10101F101F1414141F00101040
:100D700010F0000000001F101010101F10101010B5
:100D8000F010000000FF101010101010101010FFD5
:100D900010000000FF140000FF00FF00001F1017EC
:100DA0000000FC04F414141710171414F404F400D5
:100DB00000FF00F714141414141414F700F714149B
:100DC00014171410101F101F141414F4141010F022
:100DD00010F000001F101F0000001F14000000FC96
:100DE000140000F010F01010FF10FF141414FF1482
:100DF0001010101F00000000F010FFFFFFFFFFF0B9
:100E0000F0F0F0F0FFFFFF0000000000FFFF0F0F09
:100E10000F0F0F38444438447C2A2A3E147E0202C5
:100E20000606027E027E0263554941633844443C13
:100E300004407E201E2006027E020299A5E7A599A5
:100E40001C2A492A1C4C7201724C304A4D4D3030DC
:100E500048784830BC625A463D3E494949007E01C7
:100E600001017E2A2A2A2A2A44445F444440514AE6
:100E7000444040444A51400000FF0103E080FF002D
:100E80000008086B6B083612362436060F090F0669
:100E9000000018180000001010003040FF01010091
:100EA0001F01011E00191D1712003C3C3C3C0000B4
:100EB00000000006011501260137014A015D01729B
:100EC0000188019F01B801D201EE010B022A024BF9
:100ED000026E029302BA02E40210033F037003A4FD
:100EE00003DC03170455049704DD0427057505C8C2
:100EF0000520067D06E0064907B8072D08A9082D3C
:100F000009B9094D0AEA0A900B400CFA0CC00D9180
:100F10000E6F0F5A1053115B1272139A14D41520CE
:100F2000178018F519801B231DDE1EB420A622B5DC
:100F300024E4263429A72B402E0031EA330037451C
:100F40003ABC3D68414C456B49C84D68524F57808B
:100F50005C006210111213151617181A1C1D1F21A0
:100F6000232527292C2E3134373A3E4145494E520C
:100F7000575C62686E757B838B939CA5AFB9C4D0B8
:100F8000DCE9F70000000200090F00000304010083
:100F90000C00000000000000000000000000000045
:100FA0000000030100000000240027002A002D009B
:100FB0003000D5F08D1410A1C881CFD9F1AF200039
:100FC0000408020110408040102040804080080248
:100FD00004018040201002011080102040402000B9
:100FE000000000250028002B002E0031000404041E
:100FF00004040304050202020204030202020206C0
:101000000606060606040402020204041402130281
:10101000120215020702080204010C010601007801
:10102000FCFE86FEFC780000000101010000008C3F
:101030008CFEFEFE86800001010101010101000C11
:1010400086E6FEBEDCC000010101010103010004CF
:1010500026363EFEF4E0000103030303010000E036
:10106000F0D8FCFEFEC000000000030303000038BF
:101070003E3676F6E6E6000303030303010000783C
:10108000FEFF9FF8F8700000000101010000000E53
:101090000E06C6F67E06000000070703000000EEFD
:1010A000FF3F7DF9FFE60000010101010100003C66
:1010B0007E7EE6FEFC7C00000207070301000008BC
:1010C0000B000202020100090400000102020000FC
:1010D0000524001001052401010104240206052451
:1010E0000600010705810310004009040100020AFF
:1010F00000000007050202400000070583024000CF
:10110000000403090412010002EF020140412336EA
:101110008000010102030141726475696E6F204C09
:101120004C430041726475626F790000DB28112422
:101130001FBECFEFDAE0DEBFCDBF11E0A0E0B1E02F
:10114000E0EBF2E602C005900D92A235B107D9F7A7
:1011500027E0A2E5B1E001C01D92A43EB207E1F78D
:1011600018E0C7E9D8E004C02197FE010E94582E7C
:10117000C639D107C9F70E943B260C9456310C940E
:10118000000088E780934F030895089580E090E081
:101190000895CF92DF92EF92FF920F931F93CF9318
:1011A000DF9380912E038111C2C080912B03803286
:1011B0006CF48F5F80932B03C3E2D3E001E013E074
:1011C00084E8C82ED12CE12CF12C2EC00E94B92924
:1011D00029E130E040E050E00E94612A6093290359
:1011E0000E94B92921E430E040E050E00E94612AE9
:1011F000DC01CB018096A11DB11D682F6195609324
:101200002B030E94B92924E030E040E050E00E9426
:10121000612A60932A03D0CF8993F80161938F01EB
:10122000F3E0C932DF07D1F0F80160816F5F888198
:10123000860F80348CF30E94B929A70196010E9481
:10124000612A605C7F4F8F4F9F4F0E94E52B0E9469
:101250005A2D90580E94AD2B80E4DECF80917E07FE
:1012600090E08095909520917F07207830E0822350
:101270009323892B59F080912203882311F0815008
:1012800001C083E0809322030E94F21B80917E07BD
:1012900090E08095909520917F07207130E0822327
:1012A0009323892B61F080912203833021F08F5F9B
:1012B0008093220302C0109222030E94F21B8091AD
:1012C0007E0790E08095909520917F072C7030E00C
:1012D00082239323892B31F180912203813089F07D
:1012E00054F481111FC06091610382E090E00E947C
:1012F000362AC1E018C0823081F0833099F482E050
:101300000DC0C0912103C82719F00E94411A02C0E4
:101310000E94341AC093210303C081E080932E03FE
:101320000E94D11BC0E081E080932F0317C0809101
:101330007F078C70282F30E090917E07892F90E0F6
:101340008095909582239323892B39F010922E0358
:101350000E94D11B81E080932F03C0E00E945E2990
:101360008C010E949C17012E000C220B330B60276E
:10137000712782279327611571058105910511F069
:101380000E94072A8C2FDF91CF911F910F91FF9020
:10139000EF90DF90CF9008950F931F93CF93DF933B
:1013A00010922E031092220381E080932F0380E29B
:1013B00080932B03E3E2F3E0A1E0B3E089E293E062
:1013C00028EB21931D928E179F07D9F7C0916103D7
:1013D000CC2319F00E94411A02C00E94341AC09313
:1013E000210380910003811161C080E293E090931A
:1013F0003103809330030E94AB1B6F3472448E44E0
:10140000924029F0EDE0F3E081E293E03BC0C3E0DD
:10141000D0E00BEE16E40E94BE1B9C012C9FC00185
:101420002D9F900D3C9F900D1124080F191F2196A0
:10143000C031D10581F70E94BE1B0817190711F7AB
:1014400084E293E09093310380933003CDE0D3E0C6
:101450000E94BE1B8993999333E0C132D307C1F731
:101460000E94BE1B90930C0380930B030E94AB1B46
:1014700060930703709308038093090390930A0312
:1014800082E012C0119211928E179F07D9F7109225
:101490000C0310920B031092070310920803109292
:1014A000090310920A0381E080930003DF91CF913A
:1014B0001F910F9108958F929F92AF92BF92CF92FA
:1014C000DF92EF920F93CF93DF930E94232120911D
:1014D0004F0388E790E0821B910968E270E00E9468
:1014E000442E4B0187E4C82E85E0D82E9CE1A92E1E
:1014F000B12CC0E0D0E081E090E08C169D0611F0A8
:1015000080E090E02091FF02289FB001299F700D9C
:101510001124645F7F4FEE24E39400E228E1A601EA
:10152000C5010E94591F219688E1A80EB11C80E6D2
:10153000C80ED11CC330D105F1F608E020E247E225
:1015400055E06CE270E084E490E00E94591F80E175
:1015500090E090937707809376078AE390E09093EA
:1015600079078093780766E175E082E693E0DF9182
:10157000CF910F91EF90DF90CF90BF90AF909F9061
:101580008F900C94CE1DCF9380914F038150809308
:101590004F0390E00F9763E070E00E94442E8AE3CF
:1015A0009AEAA3EEBEEE04C0B695A79597958795E7
:1015B0006A95D2F7C82FC170C093FF026FEF70E039
:1015C0008AE00E94EC1C6FEF70E08BE00E94EC1C44
:1015D0008FE7C89F802D11246FEF70E0681B7109A1
:1015E00089E00E94EC1C81E090914F03911180E012
:1015F000CF9108952F923F924F925F926F927F9278
:101600008F929F92AF92BF92CF92DF92EF92FF9212
:101610000F931F93CF93DF9300D01F92CDB7DEB708
:101620008983E091FE022E2E312C8EE0E89FF0019E
:101630001124EE58FD4F9981908361835383428337
:1016400035832483178306830E94B92920E031E083
:1016500040E050E00E94612A0E94E52B2BED3FE024
:1016600049E450E40E94DF2C20E030E040E05CE3FD
:101670000E94DF2C4B015C01E981E23071F4209182
:10168000700230917102205F3F4F84E0220F331FC0
:101690008A95E1F73B832A8302C01B821A82C50127
:1016A000B4010E94362B2B013C01EA81FB81BF0172
:1016B000FF0F880B990B0E94E52B6B017C018EE0DC
:1016C000829D9001839D300D11242E583D4F3B8308
:1016D0002A83A7019601C301B2010E94DF2C0E9458
:1016E000AD2BEA81FB8171876087C501B4010E943F
:1016F0004C2D9B01AC01C701B6010E94DF2C0E945A
:10170000AD2BEA81FB817387628790917002F9812A
:10171000F43011F484E204C0892F880F980F80E41C
:10172000891B803108F480E19EE0929DF001939D39
:10173000F00D1124EE58FD4F848785870F900F9090
:101740000F90DF91CF911F910F91FF90EF90DF905D
:10175000CF90BF90AF909F908F907F906F905F9051
:101760004F903F902F9008950F931F93CF9388230E
:10177000C1F010926F0210926B0210926C021092E4
:101780006D0210926E0210926A021092690210921B
:1017900071021092700260E084EF94E00E94271FB3
:1017A00015C0809170029091710201969093710220
:1017B00080937002C0E080915B03C81728F48C2FDF
:1017C0000E944619CF5FF7CF10925C031092680217
:1017D00080917002909171028630910568F421E049
:1017E00020936802209364028130910529F432E04D
:1017F000309368022093650280FF0BC0E09168027D
:1018000021E02E0F20936802F0E0EC59FD4F22E01A
:10181000208381FF0BC0E091680221E02E0F20930E
:101820006802F0E0EC59FD4F23E0208382FD02C006
:10183000089759F4E091680281E08E0F8093680266
:10184000F0E0EC59FD4F84E08083E2E7F2E08EEFB8
:1018500092E010823E968E179F07D9F7109263028E
:101860001092FE02209161023091620240915F026B
:101870005091600200E010E160E081E00E94FA0A0D
:10188000CF911F910F910895CF93DF931092530141
:101890001092600210925F02109262021092610236
:1018A00010925A011092520184EC809357011092C9
:1018B00059011092580110925D0281E00E94B40B10
:1018C000CBE5D1E00E945E29880F991F9983888318
:1018D0000E945E29880F991F9B838A83249682E049
:1018E000CB35D80779F710925C0210925B02DF913A
:1018F000CF9108952F923F924F925F926F927F9275
:101900008F929F92AF92BF92CF92DF92EF92FF920F
:101910000F931F93CF93DF93CDB7DEB72F970FB6FB
:10192000F894DEBF0FBECDBF6A30A1F4FC01E85EC3
:10193000FB4F408132972081318156E0459F200D39
:10194000311D112431832083DC01AC5EBB4F1D921D
:101950001C92F0C020EE260F203408F0EBC09F87C9
:101960008E878C5E9B4F9E838D83FC01008111814D
:101970002E853F85285E3B4F398728870038110523
:10198000D4F0A885B9852C91422F50E0ED81FE81DD
:1019900080819181F6E02F9F800D911D1124AD81F2
:1019A000BE818D939C93EE85FF85E75EFB4F208182
:1019B0002111AAC0BFC0EE85FF85EA5EFB4F2081E2
:1019C00031813A83298320343105DCF6A885B98535
:1019D0008C91482E512C9801B5E08B9F200D311D24
:1019E000112437FDCECF29813A81E6E08E9F200D6C
:1019F000311D112437FDC5CFEE85FF85E55EFB4F18
:101A00007080EE85FF85E65EFB4F608024E0629F7C
:101A1000F0011124EC54FF4F85909590A590B4905F
:101A2000813019F536E0D32EE980FA8026E0C22E07
:101A300080FC04C0761449F0272D01C0262DA70193
:101A4000B8018E859F850E944F1AB694A7949794EB
:101A50008794CA943FEFE31AF30AC110E9CFDA94EE
:101A60000F5F1F4FD110E0CF8CCF180156E05B8382
:101A700009811A8186E08C83D201A20DB31DBD8736
:101A8000AC8780FC04C0761461F17F8201C06F8254
:101A90006101F201E00FF11FFB87EA872C853D858C
:101AA000C216D306F4F4780117FF02C0E12CF12C22
:101AB0008A859B858134910514F080E490E0E816D6
:101AC000F9065CF42F81A701B6018E859F850E94DF
:101AD0004F1A3FEFE31AF30AEBCF5FEFC51AD50AAF
:101AE000DDCFB694A794979487948C8181508C8392
:101AF000040D151D8111C5CF9B8191509B83240C32
:101B0000351C9111B5CF3DCF6AEF64039001659FFD
:101B1000300D112420583F4F281739075CF4AE854B
:101B2000BF85ED91FC9111970190F081E02D6AE065
:101B3000CD01099581E090E02F960FB6F894DEBFB5
:101B40000FBECDBFDF91CF911F910F91FF90EF900E
:101B5000DF90CF90BF90AF909F908F907F906F90CD
:101B60005F904F903F902F9008952F923F924F9209
:101B70005F926F927F928F929F92AF92BF92CF921D
:101B8000DF92EF92FF920F931F93CF93DF9300D0DA
:101B900000D000D0CDB7DEB780915E02882309F473
:101BA00080C30E94232180916F028430E9F58091E7
:101BB0005F029091600297FF02C081509F4F2CE31B
:101BC000290F2983809161029091620297FF02C0E0
:101BD00081509F4F945EE0915701F0E03896A4E069
:101BE000F595E795AA95E1F7EF70FF2780915D02E3
:101BF0005F01B3E0AA0CBB1CBA95E1F7C92E990F9F
:101C0000DD086981062E000C770B7A8369838823AF
:101C100009F45EC2812C912CB5016C597B4F2B01CC
:101C200093E0692E712C39C28BE591E09A83898308
:101C3000812C912C20915B0230915C02280D391D82
:101C400033703395A981BA81ED90FC90C701B90139
:101C50000E94442EFB01E05CFF4FFE83ED83A981CF
:101C6000BA811296ED91FC911397CF01B9010E94B0
:101C7000442E8B01005E1F4F60915A01062E000C0E
:101C8000770B77FF03C0719561957109260F371F98
:101C9000C701B9010E94442E7B01B0E4EB0EF11C98
:101CA000CF01B9010E94442E605E7F4F6B01C01AC4
:101CB000D10AD7FE03C0D194C194D1085701ED8158
:101CC000FE81AE1ABF0AB7FE03C0B194A194B10859
:101CD000AC14BD045CF49E2D8F2D7B01692F782FF1
:101CE0009D818E811E830D83092F182F2D813E81AA
:101CF000E216F3065CF4902F812F8B01692F782F69
:101D00009D818E81FE82ED82E92EF82E17018D8154
:101D10009E81281A390A2B01401A510A57FE03C026
:101D2000519441945108310137FE03C09FEF691A65
:101D3000790A759467940617170714F08FEF01C09E
:101D400081E0A82F880FBB0BBC83AB83ED81FE81A4
:101D5000EE16FF06FCF021E0AC14BD041CF4AF014C
:101D6000B80103C0A8016D817E8182E693E00E94E4
:101D70004F1A6418750877FE06C02B813C81020F4C
:101D8000131F620C731C6D817E816F5F7F4F7E839A
:101D90006D83DCCF70E1870E911C89819A81049656
:101DA0009A838983811494E0990609F043CF212C0A
:101DB000312C73E0472E512C612C712C80916302E1
:101DC000D101A80FB11DCD016AE070E00E94442E40
:101DD000BEE0B89FF001B99FF00D1124EE58FD4F01
:101DE0001081112309F4E3CE2681378137FD4CC1E0
:101DF0008485882309F448C13395982F80E0B90180
:101E00000E94442E6B01A62EA694B12C8281938150
:101E1000B9010E94442ECB01805C9F4F8A199B0917
:101E20009E838D8384819581B9010E94442E7B011C
:101E300090E2E90EF11CEA18FB088091580190919C
:101E400059018E179F0709F040C080915A01082E52
:101E5000000C990B4C01A0E18A0E911C97FE04C066
:101E60004C01BFE28B0E911C65E0959487946A95B6
:101E7000E1F7092C000CAA08BB080E94B929A301AC
:101E800092010E94612A9B01AC0121503109410954
:101E90005109C501B4010E94342EED81FE81E60F87
:101EA000F71FFE83ED830E94B929A30192010E94CE
:101EB000612A9B01AC012150310941095109C50139
:101EC000B4010E94342EE60EF71E153051F4009135
:101ED0005D022C2D4C2DB7018D819E810E94931E99
:101EE000ADC04C2D2D813E8137FF0FC0C9019195AA
:101EF0008195910996013327821793070CF09EC0B4
:101F0000BD80BC0C60E070E003C0BC2C6D817E81A4
:101F1000F7FE11C0222733272E193F098C2D0C2CD8
:101F2000000C990B281739070CF088C04C2D4E0D6A
:101F300080E090E001C0C701BB2009F47FC0603899
:101F400071050CF07BC014160CF078C0803491053C
:101F50000CF074C09B012B0D311D213831051CF094
:101F600050E8B52EB61A9C01240F311D47FD3A9555
:101F70002134310514F040E4481B282F2770AA248F
:101F8000AA94022E01C0AA0C0A94EAF7420F821BFF
:101F9000910997FD079623E0959587952A95E1F796
:101FA0009695982F8827979587959C01260F371F20
:101FB0002A583C4F54E0159FC0011124BC016052C7
:101FC0007B4F7A8369838FEF8B0D90E08B1991099A
:101FD000DC01AF57BF4FBC83AB8314167CF5483090
:101FE00074F488E090E0841B910947FD9395EFEF2E
:101FF000F0E002C0F595E7958A95E2F7AE228901F7
:1020000045018094C80164E070E00E94442EE9819B
:10201000FA81E80FF91FE491D8019C919821EA21F7
:10202000E92BED938D019A949110ECCF4850EB8100
:10203000FC812E0F3F1FAA24AA94CFCF4C2DB701AD
:102040008D819E810E94561EB7016C0D711DC7FCCB
:102050007A95615071094C2D8D819E810E94561E8A
:102060001EEF1C0DFFEFEF1AFF0A412FB7018D8104
:102070009E810E94ED1D8D819E818C0D911D412FB1
:10208000B70101970E94ED1D2FEF221A320A3AE0A4
:102090002316310409F092CE8ACDC401B3010E9407
:1020A000442E6C0D7D1D61507109A981BA818A0F82
:1020B0009B1FE12C08E028E0A20101970E94591F14
:1020C000BFEF8B1A9B0AE9E08E16910431F713C01B
:1020D000EC5AFB4FE4918E2F82958F70B601680FFA
:1020E000711DEF7000E024E044E089819A818E0F39
:1020F000911D0E94931EA5014C595B4FEE24E39461
:1021000008E028E0B60189819A810E94591F8091D8
:102110006F0281110BC00CE022E340EF53E06CE052
:1021200070E087E290E00E94591FB3C010927707D9
:102130001092760710927907109278076AEE73E092
:1021400082E693E00E94CE1D6091690270916A025E
:1021500040E080E090E00E94D52082E690E09093FD
:10216000770780937607109279071092780764EECC
:1021700073E082E693E00E94CE1D60917002709140
:1021800071026F5F7F4F42E088E790E00E94D520A8
:1021900080916F028230D9F4EE24E3940CE024E4C1
:1021A0004CE553E06CE070E08EE190E00E94591F36
:1021B00086E190E090937707809376078EE290E037
:1021C00090937907809378076DE473E05EC0833065
:1021D00009F04BC00E94B9294B015C010E94B9294A
:1021E0002B013C0183E0C82ED12CE12CF12CC50140
:1021F000B401A70196010E94612A4B015C01FBE03A
:102200008F0E911CA11CB11CC301B201A701960144
:102210000E94612ADC01CB014996A11DB11DEE246B
:10222000E3940CE02CE445EB52E0B4010E94591F0A
:1022300080915601882369F1809154019091550154
:1022400068E070E00E94442E04971CF58FE190E056
:1022500090937707809376078EE290E090937907CA
:102260008093780769EA72E010C0843091F481E3CA
:1022700090E090937707809376078EE290E09093BA
:1022800079078093780763EA72E082E693E00E9420
:10229000CE1D90915D0281E0892780935D021092AE
:1022A0005E0226960FB6F894DEBF0FBECDBFDF915B
:1022B000CF911F910F91FF90EF90DF90CF90BF9043
:1022C000AF909F908F907F906F905F904F903F90D6
:1022D0002F9008952F923F924F925F926F927F922C
:1022E0008F929F92AF92BF92CF92DF92EF92FF9226
:1022F0000F931F93CF93DF9340916F024430B9F453
:1023000080917E0790E08095909520917F072C70BA
:1023100030E082239323892B09F43EC381E080932C
:102320006F029EE19093530180935E0235C320912A
:102330005F0230916002790137FF03C053E0E50E80
:10234000F11CF594E794F594E794F194E194F10885
:1023500080916102909162026C0197FF03C0E3E0FB
:10236000CE0ED11CD594C794D594C794D194C19462
:10237000D1082E0D3F1D3093600220935F028C0D1B
:102380009D1D90936202809361029091570180910C
:102390005201890F8093570180915A01813C6CF062
:1023A000815080935A01811108C0109259011092F6
:1023B0005801423011F40E94B40B80916F028330B7
:1023C00009F441C1A0905A010A2C000CBB08C2E7D5
:1023D000D2E0EEEF8E2EE2E09E2EF2E04F2E512C58
:1023E000612C712C4881442309F4BBC088859985F0
:1023F0008E0D9F1D2A813B81820F931F9B838A83B1
:102400000A851B850C0D1D1D2C813D81020F131F9C
:102410001D830C832E813F812A0D3B1D3F832E831C
:10242000433079F45D8537FF02C05C879AC04C85E4
:10243000451709F422C3442309F41FC341504C87B4
:102440001CC31A141B040CF48CC037FD8AC02A0D5F
:102450003B1D121613060CF484C0209161023091CA
:102460006202021B130B17FF03C01195019511099E
:1024700020915F0230916002821B930B97FF03C093
:10248000919581959109081719070CF48C018C8599
:10249000F0E88F9FC0011124081719070CF061C0E4
:1024A000209170023091710242E3429FC001439F2C
:1024B000900D112449812091690230916A02840FA4
:1024C000911D8217930708F4C90190936A028093C3
:1024D00069020E94B929A30192010E94612ADC01CC
:1024E000CB01880F991FAA1FBB1F0197A109B10932
:1024F000011558E0150744F00115E4E11E0734F416
:10250000212F2595225003C021E001C028E0289FFB
:10251000602D112460935201D0935901C09358014A
:102520008881853051F4F0E6F0935A0122E020933F
:102530006F0262E086E592E012C040E440935A01E7
:10254000833019F48C8581508C8780916F028D7F48
:1025500019F451E050936F0263E084E392E00E942B
:10256000271F2E968C169D0609F03CCFE091630242
:102570008E2F90E02EE0E29FF0011124EE58FD4FE7
:10258000268137812130304144F0108201966AE083
:1025900070E00E94442E8093630280916F0281302C
:1025A00009F051C0E091FE025EE0E59FF0011124C8
:1025B000EE58FD4F0681178117FD45C0808185309B
:1025C00009F441C0C181CF5FC233B9F08090680285
:1025D000912CA12CB12C81149104A104B10441F0DF
:1025E0000E94B929A50194010E94612A4B015C0156
:1025F000F401EC59FD4FD08101C0D5E08091FE027D
:1026000090E001966AE070E00E94442E8093FE0202
:1026100080917002909171024096B5E0880F991FE9
:10262000BA95E1F7081B190B0E945E295C010E9414
:102630005E299501220F331FAC01440F551F6C2FEB
:102640008D2F0E94FA0A20915A01EBE5F1E04BE54B
:1026500052E0808191818E0D9F1D918380838281C4
:1026600093818C0D9D1D9383828334964E175F0753
:1026700081F780915B0290915C02820F911D27FD92
:102680009A95937090935C0280935B02D0916F0255
:102690008D2F8D7F813009F06BC1C0917F07C5FB05
:1026A000222420F8312CC6FD05C066277727621941
:1026B000730904C061E070E0621973092C2F0C2EBD
:1026C000000C330B832F881F8827881F90E0C4FDE0
:1026D00005C000271127081B190B04C001E010E0FA
:1026E000081B190B6115710519F00115110519F475
:1026F00080E092E002C080E891E0689F9001699FCD
:10270000300D789F300D112440915F02509160028E
:10271000240F351F3093600220935F02089F9001C1
:10272000099F300D189F300D112480916102909106
:102730006202820F931F909362028093610261157F
:10274000710521F40115110509F44AC0072E000C8A
:10275000880B990B0E94E52B6B017C01B801110FCE
:10276000880B990B0E94E52BA70196010E94D72A9E
:1027700020E030E040E053E40E94DF2C2BED3FE00E
:1027800049E450E40E943B2B0E94B42B80915701F6
:10279000681B90915201292F092E000C330B37FF33
:1027A00003C03195219531092230310584F06E5FE7
:1027B0006530B0F4892F881F8827881F890F21E092
:1027C00019160CF020E0821B8093520109C06F3F64
:1027D00024F063301CF062E001C06EEF60935201A0
:1027E000D13009F04BC040916B0250916C02609166
:1027F0006D0270916E024F5F5F4F6F4F7F4F40933E
:102800006B0250936C0260936D0270936E02E091C4
:1028100063028EE0E89FF0011124EE58FD4F86819F
:10282000978197FF18C083E080936F02209169021F
:1028300030916A0230932D0320932C03E1E2F3E000
:10284000CAE0D0E0CE010197B291A291A217B307DE
:1028500008F4A6C0AEC080915301811189C0809157
:102860007E0790E0809590952C2F2C7030E0EC0145
:10287000C223D323CD2B09F0F8C081C0809154012D
:102880009091550101979093550180935401809147
:10289000530181116DC080917E0790E080959095E5
:1028A000CC702C2F30E082239323892B09F0E1C0D8
:1028B00066C080910B0390910C030E94981B60915D
:1028C0000703709108038091090390910A030E9405
:1028D000841BEDE0F3E023E030E04BEE56E4619141
:1028E0007191629FC001639F900D729F900D1124A2
:1028F000480F591F2F5F3F4F2D30310581F7C09092
:102900000703D0900803E0900903F0900A03809138
:102910000B0390910C036DE0689F9001699F300D4F
:1029200011246EE06C9DC0016D9D900D1124820FED
:10293000931F6FE06E9D90016F9D300D1124820FEB
:10294000931F840F951F0E94981B82E080930003C1
:1029500081E0C11180E08093560180EE91E0909378
:1029600055018093540161E08CE692E00E94271F9C
:102970008091530118161CF481508093530181E01B
:1029800080935E0280916F02833031F48091540114
:1029900090915501892B11F080E074C081E072C0E4
:1029A0008930910521F0B383A283009731F0EC01C7
:1029B00049CFCA30D10549F0CE01FC01EE0FFF1F0F
:1029C000E35FFC4F31832083EC0180910B039091F6
:1029D0000C03019690930C0380930B0380910703E3
:1029E00090910803A0910903B0910A03480F591F61
:1029F0006A1F7B1F409307035093080360930903EA
:102A000070930A0380910003813061F480E293E0C7
:102A100090933103809330036FE472E48EE492E08C
:102A20000E94841BCE018E569E4F880F991F8031C5
:102A3000910514F480E190E090933103809330038A
:102A40008E01000F111F035F1C4F7E019AE0E916F3
:102A5000F10409F42ECFF801819191918F010E9428
:102A6000981BFFEFEF1AFF0AF1CF84E080936F020B
:102A70007FCF81E00E94B40B7BCF1A141B040CF4AF
:102A800070CDE5CCDF91CF911F910F91FF90EF902A
:102A9000DF90CF90BF90AF909F908F907F906F907E
:102AA0005F904F903F902F9008952F923F924F92BA
:102AB0005F926F927F928F929F92AF92BF92CF92CE
:102AC000DF92EF92FF920F931F93CF93DF93CDB7D7
:102AD000DEB766970FB6F894DEBF0FBECDBF80910C
:102AE0002F03882309F40FC20E94232180912E0313
:102AF000813009F4ECC060F0823009F002C208E0D5
:102B000010E089EEE82E86E0F82E9DEFD92ED0C198
:102B100080912C0390912D03892B09F11092770756
:102B20001092760710927907109278076DEA79E093
:102B300082E693E00E94CE1D1092770710927607EE
:102B400086E090E0909379078093780760912C035A
:102B500070912D0380E090E04AE00E943221609164
:102B60002B036602B001112477FF02C0615E7F4F24
:102B7000B5E075956795BA95E1F7605E7F4F603473
:102B800071059CF440912A0320E84203A00111241E
:102B90004355584F80912903EE24E39400E220E24C
:102BA000082E000C990B0E94591FEBE7AE2EE7E0B0
:102BB000BE2EF3E26F2EF3E07F2EA6E18A2E912C3B
:102BC000C12CD12CF50145915491F5013296149107
:102BD000F30161913F0167FD6D5F65956595062E77
:102BE000000C770BC114D10419F480E090E002C00E
:102BF00085E090E0680F791FEE24E39400E1212F37
:102C0000C4010E94591FE12FF0E031968E0E9F1EE5
:102C1000FFEFCF1ADF0A23E0A20EB11C36E0C31685
:102C2000D10481F668E2E62EF12C7DE8C72E77E02C
:102C3000D72E00E010E0B601CE0101960E94102AC6
:102C400080912203082E000C990B8017910719F030
:102C500084E490E002C080E490E090937707809352
:102C60007607F0927907E0927807BE016F5F7F4F99
:102C700082E693E00E94BE1D0196C80ED91E013067
:102C8000110569F480912103811103C064E777E0A5
:102C900002C068E777E082E693E00E94CE1D0F5FF6
:102CA0001F4F86E0E80EF11C0430110521F66091FB
:102CB000220396E06902B0011124685D7F4F01E0B4
:102CC00025E045E088E390E00E94931E1AC186E16A
:102CD00090E0909377078093760784E090E090935C
:102CE00079078093780765E677E082E693E00E94B3
:102CF000CE1D40E86CE070E080E090E00E94561E3F
:102D00004DE0242E43E0342EC12CD12C7601C39407
:102D100004E010E04601E1E08E1A91083E8A2D8A17
:102D2000260137013EE0A32EB12CF9E08F16910465
:102D300019F486E090E002C080E090E09801281B42
:102D4000390B3093770720937607B0927907A092DA
:102D5000780763E677E082E693E00E94CE1D4AE0C2
:102D6000C301B2010E94322160E677E082E693E07F
:102D70000E94CE1DED89FE8961917191FE8BED8BD4
:102D800080E090E04AE00E943221FFEF8F1A9F0A14
:102D900026E0A20EB11C3FEF431A530A630A730ADE
:102DA0008CE2A816B10409F6045C1F4F95E0C90E29
:102DB000D11CE11CF11CEAE02E0E311C0C37110570
:102DC00009F0A8CF40E86CE270E080E090E00E945B
:102DD000561E00E110E0109377070093760780E31A
:102DE00090E0909379078093780764E577E082E636
:102DF00093E00E94CE1D60910B0370910C0380E064
:102E000090E04AE00E943221109377070093760702
:102E100086E390E0909379078093780768E477E001
:102E200082E693E00E94CE1D609107037091080333
:102E30008091090390910A0320E13EE040E050E0D8
:102E40000E94932ACA01B9014AE00E94322160918E
:102E50000703709108038091090390910A032CE302
:102E6000C22ED12CE12CF12CA70196010E94932AAD
:102E7000CA01B901A70196010E94932A9F938F93DB
:102E80007F936F938BE491E09F938F938E010F5FFD
:102E90001F4F1F930F930E94772EB80182E693E095
:102EA0000E94BE1D0FB6F894DEBF0FBECDBF29C075
:102EB000B701CE0101960E94102A64E170E0CE01B4
:102EC00001960E94172A382F2D2D2303C0011124AB
:102ED000805C9F4F909377078093760710937907D4
:102EE00000937807BE016F5F7F4F82E693E00E94F8
:102EF000BE1D0196E80EF91E0A5F1F4F083311052B
:102F0000B9F610922F0366960FB6F894DEBF0FBE87
:102F1000CDBFDF91CF911F910F91FF90EF90DF9088
:102F2000CF90BF90AF909F908F907F906F905F9069
:102F30004F903F902F9008953FB7F89480913F03B2
:102F400090914003A0914103B091420326B5A89B04
:102F500005C02F3F19F00196A11DB11D3FBFBA2F2B
:102F6000A92F982F8827820F911DA11DB11DBC018B
:102F7000CD0142E0660F771F881F991F4A95D1F750
:102F800008951F920F920FB60F9211242F933F9323
:102F90008F939F93AF93BF93809150039091510370
:102FA000A0915203B091530330913E0323E0230FCD
:102FB0002D3720F40196A11DB11D05C026E8230F71
:102FC0000296A11DB11D20933E0380935003909360
:102FD0005103A0935203B093530380913F03909108
:102FE0004003A0914103B09142030196A11DB11D80
:102FF00080933F0390934003A0934103B093420317
:10300000BF91AF919F918F913F912F910F900FBEE4
:103010000F901F9018958FB12CB193B130E020958F
:10302000309520743327A90123E0559547952A95BB
:10303000E1F7292F30E02095309520713327359521
:10304000279535952795242B8095807F822B089591
:1030500083B7817F83BF83B7816083BF889583B740
:103060008E7F83BF0895E0914D03F0914E039081D0
:1030700080914C03892B8083E0914A03F0914B03AC
:10308000908180914903809589238083E0914D034D
:10309000F0914E03908180914C0380958923808329
:1030A0000895E0914A03F0914B0390818091490388
:1030B000892B8083E0914D03F0914E0390818091A4
:1030C0004C038095892380830895CF92DF92EF92FD
:1030D000FF920F931F93CF93E82FF0E0EE55F04F40
:1030E000C491E62FF0E0603330F4ED5AF04FE491F4
:1030F0000E2F10E006C0EE0FFF1FED5AF14F0591A5
:1031000014916801E12CF12C60E074E284EF90E00E
:10311000A70196010E94612ABA01A90141505109F3
:10312000610971094115510581E06807710580F059
:1031300060E970ED83E090E0A70196010E94612AAA
:10314000BA01A901415051096109710983E001C027
:1031500081E0C130C9F0C33031F590919100987F82
:10316000892B80939100509399004093980010937D
:103170003D0300933C0381E080933B038091710009
:103180008260809371000FC090918100987F892B9D
:1031900080938100509389004093880080916F0054
:1031A000826080936F00CF911F910F91FF90EF90FD
:1031B000DF90CF9008951F920F920FB60F921124B7
:1031C0008F939F93AF93BF93EF93FF9380913603B9
:1031D000882309F447C08091320390913303A09172
:1031E0003403B0913503892B8A2B8B2B51F19091AD
:1031F0004603E0914703F09148038081892780834B
:103200008091320390913303A0913403B091350340
:10321000181619061A061B0674F580913203909150
:103220003303A0913403B09135030197A109B1098B
:103230008093320390933303A0933403B093350308
:103240001AC01092360380916F008D7F80936F00BB
:1032500080914603E0914703F09148039081809567
:10326000892308C090914603E0914703F0914803F9
:10327000808189278083FF91EF91BF91AF919F91CA
:103280008F910F900FBE0F901F901895E82FF0E0D0
:10329000EE55F04FE491E13019F0E33069F0089514
:1032A00080916F008D7F80936F0080914603E09145
:1032B0004703F091480308C010923B0380914303F9
:1032C000E0914403F09145039081809589238083A8
:1032D0000895E0915D03F0915E03BF016F5F7F4F42
:1032E00070935E0360935D032491922F907F822FF1
:1032F0008F70903819F40E944619EBCF903981F401
:103300003296F0935E03E0935D03FB01649190912C
:103310005B038917F0F667FDDCCF0E946518D9CFF3
:10332000903E49F480915F039091600390935E0317
:1033300080935D03CECF903F19F410925C03089503
:1033400097FDC7CF3296F0935E03E0935D03FB01D8
:10335000A491B0E0B22B20913C0330913D030E9438
:10336000B52A6C507E4F8F4F9F4F28EE33E040E0E0
:1033700050E00E94932A2093370330933803409300
:10338000390350933A038091370390913803A09109
:103390003903B0913A03892B8A2B8B2B61F481E09E
:1033A00090E0A0E0B0E08093370390933803A093BF
:1033B0003903B0933A0308951F920F920FB60F92FC
:1033C00011242F933F934F935F936F937F938F932A
:1033D0009F93AF93BF93EF93FF9380913B03882319
:1033E00049F090914303E0914403F09145038081BB
:1033F0008927808380915C03882329F1809137039A
:1034000090913803A0913903B0913A03892B8A2B0C
:103410008B2BC9F08091370390913803A091390329
:10342000B0913A030197A109B109809337039093B2
:103430003803A0933903B0933A03892B8A2B8B2B43
:1034400011F40E946919FF91EF91BF91AF919F9183
:103450008F917F916F915F914F913F912F910F903D
:103460000FBE0F901F90189510926103E4E6F0E0F4
:10347000808188608083E5E6F0E0808188608083D9
:103480000895E4E6F0E08081877F8083E5E6F0E060
:103490008081877F808381E0809361030895603815
:1034A000710528F54034510510F5DA0133E0B59582
:1034B000A7953A95E1F7FD01F695FE2FEE27F795D2
:1034C000E795477055276E0F7F1FFC01E60FF71F2A
:1034D00081E090E001C0880F4A95EAF7222319F0B5
:1034E0009489892B03C0809594898923848B0895BE
:1034F0002F923F924F925F926F927F928F929F9204
:10350000AF92BF92CF92DF92EF92FF920F931F93F1
:10351000CF93DF93CDB7DEB72A970FB6F894DEBF0F
:103520000FBECDBF6A30A1F4FC01E85EFB4F4081C5
:1035300032972081318158E0459F200D311D1124A3
:1035400031832083DC01AC5EBB4F1D921C92C3C053
:103550006D3009F4C0C09A8789878C5E9B4F9B832E
:103560008A83FC010081118129853A85285E3B4FC1
:103570003D832C8300381105D4F0AC81BD812C91A2
:10358000422F50E0EA81FB8180819181F6E02F9FFC
:10359000800D911D1124AA81BB818D939C93E98597
:1035A000FA85E75EFB4F2081211167C094C0E98551
:1035B000FA85EA5EFB4F60807180B0E46B1671049F
:1035C000E4F6EC81FD814080C801F5E04F9E800D5E
:1035D000911D11241816190684F6242C312CC301D0
:1035E00028E0429E800D911D1124181619062CF614
:1035F000A5E06A9FC001112498878F83E12CF12CEC
:10360000B5E0EB1641F0EF81F885EE0DFF1DED54AE
:10361000F64F549001C0512C6301E8E0E983F52D89
:10362000F170FE8358018A2D801B8415A0F4460199
:10363000882D8C19841558F42E81A401B501898533
:103640009A850E944F1A2FEF821A920AF1CF3FEF0C
:10365000A31AB30AE8CF5694598151505983C20C2A
:10366000D31C5111DCCF8FEFE81AF80A020D131D9D
:1036700096E0E916F10421F680CF6AEF6403900129
:10368000659F300D112420583F4F281739071CF52E
:10369000A985BA85ED91FC9111970190F081E02DFB
:1036A0006AE0CD012A960FB6F894DEBF0FBECDBFFB
:1036B000DF91CF911F910F91FF90EF90DF90CF900E
:1036C000BF90AF909F908F907F906F905F904F9042
:1036D0003F902F9009942A960FB6F894DEBF0FBE44
:1036E000CDBFDF91CF911F910F91FF90EF90DF90B1
:1036F000CF90BF90AF909F908F907F906F905F9092
:103700004F903F902F900895AB01BC01F999FECFE7
:1037100080913003909131030E94442A80913003BC
:103720009091310304969093310380933003089570
:10373000F999FECFBC0180913003909131030E9432
:103740004C2A80913003909131030296909331037B
:10375000809330030895CF93DF93F999FECFC09102
:103760003003D0913103CE010E942A2A2496D093AF
:103770003103C0933003DF91CF910895CF93DF934E
:10378000F999FECFC0913003D0913103CE010E9450
:10379000302A2296D0933103C0933003DF91CF912A
:1037A000089581E080933603E1E8F0E08081887F2E
:1037B000816080838BE395E39093890080938800F8
:1037C00087E190E0A0E0B0E0809332039093330370
:1037D000A0933403B0933503EFE6F0E0808182607C
:1037E0008083089581E080933603E1E8F0E08081F2
:1037F000887F8160808384E097E490938900809340
:10380000880088E090E0A0E0B0E0809332039093DD
:103810003303A0933403B0933503EFE6F0E08081E7
:10382000826080830895CF92DF92EF92FF920F9390
:103830001F93CF93DF936C017A018B01C0E0D0E03E
:10384000CE15DF0581F0D8016D918D01D601ED9186
:10385000FC910190F081E02DC6010995892B11F0B2
:103860002196EECF7E01C701DF91CF911F910F917D
:10387000FF90EF90DF90CF900895362F90E0FC01FD
:10388000ED57F04F4491FC01E054F04F2491FC01BE
:10389000E351F04F8491882309F452C04423E1F1AD
:1038A00050E0FA013197EF30F105B0F5EA5AFF4FD9
:1038B0000C94582E909180009F7707C090918000C3
:1038C0009F7D03C090918000977F9093800024C0DB
:1038D00094B59F7702C094B59F7D94BD1DC0909113
:1038E00090009F7707C0909190009F7D03C09091BA
:1038F0009000977F909390000FC09091C0009F77A9
:1039000003C09091C0009F7D9093C00005C090912E
:10391000C200977F9093C200E82FF0E0EE0FFF1FE8
:10392000E152F04FA591B4919FB7F894311104C0C2
:103930008C912095282302C0EC912E2B2C939FBFB5
:103940000895CF93DF9390E0FC01E054F04F249171
:10395000FC01E351F04F8491882361F190E0880FDE
:10396000991FFC01EC55F04FC591D491FC01E15237
:10397000F04FA591B491611109C09FB7F894888167
:10398000209582238883EC912E230BC0623061F452
:103990009FB7F8948881322F309583238883EC91E8
:1039A0002E2B2C939FBF06C08FB7F894E8812E2B47
:1039B00028838FBFDF91CF9108950E94722E6150AE
:1039C00030F02091F100FC0120830196F8CF289877
:1039D00084E68093590308951F93CF93DF93182FA4
:1039E000EB0161E00E94A11C209711F460E004C08B
:1039F000CF3FD10539F461E0812FDF91CF911F9145
:103A00000C943D1CE12FF0E0ED57F04FE4918E2F28
:103A100090E0FC013197EF30F10508F06CC0EB59F4
:103A2000FF4F0C94582E84B5806884BDC7BD68C014
:103A300084B5806284BDC8BD63C080918000806809
:103A400080938000D0938900C093880059C08091F2
:103A50008000806280938000D0938B00C0938A00A6
:103A60004FC080918000886080938000D0938D004B
:103A7000C0938C0045C08091900080688093900036
:103A8000D0939900C09398003BC0809190008062D1
:103A900080939000D0939B00C0939A0031C0809196
:103AA0009000886080939000D0939D00C0939C000C
:103AB00027C08091C00080688093C0008091C000C2
:103AC0008F7B8093C000C093CF001AC08091C0004C
:103AD00080628093C000C093D00012C08091C20069
:103AE00088608093C2008091C2008B7F8093C20067
:103AF000C093D20005C0C038D1050CF07CCF76CF82
:103B0000DF91CF911F9108958F929F92AF92BF92B4
:103B1000CF92DF92EF92FF926B017C010E949C1783
:103B20004B015C01C114D104E104F104F1F00E94E5
:103B30009C17DC01CB0188199909AA09BB09883EA9
:103B40009340A105B10570F321E0C21AD108E10844
:103B5000F10888EE880E83E0981EA11CB11CC114E8
:103B6000D104E104F10419F7DDCFFF90EF90DF906D
:103B7000CF90BF90AF909F908F9008956115710581
:103B800051F0FB0101900020E9F73197AF01461B8E
:103B9000570B0C94131C80E090E00895EF92FF9275
:103BA0000F931F93CF93DF938C017B01C0E0D0E094
:103BB000F701EC0FFD1F6491662339F0C8010E94E4
:103BC0007A0C892B11F02196F3CFCE01DF91CF91A2
:103BD0001F910F91FF90EF900895CF93DF9377FFA0
:103BE00013C0EE27FF27E61BF70B242F042E000C33
:103BF000330BE217F3070CF056C0460F14160CF007
:103C000052C060E070E007C014160CF04CC0603485
:103C100071050CF048C08038910508F044C09B0144
:103C2000240F311D47FD3A952134310514F040E44D
:103C3000461B362F37702FEF032E01C0220F0A9438
:103C4000EAF7430F631B710977FF02C0695F7F4F7B
:103C500033E0759567953A95E1F77695762F662767
:103C600077956795680F791FFB01EA58FC4F68E06C
:103C700070E0AFEFB0E01416B4F4483064F4CB0158
:103C8000841B910947FD9395ED0102C0D595C79519
:103C90008A95E2F72C238081282B20834850E05816
:103CA000FF4F2FEFE8CFDF91CF91089597FF0EC020
:103CB000242F30E0EE27FF27E81BF90BE217F3076C
:103CC0008CF5480F79F180E090E005C0442351F174
:103CD000803891053CF56034710520F59C01240F76
:103CE000311D2138310514F040E8481B362F37705C
:103CF00021E001C0220F3A95EAF7FB0133E0F59588
:103D0000E7953A95E1F7F695FE2FEE27F795E795BB
:103D10008E0F9F1FFC01EA58FC4F8081822B8193FC
:103D20004150D9F70895EF92FF920F93CF93DF930D
:103D3000FC0197FF0DC0842F90E0AA27BB27AE1B84
:103D4000BF0BA817B9070CF07CC04E0FE0E0F0E005
:103D500077FF0FC0AA27BB27A61BB70B822F022E07
:103D6000000C990BA817B9070CF06BC0260F60E088
:103D700070E0442309F465C0E038F1050CF061C03F
:103D800012160CF05EC0603471050CF05AC0CF0101
:103D9000840F911D8138910514F040E84E1BCB0132
:103DA000820F911D27FD9A958134910514F020E42E
:103DB000261B862F87709FEF082E01C0990F0A944B
:103DC000EAF7280F681B710977FF02C0695F7F4F10
:103DD00083E0759567958A95E1F77695762F662746
:103DE000779567956E0F7F1F6A587C4FA8E0B0E00B
:103DF000CFEFD0E012162CF5283064F4FD01E21B61
:103E0000F10927FDF3957E0102C0F594E794EA9548
:103E1000E2F79E2101110DC09095FB01842F3081A6
:103E2000392331938150D9F7285060587F4F9FEF45
:103E3000E1CFFB01842F3081392B31938150D9F7A9
:103E4000F3CFDF91CF910F91FF90EF9008950F93F3
:103E50001F93CF93DF9320916103222329F1162F23
:103E6000EC0180915C03882381F0809180078617A4
:103E7000D8F000E080915B03081728F4802F0E949F
:103E800046190F5FF7CF10925C0310938007D09311
:103E90006003C0935F03D0935E03C0935D030E94F1
:103EA000691981E080935C03DF91CF911F910F919D
:103EB00008952F923F924F925F926F927F928F92CE
:103EC0009F92AF92BF92CF92DF92EF92FF920F93A9
:103ED0001F93CF93DF93CDB7DEB72F970FB6F8942C
:103EE000DEBF0FBECDBFEB82E22EF12CFF86EE8649
:103EF0009701280F391F37FD3FC1803891050CF01D
:103F00003BC19B01200F311D37FD36C16034710567
:103F10000CF032C1DB0177FF04C0AA27BB27A61B28
:103F2000B70BA770BB279B0177FF02C0295F3F4FEC
:103F3000E3E035952795EA95E1F777FF08C0215032
:103F4000310968E070E0FB01EA1BFB0BDF01E02FA9
:103F5000E695E695E695F0E0077009F03196B9012F
:103F60007695762F662777956795680F791F6E5936
:103F70007C4F7F01E20EF31EFF82EE82C12CD12C1A
:103F8000E8E0F0E08F010A1B1B0B1D830C83EE8021
:103F9000FF80E216F30609F4EFC02830310509F47A
:103FA000EBC02F3F0FEF30070CF4D9C08B010C563C
:103FB0001F4F1A830983045111095B014B013B0117
:103FC0002C01180119861886EE84FF84E885F9858E
:103FD000EE15FF050CF0C3C0F0E84F16510409F4CC
:103FE000BEC057FCA0C02F3FEFEF3E0709F4C0C092
:103FF000E884F984EC0CFD1CFB81F130A9F4F70195
:10400000E40FF51FE491EE2EF12CF7010A2E02C009
:10401000EE0FFF1F0A94E2F7FB87EA87F401E488BA
:10402000FA85EF2AF4012CC0FB81F11116C0F701CB
:10403000E40FF51FE491F0E00A2E02C0EE0FFF1F1F
:104040000A94E2F77F01E094F094FB86EA86F5019A
:10405000E488FA85EF22F50113C0F701E40FF51F9C
:10406000E491F0E07F010A2E02C0EE0CFF1C0A94DE
:10407000E2F7FB86EA86F301E488FA85EF26F3018E
:10408000E48A109709F44FC02730310509F44BC07A
:10409000E884F984EC0CFD1CFB81F130B9F4F701E4
:1040A000E40FF51FE491F0E07F010C8002C0F5946D
:1040B000E7940A94E2F7FB86EA86E981FA81E080D8
:1040C000FA85EF2AE981FA81E0822DC0FB81F111A6
:1040D00016C0F701E40FF51FE491F0E00C8002C078
:1040E000F595E7950A94E2F77F01E094F094FB865A
:1040F000EA86F801E488FA85EF22F80113C0F70197
:10410000E40FF51FE491F0E07F010C8002C0F5940C
:10411000E7940A94E2F7FB86EA86F101E488FA85DF
:10412000EF26F101E48AE885F9853196F987E88779
:10413000E981FA813196FA83E9830F5F1F4FFFEF20
:104140002F1A3F0AEFEF4E1A5E0AFFEF6F1A7F0A2F
:10415000EFEF8E1A9E0AFFEFAF1ABF0A35CF2F5F1F
:104160003F4F60587F4FEE84FF84CE0CDF1C0FCF93
:10417000109709F08DCFD7CF2F960FB6F894DEBFEA
:104180000FBECDBFDF91CF911F910F91FF90EF90A8
:10419000DF90CF90BF90AF909F908F907F906F9067
:1041A0005F904F903F902F900895AF92BF92CF9223
:1041B000DF92EF920F931F93CF93DF935C018B01FC
:1041C000C42ED12C6A30710594F0CB016AE070E006
:1041D0000E94442EC601880F991F880F991F9501D0
:1041E000281B390BC9010E94D520EC0102C0C0E098
:1041F000D0E0C8016AE070E00E94442EAC0184E087
:10420000440F551F8A95E1F7415E5F4EEE24E3941B
:1042100000E128E066E070E0C5018C0F9D1F0E9460
:10422000591FCE010896CC0CDD1CCC0CDD1C8C1962
:104230009D09DF91CF911F910F91EF90DF90CF906B
:10424000BF90AF90089520E086E793E0B22FB111C0
:10425000BFEFFC010024B193B193B193B1930394E8
:10426000D1F708958F929F92AF92BF920F931F93B1
:10427000CF93DF93CDB7DEB7A1970FB6F894DEBF2B
:104280000FBECDBF19A2423008F44AE08E010F5D87
:104290001F4F842E912CA12CB12CA50194010E94BA
:1042A000932AE62FB901CA0101501109EA3014F42A
:1042B000E05D01C0E95CD801EC93232B242B252B76
:1042C00061F7B80182E693E00E94BE1DA1960FB689
:1042D000F894DEBF0FBECDBFDF91CF911F910F913C
:1042E000BF90AF909F908F90089520915A03211115
:1042F00003C08FEF9FEF08955FB7F89422E02093FB
:10430000E9002091F20030E01216130614F421E0C7
:1043100030E0422FFC0184E6415038F02898809329
:1043200059039091F1009193F7CF2115310521F0B8
:104330008091F200882319F05FBFC90108958BE6D0
:104340008093E800F9CF2FB7F89483E08093E900D9
:104350009091E800892F807295FF04C09091F2003F
:1043600080E4891B2FBF08958F929F92AF92BF92D6
:10437000CF92DF92EF92FF920F931F93CF93DF9331
:104380006C017B018A0180910701882309F45CC0DC
:1043900080915A03882309F457C08091580380FF05
:1043A00005C08091E00082608093E000E801B12CBC
:1043B0008AEFA82E93E0892E2AE3922E209711F4FB
:1043C000BB20D9F10E94A32181110AC0AA94AA207E
:1043D000D9F161E070E080E090E00E94841DEECFB2
:1043E000282F30E0C217D3070CF48C2F9FB7F89416
:1043F0008092E9002091E80025FF1DC0282F30E0C1
:10440000C21BD30BF701815020F041914093F10082
:10441000FACFE20EF31EBB2019F09092E8000AC01A
:104420008091E80085FD07C09092E800BB24B3941A
:10443000209709F0B12C9FBFC1CF5D9884E680938F
:1044400057031016110644F081E090E0F6019383C3
:10445000828380E090E001C0C801DF91CF911F917D
:104460000F91FF90EF90DF90CF90BF90AF909F9013
:104470008F9008958091860781110DC082E080930E
:10448000820784E080938307109285071092840747
:1044900081E08093860782E897E00895CF93DF93C9
:1044A0001F92CDB7DEB76983DC01ED91FC910280EC
:1044B000F381E02D41E050E0BE016F5F7F4F099531
:1044C0000F90DF91CF91089583E08093E900809170
:1044D000F200882319F08AE38093E8000895FC0134
:1044E0008485958597FD0BC09FB7F89482E08093F3
:1044F000E9008091F2009FBF90E0019608959FB778
:10450000F89482E08093E9008091F2009FBF90E0F0
:1045100008954091E1075091E2072091DF07309123
:10452000E00742175307B4F49091E8009570E1F367
:104530009091E80092FD19C08093F1008091E1070D
:104540009091E20701968F739927892B19F48EEFCA
:104550008093E8008091E1079091E20701969093A3
:10456000E2078093E10781E0089580E00895DF92FB
:10457000EF92FF920F931F93CF93DF93D82EF92ED4
:10458000E42E062F10E0C8010196880F0E948922B0
:1045900083E00E948922CD2DDF2D0C0F1D1FC01737
:1045A000D10789F0E7FE03C0FE01849101C0888134
:1045B0000E948922F82E80E00E9489228F21219674
:1045C0008111EDCF01C081E0DF91CF911F910F915B
:1045D000FF90EF90DF900895DF92EF92FF920F939C
:1045E0001F93CF93DF93D82E8A017B01E40EF51E33
:1045F000EB01CE15DF0571F0D7FE03C0FE018491FB
:1046000001C088810E94892221968111F2CF8FEF0B
:104610009FEF01C0C801DF91CF911F910F91FF90D3
:10462000EF90DF9008950E94A32190E008950F93EA
:104630001F93CF93DF931F92CDB7DEB78C01FC01A0
:104640008485958597FF0EC0CE0101960E94752145
:10465000019719F4898190E002C08FEF9FEFF80174
:1046600095878487F801848595850F90DF91CF9198
:104670001F910F910895CF93DF931F92CDB7DEB7AF
:10468000FC018485958597FD05C02FEF3FEF3587A9
:1046900024870BC0CE0101960E947521019719F461
:1046A000898190E002C08FEF9FEF0F90DF91CF9153
:1046B00008950F931F93CF93DF931F92CDB7DEB76B
:1046C00082E0898342E450E06FEB70E180E80E9471
:1046D000EC220E943A22DC0112960D911C91139754
:1046E0000115110589F0D801ED91FC910280F3814B
:1046F000E02DBE016F5F7F4FC801099597FD04C093
:10470000F80100851185ECCF89810F90DF91CF9161
:104710001F910F9108951F920F920FB60F921124BF
:104720008F939F938091E1009091E100937F90930C
:10473000E10083FF0FC01092E90091E09093EB003D
:104740001092EC0092E39093ED0010925A0398E0DF
:104750009093F00082FF20C093E09093E900909145
:10476000F200992319F09AE39093E800909157038F
:10477000992339F0909157039150909357039923BF
:1047800089F190915903992339F0909159039150EF
:1047900090935903992341F184FF10C08091E20066
:1047A0008E7E81608093E2008091E1008F7E809315
:1047B000E100809158038E7E806111C080FF16C099
:1047C0008091E2008E7E80618093E2008091E10022
:1047D0008E7E8093E100809158038E7E816080936D
:1047E000580304C05D9ACDCF289AD6CF9F918F9160
:1047F0000F900FBE0F901F9018951F920F920FB63B
:104800000F921124CF92DF92EF92FF920F931F939A
:104810002F933F934F935F936F937F938F939F93C8
:10482000AF93BF93EF93FF93CF93DF93CDB7DEB7F3
:104830006C97DEBFCDBF1092E9008091E80083FF46
:10484000FBC168E0CE0145960E94DF1C82EF809399
:10485000E8008D8987FF05C09091E80090FFFCCFAC
:1048600003C09EEF9093E800982F907609F0C6C0A1
:104870009E894F89588D2F89F88C91110CC08038F2
:1048800029F48091DE078093F10002C01092F100BC
:104890001092F10045C1913051F4811141C1413074
:1048A000510509F03DC18091DE078D7F0BC093302B
:1048B00061F4811135C14130510509F031C1809158
:1048C000DE0782608093DE072BC1953049F480912A
:1048D000E80080FFFCCF822F80688093E30020C136
:1048E000963009F05EC00B8D1C8D22E01092E9001D
:1048F0001092E2071092E107F21232C01092E00724
:104900001092DF070E94592399E0BE016F5F7F4F2D
:10491000DB01E92F1D92EA95E9F79983FA8291E08C
:104920009E8390EA98879AEF99872091E1073091CA
:10493000E207275F3F4F3C832B838D831092E90072
:104940001092E2071092E1071093E0070093DF074F
:1049500049E050E080E00E94EC220E945923E0C030
:104960001093E0070093DF070E943A22DC011296C1
:104970000D911C9113970115110509F4BBC0D801C5
:10498000ED91FC910480F581E02DBE016B5E7F4FBF
:10499000C8010995009709F0C7C0F8010085118585
:1049A000EACF973009F445C1983021F481E0809333
:1049B000F100B6C0993009F0B3C0837009F039C175
:1049C000E5E4F1E081E031E096E32081211109C0C6
:1049D0008EE78093EA001092EA008F8980935A0351
:1049E0009FC08093E9003093EB0021912093EC006D
:1049F0009093ED008F5F873041F7EACF8B8D9C8DD0
:104A00001092E9001092E2071092E1079093E007FC
:104A10008093DF07898D811153C08E899D89913ADA
:104A200049F4813209F005C147E050E060E071E0EF
:104A300080E0BBC0913209F0FCC0833269F48F89F9
:104A4000988DA0E0B0E08093080190930901A093B5
:104A50000A01B0930B0164C0803269F48091E800D0
:104A600082FFFCCF67E080E091E00E94DF1C8BEFCB
:104A70008093E80055C0823209F052C08F8980933C
:104A80000701EEEFFFE7859194918B3F9C4D19F064
:104A9000E0E0F8E002C0EEEFFAE0809100019091D2
:104AA0000101A0910201B0910301803B9440A10556
:104AB000B10509F09EC08091070180FF79C099C0BF
:104AC0000E943A22FC01028113810115110509F4AB
:104AD000B0C0D801ED91FC910190F081E02DBE01B4
:104AE0006B5E7F4FC801099581111AC0F8010085DE
:104AF0001185EBCFF1E0FF1609F44EC0F3E0FF1291
:104B000098C08F89882309F44AC0823089F440E82C
:104B100067E083E291E10E94B722882309F489C00B
:104B20008EEF8093E80088C018161906CCF381C078
:104B3000813029F440E86BE087E191E1ECCF8330EC
:104B400009F077C00E943A22DC011296ED90FC90A9
:104B500013978E010F5F1F4F6801E114F10479F084
:104B6000D701ED91FC910680F781E02DB801C701D6
:104B70000995080F111DF701E084F184EECFD801EB
:104B80001C92F60101900020E9F73197BF016C19E2
:104B90007D0940E0C601BFCF65E071E102C061E080
:104BA00071E1FB01449150E080E80E94EC22B8CF13
:104BB000EE3F2AE0F20751F0808191818737A7E725
:104BC0009A0721F09093FF0A8093FE0A87E797E700
:104BD00091838083809160008093E3079BE088E16C
:104BE0000FB6F894A895809360000FBE9093600074
:104BF00097CF808191818737974709F091CFA8950A
:104C0000809160008861809360008091E3078093C9
:104C10006000EE3FBAE0FB0739F08091FE0A909108
:104C2000FF0A918380837CCF1092FF0A1092FE0AC4
:104C300077CF81E28093EB006C960FB6F894DEBFDD
:104C40000FBECDBFDF91CF91FF91EF91BF91AF919B
:104C50009F918F917F916F915F914F913F912F9194
:104C60001F910F91FF90EF90DF90CF900F900FBEAC
:104C70000F901F901895789484B5826084BD84B598
:104C8000816084BD85B5826085BD85B5816085BD47
:104C900080916E00816080936E00109281008091FF
:104CA0008100826080938100809181008160809387
:104CB00081008091800081608093800080919100CC
:104CC0008260809391008091910081608093910037
:104CD000809190008160809390008091C1008460F9
:104CE0008093C1008091C10082608093C100809157
:104CF000C10081608093C1008091C3008160809376
:104D0000C3008091C00082608093C0008091C20087
:104D100081608093C20080917A00846080937A00E1
:104D200080917A00826080937A0080917A0081601D
:104D300080937A0080917A00806880937A00109244
:104D40005A031092DE07109258038091D7008160B9
:104D50008093D70080EA8093D80089B5806189BDAF
:104D600089B5826089BD09B400FEFDCF61E070E0C5
:104D700080E090E00E94841D8091D8008F7C80614B
:104D80008093D8008091E000807F8093E000809144
:104D9000E1008E7E8093E1008DE08093E200559AE1
:104DA000209ACFB7F89480915403811127C0EEEF79
:104DB000FFE08491E1EDFFE09491E82FF0E0EE0F49
:104DC000FF1FEC55F04FA591B491EC91E92321F42C
:104DD00061E081E10E943D1C61E081E10E94A11C33
:104DE0008CB580618CBD8CB580648CBD61E08FE03A
:104DF0000E94A11C61E080E10E94A11C80915403EB
:104E00008F5F80935403CFBFCCE0D0E1FE0184914B
:104E1000229631966491882319F00E94A11CF6CF46
:104E200061E086E00E943D1C61E070E080E090E07F
:104E30000E94841D60E086E00E943D1C6AE070E0F4
:104E400080E090E00E94841D61E086E00E943D1CAD
:104E5000E9EFFFE0E491F0E0EE0FFF1FE152F04FC9
:104E60008591949190934E0380934D03ECECFFE079
:104E7000E491E0934C03E1EFFFE0E491F0E0EE0F0A
:104E8000FF1FE152F04F8591949190934B038093D3
:104E90004A03E4ECFFE0E491E09349038CB58C7F96
:104EA0008CBD8DB581608DBD0E943318E2EBFFE0B3
:104EB00080EC9FE08E179F0749F024912EBD0000E3
:104EC0000DB407FEFDCF2EB53196F4CF0E945118D8
:104ED00080916400816080936400809164008260AE
:104EE0008093640080916400806880936400809166
:104EF0006400806480936400809165008160809389
:104F000065000E940B1887FF22C00E94331885EAB3
:104F10008EBD00000DB407FEFDCF8EB50E94511866
:104F200060E070E08AE00E94EC1C60E070E08BE0E2
:104F30000E94EC1C60E070E089E00E94EC1C809113
:104F400064008062809364000E942818FDCF8091E5
:104F50005B03823009F45FC0E82FF0E0EE55F04FBC
:104F6000C4918F5F80935B0361E085E00E94A11C88
:104F7000C13019F0C33019F14EC010928000109268
:104F80008100809181008860809381008091810000
:104F9000816080938100E2EFFFE0E491F0E0EE0FAA
:104FA000FF1FE152F04F85919491909348038093B5
:104FB0004703E5ECFFE0E491E09346032CC0109238
:104FC00090001092910080919100886080939100F0
:104FD00080919100816080939100E2EFFFE0E49185
:104FE000F0E0EE0FFF1FE152F04F85919491909306
:104FF000450380934403E5ECFFE0E491E093430331
:1050000080915B03882321F06CE380E00E946518A7
:1050100080E00E94461961E08DE00E94A11C82E0C0
:1050200090E00E94222A882349F080916500877FC2
:105030008093650081E08093610307C01092610353
:10504000809165008860809365008CE3809368039D
:1050500080E180936B0388E780934F0316E0C0E004
:10506000D0E001E02FB7F894809150039091510364
:10507000A0915203B09153032FBF209174032223B8
:1050800091F020916C03F82FF21BF093750320919F
:10509000690330916A032F5F3F4F30936A03209377
:1050A00069031092740340917003509171036091F1
:1050B00072037091730384179507A607B7073CF432
:1050C000481B423008F471C00E9428186EC020911D
:1050D0006B03AC01BD01420F511D611D711D409359
:1050E0007003509371036093720370937303809302
:1050F0006C0390936D03A0936E03B0936F030093C2
:10510000740380917F0780937E070E940B18809321
:105110007F078091550390915603189FF001199FC6
:10512000F00D1124EC5EFE4F0280F381E02D099515
:10513000F82E8091550390915603189FF001199F06
:10514000F00D1124EC5EFE4F0480F581E02D0995F1
:10515000809176038EBDE7E7F3E081910DB407FE01
:10516000FDCF8EBD37E0E637F307B9F70DB407FE84
:10517000FDCFFF20D1F08091550390915603019708
:1051800019F081E090E002C082E090E09093560335
:1051900080935503189FF001199FF00D1124EC5EC8
:1051A000FE4F0190F081E02D0995209709F45ACF28
:1051B0000E94000057CFEEE8F7E01382128288EEDB
:1051C00093E0A0E0B0E084839583A683B7838AE26E
:1051D00091E0918380838FEF9FEF95878487E2E64C
:1051E000F3E0138212828CE3868380E1818710864C
:1051F000178216861786108A118A128A10927707EC
:1052000010927607109279071092780781E08093C8
:105210007A072CE331E03183208380937C0710925E
:105220007D0708958F929F92AF92BF92CF92DF92A7
:10523000EF92FF92CF93DF93EC01688179818A81AD
:105240009B81611571058105910521F464E279ED79
:105250008BE597E02DE133EF41E050E00E94612AB9
:1052600049015A019B01AC01A7EAB1E40E94802ADE
:105270006B017C01ACEEB4EFA50194010E948E2A73
:10528000DC01CB018C0D9D1DAE1DBF1DB7FF03C002
:105290000197A109B04888839983AA83BB839F772C
:1052A000DF91CF91FF90EF90DF90CF90BF90AF90C4
:1052B0009F908F9008950E94122908958CE091E0AC
:1052C0000E9412290895A0E0B0E080930C01909311
:1052D0000D01A0930E01B0930F0108958F929F923C
:1052E000AF92BF92CF92DF92EF92FF92CF93DF9374
:1052F000EC01688179818A819B8161157105810545
:10530000910521F464E279ED8BE597E02DE133EF2F
:1053100041E050E00E94612A49015A019B01AC0121
:10532000A7EAB1E40E94802A6B017C01ACEEB4EFE5
:10533000A50194010E948E2ADC01CB018C0D9D1DDC
:10534000AE1DBF1DB7FF03C00197A109B0488883F8
:105350009983AA83BB83BC01CD019F77DF91CF9155
:10536000FF90EF90DF90CF90BF90AF909F908F9085
:1053700008958F929F92AF92BF92CF92DF92EF9259
:10538000FF92609110017091110180911201909132
:105390001301611571058105910521F464E279ED30
:1053A0008BE597E02DE133EF41E050E00E94612A68
:1053B00049015A019B01AC01A7EAB1E40E94802A8D
:1053C0006B017C01ACEEB4EFA50194010E948E2A22
:1053D000DC01CB018C0D9D1DAE1DBF1DB7FF03C0B1
:1053E0000197A109B0488093100190931101A093F7
:1053F0001201B0931301BC01CD019F77FF90EF9094
:10540000DF90CF90BF90AF909F908F900895609362
:10541000100170931101809312019093130108956C
:10542000FB01DC0105900D920020E1F70895FC01DD
:105430006150704001900110D8F7809590958E0FC3
:105440009F1F0895F999FECF92BD81BDF89A9927C3
:1054500080B50895A6E1B0E044E050E00C94532AF2
:10546000A8E1B0E042E050E00C94532A262FF999CD
:10547000FECF1FBA92BD81BD20BD0FB6F894FA9A37
:10548000F99A0FBE01960895242F0E94372A252FDE
:105490000E94372A0C944C2A0E94362A272F0C94FB
:1054A000372ADC01CB01FC01F999FECF06C0F2BD21
:1054B000E1BDF89A319600B40D9241505040B8F7D2
:1054C0000895052E97FB1EF400940E94782A57FD3C
:1054D00007D00E94932A07FC03D04EF40C94782A3C
:1054E00050954095309521953F4F4F4F5F4F089510
:1054F00090958095709561957F4F8F4F9F4F089540
:105500000E94B52AA59F900DB49F900DA49F800D79
:10551000911D11240895B7FF0C94802A0E94802ABF
:10552000821B930B0895A1E21A2EAA1BBB1BFD013F
:105530000DC0AA1FBB1FEE1FFF1FA217B307E40772
:10554000F50720F0A21BB30BE40BF50B661F771FCA
:10555000881F991F1A9469F76095709580959095AA
:105560009B01AC01BD01CF010895A29FB001B39F83
:10557000C001A39F700D811D1124911DB29F700D5C
:10558000811D1124911D08950E94502C60F080E827
:1055900091E009F49EEF0E94572C28F040E851E07A
:1055A00071F45EEF0CC00C94262C0C94D02CE92FD7
:1055B000E0780E94AE2C40F3092E052AB1F326179D
:1055C00037074807590738F00E2E07F8E02569F02D
:1055D000E025E0640AC0EF6307F8009407FADB01F6
:1055E000B9019D01DC01CA01AD01EF930E94522B6C
:1055F0000E94892C0E94072B5F91552339F02BEDD7
:105600003FE049E450FD49EC0C949F2D0895DF9351
:10561000DD27B92FBF7740E85FE316161706480766
:105620005B0718F4D92F0E94D72C9F938F937F93F9
:105630006F930E949A2DE8EEF0E00E94292C0E94C0
:10564000892C2F913F914F915F910E94F22CDD2385
:1056500051F09058A2EA2AED3FE049EC5FE3D078A0
:105660005D270E94B62DDF910C94892C0E94602C3E
:10567000E3950C949A2C0E944F2B0C94892C0E9439
:10568000572C58F00E94502C40F029F45F3F29F02D
:105690000C94202C51110C94D12C0C94262C0E948B
:1056A000AE2C68F39923B1F3552391F3951B550B59
:1056B000BB27AA2762177307840738F09F5F5F4FE5
:1056C000220F331F441FAA1FA9F335D00E2E3AF024
:1056D000E0E832D091505040E695001CCAF72BD03C
:1056E000FE2F29D0660F771F881FBB1F261737078D
:1056F0004807AB07B0E809F0BB0B802DBF01FF27BF
:1057000093585F4F3AF09E3F510578F00C94202C4F
:105710000C94D12C5F3FE4F3983ED4F386957795B3
:105720006795B795F7959F5FC9F7880F911D969577
:10573000879597F90895E1E0660F771F881FBB1FD3
:10574000621773078407BA0720F0621B730B840B80
:10575000BA0BEE1F88F7E09508950E94B42B689469
:10576000B1110C94D12C08950E94B62C88F09F574B
:1057700098F0B92F9927B751B0F0E1F0660F771F75
:10578000881F991F1AF0BA95C9F714C0B13091F06B
:105790000E94D02CB1E008950C94D02C672F782F64
:1057A0008827B85F39F0B93FCCF386957795679530
:1057B000B395D9F73EF490958095709561957F4F9C
:1057C0008F4F9F4F0895E89409C097FB3EF4909542
:1057D0008095709561957F4F8F4F9F4F9923A9F0CA
:1057E000F92F96E9BB279395F69587957795679559
:1057F000B795F111F8CFFAF4BB0F11F460FF1BC09D
:105800006F5F7F4F8F4F9F4F16C0882311F096E92F
:1058100011C0772321F09EE8872F762F05C06623DD
:1058200071F096E8862F70E060E02AF09A95660F96
:10583000771F881FDAF7880F9695879597F908954F
:1058400097F99F6780E870E060E008959FEF80EC33
:105850000895DF93CF931F930F93FF92EF92DF9200
:105860007B018C01689406C0DA2EEF010E94F22CB5
:10587000FE01E894A5912591359145915591A6F3A6
:10588000EF010E94B62DFE019701A801DA9469F795
:10589000DF90EF90FF900F911F91CF91DF910895CE
:1058A00000240A94161617061806090608950024FF
:1058B0000A94121613061406050608950C94262C55
:1058C0000E94B62CD8F3E894E0E0BB279F57F0F095
:1058D0002AED3FE049EC06C0EE0FBB0F661F771FB5
:1058E000881F28F0B23A62077307840728F0B25A7B
:1058F000620B730B840BE3959A9572F7803830F442
:105900009A95BB0F661F771F881FD2F790480C949B
:105910000D2E092E0394000C11F4882352F0BB0FB6
:1059200040F4BF2B11F460FF04C06F5F7F4F8F4FB7
:105930009F4F0895EF93E0FF07C0A2EA2AED3FE0F2
:1059400049EC5FEB0E94B62D0E94892C0F900394C6
:1059500001FC9058E5E1F1E00C94202E57FD9058A1
:10596000440F551F59F05F3F71F04795880F97FB23
:10597000991F61F09F3F79F08795089512161306DD
:105980001406551FF2CF4695F1DF08C0161617060C
:105990001806991FF1CF8695710561050894089541
:1059A000E894BB2766277727CB0197F908959B01D9
:1059B000AC0160E070E080E89FE30C943B2B0E9418
:1059C000F22C0C94892C0E94502C38F00E94572CF9
:1059D00020F0952311F00C94202C0C94262C1124EB
:1059E0000C94D12C0E94AE2C70F3959FC1F3950FAF
:1059F00050E0551F629FF001729FBB27F00DB11D53
:105A0000639FAA27F00DB11DAA1F649F6627B00DE2
:105A1000A11D661F829F2227B00DA11D621F739FCB
:105A2000B00DA11D621F839FA00D611D221F749FD9
:105A30003327A00D611D231F849F600D211D822F20
:105A4000762F6A2F11249F5750409AF0F1F0882347
:105A50004AF0EE0FFF1FBB1F661F771F881F915074
:105A60005040A9F79E3F510580F00C94202C0C94D7
:105A7000D12C5F3FE4F3983ED4F3869577956795F4
:105A8000B795F795E7959F5FC1F7FE2B880F911D9E
:105A90009695879597F908959F930E94602C0F9093
:105AA00007FCEE5F0C949A2C19F416F40C94262C37
:105AB0000C940B2E0E94B62CB8F39923C9F3B6F3BD
:105AC0009F57550B87FF0E94192E0024A0E640EA3D
:105AD000900180585695979528F4805C660F771F43
