:100000000C94670B0C948F0B0C948F0B0C948F0B30
:100010000C948F0B0C948F0B0C948F0B0C948F0BF8
:100020000C948F0B0C948F0B0C9435270C94A427F5
:100030000C948F0B0C948F0B0C948F0B0C948F0BD8
:100040000C948F0B0C94782A0C948F0B0C948F0BC0
:100050000C948F0B0C948F0B0C948F0B0C94D62953
:100060000C948F0B0C948F0B0C948F0B0C948F0BA8
:100070000C948F0B0C948F0B0C948F0B0C948F0B98
:100080000C94202A0C948F0B0C948F0B0C948F0BD8
:100090000C948F0B0C948F0B0C948F0B0C948F0B78
:1000A0000C948F0B0C948F0B0C948F0B05A84CCDDC
:1000B000B2D44EB93836A9020C50B9918688083CA2
:1000C000A6AAAA2ABE000000803F0000000000701F
:1000D0000100C0000C00CAA77C0A42F55508534233
:1000E00048195EF551120030000000274500409489
:1000F0001C0014F3190504F111042004000004414C
:10010000100400040000104208015E14450F40F086
:1001100001005955551351555D0D8C927C0857556A
:10012000550D5E55550D51520C015E55550F5655E6
:10013000550F00A0000000A4000000C2280080A20B
:1001400028008062080040500D005E7455079C92A4
:10015000241F5F555D0D9C1445115F1425075F55E5
:1001600055115F5114015E54551D1F41101F40F47D
:100170004500100421071F41181D1F0441105EF0A7
:10018000041F9C10041F5E54450F5F9214035ED43D
:10019000451F5F92341B5655550D41F005011F0454
:1001A00021071F4208011FE4410F1743181D07C113
:1001B000090151564D1100F0450000F0010040F4D6
:1001C0000100C6E33D06462225069045000A80F060
:1001D000904A001480F090480064904A0064904C6B
:1001E0000064904D0064904F00C880F0E2266D24BA
:1001F0000D24B515461E0000387CFCF87C38000044
:1002000000000000000000000000000000387CFE3C
:10021000FEFCFEFE7C38000000000001030100002F
:1002200000000100000000000000000001040000C8
:100230000000000000000004AA55AA55AA55AA55BE
:10024000AA55AA0205020502050205020502AAFF37
:10025000AAFFAAFFAAFFAAFFAA0207020702070233
:1002600007020702FFFFFFFFFFFFFFFFFFFFFF0780
:1002700007070707070707070707484F4C455300BD
:100280004C4556454C002B0053434F524500000847
:10029000205E5C5E200800000C005E5C5E000C00CE
:1002A0000C3C7FFFFEFF7F3C0C0E1E7FFFFEFF7F9E
:1002B0001E0E000E0202000080C080000002020E2E
:1002C000000038202000000001000000202038003D
:1002D0001F1F1F0707C0E0E0E0C007071F1F1F7CAC
:1002E0007C7C7070010303030170707C7C7C008057
:1002F000808060F8FAFCFC7EBAB0808000000002CA
:1003000007202F2F2F28272F0B02000000004080EE
:1003100060F8FAFCFC7EBA502000000000010720C3
:100320002F2F2F28272F050000000000808000F0CD
:10033000F87EBCBCBEBA30C000000000022C2F2FDB
:10034000202F2B22000100000000002000F0F87E8A
:100350009C6C0EFAF0C000000000002C2F2F202F04
:1003600025220101000000000080A0B0BA7EFEDC62
:1003700098B0E0C000000000022A2B2F202F2D2370
:100380000303010000000000A0E09A7EFEDC98B0AC
:10039000E0C0000000000022252F202F2D230303A2
:1003A000010000808000F0FADE9CFCFEFA800080F4
:1003B00000000002002F2D2B2B2B2B230902000005
:1003C00000002000F0FADE9CFCFEFA800000000035
:1003D0000000002F2D2B2B2B2B2301000000008071
:1003E0000080FAFEFC9CDEFAF00080800000000233
:1003F00009232B2B2B2B2D2F000200000000008047
:10040000FAFEFC9CDEFAF000200000000000012350
:100410002B2B2B2B2D2F0000000000C0E0B098DC10
:10042000FE7EBAB0A08000000000010303232D2F40
:10043000202F2B2A0200000000C0E0B098DCFE7ED6
:100440009AE0A00000000000010303232D2F202FBD
:1004500025220000000000C030BABEBCBC7EF8F00F
:10046000008080000000000100222B2F202F2F2C65
:100470000200000000C0F0FA0E6C9C7EF8F0002034
:100480000000000000010122252F202F2F2C00004A
:100490000000008080B0BA7EFCFCFAF860808080AA
:1004A000000000020B2F27282F2F2F20070200000B
:1004B00000002050BA7EFCFCFAF86080400000008A
:1004C0000000052F27282F2F2F2007010000008074
:1004D0008000D29EFCFCFC9ED200808000000002C6
:1004E00002212B2B2B2B2B21020200000000A0004D
:1004F000D29EFCFCFC9ED200A00000000000022165
:100500002B2B2B2B2B2102000000C0C0C0E0F8FFDA
:10051000FFFFFEFFFFFBF0C0C00003077F7F7F7F70
:100520007F7F7F7F7F0F030000E0E0E0F8FFFFFFA9
:10053000FEFFFFFBF030000001077F7F7F7F7F7FA2
:100540007F7F7F05000000C0C0C0F0F8FEFFFFFE07
:10055000FFFFFBF0C00000037F7F7F7F7F7F7F7FF7
:1005600073030101000030F0F0F8FEFFFFFEFFFF13
:10057000FBF0C00000007D7F7F7F7F7F7F7F730364
:1005800001010000C0E0F0FBFFFFFFFFFCF8F0E01E
:10059000C00000037F7F7F7F7F7F7F7F770703011E
:1005A000000000F0F0FBFFFFFFFFFCF8F0E0C000F0
:1005B0000000727F7F7F7F7F7F7F77070301C0C04E
:1005C000C0F0FBFFFFFFFEFFFFFBE0C0C000030F1A
:1005D0007F7F7F7F7F7F7F7F7F0F03000030F0F082
:1005E000FBFFFFFFFEFFFFFBF070000000017F7FBD
:1005F0007F7F7F7F7F7F77010000C0C0E0FBFFFF30
:10060000FEFFFFFFFBF0C0C0C000030F7F7F7F7FB6
:100610007F7F7F7F7F0F03000070F0FBFFFFFEFFF7
:10062000FFFFFBF0F03000000001777F7F7F7F7FCE
:100630007F7F7F010000C0E0F0F8FCFFFFFFFFFBC1
:10064000F0E0C00000010307777F7F7F7F7F7F7F1F
:100650007F030000C0E0F0F8FCFFFFFFFFFBF0F0BD
:10066000000000010307777F7F7F7F7F7F7F72001D
:100670000000C0F0FBFFFFFEFFFFFEF8F0C0C0C0AF
:1006800000010103737F7F7F7F7F7F7F7F030000F7
:10069000C0F0FBFFFFFEFFFFFEF8F0F030000001AE
:1006A0000103737F7F7F7F7F7F7F7D000000C0C05D
:1006B000F0FBFFFFFEFFFFFFF8E0C0C0C000030F2C
:1006C0007F7F7F7F7F7F7F7F7F0703000030F0FB8E
:1006D000FFFFFEFFFFFFF8E0E0E0000000057F7F86
:1006E0007F7F7F7F7F7F7F070100C0C0C0F3FFFF58
:1006F000FEFEFEFFFFF3C0C0C00003077F7F7F7FC9
:100700007F7F7F7F7F07030000B0F0F3FFFFFEFED7
:10071000FEFFFFF3F0B000000003777F7F7F7F7F55
:100720007F7F770300000202070707020200E0F85C
:10073000FC1C0E06868686868C00000000E0FC3ECF
:10074000063EFCF080000000FEFEFE1EFEF880006B
:1007500080F0FE1EFEFEFE0000FEFEFEC6C6C6C601
:10076000060000000000E0F8FC1C0E060606061E4F
:10077000FCF8F0021EFEFEE0000000E0FC7E1E021F
:10078000FEFEFEC6C6C6C6060000FEFEFE8686C685
:10079000FEFC78000000030F1F1C383031313F3F52
:1007A0001F0020383F0F07060606071F3F3C2000AA
:1007B0003F3F3F00000F3F3C3F0700003F3F3F00EF
:1007C000003F3F3F30303030300000000000070F66
:1007D0001F3C30303030381C1F0F03000000071F53
:1007E0003F383F1F030000003F3F3F303030303084
:1007F00000003F3F3F0101030F3E3C300000FEFE82
:10080000FE8686C6FEFC780000FEFEFEC6C6C6C694
:1008100006000000E0F83E063EFCE080000000FE1E
:10082000FEFE0606060E1CFCF8F000063EFEF8C0B2
:10083000F8FE3E06000C068686FEFCF800003F3FF0
:100840003F0101030F3E3C30003F3F3F303030302E
:100850003020383F0F07060606070F3F3C20003FB9
:100860003F3F303030381C1F0F03000000003F3F77
:100870003F0000000000003B3B3B0100004E45579D
:10088000205245434F52440090490028906100286F
:10089000904E002890660028904B00289063002816
:1008A00090520028906A00289050002890680028F4
:1008B00080F09037000A9034000A9030000A903897
:1008C0000005903500059031000580F09050001E25
:1008D0008000469050001E8000469050001E800010
:1008E000469050001E8000469050001E80004690AA
:1008F00050001E80F09060001C9054001C90480036
:100900001C903C001C9048001C9054001C906000FF
:100910001C80F000000000000000009062001A90AF
:1009200056001C904A001C903E000E90320004902D
:100930003E000E904A001C9056001C9062001A80E7
:10094000F0906400169058001C904C001C904000E1
:10095000109034000890400010904C001C905800FB
:100960001C9064001680F0906500109059001C9057
:100970004D001C904100149035000C9041001490E3
:100980004D001C9059001C9065001080F09067008D
:100990000A905B001C904F001C9043001890370099
:1009A0001090430018904F001C905B001C90670053
:1009B0000A80F090690008905D001C9051001C9026
:1009C00045001890390014904500189051001C9073
:1009D0005D001C9069000880F0906B0004905F003F
:1009E0001C9053001C9047001A903B001890470041
:1009F0001A9053001C905F001C906B000480F090D4
:100A00003C001E9030000A903C001490300014907E
:100A10003C000A9030001E80F0903E001E90320094
:100A20000A903E001490320014903E000A9032006A
:100A30001E80F09040001E9034000A9040001490F8
:100A40003400149040000A9034001E80F090410061
:100A50001E9035000A90410014903500149041001A
:100A60000A9035001E80F09043001E9037000A90D7
:100A7000430014903700149043000A9037001E8002
:100A8000F09045001E9039000A90450014903900FE
:100A9000149045000A9039001E80F09047001E9087
:100AA0003B000A90470014903B00149047000A90C6
:100AB0003B001E80F0903700789036008C90350017
:100AC000A0903400B4903300C8903200DC90310024
:100AD000F0903000FF80F0904B000A800032904C84
:100AE000000A800032904B000A800032904C000ACD
:100AF00080F0906100149068000A80F09064001407
:100B0000906B000A80F090670014906E000A80F0ED
:100B1000906A00149071000A80F0906D0014907437
:100B2000000A80F090490050904D0078800050906D
:100B3000490050904D007880005090490050904DF1
:100B4000007880005080F04241434B20544F2054A5
:100B500049544C4500524553544152542047414D4D
:100B60004500434F4E54494E55450001FE02FF02D9
:100B7000010102FF02FE01FEFFFFFE504552464505
:100B80004354212100455843454C4C454E542100C7
:100B9000574F4E44455246554C00564552592047F2
:100BA0004F4F4400434F4F4C00645A0F3713353EAC
:100BB0006B4F424E2D5931322056455220302E3146
:100BC0003100C0C6CFDFFFFB73037CFEFFC7E3FF2E
:100BD0007F3E00FFFFFF1B1B1B03000303FFFFFF04
:100BE00003030000000000000000808080800000FF
:100BF0000000000000000000000080E0F058AC564B
:100C0000AB55AB5500FF01010102020408106080E2
:100C100000003FFFAA55AA55AA55AA55A85FAC5C8B
:100C2000AC5CAC5CAC5C0CCF3C0000000103060D7E
:100C30001A152A252A252A2522151209040201003F
:100C40000000FFFF57AB57AB57AB57AB03FF80809C
:100C500080000000000000000000FFFF55AA55AA18
:100C600055AA55AA00FF000000010102040830C087
:100C700000001F7FD5AA55AA55AA55AA54AF56AE53
:100C800056AE56AE562E86671E00000000010306C3
:100C90000D0A151215121512110A0904020100009D
:100CA00000000000000000008080C0C0C0C0808044
:100CB00080000000000000000000C0F078AC56ABDF
:100CC00055AA55AA00FF000000010102040830C027
:100CD0000000FFFF55AA55AA55AA55AA00FFFEAE6F
:100CE00056AE56AE56AE5607FE001F171512151219
:100CF00015121512101F17121512151215121510B4
:100D00001F000000A040A00028104438827C007C16
:100D10008ED6DADA827C00383800387CFE00435206
:100D200045444954005245434F52440047414D45C4
:100D300020422053544152540047414D4520412008
:100D4000535441525400413A00423A00062D5FFF8D
:100D5000FEFCFCF8F0B060E0C0800040A050A0F4C1
:100D6000F6FBFDF3F88800000000010A152FBF7F95
:100D7000FFFFFFFC837FFC01AA55FEFFBE3C7CFF0A
:100D8000FFFFBCE0000000000000000102030707B5
:100D90000F4CAF5EA8D5FFFFFFFEFC7123030100DF
:100DA00000000000000000000000002048542A95C8
:100DB000AAB5BDBDBDDE5E5C68200000FF0101017B
:100DC0000101011F080402018141A1D1890503012C
:100DD0000000000000000000000000001028448215
:100DE000442810000000000000000000000000FC8B
:100DF000040404FC000000000000C040780808085B
:100E00007840C0000000FF020408102050B87CFEAB
:100E10007CB8502010080402FF0000000000000011
:100E200000000000000000000000000000000000C2
:100E3000000000000000000000000000FF000000B3
:100E4000000000C0800002050A172F5F8F07020014
:100E500000FF01215189058952220CF000FF010198
:100E600001FF00708C225289058952220CF000FF8C
:100E700000205089058952220CF00101FF0000007A
:100E8000FF0101000000FF0000F02040800001028F
:100E90000100804020F00000FF00708C2252890584
:100EA0008952228C700719E10107180701E119071F
:100EB00000FC020209D563554942427C1714141400
:100EC00014141407E0D192141414141414151614E5
:100ED00010171414141710171484F407101714148F
:100EE0001417100071525254555C4020201F0017F7
:100EF00014141417101714141417101011121414BA
:100F000015151710101017141417101010111214B3
:100F100012111010101714141710101112121415AA
:100F200014121211101010101314141413101010A6
:100F3000101112121414151515151517504C41598E
:100F40002054494D4500504C415920434F554E5473
:100F500020005B205D004D4F444520004245535426
:100F600020332053434F524553002D204B4E4947C9
:100F70004854204D4F5645202D0000004645425212
:100F80005541525920323032300050524F47524171
:100F90004D4D4544204259204F424F4E4F00005482
:100FA0004849532050524F4752414D204953005217
:100FB000454C454153454420554E44455200544804
:100FC00045204D4954204C4943454E53452E001B66
:100FD00000BD3D7DBE3C7C00000000003E5B4F5BE1
:100FE0003E3E6B4F6B3E1C3E7C3E1C183C7E3C18CC
:100FF0001C577D571C1C5E7F5E1C00183C1800FFB0
:10100000E7C3E7FF0018241800FFE7DBE7FF3048DD
:101010003A060E2629792926407F050507407F05D7
:10102000253F5A3CE73C5A7F3E1C1C08081C1C3ECE
:101030007F14227F22145F5F005F5F06097F017FBC
:10104000006689956A606060606094A2FFA294085F
:10105000047E040810207E201008082A1C08081CA2
:101060002A08081E101010100C1E0C1E0C30383EE2
:101070003830060E3E0E06000000000000005F0043
:10108000000007000700147F147F14242A7F2A120F
:1010900023130864623649562050000807030000F5
:1010A0001C2241000041221C002A1C7F1C2A080827
:1010B0003E0808008070300008080808080000603A
:1010C000600020100804023E5149453E00427F4026
:1010D0000072494949462141494D331814127F1085
:1010E00027454545393C4A494931412111090736CF
:1010F00049494936464949291E000014000000406C
:101100003400000008142241141414141400412265
:10111000140802015909063E415D594E7C12111214
:101120007C7F494949363E414141227F4141413E10
:101130007F494949417F090909013E414151737F76
:101140000808087F00417F41002040413F017F089F
:101150001422417F404040407F021C027F7F0408F0
:10116000107F3E4141413E7F090909063E41512120
:101170005E7F09192946264949493203017F010347
:101180003F4040403F1F2040201F3F4038403F63CA
:101190001408146303047804036159494D43007F24
:1011A0004141410204081020004141417F040201F5
:1011B0000204404040404000030708002054547897
:1011C000407F284444383844444428384444287FE5
:1011D000385454541800087E090218A4A49C787F3F
:1011E0000804047800447D40002040403D007F100A
:1011F00028440000417F40007C047804787C080487
:1012000004783844444438FC18242418182424183A
:10121000FC7C08040408485454542404043F442427
:101220003C4040207C1C2040201C3C4030403C4442
:10123000281028444C9090907C4464544C440008FE
:10124000364100000077000000413608000201022C
:1012500004023C2623263C1EA1A161123A404020F4
:101260007A3854545559215555794121545478416F
:10127000215554784020545579400C1E5272123931
:1012800055555559395454545939555454580000EA
:10129000457C410002457D420001457C40F0292407
:1012A00029F0F0282528F07C545545002054547C22
:1012B000547C0A097F493249494932324848483208
:1012C000324A4848303A4141217A3A424020780037
:1012D0009DA0A07D39444444393D4040403D3C24DC
:1012E000FF2424487E4943662B2FFC2F2BFF09291E
:1012F000F620C0887E090320545479410000447DC3
:10130000413048484A32384040227A007A0A0A720C
:101310007D0D19317D2629292F28262929292630B6
:10132000484D4020380808080808080808382F10D9
:10133000C8ACBA2F102834FA00007B000008142A29
:10134000142222142A14089500220095AA005500A0
:10135000AAAA55AA55AA000000FF00101010FF000D
:10136000141414FF001010FF00FF1010F010F01400
:101370001414FC001414F700FF0000FF00FF141405
:10138000F404FC141417101F10101F101F14141451
:101390001F00101010F0000000001F101010101F90
:1013A00010101010F010000000FF1010101010109E
:1013B000101010FF10000000FF140000FF00FF00DD
:1013C000001F10170000FC04F41414171017141455
:1013D000F404F40000FF00F714141414141414F7A8
:1013E00000F7141414171410101F101F141414F401
:1013F000141010F010F000001F101F0000001F1448
:10140000000000FC140000F010F01010FF10FF149A
:101410001414FF141010101F00000000F010FFFF44
:10142000FFFFFFF0F0F0F0F0FFFFFF000000000012
:10143000FFFF0F0F0F0F0F38444438447C2A2A3E19
:10144000147E02020606027E027E02635549416353
:101450003844443C04407E201E2006027E0202994D
:10146000A5E7A5991C2A492A1C4C7201724C304AE6
:101470004D4D303048784830BC625A463D3E49496F
:1014800049007E0101017E2A2A2A2A2A44445F4417
:101490004440514A444040444A51400000FF010347
:1014A000E080FF000008086B6B0836123624360611
:1014B0000F090F060000181800000010100030403F
:1014C000FF0101001F01011E00191D1712003C3C05
:1014D0003C3C000000000006011501260137014ACE
:1014E000015D01720188019F01B801D201EE010B7B
:1014F000022A024B026E029302BA02E40210033F78
:10150000037003A403DC03170455049704DD0427C8
:10151000057505C80520067D06E0064907B8072DB4
:1015200008A9082D09B9094D0AEA0A900B400CFADE
:101530000CC00D910E6F0F5A1053115B1272139A5B
:1015400014D41520178018F519801B231DDE1EB436
:1015500020A622B524E4263429A72B402E0031EA08
:10156000330037453ABC3D68414C456B49C84D682E
:10157000524F57805C006210111213151617181A7B
:101580001C1D1F21232527292C2E3134373A3E419B
:1015900045494E52575C62686E757B838B939CA560
:1015A000AFB9C4D0DCE9F70301D5F08D1410A1C8A0
:1015B00081CFD9F1AF2000140213021202150207E5
:1015C00002080204010C01060100DC14B214B41874
:1015D0005B1E311DC31AD81D8E16131F000000009C
:1015E000240027002A002D00300000000000250004
:1015F00028002B002E003100040404040403040519
:10160000020202020403020202020606060606069F
:101610000404020202040404080201104080401085
:101620002040804080080204018040201002011008
:101630008010204040200000000200090F0000033D
:101640000401000C00000000000000000000000089
:101650000000000000080B00020202000009040064
:10166000000102020000052400100105240101010F
:10167000042402060524060001070581031000402A
:1016800009040100020A00000007050202400000F0
:10169000070583024000000403090412010002EF61
:1016A00002014041233680000101020301417264BE
:1016B00075696E6F204C4C430041726475626F799E
:1016C0000043414E43454C004F4B0000E32A112498
:1016D0001FBECFEFDAE0DEBFCDBF11E0A0E0B1E08A
:1016E000E2E8F3E602C005900D92AA33B107D9F7FC
:1016F00026E0AAE3B1E001C01D92A438B207E1F7E9
:101700001BE0C7E6DBE004C02197FE010E94AA317E
:10171000C636D107C9F70E941A2B0C94BF310C941E
:1017200000002091800630E02095309540918106A0
:1017300050E02423352390E02823392381E0232B14
:1017400009F480E00895CF93DF93DC0177FF13C0A5
:1017500022273327261B370B842F042E000C990BCE
:10176000281739072CF4460F70E060E0141644F097
:10177000DF91CF9108951416DCF760347105C4F73A
:10178000A038B105A8F7262FCB01840F911D47FD86
:101790009A958134910514F040E4461B27709FEF21
:1017A000022E01C0990F0A94EAF7420F621B7109D9
:1017B00077FF02C0695F7F4F83E0759567958A95D3
:1017C000E1F7FB01F695FE2FEE27F795E795EA0F77
:1017D000FB1FE858FD4F28E030E06FEF70E0141673
:1017E0003CF6483064F4D901A41BB10947FDB39518
:1017F000EB0102C0D595C795AA95E2F79C2380819D
:10180000982B90834850E058FF4F9FEFE8CF0F93FD
:10181000CF93DF9397FF0CC0EE27FF27E81BF90B50
:101820004E171F0609F00CF47CC0480F90E080E0D2
:1018300077FF0FC0AA27BB27A61BB70BE22F022EEC
:10184000000CFF0BAE17BF070CF06BC0260F70E04B
:1018500060E0442309F465C0803891050CF061C054
:1018600012160CF05EC0603471050CF05AC0FC0119
:10187000E40FF11DE138F10514F040E8481B562F44
:10188000FB01E20FF11D27FDFA95E134F10514F09B
:1018900020E4261B57703FEF052E01C0330F0A943A
:1018A000EAF7250F651B710977FF02C0695F7F4F5B
:1018B00053E0759567955A95E1F77695762F6627EB
:1018C00077956795860F971F88589D4FA8E0B0E0E1
:1018D000CFEFD0E012162CF5283064F4BD01621B66
:1018E000710927FD7395FE0102C0F595E7956A958C
:1018F000E2F73E2301110DC03095FC01542F6081A9
:10190000632361935150D9F7285080589F4F3FEF80
:10191000E1CFFC01542F6081632B61935150D9F7C3
:10192000F3CFDF91CF910F9108952F923F924F9275
:101930005F926F927F928F929F92AF92BF92CF925F
:10194000DF92EF92FF920F931F93CF93DF9300D01C
:1019500000D01F92CDB7DEB7822E912C9401280FB4
:10196000391F37FDD7C0803891050CF0D3C09B01DB
:10197000200F311D37FDCEC0603471050CF0CAC098
:10198000DB0177FF04C0AA27BB27A61BB70BA770F4
:10199000BB279B0177FF02C0295F3F4FF3E03595DE
:1019A0002795FA95E1F777FF08C02150310968E0E3
:1019B00070E0FB01EA1BFB0BDF01202E269426942E
:1019C0002694312C077019F0FFEF2F1A3F0ABA0145
:1019D000A9015695542F442757954795480F591FED
:1019E0005C834B83220E331E48E050E03A016A1AB2
:1019F0007B0A2216330609F48DC02830310509F41C
:101A000089C02F3F5FEF35070CF458C00B811C8154
:101A10000C591D4F6C0150E040E0EB81FC81EC5112
:101A2000FD4F2F01D7FC3BC02F3F320709F46EC09A
:101A30005A01A60EB71EF801F488F1E0EF1249C072
:101A4000F501A490EA2D0A2E01C0EE0F0A94EAF7E0
:101A5000FE2AF801F48A109711F127303105F9F0C8
:101A6000FA01E60FF71FFA83E9835201A40EB51EAF
:101A7000F501F489FD83FF24F394E981FA81EF10E5
:101A800036C0F491F983EF2FF0E0062C02C0F595F3
:101A9000E7950A94E2F7FD80FE2AF501F48A4F5F8C
:101AA0005F4FFFEFCF1ADF0A0F5F1F4F4815590531
:101AB0002CF4F0E8CF16D10409F0B4CF2F5F3F4FDC
:101AC000680D791D4B815C8140585F4F5C834B836F
:101AD00090CFF501A490EA2DF0E00A2E02C0EE0F9F
:101AE000FF1F0A94E2F7E095F095FE22B2CFF49141
:101AF000F983EF2FF0E0062C02C0F595E7950A94E4
:101B0000E2F7E095F095FD80FE22C7CF109709F02F
:101B1000A7CFC5CF0F900F900F900F900F90DF9130
:101B2000CF911F910F91FF90EF90DF90CF90BF90DA
:101B3000AF909F908F907F906F905F904F903F906D
:101B40002F9008954F925F926F927F928F929F9203
:101B5000AF92BF92CF92DF92EF920F931F93CF93EA
:101B6000DF934C013B01142FC0E8D0E0C41BD10926
:101B7000D595C795CC24C394D12C2DEFA22EBB2490
:101B8000BA9433E0432E512CC501B2010E94963124
:101B9000FB01E80DF91DC601B2010E9496318C0FC0
:101BA0009D1FE12C00E1212FA301BF0101970E949D
:101BB000950C82E0A80EB11C8FEFC81AD80A85E0F8
:101BC000C816D10409F7EE24E394212FA301B40130
:101BD000CE010E94950CDF91CF911F910F91EF9054
:101BE000DF90CF90BF90AF909F908F907F906F903D
:101BF0005F904F90089590E0E8E7F2E091119FEF39
:101C00008FEF91939193919391938150D0F7089591
:101C1000E1E0F0E00E941D0E319728F068517C4F02
:101C20008F4F9F4FF9CFAB01FC010E941D0E64172F
:101C300075078E079F07C8F30895AAEEB1E02FB786
:101C4000F8947D918D919C9166B52FBFA89B05C09E
:101C50006F3F18F47F5F8F4F9F4F22E0660F771F13
:101C6000881F991F2A95D1F70895FC0180910302DE
:101C7000882311F13FB7F89482E08093E900209126
:101C8000F200822F90E01816190614F481E090E01B
:101C9000882339F0289844E6409302024091F100ED
:101CA0004083222339F02091F200211103C02BE65A
:101CB0002093E8003FBF08958FEF9FEF08952FB75F
:101CC000F89483E08093E9009091E800892F807276
:101CD00095FF04C09091F20080E4891B2FBF089506
:101CE0008091FA0181110DC082E08093F60184E0B9
:101CF0008093F7011092F9011092F80181E080932E
:101D0000FA0186EF91E008958F929F92AF92BF9271
:101D1000CF92DF92EF92FF920F931F93CF93DF93B7
:101D20006C017B018A0180910B01882309F458C062
:101D300080910302882309F453C08091F50180FF4C
:101D400005C08091E00082608093E000E801B12C42
:101D50008AEFA82E93E0892E2AE3922E209711F481
:101D6000BB20B9F10E945F0E811106C0AA94AA207F
:101D7000B9F10E94080EF2CF8C171D0611F00CF07D
:101D80008C2F9FB7F8948092E9002091E80025FD00
:101D900002C09FBFE3CF282F30E0C21BD30BF70157
:101DA000815020F041914093F100FACFE20EF31EF2
:101DB000BB2021F09092E800B12CEBCF8091E8009D
:101DC00085FDE7CF9092E800BB24B394209709F3F8
:101DD000F3CF5D9884E68093F401101611063CF071
:101DE00081E090E0F6019383828310E000E0C80177
:101DF000DF91CF911F910F91FF90EF90DF90CF90E7
:101E0000BF90AF909F908F900895CF93DF931F92D4
:101E1000CDB7DEB76983DC01ED91FC910280F381DF
:101E2000E02D41E050E0BE016F5F7F4F09950F90BC
:101E3000DF91CF91089583E08093E9008091F200D3
:101E4000882319F08AE38093E80008950E945F0ECA
:101E500090E00895CF93DF931F92CDB7DEB7FC01DA
:101E60008485958597FD08C02FEF3FEF3587248740
:101E70000F90DF91CF910895CE0101960E94350E0B
:101E8000019719F4898190E0F3CF8FEF9FEFF0CFA6
:101E90000F931F93CF93DF931F92CDB7DEB78C01C3
:101EA000FC018485958597FF0BC0CE0101960E94A9
:101EB000350E019771F4898190E0F8019587848748
:101EC000F801848595850F90DF91CF911F910F9137
:101ED00008958FEF9FEFF1CFFC018485958597FDE5
:101EE0000BC09FB7F89482E08093E9008091F200E4
:101EF0009FBF90E0019608959FB7F89482E0809389
:101F0000E9008091F2009FBF90E008954091F001B8
:101F10005091F1012091EE013091EF0142175307EA
:101F2000B4F49091E8009570E1F39091E80092FD8F
:101F300019C08093F1008091F0019091F101019618
:101F40008F739927892B19F48EEF8093E800809185
:101F5000F0019091F10101969093F1018093F001CD
:101F600081E0089580E00895EF92FF920F931F9310
:101F7000CF93DF93F82E192FE62E042F81E0860FE2
:101F8000880F0E94860F83E00E94860FCF2DD12FED
:101F9000EC0EFD2EF11CCE15DF05B9F007FF13C0C6
:101FA000FE0184910E94860F182F80E00E94860F08
:101FB000812321968111EFCFDF91CF911F910F9156
:101FC000FF90EF9008958881EDCF81E0F5CFDF920B
:101FD000EF92FF920F931F93CF93DF93D82E8A0136
:101FE000EB017B01E40EF51ECE15DF0559F0D7FE9F
:101FF00012C0FE0184910E94860F21968111F4CFB8
:102000000FEF1FEFC801DF91CF911F910F91FF904C
:10201000EF90DF9008958881EECF0F931F93CF93B9
:10202000DF931F92CDB7DEB782E0898342E450E0B0
:1020300065E576E180E80E94E70F0E94700EDC0102
:1020400012960D911C910115110589F0D801ED91A1
:10205000FC910280F381E02DBE016F5F7F4FC801CC
:10206000099597FD04C0F80100851185ECCF8981A1
:102070000F90DF91CF911F910F910895615030F033
:102080002091F100FC0120830196F8CF289884E686
:10209000809302020895282F30E0F901EA5CF94E9E
:1020A0009491F901E95EF94E849128503A4EF90174
:1020B0002491222309F430C09923E9F091509F30F4
:1020C000D0F4E92FF0E0E959FF4E0C94AA319510B5
:1020D000991076108D1091107B107B107B109C1046
:1020E000A210A610AA10B0107B10B410909180001E
:1020F0009F7790938000E22FF0E0EE0FFF1FE651F4
:10210000FA4EA591B4919FB7F894EC91611132C049
:1021100080958E238C939FBF0895909180009F7D22
:10212000E8CF90918000977FE4CF94B59F7794BDDE
:10213000E2CF94B59F7DFBCF909190009F779093D5
:102140009000D9CF909190009F7DF9CF9091900011
:10215000977FF5CF9091C0009F779093C000CBCF31
:102160009091C0009F7DF9CF9091C200977F90938E
:10217000C200C1CF8E2BCECFCF93DF9390E0FC0176
:10218000E95EF94E249188509A4EFC01849188238F
:10219000C9F090E0880F991FFC01E452FA4EA59116
:1021A000B491FC01E651FA4EC591D49161110DC074
:1021B0009FB7F8948C91209582238C938881282353
:1021C00028839FBFDF91CF910895623051F49FB76C
:1021D000F8943C91822F809583238C93E8812E2B59
:1021E000EFCF8FB7F894EC912E2B2C938FBFEACFC3
:1021F0001F93CF93DF93182FEB0161E00E94BC1077
:10220000209739F460E0812FDF91CF911F910C94DA
:102210004B10CF3FD10511F461E0F5CFE12FF0E095
:10222000EA5CF94EE491E150EF3008F07FC0F0E055
:10223000E45EFE4E0C94AA312B1133113811421179
:102240004C11961196119611561160116A11741164
:1022500081119611891184B5806884BDC7BDDF9155
:10226000CF911F91089584B5806284BDC8BDF7CF1A
:1022700080918000806880938000D0938900C09313
:102280008800EDCF80918000806280938000D093A1
:102290008B00C0938A00E3CF809180008860809398
:1022A0008000D0938D00C0938C00D9CF8091900096
:1022B000806880939000D0939900C0939800CFCF0E
:1022C00080919000806280939000D0939B00C09397
:1022D0009A00C5CF80919000886080939000D09341
:1022E0009D00C0939C00BBCF8091C000806880930C
:1022F000C0008091C0008F7B8093C000C093CF004E
:10230000AECF8091C00080628093C000C093D000A7
:10231000A6CF8091C20088608093C2008091C200E5
:102320008B7F8093C200C093D20099CFC038D10573
:102330000CF072CF67CF0F931F93CF93DF93062FCD
:10234000142FCFEFD0E0BE01681B71098AE00E9414
:10235000F810BE01601B71098BE00E94F810BE01ED
:10236000611B710989E0DF91CF911F910F910C944E
:10237000F810AB01FC010E941D0E41505109E1090A
:10238000F10928F068517C4F8F4F9F4FF6CFAB017A
:10239000FC010E941D0E641775078E079F07C8F386
:1023A00008950895AF92BF92CF92DF92EF92FF927D
:1023B0000F931F93CF93DF936C017B018B01040F6D
:1023C000151FEB015E01AE18BF08C017D10759F009
:1023D0006991D601ED91FC910190F081E02DC6014B
:1023E0000995892B79F7C501DF91CF911F910F9145
:1023F000FF90EF90DF90CF90BF90AF9008958FB196
:102400008095807F669B88601C9B8460089583B75D
:10241000817F83BF83B7816083BF889583B78E7FB9
:1024200083BF0895E091E101F091E20190818091F4
:10243000E0018095892380830895CF92DF92EF9207
:10244000FF920F931F93CF93E82FF0E0E955FA4ED8
:10245000C491E62FF0E0603398F5E958FA4EE49124
:102460000E2F10E0F12CE12C60E074E284EF90E09C
:10247000A70198010E94E52E215031094109510917
:1024800091E02115310581E0480751056CF060E9C4
:1024900070ED83E090E0A70198010E94E52E2150A5
:1024A00031094109510993E0C13089F0C330F9F095
:1024B000CF911F910F91FF90EF90DF90CF900895F3
:1024C000EE0FFF1FE958FB4E05911491CBCF809181
:1024D0008100887F892B809381003093890020932D
:1024E000880080916F00826080936F00E1CF8091BF
:1024F0009100887F892B80939100309399002093DD
:1025000098001093D8010093D70181E08093D60101
:1025100080917100826080937100CACFE82FF0E053
:10252000E955FA4EE491E13019F0E33089F008956D
:1025300080916F008D7F80936F008091DC01E0912E
:10254000DD01F091DE0190818095892380830895DB
:102550001092D6018091D901E091DA01F091DB016E
:10256000F2CFE0910F02F0911002BF016F5F7F4F39
:102570007093100260930F022491922F907F822F0C
:102580008F70903819F40E948E12EBCF903981F43D
:102590003296F0931002E0930F02FB016491909148
:1025A0000D028917F0F667FDDCCF0E941D12D9CF0E
:1025B000903E49F480911102909112029093100282
:1025C00080930F02CECF903F19F410920E0208951F
:1025D00097FDC7CF3296F0931002E0930F02FB01F4
:1025E0006491A091D701B091D801322F262F0E947B
:1025F000392F6C507E4F8F4F9F4F28EE33E040E0D5
:1026000050E00E94172F2093D2013093D3014093C2
:10261000D4015093D5018091D2019091D301A09122
:10262000D401B091D501892B8A2B8B2B61F481E0E9
:1026300090E0A0E0B0E08093D2019093D301A0930A
:10264000D401B093D50108950F931F93CF93DF93D7
:1026500020911302222329F1162FEC0180910E0202
:10266000882381F0809182068617D8F000E080915F
:102670000D02081728F4802F0E948E120F5FF7CFEB
:1026800010920E0210938206D0931202C093110290
:10269000D0931002C0930F020E94B11281E0809388
:1026A0000E02DF91CF911F910F910895603871054F
:1026B000E8F440345105D0F4342F369536953695EC
:1026C000A0E83A9FF0011124E60FF71FE80FF91F69
:1026D0003489CA018770992741E050E001C0440F56
:1026E0008A95EAF7222319F0432B448B08954095ED
:1026F0004323FBCF2F923F924F925F926F927F9234
:102700008F929F92AF92BF92CF92DF92EF92FF9201
:102710000F931F93CF93DF93CDB7DEB72D970FB6EF
:10272000F894DEBF0FBECDBF6A3069F5FC01EA5EEA
:10273000FB4FDC01A85EBB4F2C9148E0249F900129
:10274000112440815181240F351F31832083149738
:102750001D921C922D960FB6F894DEBF0FBECDBF12
:10276000DF91CF911F910F91FF90EF90DF90CF906D
:10277000BF90AF909F908F907F906F905F904F90A1
:102780003F902F9008956D3029F39D878C878C5E44
:102790009B4F9A838983FC01808091802C853D85A5
:1027A000285E3B4F3C832B8330E8831691040CF06A
:1027B00071C0EC85FD85EA5EFB4F6080718040E46E
:1027C000641671040CF066C0AB81BC814C9045E08E
:1027D0009401449E200D311D1124121613060CF095
:1027E00059C0242C312C910153E0220F331F5A95EC
:1027F000E1F7260D371D121613060CF04BC0649F2F
:10280000B001112410E000E0FB01E952F04FFB871A
:10281000EA87E0E0053029F0EA85FB85E00FF11F4B
:10282000E491530198E0592E2E2F30E03E832D8302
:10283000E170EF83F12CE12CE414D8F4C4018E0D87
:102840009F1D99878887D12CC12CC41470F4A601D0
:102850004A0D5B1D2F81688579858C859D850E9439
:1028600056139FEFC91AD90AF0CFAFEFEA1AFA0A46
:10287000E3CFED81FE81F595E7955A94A20CB31C48
:102880005110D2CF0F5F1F4F820C931C06301105E1
:1028900009F0BFCFEB81FC812081422F50E0A9815C
:1028A000BA818D919C91B6E02B9F800D911D1124D2
:1028B000E981FA8191838083EC85FD85E75EFB4F9A
:1028C0002081222309F446CF6AEF64039001659FBB
:1028D000300D112420583F4F281739070CF03ACFFC
:1028E000AC85BD85ED91FC9111970190F081E02DB3
:1028F0006AE0CD012D960FB6F894DEBF0FBECDBFB6
:10290000DF91CF911F910F91FF90EF90DF90CF90CB
:10291000BF90AF909F908F907F906F905F904F90FF
:102920003F902F90099481E090910502913009F039
:1029300080E08093CA0184E08093CC0108959C01DB
:1029400090910C0296306CF484E09802F00111240E
:10295000E257FE4F33832283718360839F5F90939E
:102960000C020895CF93C0918D01C150C0938D0189
:102970002C2F2F50330BC90163E070E00E94963179
:10298000862F4AE35AEA63EE7EEE04C07695679599
:10299000579547958A95D2F7417040938C018FE700
:1029A000489F402D112460E080E00E949B1181E04F
:1029B000C11180E0CF91089588E780938D0108953B
:1029C000282FE82FF0E0E755F44FE4918E2F69E1CE
:1029D0000E9476318093890135E08E2F632F0E940B
:1029E0007631492F0E947631909388014093870178
:1029F00088E0273009F480E1809386010895181655
:102A00001CF59091C201492F46954695282F082E16
:102A1000000C330B215031094217130644F42FEFF9
:102A2000280F220F220F9370922B9093C2018830AF
:102A30005CF08F3054F484EA9BE09093850180939E
:102A4000840188E780938301089586311CF48AE924
:102A50009BE0F3CF8D311CF480E99BE0EECF803218
:102A60001CF485E89BE0E9CF8BE79BE0E6CF66238B
:102A700049F133E085300CF034E091E08A300CF419
:102A800090E021E084310CF420E0290F230F209303
:102A90005901682F880F770B6E5F7F4F80E093E0BE
:102AA0000E949631685F7F4F269FC001279F900D3F
:102AB000112490935B0180935A0180915901809376
:102AC0005801089581E08093590181E090E0F1CFB1
:102AD000CF92DF92EF92FF920F931F93CF93DF93EA
:102AE0006091570100915D01002E000C110BC09107
:102AF0005C010C2E000CDD0BE82E880FFF0898E01F
:102B0000C92ED12CC701860F911D67FD9A95089695
:102B1000B6010E949631AC01682F9C01220F331F31
:102B2000F901E559F44F94912459344FF901249156
:102B3000F801E90FF11D97FDFA95389718F7FE0196
:102B4000E20FF11D27FDFA953497E0F64093570107
:102B50009093560120935501DF91CF911F910F91D2
:102B6000FF90EF90DF90CF900895809154018C33C7
:102B700018F084E080938A0181E08093CB0108956E
:102B80006FEF80ED91E00C9424130F931F93CF937C
:102B9000C82F8B010E94C01510920C02B80188EC5E
:102BA00096E10E949F1467E076E181EC96E10E9435
:102BB0009F1488E280930B02C0930A028FE28093F5
:102BC00009028BE08093080281E0809307028093E2
:102BD00006028093050280930402CF911F910F910A
:102BE00008958091050226E08202C00111246FEB56
:102BF00073E2805E0C94C5158091050226E0820286
:102C0000C001112464E47EE1805E0C94C5150E942D
:102C1000C01510928B0181E08093CB0108950E9432
:102C2000C01583E08093CC0181E08093CB010895AF
:102C30000E94C01582E08093CC0181E08093CB019B
:102C400008956FEF8AEC91E00C942413882349F0E7
:102C500080916500877F8093650081E080931302F7
:102C6000089510921302809165008860809365003A
:102C70000895CF9380E80E94910B882361F08091A2
:102C80000502181644F48150809305020E94211613
:102C900081E08093040280E10E94910B8823B9F0C7
:102CA00020910502422F022E000C550B80910C0240
:102CB000082E000C990B01974817590744F42F5F11
:102CC000209305020E94211681E0809304028091E6
:102CD0000602882379F088E00E94910B882351F046
:102CE00080911302C1E08C270E9426160E94C01515
:102CF000C093040284E00E94910B882369F0E09164
:102D0000050284E0E802F0011124E257FE4F019031
:102D1000F081E02DCF910994CF91089510923B015D
:102D20001092500180918106982F907FA1F190918F
:102D30003A019F5F94316CF590933A0190913A017A
:102D4000913011F09F30C1F485FF03C09FEF909345
:102D5000500186FF05C0909150019F5F90935001F4
:102D600087FF03C09FEF90933B0184FF05C08091D4
:102D70003B018F5F80933B0180918B01882371F031
:102D80000E94391680918A01853009F468C082E07A
:102D900008959FE0D1CF10923A01EECF8091540177
:102DA0008F5F8093540180914201882319F08150F4
:102DB0008093420180918301882319F08150809390
:102DC000830180918601882319F0815080938601C8
:102DD000E0918A018FEF8E0F8230B0F48091C301B1
:102DE0009091C401A091C501B091C6010196A11DA9
:102DF000B11D8093C3019093C401A093C501B0930A
:102E0000C60181E08093A601F0E0EE0FFF1FE451C0
:102E1000FE4F85919491FC01099580913C01181613
:102E20000CF0B0CF20918A01243019F410923C01AB
:102E3000A9CF90913D0132E0823009F431E0931B3B
:102E4000953C1CF090933D019DCF9CE390933D01F8
:102E5000815080933C01233009F094CFE7CF81E08B
:102E60000895EFEAF1E025E030E089E399E7619128
:102E70007191629FA001639F500D729F500D1124AC
:102E8000840F951F2E5F3F4F2F31310581F7089535
:102E90002F923F924F925F926F927F928F929F926A
:102EA000AF92BF92CF92DF92EF92FF920F931F9358
:102EB000CF93DF93CDB7DEB72F970FB6F894DEBF71
:102EC0000FBECDBF6A3071F5FC01EA5EFB4FDC013D
:102ED000A85EBB4F4C912081318156E0459F200D6B
:102EE000311D11243183208314971D921C9281E09F
:102EF00090E02F960FB6F894DEBF0FBECDBFDF91E6
:102F0000CF911F910F91FF90EF90DF90CF90BF90E6
:102F1000AF909F908F907F906F905F904F903F9079
:102F20002F90089520EE260F203408F79F878E8774
:102F30008C5E9B4F9E838D83FC01008111812E85C9
:102F40003F85285E3B4F39872887003811050CF0F4
:102F500065C0EE85FF85EA5EFB4F808191819B8392
:102F60008A83803491050CF059C0D9018C91482E88
:102F7000512C9801B5E08B9F200D311D112437FD98
:102F80004DC02A813B81E6E08E9F200D311D11242A
:102F900037FD44C0EE85FF85E55EFB4F7080EE8512
:102FA000FF85E65EFB4F608024E0629FF001112404
:102FB000E65BFF4F85909590A590B490813009F025
:102FC0005FC026E0D22EF12CE12CD501C401817026
:102FD0009927AA27BB2780FC02C0761479F0262DFA
:102FE000892B8A2B8B2B09F4272D4A815B814E0D6F
:102FF0005F1DB8018E859F850E945613B694A794D5
:10300000979487943FEFE31AF30A56E0E516F1042C
:10301000E1F6DA940F5F1F4FD110D5CFA885B9859F
:103020002C91422F50E0ED81FE8180819181F6E06C
:103030002F9F800D911D1124AD81BE818D939C9396
:10304000EE85FF85E75EFB4F2081222309F44FCFF9
:103050006AEF64039001659F300D112420583F4FA3
:10306000281739070CF043CFAE85BF85ED91FC9151
:1030700011970190F081E02D6AE0CD01099537CFDD
:10308000180186E089830A811B8196E09C83D10127
:10309000A40DB51DBD87AC87D501C40181709927EA
:1030A000AA27BB2780FC02C0761481F1892B8A2BCA
:1030B0008B2B31F16F826101F801E40DF51DFB8767
:1030C000EA872C853D85C216D30604F5780117FFE3
:1030D00002C0F12CE12C8A859B858134910514F086
:1030E00080E490E0E816F9066CF42F81A701B601A0
:1030F0008E859F850E9456133FEFE31AF30AEBCFAC
:103100007F82D9CF5FEFC51AD50ADBCFB694A794DB
:10311000979487948C8181508C83040D151D8111A7
:10312000BBCF998191509983240C351C9111ABCF61
:1031300075CF0F931F93CF93DF938C01D0E0C0E046
:10314000F801EC0FFD1F6491662341F084E692E0E4
:103150000E944817892B11F02196F2CFCE01DF9102
:10316000CF911F910F9108958F929F92AF92BF922E
:10317000CF92DF92EF920F93CF93DF930E94FB0DDC
:1031800020918D0188E790E0821B91096CE270E04C
:103190000E9496314B0182EEC82E8BE0D82E9CE126
:1031A000A92EB12CD0E0C0E081E090E08C169D0605
:1031B00011F090E080E020918C01289FB001299FC0
:1031C000700D1124645F7F4FEE24E39400E228E148
:1031D000A601C5010E94950C219688E1A80EB11C9C
:1031E00080E6C80ED11CC330D105F1F608E020E21C
:1031F00042EC5BE06CE270E084E490E00E94950CAD
:1032000080E190E090937906809378068AE390E0DD
:1032100090937B0680937A0681EB9BE0DF91CF91C0
:103220000F91EF90DF90CF90BF90AF909F908F90D5
:103230000C9499180C9448177F928F929F92AF929A
:10324000BF92CF92DF92EF92FF920F931F93CF9393
:10325000DF938C017B01C0E08AE0882E912CA12CA9
:10326000B12C1093790600937806F0927B06E092D9
:103270007A06CA01B901A50194010E94E52E722EB9
:10328000C32ED42ED52F605D84E692E00E941A19D9
:10329000272D3C2D4D2D5D2F06501109CF5F1216A5
:1032A000130614061506ECF28C2FDF91CF911F91B7
:1032B0000F91FF90EF90DF90CF90BF90AF909F90D5
:1032C0008F907F900895089590E080E0089597FF93
:1032D0000DC022273327281B390B4217130629F06C
:1032E00024F0480F90E080E031F408954423E9F39E
:1032F00080389105D4F760347105B8F79C01240F2C
:10330000311D2138310514F040E8481B362F377045
:1033100021E001C0220F3A95EAF7FB0133E0F59571
:10332000E7953A95E1F7F695FE2FEE27F795E795A5
:10333000E80FF91FE858FD4F8081822B819341509F
:10334000D9F7D3CFEF92FF920F931F93CF93DF93D1
:103350007C01EB01142F022F0E946719BE01600F40
:10336000711D07FD7A9561507109412FC7010E94B7
:10337000671902502196402FBE01C7010E94A30B7E
:10338000C701810F911D402FBE010197DF91CF91A1
:103390001F910F91FF90EF900C94A30B8F929F922F
:1033A000AF92BF92EF92FF920F931F93CF93DF9351
:1033B000CDB7DEB7A1970FB6F894DEBF0FBECDBF75
:1033C0007C01FA01CB0119A2223008F42AE08E0117
:1033D0000F5D1F4F822E912CB12CA12CBF01A50196
:1033E00094010E94172FF901CA016A304CF5605D03
:1033F000D8016E938D01232B242B252B79F790E098
:1034000080E0109761F0FD0101900020E9F731970D
:10341000AF014A1B5B0BBD01C7010E94D211A196EF
:103420000FB6F894DEBF0FBECDBFDF91CF911F91D5
:103430000F91FF90EF90BF90AF909F908F90089565
:10344000695CD6CFCF92DF92EF92FF920F931F93DA
:10345000CF93DF93D090080210910902C0910A0225
:103460000C2E000CDD0BE0900B020E2C000CFF0864
:1034700022E02D0D42E0410FBE016150710900E0D4
:10348000C70101970E94070C80910702882359F019
:1034900024E02D0D44E0410FBE0162507109C701C7
:1034A00002970E94A219F12CE12CD0E0C0E00EE8B6
:1034B00011E060910A02062E000C770B80910B023E
:1034C000082E000C990B40910502C42E042E000C0E
:1034D000DD0820910C02022E000C330BC217D3071B
:1034E00024F5D8011296ED91FC916E0D7F1D9C0183
:1034F000245F3F4F44E050E0CC15DD0511F050E073
:1035000040E0241B350B30937906209378067093A6
:103510007B0660937A06CF010E94991821960C5F72
:103520001F4FB6E0EB0EF11CC4CFC6E04C02600D9D
:10353000711D112401E025E045E00E94070C8091F7
:1035400006028823A9F040E150E06EE07DE082E6CB
:1035500096E00E947F2E60911302C69FB001112455
:103560006E5F724F46E050E082E796E00E947F2E49
:1035700010920402DF91CF911F910F91FF90EF9075
:10358000DF90CF9008952F923F924F925F926F926B
:103590007F928F929F92AF92BF92CF92DF92EF92E3
:1035A000FF920F931F93CF93DF9300D000D000D0F2
:1035B000CDB7DEB78091CB01882309F46AC0209192
:1035C000CC0129830E94FB0D3981323009F4A1C05E
:1035D000333009F40DC2313009F05BC0EE24E394BE
:1035E00008E120E84CEB5DE068E070E090E080E00E
:1035F0000E94950C00E22CE14CE45DE060E270E09A
:1036000088E090E00E94950C8091AB019091AC0114
:10361000A091AD01B091AE01892B8A2B8B2BE9F1E2
:103620008091CA01882309F471C089E49DE0109259
:1036300079061092780610927B0610927A060E9404
:103640009918C090AB01D090AC01E090AD01F09022
:10365000AE018CE090E0909379068093780610920A
:103660007B0610927A062AE0B701A601F7FE0DC08C
:103670006DE284E692E00E941A1944275527BA01A8
:103680004C195D096E097F092AE084E692E00E94E8
:10369000CE198091CC018130F1F481E090E020914D
:1036A000C901283010F490E080E0BC01660F771F5C
:1036B000680F791F6F52704F43E050E084E195E04E
:1036C0000E947F2E80910402811103C08091CB0162
:1036D00081110E94221A1092CB0126960FB6F894FF
:1036E000DEBF0FBECDBFDF91CF911F910F91FF9035
:1036F000EF90DF90CF90BF90AF909F908F907F9092
:103700006F905F904F903F902F90089586E49DE0DA
:103710008ECF89E190E0909379068093780684E0DB
:1037200090E090937B0680937A068CE59FE00E9460
:10373000991840E86CE070E090E080E00E94671922
:10374000AFEAAA2EA1E0BA2EB6E3CB2ED12C86E0AA
:1037500090E09D838C8391E499831FE0212E312C8E
:103760008C809D80F6E08F1A91088C819D81069651
:10377000909379068093780630927B0620927A06A1
:1037800086E59FE00E949918698184E692E00E9494
:103790001A198501412C512C32014394F9E1EF2E85
:1037A000F12C9092790680927806F0927B06E09256
:1037B0007A0682E59FE00E9499182C813D81309322
:1037C000790620937806F0927B06E0927A062AE04A
:1037D000B301A20184E692E00E94CE19F801818132
:1037E000228130E050E040E0A90133272227382B26
:1037F0008081282BB701C6010E941C19F6E0EF0E4C
:10380000F11C2FEF421A520A620A720A0D5F1F4F13
:1038100034E0431651046104710419F689E0A80EDE
:10382000B11CEC81FD81EC5BFF4FFD83EC83F4E484
:10383000CF0ED11C2981223409F0A7C040E86CE2E8
:1038400070E090E080E00E9467198AE090E0909339
:1038500079068093780680E390E090937B068093CE
:103860007A0686E49FE00E9499184091C701509122
:10387000C80170E060E02AE084E692E00E94CE1980
:10388000EAE0F0E0F0937906E093780626E330E092
:1038900030937B0620937A068CE39FE00E94991870
:1038A000C090C301D090C401E090C501F090C60162
:1038B000C701B60120EC3BE443E050E00E94172F23
:1038C00029013A01C701B60120E13EE040E050E0A5
:1038D0000E94172F6CE3862E912CA12CB12CCA01CB
:1038E000B901A50194010E94172F69837A838B8304
:1038F000392E262EC701B601A50194010E94172F6B
:10390000CA01B901A50194010E94172F6C83072FEA
:10391000182F9E83262FB62E8CE490E09093790684
:103920008093780686E390E090937B0680937A06F6
:103930004114510469F521103FC02A3028F460E396
:1039400084E692E00E941A192AE04C81502F612FE0
:103950007E8184E692E00E94CE196EE284E692E0D7
:103960000E941A19C701B60126E030E040E050E09D
:103970000E94172FCA01B9012AE030E040E050E070
:103980000E94172FAB01BC017FCEE2E4E983E8CEB1
:103990002AE0B301A20184E692E00E94CE196AE314
:1039A00084E692E00E941A1999E0921528F060E3EB
:1039B00084E692E00E941A192AE049815A816B81BB
:1039C000732D84E692E00E94CE196AE384E692E0C9
:1039D0000E941A19E9E0EB1528F060E384E692E012
:1039E0000E941A192AE04C81502F612F7E814DCE02
:1039F0000BE010E02AE63FE03D832C83EC81FD8163
:103A000084918B3109F445CE65E170E0CF010E94CD
:103A1000912E7C016C01DD24282F3DEF3203C00183
:103A20001124805C9F4F90937906809378061093C1
:103A30007B0600937A068C819D810E9499188FEFF6
:103A4000C81AD80AEC81FD81EC0DFD1DFD83EC83C5
:103A500082E090E0EE2011F086E090E0080F191F60
:103A6000CDCFCF92DF92EF92FF92CF938091CC0196
:103A70008130B9F50E9439168091C9018150809337
:103A8000C90181110EC00E94272E28E830E040E0D5
:103A900050E00E94E52E68587F4F8F4F9F4F6093F4
:103AA000C9018091CC01C2E0843009F0C1E00E94DC
:103AB000CB2D6C01990FEE08FF080E941D0EC61653
:103AC000D706E806F90631F06C257D258E259F2561
:103AD0000E94762E8C2FCF91FF90EF90DF90CF90A9
:103AE00008958CE00E94910B882301F30E94C01579
:103AF00081E08093CC018093CB01D8CF8F929F92AD
:103B0000AF92BF92CF92DF92EF92FF9280918201AB
:103B1000882309F445C098E0C92ED12CE12CF12C62
:103B200024E0822E912CA12CB12C0E94272EA701DB
:103B300096010E94E52E609381010E94272EA50127
:103B400094010E94E52E362F60937E012091810121
:103B5000FB0183E0EE0FFF1F8A95E1F7E25AFE4F6B
:103B6000E20FF11D27FDFA9580818823F1F2809103
:103B70005D01281304C080915C013817B1F2809177
:103B80005A0190915B019093800180937F01FF9097
:103B9000EF90DF90CF90BF90AF909F908F9008955F
:103BA0008FEF809381011092800110927F01EFCFFF
:103BB00060E086ED91E00E9424131092AB01109218
:103BC000AC011092AD011092AE0110924901109219
:103BD0004A0110924B0110924C0110924101109237
:103BE00040011092530110924801EEE5F1E02EE7FA
:103BF00031E083E080838183828383838483858330
:103C00008683878338962E173F07A1F780E280933B
:103C100082010E94272E28E030E040E050E00E9420
:103C2000E52E60935D010E94272E24E030E040E005
:103C300050E00E94E52E60935C0110924E011092BC
:103C40004D018FEF809381011092800110927F01CE
:103C50006091CA01809153010E94371510923C0176
:103C6000109251011092420110928301109254015E
:103C70001092860110928B011092470110928A01D6
:103C800081E08093CB0108950C94D81D88E00E94B8
:103C9000910B882349F00E94C01585E080938A012A
:103CA00081E08093CB01089584E00E94910B811103
:103CB0000C94D81D0895EF92FF920F931F93CF930A
:103CC000DF938091CC01811163C0D0E0C0E000E9B6
:103CD00012E008C000EB12E0C130D10509F494C035
:103CE000C1E0D0E01093AA010093A901F999FECF99
:103CF000C8010E94B42E0C5F1F4F1093AA010093BD
:103D0000A9016F3472448E44924121F7F999FECF94
:103D10004AE150E0B8018FEA91E00E949C2E0091A8
:103D2000A9011091AA01065E1F4F1093AA010093EA
:103D3000A901F999FECFC8010E94BA2E7C010E5F3D
:103D40001F4F1093AA010093A9010E9431178E15ED
:103D50009F0509F0BFCFC17082E090E011F081E0D3
:103D600090E09093A8018093A701C093A601809151
:103D700013020E9426161092AB011092AC01109211
:103D8000AD011092AE011092CA0180EF8093C9017B
:103D900010920C0263E974E189E39DE00E949F1494
:103DA00063E974E18CE29DE00E949F1468E176E192
:103DB00085E29DE00E949F146FE076E18EE19DE038
:103DC0000E949F148091CA018093050281E0809334
:103DD00004029CE290930B0298E290930A0292E50F
:103DE0009093090298E19093080210920702809341
:103DF00006028093CC018093CB01DF91CF911F917C
:103E00000F91FF90EF900895EFEAF1E08AE1DF0172
:103E10001D928A95E9F7D093A801C093A70181E08C
:103E20008093A601A4CF2F923F924F925F926F9200
:103E30007F928F929F92AF92BF92CF92DF92EF923A
:103E4000FF920F931F93CF93DF93CDB7DEB72897E1
:103E50000FB6F894DEBF0FBECDBF8091CB01882393
:103E600009F4ADC320918B0129830E94FB0D398198
:103E7000311128C11EE5A12E11E0B12E4FE050E016
:103E80005A83498316E14501B0E1CB2ED12CF401D0
:103E900041914F014102A00111244E5D5D4FEE247E
:103EA000E3940BE02BE069817A81C6010E94950CB6
:103EB000FCE0CF0ED11C20E7C216D10441F738E058
:103EC000A30EB11C49815A81445F5F4F5A834983D5
:103ED0004F335105C1F690908A019E1088C08090A2
:103EE0005D01582D8CE0580270011124570190E1BA
:103EF000A90EB11C10915C01FCE01F02F00111241D
:103F0000FA83E9836F012FE0C20ED11C6091540146
:103F10006F7070E090E080E00E94ED2F2BED3FE0AD
:103F200049E450E40E94793020E030E040E85DE36D
:103F30000E9479300E94E6309B01AC0160E070E0A5
:103F400080E89FE30E94482F20E030E040EB50E4FF
:103F50000E9479300E94B52F2B0100E0262F4BE004
:103F6000B601C5010E94070C49815A81465E5F4F28
:103F7000441955095A834983242D4BE069817A817C
:103F8000C5010E94070C58E01502F0011124E25A05
:103F9000FE4FE80DF11D87FCFA958081811127C045
:103FA0008AE1E80EF11C4C0C5D1C21E0A201B50178
:103FB00084E692E00E94561321E0A201B70184E654
:103FC00092E00E945613E981FA813197FA83E983DE
:103FD00021E0AF01B50184E692E00E94561321E092
:103FE00049815A81B70184E692E00E945613F0910C
:103FF0008101F983F7FD56C021E092120AC0809139
:104000007F0190918001892B21F48091540182FDE0
:1040100049C09CE059815902A0011124405F5F4FC3
:104020005A83498380917E018902600111248FE0C7
:10403000C80ED11C92E0991221C00E94272EA3E045
:104040008A2E912CA12CB12CA50194010E94E52E61
:104050006150710981099109E981FA81E60FF71F21
:10406000FA83E9830E94272EA50194010E94E52E80
:104070006150710981099109C60ED71EE12C0BE030
:104080002BE04CE052E0B60189819A810E94950CA8
:10409000EE24E3942BE046EF51E0B60189819A814A
:1040A0000E94950C80918B0181110CC080918A0136
:1040B000813041F480914801883020F08091540192
:1040C00081FF08C023E343E66DE070E08EE090E0FE
:1040D0000E94A2198AE090E0909379068093780676
:1040E00010927B0610927A0688E892E00E94991856
:1040F00080914201882309F488C080918B0181114D
:1041000084C08091540181FF21C0209143013091EE
:104110004401409145015091460166E070E08EE215
:1041200090E00E941C19FAEF8F02C00111248E96B4
:10413000909379068093780686E090E090937B06D2
:1041400080937A0686E892E00E9499188091830114
:10415000882309F469C080918B01811165C0809129
:10416000540182FF1DC020918401309185013A8362
:104170002983C9010E94882E3DEF8302C0011124CA
:104180008B5A9F4F909379068093780683E090E056
:1041900090937B0680937A0689819A810E94991870
:1041A0008091CA01882309F48EC0198206E010E0CC
:1041B0004981242F30E080915901082E000C990B81
:1041C000281739070CF064C010937906009378061D
:1041D0005AEF5203C001539F900D1124C99690933A
:1041E0007B0680937A0680915801082E000C990B6B
:1041F0006FE5281739070CF06EE584E692E00E941F
:104200001A1989818F5F8983D3CF20914901309119
:104210004A0140914B0150914C0166E070E08EE202
:1042200090E00E941C1992CF84E390E0909379066D
:104230008093780610927B0610927A0680E892E0CE
:104240000E9499182091530130E050E040E066E070
:1042500070E08CE490E00E941C1988E590E0909357
:1042600079068093780610927B0610927A068AE788
:1042700092E00E949918209140013091410150E054
:1042800040E066E070E080E790E00E941C1988CF73
:1042900020917F013091800143E3429FC001439F01
:1042A000900D112460915A0170915B010E9482313E
:1042B000262F60E470E0621B710901E042E085E7AF
:1042C00090E00E94070C90913C0119160CF04EC032
:1042D00080913F01ECE08E0260011124F1E1CF0EEC
:1042E000D11C20913D01923071F494E0920F9F70A7
:1042F000492F092E000C550B98300CF0F3C0CA0161
:104300000497C80ED91E422F022E000C550B5A835B
:10431000498380913E01ECE08E02400D511D112435
:104320004F5E5F4F5A0189819A819595879581707B
:1043300039E0839FF0011124FA83E98327FF0AC043
:10434000E12C07E029E0AF0140565D4FB501C60101
:104350000E94950C49815A8142575D4FEE24E394A7
:1043600007E029E0B501C6010E94950C90908A01F2
:10437000F4E09F1609F414C110915D01212F012E64
:10438000000C330B3A8329836090560140914D0114
:1043900050914E0158874F83062C000C77089A01E4
:1043A000D3010E94B831E0E4CE2ED12CE12CF12CC7
:1043B000A70196010E94E52E0CE010025001112485
:1043C000A20EB31E10915C01812F012E000C990BDF
:1043D0009E838D8320905501022C000C33082F8181
:1043E0003885D1010E94B831A70196010E94E52EBF
:1043F000100260011124C20ED31E80905201109150
:104400005401F5013E962F01911071C0212F30E02B
:1044100014FB882780F960E1F62EF80E48E750E09B
:10442000421B530B58874F8357FF04C04F5F5F4FAA
:1044300058874F838F8198859595879598878F8327
:1044400010FF0CC0E12C03E027E046E257E0B60184
:104450006D5E7F4FC50142960E94950C91E09912C6
:104460002DC081102BC0E981FA816E0E7F1E8CE079
:10447000869D5001879DB00C1124FEE0AF0EB11C4B
:104480002D813E81220E331E829D3001839D700C52
:1044900011243DE0630E711CE12C0FE02FE040ED94
:1044A00052E0B301C5010E94950CEE24E3942FE085
:1044B00042EB52E0B301C5010E94950C8EE1F89EDB
:1044C000A0011124465F5A4FB601EF81F8856E1B9B
:1044D0007F0B695F7F4FE12C0FE02FE0C2010E944C
:1044E000950C34C08CE090E0841B950B0ACF209192
:1044F0004F01332721950CF43095482D4203C0011C
:10450000439F900D112497FD01969C0135952795A9
:1045100080915701082E000C990B820F911D27FDE9
:104520009A95089668E070E00E949631880F5F8146
:1045300055FBFF24F0F8F80E83E098129FC0E12F9E
:10454000F0E0F195E195F109F887EF83FEE1FF9E38
:10455000A001112442515D4FB6012F813885621BA5
:10456000730B695F7F4FEE24E3940FE02FE0C201ED
:104570000E94950C911010C08FE190E01D3338F02F
:10458000412F4C53550BCA01959587954F9640E4A2
:104590006DEF77E00E94A20D8DEF890D823078F4E7
:1045A00020915401223308F080C082E390E0821B06
:1045B000910948E66DE277E04F960E94A20D809146
:1045C0008B01882349F080910402811103C08091FE
:1045D000CB0181110E94221A80914701882309F1A1
:1045E00080918A018430E9F400E027E049E462E345
:1045F00070E08BE190E00E94070C8091540183FFF2
:1046000010C082E290E0909379068093780683E36D
:1046100090E090937B0680937A068DE798E00E9465
:1046200099181092CB018091860140918701849F57
:10463000402D112460918801869F602D1124909156
:104640008901899F802D112428960FB6F894DEBF2A
:104650000FBECDBFDF91CF911F910F91FF90EF90D3
:10466000DF90CF90BF90AF909F908F907F906F9092
:104670005F904F903F902F900C949B112F81388525
:10468000A0E8B1E0A21BB30B2038314011F4B0E038
:10469000A0E09D010E94B03120E03CED4FEF5FEFC4
:1046A0000E94E52EC9014096C9CE21702B831C8241
:1046B0008B819C819195819591097BCFCF93DF93DD
:1046C0008091A601882309F454C08091A70190919C
:1046D000A801019709F050C080E992E09093AA01E7
:1046E0008093A901F999FECF4FE452E46EE472E1A0
:1046F00080E992E00E94D82E8091A9019091AA01B0
:1047000004969093AA018093A901F999FECF609134
:10471000A9017091AA014AE150E08FEA91E00E945C
:10472000C02EC091A901D091AA016A96D093AA0186
:10473000C093A9010E943117F999FECFBC01CE01A7
:104740000E94E02E8091A9019091AA010296909377
:10475000AA018093A9016091130282E090E00E9477
:10476000CA2E82E090E09093A8018093A701109256
:10477000A601DF91CF91089584E992E0C2CF0E9413
:10478000C0150E945E2310928B0185E080938A0100
:1047900008950E94C0150E945E2310920C0267E0EB
:1047A00076E182E69BE00E949F1480918A016FEB84
:1047B00073E2882341F06CEF75E185E59BE00E9490
:1047C0009F1461EF75E187E49BE00E949F14909134
:1047D0000C0283E180930B02892F880F880F292F09
:1047E000281B822F895D80930A0289E58093090244
:1047F000892F880F890F880F81508093080281E0EC
:1048000080930702809306021092050280930402AF
:104810001092860180938B01089580915401883015
:1048200099F590917E018091810128E09202F0013A
:104830001124E25AFE4FE80FF11D87FDFA95208101
:10484000211107C023E02083209182012F5F209354
:1048500082019F5F943014F590937E010E94272E71
:1048600025E030E040E050E00E94E52E2AE0269F5F
:10487000A001279F500D112464E0CA018E50954F6E
:104880000E9424131092540188E00E94910B811120
:104890000E94C92381E08093CB01089510927E018C
:1048A0008F5F809381018830CCF262E084E29BE0EC
:1048B0000E942413809153018E3118F48F5F8093EE
:1048C00053016091CA01809153010E9437150E94E3
:1048D0007E1D81E080938A01C1CFCF92DF92EF925B
:1048E000FF920F931F93CF93DF9380915201811119
:1048F000CBC080915101811119C0C0915001CC23CE
:1049000039F00E9421168C2F0E946815C0934F0128
:1049100084E00E94910B882309F446C264E087ED8D
:104920009AE00E94241381E08093510180914D010F
:1049300090914E01805C9F4F90934E0180934D016A
:104940008091490190914A01A0914B01B0914C0195
:104950000196A11DB11D8093490190934A01A09336
:104960004B01B0934C011091CA01112359F0809171
:104970007F0190918001009729F001979093800129
:1049800080937F0100914801083058F080918601A2
:10499000823038F48091540186958170880F80931D
:1049A000860180914D0190914E018115934008F44C
:1049B00095C0C0915D0180915601C80FC0935D0103
:1049C000D0915C0180915501D80FD0935C01109279
:1049D0004E0110924D011092510138E0D302F001C6
:1049E0001124E25AFE4FEC0FF11DC7FDFA95F0803D
:1049F000FA94F7FE89C061E085EB9AE00E942413E7
:104A0000C0904901D0904A01E0904B01F0904C01D8
:104A1000812F90E09C01220F331F280F391FF901CD
:104A2000EE0FFF1FE20FF31FE155FE4F43E050E092
:104A3000BA01CFEFC40FC20FD32FD11DCE01880F03
:104A4000991FC80FD91FC155DE4F19818A8190E087
:104A5000B0E0A0E0DC0199278827912BC8818C2B3E
:104A60008C159D05AE05BF0598F44330510519F02E
:104A700081879287A387415051093397411551058A
:104A8000B9F670E060E007C08150809352016BCFAF
:104A90004330510561F0260F371FF901EE0FFF1F5C
:104AA000E20FF31FE155FE4FC082D182E282C09235
:104AB000AB01D092AC01E092AD01F092AE0181E089
:104AC000672B09F080E0809347010E945E231092DB
:104AD00083011092540183E080938A0180918A01BE
:104AE000833031F088E00E94910B81110E94C9232C
:104AF00081E08093CB01DF91CF911F910F91FF90C7
:104B0000EF90DF90CF900895F08284E00E946815C6
:104B100088E080935201F1101FC1E1E0E00FE093C3
:104B20004801EF30D9F4C0933F01D0933E018CE3AC
:104B300080933D0181E080933C018E2F0E2E000C6E
:104B4000990B0F9724EF31E0829FB001839F700D86
:104B5000929F700D11246854744F24C0E631D9F42B
:104B6000C0933F01D0933E018CE380933D0183E0ED
:104B700080933C018E2F0E2E000C990B469720ED52
:104B800037E0829FB001839F700D929F700D1124BA
:104B9000605F784D07C0E8300CF09DC084E6E80205
:104BA000B0011124072E000C880B990B6093430170
:104BB0007093440180934501909346012EE1209328
:104BC00042010091490110914A0120914B0130911D
:104BD0004C01060F171F281F391F003886E91807D8
:104BE00088E92807310508F0A1C000934901109316
:104BF0004A0120934B0130934C01809140019091E8
:104C00004101873E23E0920728F4019690934101E9
:104C10008093400120914001309141014091C101B8
:104C20008091C201582F53704217530740F42093CC
:104C3000C101932F93708C7F892B8093C201809147
:104C400082018150809382012E2F2150330BC901A4
:104C500067E070E00E9496318C019C013327E830B8
:104C600008F071C04AE1429FC001439F900D11249A
:104C70008150964F63E00E942413802F0E94E0141D
:104C800080918101C81383C090915C0180917E0165
:104C900098137DC062E088E898E00E942413909108
:104CA000580191509093580180914801911167C02B
:104CB0000E94FF1487E00E94E014109248011092B5
:104CC000810110927E011092800110927F0110925A
:104CD000540182E001CFEF3074F48E2F0E2E000CC1
:104CE000990B089728EC289FB001299F700D11247B
:104CF00068517C4F57CFE6310CF41FCFED310CF4E7
:104D000039CF60EA76E881E090E0E0320CF04ECFF7
:104D1000AE2F0E2E000CBB0B5D9720E137E20E94F8
:104D2000B831605D7A488F4F9F4F40CF8FE796E94B
:104D3000A8E9B0E08093490190934A01A0934B0108
:104D4000B0934C015ACF46E2429FC001439F900D61
:104D500011248B50974F8ECF802F0E94FF141092FA
:104D6000480180918301883731F462E08CEC98E04F
:104D70000E94241385CF63E082EB98E0F9CF811184
:104D800003C087E00E94E0140E947E1DA7CE8091A0
:104D9000CA01882309F4A2CE80917F0190918001FD
:104DA000892B09F09BCEF0CF80914D0190914E015F
:104DB000209153010296820F911D90934E01809392
:104DC0004D01D1CDCF9380915401883708F442C072
:104DD0008091C7019091C80101969093C80180937A
:104DE000C701C1E0C093A6010E945E23E0915C016F
:104DF00080915D0198E0E902F0011124E25AFE4F32
:104E0000E80FF11D87FDFA958081815080830E9413
:104E1000272E28E030E040E050E00E94E52E60932D
:104E2000570181E00E946815C0934F011092520112
:104E30000E947E1D80917F01909180010897909340
:104E4000800180937F0163E082EB98E00E9424134D
:104E5000C0938A0188E00E94910B81110E94C923AE
:104E600081E08093CB01CF9108951F920F920FB6EE
:104E70000F9211248F939F938091E1009091E10014
:104E8000937F9093E10083FF0FC01092E90091E0BF
:104E90009093EB001092EC0092E39093ED0010924F
:104EA000030298E09093F00082FF22C093E0909379
:104EB000E9009091F200992319F09AE39093E800A9
:104EC0009091F401992341F09091F40191509093C5
:104ED000F401911101C05D9A90910202992341F071
:104EE00090910202915090930202911101C0289A70
:104EF00084FF18C08091E2008E7E81608093E20082
:104F00008091E1008F7E8093E1008091F5018E7E9B
:104F100080618093F5019F918F910F900FBE0F904C
:104F20001F90189580FFF7CF8091E2008E7E806100
:104F30008093E2008091E1008E7E8093E100809179
:104F4000F5018E7E8160E5CF1F920F920FB60F9212
:104F50001124CF92DF92EF92FF920F931F932F9322
:104F60003F934F935F936F937F938F939F93AF93F1
:104F7000BF93EF93FF93CF93DF93CDB7DEB76C97DB
:104F8000DEBFCDBF1092E9008091E80083FF25C00D
:104F900068E0CE0145960E943E1082EF8093E800C3
:104FA0008D8987FF39C09091E80090FFFCCF982F42
:104FB000907609F034C19E894F89588D2F89F88CDD
:104FC000911131C0803861F58091F3018093F10037
:104FD0001092F1008EEF8093E8006C960FB6F89473
:104FE000DEBF0FBECDBFDF91CF91FF91EF91BF919B
:104FF000AF919F918F917F916F915F914F913F9171
:105000002F911F910F91FF90EF90DF90CF900F9015
:105010000FBE0F901F9018959EEF9093E800C7CF9A
:105020001092F100D5CF913059F48111D3CF413096
:10503000510581F68091F3018D7F8093F301CACFF2
:10504000933049F48111C6CF4130510519F6809152
:10505000F3018260F2CF953041F48091E80080FF47
:10506000FCCF20682093E300B5CF963009F0A9C0AB
:105070000B8D1C8D22E01092E9001092F10110922C
:10508000F001F2122EC01092EF011092EE010E9478
:105090000D101F8299E09983FA8291E09E8390EA35
:1050A00098879AEF99872091F0013091F101275F5D
:1050B0003F4F3C832B838D831092E9001092F101C6
:1050C0001092F0011093EF010093EE0149E050E0DF
:1050D000BE016F5F7F4F80E00E94E70F0E940D10BE
:1050E00079CF1093EF010093EE010E94700EDC0166
:1050F00012960D911C910115110509F451C1D801A9
:10510000ED91FC910480F581E02DBE016B5E7F4F37
:10511000C8010995009709F03EC1F8010085118585
:10512000EACFF3E0FF120EC08F89882309F440C054
:10513000823061F440E867E089EB96E10E94B40FA9
:10514000811148CF81E28093EB0047CF813029F471
:1051500040E86BE08DEA96E1F1CF833099F70E9449
:10516000700EDC011296ED90FC908E010F5F1F4FC8
:105170006801E114F10479F0D701ED91FC9106800A
:10518000F781E02DB801C7010995080F111DF7013E
:10519000E084F184EECFD8011C92F601019000204A
:1051A000E9F73197BF016C197D0940E0C601C6CF10
:1051B00067E976E1FB01449150E080E80E94E70F47
:1051C00009CF973009F4BECF983021F481E0809365
:1051D000F10000CF993009F0FDCE837009F0B2CF15
:1051E000E5E1F1E081E031E096E32191222371F0E5
:1051F0008093E9003093EB00DF0111972C9120930D
:10520000EC009093ED008F5F873079F78EE7809305
:10521000EA001092EA008F8980930302DBCE8B8D27
:105220009C8D1092E9001092F1011092F001909380
:10523000EF018093EE01898D811192C08E899D8945
:10524000913A49F4813209F07DCF47E050E064E0C3
:1052500071E080E0B3CF913209F074CF833269F40A
:105260008F89988DB0E0A0E08093000190930101B8
:10527000A0930201B0930301ADCE803269F4809116
:10528000E80082FFFCCF67E084E091E00E943E10DE
:105290008BEF8093E8009ECE823209F09BCE8F89FF
:1052A00080930B01EEEFFFE7859194918B3F9C4D2E
:1052B00051F1E0E0F8E08091040190910501A091A6
:1052C0000601B0910701803B9440A105B105F1F4BE
:1052D00080910B0180FD1AC0EE3F8AE0F80789F546
:1052E00087E797E791838083809160008093F20144
:1052F00088E19BE00FB6F894A895809360000FBEFC
:105300009093600067CEEEEFFAE0D5CF8081918177
:105310008737974709F05ECEA89580916000886135
:10532000809360008091F20180936000EE3F2AE05C
:10533000F20789F08091FE0A9091FF0A91838083A1
:1053400049CE808191818737980751F29093FF0A67
:105350008093FE0AC5CF1092FF0A1092FE0A3ACE41
:105360000E94700EDC0112960D911C910115110521
:1053700009F4E8CED801ED91FC910190F081E02D87
:10538000BE016B5E7F4FC8010995811123CEF801E4
:1053900000851185EBCF181619060CF41BCED2CE62
:1053A000F1E0FF12BECE6BE976E104CF0F920FB6AB
:1053B0008F939F93EF93FF938091E5018D5F8D37DE
:1053C00008F08D578093E501E6EEF1E080818E4F85
:1053D000808391819F4F918382818F4F82838381CC
:1053E0008F4F8383EAEEF1E080818F5F808381813C
:1053F0008F4F818382818F4F828383818F4F8383FD
:105400008FB18F6066991C9B88278F3681F48091BD
:10541000E401981B963068F0E0E0F8E087E78083CD
:10542000818388E180936000F0936000FFCF9093C8
:10543000E401FF91EF919F918F910FBE0F9018950E
:105440001F920F920FB60F9211242F933F934F93F9
:105450005F936F937F938F939F93AF93BF93EF93DC
:10546000FF938091D601882349F08091D901E09182
:10547000DA01F091DB0190818927808380910E020F
:10548000882329F18091D2019091D301A091D40178
:10549000B091D501892B8A2B8B2BC9F08091D20139
:1054A0009091D301A091D401B091D5010197A109A8
:1054B000B1098093D2019093D301A093D401B0930A
:1054C000D501892B8A2B8B2B11F40E94B112FF91ED
:1054D000EF91BF91AF919F918F917F916F915F916C
:1054E0004F913F912F910F900FBE0F901F901895E5
:1054F0001F920F920FB60F9211248F939F93AF9329
:10550000BF93EF93FF938091D101882309F452C098
:105510008091CD019091CE01A091CF01B091D001A9
:10552000892B8A2B8B2BA1F19091DC01E091DD017D
:10553000F091DE018081892780838091CD01909157
:10554000CE01A091CF01B091D001181619061A060C
:105550001B069CF48091CD019091CE01A091CF01CA
:10556000B091D0010197A109B1098093CD01909329
:10557000CE01A093CF01B093D001FF91EF91BF91E5
:10558000AF919F918F910F900FBE0F901F90189524
:105590001092D10180916F008D7F80936F00809178
:1055A000DC01E091DD01F091DE019081809589239D
:1055B0008083E3CF9091DC01E091DD01F091DE0189
:1055C00080818927F5CFE4E1F2E01382128288EE30
:1055D00093E0A0E0B0E084839583A683B7838FE156
:1055E00091E0918380838FEF9FEF95878487E4E636
:1055F000F2E0138212828CE3868380E18187108639
:10560000178216861786108A118A128A10927906D6
:105610001092780610927B0610927A0681E08093B1
:105620007C0621E331E03183208380937E06109253
:105630007F060895789483E084BD83E085BD81E092
:1056400080936E00E1E8F0E083E08083E0E881E0B1
:105650008083E1E983E08083E0E981E08083E1EC1D
:1056600087E08083E3EC81E08083E0EC82E080836C
:10567000E2EC81E08083EAE787E0808380688083D2
:10568000109203021092F3011092F5018091D7005D
:1056900081608093D70080EA8093D80089B58061CB
:1056A00089BD89B5826089BD09B400FEFDCF0E9425
:1056B000080E8091D8008F7C80618093D800809103
:1056C000E000807F8093E0008091E1008E7E8093F7
:1056D000E1008DE08093E200559A209ACFB7F894CC
:1056E0008091DF01811127C0E9E0F6E18491E8E2D1
:1056F000F6E19491E82FF0E0EE0FFF1FE452FA4E2E
:10570000A591B491EC91E92321F461E081E10E943B
:105710004B1061E081E10E94BC108CB580618CBDB2
:105720008CB580648CBD61E08FE00E94BC1061E0AC
:1057300080E10E94BC108091DF018F5F8093DF01C8
:10574000CFBFC7EBD5E1BE01FE0184916F5F7F4FF4
:105750002296FB016491882319F00E94BC10F3CFBC
:1057600061E086E00E944B1061E070E080E090E034
:105770000E94B91160E086E00E944B106AE070E080
:1057800080E090E00E94B91161E086E00E944B1039
:1057900084E096E1FC012491E22FF0E0EE0FFF1F80
:1057A000E651FA4E25913491E3E2F6E12491FC01B1
:1057B0008491E82FF0E0EE0FFF1FE651FA4EA5911D
:1057C000B4918C91E22FE095E823EC93ECEFF5E1B6
:1057D000E491F0E0EE0FFF1FE651FA4E85919491AF
:1057E0009093E2018093E101EBE1F6E1E491E09333
:1057F000E0018CB58C7F8CBD8DB581608DBD0E9424
:105800001212E9EAF5E184918EBD00000DB407FEA5
:10581000FDCF8EB5319635E1E73BF307A1F7E09177
:10582000E101F091E20180819091E001892B808378
:105830008091640081608093640080916400826044
:1058400080936400809164008068809364008091FC
:10585000640080648093640080916500816080931F
:1058600065000E94FF1187FF1FC00E94121285EA87
:105870008EBD00000DB407FEFDCF8EB5E091E101B5
:10588000F091E20180819091E001892B80834FEFBC
:105890006FEF8FEF0E949B11809164008062809374
:1058A00064000E940712FDCF80910D02823091F0BA
:1058B000E82FF0E0E955FA4EC4918F5F80930D0216
:1058C00061E085E00E94BC10C13009F467C0C330BC
:1058D00009F486C061E08DE00E94BC1082E090E097
:1058E0000E94AC2E882309F4A8C080916500877FB0
:1058F0008093650081E0809313028CE380936A02B9
:1059000080E180936D021092E301EAECF5E185916C
:105910009491FC010995D6E008E716E080E0E82EB6
:1059200080E0F82EDD24D3942FB7F8948091E6011F
:105930009091E701A091E801B091E9012FBF20917A
:105940007602222391F020916E02F82FF21BF09341
:10595000770220916B0230916C022F5F3F4F3093A2
:105960006C0220936B021092760240917202509169
:105970007302609174027091750284179507A607EF
:10598000B7070CF062C0481B423010F00E940712AB
:10599000E114F10449F20E940000C6CF1092800089
:1059A00010928100809181008860809381008091B5
:1059B0008100816080938100EDEFF5E1E491F0E0FA
:1059C000EE0FFF1FE651FA4E859194919093DE0100
:1059D0008093DD01ECE1F6E1E491E093DC017ACF24
:1059E00010929000109291008091910088608093B5
:1059F000910080919100816080939100EDEFF5E13D
:105A0000E491F0E0EE0FFF1FE651FA4E859194917C
:105A10009093DB018093DA01ECE1F6E1E491E0930D
:105A2000D90180910D02882321F06CE380E00E946F
:105A30001D1280E00E948E124DCF109213028091B1
:105A4000650088608093650058CF20916D02AC019D
:105A5000BD01420F511D611D711D40937202509393
:105A60007302609374027093750280936E02909338
:105A70006F02A0937002B0937102D092760280916F
:105A80008106809380060E94FF1180938106E09139
:105A9000E301DE9FF0011124E453FA4E85919491C5
:105AA000FC010995C82FE091E301DE9FF00111246C
:105AB000E253FA4E85919491FC0109958091780208
:105AC0008EBDE9E7F2E081910DB407FEFDCF8EBDFA
:105AD0000E171F07C1F70DB407FEFDCF8091E3013C
