:100000000C94B7050C94DF050C94DF050C94DF0508
:100010000C94DF050C94DF050C94DF050C94DF05D0
:100020000C94DF050C94DF050C94A42D0C94132E76
:100030000C94DF050C94DF050C94DF050C94DF05B0
:100040000C94DF050C94ED310C94DF050C94DF0566
:100050000C94DF050C94DF050C94DF050C944530FF
:100060000C94DF050C94DF050C94DF050C94DF0580
:100070000C94DF050C94DF050C94DF050C94DF0570
:100080000C948F300C94DF050C94DF050C94DF0585
:100090000C94DF050C94DF050C94DF050C94DF0550
:1000A0000C94DF050C94DF050C94DF050100520071
:1000B0000000005E366D002A736155323F2F272302
:1000C000212030383C3E78000031004C5A05181A87
:1000D0000C02120E1004170D1407060F161D0A0845
:1000E0000309110B191B1C000000404D0515181ABF
:1000F0000C0224120E1036170D1407060F1E161DC3
:100100000A080309291328110B191B1C1F372B3B45
:1001100035343331253A2C39322E3D2A04262D55DB
:100120000000000000700100C0000C00CAA77C0A9B
:1001300042F55508534248195EF55112003000004F
:10014000002345004094180014F3190504F111042C
:1001500020040000044110040004000010420801C3
:100160005E14450F40F001005955551351555D0D72
:100170008C927C085755550D5E55550D51520C010A
:100180005E55550F5655550F00A0000000A4000005
:1001900000C228008AA2280A8062080040500D0090
:1001A0005E7455079C92241F5F555D0D9C1445118C
:1001B0005F1425075F5555115F5114015E54551D9D
:1001C0001F41101F40F44500100421071F41181D56
:1001D0001F0441105EF0041F9C10041F5E54450F65
:1001E0005F9214035ED4451F5F92341B5655550D24
:1001F00041F005011F0421071F4208011FE4410FC0
:100200001743181D07C1090151564D1100F0450053
:1002100000F0010040F4010080100C0010044110B7
:1002200004E109015F14451F1C10081C50144510FF
:100230009AF0091A844020101F41200844F5140444
:10024000C001410F519554131EF0410C4551550FFB
:100250004314450FD223481E5155551FC454550F02
:100260001F042104810421070334210792B22916B7
:1002700082F408024455550C9C1441188634490EEA
:100280008AA37C0A00841C0092627C02C410450F81
:10029000C227080641915403C4243902411425079A
:1002A0005114451F50F4451044D5140441F414036F
:1002B000C2213D028AF2290A51147D1010A4100BAC
:1002C000415555105505210451F455138F244912F9
:1002D000C5535510C223491651522C105104210404
:1002E000033000004221000002411004000201001E
:1002F000050115012501370149015D0172018801E0
:100300009F01B801D201EE010B022A024B026E02DC
:100310009302BA02E40210033E037003A403DC0359
:10032000160454049604DC0426057505C805200649
:100330007D06E0064807B7072D08A9082D09B90969
:100340004D0AEA0A900B400CFA0CC00D910E6F0F8B
:100350005A1053115A1272139A14D3152017801879
:10036000F519801B221DDE1EB420A622B524E4262A
:100370003429A72B402E0031080809090A0B0B0C61
:100380000D0E0E0F10111213141617181A1B1D1F25
:1003900020222427292B2E3134373A3D4145494E1E
:1003A00052575C62686E747B838A939BA5AEB9C416
:1003B000CFDCE9F7000102030406080C00F4F8FAA8
:1003C000FCFDFEFF8C926A8E207F80907720708FDC
:1003D00089867785002841292087638692002842F4
:1003E0002920898F809077207A8F00004D4F5253BB
:1003F0004520434F444520545241494E4552002820
:100400004129204D454E5500284229205349474E49
:10041000414C204F4E00004352454449540053453F
:100420005454494E475300434F4445204C4953547C
:1004300000434C45415220434F4E534F4C450046DC
:100440004F5254554E4520574F52445300434F4E40
:1004500054494E554500FC747474747474FC000067
:10046000000000000000000000FF01010101010187
:10047000010101010101010101010101FF003F240E
:100480002EE4E82C243F00000000000000000000E3
:1004900000FF80808080808080808080808080805D
:1004A00080808080FF00000000030302020202023D
:1004B00002020202725A5652515456525456525423
:1004C000565254565254567228140A0503000144D9
:1004D00028212C2B1C194122424C48083C1843145B
:1004E0001A23204032026924040A38300B2A0C03F4
:1004F0001B0010093A3331116B2934131225000007
:100500000607414955454F4E2D2C00304B53544E54
:10051000484D595257475A445842500020272C2DD5
:100520003F2E43414E43454C004F4B00504C4159E8
:100530002054494D45004D414445204348415253C4
:1005400020004E4F56454D42455220323032320047
:1005500050524F4752414D4D4544204259204F4241
:100560004F4E4F0000544849532050524F4752417C
:100570004D2049530052454C454153454420554E6A
:1005800044455200544845204D4954204C49434568
:100590004E53452E001B00FFFF3CF0C000C0F03C56
:1005A000FFFF00C0E0703070E0C000F0F0C06030CD
:1005B0003000E0F0B03070600000C0E0703070E0FB
:1005C000C00000FCFE070303071E1C00C0E07030E3
:1005D00070E0C000C0E0703060FFFF00C0E070302D
:1005E00070E0C000030303FFFF03030300F0F0C04B
:1005F000603030006070303030F0E00000F3F30025
:1006000000F0F0603030F0E000C0E0703070E0C02A
:1006100000F0F0C0603030BFBF80008787870000E7
:10062000BFBF800F9FB8B0389F8F803F3F80008052
:10063000808018B93333BF1E8C008F1F3BB3333B10
:100640001B00008F9FB830B0389E8E800F9F3830CF
:10065000B89F8F008F9FB83098BFBF000F9FBBB36C
:1006600033BB1B800000803F3F00000080BFBF0005
:10067000008000809EBF33B31B3FBF0080BFBF0020
:1006800000BF3F800000BFBF800F9F3B33B33B1BC9
:10069000803FBF808000805B434F4445204C4953DE
:1006A000545D0028292E2C3A3F272D28292F3D2B39
:1006B00022405E5F4F424E2D593135205645522023
:1006C000302E313200C0C6CFDFFFFB73037CFEFF4C
:1006D000C7E3FF7F3E00FFFFFF1B1B1B030003035D
:1006E000FFFFFF0303000000000000000080808087
:1006F0008000000000000000000000000080E0F02A
:1007000058AC56AB55AB5500FF010101020204087D
:1007100010608000003FFFAA55AA55AA55AA55A807
:100720005FAC5CAC5CAC5CAC5C0CCF3C0000000132
:1007300003060D1A152A252A252A25221512090431
:100740000201000000FFFF57AB57AB57AB57AB039D
:10075000FF808080000000000000000000FFFF55C7
:10076000AA55AA55AA55AA00FF00000001010204DB
:100770000830C000001F7FD5AA55AA55AA55AA5413
:10078000AF56AE56AE56AE562E86671E000000001F
:100790000103060D0A151215121512110A09040299
:1007A00001000000000000000000008080C0C0C008
:1007B000C0808080000000000000000000C0F078D1
:1007C000AC56AB55AA55AA00FF0000000101020477
:1007D0000830C00000FFFF55AA55AA55AA55AA0027
:1007E000FFFEAE56AE56AE56AE5607FE001F1715AC
:1007F00012151215121512101F17121512151215B7
:100800001215101F00494D45204D4F4445004B45E2
:1008100059424F415244004C454420434F4C4F52A3
:10082000004C454400544F4E45204652455100531C
:100830004F554E44005350454544004D4F444500EC
:1008400045584954004F4E00284E2F4129004F462D
:1008500046002057504D0020485A00524F4D414EFF
:10086000004B414E4100004E4F4E45000055533164
:100870003031004A5031303600524544000000000B
:10088000004F52414E4745000059454C4C4F5700D0
:1008900000592D475245454E00475245454E0000F0
:1008A00000454D4552414C44004359414E00000023
:1008B00000415A555245000000424C554500000089
:1008C0000056494F4C455400004D4147454E544158
:1008D000004352494D534F4E00574849544500007C
:1008E000004F464600004C4F57000048494748001B
:1008F000414C504841424554004A4150414E4553B5
:1009000045005B53455454494E47535D00080B0066
:100910000202020000090400000102020000052496
:10092000001001052401010104240206052406002B
:10093000010705810310004009040100020A0000BC
:100940000007050202400000070583024000000482
:1009500003090412010002EF020140412336800026
:10096000010102030141726475696E6F204C4C43B2
:100970000041726475626F7900D5F08D14A1C88151
:10098000CFD9F1AF200000000000240027002A008A
:100990002D00300000000000250028002B002E0054
:1009A0003100040802011040804010204080408047
:1009B00008020401804020100201108010204040F5
:1009C00020040404040403040502020202040302D6
:1009D00002020206060606060604040202020404D7
:1009E00000000000000000032150351A2C1A0E20D0
:1009F0004227362B61235D1AB721F820DA19DC284B
:100A0000DC24771A561DCF252C5E74606162643435
:100A10006667656E362D3738271E1F202122232456
:100A200025267333762E77785F0405060708090AB2
:100A30000B0C0D0E0F101112131415161718191A8E
:100A40001B1C1D2F3130636D0835090C2D2E16042B
:100A50000F1E37672717261433061D36181231214B
:100A6000000E230B240D341F05221A201B0A2538E3
:100A7000110700191013151C2F306D76225F2663A5
:100A80002764286529662A742B733A343D6D402FFC
:100A90005E2E5FC76187763292895229540A559338
:100AA0006D280000405E4C3F4D5F5222552E5A404B
:100AB0005E27612D6D29732C783A000000004554A3
:100AC00049414E4D53555257444B474F48564600A7
:100AD0004C00504A425843595A51000035340033B3
:100AE0000000003200002B0000000031363D2F00D6
:100AF000000028003700000038003930000065761B
:100B000090606F6E7577747C646C6870697B6779D0
:100B10006D61726B627D637E7F73718035340033EB
:100B2000668891327A788F828A928D3136878C8668
:100B300085846A81378B8983388E393005010906AF
:100B4000A1018502050719E029E7150025017501B6
:100B500095088102950175088103950675081500B1
:100B600025FF0507190029FF8100C000C9321124A3
:100B70001FBECFEFDAE0DEBFCDBF11E0A0E0B1E0F5
:100B8000E6E8FFE602C005900D92A834B107D9F758
:100B900027E0A8E4B1E001C01D92AD36B207E1F74D
:100BA00015E0C7EBD5E004C02197FE010E94A737EE
:100BB000C63BD107C9F70E942E330C94C1370C9461
:100BC0000000F3105D509453CB499E46528365015B
:100BD000967A1EA20F8883C8F90B408B46A2270184
:100BE000E210A925158248F9E72191682475733A26
:100BF0003A0C968E0E0C3D9D5E04C4869AF9C6B9D9
:100C0000A125214333A088D4401BE78616D1BD0F10
:100C1000462551A28935038A480D34034D5B24C90A
:100C20007F11888904D10C2822F523B11031BF38F7
:100C3000044CA91BA924EA179D7C24FE462A89FAA4
:100C4000D1A95D297AA2B5F474CCC5E8ACB6074C3D
:100C50002D40D381E8E11AD1D30D807F01681E6D4C
:100C6000D15A9AB94A3473B44D809AFC81CC49A2C6
:100C70005E60123D0F68BA914AE247734BDD48252A
:100C8000514FE7F40293E8E9F42220B64F2A89583D
:100C900033D034927A1EA24114074D22A676451F06
:100CA00024B5B34D1717276DE42F54884652DB0344
:100CB000A6C68E6A0614D168FEE6F403A8E9E6B477
:100CC00001A8FDE6E641CDE84ADAA4910CAE9B9B73
:100CD0000735A30D408D8C4F80C45A3846B8264046
:100CE000626DDC2F28CAA9856384EB82A29C5A928C
:100CF00058C9F8CD69690999DAA2791C9D5A5A0236
:100D0000E69744B836F43C8E9A33A50691E840E461
:100D1000FC2FA241B4456BE9032AD14017B0D66736
:100D2000C89CA991D4119933BF3D24123D0F896409
:100D30004B2D995384EB7948245BEA8222F9921077
:100D4000D48C465207B210A9A899DF9C6EC44A8D74
:100D5000A436CE0DDD88957F1EA2DD1A24723D0FCC
:100D6000D1164912BF749A8186B570B4CD8888E4D3
:100D70005A3ACD40C35A50391D937FB94A742086E0
:100D80004CA997ABE433D708D6811832A566AE11CB
:100D9000FCED01535BB4960E846B8BD6D281FC853F
:100DA00014D160CE08C4947A2145BE3DA469D474A0
:100DB000748CE8E134907A1EA2A363A0493DDC075D
:100DC000DA3837742006B5869AD10C282235D0C679
:100DD000B9A1491BA8997F809C4433A088D416C828
:100DE000493E038AE803E4245A2E6717FED3395D8F
:100DF00040D404C8A991D496C8F99B9B0735A38514
:100E000063446A577473F3A066FE3C4433178976D3
:100E10008DE80324D7F310CD5C24DA35A22D685376
:100E20007E13817C1AACC5F5729268B0D6076B69E7
:100E3000E12A995C83B5F472927CA04B44A40D3DE9
:100E40009D2695441CDCC01A490D748988B4A1A75D
:100E5000D3CD0537F097646AA0E741A4E8E9B40070
:100E6000531C0DF43C88946F8FD3AA392B357372C1
:100E7000722D1F014AEA45809C5F3AD7F42220B6C2
:100E8000C9B574AEE9E2A2717392F6ED01734B3D00
:100E90005C231A493D5C235F3ACD40C39A91C6B5A5
:100EA000749A818635436DC83F5029249236B59C8B
:100EB000D129227571510F540A89A44D5DDC52F27B
:100EC000CF839AD2D30D80356843CB4780D2D331BC
:100ED00017A3B3BF390D9AB4246A243558D269D008
:100EE0003468D292F89B9B0735A325218AEBE6E66E
:100EF00041CDE882DAF80B55A2411B7A91A917AAD5
:100F0000E41FA217A0E6481D889CDA1EA717A0E6DA
:100F100048BD809C7F21457401F390C8F5428A68E2
:100F2000E9DA5FCE291D48719168ECA85E04BC0F18
:100F3000B49C688AA351D31331A225A844EA861A27
:100F4000F9054539B500531C8D1D8DFA8048FE3CCE
:100F5000606EA9172AE4ABE6EC22C3108DA47ECE06
:100F600092F86704952C1DA2038334A9196AE393B0
:100F70004A22D68C0CB0F401524FEBB44483C8DF44
:100F8000482551273A0CD1016BF01E01113441E480
:100F90006FA492A887D3F3A066A40E581FB02A911D
:100FA0009F818635D00BCDB988664011A9816648EE
:100FB000A8457E2395442D1F8D1A688BD642CDE817
:100FC000E3A2241F68EBE2D0D3E97988B648128DFA
:100FD000A496B414241069F3BF482A6913B9A691E2
:100FE000D481CC49A29E07342D68247F1EA29F9BEA
:100FF0005A80B5A49E876845E65C44870584FA1349
:1010000031A29793530BD09A9B3A101D89006B9194
:10101000F15D235A80D6DCD48F4E1D80507A1EA2FB
:10102000C572427DD0B4130248E49A5E4E4E2D4004
:101030006B6EEA407424831046C6C78EEA462A893E
:101040009A2129F53C445B3049D413ADA5E721DA58
:1010500092B574A44DEA11F197332245B43D68115D
:101060003D0FD128BAA691D4C7CD0FB49C94854525
:101070003443E64CFD22A9A44D0D74016B7DEBE2D7
:1010800090FA804AB445CD48AE411B5A80D6DCD494
:10109000816801D622E36347B5006D4F4DC0D4D8B7
:1010A000D1A80550448336F401956834FF3C443F91
:1010B0000284134A1F20750128EA42C03C244AAE2C
:1010C000039DBA38BA742164FE79888E6E4ED2348C
:1010D000786F118D5AA291488DA6D48D2073828B82
:1010E0001FE812116943A3A61B214323A9812E11D6
:1010F0009136346A8390F14199246AA0E57491692C
:10110000E118911A680116FB8B4C2D17210F35A39E
:101110008733522F44FE3C442F20A7963302AB4323
:101120002440493D0FD10230B2B6D40108F5ED415B
:101130008BE87948241A49BD50217A1E12894652FB
:101140001FF7C87FA435AC2D92448336F473B40DD9
:101150005D9C5B489E0FB4880428D48C3660127D59
:101160004033522FD70C91F3934A9A06DABAC8B497
:10117000456BE94963FBA8352748134423A9C342BB
:1011800052FE699D3E040CA941243A903949D4F39A
:1011900080A65D23DFD1A95DD1F310CD1C9D470B47
:1011A000C788D4A4A2F51701B1E9E9B4054BE94019
:1011B0008A8B44634775A4ED0FD7F6D493007174FE
:1011C00041F210A9A7D3D222F6E50391E879888EDF
:1011D0006E68D08696CFA1A5E7215A1CB4C6178E9B
:1011E000B6A99B9B1A3B1AB5384828D27420C5452E
:1011F000A2E721588348F401531C32FE724E912815
:10120000BB6B5A12A2999353BBA2E721DA0046FEA8
:101210003CD1590DB47C114C3D9D16608AA381666A
:10122000402812C9FAF3100DDE5B44375249D40549
:10123000AC2575015197E8989E87E81909F981CC8A
:1012400049A29E4E03A9F43C445B80F53CA069E3AF
:1012500034903302FC9BD31331A2175244CF43F492
:101260008B449236FF706D4F2D22D6AE92A8E54387
:101270006B6A8696FA723AF7F4745AB80629899F0F
:10128000B946B09E6029F9998B4423A99B9B1A2CDF
:101290000BB0D481CC49E277746A57F43C44978808
:1012A0005133FA81A6519B4ECF43744191FCE6B471
:1012B0006B44ABE6ACD4F680A9E721BAD04923D180
:1012C000C7AD213FD00CB42DB5054BA16634921AA1
:1012D000684985205222D7B42BBA80B5E42F840CFC
:1012E0001DB06604481A89066DE8410AD6F310FD60
:1012F0000E964820D0BE6B44CBE3E81ABAB9A95188
:101300009B24161289464D2F5749DC52430A62240A
:101310004BFEE974203A901901264307AC819E9157
:10132000CA49862E6E2D6749FCB45149869E9100AC
:101330004923D1486AA02D90936857F48C04481A29
:10134000C92F2E4EDA884652D3F62219484C101671
:10135000D1A00D2D0E688680B0C83FAE11AC91D4DF
:10136000D21232B90E74EA79880E8468395133F298
:10137000CF43B43C8E30A048DC524BD73458166073
:10138000A98D2352071049716EFE43B43D4E4F475D
:10139000C521523F34C5D1F280B574207A908216AF
:1013A000191FCD2D75739A4AA245C4A819ED2A8933
:1013B0005A3EB4A66668A9CF40C31AE81929D1D607
:1013C000C5A191D4F239459A464D2722E74F4028CE
:1013D000ED8A066BE919C12052833634037292A854
:1013E0005DD1CD35F20F0195347DC87A52CFE3241B
:1013F000D1F6387DC87A7A1EC2245995C8DF882074
:1014000052A28935927A1EA2999B8744ED8A46ADF5
:101410009236916BDF35A219685BEA02E89A1A49A5
:101420000D9A9B8744CD40DB522F22A56B7FA08570
:101430000C69826824F53C4433370F89DA152DA9ED
:101440001044CA3F0FD18F348DA466C89C8948D4FC
:10145000F380A6E7215A5A17C7074D134C747151F0
:1014600083A609265C033D9D9B47171735D0D3B94A
:10147000793EA92462CD40D3AA392BF541523BDBFA
:1014800074A0123522A50E44CE2F1F21E26824B588
:1014900044AB92C8B5448B34413492DAB83548FB3A
:1014A000F390483492BA391DE9223AD0A90F909AA4
:1014B0005C41DE44AEC93F0FD10413A941247A1E1A
:1014C000A22D6AC359A95DD1F3102D1D5D1F6806B9
:1014D0009A16A03537B54195687BC0D487E8036478
:1014E000DB531B37BF3D24123D0F894423A981B62E
:1014F000682DAEE72191682435D016E03F0FD10565
:10150000D035B52B1A34370F891A490DB4716EE8EE
:1015100049803824FEE7169AA411293592BAB9A950
:101520001395531717B59C113443A2FCF3107DA8F3
:101530000CA00D8DA406CB022CF53C442F20A79EB9
:101540004EABE6ECB78734ED1AD1C3B9A8E5A15389
:10155000720D9A9B8744ED1E69F2CB4780D2AEE8AC
:1015600079881EA4A2A5411BFA106DD15A1ABC4756
:1015700040FCF3A066A41EE49136B46BFA38ABB11C
:10158000A37A39A734987A1EC2FE718C6824F5714B
:101590008CE8E32CA924EA43595844A3A919C03A7A
:1015A000907F889E074CAD9AB3522F34E722DA958C
:1015B000499A8EE41130A546F3032D9C501A491D1B
:1015C000DC1ADA357D90D4CE363D683307ADF5812F
:1015D0001ED1D9869AD10C346DD15A5A80298E06E3
:1015E00053032D6704F66322278903E02D356984B0
:1015F000618DA49E6E00BCA52E1191363ED00B5578
:10160000D48C1ECE682475207392A8E7014D033D4B
:1016100008187A21D73ED00C340D2CC0BA44C7F438
:10162000718CE846C8D08590A59BD3F200463ED089
:101630000C348DA456CDD9A603D6F3102D1C7BA057
:10164000617D8856843CF98166A0698BE671746A75
:10165000A02D2A4423A9039DFA805534D00CB45FF1
:101660005C9CB4112D1C2352A3A6C1D4F310CD4809
:101670008C581B30C907FA213169241A496D5D9CC9
:1016800047033D8FA312B4A1AD8B43FE40009D588C
:1016900023A951D3F3104D30D1AEE879880EE4B8C8
:1016A0003548FCC3B53D754093E879883EA00D3DB3
:1016B0000F98BA1032A4C68E7E54347654BF05B04B
:1016C000B6681E5D50245C6347F75ADA90A9038D13
:1016D0008D8C0F34034D23A9812ECE2DEDA206FA59
:1016E0001D2C9140A06930F53C284EFC0B8A726A93
:1016F000C45E245222D7A40691E87988664E4EBD76
:10170000809CA8995F903C1AB4A10D25724A2D27A0
:101710006A4A833249D4F34442F400587E832AD182
:1017200007310D9A464D1CAE411BFA90BD969E4066
:10173000110D34438BFC4540D30B051227D648EAE4
:1017400040E62451CF039A2E606AB94025117F41AB
:10175000A7C68E462D1C981A08E1E240CDE8E93470
:1017600076346AB1DC3C3F903949D4A069628C9EE2
:101770006E00ACE7014D037D48D3D33117A3B37F8F
:101780001E12C9961AE8B080505A1E429E464D93CA
:101790004A22D66539A1BE244437A749458BEB437D
:1017A00040D4CD6952D1E25A3E02946E4E938AD60D
:1017B0009F87E8402522726A469A3EA0123D0FD1CB
:1017C000CCC9A917419246F2A7D324468DA43E94D2
:1017D00081C6F574BAB86850255C0F545123BF9187
:1017E0004AA25ECE290DB44165EAE3A2241A353D32
:1017F0000FD1CC51493ED0010C6D5D540C340D9687
:101800000558EAB00023521F24F5746EC91F220147
:101810004323A9039993443D0F687A1EA2A56B4602
:101820006A57744071C86F0F697A1EA205981A49E9
:101830000D2CC05CCF43344382688BD6D26F01FC41
:101840008B734BEA48E5D1A8697B48241A34439648
:10185000D48580A8A7D33312307E21206A24B52BEB
:1018600093346D220193443D0F687A1EA207688667
:10187000C4DF5C233AD0A9E7213A4450891E449240
:101880005889D4F3105D008A3F39AC411B5ABA180D
:101890009DD52012DDC89D7A38177523C89CE0A21B
:1018A000FC4007E7949E074C1D0903A8492D0F9D96
:1018B0001A491DE8D44087E584FAC3B53D35A42014
:1018C00046B2B445F368EC68D4211230346843075B
:1018D0003A27899F5412B10652EA8514917A3A7DCB
:1018E00008881A4D4956D12102FC49254D031DA2F5
:1018F00053A469B19C501A491D9139534F8B04D19F
:10190000400F803FA924622D9C505A4467A5764D14
:10191000A329B5B34D0FDACC416BFD7948241A44A5
:10192000A2A7755AA241A49E4E934A22D69012397C
:10193000916B7F91363476346AE61AC11AB4A19756
:1019400093446347A32E119136FE217A4650C992E3
:101950007A1EA20B9093C8A9ED717A4650C9921ACB
:101960002CD7C83F44DBE3B4003122227573F3A0C7
:1019700066F4729248DDDC3CA8997F88B6C7690698
:101980001491BA39CD909C4011A9195044EAE6E669
:1019900041CDFCE3909C1A3B1AB50468697B48D39F
:1019A000F3106D511B1A495D008A5F8A08A6389AA8
:1019B000611D80501AB4A1D15E4B4B11C114476315
:1019C00047A3FC686A2475207392A8A7D30655A282
:1019D000E7014D4FA723110455F2D1D4486AD03402
:1019E0005A4B5BD4869E074C1D96B3523717DCC00A
:1019F000DA38373E9A1A490DF472CDE8051AD1F358
:101A000080A90F90BA393D696CA8998FA646524FAC
:101A1000E7F40293E8E9B4006BE90084D298C8497E
:101A2000E200F8670296B6681E47A756CDD94586EC
:101A3000211A490D74A40D5880F57151928F1DD54E
:101A400002B4E6A60E34363D0FD102B4B188065377
:101A500007378F266DC88F1DD502B4E6A616608A9B
:101A6000A3DD1A3AA038A4B6681E2D0E28E56347F8
:101A7000B5006D4F2D09D1F3105D5C2472EAE2A22E
:101A80009E87E81909917F1EA20B92476347F57262
:101A900092682435581660A9E7213A2063889CDFB4
:101AA0001E30B5006D4F1D88163492A1199553074D
:101AB000A2491B3492F1ED0153CF43F421204E3D56
:101AC0000F6A4A723D0FD1CCD179B47C0428F95108
:101AD000D1F3102D15D605ACC5B5255A1EB09616F6
:101AE000608AA317884AFE7948241A49DDDC3CA89D
:101AF00019FD4864A0913635B982BCA9C501CD90C5
:101B00003F5CDB5307348976A568E622D1F380A6D3
:101B1000B1A35A80A6C521F6CF4322D12012DD9C65
:101B20000E280EA951D30BC8A93101714BDD889C39
:101B30001FCD2D35581660A907888AC8A903292EFC
:101B4000123D0FD103D8F61988116BD4F40172122B
:101B5000AE411B3A9247DAD460EA4590A491FC79F1
:101B6000880E8E9A23F53C60EA4040D4CCC9A90F78
:101B700068462F67899C7FB8B6A77E746AB096C600
:101B80008E464D8C911A35ED1AD1014845E6B74481
:101B90003FF4C8D0C5458D1DD5A00D8D1DD5030DB5
:101BA000DDDCD4033441FE011535A341D3688AA39B
:101BB000E70153BB46B400ADB9A9A588608AF349D3
:101BC00025116B86D622518F08ACD4164C12F574B1
:101BD000FA20A99D6D9AA1B5BE04A31129356843C9
:101BE0009B054623526A498520646802C4D16E1E53
:101BF00012BF006BE9E634034D9B48C0D481141733
:101C0000893E4423A90701E3CF43742072EA795047
:101C1000337A3A3D9C6ECE6A24F5743AD2A6810599
:101C2000F803BDD09C8BE8E006D6AE4CD2F401316F
:101C3000B82835D0261230B574747DA00F1986E807
:101C400040A625A46945C893BA4444DA90073D6D7F
:101C50002221ED1FA2E70153ABE6ACD4CDCD839A90
:101C6000D1C3D130A56E6E1ED4CC778D6857F43CAD
:101C700044123D00961A49DD5C23DA153D0F91446C
:101C80000F80E51FAEEDA919504403CD1C6D13A0C4
:101C9000A61D9DDA150D34738B1CB4D69F8768E69C
:101CA000689B0035A90FA84487E8A839531717E7A0
:101CB000D140334725F92F3A11819CA881895CD303
:101CC00048EA79889E0791A25DD11331F2815E685E
:101CD000CE45B46ACE2E320CD1486AA0076886443D
:101CE00047A59E0735F38116A08D457459482812E3
:101CF00051333A90E222D1F3106D511B1F6806DA7E
:101D000096DABA3834921A486D9C1B1A487D90D4E2
:101D1000C1B5F1876B7BEA47A79E876801E2D48152
:101D20001417899E87E8E3A224DF1ED23443E64CD1
:101D30008DA466404E12B94E544E248846524B1222
:101D40002B68F3A3B9A596E86A57B46B448336347D
:101D5000D007ACA287CBA46957F43C44BB7948FCBC
:101D6000F3104D3091FA804AB46B442FD00C0586A5
:101D7000685249C4F69048FE21A0626D5D541A3540
:101D80008D1D9D4723A9214564EA48E4D4A869B77D
:101D90008606867CA0179A7311BD0850DAA2B5B4E6
:101DA000444D69A04D24606A79D0FB4017E7960640
:101DB0006DE883A466AE11AC41249A008916D60F53
:101DC000C449C607DA50B426D6C23529106982E85C
:101DD00046C890BA390D84A092C40F9A06EF2DA27E
:101DE000811E006B45C8937A1EA28713D3450D2C24
:101DF000C01F344DD89B580760B4456BE9E6A696E2
:101E000013B4A1E98BC89CF951D1D851FD00D68FEC
:101E10008046A7E41A3BAA0D999AB9A608967F9125
:101E2000A99B9B7A1EA2256DDA383D9C6DDA358D13
:101E30001D8DDA4630CF9FC7512D0F58532F57892C
:101E40009E07EB469039C1D1A881D4F3604956F979
:101E5000F39048B6D4CD6949C5D1F3A06634903A21
:101E600080A11F0D0B0934F16FAE112D9D1E0414BE
:101E70000DA49EC749A2ED71DAA2B57473531F0277
:101E8000E26F6E1ED48C46520B1227404D073AF576
:101E900020601E0DDAD0135C223FD02FBAB008D3D9
:101EA000F2804886465203FDA20B8B307DC0AA64A7
:101EB0007C48C142136B8BE671746A48419B68622F
:101EC0008DA45E68CE45F43C8E9A33B52B7F92B5D7
:101ED000F43C44CF48E7E11AB4A1E5018CE87988E5
:101EE0001EA4A2F5E7215AB81016891A2C0BB0D4FB
:101EF000968028F53C445B17E5D4F23822FF3C2459
:101F0000922D35030D6BA0E5424F4F8BEED4823EF0
:101F10000DDAD00BBD3FADD3486AE1D8030D731D78
:101F2000E8D4F34442B6D4408BE8ECF8F690A6052A
:101F300098528348347354A266B89E87606D5DDB07
:101F4000533362FF3C440F67F43C60EA19DD941A96
:101F50000447A72EA80DA9810EAE913F0FD1D3350E
:101F60004389B68EB621357391E87940D3402FD09E
:101F700004F90599335133DAA279B46B644B1D80AF
:101F8000507A3A3D0FD116ACF5E7213A90B5B046FC
:101F900052373775416B91A12D9A471780A2B62E03
:101FA0000EF987D3F3101D889C1AB4A1170195E888
:101FB00079888E444E3D9D366E7C7BC0D448EAE0E5
:101FC000A8395323A9C521E091A8E7014D036D501D
:101FD000997F1E128946522BD4462352EAE9742077
:101FE000BA38DA862695446C0F89E403FDA27B8714
:101FF0004C8DA46E6EEA4884330D6532346AFA2043
:10200000A99D6D7A81363E0892344134038A483D59
:102010000FD1878038B589CEEAE2DA20F103A9A58D
:10202000734D03A919681A491D5C6C5C1FA203312A
:10203000A8493D9D1E887CB19C917A3A2D963352D9
:10204000A3A6E7898468431A896022D7E41F04CCD9
:10205000A3C1B2004B2D1C23524FE734017161ED37
:10206000A29ECEE90526F9034911C944AE6924F5BB
:102070003C4407322789FA8138B52BBA82E5E21F42
:102080004E4FA7DD3C244A6D0F981A3BAAADA36BB7
:10209000E840F4708DE880FF2160CDA391D4CD4D50
:1020A0005DC1A264E889D6D21209D588945A38460F
:1020B000E407E3D3355B2AA648B3912EFC8F8690C4
:1020C0001914C4750605FDE3070B8751B9F03FBE2F
:1020D0002EAC38C8653530E7A63F90665738B0E477
:1020E0003BBD3F900A70BA3C0F20328FF203510380
:1020F0000B70C7403F90B0A3E20930015FC3F828DE
:102100003F901DA324666CF6C0D30F645493358CA6
:102110000B3F40032C69E5C2FFA58130188C90006D
:10212000A32E0CC260F05F5D86A2C3F47EB0F4877C
:102130002B2CC20FB048CA1FBE59FA644753B1C70F
:10214000AF5D0F3868695841CAAF0D434311F0F5D0
:102150006B2B3CA029DCA48F5B0E5403A7BFC66584
:1021600020188069E5C27F0300C9202E4D07297F12
:10217000230971D6305403437F7366E0E520469A05
:1021800081D7DF3000000EC2B3C20BD93A7F098875
:1021900020BC551B2AA630086F7FB909806494992A
:1021A00090C265930880943A5726A4F0EFC18080CE
:1021B0002E8FEB293F783500590ECFE3C23F7811BF
:1021C000F035B09F086723D7213F7871591A0870FE
:1021D000D3FDA4C2964DA51DCA4F3255D2A0C3F35C
:1021E0002054FA93EFF03A9000B36F0A9BD911FE96
:1021F000E993965433B01050C223F2A75C33B41263
:10220000115F7F6A0E5D0A3390008FCD46297F5A99
:10221000250D4C18DEEF9660C466590A3B970B53A8
:10222000D0EF96F0A30894A639024CC24A0383B0BB
:1022300091FEAE0B9F2BB77522AC1930C2B8900B34
:10224000FFED205442135650F2B7F02B009107FFD8
:10225000ED8B64E8C102121137D51FBDA9686C86E9
:10226000F23F3020A4CEB53493F23F545311F0C363
:102270001EFF615E1EFCA2E84036D5F51F082BB19B
:102280009000739D4129BF846846FA900D25685AD5
:1022900009FC5269B81211BFBF082B1B205C0FA4A8
:1022A000FCC6F5C0006B6C55FA1BDA96A5AF023878
:1022B000C8D16CD933BCBF510ACD4421BF51254F81
:1022C00052660D43C2AF73FD061C10F0B5185528B9
:1022D00052CC425DBF01BF1B8C642DB05505FC1B69
:1022E000AF08AF03A0505266A53F0544222C7C5096
:1022F000F2530D0CB0D920740D14FC542949D5208B
:102300001C3F457AC26A64CF49552EFC531418AC61
:1023100030A795FFD0004D756EB08BFC83018F0AFE
:102320006808E46BC0A3F20FC6A25D6C260092B1F0
:10233000B0A10BFF49336C25FC279028C223F3275B
:102340005042965943FE13383492F6C1E93F810357
:1023500028C0EF9F5DA3F23482742ECDE6FE990172
:10236000B3865BC290008F12B9302EA4FC19F40E14
:1023700097086BE92F50690A3B970B0B6599C2CE02
:10238000E5C2BFC069A540BEEC9B19DBBF1AD9C529
:10239000906C7AA4B07981F070FCAB917D082A3200
:1023A0000DFC2194D6FE6B460106180C9E8508CFC5
:1023B00093FC2BB77DF02B0092F70E69E3C2FF0769
:1023C0003F43FAA6B0F9170F254A447CB18D0B5F45
:1023D000A2008F8FF2174FE6802E5CFE84E1658DA0
:1023E000C692AF01FF9DA7347073FC9D28C00D10ED
:1023F00064AB838CC88F02958134300A5403A5FCEA
:10240000685389F043AEF08F4A209C3D5D0AACDCF6
:10241000D689F06F35A9213DE524C1CD7F369540A1
:102420001589A7FCEC21B007F7731E900EA80BFFCF
:102430009CCB660D0C642D3C5C2905FC1C55C259D7
:10244000FA64069CC2CEF53B0C720ECF839C7FB51E
:102450008D90006F23F223CEC56DC2760C4303A787
:102460007FF03A48EA5CE0CF9030032CE29BC2E276
:10247000B71994FB338FD27AEFA00D0205FC4C758F
:1024800035063C08DF563ECA0F00000025003D001F
:1024900060007C009700AE00C300F6001001270129
:1024A000440172018B019B01BC01CF01E801FF01D6
:1024B00018022F023E026002740289029E02C102CB
:1024C000D202E502FB020E032F03540366037803D6
:1024D0008D03A603CB03DF03F3031F043C0459045D
:1024E00075048904A404CA04E9040505200532051D
:1024F000510567057C059805AE05BA05CD05E205D1
:10250000FC05170631064E0669068A06A906C806A6
:10251000E50603072707570774079307BA07DE077F
:102520000B083108550870088608AD08CF08EC087C
:102530000A092009330951096D098A09A509C70942
:10254000F609160A380A600A850A9E0AB80AC90AF4
:10255000D50AEF0A130B360B5F0B860BB30BD80BA8
:10256000FF0B270C4A0C730C990CBC0CDF0C050DEF
:102570002C0D510D790D9C0DBF0DE60D0C0E300E7E
:10258000540E790E9E0EC40EEB0E100F370F5A0F1D
:10259000800FA60FCC0FF20F15103A105E108610A8
:1025A000AE10D510FC101F11431168118B11B4111E
:1025B000DD1104122B1253127B12A112C912EE125A
:1025C00017133D1361138613AC13D413FD13261494
:1025D0004C1471149814C014E9140D1536155B15BC
:1025E0008115A615CF15F4151B16411668168D1604
:1025F000B616DC1602172C1754177A17A117C9172D
:10260000ED1715183B1864188A18B118D518FB185F
:10261000211947196E199519BE19E6190A1A321AA5
:102620005B1A821AA71ACF1AF71A201B451B6D1BBB
:10263000911BB51BD91B021C301C561C831CA81CEB
:10264000CF1CF41C191D3D1D611D871DB01DD71D1C
:10265000FF1D261E4B1E791E9D1EC61EEC1E101F42
:10266000361F5C1F801FA51FCD1FF31F192042209E
:102670006E209220BB20DF2008212F215621000050
:102680000F001C002600350041004F005900690072
:10269000760089009B00A700B200BE00CA00D300EC
:1026A000E500F100FD0009011601250135014E018B
:1026B00059016501750180018A019701A801B701DF
:1026C000C101D101DA01EA01000214021F0228024D
:1026D00036023F024B0255026302710280028902F8
:1026E00094029F02B102B902C802D902E702F502C0
:1026F000FF020C03150323032D033803470358037C
:102700005F03670370037A0382039003A403AE039D
:10271000C103CE03E003F003000411041B042F04E3
:10272000380444044C045A046804720482048E047D
:1027300098049F04A804B804C704D104DB04E90486
:10274000F204030510058091F7069091F806209198
:10275000FA0680349105E0F4222331F03091FB0633
:10276000ECEFFAE0332311F0ECEBFAE0E80FF91F9D
:102770008491222349F19091FB06992329F190ED50
:10278000980F9A3008F19FEB980F9A31E0F4089572
:102790008038910588F4EAE9FAE0211102C0E4EA00
:1027A000FAE02491222379F02817190619F43196BA
:1027B000849108953296F5CF211105C0811591407D
:1027C00011F488E0089580E00895E5EFF2E080E0FC
:1027D000A0E0B8E000800EBC8111012C1197A0FD93
:1027E000FDCF0192B9F70DB4089520916B0730E049
:1027F0002095309540916C0750E02423352390E0DC
:102800002823392381E0232B09F480E00895CF9316
:10281000DF93DC0177FF13C022273327261B370BFA
:10282000842F042E000C990B281739072CF4460F1F
:1028300070E060E0141644F0DF91CF910895141613
:10284000DCF760347105C4F7A038B105A8F7262F6E
:10285000CB01840F911D47FD9A958134910514F0A9
:1028600040E4461B27709FEF022E01C0990F0A9487
:10287000EAF7420F621B710977FF02C0695F7F4F61
:1028800083E0759567958A95E1F7FB01F695FE2F34
:10289000EE27F795E795EA0FFB1FEB50FD4F28E079
:1028A00030E06FEF70E014163CF6483064F4D90164
:1028B000A41BB10947FDB395EB0102C0D595C7959F
:1028C000AA95E2F79C238081982B90834850E0588A
:1028D000FF4F9FEFE8CF4F925F926F927F928F9260
:1028E0009F92AF92BF92CF92DF92EF92FF920F939F
:1028F0001F93CF93DF93FB01E00FF11D1E161F0600
:102900000CF08AC0603471050CF086C0DB0177FFE3
:1029100004C0AA27BB27A61BB70BA770BB27EB01D8
:1029200077FD2796E3E0D595C795EA95E1F777FF20
:1029300007C0219768E070E0FB01EA1BFB0BDF0199
:1029400030E0069506950695802E912C8A01AE0101
:102950005695542F442757954795480F591F4B506C
:102960005D4FBE01E0E8F0E07F01E81AF90A88E077
:1029700090E03C016A1A7B0A6F3FFFEF7F070CF47F
:102980003BC090E080E05A01E0E8AE0EB11C6F3F22
:10299000760709F452C0FC01E00FF11FE4916A01CF
:1029A000C80ED91EF0E02F010A2E01C0440C0A9473
:1029B000EAF7F6015080452840821097B1F0673061
:1029C000710599F0F801E80FF91FE4916501C80E4F
:1029D000D91EF0E02F01062C02C0559447940A94AA
:1029E000E2F7F6015080452840820196821793074E
:1029F0001CF4E816F90659F66F5F7F4F020F131F9C
:102A000040585F4FCB018C1B9D0B8815990524F412
:102A10006830710509F0B0CFDF91CF911F910F9110
:102A2000FF90EF90DF90CF90BF90AF909F908F90EE
:102A30007F906F905F904F900895109709F0C2CFEC
:102A4000D4CFFC018091E302882311F13FB7F894C1
:102A500082E08093E9002091F200822F90E0181626
:102A6000190614F481E090E0882339F0289844E6B0
:102A70004093E2024091F1004083222339F02091FB
:102A8000F200211103C02BE62093E8003FBF089518
:102A90008FEF9FEF0895CF93DF931F92CDB7DEB7EF
:102AA0006983DC01ED91FC910280F381E02D41E02E
:102AB00050E0BE016F5F7F4F09950F90DF91CF917E
:102AC000089583E08093E9008091F200882319F053
:102AD0008AE38093E8000895CF93DF931F92CDB7E8
:102AE000DEB7FC018485958597FD08C02FEF3FEF89
:102AF000358724870F90DF91CF910895CE010196FD
:102B00000E942115019719F4898190E0F3CF8FEF8E
:102B10009FEFF0CF0F931F93CF93DF931F92CDB70B
:102B2000DEB78C01FC018485958597FF0BC0CE0133
:102B300001960E942115019771F4898190E0F801B6
:102B400095878487F801848595850F90DF91CF91D3
:102B50001F910F9108958FEF9FEFF1CFFC018485B6
:102B6000958597FD0BC09FB7F89482E08093E900AC
:102B70008091F2009FBF90E0019608959FB7F8946E
:102B800082E08093E9008091F2009FBF90E0089579
:102B90008091C90208954091BD025091BE022091DA
:102BA000BB023091BC0242175307B4F49091E80085
:102BB0009570E1F39091E80092FD19C08093F100C7
:102BC0008091BD029091BE0201968F739927892B47
:102BD00019F48EEF8093E8008091BD029091BE02BF
:102BE00001969093BE028093BD0281E0089580E03B
:102BF0000895DF92EF92FF920F931F93CF93DF938D
:102C0000D82E8A01EB017B01E40EF51ECE15DF05FF
:102C100059F0D7FE12C0FE0184910E94CB15219677
:102C20008111F4CF0FEF1FEFC801DF91CF911F91FA
:102C30000F91FF90EF90DF9008958881EECF2FB72E
:102C4000F89487708093E9009091E800892F807252
:102C500095FF04C09091F20080E4891B2FBF089576
:102C600083E00E941F1690E00895615030F020919B
:102C7000F100FC0120830196F8CF289884E6809328
:102C8000E2020895AF92BF92CF92DF92EF92FF924D
:102C90000F931F93CF93DF936C017B018B01040F84
:102CA000151FEB015E01AE18BF08C017D10759F020
:102CB0006991D601ED91FC910190F081E02DC60162
:102CC0000995892B79F7C501DF91CF911F910F915C
:102CD000FF90EF90DF90CF90BF90AF9008958091DC
:102CE000B30281110DC082E08093AF0284E0809333
:102CF000B0021092B2021092B10281E08093B3024E
:102D00008FEA92E008950F931F93CF93DF931F9262
:102D1000CDB7DEB782E0898342E450E06DE079E030
:102D200080E80E94F9150E946F16DC0112960D9141
:102D30001C910115110589F0D801ED91FC910280DB
:102D4000F381E02DBE016F5F7F4FC801099597FDAC
:102D500004C0F80100851185ECCF89810F90DF91C7
:102D6000CF911F910F9108953FB7F8948091AB02D6
:102D70009091AC02A091AD02B091AE0226B5A89B95
:102D800005C02F3F19F00196A11DB11D3FBFBA2FFD
:102D9000A92F982F8827BC01CD01620F711D811DBD
:102DA000911D42E0660F771F881F991F4A95D1F742
:102DB00008958F929F92AF92BF92CF92DF92EF923F
:102DC000FF926B017C010E94B4164B015C01C1149F
:102DD000D104E104F104B9F00E94B416681979092C
:102DE0008A099B09683E73408105910580F321E0C3
:102DF000C21AD108E108F10888EE880E83E0981E17
:102E0000A11CB11CE4CFFF90EF90DF90CF90BF905A
:102E1000AF909F908F9008957F928F929F92AF92E4
:102E2000BF92CF92DF92EF92FF920F931F93CF93B7
:102E3000DF93C82E8B017A018091E302811110C0CB
:102E40008FEF9FEFDF91CF911F910F91FF90EF9048
:102E5000DF90CF90BF90AF909F908F907F9008951C
:102E60008091C10280FF05C08091E0008260809364
:102E7000E000CE2DDF2DD12C8AEFB82E8C2D87705F
:102E8000982E8C2D8072882E8C2D8074782E9AE34B
:102E9000A92E209719F4DD2009F452C08C2D0E9430
:102EA0001F1681110AC0BA94BB2051F261E070E094
:102EB00080E090E00E94D916ECCF8C171D0611F02F
:102EC0000CF08C2F9FB7F8949092E9002091E800C5
:102ED00025FD02C09FBFDDCF282F30E0C21BD30BE2
:102EE000882029F08150A0F01092F100FBCFF8016A
:102EF000C7FC0AC0815050F041914093F100FACFD5
:102F000044914093F10031968150D0F7020F131F86
:102F1000DD2021F0A092E800D12CDCCF8091E800E8
:102F200085FD07C0A092E800DD24D394209791F29C
:102F3000F3CF209779F6772069F2A092E800CACF04
:102F40005D9884E68093C002C7017CCFEF92FF9228
:102F50000F931F93CF93DF931F92CDB7DEB77C0102
:102F600082E0898341E050E0BE016F5F7F4FF7014F
:102F700083810E940C178C0197FD0DC0F70183819E
:102F800048E050E06AE577E080640E940C17080F83
:102F9000191F97FD8C01C8010F90DF91CF911F91F0
:102FA0000F91FF90EF900895CF93DF93EC01809104
:102FB0001501882331F083E00E940C1718161906BA
:102FC00034F081E090E09B838A8380E090E0DF91A1
:102FD000CF910895DC01FB0112962C911297848108
:102FE00095812817190641F491818081813A31F445
:102FF0009D7F81E0913009F080E008958132E1F712
:103000009B3029F482811F968C9381E008959A3039
:1030100099F7828150968C93F8CFDC01FB0188E40C
:10302000808389E4818384E482831D969C911D972B
:103030009F709F5B93831D968D919C9124E0969544
:1030400087952A95E1F78F708F5B848385E00895DB
:10305000EF92FF920F931F93CF93DF93FB01208199
:10306000213871F52381223259F5DC0112964C91F9
:10307000248135814217130619F5EC010B851C8557
:10308000F12CE12C0115110589F0F80144815581DD
:103090006281738180E80E94F9158F3F980749F09B
:1030A000E80EF91ED8010D911C91ECCF81E08F87BD
:1030B000C701DF91CF911F910F91FF90EF9008957D
:1030C00090E080E0F6CFCF93DF93CDB7DEB769977E
:1030D0000FB6F894DEBF0FBECDBFFC01DB018C91B3
:1030E0008F5F8C939E012D5F3F4F8DE0D9011D9224
:1030F0008A95E9F729E0298384E08A8391E09D831A
:1031000083E08E832A8721E22B879C879D879F8778
:1031100022E2288B27E02B8B25E02C8B8E8B20E462
:1031200030E0388F2F8B998F82818B8395858685B0
:10313000998B8A8B838180688D8B49E150E0BE0139
:103140006F5F7F4F80E00E94F91569960FB6F89483
:10315000DEBF0FBECDBFDF91CF910895CF93DF9338
:103160008091A202811167C081E0809395028093D3
:1031700096022BE932E03093980220939702109246
:103180009A021092990222E231E030939202209347
:10319000910210929D0210929C0210929F02109236
:1031A0009E028093A0028093A10281EC80939B02F7
:1031B0000E946F16FC01818190919502482F490F62
:1031C0005527551F483051059CF5A281B3811097B2
:1031D00009F521E932E03383228320812093930291
:1031E0008093940280919602820F808320919702AF
:1031F000A22FB09198028A2F821B8917C8F481816F
:103200003D91C82FD0E0CE5FDE4F38838F5F818342
:10321000F2CFD90118962D913C91199721153105BE
:10322000C1F721E932E019963C932E931897D5CF38
:1032300081E08093A20281E992E0DF91CF9108952D
:10324000CF93DF93CAE5D7E08A8368830E94AE18E4
:103250000E94A6171A8218820E94AE18DF91CF91A1
:103260000C94A617883009F43AC08A3009F439C0A2
:1032700090EE980F9437A0F490916407992339F059
:10328000813480F095E0E0E9FAE08E3570F4282F83
:103290002052330BF901E85FF54FE491E1110EC0C4
:1032A00080E008959AE0ECE7FAE0915080F32491F1
:1032B000821313C03196E491EE2349F32E2F2F7B16
:1032C000E295E695E27081548A3108F4E62B6E2F80
:1032D000822F0E94201981E008953296E6CFEAE21B
:1032E000EDCFE8E2EBCFBC0190E080E00C94D91682
:1032F0008FB18095807F669B88601C9B8460089559
:103300001092C9023E983F9808953E9A3F9A81E0F4
:103310008093C902089580E0E5EFF2E081118FEF1C
:10332000002481938193819381930394D1F7109228
:10333000900210928F0210928E0210928D020895C8
:1033400080389105B8F460347105A0F420E191E073
:1033500061FD94E060FD990F62FD9295687F269F64
:10336000D0011124A80FAB50BD4F8C9140FF03C07A
:10337000892B8C93089590958923FBCF9091D3024C
:1033800094FF03C0907681E009F480E008959C01E9
:1033900090917F0299306CF484E09802F00111243E
:1033A000E55AFD4F33832283718360839F5F90933F
:1033B0007F02089510927F0264ED78E280E498E045
:1033C0000E94C71961E17DE18BE398E00E94C71973
:1033D00063EF7DE185E398E00E94C71963EF7DE12B
:1033E0008FE298E00E94C71963EF7DE185E298E0E3
:1033F0000E94C71963EF7DE181E298E00E94C7193E
:1034000063EF7DE187E198E00E94C71969EF7CE1F5
:103410008EE098E00E94C7196DEE7CE185E098E0AF
:103420000E94C71987E08093840288E0809383021A
:1034300080E48093820285E380938102109280026F
:103440001092880281E08093870210928C02809310
:10345000890280938A02089590918C0291509093F2
:103460008C0281E0911180E0089588E780938C02BE
:1034700008956623A1F0843310F4805A0895E82F4C
:10348000F0E08E3340F4CF01C3976AE070E00E9411
:103490009337805D0895EB59F94F849108958A31EF
:1034A00010F48F5B0895E82FF0E0843218F4CF0118
:1034B0004997EBCFEF57F94FF0CF8091D30284FBC0
:1034C000222720F9E1E5F2E0982F9F709E5F948318
:1034D0002683118210821092580210925A02209371
:1034E00059021092500281E080938902089510924F
:1034F0004E0287E080934F0281E080938902089515
:103500004150962F977031E001C0330F9A95EAF73A
:1035100066956695669590E8699FB00111248F5F66
:10352000860F972F911D8B509D4FFC012E2F281B2E
:10353000241728F42081232B20833296F7CF089577
:103540008091D302582F507146E084FF45E080916E
:103550004802841700F52091490230914A02E09117
:103560004B02F0914C02BF016F5F7F4F70934C0292
:1035700060934B02E491F0E0082E02C0EE0FFF1FB3
:103580000A94E2F7E22BF32BF0934A02E09349020C
:10359000885F80934802242F8091490290914A02CB
:1035A000E1E0F0E0042E01C0EE0F0A94EAF7E150EA
:1035B000E823552341F0EF3321F0E05AE09347022E
:1035C00008C0E0E0FBCF509147025E3289F41092D0
:1035D000470202C0969587952A95E2F790934A0292
:1035E0008093490280914802841B80934802089589
:1035F000EA3110F4EF5BE2CFEA51FF0BE45EFA4FE1
:10360000E491DCCF982F26E030E0281B310987FDBC
:1036100033958EEF890F1216130614F08AE0891B7A
:10362000833014F082E0089587FD80E008951092C1
:1036300086021092850280916C07982F907F41F14D
:10364000909153019F5F94310CF5909353019091A9
:103650005301913011F09F30E9F485FF03C09FEFD3
:103660009093850286FF05C0909185029F5F90939D
:10367000850287FF03C09FEF9093860284FF0AC0F4
:10368000809186028F5F8093860208959FE0DDCF50
:10369000109253010895ECECF2E02081318145E075
:1036A000429FC001439F900D11244281538167E0E6
:1036B000649F9001659F300D1124820F931F875CDA
:1036C0009D474481558169E0649F9001659F300D5D
:1036D0001124280F391F468157816BE0649FC00178
:1036E000659F900D1124820F931F408551856DE0D9
:1036F000649F9001659F300D1124820F931F0895E0
:10370000CF92DF92EF92FF920F931F93CF93DF93AD
:10371000082F142F469FE001479FD00D1124F12C54
:10372000E12C60E074E284EF90E0A7019E010E942A
:103730003037215031094109510991E021153105F6
:1037400081E0480751056CF060E970ED83E090E09E
:10375000A7019E010E9430372150310941095109CA
:1037600093E0013059F00330F9F0DF91CF911F91D0
:103770000F91FF90EF90DF90CF9008951093480144
:1037800080918100887F892B80938100309389000C
:1037900020938800109285001092840080916F0021
:1037A000826080936F00E1CF10935201D0934E015D
:1037B000C0934D0180919100887F892B8093910067
:1037C00030939900209398001092950010929400E5
:1037D00080917100826080937100C7CF811116C003
:1037E0001092EE028091E40281110AC08091C6021B
:1037F000E091C702F091C80290818095892380836F
:1038000042E064EF71E083E00C94801B8091E90258
:10381000811110C080916F008D7F80936F00809127
:10382000C302E091C402F091C50290818095892382
:10383000808308950895EF92FF920F931F93CF9383
:10384000DF93EC019091F402992309F465C0F42E02
:103850008B01913071F48091F302882351F08091B3
:10386000F202841708F458C080E00E94EE1B109208
:10387000F302E091F002F091F1020995EE24E39455
:103880008E258093EF0230E020E0A9019801220FFD
:10389000331F441F551FDE010E944F376C507E4F6F
:1038A0008F4F9F4F28EE33E040E050E00E94623798
:1038B0008091F4028130A9F48093EE022093EA0211
:1038C0003093EB024093EC025093ED0283E042E030
:1038D000BE01DF91CF911F910F91FF90EF900C945B
:1038E000801BE092E9022093E5023093E6024093C8
:1038F000E7025093E8028091F302882351F081E0BF
:103900009091F2029F1508F480E08093E40281E038
:10391000DECFF092F202FBCFDF91CF911F910F919A
:10392000FF90EF9008954FEF64E170E08BE492E038
:103930000C941B1C0E94931C84E080934D020895FC
:103940000E94931C83E080934D0208950E94931C73
:1039500082E080934D0208950E94931C81E0809341
:103960003F0210923E028093890208950E94931CA8
:1039700010927F026EE572E289E295E00E94C7191B
:103980006CEA7CE182E295E00E94C71988E28093AC
:10399000840282E2809383028FE2809382028BE032
:1039A0008093810281E080938002809388028093DB
:1039B000870208954FEF6AE070E088EB91E00C9485
:1039C0001B1C80918C02811102C00E94DA1C81E0D4
:1039D00080938A028093CA0208950E94BE198823A8
:1039E00039F08091D30280588093D3020C94E11C6B
:1039F00008958091D30282958695837090E0049615
:103A000063E070E00E949337E0EDF2E08370982F5E
:103A10009295990F907E83818F79892B83830C9463
:103A2000E11CE3EDF2E0808190E1892780830C9432
:103A3000E11CE0918602EE2339F140918802209149
:103A40007F02022E000C330B0E2E000CFF0BCF0159
:103A5000840F911D47FD9A95820F931FB9010E9413
:103A60009337482FDC01AA0FBB1FAA0FBB1FA55A13
:103A7000BD4F6D917C91672B51F3809388020E941A
:103A8000DA1C81E08093870284E00E94F51388238A
:103A900061F0E091880284E0E802F0011124E55A27
:103AA000FD4F0190F081E02D0994089580914E0220
:103AB00081110FC080E10E94F513882361F00E94FC
:103AC000DA1C80914E0291E0892780934E0284E0B7
:103AD0000AC080E8F0CF8CE00E94F5138823B9F388
:103AE0000E94931C81E090914F02692F092E000CD7
:103AF000770B20914E0247E050E0222311F04BEF6C
:103B00005FEF6417750749F09E5F220F220F921B2B
:103B100090934F0291E0909389020895DF92EF9283
:103B2000FF920F931F93CF93DF93C091D4028C2FFA
:103B30008C73803309F452C00C2F069506950F70D4
:103B400010E0C80106962CE0E22EF12CB7010E948D
:103B500093370E94021BD82EC8010296B7010E941B
:103B600093370E94021BD82FC8010297B7010E9409
:103B700093370E94021BC37090E3C99F902D1124BC
:103B8000989F802D11249C2F9295990F907E9D9D3A
:103B9000902D112423E824BDC295C07FCD9FC02D58
:103BA0001124C095C7BD21EF209380008093880029
:103BB00090938A008091D50225E0829FC001112454
:103BC00041E068EE73E080579E4FDF91CF911F91E7
:103BD0000F91FF90EF90DF900C941B1C82E0D2E0DD
:103BE00092E0D92EC8CF0E948E1D8091D3028F7093
:103BF0008D5F80938C02089583E884BD8FEF87BD2D
:103C000081EF809380001092880010928A0080914A
:103C1000F4028823D9F0813031F48091F3028111CC
:103C200015C00C94EE1B80916F008D7F80936F0008
:103C30008091C302E091C402F091C5029081809509
:103C4000892380831092E4021092E9020895EF9292
:103C50000F93CF93DF9377FF0CC088279927861B9C
:103C6000970B2817190609F00CF47CC0260F70E09A
:103C700060E057FF0FC0EE27FF27E41BF50B802FF6
:103C8000002E000C990BE817F9070CF06BC0040F1D
:103C900050E040E0222309F465C0603871050CF063
:103CA00061C010160CF05EC0403451050CF05AC0D3
:103CB000CB01820F911D8138910514F020E8261B5D
:103CC000942FFA01E00FF11D07FDFA95E134F1059B
:103CD00014F000E4041B97708FEF092E01C0880FC9
:103CE0000A94EAF7090F491B510957FF02C0495FBF
:103CF0005F4F93E0559547959A95E1F75695542F68
:103D0000442757954795640F751F6B507D4F48E0CA
:103D100050E0AFEFB0E010162CF5083064F4FA0173
:103D2000E01BF10907FDF395ED0102C0D595C7959C
:103D3000EA95E2F78C23E1100DC08095FB01922FEC
:103D40003081382331939150D9F7085060587F4F14
:103D50008FEFE1CFFB01922F3081382B31939150BF
:103D6000D9F7F3CFDF91CF910F91EF9008955F9244
:103D70006F927F928F929F92AF92BF92CF92DF927B
:103D8000EF92FF920F931F93CF93DF93F82E4B0187
:103D90003A01EC0139E0C32ED12CA12CBB24B39401
:103DA00010E0C3018A219B21112371F122E0522EE0
:103DB000892B11F096E0592EEE24E39402E0252D94
:103DC000A401BE0187E697E00E94271E252D30E062
:103DD0002E5F3F4FC20FD31FB694A79481E0C81A3D
:103DE000D108F9F68C2F8F19DF91CF911F910F9188
:103DF000FF90EF90DF90CF90BF90AF909F908F900B
:103E00007F906F905F90089511E0892B29F710E063
:103E1000E3CF2F923F924F925F926F927F928F9259
:103E20009F92AF92BF92CF92DF92EF92FF920F9349
:103E30001F93CF93DF93CDB7DEB729970FB6F894D2
:103E4000DEBF0FBECDBF6A3071F5209101018091B8
:103E50008F029091900236E0239F800D911D1124D6
:103E60009093900280938F0210928E0210928D0296
:103E700081E090E029960FB6F894DEBF0FBECDBF6B
:103E8000DF91CF911F910F91FF90EF90DF90CF9036
:103E9000BF90AF909F908F907F906F905F904F906A
:103EA0003F902F90089520EE260F243708F7409179
:103EB0000101498320918D0230918E023987288734
:103EC00026E0429FA00111245D834C83288539851B
:103ED000203831050CF04AC020908F0230909002BB
:103EE00030E4231631040CF041C02885398559810E
:103EF00045E0549F200D311D112437FD37C02C8122
:103F00003D81220D331D37FD31C09F838E8384E0B8
:103F1000689FF0011124E056FF4F45905590659041
:103F20007490513071F5A884B98416E0D12CC12C5D
:103F3000B301A2014170552766277727C1018C0D77
:103F40009D1DBC01C5010E94A019769467945794E9
:103F500047949FEFC91AD90A26E0C216D10441F747
:103F600011503FEFA31AB30A1111E0CF48855985CC
:103F70008C819D81480F591F50938E0240938D0272
:103F800077CF4981842E912CC884D98456E05A83F6
:103F9000510186E08B838301720191E0E922FF24C5
:103FA000002711270981202FA501B6018E819F814D
:103FB0000E94271E76946794579447942B81215032
:103FC0002B83A80CB91C2111E6CF3A8131503A83DA
:103FD000C80CD91C3111DCCFC9CF0C94091FEF924A
:103FE000FF920F931F93CF93DF938C017B01D0E05F
:103FF000C0E0F701EC0FFD1F6491662339F0C801A2
:104000000E94091F892B11F02196F3CFCE01DF9179
:10401000CF911F910F91FF90EF9008958F929F92F3
:10402000AF92BF92CF92DF92EF92FF920F93CF9316
:10403000DF9380918C028F50990B63E070E00E94B7
:1040400093378AE39AEAA3EEBEEE04C0B695A7952D
:10405000979587956A95D2F7C82FC1708FE7C89F4B
:10406000802D112493E894BD9FEF97BD91EF90931D
:1040700080008093880010928A000E948B19209102
:104080008C0288E790E0821B91096CE270E00E944C
:1040900093374B0185EEC82E86E0D82E9CE1A92EE1
:1040A000B12CF12CE12CD0E081E090E08E149F0443
:1040B00011F090E080E08C9FB0018D9F700D9C9F6F
:1040C000700D1124645F7F4F00E228E1A601C50155
:1040D0000E946B148FEFE81AF80A88E1A80EB11C51
:1040E00080E6C80ED11C83E0E816F104E9F608E08A
:1040F00020E245EC56E06CE270E084E490E00E943F
:104100006B1480E190E090938E0280938D028AE39D
:1041100090E09093900280938F0264EB76E087E6C4
:1041200097E0DF91CF910F91FF90EF90DF90CF90CC
:10413000BF90AF909F908F900C94EF1F089590E0E8
:1041400080E00895FC01408151814115510531F114
:104150002281338195812115310521F081E064812F
:10416000691708F080E091509583911118C02115CE
:10417000310519F4118210820895369527953383FD
:104180002283948124233523232B31F024E0929F32
:10419000902D11249583089522E0F9CF80E00895B1
:1041A000E0EEE60FDC0116968C918823C9F080EDD5
:1041B000860F8A3040F08FEB860F8A3120F0603610
:1041C00040F0643978F4F0E0E455FF4F849190E0DA
:1041D0000895683251F0693229F482E590E008953B
:1041E000E03488F390E080E008958DE690E0089553
:1041F0006F927F928F929F92AF92BF92CF92DF92F7
:10420000EF92FF920F931F93CF93DF9380918902D8
:10421000882309F470C00E948B198FE190E090937D
:104220008E0280938D0284E090E0909390028093C0
:104230008F0267E976E087E697E00E94EF1FC09162
:104240005A028091590213E3811110E49AE0A92ED9
:10425000B12CD0E0C11708F04CC045018AE0881AA3
:104260009108350184E0681A71088CE0C82ED12CC1
:104270008091580275018C130BC0EE24E39405E085
:1042800025E0A601B40187E697E00E94271E73018E
:10429000609159028C2F0E94391A082FF0928E02D9
:1042A000E0928D02D0929002C0928F02682F87E632
:1042B00097E00E94ED1FD23069F0602F81E592E017
:1042C0000E94D020AC01B6016E5F7F4FC7010896F7
:1042D0000E94B71ECF5F86E0C80ED11C8CE3C816C3
:1042E000D104C1F4DF5F88E3A80EB11CD33009F01C
:1042F000B1CF10928902DF91CF911F910F91FF9062
:10430000EF90DF90CF90BF90AF909F908F907F9075
:104310006F9008951C13ACCFC12FE4CFCF93DF93E0
:10432000EC010E94D020998388830097D9F020E087
:1043300031E03B832A834A815B819A013695279538
:1043400048235923452BA9F33B832A834C812823F7
:104350003923232B11F4019741F484E0489F802DE9
:1043600011248D83DF91CF91089582E0F7CFCF9311
:10437000DF930E94171B88E00E94F513882309F140
:104380000E94FC1D0E94931CC1E0809151029091FB
:104390005202892B91F0C23081F481E592E00E94B3
:1043A000A220D82F809150028D1739F0DD2309F417
:1043B0006CC00E948E1DD09350028C2FDF91CF9144
:1043C000089584E00E94F51360915902882359F002
:1043D000809158020E94391A682F81E592E00E946C
:1043E0008E21C2E0D2CF6623B9F160E480918502CC
:1043F00087FF34C0809158028830D0F180918502C7
:1044000020918602811102C0222359F370E058E006
:104410008502C0011124820F911D27FD9A952091DC
:104420005802820F911D860F971F0E949337809329
:10443000580220915A028217F0F4887F80935A0222
:104440008091510290915202892B11F40E94DA1C42
:1044500081E080938902C5CF63E3C8CF882371F2DE
:1044600020915802462F4850550B2417150634F258
:1044700010928502C3CF30E0215F3F4F82171306B1
:10448000F9F2F4F2887F8850D9CF0E94FC1D93CFB7
:10449000E0E6F1E08CEDDF011D928A95E9F71092DC
:1044A0003D0210923C02E5EFF6E0148216828FEF97
:1044B000818381E090E09383828308950E94482263
:1044C0000C94AC1C97FF0DC022273327281B390BF7
:1044D0004217130629F024F0480F90E080E031F4F1
:1044E00008954423E9F380389105D4F760347105C9
:1044F000B8F79C01240F311D2138310514F040E834
:10450000481B362F377021E001C0220F3A95EAF799
:10451000FB0133E0F595E7953A95E1F7F695FE2F27
:10452000EE27F795E795E80FF91FEB50FD4F8081D7
:10453000822B81934150D9F7D3CF6F927F929F9274
:10454000AF92BF92CF92DF92EF92FF920F931F93A1
:10455000CF93DF93A090810222E0922E9A0C1091CB
:104560008202F09083026F2C0F2C000C77086301FD
:1045700081E0C81AD108C09184020C2E000CDD0B1A
:1045800022E0210FBE0161507109E12C092DA60125
:1045900087E697E00E94271E80918002882331F1F0
:1045A00094E0B92EB10EE2E06E1A710822974B2DFD
:1045B000B301CE010E94622284E08A0DB301680F2C
:1045C000711D87FD7A95615071094B2DCE010E94B6
:1045D0006222492DB601CE010E940714CE018B0D37
:1045E000911D492DB60101970E940714D0E0C0E04B
:1045F0008BE5C82E82E0D82E80917F02082E000C19
:10460000990BC817D9070CF04CC0F6016281738171
:104610006115710509F442C0AF2C0F2C000CBB08CA
:1046200080918402082E000C990B0C962091880230
:10463000022E000C330BC217D30769F524E030E0DB
:10464000821B930B90938E0280938D02B092900206
:10465000A0928F0287E697E00E94EF1F8091880268
:10466000082E000C990BC817D90771F460918402C9
:10467000062E000C770BEE24E39405E025E0A5015F
:1046800087E697E00E94271EF6E0FF0E219684E061
:10469000C80ED11CB1CF30E020E0D2CFF394F39418
:1046A000F5CF10928702DF91CF911F910F91FF906C
:1046B000EF90DF90CF90BF90AF909F907F906F90E2
:1046C0000895EF920F931F93CF93DF938091890208
:1046D00090913E02992379F090918702911101C047
:1046E00081110E949D2210928902DF91CF911F912A
:1046F0000F91EF900895882309F4A2C00E948B19AE
:1047000040E860E080E00E94801A40E46EE380E4CC
:104710000E94801AC0E6D1E002E010E010928E0202
:1047200010928D021093900200938F02FE0101906F
:104730000020E9F73197AF014C1B5D0BBE0187E606
:1047400097E00E9442160A5F1F4F66960E331105CE
:1047500029F780915F018823B9F1E12C0DE121E374
:1047600041E150E067E270E087E697E00E94271E93
:104770004EE262E188E20E94801A4EE26CE288E238
:104780000E94801AC3E1D0E041E0BE0188E290E0DF
:104790000E94A0192296CD32D105B1F7C3E1D0E035
:1047A00041E0BE0186E590E00E94A0192296CD323C
:1047B000D105B1F708E128E246E554E064E170E094
:1047C0008CE290E00E946B140E94A313682F813248
:1047D00008F460E280915F01882309F46BC0809146
:1047E000F7069091F806019709F05EC060915901B3
:1047F00082E08093010184E490E090938E028093A4
:104800008D0287E190E09093900280938F0287E67B
:1048100097E00E94ED1F81E0809301014091F7062F
:104820005091F8066EE370E090E080E00E94B71EC1
:1048300040E4481B09F457CF6EE30E94801A53CF1F
:1048400080915F01811124C080915B0120915A0108
:1048500096E1899FF0011124E05AFE4FE20FF11D0D
:104860006081613208F460E296E0299F9001112492
:1048700030938E0220938D02899FC00111240296ED
:104880009093900280938F0287E697E00E94ED1F3D
:10489000E12C02E020E44EE350E070E060E087E6C7
:1048A00097E00E94271E90CF80918C0280FFA0CFBE
:1048B00060E29ECF80918C0280FD6FE580913C028A
:1048C00036E0839FC0011124029620913D02239F70
:1048D0009001112430938E0220938D0290939002C8
:1048E00080938F0287E697E00E94ED1F80913D0242
:1048F00080935A0180913C0280935B018FCF8F920D
:104900009F92AF92BF92EF92FF920F931F93CF931C
:10491000DF93CDB7DEB7A1970FB6F894DEBF0FBE19
:10492000CDBF7C01FA01CB0119A2223008F42AE0A4
:104930008E010F5D1F4F822E912CB12CA12CBF0137
:10494000A50194010E946237F901CA016A304CF551
:10495000605DD8016E938D01232B242B252B79F7D5
:1049600090E080E0109761F0FD0101900020E9F7F0
:104970003197AF014A1B5B0BBD01C7010E94421674
:10498000A1960FB6F894DEBF0FBECDBFDF91CF91D9
:104990001F910F91FF90EF90BF90AF909F908F90DD
:1049A0000895695CD6CFAC01990F660B770B2AE0AE
:1049B00087E697E00C947F249F92AF92BF92CF92AC
:1049C000DF92EF92FF920F931F93CF93DF9380912B
:1049D0008902882309F44EC00E948B1982E290E07C
:1049E00090938E0280938D021092900210928F020B
:1049F00062E079E087E697E00E94EF1F80918702EE
:104A0000811103C08091890281110E949D228091B1
:104A10008A02882309F457C0A0908802C8E0D0E039
:104A2000F12C86E0E82E95E0B92E08E410E029E0AC
:104A3000922E8FE490E0FA1002C08BE490E0909305
:104A40008E0280938D02D0939002C0938F02EFEF7D
:104A5000EF0DE83088F50E2E000CFF0BEE5CFA4DE2
:104A60000C94A7374B257125802589259A25A325E8
:104A7000B225BD2580918A02882309F4BFCFE12C9D
:104A800008E324E348E050E06BE470E087E697E059
:104A90000E94271EB3CF8091D30284FBCC24C0F8A0
:104AA000D12C9C9CB0019D9C700D11246051774FBE
:104AB00087E697E00E94EF1F2696F39489E0F812AC
:104AC000B8CF10928A0210928902DF91CF911F9184
:104AD0000F91FF90EF90DF90CF90BF90AF909F909D
:104AE00008956091D3026F7070E06E5F7F4FC801D0
:104AF0000E949337CB010E94D32462E578E0D8CF9F
:104B00008091C9026EE478E0882391F265E478E050
:104B1000CFCF8091C902882309F43EC08091D5028D
:104B20008B9DC001112480579E4F0E94D32467E5BE
:104B300078E0BECF6091D4026370B69EB0011124BC
:104B40006F51774FB5CF6091D402862F837021F1DA
:104B5000669566956F7088E0689FB001112467586C
:104B6000774FA6CF6091D302629566956370E69EFB
:104B7000B00111246959774F9BCF0E94BE19882339
:104B800059F06091D30267FB662760F9E69EB00199
:104B90001124655A774F8CCF68E478E089CF2F9243
:104BA0003F924F925F926F927F928F929F92AF92BD
:104BB000BF92CF92DF92EF92FF920F931F93CF930A
:104BC000DF9300D000D000D01F92CDB7DEB7809128
:104BD0008902882309F40DC10E948B1920914F028C
:104BE000822F082E000C990B9A83898300E120E81C
:104BF00047E955E0BC0190E080E00E946B14E98138
:104C0000FA817396FA83E98302E415E0F80184914E
:104C10008B3181F165E170E0C8010E94DC367C01D6
:104C20006C01DD24282F3DEF3203C0011124805C8C
:104C30009F4F90938E0280938D0289819A819093E9
:104C4000900280938F02B80187E697E00E94EF1FE1
:104C50009FEFC91AD90A0C0D1D1D86E090E0E110E6
:104C600002C082E090E0E981FA81E80FF91FFA833F
:104C7000E983CCCF80914E02882309F4B8C06981C2
:104C80007A816E5F7F4F40E890E080E00E94622270
:104C90000AE010E010938E0200938D0289819A81C0
:104CA00006969093900280938F0266E375E087E604
:104CB00097E00E94EF1F8091D0029091D102A091C5
:104CC000D202AC016A2F70E02AE087E697E00E94EA
:104CD0007F2429813A81245F3F4F3A8329831093AF
:104CE0008E0200938D023093900220938F026CE22B
:104CF00075E087E697E00E94EF1FC090CC02D0904D
:104D0000CD02E090CE02F090CF02C701B60120ECB8
:104D10003BE443E050E00E94623729013A01C701B9
:104D2000B60120E13EE040E050E00E9462378CE3B3
:104D3000882E912CA12CB12CCA01B901A501940196
:104D40000E9462376B837C838D83392E262EC701A8
:104D5000B601A50194010E946237CA01B901A501FB
:104D600094010E9462376E83072F182F9F83262F8E
:104D7000B62E8CE490E090938E0280938D02898110
:104D80009A819093900280938F024114510409F00C
:104D900049C021105BC02A3028F460E387E697E021
:104DA0000E94ED1F2AE04E81502F612F7F8187E600
:104DB00097E00E947F246EE287E697E00E94ED1F55
:104DC000C701B60126E030E040E050E00E946237C3
:104DD000CA01B9012AE030E040E050E00E946237A9
:104DE000AB01BC012AE087E697E00E947F24109285
:104DF000890227960FB6F894DEBF0FBECDBFDF91B4
:104E0000CF911F910F91FF90EF90DF90CF90BF90C7
:104E1000AF909F908F907F906F905F904F903F905A
:104E20002F9008952AE0B301A20187E697E00E943F
:104E30007F246AE387E697E00E94ED1F99E09215D0
:104E400028F060E387E697E00E94ED1F2AE04B819F
:104E50005C816D81732D87E697E00E947F246AE371
:104E600087E697E00E94ED1FE9E0EB1528F060E38C
:104E700087E697E00E94ED1F2AE04E81502F612FB8
:104E80007F81B1CFFF920F931F93CF93DF938091D8
:104E90000001882381F10E9448228091D302CCEE48
:104EA000D3E084FF02C0C4ECD3E086E1F82E65E1D4
:104EB00070E0CE010E94DC368C0180913C028F9D17
:104EC000C0011124A801BE01805A9E4F0E94D33612
:104ED000C8010196C80FD91F80913C028F5F809353
:104EE0003C02012B21F710925E0110925D0110929D
:104EF0005C01109200018091D302982F9F709E5FF9
:104F0000909355011092540110925601109257013E
:104F100084FB222720F99093F5062093FA0610923D
:104F2000FB061092F9063FEF3093F60641E050E0A1
:104F30005093F8064093F70690934402209346025C
:104F4000109241021092400287FB992790F98295B6
:104F5000869583702093630721E0823009F020E07A
:104F60002093640781E098279093650780936607F4
:104F7000109262071092470210925F0180933F02E5
:104F80001092580110923E0280938902DF91CF91D6
:104F90001F910F91FF9008958091D30284FF56C016
:104FA0000E947B3624E630E040E050E00E9430373B
:104FB000FB01EE0FFF1FE258F94D2591349146E0B9
:104FC000429FC001439F900D112422EB30E23093A9
:104FD0004C0220934B029C0193E0369527959A95BD
:104FE000E1F7E0914B02F0914C02E20FF31F877062
:104FF0009F012F5F3F4F30934C0220934B02E4916F
:10500000F0E0082E02C0F595E7950A94E2F7F093D8
:105010004A02E093490298E0981B909348020E944C
:10502000A01A6091470280E492E00E948E211092C3
:10503000F9061092FB068FEF8093F60681E090E070
:105040009093F8068093F7060C94AC1C0E947B3674
:105050002AEF30E040E050E00E943037FB01EE0FD5
:10506000FF1FE657FB4D2591349145E0429FC0015B
:10507000439F900D112422EC3BE0A9CF10923D02FA
:1050800080913C028930A1F486ECE6E7F1E0A0E6ED
:10509000B1E001900D928A95E1F7E6E2F2E086E157
:1050A000DF011D928A95E9F781E0809389020895D6
:1050B0008F5F80933C02089590913D02E0913C0205
:1050C00026E1E29FF0011124E05AFE4FE90FF11DA5
:1050D00080839F5F90933D02953111F40C943E289C
:1050E0000895CF93DF938091CA02882309F456C0B4
:1050F0008091CB02813009F054C080E792E0909318
:10510000D7028093D602F999FECF4FE452E46EE4C1
:1051100075E180E792E00E9423378091D60290915A
:10512000D70204969093D7028093D602F999FECFC6
:105130006091D6027091D7024AE050E08CEC92E088
:105140000E940B37C091D602D091D7022A96D093F5
:10515000D702C093D6020E944B1BF999FECFBC0127
:10516000CE010E942B378091D6029091D7020296F1
:105170009093D7028093D602C091C90282E090E05A
:105180000E94F736C81729F06C2F82E090E00E9449
:10519000153782E08093CB021092CA02DF91CF9143
:1051A000089584E792E0BECF0E9471280E94931C6C
:1051B00081E080938B020895CF9383E080938B02EC
:1051C0000E94171B80918C0281111092860288E048
:1051D0000E94F5138823A1F00E94D42880918C02AC
:1051E000C0918B02882349F0815080938C028823E0
:1051F00011F0C33011F00E94FC1D8C2FCF91089547
:105200000E94191DC09188028091C902C43049F0E2
:105210008091D4028370C63021F0C830C1F40E945E
:10522000BE19811114C0209186028C2FCC0F990BCE
:10523000820F911D27FD9A95099669E070E00E9402
:105240009337C82F8093880281E08093870280E69D
:105250000E94F51320918502EFEFEC0FE83090F4F7
:105260000E2E000CFF0BE95CF64D0C94A7373F297E
:105270004B296E297A29B129C929E629022A8111E7
:105280000E94111D80918602882309F4A7CF81E036
:1052900080938A02A3CF2223A9F33091D302832FD4
:1052A0008F7090E0821B910927FD93950D966DE01C
:1052B00070E00E9493378F70932F907F982B90937C
:1052C000D302392F3D70393031F4821B8F70907FBB
:1052D000982B9093D3020E94E11CD4CF882391F2A3
:1052E0008091C902882319F00E948019F4CF0E948E
:1052F0008519F1CF9091C902992321F2222311F24D
:105300009091D50281111DC041E050E09B3110F415
:1053100050E040E061E070E0903510F470E060E053
:10532000460F571F61E070E0953810F470E060E0C0
:10533000460F571F440F551F4D5F5F4F249F202D71
:105340001124022E000C330BA901490F511DCA0173
:105350008F509F4F61EF70E00E9493378093D5028A
:10536000BACF882309F48ECF3091D402832F837073
:10537000422F220F550B840F952F911D039663E04A
:1053800070E00E94933783703C7F382B3093D402B7
:10539000A2CF3091D402832F837009F473CF2223DC
:1053A00009F470CF832F869586958F70422F220F38
:1053B000550B840F952F911D0D966DE070E00E94A6
:1053C00093378F70880F880F337CDFCF882309F4E1
:1053D00059CF4091D302342F329536953370822FB6
:1053E000220F990B830F911D039663E070E00E94DA
:1053F000933783708295880F807E4F79482B409336
:10540000D30269CF882309F43DCF0E94ED1C3ACF27
:105410001F93CF93DF93D82F80915F01882309F4E6
:10542000BDC080916307882309F4B1C080916207F1
:1054300090EA980F943320F4D03638F0D43928F419
:1054400081528F3330F4D13220F460E08AE00E9440
:10545000321980916507882309F48FC0D03608F48B
:105460008CC0D43908F089C080E78D0F823008F0F5
:105470006DC0E091620780EA8E0F843308F083C02C
:10548000E056FF0BE253FB4F1491812F90E023E095
:10549000959587952A95E1F7853089F1D03909F0FE
:1054A00072C02FEF280F233068F1809147028111DD
:1054B000AAC08091D0029091D102A091D20201960F
:1054C000A11D8093D0029093D102A093D20280912B
:1054D0005E018F5F80935E01883C40F480915C01A7
:1054E00090915D01813A9C4808F48DC00E9471281A
:1054F00010925E0110925D0110925C0184C0CAE0BE
:10550000D13909F0C9E01770C80F60E088E00E9447
:105510003219CD3059F560E087E50E94321960E01C
:1055200089E50E943219E12FF0E0EE5FFA4F849195
:1055300060E00E9432198FED8D0F8F3320F460E010
:1055400082E40E942019D09362071DC02D2F20569F
:10555000330BF901E253FB4FC4911C2F1770C69512
:10556000C695C695CD30B9F2CC23E9F2EC2FF0E028
:10557000E55FFA4F849160E0D4CF62E08D2F0E9406
:1055800032198111D8CFD13208F08FCF3CC062E000
:105590008D2F0E9432198111D6CFF5CFD83009F066
:1055A0005AC080913D02882391F1815080933D0241
:1055B00020913C02E0913D028E2F90E0422F50E07E
:1055C000FC0136E1239FE00DF11D1124E05AFE4F4E
:1055D0002081283269F41092F9061092FB062FEF11
:1055E0002093F60621E030E03093F8062093F7068A
:1055F00026E1249FF001259FF00D1124E05AFE4F73
:10560000E80FF91F1082DF91CF911F9108958091CB
:105610003C02882369F2815080933C0236E1839FEB
:10562000C001112424E150E040E0FC01E41BF50B33
:10563000E05AFE4F3489222359F04F5F5F4F6FEFDE
:10564000620F332319F020933D02B2CF262FEDCF06
:1056500010923D02ADCFDA3029F4DF91CF911F9146
:105660000C943E288D2F0E945C288DCFCF92DF9224
:10567000EF92FF92CF938091D302807629F081E060
:105680009091E002933009F080E090915F019817CB
:1056900079F080935F01882329F081E08093660789
:1056A0001092620780E28093590181E08093890221
:1056B00081E080934D020E94171B80913E02882357
:1056C00029F188E00E94F5138823E9F00E94AC1CC0
:1056D0000E941F366C01990FEE08FF080E94B41655
:1056E000C616D706E806F90631F06C257D258E250D
:1056F0009F250E94CA3680914D02CF91FF90EF9076
:10570000DF90CF9008950E94191DE2CFC0913F0213
:10571000CC2389F10E94781991E0811101C090E0B9
:1057200090933F0280915E01882349F080915C0153
:1057300090915D01019690935D0180935C01809151
:10574000CC029091CD02A091CE02B091CF020196F1
:10575000A11DB11D8093CC029093CD02A093CE02E7
:10576000B093CF0281E08093CA0280918C028F5F58
:1057700080938C02ADCF80914702882309F481C0C9
:105780008091400290914102892B09F460C080E42D
:1057900092E00E94A220C82F809158018C1739F006
:1057A000CC2309F4B9C00E948E1DC093580180918A
:1057B000F906C81709F4B3C0C093F9061092F606AB
:1057C000CC2309F4B5C08091F7069091F80690FFBC
:1057D000DCC081E08093F906C0914702CC2309F434
:1057E00020C10E947819882309F49CCF8091580128
:1057F000882321F00E94FC1D1092580184E00E9431
:10580000F513882309F40AC180915F018111F4C066
:105810008091F7069091F806019721F4C03211F0BB
:105820000E94A01A1092F9068FEF8093F60681E08D
:1058300090E09093F8068093F706809147028823C2
:1058400009F4D5C00E945C280E94A01AF6CF0E94DD
:10585000A01A60914702662329F080E492E00E943A
:105860008E219ACF1092F9068FEF8093F60681E091
:1058700090E09093F8068093F7068AE00E94082A49
:105880008BCFC0916C0780915601882319F081500D
:105890008093560180915401823051F480915601D9
:1058A000811106C0109254018091550180935601D8
:1058B00080915401811110C08C2F8074C5FF3BC1B1
:1058C000882329F080915701882309F437C181E0AA
:1058D000809354011092570180915401813091F4CA
:1058E0008091560181110EC082E080935401809115
:1058F000550190915701992319F0982F990F890F0D
:105900008093560180915401C2FBCC27C0F98230AC
:1059100009F042CFC1E040CF0E94FC1D46CF8091EC
:10592000F6068F3F19F08F5F8093F606C11134C0E1
:105930002091F60630E08091F50695E0899FA00160
:105940001124559547952417350709F042C00E9448
:10595000A313C82F813290F58FEF8093F60681E074
:1059600090E09093F8068093F7061092F906CC2306
:1059700009F432CF8C2F0E94082AC03209F42CCFB0
:1059800008F4C0E2C093590127CF880F991F909364
:10599000F8068093F7061DCF2091F50645E0249F79
:1059A00090011124359527958217130609F011CF20
:1059B0008091F7069091F8068160E9CF883221F452
:1059C00081E08093FB06CBCF893249F61092FB062B
:1059D000C6CF4DE0849FC001112495958795109204
:1059E000F9062817390709F0F7CEC0E2C3CF0E94A5
:1059F0003E2881E0809389020E94931C1092F90650
:105A00008FEF8093F60681E090E09093F806809304
:105A1000F7061092470280933F0284CE0E94DA1C60
:105A2000EDCF8091F7069091F806019709F07ACEB4
:105A30008091860287FF0AC01092F9068FEF80934B
:105A4000F60688E00E94082A0E94DA1C80E10E9483
:105A5000F513882381F01092F9068FEF8093F606F4
:105A600081E090E09093F8068093F7068AE00E9428
:105A7000082A0E94DA1C88E00E94F513882309F4A2
:105A800051CE1092F9068FEF8093F60681E090E0F8
:105A90009093F8068093F70680915C0190915D01E8
:105AA00080339A4240F00E94712810925E01109259
:105AB0005D0110925C0110927F026CEA7CE18DE442
:105AC00094E00E94C7196CEC77E28FE394E00E94A7
:105AD000C71966EB7CE181E394E00E94C71966EA8E
