:100000000C94E40E0C940C0F0C940C0F0C940C0F2D
:100010000C940C0F0C940C0F0C940C0F0C940C0FF4
:100020000C940C0F0C940C0F0C948A280C94F92847
:100030000C940C0F0C940C0F0C940C0F0C940C0FD4
:100040000C940C0F0C94D32C0C940C0F0C940C0FE0
:100050000C940C0F0C940C0F0C940C0F0C942B2B79
:100060000C940C0F0C940C0F0C940C0F0C940C0FA4
:100070000C940C0F0C940C0F0C940C0F0C940C0F94
:100080000C94752B0C940C0F0C940C0F0C940C0FFF
:100090000C940C0F0C940C0F0C940C0F0C940C0F74
:1000A0000C940C0F0C940C0F0C940C0F4D4F5245EC
:1000B000204953204E4F5420414C57415953204220
:1000C00045545445522E004D4F4E45592054414CF5
:1000D0004B532E0053544F4F5020544F20434F4EFC
:1000E000515545522E00444F4E275420435259201B
:1000F0004F564552205350494C54204D494C4B2E9D
:10010000004E4F2054494D45204C494B4520544802
:10011000452050524553454E542E004245545445B7
:100120005220544F2041534B2054484520574159A9
:10013000205448414E20474F204153545241592E9C
:1001400000544845204150504C45204E455645529C
:100150002046414C4C53204641522046524F4D20A0
:1001600054484520545245452E005448524F57207C
:100170004120535052415420544F2043415443484E
:100180002041204D41434B4552454C2E004C4F4F92
:100190004B4552532D4F4E20534545204D4F535400
:1001A000204F46205448452047414D452E00434F9F
:1001B000554E54204E4F5420594F555220434849D4
:1001C000434B454E204245464F52452054484559E1
:1001D0002041524520484154434845442E00535045
:1001E0004152452054484520524F4420414E44201E
:1001F00053504F494C20544845204348494C442EC5
:1002000000444F4E2754205445414348204649530B
:1002100048455320544F205357494D2E004C4541DB
:10022000524E20544F2057414C4B204245464F528E
:100230004520594F552052554E2E004F5554204FB2
:100240004620544845204D4F55544820434F4D4576
:1002500053204556494C2E0054574F2048454144A1
:100260005320415245204245545445522054484160
:100270004E204F4E452E00494E4E4F43454E43456E
:1002800020495320424C4953532E004556454E2099
:100290004120574F524D2057494C4C205455524EF7
:1002A0002E004120435245414B494E47204741547F
:1002B000452048414E4753204C4F4E474553542EFE
:1002C0000050454E4E59205749534520414E442039
:1002D000504F554E4420464F4F4C4953482E0057DF
:1002E00048494C45205448455245204953204C49E3
:1002F000464520544845524520495320484F5045D3
:100300002E00544845204C415354205354524157D9
:1003100020425245414B53205448452043414D45CE
:100320004C2753204241434B2E004C455420534C04
:10033000454550494E4720444F4753204C49452E90
:1003400000414654455220412053544F524D2043C2
:100350004F4D455320412043414C4D0041204652D2
:1003600049454E4420494E204E454544204953209E
:100370004120465249454E4420494E444545442E6D
:100380000054484520524F5454454E204150504C43
:100390004520494E4A5552455320495453204E4515
:1003A000494748424F522E0054484520504541434A
:1003B0004F434B2048415320464149522046454136
:1003C00054484552532C2042555420464F554C20FA
:1003D000464545542E00594F552043414E27542041
:1003E00045415420594F55522043414B4520414EE1
:1003F0004420484156452049542E00574F524453FB
:1004000020484156452057494E47532C20414E44E1
:100410002043414E4E4F542042452043414C4C45D1
:10042000442E0041205354554D424C45204D4947E0
:1004300048542050524556454E5420412046414C88
:100440004C2E00535452494B45205748494C4520A7
:100450005448452049524F4E20495320484F542E6E
:1004600000594F55204E45564552204D4953532073
:100470005448452057415445522054494C4C20542F
:1004800048452057454C4C2052554E532044525914
:100490002E00414E204F43434153494F4E204C4F75
:1004A00053542043414E4E4F542042452052454420
:1004B00045454D45442E004F4E452043414E4E4F3D
:1004C0005420505554204241434B2054484520432A
:1004D0004C4F434B2E0054494D45204C4F53542014
:1004E00043414E4E4F5420424520524543414C4CCF
:1004F00045442E0054484520504F542043414C4C15
:100500005320544845204B4554544C4520424C41BF
:10051000434B2E0050524556454E54494F4E2049AC
:100520005320424554544552205448414E2043558F
:1005300052452E004120574F524420544F205448DA
:100540004520574953452049532053554646494372
:1005500049454E542E004E45564552205350555253
:1005600020412057494C4C494E4720484F52534553
:100570002E004D414E592041204C4954544C4520A9
:100580004D414B45532041204D49434B4C452E0096
:100590004E4556455220444F205448494E4753201B
:1005A00042592048414C5645532E004E455645521F
:1005B000204A554447452042592041505045415218
:1005C000414E4345532E004556455259204D454412
:1005D000414C204841532054574F205349444553E0
:1005E0002E0054524156454C2042524F4144454EF4
:1005F00053204D494E442E004B4E4F574C454447D7
:100600004520495320504F5745522E0054484154DD
:100610002753204C4946452E004649525354204307
:100620004154434820594F555220484152452E00CD
:10063000412053544954434820494E2054494D4584
:10064000205341564553204E494E452E004C4F4FA6
:100650004B204245464F524520594F55204C45416D
:10066000502E004C494B45204641544845522C20C1
:100670004C494B4520534F4E2E004845204C415588
:1006800047485320424553542057484F204C41552A
:10069000474853204C4153542E004C495645204165
:1006A0004E44204C4554204C4956452E004E4F5444
:1006B00048494E47205345454B2C204E4F544849FE
:1006C0004E472046494E442E004E4F20414E535730
:1006D000455220495320414C534F20414E20414E1A
:1006E000535745522E005448494E4B20544F4441D5
:1006F0005920414E4420535045414B20544F4D4FBB
:1007000052524F572E00444946464552454E5420BA
:100710005354524F4B455320464F5220444946466E
:100720004552454E5420464F4C4B532E00534F20BC
:100730004D414E59204D454E2C20534F204D414E9A
:1007400059204D494E4453005748415427532044A3
:100750004F4E4520495320444F4E452E00534F4F96
:100760004E204C4541524E542C20534F4F4E204664
:100770004F52474F5454454E2E0057484F204B4E32
:100780004F5753204D4F53542C20535045414B53FA
:10079000204C454153542E00534554204120544889
:1007A00049454620544F204341544348204120545A
:1007B00048494546004120465249454E4420544F41
:1007C000204556455259424F445920495320412013
:1007D000465249454E4420544F204E4F424F4459B3
:1007E0002E00414C4C20434F5645542C20414C4C3C
:1007F000204C4F53452E00475241535020414C4C02
:100800002C204C4F534520414C4C2E005448452041
:100810004D4F5245204F4E45204841532C205448BF
:1008200045204D4F5245204F4E452057414E545381
:100830002E004E4F5448494E4720434F4D455320BC
:100840004F46204E4F5448494E472E00544F4F209C
:100850004641522045415354204953205745535453
:100860002E004D414B4520484153544520534C4F99
:10087000574C592E004841535445204D414B455348
:100880002057415354452E004120474F4F442042AA
:100890004547494E4E494E47204D414B4553204117
:1008A00020474F4F4420454E44494E472E0057485D
:1008B000454E20494E20524F4D4520444F20415334
:1008C0002054484520524F4D414E5320444F2E0056
:1008D0004C494B45204154545241435453204C49B8
:1008E0004B452E00574841542057494C4C20424517
:1008F0002C2057494C4C2042452E004D4F4E455917
:1009000020424547455453204D4F4E45592E004CEB
:100910004F564520424547455453204C4F56452E8F
:1009200000534F204D414E5920434F554E5452498C
:1009300045532C20534F204D414E5920435553547D
:100940004F4D5300544845204F4C4445522C2054A1
:1009500048452057495345522E004E4F204E45578B
:100960005320495320474F4F44204E4557532E00A4
:10097000534545494E472049532042454C49455629
:10098000494E472E00574845524520544845524548
:10099000275320534D4F4B452C2054484552452753
:1009A0005320464952452E004D494748542049534B
:1009B0002052494748542E00505249444520574937
:1009C0004C4C204841564520412046414C4C2E007D
:1009D0005345434F4E442054484F554748545320A5
:1009E00041524520424553542E004E4F2053574507
:1009F000455420574954484F555420535745415466
:100A00002E00464952535420434F4D452C20464911
:100A1000525354205345525645442E004541535994
:100A200020434F4D452C204541535920474F2E0020
:100A30004E4F5448494E472056454E545552454412
:100A40002C204E4F5448494E47204741494E45447B
:100A50002E004E4F205041494E204E4F20474149D5
:100A60004E2E004C494645204953205748415420BA
:100A7000594F55204D414B452049542E0045564570
:100A80005259204D414E204953205448452041524F
:100A900043484954454354204F4620484953204F2A
:100AA000574E20464F5254554E452E004954275319
:100AB000204E4556455220544F4F204C415445201E
:100AC000544F204C4541524E2E00424554544552FD
:100AD000204C415445205448414E204E45564552E5
:100AE0002E0046414954482057494C4C204D4F5602
:100AF00045204D4F554E5441494E532E004E4556BC
:100B0000455220505554204F46462054494C4C20C5
:100B1000544F4D4F52524F57205748415420434154
:100B20004E20424520444F4E4520544F4441592EBB
:100B300000434845415453204E455645522050529B
:100B40004F535045522E0050524143544943452083
:100B50004D414B455320504552464543542E00418C
:100B60004456455253495459204D414B4553204119
:100B7000204D414E20574953452E00474F4F4420AA
:100B800053454544204D414B4553204120474F4F4D
:100B9000442043524F502E0054484552452049535B
:100BA000204E4F20524F59414C20524F4144205427
:100BB0004F204C4541524E494E472E004641494C2C
:100BC00055524520544541434845532053554343CE
:100BD0004553532E00544845204649525354205300
:100BE00054455020495320414C57415953205448B3
:100BF0004520484152444553542E006C75776D662C
:100C00009063627F7B856F6A93006C6F6A8D7E8FC5
:100C1000637A6362746093006C84906C606B828F03
:100C20008990827F7B66748E9300618F6E68896E77
:100C300077809300686E777C7B627B6763636D90DF
:100C4000899300757B837062907B836893006E6CE0
:100C50006887636F6F688793007C74859079896F6C
:100C600079669089906E7793007C8E8C796D906018
:100C7000798D90637789746093007C7E6089638846
:100C80008E9093008C67628C677C9300876D756291
:100C90007465697E6A9300766D8966726F8573727A
:100CA000906D930088728090796F7D89608B7C7BDA
:100CB0007D82909300886D7582906F848B909300F5
:100CC00088607566686D9088607563746A93007D4E
:100CD0008262906D6061798B6E68836893007D7E1F
:100CE0006A6D906D67930064667E796D7A8C848FEF
:100CF00066909300656F796E808E90859300656F26
:100D00007482726491778C6D8E9077826290836F1B
:100D10006A93007F906F63898F89908693008B7CA4
:100D20007B7F908F6260727E8F63896D8E9093005F
:100D30008B797460668061637E7668626F6F699399
:100D4000008B66797F6888826C6D907F68747A8D7D
:100D500093008B6679776C848C896789908677801D
:100D60009063679300627C7A8562848F8C8F79664A
:100D70007B930062748989906E778E9062858589F5
:100D8000906E778E90930079708F637782907A89D6
:100D900093007966908C668E8590706290837284E1
:100DA0006B6C8E706A93007977836A6F6D6272875D
:100DB0006B6D7B8E93007380638062908F93007362
:100DC00080636D727A7F90899300697069848579F8
:100DD0006D8493006970828290836C9300696D6367
:100DE0007B8590930063666B7A778C79626072661C
:100DF0006B8C818E909300636690836A80666284B8
:100E00008F6690836A9300636D606D75877B908EAB
:100E1000689300747480618B907C7A8593007484ED
:100E20007E628B66796F8774758E9093007485727D
:100E300072756362679300746D90608C7963627DF4
:100E40006D706193007460718290627F706993002D
:100E5000668F82908B63606A74727976899300667C
:100E6000908F7B9068798D607B756590930066901C
:100E7000616490776B66758182746C6B7477930094
:100E80006675696F6985796D6C84908F6E77930054
:100E90006685626D7374689300667A7B79898F6A60
:100EA000606E68676D7B796F638F930066776F9074
:100EB000608C667B7589930082906A7B6062776F35
:100EC000706A93007285668E7264918F9300726867
:100ED0007A66896F846D74627A7A85609300676838
:100EE0008C728C7062907C7D66746A9300678677E2
:100EF0007E908F888863846D757793006F746D75AD
:100F000064906F8C6793006F906062896E776B6DF1
:100F1000736A9300718F8982667B666A93008D8FF6
:100F2000687988678C607264916D7593008D908F7D
:100F30006260717E9093008D636275626D817570E1
:100F40006993008E8E90878B7C7B7D82907A6690F1
:100F5000686C8E708E9093008E85906F6A62747A42
:100F60007A6E629084906A6D908090668993008E0C
:100F70008580718C797989906E778E9074709300EA
:100F80008975696D9064667E93008986637D89901A
:100F90006C706290836D7B746A9300897C6D638D45
:100FA000726491779300896F8985746D638C70602A
:100FB000859083689300848F638F6E7062908C8FAE
:100FC0008990867967819300846C75696D88636FF9
:100FD0006F6874899300846A8C856D757A676A93EB
:100FE0000080777C79896162906D7D930080776461
:100FF0009077638C7F829079837C7D689300807783
:101000006D608485636F6F8E9093007E90606288C0
:101010006B6F8E7E6A9300857B62607266857962F3
:101020008990856D69626072896E77796289909323
:101030000085608280907B757B8882899080907B20
:1010400093006D6C60608063626F8B906B848D6EBB
:1010500093006D877980776E6866897980779300D1
:101060006D726291796D6C746D907093006D6060BB
:101070006963826B6D7D706A93007A7C7980806190
:101080008089758E9093007A8B90638889906D89A2
:101090006F8E8563746D908993007A63636D746459
:1010A000907793007A776F80637A898175706A93FD
:1010B00000818F79896F79676D758C679300818B5B
:1010C0009082906F606B726A9300777D79888863F5
:1010D000738F7F90729300777A80908061837062C3
:1010E00090888E908090806193006079746D796DA6
:1010F0006C8E906F606D606B89758E9093006079D7
:1011000067837282798C796F9073930060698C83A6
:101110006A7E629064907763836F6A930060716DFA
:101120009062907D6C70930060896290896B6F6FA4
:1011300060826C6F6A93006089797781638C848F99
:10114000738F9300838F8E906A6E6877766D907C34
:101150008E899300837F90626766758E909300837B
:101160006662796674707C7D6674709300836F7DAF
:101170006D7B898289686D7B848E9093000100521B
:10118000000000005E366D002A736155323F2F2744
:1011900023212030383C3E78000031004C5A05189D
:1011A0001A0C02120E1004170D1407060F161D0A52
:1011B000080309110B191B1C000000404D051518F0
:1011C0001A0C0224120E1036170D1407060F1E16E5
:1011D0001D0A080309291328110B191B1C1F372B83
:1011E0003B35343331253A2C39322E3D2A04262D15
:1011F000550000000000700100C0000C00CAA77C70
:101200000A42F55508534248195EF5511200300064
:1012100000002345004094180014F3190504F1114F
:1012200004200400000441100400040000104208DF
:10123000015E14450F40F001005955551351555D9D
:101240000D8C927C085755550D5E55550D51520C1D
:10125000015E55550F5655550F00A0000000A40023
:101260000000C228008AA2280A8062080040500DAF
:10127000005E7455079C92241F5F555D0D9C1445BC
:10128000115F1425075F5555115F5114015E5455C8
:101290001D1F41101F40F44500100421071F411875
:1012A0001D1F0441105EF0041F9C10041F5E544576
:1012B0000F5F9214035ED4451F5F92341B56555541
:1012C0000D41F005011F0421071F4208011FE441E1
:1012D0000F1743181D07C1090151564D1100F04564
:1012E0000000F0010040F4010080100C00100441E7
:1012F0001004E109015F14451F1C10081C5014451F
:10130000109AF0091A844020101F41200844F51457
:1013100004C001410F519554131EF0410C45515525
:101320000F4314450FD223481E5155551FC4545521
:101330000F1F042104810421070334210792B229DD
:101340001682F408024455550C9C14411886344901
:101350000E8AA37C0A00841C0092627C02C41045A1
:101360000FC227080641915403C4243902411425B1
:10137000075114451F50F4451044D5140441F4148A
:1013800003C2213D028AF2290A51147D1010A410D3
:101390000B415555105505210451F455138F24491F
:1013A00012C5535510C223491651522C1051042115
:1013B0000403300000422100000241100400020139
:1013C00000050115012501370149015D0172018800
:1013D000019F01B801D201EE010B022A024B026EFD
:1013E000029302BA02E40210033E037003A403DC7A
:1013F00003160454049604DC0426057505C805206C
:10140000067D06E0064807B7072D08A9082D09B98B
:10141000094D0AEA0A900B400CFA0CC00D910E6FB0
:101420000F5A1053115A1272139A14D315201780A1
:1014300018F519801B221DDE1EB420A622B524E457
:10144000263429A72B402E0031080809090A0B0B66
:101450000C0D0E0E0F10111213141617181A1B1D57
:101460001F20222427292B2E3134373A3D4145496C
:101470004E52575C62686E747B838A939BA5AEB9AB
:10148000C4CFDCE9F7000102030406080C00F4F8FD
:10149000FAFCFDFEFF8C926A8E207F809077207090
:1014A0008F898677850028412920876386920028C6
:1014B000422920898F809077207A8F00004D4F52EB
:1014C000534520434F444520545241494E45520014
:1014D000284129204D454E5500284229205349478F
:1014E0004E414C204F4E0000435245444954005356
:1014F000455454494E475300434F4445204C4953AB
:101500005400434C45415220434F4E534F4C4500ED
:10151000464F5254554E4520574F52445300434F67
:101520004E54494E554500FC747474747474FC0038
:1015300000000000000000000000FF0101010101A7
:1015400001010101010101010101010101FF003F50
:10155000242EE4E82C243F000000000000000000DE
:101560000000FF80808080808080808080808080FC
:101570008080808080FF00000000030302020202DE
:101580000202020202725A56525154565254565294
:1015900054565254565254567228140A05030001E8
:1015A0004428212C2B1C194122424C48083C18434A
:1015B000141A23204032026924040A38300B2A0C02
:1015C000031B0010093A3331116B29341312250023
:1015D000000607414955454F4E2D2C00304B5354C2
:1015E0004E484D595257475A4458425000D50BBCAB
:1015F0000B980B7B0B5F0B470B310BFD0AE20ACA02
:101600000AAC0A7D0A630A520A300A1C0A020AEA74
:1016100009D009B809A809850970095A094409219E
:10162000090F09FB08E408D008AE088808750862AD
:10163000084C0832080C08F707E207B50798077A44
:10164000075D0748072D070607E606C906AD069A97
:10165000067A0663064D06300619060C06F805E202
:1016600005C705AB0590057205560534051405F44C
:1016700004D604B7049204610443042304FB03D694
:1016800003A80381035C0341032A030203DF02C1B1
:1016900002A2028B02770258023B021D020102DE07
:1016A00001AE018D016A0141011B010101E600D477
:1016B00000C700AC006D115F11541144113711289F
:1016C000111D110C11FE10EA10D710CA10BE10B176
:1016D00010A4109A1087107A106D106010521042EA
:1016E00010311017100B10FE0FED0FE10FD60FC8C1
:1016F0000FB60FA60F9B0F8A0F800F6F0F580F4367
:101700000F370F2D0F1E0F140F070FFC0EED0EDEFF
:101710000ECE0EC40EB80EAC0E990E900E800E6E4C
:101720000E5F0E500E450E370E2D0E1E0E130E07B9
:101730000EF70DE50DDD0DD40DCA0DBF0DB60DA7CD
:101740000D920D870D730D650D520D410D300D1E5F
:101750000D130DFE0CF40CE70CDE0CCF0CC00CB519
:101760000CA40C970C8C0C840C7A0C690C590C4E44
:101770000C430C340C2A0C180C0A0CFB0B43414E86
:1017800043454C004F4B00504C41592054494D4566
:10179000004D41444520434841525320004E4F568E
:1017A000454D42455220323032320050524F47525E
:1017B000414D4D4544204259204F424F4E4F00006D
:1017C000544849532050524F4752414D20495300ED
:1017D00052454C454153454420554E4445520054D2
:1017E0004845204D4954204C4943454E53452E0011
:1017F0001B00FFFF3CF0C000C0F03CFFFF00C0E05A
:10180000703070E0C000F0F0C060303000E0F0B048
:101810003070600000C0E0703070E0C00000FCFE7E
:10182000070303071E1C00C0E0703070E0C000C05A
:10183000E0703060FFFF00C0E0703070E0C0000377
:101840000303FFFF03030300F0F0C06030300060CB
:1018500070303030F0E00000F3F30000F0F0603062
:1018600030F0E000C0E0703070E0C000F0F0C06028
:101870003030BFBF80008787870000BFBF800F9FC9
:10188000B8B0389F8F803F3F800080808018B93388
:1018900033BF1E8C008F1F3BB3333B1B00008F9F59
:1018A000B830B0389E8E800F9F3830B89F8F008F31
:1018B0009FB83098BFBF000F9FBBB333BB1B8000E6
:1018C00000803F3F00000080BFBF00008000809E7E
:1018D000BF33B31B3FBF0080BFBF0000BF3F8000CE
:1018E00000BFBF800F9F3B33B33B1B803FBF808057
:1018F00000805B434F4445204C4953545D002829E8
:101900002E2C3A3F272D28292F3D2B22405E5F4F5A
:10191000424E2D5931352056455220302E3130005F
:10192000C0C6CFDFFFFB73037CFEFFC7E3FF7F3E34
:1019300000FFFFFF1B1B1B03000303FFFFFF03034D
:101940000000000000000000808080800000000097
:10195000000000000000000080E0F058AC56AB55DD
:10196000AB5500FF01010102020408106080000075
:101970003FFFAA55AA55AA55AA55A85FAC5CAC5C16
:10198000AC5CAC5C0CCF3C0000000103060D1A15EA
:101990002A252A252A252215120904020100000001
:1019A000FFFF57AB57AB57AB57AB03FF80808000AF
:1019B0000000000000000000FFFF55AA55AA55AA2C
:1019C00055AA00FF000000010102040830C0000019
:1019D0001F7FD5AA55AA55AA55AA54AF56AE56AEE2
:1019E00056AE562E86671E000000000103060D0A43
:1019F000151215121512110A090402010000000047
:101A00000000000000008080C0C0C0C08080800056
:101A10000000000000000000C0F078AC56AB55AAF2
:101A200055AA00FF000000010102040830C00000B8
:101A3000FFFF55AA55AA55AA55AA00FFFEAE56AEFD
:101A400056AE56AE5607FE001F1715121512151288
:101A50001512101F171215121512151215101F004E
:101A6000494D45204D4F4445004B4559424F415249
:101A700044004C454420434F4C4F52004C454400D9
:101A8000544F4E45204652455100534F554E440049
:101A90005350454544004D4F444500455849540076
:101AA0004F4E00284E2F4129004F464600205750E8
:101AB0004D0020485A00524F4D414E004B414E417F
:101AC00000004E4F4E4500005553313031004A5012
:101AD0003130360052454400000000004F52414E64
:101AE0004745000059454C4C4F570000592D47526F
:101AF00045454E00475245454E000000454D455274
:101B0000414C44004359414E00000000415A555297
:101B100045000000424C55450000000056494F4C1E
:101B2000455400004D4147454E5441004352494DF4
:101B3000534F4E0057484954450000004F46460059
:101B4000004C4F5700004849474800414C5048411D
:101B5000424554004A4150414E455345005B534570
:101B60005454494E47535D00080B00020202000026
:101B700009040000010202000005240010010524F0
:101B80000101010424020605240600010705810362
:101B900010004009040100020A00000007050202CB
:101BA00040000007058302400000040309041201FD
:101BB0000002EF02014041233680000101020301CF
:101BC00041726475696E6F204C4C430041726475BC
:101BD000626F7900D5F08D14A1C881CFD9F1AF2003
:101BE0000000000000240027002A002D0030000023
:101BF000000000250028002B002E00310004080200
:101C00000110408040102040804080080204018084
:101C100040201002011080102040402004040404E1
:101C20000403040502020202040302020202060681
:101C30000606060604040202020404000000000076
:101C40000000032150A0159715171B4B2202266A8E
:101C50001EC815C01C011C4515A523E51FE2155F14
:101C600018D8202C5E7460616264346667656E36D5
:101C70002D3738271E1F2021222324252673337653
:101C80002E77785F0405060708090A0B0C0D0E0F66
:101C9000101112131415161718191A1B1C1D2F31A9
:101CA00030636D0835090C2D2E16040F1E3767277B
:101CB00017261433061D3618123121000E230B246B
:101CC0000D341F05221A201B0A2538110700191090
:101CD00013151C2F306D76225F2663276428652933
:101CE000662A742B733A343D6D402F5E2E5FC761B8
:101CF00087763292895229540A55936D2800004004
:101D00005E4C3F4D5F5222552E5A405E27612D6D2D
:101D100029732C783A00000000455449414E4D5338
:101D2000555257444B474F485646004C00504A4284
:101D30005843595A51000035340033000000320036
:101D4000002B0000000031363D2F00000028003736
:101D5000000000380039300000657690606F6E75C5
:101D600077747C646C6870697B67796D61726B6293
:101D70007D637E7F73718035340033668891327A5B
:101D8000788F828A928D3136878C8685846A8137F6
:101D90008B8983388E393005010906A1018502053A
:101DA0000719E029E71500250175019508810295BD
:101DB000017508810395067508150025FF050719AB
:101DC0000029FF8100C0AF2D11241FBECFEFDAE044
:101DD000DEBFCDBF11E0A0E0B1E0E2E5F5E602C074
:101DE00005900D92A834B107D9F727E0A8E4B1E037
:101DF00001C01D92A936B207E1F71EE0C4EEDEE095
:101E000004C02197FE010E948D32C33ED107C9F75D
:101E10000E94142E0C94A7320C9400008091F306BB
:101E20009091F4062091F60680349105E0F4222387
:101E300031F03091F706E7E5FDE1332311F0E7E1FA
:101E4000FDE1E80FF91F8491222349F19091F706F3
:101E5000992329F190ED980F9A3008F19FEB980F94
:101E60009A31E0F408958038910588F4E5EFFCE1BB
:101E7000211102C0EFEFFCE12491222379F0281711
:101E8000190619F43196849108953296F5CF2111EF
:101E900005C08115914011F488E0089580E008950F
:101EA000E1EFF2E080E0A0E0B8E000800EBC81113C
:101EB000012C1197A0FDFDCF0192B9F70DB4089543
:101EC0002091670730E0209530954091680750E0F9
:101ED0002423352390E02823392381E0232B09F4A0
:101EE00080E00895CF93DF93DC0177FF13C02227B2
:101EF0003327261B370B842F042E000C990B281731
:101F000039072CF4460F70E060E0141644F0DF91BE
:101F1000CF9108951416DCF760347105C4F7A0382A
:101F2000B105A8F7262FCB01840F911D47FD9A9587
:101F30008134910514F040E4461B27709FEF022E78
:101F400001C0990F0A94EAF7420F621B710977FFEB
:101F500002C0695F7F4F83E0759567958A95E1F7C9
:101F6000FB01F695FE2FEE27F795E795EA0FFB1F8D
:101F7000EF50FD4F28E030E06FEF70E014163CF6B4
:101F8000483064F4D901A41BB10947FDB395EB01B6
:101F900002C0D595C795AA95E2F79C238081982B1E
:101FA00090834850E058FF4F9FEFE8CF4F925F92E9
:101FB0006F927F928F929F92AF92BF92CF92DF9259
:101FC000EF92FF920F931F93CF93DF93FB01E00FEC
:101FD000F11D1E161F060CF08AC0603471050CF04E
:101FE00086C0DB0177FF04C0AA27BB27A61BB70B5F
:101FF000A770BB27EB0177FD2796E3E0D595C79542
:10200000EA95E1F777FF07C0219768E070E0FB01F0
:10201000EA1BFB0BDF0130E0069506950695802E46
:10202000912C8A01AE015695542F44275795479518
:10203000480F591F4F505D4FBE01E0E8F0E07F01AF
:10204000E81AF90A88E090E03C016A1A7B0A6F3FBF
:10205000FFEF7F070CF43BC090E080E05A01E0E81E
:10206000AE0EB11C6F3F760709F452C0FC01E00FC1
:10207000F11FE4916A01C80ED91EF0E02F010A2E6B
:1020800001C0440C0A94EAF7F601508045284082CA
:102090001097B1F06730710599F0F801E80FF91F5A
:1020A000E4916501C80ED91EF0E02F01062C02C094
:1020B000559447940A94E2F7F601508045284082EF
:1020C0000196821793071CF4E816F90659F66F5F1C
:1020D0007F4F020F131F40585F4FCB018C1B9D0B8E
:1020E0008815990524F46830710509F0B0CFDF91A7
:1020F000CF911F910F91FF90EF90DF90CF90BF9005
:10210000AF909F908F907F906F905F904F900895C9
:10211000109709F0C2CFD4CFFC018091DF02882351
:1021200011F13FB7F89482E08093E9002091F2002A
:10213000822F90E01816190614F481E090E08823AD
:1021400039F0289844E64093DE024091F100408344
:10215000222339F02091F200211103C02BE62093B5
:10216000E8003FBF08958FEF9FEF0895CF93DF936F
:102170001F92CDB7DEB76983DC01ED91FC9102803F
:10218000F381E02D41E050E0BE016F5F7F4F099584
:102190000F90DF91CF91089583E08093E9008091C3
:1021A000F200882319F08AE38093E8000895CF9322
:1021B000DF931F92CDB7DEB7FC018485958597FD2F
:1021C00008C02FEF3FEF358724870F90DF91CF9125
:1021D0000895CE0101960E948C10019719F489810F
:1021E00090E0F3CF8FEF9FEFF0CF0F931F93CF933C
:1021F000DF931F92CDB7DEB78C01FC0184859585F6
:1022000097FF0BC0CE0101960E948C10019771F4CC
:10221000898190E0F80195878487F8018485958508
:102220000F90DF91CF911F910F9108958FEF9FEF46
:10223000F1CFFC018485958597FD0BC09FB7F8947D
:1022400082E08093E9008091F2009FBF90E00196C8
:1022500008959FB7F89482E08093E9008091F2009E
:102260009FBF90E008958091C50208954091B90202
:102270005091BA022091B7023091B8024217530729
:10228000B4F49091E8009570E1F39091E80092FD2C
:1022900019C08093F1008091B9029091BA02019621
:1022A0008F739927892B19F48EEF8093E800809122
:1022B000B9029091BA0201969093BA028093B90242
:1022C00081E0089580E00895DF92EF92FF920F93EE
:1022D0001F93CF93DF93D82E8A01EB017B01E40E8D
:1022E000F51ECE15DF0559F0D7FE12C0FE01849110
:1022F0000E94361121968111F4CF0FEF1FEFC80114
:10230000DF91CF911F910F91FF90EF90DF90089593
:102310008881EECF2FB7F89487708093E900909171
:10232000E800892F807295FF04C09091F20080E44C
:10233000891B2FBF089583E00E948A1190E00895C1
:10234000615030F02091F100FC0120830196F8CF1C
:10235000289884E68093DE020895AF92BF92CF92D0
:10236000DF92EF92FF920F931F93CF93DF936C0155
:102370007B018B01040F151FEB015E01AE18BF0836
:10238000C017D10759F06991D601ED91FC910190E8
:10239000F081E02DC6010995892B79F7C501DF9100
:1023A000CF911F910F91FF90EF90DF90CF90BF9052
:1023B000AF9008958091AF0281110DC082E08093AB
:1023C000AB0284E08093AC021092AE021092AD0298
:1023D00081E08093AF028BEA92E008950F931F9300
:1023E000CF93DF931F92CDB7DEB782E0898342E4BB
:1023F00050E068E67BE180E80E9464110E94DA11F7
:10240000DC0112960D911C910115110589F0D8017E
:10241000ED91FC910280F381E02DBE016F5F7F4F53
:10242000C801099597FD04C0F80100851185ECCF1E
:1024300089810F90DF91CF911F910F9108953FB740
:10244000F8948091A7029091A802A091A902B0915E
:10245000AA0226B5A89B05C02F3F19F00196A11D21
:10246000B11D3FBFBA2FA92F982F8827BC01CD01DE
:10247000620F711D811D911D42E0660F771F881F3D
:10248000991F4A95D1F708958F929F92AF92BF926C
:10249000CF92DF92EF92FF926B017C010E941F129C
:1024A0004B015C01C114D104E104F104B9F00E94B4
:1024B0001F12681979098A099B09683E73408105D2
:1024C000910580F321E0C21AD108E108F10888EEF5
:1024D000880E83E0981EA11CB11CE4CFFF90EF9002
:1024E000DF90CF90BF90AF909F908F9008957F9294
:1024F0008F929F92AF92BF92CF92DF92EF92FF9214
:102500000F931F93CF93DF93C82E8B017A01809195
:10251000DF02811110C08FEF9FEFDF91CF911F91EC
:102520000F91FF90EF90DF90CF90BF90AF909F9072
:102530008F907F9008958091BD0280FF05C08091AB
:10254000E00082608093E000CE2DDF2DD12C8AEF59
:10255000B82E8C2D8770982E8C2D8072882E8C2D05
:102560008074782E9AE3A92E209719F4DD2009F4BF
:1025700052C08C2D0E948A1181110AC0BA94BB20CE
:1025800051F261E070E080E090E00E944412ECCFF4
:102590008C171D0611F00CF08C2F9FB7F8949092B9
:1025A000E9002091E80025FD02C09FBFDDCF282F64
:1025B00030E0C21BD30B882029F08150A0F010928C
:1025C000F100FBCFF801C7FC0AC0815050F04191E7
:1025D0004093F100FACF44914093F100319681503D
:1025E000D0F7020F131FDD2021F0A092E800D12CBC
:1025F000DCCF8091E80085FD07C0A092E800DD24D3
:10260000D394209791F2F3CF209779F6772069F24F
:10261000A092E800CACF5D9884E68093BC02C7010F
:102620007CCFEF92FF920F931F93CF93DF931F9274
:10263000CDB7DEB77C0182E0898341E050E0BE0186
:102640006F5F7F4FF70183810E9477128C0197FDA6
:102650000DC0F701838148E050E066E577E08064D3
:102660000E947712080F191F97FD8C01C8010F9067
:10267000DF91CF911F910F91FF90EF900895CF932D
:10268000DF93EC0180911501882331F083E00E94F3
:1026900077121816190634F081E090E09B838A8344
:1026A00080E090E0DF91CF910895DC01FB0112966C
:1026B0002C911297848195812817190641F49181F4
:1026C0008081813A31F49D7F81E0913009F080E092
:1026D00008958132E1F79B3029F482811F968C9313
:1026E00081E008959A3099F7828150968C93F8CFC3
:1026F000DC01FB0188E4808389E4818384E48283B4
:102700001D969C911D979F709F5B93831D968D9145
:102710009C9124E0969587952A95E1F78F708F5BC1
:10272000848385E00895EF92FF920F931F93CF93D8
:10273000DF93FB012081213871F52381223259F585
:10274000DC0112964C91248135814217130619F54C
:10275000EC010B851C85F12CE12C0115110589F08C
:10276000F801448155816281738180E80E9464117F
:102770008F3F980749F0E80EF91ED8010D911C9182
:10278000ECCF81E08F87C701DF91CF911F910F912F
:10279000FF90EF90089590E080E0F6CFCF93DF9325
:1027A000CDB7DEB769970FB6F894DEBF0FBECDBFC9
:1027B000FC01DB018C918F5F8C939E012D5F3F4F5D
:1027C0008DE0D9011D928A95E9F729E0298384E0FB
:1027D0008A8391E09D8383E08E832A8721E22B8781
:1027E0009C879D879F8722E2288B27E02B8B25E003
:1027F0002C8B8E8B20E430E0388F2F8B998F828149
:102800008B8395858685998B8A8B838180688D8B58
:1028100049E150E0BE016F5F7F4F80E00E9464118C
:1028200069960FB6F894DEBF0FBECDBFDF91CF9192
:102830000895CF93DF9380919E02811167C081E05C
:10284000809391028093920227E932E030939402C0
:1028500020939302109296021092950222E231E0A8
:1028600030938E0220938D0210929902109298025A
:1028700010929B0210929A0280939C0280939D0278
:1028800081EC809397020E94DA11FC018181909182
:102890009102482F490F5527551F483051059CF587
:1028A000A281B381109709F52DE832E033832283AA
:1028B000208120938F028093900280919202820F58
:1028C000808320919302A22FB09194028A2F821BC1
:1028D0008917C8F481813D91C82FD0E0CE5FDE4FCB
:1028E00038838F5F8183F2CFD90118962D913C9167
:1028F000199721153105C1F72DE832E019963C935F
:102900002E931897D5CF81E080939E028DE892E0B8
:10291000DF91CF910895CF93DF93C6E5D7E08A8307
:1029200068830E9419140E9411131A8218820E944F
:102930001914DF91CF910C941113883009F43AC027
:102940008A3009F439C090EE980F9437A0F4909132
:102950006007992339F0813480F095E0EBEEFCE1DB
:102960008E3570F4282F2052330BF901ED59F34EB8
:10297000E491E1110EC080E008959AE0E7EDFCE1FA
:10298000915080F32491821313C03196E491EE2389
:1029900049F32E2F2F7BE295E695E27081548A3120
:1029A00008F4E62B6E2F822F0E948B1481E008958D
:1029B0003296E6CFEAE2EDCFE8E2EBCFBC0190E061
:1029C00080E00C9444128FB18095807F669B886074
:1029D0001C9B846008951092C5023E983F9808950C
:1029E0003E9A3F9A81E08093C502089580E0E1EF2E
:1029F000F2E081118FEF0024819381938193819381
:102A00000394D1F710928C0210928B0210928A02DA
:102A100010928902089580389105B8F460347105E8
:102A2000A0F420E191E061FD94E060FD990F62FD6A
:102A30009295687F269FD0011124A80FAF50BD4FFB
:102A40008C9140FF03C0892B8C9308959095892326
:102A5000FBCF9091CF0294FF03C0907681E009F400
:102A600080E008959C0190917B0299306CF484E0A1
:102A70009802F0011124E95AFD4F338322837183B8
:102A800060839F5F90937B02089510927B026DE9B3
:102A900073E28BE99AE10E9432156AE178E186E9F6
:102AA0009AE10E9432156CEF78E180E99AE10E9488
:102AB00032156CEF78E18AE89AE10E9432156CEFEA
:102AC00078E180E89AE10E9432156CEF78E18CE7BA
:102AD0009AE10E9432156CEF78E182E79AE10E9458
:102AE000321562E078E189E69AE10E94321566EFDC
:102AF00077E180E69AE10E94321587E080938002B8
:102B000088E080937F0280E480937E0285E3809357
:102B10007D0210927C021092840281E080938302F5
:102B20001092880280938502809386020895909186
:102B3000880291509093880281E0911180E008957D
:102B400088E78093880208956623A1F0843310F407
:102B5000805A0895E82FF0E08E3340F4CF01C397F8
:102B60006AE070E00E947932805D0895E054F74E8B
:102B7000849108958A3110F48F5B0895E82FF0E076
:102B8000843218F4CF014997EBCFE452F74EF0CFDF
:102B90008091CF0284FB222720F9EDE4F2E0982F08
:102BA0009F709E5F9483268311821082109254023C
:102BB000109256022093550210924C0281E08093AD
:102BC0008502089510924A0287E080934B0281E0CB
:102BD0008093850208954150962F977031E001C08F
:102BE000330F9A95EAF766956695669590E8699F22
:102BF000B00111248F5F860F972F911D8F509D4F2D
:102C0000FC012E2F281B241728F42081232B20833E
:102C10003296F7CF0895982F26E030E0281B31092F
:102C200087FD33958EEF890F1216130614F08AE094
:102C3000891B833014F082E0089587FD80E00895B9
:102C4000109282021092810280916807982F907FE3
:102C500041F1909153019F5F94310CF59093530192
:102C600090915301913011F09F30E9F485FF03C03A
:102C70009FEF9093810286FF05C0909181029F5F34
:102C80009093810287FF03C09FEF9093820284FF9D
:102C90000AC0809182028F5F8093820208959FE034
:102CA000DDCF109253010895E8ECF2E020813181EC
:102CB00045E0429FC001439F900D11244281538102
:102CC00067E0649F9001659F300D1124820F931F70
:102CD000875C9D474481558169E0649F9001659FB1
:102CE000300D1124280F391F468157816BE0649FF6
:102CF000C001659F900D1124820F931F408551855F
:102D00006DE0649F9001659F300D1124820F931F29
:102D10000895CF92DF92EF92FF920F931F93CF937C
:102D2000DF93082F142F469FE001479FD00D1124F9
:102D3000F12CE12C60E074E284EF90E0A7019E01A9
:102D40000E941632215031094109510991E02115A3
:102D5000310581E0480751056CF060E970ED83E0D2
:102D600090E0A7019E010E941632215031094109CD
:102D7000510993E0013059F00330F9F0DF91CF9120
:102D80001F910F91FF90EF90DF90CF9008951093D7
:102D9000480180918100887F892B80938100309346
:102DA0008900209388001092850010928400809101
:102DB0006F00826080936F00E1CF10935201D09337
:102DC0004E01C0934D0180919100887F892B8093A3
:102DD00091003093990020939800109295001092E2
:102DE000940080917100826080937100C7CF81113F
:102DF00016C01092EA028091E00281110AC080910F
:102E0000C202E091C302F091C402908180958923AF
:102E1000808342E064EF71E083E00C948916809136
:102E2000E502811110C080916F008D7F80936F004B
:102E30008091BF02E091C002F091C1029081809523
:102E40008923808308950895EF92FF920F931F9333
:102E5000CF93DF93EC019091F002992309F465C0C0
:102E6000F42E8B01913071F48091EF02882351F0A0
:102E70008091EE02841708F458C080E00E94F71693
:102E80001092EF02E091EC02F091ED020995EE2430
:102E9000E3948E258093EB0230E020E0A9019801B5
:102EA000220F331F441F551FDE010E9435326C5024
:102EB0007E4F8F4F9F4F28EE33E040E050E00E945E
:102EC00048328091F0028130A9F48093EA02209385
:102ED000E6023093E7024093E8025093E90283E070
:102EE00042E0BE01DF91CF911F910F91FF90EF90D3
:102EF0000C948916E092E5022093E1023093E202FD
:102F00004093E3025093E4028091EF02882351F052
:102F100081E09091EE029F1508F480E08093E0023A
:102F200081E0DECFF092EE02FBCFDF91CF911F91D7
:102F30000F91FF90EF9008954FEF64E170E08BE404
:102F400092E00C9424170E949C1784E0809349021D
:102F500008950E949C1783E08093490208950E947F
:102F60009C1782E08093490208950E949C1781E09B
:102F700080933F0210923E028093850208950E9442
:102F80009C1710927B0267E67DE184E897E10E943E
:102F9000321565EB77E18DE797E10E94321588E203
:102FA0008093800282E280937F028FE280937E0290
:102FB0008BE080937D0281E080937C028093840289
:102FC0008093830208954FEF6AE070E088EB91E010
:102FD0000C94241780918802811102C00E94E3178B
:102FE00081E0809386028093C60208950E9429158D
:102FF000882339F08091CF0280588093CF020C94BF
:10300000EA1708958091CF0282958695837090E0AB
:10301000049663E070E00E947932ECECF2E0837099
:10302000982F9295990F907E83818F79892B838336
:103030000C94EA17EFECF2E0808190E1892780831D
:103040000C94EA17E0918202EE2339F14091840258
:1030500020917B02022E000C330B0E2E000CFF0B76
:10306000CF01840F911D47FD9A95820F931FB901DF
:103070000E947932482FDC01AA0FBB1FAA0FBB1F89
:10308000A95ABD4F6D917C91672B51F380938402B7
:103090000E94E31781E08093830284E00E94600F26
:1030A000882361F0E091840284E0E802F0011124B9
:1030B000E95AFD4F0190F081E02D09940895809127
:1030C0004A0281110FC080E10E94600F882361F0E5
:1030D0000E94E31780914A0291E0892780934A0277
:1030E00084E00AC080E8F0CF8CE00E94600F882363
:1030F000B9F30E949C1781E090914B02692F092E31
:10310000000C770B20914A0247E050E0222311F097
:103110004BEF5FEF6417750749F09E5F220F220F98
:10312000921B90934B0291E0909385020895DF9259
:10313000EF92FF920F931F93CF93DF93C091D00232
:103140008C2F8C73803309F452C00C2F0695069592
:103150000F7010E0C80106962CE0E22EF12CB701AA
:103160000E9479320E940B16D82EC8010296B70130
:103170000E9479320E940B16D82FC8010297B7011E
:103180000E9479320E940B16C37090E3C99F902D64
:103190001124989F802D11249C2F9295990F907E39
:1031A0009D9D902D112423E824BDC295C07FCD9F05
:1031B000C02D1124C095C7BD21EF209380008093BE
:1031C000880090938A008091D10225E0829FC001FF
:1031D000112441E068EE73E080579E4FDF91CF915C
:1031E0001F910F91FF90EF90DF900C94241782E0D5
:1031F000D2E092E0D92EC8CF0E9497188091CF02DA
:103200008F708D5F80938802089583E884BD8FEF6F
:1032100087BD81EF809380001092880010928A0011
:103220008091F0028823D9F0813031F48091EF024F
:10323000811115C00C94F71680916F008D7F8093DB
:103240006F008091BF02E091C002F091C1029081B5
:103250008095892380831092E0021092E502089500
:10326000EF920F93CF93DF9377FF0CC088279927B6
:10327000861B970B2817190609F00CF47CC0260F43
:1032800070E060E057FF0FC0EE27FF27E41BF50B4F
:10329000802F002E000C990BE817F9070CF06BC07B
:1032A000040F50E040E0222309F465C06038710546
:1032B0000CF061C010160CF05EC0403451050CF0EB
:1032C0005AC0CB01820F911D8138910514F020E87E
:1032D000261B942FFA01E00FF11D07FDFA95E1344A
:1032E000F10514F000E4041B97708FEF092E01C064
:1032F000880F0A94EAF7090F491B510957FF02C0CA
:10330000495F5F4F93E0559547959A95E1F756953C
:10331000542F442757954795640F751F6F507D4F65
:1033200048E050E0AFEFB0E010162CF5083064F440
:10333000FA01E01BF10907FDF395ED0102C0D595F7
:10334000C795EA95E2F78C23E1100DC08095FB014B
:10335000922F3081382331939150D9F7085060581B
:103360007F4F8FEFE1CFFB01922F3081382B3193CC
:103370009150D9F7F3CFDF91CF910F91EF9008954E
:103380005F926F927F928F929F92AF92BF92CF92F5
:10339000DF92EF92FF920F931F93CF93DF93F82E5C
:1033A0004B013A01EC0139E0C32ED12CA12CBB24F6
:1033B000B39410E0C3018A219B21112371F122E013
:1033C000522E892B11F096E0592EEE24E39402E060
:1033D000252DA401BE0183E697E00E943019252D1A
:1033E00030E02E5F3F4FC20FD31FB694A79481E009
:1033F000C81AD108F9F68C2F8F19DF91CF911F9140
:103400000F91FF90EF90DF90CF90BF90AF909F9083
:103410008F907F906F905F90089511E0892B29F72E
:1034200010E0E3CF2F923F924F925F926F927F9284
:103430008F929F92AF92BF92CF92DF92EF92FF92C4
:103440000F931F93CF93DF93CDB7DEB729970FB6B6
:10345000F894DEBF0FBECDBF6A3071F52091010137
:1034600080918B0290918C0236E0239F800D911DFC
:10347000112490938C0280938B0210928A021092F6
:10348000890281E090E029960FB6F894DEBF0FBE66
:10349000CDBFDF91CF911F910F91FF90EF90DF9003
:1034A000CF90BF90AF909F908F907F906F905F90E4
:1034B0004F903F902F90089520EE260F243708F765
:1034C0004091010149832091890230918A02398714
:1034D000288726E0429FA00111245D834C83288524
:1034E0003985203831050CF04AC020908B0230908D
:1034F0008C0230E4231631040CF041C02885398554
:10350000598145E0549F200D311D112437FD37C0EE
:103510002C813D81220D331D37FD31C09F838E8369
:1035200084E0689FF0011124EF58FE4E45905590BD
:1035300065907490513071F5A884B98416E0D12C4F
:10354000C12CB301A2014170552766277727C1011D
:103550008C0D9D1DBC01C5010E940B1576946794CE
:10356000579447949FEFC91AD90A26E0C216D1048E
:1035700041F711503FEFA31AB30A1111E0CF48856C
:1035800059858C819D81480F591F50938A02409321
:10359000890277CF4981842E912CC884D98456E042
:1035A0005A83510186E08B838301720191E0E92205
:1035B000FF24002711270981202FA501B6018E8144
:1035C0009F810E94301976946794579447942B8179
:1035D00021502B83A80CB91C2111E6CF3A81315020
:1035E0003A83C80CD91C3111DCCFC9CF0C94121A04
:1035F000EF92FF920F931F93CF93DF938C017B0188
:10360000D0E0C0E0F701EC0FFD1F6491662339F0B4
:10361000C8010E94121A892B11F02196F3CFCE0116
:10362000DF91CF911F910F91FF90EF9008958F92AE
:103630009F92AF92BF92CF92DF92EF92FF920F9341
:10364000CF93DF93809188028F50990B63E070E0F5
:103650000E9479328AE39AEAA3EEBEEE04C0B695E0
:10366000A795979587956A95D2F7C82FC1708FE770
:10367000C89F802D112493E894BD9FEF97BD91EFD3
:10368000909380008093880010928A000E94F61424
:103690002091880288E790E0821B91096CE270E03B
:1036A0000E9479324B0180E4C82E89E1D82E9CE13A
:1036B000A92EB12CF12CE12CD0E081E090E08E1409
:1036C0009F0411F090E080E08C9FB0018D9F700D01
:1036D0009C9F700D1124645F7F4F00E228E1A601DA
:1036E000C5010E94D60F8FEFE81AF80A88E1A80EEC
:1036F000B11C80E6C80ED11C83E0E816F104E9F69F
:1037000008E020E240E259E16CE270E084E490E0FD
:103710000E94D60F80E190E090938A028093890204
:103720008AE390E090938C0280938B026FE079E1C2
:1037300083E697E0DF91CF910F91FF90EF90DF90BC
:10374000CF90BF90AF909F908F900C94F81A0895EF
:1037500090E080E00895FC014081518141155105C0
:1037600031F12281338195812115310521F081E0EC
:103770006481691708F080E091509583911118C019
:103780002115310519F41182108208953695279577
:1037900033832283948124233523232B31F024E0A7
:1037A000929F902D11249583089522E0F9CF80E017
:1037B0000895E0EEE60FDC0116968C918823C9F09F
:1037C00080ED860F8A3040F08FEB860F8A3120F033
:1037D000603640F0643978F4F0E0E358FE4E8491AE
:1037E00090E00895683251F0693229F482E590E062
:1037F0000895E03488F390E080E008958DE690E04D
:1038000008956F927F928F929F92AF92BF92CF92C4
:10381000DF92EF92FF920F931F93CF93DF938091EC
:103820008502882309F470C00E94F6148FE190E0AD
:1038300090938A028093890284E090E090938C02B6
:1038400080938B0262EF78E183E697E00E94F81A9A
:10385000C09156028091550213E3811110E49AE061
:10386000A92EB12CD0E0C11708F04CC045018AE068
:10387000881A9108350184E0681A71088CE0C82E16
:10388000D12C8091540275018C130BC0EE24E3946B
:1038900005E025E0A601B40183E697E00E94301917
:1038A0007301609155028C2F0E94A415082FF0928D
:1038B0008A02E0928902D0928C02C0928B02682F19
:1038C00083E697E00E94F61AD23069F0602F8DE40B
:1038D00092E00E94D91BAC01B6016E5F7F4FC70119
:1038E00008960E94C019CF5F86E0C80ED11C8CE3F9
:1038F000C816D104C1F4DF5F88E3A80EB11CD33031
:1039000009F0B1CF10928502DF91CF911F910F91F5
:10391000FF90EF90DF90CF90BF90AF909F908F90EF
:103920007F906F9008951C13ACCFC12FE4CFCF933D
:10393000DF93EC010E94D91B998388830097D9F00B
:1039400020E031E03B832A834A815B819A013695EE
:10395000279548235923452BA9F33B832A834C8180
:1039600028233923232B11F4019741F484E0489F45
:10397000802D11248D83DF91CF91089582E0F7CFC0
:10398000CF93DF930E94201688E00E94600F882367
:1039900009F10E9405190E949C17C1E080914D0217
:1039A00090914E02892B91F0C23081F48DE492E027
:1039B0000E94AB1BD82F80914C028D1739F0DD236C
:1039C00009F46CC00E949718D0934C028C2FDF91A1
:1039D000CF91089584E00E94600F60915502882382
:1039E00059F0809154020E94A415682F8DE492E052
:1039F0000E94971CC2E0D2CF6623B9F160E48091A7
:103A0000810287FF34C0809154028830D0F18091C8
:103A1000810220918202811102C0222359F370E0B9
:103A200058E08502C0011124820F911D27FD9A954F
:103A300020915402820F911D860F971F0E947932A8
:103A400080935402209156028217F0F4887F80936D
:103A5000560280914D0290914E02892B11F40E94E2
:103A6000E31781E080938502C5CF63E3C8CF882345
:103A700071F220915402462F4850550B2417150619
:103A800034F210928102C3CF30E0215F3F4F8217A2
:103A90001306F9F2F4F2887F8850D9CF0E940519F5
:103AA00093CFE0E6F1E08CEDDF011D928A95E9F716
:103AB00010923D0210923C02E1EFF6E01482168271
:103AC0008FEF818381E090E09383828308950E9449
:103AD000511D0C94B51797FF0DC022273327281BC3
:103AE000390B4217130629F024F0480F90E080E0CC
:103AF00031F408954423E9F380389105D4F7603414
:103B00007105B8F79C01240F311D2138310514F0DF
:103B100040E8481B362F377021E001C0220F3A954C
:103B2000EAF7FB0133E0F595E7953A95E1F7F6956D
:103B3000FE2FEE27F795E795E80FF91FEF50FD4FA1
:103B40008081822B81934150D9F7D3CF6F927F929E
:103B50009F92AF92BF92CF92DF92EF92FF920F931C
:103B60001F93CF93DF93A0907D0222E0922E9A0CB8
:103B700010917E02F0907F026F2C0F2C000C7708C2
:103B8000630181E0C81AD108C09180020C2E000C9C
:103B9000DD0B22E0210FBE0161507109E12C092DDE
:103BA000A60183E697E00E94301980917C02882369
:103BB00031F194E0B92EB10EE2E06E1A710822974D
:103BC0004B2DB301CE010E946B1D84E08A0DB30121
:103BD000680F711D87FD7A95615071094B2DCE01DB
:103BE0000E946B1D492DB601CE010E94720FCE01BD
:103BF0008B0D911D492DB60101970E94720FD0E0E7
:103C0000C0E087E5C82E82E0D82E80917B02082E86
:103C1000000C990BC817D9070CF04CC0F601628153
:103C200073816115710509F442C0AF2C0F2C000C93
:103C3000BB0880918002082E000C990B0C962091F5
:103C40008402022E000C330BC217D30769F524E05F
:103C500030E0821B930B90938A0280938902B0928A
:103C60008C02A0928B0283E697E00E94F81A809162
:103C70008402082E000C990BC817D90771F46091C3
:103C80008002062E000C770BEE24E39405E025E07D
:103C9000A50183E697E00E943019F6E0FF0E219619
:103CA00084E0C80ED11CB1CF30E020E0D2CFF39435
:103CB000F394F5CF10928302DF91CF911F910F9172
:103CC000FF90EF90DF90CF90BF90AF909F907F904C
:103CD0006F900895EF920F931F93CF93DF9380918E
:103CE000850290913E02992379F09091830291117F
:103CF00001C081110E94A61D10928502DF91CF9113
:103D00001F910F91EF900895882309F4A2C00E949B
:103D1000F61440E860E080E00E94EB1540E46EE3BA
:103D200080E40E94EB15C0E6D1E002E010E01092C2
:103D30008A021092890210938C0200938B02FE017A
:103D400001900020E9F73197AF014C1B5D0BBE01DC
:103D500083E697E00E94AD110A5F1F4F66960E330F
:103D6000110529F780915F018823B9F1E12C0DE15C
:103D700021E341E150E067E270E083E697E00E94D2
:103D800030194EE262E188E20E94EB154EE26CE2ED
:103D900088E20E94EB15C3E1D0E041E0BE0188E279
:103DA00090E00E940B152296CD32D105B1F7C3E108
:103DB000D0E041E0BE0186E590E00E940B1522961E
:103DC000CD32D105B1F708E128E247E255E164E1DF
:103DD00070E08CE290E00E94D60F0E940E0F682FD8
:103DE000813208F460E280915F01882309F46BC09E
:103DF0008091F3069091F406019709F05EC06091FE
:103E0000590182E08093010184E490E090938A025A
:103E10008093890287E190E090938C0280938B02DB
:103E200083E697E00E94F61A81E0809301014091B9
:103E3000F3065091F4066EE370E090E080E00E949B
:103E4000C01940E4481B09F457CF6EE30E94EB15FC
:103E500053CF80915F01811124C080915B0120913B
:103E60005A0196E1899FF0011124E05AFE4FE20FBA
:103E7000F11D6081613208F460E296E0299F9001B3
:103E8000112430938A0220938902899FC001112452
:103E9000029690938C0280938B0283E697E00E94B7
:103EA000F61AE12C02E020E44EE350E070E060E01E
:103EB00083E697E00E94301990CF8091880280FFBE
:103EC000A0CF60E29ECF8091880280FD6FE5809157
:103ED0003C0236E0839FC0011124029620913D02EE
:103EE000239F9001112430938A022093890290939A
:103EF0008C0280938B0283E697E00E94F61A8091F1
:103F00003D0280935A0180913C0280935B018FCFE8
:103F10008F929F92AF92BF92EF92FF920F931F9357
:103F2000CF93DF93CDB7DEB7A1970FB6F894DEBF7E
:103F30000FBECDBF7C01FA01CB0119A2223008F4DB
:103F40002AE08E010F5D1F4F822E912CB12CA12CE7
:103F5000BF01A50194010E944832F901CA016A30EB
:103F60004CF5605DD8016E938D01232B242B252BFE
:103F700079F790E080E0109761F0FD01019000205A
:103F8000E9F73197AF014A1B5B0BBD01C7010E94E6
:103F9000AD11A1960FB6F894DEBF0FBECDBFDF9175
:103FA000CF911F910F91FF90EF90BF90AF909F9096
:103FB0008F900895695CD6CFAC01990F660B770B93
:103FC0002AE083E697E00C94881F9F92AF92BF92FD
:103FD000CF92DF92EF92FF920F931F93CF93DF93D5
:103FE00080918502882309F44EC00E94F61482E273
:103FF00090E090938A028093890210928C02109232
:104000008B026DE57BE183E697E00E94F81A8091D0
:104010008302811103C08091850281110E94A61D37
:1040200080918602882309F457C0A0908402C8E0DA
:10403000D0E0F12C86E0E82E95E0B92E08E410E0FF
:1040400029E0922E8FE490E0FA1002C08BE490E019
:1040500090938A0280938902D0938C02C0938B0242
:10406000EFEFEF0DE83088F50E2E000CFF0BE55C4E
:10407000FF4D0C948D3254207A2089209220A32069
:10408000AC20BB20C62080918602882309F4BFCFD4
:10409000E12C08E324E348E050E06BE470E083E6C1
:1040A00097E00E943019B3CF8091CF0284FBCC24DB
:1040B000C0F8D12C9C9CB0019D9C700D1124655BB7
:1040C000744E83E697E00E94F81A2696F39489E0EE
:1040D000F812B8CF1092860210928502DF91CF912C
:1040E0001F910F91FF90EF90DF90CF90BF90AF9016
:1040F0009F9008956091CF026F7070E06E5F7F4F68
:10410000C8010E947932CB010E94DC1F6DEA7AE17E
:10411000D8CF8091C50269EA7AE1882391F260EAFA
:104120007AE1CFCF8091C502882309F43EC0809107
:10413000D1028B9DC001112480579E4F0E94DC1F2D
:1041400062EB7AE1BECF6091D0026370B69EB0019F
:104150001124645C744EB5CF6091D002862F8370B9
:1041600021F1669566956F7088E0689FB001112413
:104170006C52754EA6CF6091CF02629566956370C2
:10418000E69EB00111246E53754E9BCF0E942915F7
:10419000882359F06091CF0267FB662760F9E69E9D
:1041A000B00111246A54754E8CCF63EA7AE189CF4D
:1041B0002F923F924F925F926F927F928F929F9237
:1041C000AF92BF92CF92DF92EF92FF920F931F9325
:1041D000CF93DF9300D000D000D01F92CDB7DEB7D1
:1041E00080918502882309F40DC10E94F614209164
:1041F0004B02822F082E000C990B9A83898300E1D1
:1042000020E842EF57E1BC0190E080E00E94D60F29
:10421000E981FA817396FA83E9830DE917E1F801E0
:1042200084918B3181F165E170E0C8010E94C23157
:104230007C016C01DD24282F3DEF3203C0011124E5
:10424000805C9F4F90938A028093890289819A8132
:1042500090938C0280938B02B80183E697E00E94D2
:10426000F81A9FEFC91AD90A0C0D1D1D86E090E0BF
:10427000E11002C082E090E0E981FA81E80FF91FC5
:10428000FA83E983CCCF80914A02882309F4B8C02D
:1042900069817A816E5F7F4F40E890E080E00E9404
:1042A0006B1D0AE010E010938A0200938902898155
:1042B0009A81069690938C0280938B0261E977E154
:1042C00083E697E00E94F81A8091CC029091CD028B
:1042D000A091CE02AC016A2F70E02AE083E697E05D
:1042E0000E94881F29813A81245F3F4F3A832983A6
:1042F00010938A020093890230938C0220938B02E0
:1043000067E877E183E697E00E94F81AC090C80258
:10431000D090C902E090CA02F090CB02C701B6016A
:1043200020EC3BE443E050E00E94483229013A018E
:10433000C701B60120E13EE040E050E00E94483273
:104340008CE3882E912CA12CB12CCA01B901A501B6
:1043500094010E9448326B837C838D83392E262EF4
:10436000C701B601A50194010E944832CA01B901F2
:10437000A50194010E9448326E83072F182F9F8356
:10438000262FB62E8CE490E090938A0280938902C7
:1043900089819A8190938C0280938B0241145104FD
:1043A00009F049C021105BC02A3028F460E383E69D
:1043B00097E00E94F61A2AE04E81502F612F7F81EC
:1043C00083E697E00E94881F6EE283E697E00E94F2
:1043D000F61AC701B60126E030E040E050E00E9446
:1043E0004832CA01B9012AE030E040E050E00E94C2
:1043F0004832AB01BC012AE083E697E00E94881FA7
:104400001092850227960FB6F894DEBF0FBECDBF7F
:10441000DF91CF911F910F91FF90EF90DF90CF90A0
:10442000BF90AF909F908F907F906F905F904F90D4
:104430003F902F9008952AE0B301A20183E697E010
:104440000E94881F6AE383E697E00E94F61A99E0CB
:10445000921528F060E383E697E00E94F61A2AE0BE
:104460004B815C816D81732D83E697E00E94881FEC
:104470006AE383E697E00E94F61AE9E0EB1528F07C
:1044800060E383E697E00E94F61A2AE04E81502FFF
:10449000612F7F81B1CFFF920F931F93CF93DF9353
:1044A00080910001882381F10E94511D8091CF02EB
:1044B000CDEBD4E184FF02C0C5E9D4E186E1F82E5A
:1044C00065E170E0CE010E94C2318C0180913C0216
:1044D0008F9DC0011124A801BE01805A9E4F0E94E9
:1044E000B931C8010196C80FD91F80913C028F5F76
:1044F00080933C02012B21F710925E0110925D0126
:1045000010925C01109200018091CF02982F9F7051
:104510009E5F909355011092540110925601109293
:10452000570184FB222720F99093F1062093F60689
:104530001092F7061092F5063FEF3093F20641E035
:1045400050E05093F4064093F30690934402209376
:104550004602109241021092400287FB992790F97F
:1045600082958695837020935F0721E0823009F061
:1045700020E02093600781E0982790936107809363
:10458000620710925E071092480210924702109242
:104590005F0180933F021092580110923E02809377
:1045A0008502DF91CF911F910F91FF9008950E9496
:1045B000613124E630E040E050E00E941632E62F00
:1045C000F0E0EE0FFF1F8091CF0284FF1DC0EB547F
:1045D000F94E659174917093480260934702FB0114
:1045E000649180E492E00E94971C1092F50610926C
:1045F000F7068FEF8093F20681E090E09093F40647
:104600008093F3060C94B517E351FA4EE2CF109263
:104610003D0280913C028930A1F486ECE6E7F1E0AE
:10462000A0E6B1E001900D928A95E1F7E6E2F2E0B2
:1046300086E1DF011D928A95E9F781E0809385028A
:1046400008958F5F80933C02089590913D02E09120
:104650003C0226E1E29FF0011124E05AFE4FE90FEF
:10466000F11D80839F5F90933D02953111F40C946E
:1046700007230895CF93DF938091C602882309F41E
:1046800056C08091C702813009F054C080E792E0A3
:104690009093D3028093D202F999FECF4FE452E473
:1046A0006EE475E180E792E00E9409328091D202C7
:1046B0009091D30204969093D3028093D202F999F9
:1046C000FECF6091D2027091D3024AE050E088ECB4
:1046D00092E00E94F131C091D202D091D3022A9689
:1046E000D093D302C093D2020E945416F999FECF00
:1046F000BC01CE010E9411328091D2029091D3026E
:1047000002969093D3028093D202C091C50282E0B8
:1047100090E00E94DD31C81729F06C2F82E090E014
:104720000E94FB3182E08093C7021092C602DF91A3
:10473000CF91089584E792E0BECF0E943A230E9471
:104740009C1781E0809387020895CF9383E0809344
:1047500087020E94201680918802811110928202A5
:1047600088E00E94600F8823A1F00E949D23809121
:104770008802C0918702882349F081508093880283
:10478000882311F0C33011F00E9405198C2FCF91AE
:1047900008950E942218C09184028091C502C430FD
:1047A00049F08091D0028370C63021F0C830C1F446
:1047B0000E942915811114C0209182028C2FCC0FE8
:1047C000990B820F911D27FD9A95099669E070E07B
:1047D0000E947932C82F8093840281E08093830203
:1047E00080E60E94600F20918102EFEFEC0FE8302D
:1047F00090F40E2E000CFF0BE050FC4D0C948D320B
:1048000008241424372443247A249224AF24CB246C
:1048100081110E941A1880918202882309F4A7CF7F
:1048200081E080938602A3CF2223A9F33091CF02A7
:10483000832F8F7090E0821B910927FD93950D9631
:104840006DE070E00E9479328F70932F907F982BEB
:104850009093CF02392F3D70393031F4821B8F7025
:10486000907F982B9093CF020E94EA17D4CF882391
:1048700091F28091C502882319F00E94EB14F4CFC5
:104880000E94F014F1CF9091C502992321F22223C6
:1048900011F29091D10281111DC041E050E09B3195
:1048A00010F450E040E061E070E0903510F470E00A
:1048B00060E0460F571F61E070E0953810F470E03B
:1048C00060E0460F571F440F551F4D5F5F4F249FF9
:1048D000202D1124022E000C330BA901490F511D6C
:1048E000CA018F509F4F61EF70E00E947932809330
:1048F000D102BACF882309F48ECF3091D002832F12
:104900008370422F220F550B840F952F911D039614
:1049100063E070E00E94793283703C7F382B3093E3
:10492000D002A2CF3091D002832F837009F473CFCD
:10493000222309F470CF832F869586958F70422F9E
:10494000220F550B840F952F911D0D966DE070E091
:104950000E9479328F70880F880F337CDFCF8823D5
:1049600009F459CF4091CF02342F329536953370E8
:10497000822F220F990B830F911D039663E070E045
:104980000E94793283708295880F807E4F79482B00
:104990004093CF0269CF882309F43DCF0E94F617D8
:1049A0003ACF1F93CF93DF93D82F80915F01882355
:1049B00009F4C0C080915F07882309F4B4C08091D6
:1049C0005E0790EA980F943320F4D03638F0D4394B
:1049D00028F481528F3330F4D13220F460E08AE041
:1049E0000E949D1480916107882309F492C0D036FB
:1049F00008F48FC0D43908F08CC080E78D0F823066
:104A000008F070C0E0915E0780EA8E0F843308F0F2
:104A100086C0E056FF0BE156FA4E1491812F90E0CC
:104A200023E0959587952A95E1F78530A1F1D03956
:104A300009F075C02FEF280F233080F180914702D5
:104A400090914802892B09F0AAC08091CC029091E4
:104A5000CD02A091CE020196A11D8093CC0290932D
:104A6000CD02A093CE0280915E018F5F80935E01A4
:104A7000883C40F480915C0190915D01813A9C48B2
:104A800008F48DC00E943A2310925E0110925D01DD
:104A900010925C0184C0CAE0D13909F0C9E01770F6
:104AA000C80F60E088E00E949D14CD3059F560E0A9
:104AB00087E50E949D1460E089E50E949D14E12F26
:104AC000F0E0ED52FA4E849160E00E949D148FED6B
:104AD0008D0F8F3320F460E082E40E948B14D0931A
:104AE0005E071DC02D2F2056330BF901E156FA4EFB
:104AF000C4911C2F1770C695C695C695CD30B9F2D6
:104B0000CC23E9F2EC2FF0E0E452FA4E849160E01D
:104B1000D4CF62E08D2F0E949D148111D8CFD13265
:104B200008F08CCF3CC062E08D2F0E949D14811153
:104B3000D6CFF5CFD83009F05AC080913D028823F6
:104B400091F1815080933D0220913C02E0913D0221
:104B50008E2F90E0422F50E0FC0136E1239FE00DC4
:104B6000F11D1124E05AFE4F2081283269F4109281
:104B7000F5061092F7062FEF2093F20621E030E0C1
:104B80003093F4062093F30626E1249FF001259F3D
:104B9000F00D1124E05AFE4FE80FF91F1082DF914B
:104BA000CF911F91089580913C02882369F2815032
:104BB00080933C0236E1839FC001112424E150E040
:104BC00040E0FC01E41BF50BE05AFE4F3489222340
:104BD00059F04F5F5F4F6FEF620F332319F020934F
:104BE0003D02B2CF262FEDCF10923D02ADCFDA308D
:104BF00029F4DF91CF911F910C9407238D2F0E94F0
:104C000025238DCFCF92DF92EF92FF92CF938091A9
:104C1000CF02807629F081E09091DC02933009F098
:104C200080E090915F01981779F080935F0188236D
:104C300029F081E08093620710925E0780E2809302
:104C4000590181E08093850281E0809349020E94AE
:104C5000201680913E02882329F188E00E94600F8F
:104C60008823E9F00E94B5170E9405316C01990F65
:104C7000EE08FF080E941F12C616D706E806F906BE
:104C800031F06C257D258E259F250E94B0318091C5
:104C90004902CF91FF90EF90DF90CF9008950E944E
:104CA0002218E2CFC0913F02CC2389F10E94E31485
:104CB00091E0811101C090E090933F0280915E01EC
:104CC000882349F080915C0190915D010196909359
:104CD0005D0180935C018091C8029091C902A0910E
:104CE000CA02B091CB020196A11DB11D8093C802EA
:104CF0009093C902A093CA02B093CB0281E0809343
:104D0000C602809188028F5F80938802ADCFE091C8
:104D10004702F0914802309709F04AC0C0916807F5
:104D200080915601882319F081508093560180911B
:104D30005401823051F480915601811106C01092C5
:104D40005401809155018093560180915401811145
:104D500010C08C2F8074C5FFD4C1882329F08091A6
:104D60005701882309F4D0C181E080935401109247
:104D7000570180915401813091F480915601811145
:104D80000EC082E0809354018091550190915701AB
:104D9000992319F0982F990F890F809356018091CC
:104DA0005401C2FBCC27C0F9823071F4C1E00CC0C1
:104DB0008091400290914102892B09F46DC080E4FA
:104DC00092E00E94AB1BC82F809158018C1739F0DC
:104DD000CC2309F481C00E949718C0935801809198
:104DE000F506C81709F47BC0C093F5061092F206C9
:104DF000CC2309F47DC08091F3069091F40690FFD6
:104E0000A4C081E08093F506E0904702F09048024C
:104E1000E114F10409F4EBC00E94E314882309F4BF
:104E20004DCF80915801882321F00E9405191092DE
:104E3000580184E00E94600F882309F4D5C0809156
:104E40005F018111BDC08091F3069091F406019736
:104E500039F48FEFE81AF80AF0924802E09247021C
:104E60001092F5068FEF8093F20681E090E0909328
:104E7000F4068093F306E0914702F0914802CF01D7
:104E8000019690934802809347028491882309F405
:104E90008EC00E942523EFCF3196F0934802E09315
:104EA00047026491662329F080E492E00E94971CF7
:104EB0008BCF1092F5068FEF8093F20681E090E0A1
:104EC0009093F4068093F3068AE00E94D124109216
:104ED00048021092470278CF0E9405197ECF809138
:104EE000F2068F3F19F08F5F8093F206C11134C034
:104EF0002091F20630E08091F10695E0899FA001B3
:104F00001124559547952417350709F042C00E9492
:104F10000E0FC82F813290F58FEF8093F20681E05B
:104F200090E09093F4068093F3061092F506CC235C
:104F300009F46ACF8C2F0E94D124C03209F464CFC7
:104F400008F4C0E2C09359015FCF880F991F909376
:104F5000F4068093F30655CF2091F10645E0249F97
:104F600090011124359527958217130609F049CF32
:104F70008091F3069091F4068160E9CF883221F4A4
:104F800081E08093F706CBCF893249F61092F7067D
:104F9000C6CF4DE0849FC00111249595879510924E
:104FA000F5062817390709F02FCFC0E2C3CF0E94BA
:104FB0000723109248021092470281E080938502F5
:104FC0000E949C171092F5068FEF8093F20681E005
:104FD00090E09093F4068093F306109248021092AA
:104FE000470280933F026ACE0E94E317EBCF809185
:104FF000F3069091F406019709F060CE8091820249
:1050000087FF0AC01092F5068FEF8093F20688E0C2
:105010000E94D1240E94E31780E10E94600F882340
:1050200081F01092F5068FEF8093F20681E090E018
:105030009093F4068093F3068AE00E94D1240E94A4
:10504000E31788E00E94600F882309F437CE10929E
:10505000F5068FEF8093F20681E090E09093F406DE
:105060008093F30680915C0190915D0180339A42B8
:1050700040F00E943A2310925E0110925D0110925E
:105080005C0110927B0265EB77E18EE195E10E9475
:10509000321567ED72E280E195E10E9432156FEB07
:1050A00077E182E095E10E9432156FEA77E188EFBF
:1050B00094E10E94321569EA77E18FEE94E10E9453
:1050C000321563EA77E188EE94E10E94321582E1BD
:1050D000809380028EE080937F028BE580937E0236
:1050E00083E280937D02C1E0C0937C02109284022F
:1050F000C09383020E949C17C0933E02C093850216
:10510000DDCD882309F435CE81E08093540180936E
:1051100057012FCE1F920F920FB60F9211248F932B
:105120009F938091E1009091E100937F9093E10043
:1051300083FF0FC01092E90091E09093EB00109272
:10514000EC0092E39093ED001092DF0298E09093D0
:10515000F00082FF22C093E09093E9009091F2006A
:10516000992319F09AE39093E8009091BC02992357
:1051700041F09091BC0291509093BC02911101C0FA
:105180005D9A9091DE02992341F09091DE02915058
:105190009093DE02911101C0289A84FF18C080917B
:1051A000E2008E7E81608093E2008091E1008F7E3C
:1051B0008093E1008091BD028E7E80618093BD026C
:1051C0009F918F910F900FBE0F901F90189580FFA9
:1051D000F7CF8091E2008E7E80618093E200809123
:1051E000E1008E7E8093E1008091BD028E7E816021
:1051F000E5CF1F920F920FB60F921124CF92DF923C
:10520000EF92FF920F931F932F933F934F935F93D0
:105210006F937F938F939F93AF93BF93EF93FF937E
:10522000CF93DF93CDB7DEB76C97DEBFCDBF1092C3
:10523000E9008091E80083FF25C068E0CE01459633
:105240000E94A01182EF8093E8008D8987FF39C00A
:105250009091E80090FFFCCF982F907609F034C130
:105260009E894F89588D2F89F88C911131C08038D3
:1052700061F58091BE028093F1001092F1008EEFF3
:105280008093E8006C960FB6F894DEBF0FBECDBFDA
:10529000DF91CF91FF91EF91BF91AF919F918F914E
:1052A0007F916F915F914F913F912F911F910F913E
:1052B000FF90EF90DF90CF900F900FBE0F901F9058
:1052C00018959EEF9093E800C7CF1092F100D5CFCC
:1052D000913059F48111D3CF4130510581F680913D
:1052E000BE028D7F8093BE02CACF933049F48111F4
:1052F000C6CF4130510519F68091BE028260F2CFCF
:10530000953041F48091E80080FFFCCF2068209325
:10531000E300B5CF963009F0A9C00B8D1C8D22E0BB
:105320001092E9001092BA021092B902F2122EC045
:105330001092B8021092B7020E94EE111F8299E0FB
:105340009983FA8291E09E8390EA98879AEF9987F1
:105350002091B9023091BA02275F3F4F3C832B83E3
:105360008D831092E9001092BA021092B902109344
:10537000B8020093B70249E050E0BE016F5F7F4F73
:1053800080E00E9464110E94EE1179CF1093B80260
:105390000093B7020E94DA11DC0112960D911C9164
:1053A0000115110509F451C1D801ED91FC9104805A
:1053B000F581E02DBE016B5E7F4FC8010995009716
:1053C00009F03EC1F80100851185EACFF3E0FF1234
:1053D0000EC08F89882309F440C0823061F440E810
:1053E00067E08CEC9BE10E947C2D811148CF81E22B
:1053F0008093EB0047CF813029F440E86BE080ECEC
:105400009BE1F1CF833099F70E94DA11DC0112960B
:10541000ED90FC908E010F5F1F4F6801E114F104C5
:1054200079F0D701ED91FC910680F781E02DB8016C
:10543000C7010995080F111DF701E084F184EECF33
:10544000D8011C92F60101900020E9F73197BF01C5
:105450006C197D0940E0C601C6CF6AEA7BE1FB0119
:10546000449150E080E80E94641109CF973009F41C
:10547000BECF983021F481E08093F10000CF9930C5
:1054800009F0FDCE837009F0B2CFE3E0F1E081E0F6
:1054900031E096E32191222371F08093E90030936B
:1054A000EB00DF0111972C912093EC009093ED001D
:1054B0008F5F873079F78EE78093EA001092EA00D9
:1054C0008F898093DF02DBCE8B8D9C8D1092E9005B
:1054D0001092BA021092B9029093B8028093B70268
:1054E000898D811192C08E899D89913A49F48132CA
:1054F00009F07DCF47E050E06EE071E080E0B3CF8F
:10550000913209F074CF833269F48F89988DB0E0BD
:10551000A0E08093090190930A01A0930B01B0933E
:105520000C01ADCE803269F48091E80082FFFCCF9F
:1055300067E08EE091E00E94A0118BEF8093E8007D
:105540009ECE823209F09BCE8F8980931501EEEFBB
:10555000FFE7859194918B3F9C4D51F1E0E0F8E09D
:1055600080910E0190910F01A0911001B091110155
:10557000803B9440A105B105F1F48091150180FDB7
:105580001AC0EE3F8AE0F80789F587E797E791832D
:105590008083809160008093BB0288E19BE00FB61E
:1055A000F894A895809360000FBE9093600067CE3A
:1055B000EEEFFAE0D5CF808191818737974709F0E8
:1055C0005ECEA89580916000886180936000809194
:1055D000BB0280936000EE3F2AE0F20789F08091E1
:1055E000FE0A9091FF0A9183808349CE8081918148
:1055F0008737980751F29093FF0A8093FE0AC5CF30
:105600001092FF0A1092FE0A3ACE0E94DA11DC01D3
:1056100012960D911C910115110509F4E8CED801DF
:10562000ED91FC910190F081E02DBE016B5E7F4F0A
:10563000C8010995811123CEF80100851185EBCFB2
:10564000181619060CF41BCED2CEF1E0FF12BECE16
:105650006EEA7BE104CF1F920F920FB60F921124D6
:105660002F933F938F939F93AF93BF938091D402D7
:105670009091D502A091D602B091D7023091A602A6
:1056800023E0230F2D3758F50196A11DB11D20935E
:10569000A6028093D4029093D502A093D602B09331
:1056A000D7028091A7029091A802A091A902B0917F
:1056B000AA020196A11DB11D8093A7029093A80292
:1056C000A093A902B093AA02BF91AF919F918F912D
:1056D0003F912F910F900FBE0F901F90189526E8C5
:1056E000230F0296A11DB11DD2CF1F920F920FB6AC
:1056F0000F921124FF920F931F932F933F934F9379
:105700005F936F937F938F939F93AF93BF93CF9349
:10571000DF93EF93FF938091EA02882329F1809130
:10572000E002811121C08091EB0281111DC06091C6
:10573000E6027091E7028091E8029091E9022091DF
:10574000520130E050E040E00E9448326230710582
:105750008105910548F49091C202E091C302F09155
:10576000C4028081892780838091E6029091E702BC
:10577000A091E802B091E902892B8A2B8B2B09F4C6
:10578000B6C08091E6029091E702A091E802B09144
:10579000E9020197A109B1098093E6029093E7021B
:1057A000A093E802B093E902892B8A2B8B2B09F096
:1057B0009EC08091EF02882309F4F1C001E010E05F
:1057C000FF24F394E0915001F0915101AF014F5F3C
:1057D0005F4F50935101409350012491822F807F5D
:1057E000C22FCF70D22FD370803821F48D2F0E941A
:1057F000F716E8CF803909F03FC0E091EC02F09154
:10580000ED0209958F258093EB02E0915001F09114
:105810005101CF0101969093510180935001E49181
:1058200080914F019091F002D91760F6D13021F4A8
:105830009091E5029111C6CF8E0F87FDC3CFE82F5F
:10584000F0E08C3390F4E75BFB4EE4916E2F70E058
:1058500081E0D11103C0F092EA0283E04C2F46951B
:1058600046954E5F0E948916ADCFEE0FFF1FE75B96
:10587000FC4E65917491ECCF87FD4FC03296F0934A
:105880005101E0935001FA014491A0914D01B09172
:105890004E01322F242F0E946A326C507E4F8F4F60
:1058A0009F4F28EE33E040E050E00E9448322093C2
:1058B000E6023093E7024093E8025093E9028091B8
:1058C000E6029091E702A091E802B091E902892BEB
:1058D0008A2B8B2B61F481E090E0A0E0B0E0809314
:1058E000E6029093E702A093E802B093E902FF91E9
:1058F000EF91DF91CF91BF91AF919F918F917F9168
:105900006F915F914F913F912F911F910F91FF9058
:105910000F900FBE0F901F901895803DA1F4F0934B
:105920004C01E0934B0180914A01882309F44ACF4E
:10593000EC2FF0E0EB57FB4EE491C0914F01EC0FE0
:10594000E0934F013FCF803E21F5C11109C0809106
:105950004B0190914C01909351018093500132CFB3
:1059600080914A018F5F80934A01980102C0220F03
:10597000331FCA95E2F7821713064CF350934C017C
:1059800040934B018091490180934F0110924A014D
:1059900019CF803F09F016CF1092EF02A8CF80E018
:1059A0000E94F716A4CF1F920F920FB60F921124E8
:1059B0002F933F934F935F936F937F938F939F9317
:1059C000AF93BF93EF93FF938091E502882309F48F
:1059D00072C08091E1029091E202A091E302B09145
:1059E000E402892B8A2B8B2B09F451C08091EB02A6
:1059F00081111DC06091E1027091E2028091E30289
:105A00009091E4022091480130E050E040E00E9493
:105A10004832623071058105910548F49091BF02CA
:105A2000E091C002F091C10280818927808380913A
:105A3000E1029091E202A091E302B091E402892B8D
:105A40008A2B8B2B99F08091E1029091E202A09138
:105A5000E302B091E4020197A109B1098093E10248
:105A60009093E202A093E302B093E402FF91EF91DE
:105A7000BF91AF919F918F917F916F915F914F9166
:105A80003F912F910F900FBE0F901F90189510927D
:105A9000E0021092E50280916F008D7F80936F008D
:105AA0008091BF02E091C002F091C1029081809587
:105AB00089238083DBCF8091EB028111D7CF609166
:105AC000E1027091E2028091E3029091E402209160
:105AD000480130E050E040E00E94483262307105F9
