:100000000C948B1B0C94B31B0C94B31B0C94B31B60
:100010000C94B31B0C94B31B0C94B31B0C94B31B28
:100020000C94B31B0C94B31B0C949F2A0C940E2BB2
:100030000C94B31B0C94B31B0C94B31B0C94B31B08
:100040000C94B31B0C94E22D0C94B31B0C94B31BB7
:100050000C94B31B0C94B31B0C94B31B0C94402D49
:100060000C94B31B0C94B31B0C94B31B0C94B31BD8
:100070000C94B31B0C94B31B0C94B31B0C94B31BC8
:100080000C948A2D0C94B31B0C94B31B0C94B31BCF
:100090000C94B31B0C94B31B0C94B31B0C94B31BA8
:1000A0000C94B31B0C94B31B0C94B31B0763423624
:1000B000B79BD8A71A39685618AEBAAB558C1D3CF9
:1000C000B7CC5763BD6DEDFD753EF6177231BF00BD
:1000D0000000803F08000000BE922449123EABAAF7
:1000E000AA2ABECDCCCC4C3E00000080BEABAAAA52
:1000F000AA3E00000000BF000000803F000000009A
:1001000000084178D3BB4387D1133D190E3CC3BDD2
:100110004282AD2B3E68EC8276BED98FE1A93E4C7F
:1001200080EFFFBE01C4FF7F3F0000000000000021
:10013000000000700100C0000C00CAA77C0A42F554
:100140005508534248195EF551120030000000274F
:10015000450040941C0014F3190504F11104200417
:1001600000000441100400040000104208015E1465
:10017000450F40F001005955551351555D0D8C92B6
:100180007C085755550D5E55550D51520C015E5565
:10019000550F5655550F00A0000000A4000000C2E6
:1001A000280080A228008062080040500D0000E373
:1001B00018009C92241F5F555D0D9C1445115F141F
:1001C00025075F5555115F5114015E54551D1F41A0
:1001D000101F40F44500100421071F41181D1F0483
:1001E00041105EF0041F9C10041F5E54450F5F9287
:1001F00014035ED4451F5F92341B5655550D41F0D4
:1002000005011F0421071F4208011FE4410F174386
:10021000181D07C1090151564D1100F0450000F0AD
:10022000010040F4010080100C0010044110464F02
:100230005220345448202341524455424F594A4198
:100240004D004F424E2D5931302056455220302E10
:10025000303300C0C6CFDFFFFB73037CFEFFC7E374
:10026000FF7F3E00FFFFFF1B1B1B03000303FFFF7D
:10027000FF03030000000000000000808080800079
:10028000000000000000000000000080E0F058AC1A
:1002900056AB55AB5500FF01010102020408106086
:1002A0008000003FFFAA55AA55AA55AA55A85FACE1
:1002B0005CAC5CAC5CAC5C0CCF3C000000010306A9
:1002C0000D1A152A252A252A2522151209040201AC
:1002D000000000FFFF57AB57AB57AB57AB03FF8096
:1002E0008080000000000000000000FFFF55AA55BC
:1002F000AA55AA55AA00FF00000001010204083017
:10030000C000001F7FD5AA55AA55AA55AA54AF56BA
:10031000AE56AE56AE562E86671E00000000010394
:10032000060D0A151215121512110A090402010010
:100330000000000000000000008080C0C0C0C0803D
:100340008080000000000000000000C0F078AC5683
:10035000AB55AA55AA00FF000000010102040830B5
:10036000C00000FFFF55AA55AA55AA55AA00FFFED6
:10037000AE56AE56AE56AE5607FE001F17151215F6
:100380001215121512101F1712151215121512152B
:10039000101F00904A001480F09038000A9044002A
:1003A000289050001480F09039000A904500289061
:1003B00051001480F0903B000A90470028905300B1
:1003C0001480F0903C000A9048002890540014805B
:1003D000F0903E000A904A00289056001480F09059
:1003E00040000A904C00289058001480F090410082
:1003F0000A904D00289059001480F09044000A9013
:10040000500028905C001480F09045000A90510044
:1004100028905D001480F09047000A9053002890C7
:100420005F001480F03C1E140F0C0A080706050438
:100430000302014E4F56454D42455220323031396C
:100440000050524F4752414D4D4544204259204F94
:10045000424F4E4F0000544849532050524F47528C
:10046000414D2049530052454C4541534544205588
:100470004E44455200544845204D4954204C494370
:10048000454E53452E001B0000041C1C1C0E0E0E76
:10049000FEFEFE7E0E0E0EFEFCFCFC0C0E0E0E0E84
:1004A0000000000000C0F0FFFF7F07000080FEFF9B
:1004B000FF1F0000000000002070F8FC7F3F0F07C6
:1004C00001000000000F3F3F7F7870707030000027
:1004D000C0C000C0C000C0C000E0F8FC7E0E07072E
:1004E000070E7EFCF8E00000FFFFFFFF00000000A9
:1004F000000000FFFFFFFF0000071F3F7EF0E0E06D
:10050000E0F07E3F1F070000000030303038FCFF75
:10051000FFFF000000000000000000000000FFFFDF
:10052000FFFF000000000000000000000000FFFFCF
:10053000FFFF00000000000000E0F8FCFE0E0707CF
:10054000070EFEFEFCF000000000000080C0E0F09E
:10055000FC7F1F0F07000000C0F0FCFEFFEFE3E18F
:10056000E0E0E0E0E0E0000000707C7E7E0F070746
:10057000070EFEFCF8E00000000000000000181864
:100580003C7EFFE7C3800000031F3F7FF8E0E0E010
:10059000E0F0FF7F3F0F00000000000080E0F8FE69
:1005A000FFFFFFFF0000000080E0F8FE3F0F0300A8
:1005B000FFFFFFFF00000000070707070707070707
:1005C000FFFFFFFF0707070000FFFFFFFF07070709
:1005D0000707070707070000003F3F3F3F0C0E06D5
:1005E000061EFEFCF8E00000021E3E7EF8E0E0E0A1
:1005F000E0F87F3F1F0700000080F0F8FC7E0F0747
:10060000070F3E3E3C30000000FFFFFFFF1C0E06C0
:10061000060EFEFCF8F0000000031F3F7FF8F0E03C
:10062000E0F0FF7F3F0F00000007070707070707FD
:1006300007C7FFFFFF0F000000000000000000E000
:10064000FCFF7F0F000000000000000080F8FFFFAB
:100650003F0700000000000000E0F8FCFE0E070766
:10066000070EFEFCF8E0000000C0E3F77F3E1C1C14
:100670001C3E7FF7E3C00000071F3F7FF8F0E0E07B
:10068000E0F0F87F3F1F070000F0FCFEFE0F0707B9
:100690000F1EFEFCF0C00000000F3F7F7FF0E0E087
:1006A0007078FFFFFFFF0000001C3C7CFCF0E0E0E6
:1006B000F0FC7F3F0F03000000FFFFFFFF00000082
:1006C000008080808000000000FFFFFFFFF078FEC8
:1006D000FFCF07030000000000FFFFFFFF01000144
:1006E000071FFFFCF0C00000FCFE030103FEFC003E
:1006F000070F1810180F0700000202FFFF0000008C
:100700000000001F1F0000000C0E0381E37E1C0090
:10071000181C1713101010000C0E4341E3BE1C00F0
:10072000060E1810180F070000C0F03CFFFF000075
:10073000030302021F1F02007F7F311131E1C1005C
:10074000040C1810180F0700FCFE632163CE8C0008
:10075000070F1810180F0700010101C1F93F07002A
:1007600000001E1F010000001CBEE341E3BE1C0090
:10077000070F1810180F07003C7EC381C3FEFC0052
:10078000060E1810180F07002D2D2D2D0000001C2F
:100790001C14141414141C1C00002A005D1C551495
:1007A0005514551C5D002A1C1C001C3E7F000014C3
:1007B000081400001C1C001C3E7F001408221C4171
:1007C0003E2010A8B45200F0B09000E090900000DD
:1007D000007F7F7F007F7F7F00000000007F3E3E24
:1007E0003E1C1C1C080800004352454449540000AC
:1007F00020383E38200000020E3E0E0200081C3E4B
:10080000003E1C083E476B6D6D413E3E41555551C3
:10081000653E504C41434500444543494D414C00E1
:100820003E64045A0F6B373546129DDD2E63D5D3D7
:100830000F85A873414FBB83DC92A7B9FAB80F7438
:1008400064B17BBA83B08B0B3A6B603E4334713436
:100850001B1C5F06CE19CA9CDC0C82748B8F07C4EC
:100860008B520BF5D085316803F51B23D2EC0012B7
:100870008709B4C08AD521C49E958AF93C2B3DBC1A
:10088000589CE962BB61C36E7448A5CD7699D55674
:10089000B0C568D1498AD2A0AEA1C2A13AD2015254
:1008A000FA0F7392365AB411597D8010885CED2C82
:1008B000DDFB8824AB461122BECA9E7A6E8FBB9D9B
:1008C000642CE5957020010AD0CF9E51B9DE253DFC
:1008D0007475DFB576FEF8FB9387B34C47D18789F3
:1008E000B27C037328472CA1DCEE8ADDA419C6FD77
:1008F0002344D877D398CC67ACB74D61FBE6A91BEE
:100900008CD28DECCCE8EEA11E8E5D951B816CAC7B
:10091000EA2541B0578134EB79B24002CD2F2E88C1
:100920006E1AC34E0228AA4D6871368A51DB07BF82
:10093000C663DB453CBB56B316050A9C16DD4879F9
:100940009566C86DFD6D7DCA4B5B76842A1567C6BA
:1009500095745013CDACA8C2048981BD1CB4B0C13C
:100960001FEC6A89137FBC76FEF9E2628CD995F59B
:10097000ED35972D8A23E27B332096381B182638D5
:10098000C70F0810C606764C711EB6B2B36500904C
:10099000D36042CA8D755917181D0F28CD6E3A5A6B
:1009A00009B943F83A3C4216AAD77F93AA3A378549
:1009B00069F7DEE3936D17D9B657C87663852903C7
:1009C0008C34B1298F7F11883D8E3BC678831B64A0
:1009D000D974ABD3C2BA18814167942B521E3CE93B
:1009E000D20845D26AFEC107E15EC9F5A55D347043
:1009F000CEE7FE74C9BC48AEE6A180C04F89D1598C
:100A000071B8FAD09275179BB8D13BB275A8628BBA
:100A100044D8250A223591EF4D09A407121A46FA47
:100A2000D943A3496CAA802B2AAF07E5EE94CB47A4
:100A3000EA60BF0507E1B70B4B645E049495059D22
:100A4000069889CD6098B5675EC8BECF087E200342
:100A50003E92691FAECEE04793818E679260D0567A
:100A6000B174F574A4CDAEEE9BC1489EAD0F70AECF
:100A7000C43CDB14AA9D9601B73DD45C1E2B598D56
:100A8000484C34C38CB18A4B7057980EB15BAD356E
:100A90004AE4172FD21FCAE7700294EB8C399BDF10
:100AA0001BF0782B504E531AFB1D79F7E57C908D87
:100AB000F299C53DC8F1F32A8AB550522FBFD65BD3
:100AC0009C30F35380DCDC97648096DAE5C8EEF165
:100AD00087C1146A96DBC58D2AA7E69DFF6588222B
:100AE0004EE76E175EA25C09944E17A97BD69471EF
:100AF000A53AE22A2682371AF5A38607520ECBD4EE
:100B0000A288208376FFBB3CEB40C438A8157E3317
:100B10007414F3679BBCB6D01BE5DAB1D81D3AE07C
:100B2000E4DC69F3E924D75882734D0673A4CE3709
:100B3000F6265B033543F00581DAAC3937A307A508
:100B40002B93C01DB50CB974B97B9565D34ADAB83F
:100B50003AC9A7B7BFEC7C68A934D65BAB23D7A34F
:100B60001A9873E3E7523AB9D0F44E78A2A3026B15
:100B7000659B89AAAE21EE4B84D49141FA281D438E
:100B800045B0B44B27D43E944BBE16CED9843A56CA
:100B9000238ED02507AF3BE8E175ABE758553C59AC
:100BA0005C0E6384868D13BCA1972CD1A4D193D8FD
:100BB0007EF7940B631CBB6362EE5812A23ED149D0
:100BC000F6AAF2112CE0F8459E94DA94517615D9E4
:100BD000C7FC800DDEDFD73E477C7938FE8597382D
:100BE0000629BE0D10FC9536B7E91C96A61372A710
:100BF000A2AD7C2CC557357E13D2A4627270C1B3EE
:100C0000EA62793060388FAFDE740435750692E899
:100C10008C0E6A984757896E1EFA2FF70DE2241042
:100C20007157624AD1477D8BC83B1D18D26D94BB6A
:100C300023CA4ED3EE6B39EAAC3A726012AC97ED30
:100C4000965838EF8A33130EC5B350DF59A63FB913
:100C50003A8E77F229AAC00C21A09212D922312C07
:100C6000AA2F1F29A67502B37811F0DF71DE79DC97
:100C7000DBD557F336475D832F9F4532628164A4ED
:100C800068504B6E8B3B715B5D87FB6467949EC6BF
:100C900019099CF371B6FA517D9B4D68D75D03C568
:100CA000314F9A10E074EB5946E506A5D28AC55C2F
:100CB0008766A3B6903BB48FB1909D0089B86B5600
:100CC00098901BFDDB15EC425D763AB9BDB2AA9057
:100CD000EBD5A0151E24461E19D4017C0B0AD8F8AA
:100CE0000A93ADE58F3776A5968D743A8F90BC3117
:100CF00097DD35AD588EECF9AA9731CCA4B5F0FB51
:100D000099F0417D279F1631CB4ED4AC8BC697010D
:100D1000E39FB1C84D513DCC7D986686878AD392BA
:100D200053BAE558DB27BF14E6F4BED64611CB8C88
:100D3000E2DEE90CF1CCB0254DC0E5655C073E4430
:100D400082E94919B4FE9B917261C2A901385945E3
:100D5000B2E5AA200DD55CD0E5D86117CFCB2969C3
:100D600000374860A3F4E4AB19AF5D44E3076F8735
:100D70001358FFA5676E585C81CE54D534E427FD27
:100D800016D8043C4ABDFA98014799686AB218E639
:100D9000D370359F65E315499667043336ADB6F3D6
:100DA000EEE5949007D29AE8F2706FB5C04F64F800
:100DB0008EB0E4AB79E16A36BE0F1B19E21B2D92AF
:100DC000EED81C733F869D4E2F260C6858CC4E8063
:100DD00073301A3D0100D9D2A07508620D2C3791ED
:100DE0008F6A92691536C3C5620E38A627A1853A67
:100DF0006A5F03D608B71783373938D0B5FD235556
:100E00005A374C578C59D97F0373D371E184D8C8B2
:100E10004D7E8901BF0D16EB4BD38D20D764A2699F
:100E2000C50CADDEDF8BB012D356D65BB3F5B6A3DF
:100E3000938EE29FCF223256F1BED9F4D1A43FBEA9
:100E4000E0777CE225F50F9ED932F74B2EB1565351
:100E5000D64D5AF5DB11C04C0B6914E3D6C6C2AFB0
:100E6000D6A1348DE31FB8F4121BA7C2E106642695
:100E7000BD7389C9A8317D6BA8805F1F0ED96A57E1
:100E800093A28C807426E5D813A9169BCB27D44A4D
:100E90009D41B2F5DA8EF05748918831BD2D101979
:100EA000D8E8545B90027186F3C7983275CA62091C
:100EB00011BA52DFDADFD226B69687E89DA3F0A9F1
:100EC000DAA72E6309EE0757A666B82881437FC2CA
:100ED00058B1D37414C3616C4CBA46C78C630379A0
:100EE0005A7095D2D410BD6FC7E2A2C92AD21A890E
:100EF000A52D98058A6C58150930C79F659A8215EB
:100F0000460035F18D3FB1B00A76EDC2A3A8505E20
:100F100099EFE820C04E73000A4BDAF5E6632977B3
:100F2000882974752B7F2D46626F7995916E176FA6
:100F300042515538B6E58F2F401F629A0537880118
:100F40001C528E3A750A084A238EEF3AE1A1EE89C7
:100F500016479894F7CA23172E369BDC08E4849D25
:100F60007CD4A988063F6BC334BB265D13A0E1BBCC
:100F7000B2B91F7251D663F577DDDAA11887793CD3
:100F8000C8B19961CC7374395C1039F29730E304BD
:100F9000CAE323AD40259C8D33487CD3256C902338
:100FA0000C22699C5200C63C026836FB9475655B56
:100FB000A6B36346D3732A54B300AE2970A5116A51
:100FC000A797E036BA57A21B3472295E9EA837CF86
:100FD000D2A975F6CB19D123E0A538BD15CCECE923
:100FE0005FAC4857D0D378F38A3CA39873C32E03E1
:100FF000303DB4B2C9926D0199E6A6D41157F438C8
:10100000F5D849EB53FA2784AD2D7B2E11727D3232
:101010000882B33301793BBE3550E89086F8310140
:1010200013C016DEE98DB9051A53D9597AF3E6587B
:101030000871917CC5F10B3EF6B6708779665777DB
:101040002EC3594DAC500C0EAB77E758F647F167FD
:10105000928EB588259019602F8B7C82D7D0994FBE
:1010600082307BAFAEA6B9A059894D3898C76BB412
:101070001198E6BB80B4552D24D10822B6661F9F77
:1010800048EAA49DBC111CC72794831891C9FD5D33
:10109000E2C60A827FE34E97E635D6C74BC4D46AD0
:1010A000EEB836C6FDC40604CE9718B4415D86D0AE
:1010B0001879C293C8F43DA5C7358C7A4A5341329A
:1010C000D070AF551F756F76395A7499AEDFF64BF5
:1010D000CB498B947004AB3E5C5BB21B2457A35886
:1010E00016242C52055B9CA9B8CEAC8BC4A7E3BDDB
:1010F00083A4E65284683AA3AA87590AD70FD63642
:10110000FA9684E82E445365C15694A22B524F0997
:1011100031B4295795101A9AC44C10740741EF68DE
:10112000B487F804AC544A394814DAED693CB45534
:101130001B047648B975ACE4E52DB1212C71F21B86
:101140007B505830BF4650310ABE2F75A867384BC8
:101150003BE7A0EF5D36A2DB065BE438C1FB109BEA
:101160002CF402AB32D16BE86EE92EAFB1B5367C10
:101170001C7F55B60822E2C173CD48352E0F662577
:10118000134A3188121FA8DD5CDA9E08D4B891FE9C
:10119000B881756292438A9330B2DD9E50ABADCE7A
:1011A0006BA2F0AC03A4771541076B9A73A0676C30
:1011B00024BB8A907070905EE23D1D421C81FDBC94
:1011C0000F51F693171593419340C4C276F480767D
:1011D0008B3757EB9DFA5A665242F7C0C397C899AE
:1011E0003E4E50884EFD1160EEE575A9B0A0988B7B
:1011F000D9B0BF03719916830AC6B21C309E5FBE78
:10120000A58A051F03536D54391CA7DCBA861F71CC
:10121000BB133D0B9D5ADBFDD34218A3EDF4CA4D21
:10122000F015FE7862984C3084C8FCB0D970932DCC
:101230002B2C35E70FAED9F620B68EA1C54863CE6C
:10124000122EDAA2B2EBB5C95E28D5843C9CC7F851
:10125000810C9608C6945631597904DFAB0BF5E141
:101260004366DC2205AE699CCD827793AB418D91BC
:101270008FA549C81975F08628E23E87097B6F045F
:10128000508EBC8E48F6A0168FFA14268C77668B8B
:101290000D775F4726E3D78744226D320D89E191B0
:1012A000CEC52786B765713778EA11E88A315230A2
:1012B0008BCC67BC6CA1A39F8EA8547FFE452E29C2
:1012C000DFDB78A481E3D9A764D07E00CC4F6C34F7
:1012D0008F5C073AD8AA94A0C06DB2C70E94A80B31
:1012E000DE7DD5707097D01A786868A805AF057C48
:1012F000092F8D9770CBDE90ED052CE9107CDD82F7
:1013000074914769711B61EE1A656A2308971F98EB
:101310002E3ADEEF3224FD92583092D204BBE81C04
:101320004CF90037188645B964DF6B3796EFB70084
:1013300065FA71522E2C6E18DCF2C12C2BC7E229F3
:101340005B71ED7DC47291AAAAE009019AE2964E02
:10135000DD92C6BA9F21E9024FAF7649C6341453D5
:101360007CC8E59FEEF8C5F86D989CD2D5ED959EAA
:101370002C0A2F579A83142E21DD0B19DAED6BBF3F
:1013800011576003BCC7F096DAF4E0B0EC3A73078B
:1013900084C1D01D78A5707BDD93101891D5D4F64B
:1013A000DE822D261ABDD658615274D2BB08DAB738
:1013B000B0BD1A95E8801266DB5A347E5B3B75231C
:1013C000ED47F4E7C942CC94C8A1BA0102F837410D
:1013D000BF2A12F23DFC9806057D1249B7F160EF75
:1013E00097436608AF5972628B7AE129EA869B6857
:1013F000409015FBCA8A68CFBA274EA43B078A1AC9
:101400006BE5B2BB751628238845A5EA53D116268D
:101410008286CF8A0D47F89285A303079650022E45
:101420009467960CA295D9902043CA8A93B9AF8746
:10143000F5908D34B0B4B48C11A45D58EC14DFC3B6
:101440002EE9CAFC9F789756F9E502A83C35038837
:10145000D4AC5B9271EED5F3B5DC5EBE065ED2E035
:10146000FE4B3836AA5C230C65CB3CB8AAA71CAD52
:10147000E5596C46BD3CE4A6FE34B72DF46074B665
:10148000C32F44F60E1CE97B7BDE1CE4E17B7194E8
:1014900051D0992747EA30C9383365DEF2B7D4F521
:1014A000FE6C47FA0EA0F3DE8D0E2E76F42E0D0D97
:1014B00064B3449B8291863994FC98D1B0BE408A33
:1014C000C3483D96C06CE6D23E72427E2FA13810D2
:1014D00000F8C21A0D46E83D2C831E32C430026C5F
:1014E000CF0CCD709E87F96AE104962B01A2A56509
:1014F0007DC50C638A1435B82090376333016A0ABE
:10150000C34C35C69C3CFFB7128D7AE3F9D2063C3A
:1015100012B1E6FCBDAE6B33063D0B3148D0CE2395
:10152000923762F59D90BAC6B76EA2CE0C8A1EEDB8
:10153000C1C9C0C07C166E614D1CF7CE61415CA66E
:10154000657CCE84A5C0B2981917F3853D0340642D
:101550007915337BD12AC5D8B69EBCAA05B0A8C2DE
:10156000D23A8BB65D25EA54F63A7B137557F7B934
:101570000B081D9A2A8BA5AE19D3C5A4023CF667A9
:101580004BC9AC194ACE3E7115C618445D1715EA11
:1015900054C8BB58EB9DE973EAB9DBD9B121137785
:1015A000D814E44301D0746234481E4E6907A15632
:1015B0006E413A5C7435E8D89FE9816EB8ABF77834
:1015C000C46E977E1F99529D1C5B5CE54556E65B99
:1015D000347C6E628B3820110AEF3050BD34C13834
:1015E0004367C7326770D78063EA03CF50B6DCEB3E
:1015F000D259FCEFF7C24EE98EB6E91410E98B0B15
:1016000046327D29A6F76C2445C71D7E701CB3BAEF
:10161000108B31628B3560758B154F901227C0C5CA
:1016200027CF6888715A20FA412B65FDC43104A583
:101630000F9456018C4326192DB35A6FD481E44F71
:10164000D3F30302954F366AF543994452AE695479
:10165000FCF21F1001A9BC36C72D9E3D876D3D4F82
:101660000D034D61FADD4A8D2E13BBDAA4B5D1C846
:101670004041F1FC952F298451B433034ACBF9D66C
:1016800051AC9626EE952AB75321A453E1DEB077EC
:101690001CF8666DCBB0E6B265F1F01925159051D6
:1016A000C1E6650D71646CCFD56D3AA422EEF414D9
:1016B000CFB298A3B4B4AEA09A07133A8AF3E8BAAB
:1016C0004CCF5787528DAC7FDD97E22C012DD26D28
:1016D0005372FFE55964B9C7C30A6422E7EDD5091F
:1016E000387A3339F9F9F3287EBEB1C6C9CBC9D5EA
:1016F000D15078A6630D568F424BDAB81C2FCD30EF
:1017000010B3E32280B1359E72E27C7BB863AEEB0E
:10171000EFC4BF482F36A9961270B70C1D540A3F6C
:101720006989AC334A7A98F3B44AA966E53437013B
:1017300013EB2EA497107A01F1CC734D8D5C84B518
:101740001D4F853AE3493D3B5078649A15DD70445E
:10175000472C5AC7259A2FAADBD9E738221306E06F
:10176000B68FB2746D613130D2F9010E9BB0E9E2EF
:10177000BC8DA8C687D13D94D5E2C037968A82A198
:10178000F19D6881169E2731ACB9591D54871B56AF
:101790004EBB82E2A5298349D4A0B68635E5F2572F
:1017A000DB263240B105F2458400EAB94E48E06CD0
:1017B000886E9C105A37A5A38AFA5F51B2072FF2A0
:1017C000324CD7005A1AEE7D956302A6D272563E6D
:1017D00042F722C7126C74C22C867E369E1146F4E4
:1017E000C94850190E2E5B3867D667041209F523D5
:1017F00044B44E03069EA72B9F711FF317D473A802
:10180000AA2DFCB0AF58AA3EB004D64F9353BC816A
:101810008DB17D2AC7E0B89B5FD9BBA1BA57339A77
:1018200025832F853A08B05A386DC9F85A7D27A10B
:1018300011CD3D0591170C4CE35B1956898DB370A2
:10184000193186A770F4016D3A4A8651F760C1409C
:10185000B6223696E5F39AFFE3B7455993228DD326
:10186000C30F5E4EF1B7F27292A26488F94F5B919A
:101870002EE9AFB49DEE6D2FB651D37DF5554336AD
:101880000CA28A9943BADBD2A24B67DFF3A07F4D4B
:101890005538D02E8E4F3E0B86A0E05B2E1BD1DE3E
:1018A000F1956C7C60890370DC074753D9F8288177
:1018B0006CF749C09E364A825C3B47982E214E50B9
:1018C0005A080C7C1D8E6126C3EBA82C5863CF2CC4
:1018D0000DAB7CC53C9066DA9D03E54F6BC0F6F915
:1018E000DEA4F705704FC8A189F2FA88935E325ED4
:1018F000C5DB2EE18AB1D2DF1599E66068FA4C6E3D
:10190000B16627E240285B059FBC1E1F3500C4EA74
:1019100002A45317BD4BB6C2AC2B0453EE054C11B9
:101920003BC340166409216DD8A5098455C5113003
:101930002035C69F76DBACA93721E0A4E25EB889EA
:10194000BFCBA4CEABC618AF15BB88E9E00D380BF2
:101950007454978AB5B54999519F2F82E4EB5D9BEA
:101960006C3AA0E09B34CE29591BBA2781DDED707B
:101970003DBE8EC026851A5084E3CEABB191CB24F8
:101980004EBAD16DCFA58F80616AB0659BB153BA55
:10199000A23B39C535ECA787B1B807B05906DAE2E2
:1019A00068964DB60E29D8769970C272DEEA311B60
:1019B00075CA9A2EF6B614771800397169C9A74509
:1019C000FE1BB9313FBAFDD220C8D780474E402414
:1019D000C55EAA311EBEB53CACEBDC582B9D1E9CEF
:1019E0001476D4055FD016C540424A04FEBE9C9CC6
:1019F00082626C848351AB08C6B98F7F5E9D16F2FC
:101A00004531E555EF5C73508AB4BCEE0555F62CB4
:101A1000C9CA5FB727A8BD4A9F54079190A9131F51
:101A2000CF8357192FE05010705817D296BB780407
:101A3000EFD6CC959A8356427C06A9C8E4CD3BBC30
:101A40009C1A898DAD2C5218347B0E2B07166526F7
:101A50004865448C111989E1300D9E0BDCDF7DBD9A
:101A6000364D02DF77F0F78416CC1115D6D199EDFB
:101A70001CEDD4FA76D35B471BAFB4207DF9B66773
:101A800093C62407A75D83938328CBB0839C30C77C
:101A90006F457BAF9B73AEE8604310524B565F645B
:101AA000ACB0B85057D15B8C1A522C129FB145364E
:101AB000797ED026153729014B5C99241DAF4393BD
:101AC000DA18C6E313C25C3155C1821D4AC679C813
:101AD00011579E3C1F5D0E8B549EDBC13D674065D8
:101AE000219763FCD9FD446CF69499DBA62C94995C
:101AF0009C75F758F266E783EF98D372E3895774C1
:101B0000F19E0B7A7519949BD3105E57C848371D08
:101B100067BC36C3EB916B3D5486A8B539D8208895
:101B20004120F33A38EBC49945BC671C7722FBB4DB
:101B30004EB23E6862AC7DC30A93B7BF902E1E1CA6
:101B400079FC46C2499DA2E0DDB5C5C24BD9C47936
:101B5000AE8DAB5A1F112C330F36031517B02FD48F
:101B60007670789239C92F0CC1576B9705BE5B25EB
:101B7000C0D121F5D8B396F9F069D097C5DEC62952
:101B80007A5A036820480DEBB4DB8F945D361D064E
:101B9000E612F10F9EAFEA7319D94CFDCF9C8281FA
:101BA0000CF40A34AA5B370A3BA12C669E73DF93C0
:101BB0005668CC15F722CCDA4BD20D20C03EC5E6D4
:101BC0002690398274C01A1A0952347A2E8EB42C97
:101BD000B534AE5E8985D09391A930B7144086069E
:101BE0000BD7CBADC46EA0DEA1A95CA5B8AA49BB3A
:101BF00077761A310B7C822E44120F4070D90F1465
:101C00009F55BD9434A189D4E9519D6D07B6D9453E
:101C1000CD3E5FA0C0C2AB82A973F4A4C7AC194F7C
:101C2000EA803827017BDDB3845C270510A080D4CF
:101C3000EF7B022DE4F337A3324338D45DC0561353
:101C4000E0976A5E0111116D31D6F305A82A2F0DB8
:101C500013D737C9BC89ED1D2BEA828EEAF9E0B6AD
:101C6000BDF1165197878DF00BB09D58E4CDC32C74
:101C7000F69437E4275330A69E7BFE0DE70DE4EA89
:101C8000FC8447EA09FEB5FB0C0D28F51226C70AAD
:101C9000533C312342DBBA53975CAD9CE87AB87071
:101CA00011306E709122CBEFEA8C8E224831089869
:101CB000288FD74CB8460D524E419C67A0BE59455F
:101CC0007675666F300267FD1B58A61E4BE3AB7539
:101CD000C057EE749CC9310D861A0EDD13040BA09B
:101CE00003BDC2D12503B60ADF383DA8B26E014E4E
:101CF00069DAA3FA641287CBA860F9B592BA525890
:101D00005C0C1BA80E1CC67703DDEDC7FEFBCD3AAD
:101D10005A358A0A2938FAE3A63676CF09DCADC0EF
:101D20003902C19268902A9AC870378340247A0E8B
:101D300082D0C80CE0AE6C8F46998F41BD77F29887
:101D4000AFBC2DCF5CA2CEFD2C014985DE265916F5
:101D50009CB1CEF7A01265663AFAE5BBD2A99144D0
:101D60005FEA74901EDB932EC810CA59EF6DE98D9F
:101D7000C6BDE63595E98602F5D5EE9D76D14E4B8A
:101D80002D91F6855A05D2559DDC9D415593D2176C
:101D9000012EEBE54D5498A00C7F175127161BB070
:101DA0006BA08DB6DBDD7C32220852C1CE08ED92ED
:101DB000290FF9D1B539C940F7EA62784FFA844A58
:101DC000B553F2EE745ECD844A7096C65E9F6BACDE
:101DD0002E302BBF724DCCE2CE39481E3AC02219AC
:101DE00093106CFC80A9952B13F0A7AB4EB2450362
:101DF0001E56777E780184ABF240470751F48E88F7
:101E00007501C2FAC3AE77FA587B82BAD89C3B748C
:101E10003C424A96D07087695D579505AC3D315874
:101E20000A7AD100191EAF986A218AA491ADDB8984
:101E30009819C7EC0A9227314779E94FFE98862E08
:101E400014BA932E842D05B2B868A6744C18521C8F
:101E50000A12244692C2D830CB8FA723637A809986
:101E6000348E872AEBDD858CD06C6C3A433F27CBD0
:101E70008960DACE0EB9DE15106C3B036EE63F14B6
:101E8000803736D530080F691D28A09557B43270B9
:101E9000B601E13E31CE972F7FA269AB5869169A01
:101EA000FCB56BCD2353A5A74CC38E9A149D6C46ED
:101EB0004518F9219928B5D95BB53FBEC3CEE56D6C
:101EC0001918E5613146EB4A8237DFBAE4EDF1607B
:101ED000AFD2A8DB3DBC392C6A654FA5F48CAA7C37
:101EE000B92193CFD5BBDDDA4A773FD932A691AF7E
:101EF0009E4B849481D9794FA08A1587F4F704E327
:101F0000AE62504626508D4B50623CEE1167EC8D10
:101F10000A24B1A90E0D23734E881274CF9AD7FEEE
:101F2000E0882FDD7C3DD1E1B567B0C031D86C6170
:101F3000DE8FB014987240EF558FE9D1B51836E2B4
:101F4000E190A7A24E49550240419EFEF935BFD30C
:101F50007D70F6AC8B955FE0764A4ACED6D2E3929E
:101F6000170CC6448D96E7629605D0CF5509C388F5
:101F700037C276B4176B7313BB02EC3B4447BCAA61
:101F8000B937EBEAA885151F4AEA78F1D988C22447
:101F90002B331AD8DDE7359D0BF69E63937A7AAF23
:101FA00051EB031130AF765C515E1AF26D19D1829C
:101FB0006DF1C4B8B9D06E473441CC71F680696414
:101FC0004D49A1EB073AABBF74BA78F555089E8E20
:101FD000342D85F7121AE27D529084F3B00109A8DE
:101FE0000F69BD8C857F0F7001061E56B0F38329E3
:101FF000DAB1351AC2308ED2533BD47B1E00DCB12D
:10200000E84367A4305132A8D88E43E12377B0F972
:102010000822AF68070AD09551AD3B7ADF7B3A8D35
:1020200045550C337AA3BA6A56A6478ABC45215E49
:10203000C41D519BC8737D3399E7D2F7CC3A9129DF
:10204000B45B93DDAFBA5DFB7DC4CFEBC19C5B3865
:1020500049C174B14D350C0F1EDA40DD9ED61717FD
:10206000B6E749E6F4552B467B04E9D9E2F4D90AF0
:10207000C707BBBC4CDF06F09E74282EB8676B1AEE
:1020800073E1F4F3BD4A6880DED3409115411C250D
:10209000A7C77CB6BD79BD4EF45BDDF48985938C12
:1020A00073F1C68FDD2A5038F6FA036E43BAB6795B
:1020B000E051CF736A5F6D7CD52B76D1F848677B92
:1020C000E31BCA00F252C99D5668EE40224D4F3FB5
:1020D00050AFAB9985C63DB9507919DA134A2F2B09
:1020E000D4A6A41C9FDA1D078E4C8F7B7C95363EB0
:1020F00094AB51FA26DDD2AAA66FFB32EFFC0EA0FC
:10210000DB87F4C17ED6C7441DE57069519FCB03C0
:102110000BB4A58916D55BFA8DF18B6538E9F241D0
:1021200035BCA4DE087B55BD9BCEEDBD456EA43607
:10213000CC40A48EDB4B897D4EAB33BD522828A208
:10214000B8B0665F676FA1D641AA952B8A4FA85990
:10215000AAD06410372350A1456B1BF4A238FEA20D
:1021600040E63E6446C2DC42763678EB910E317131
:102170005CFB1744EE85F587BDBD14F2EB2851FDDD
:1021800069DD4CBE5BE43490E72066F553A53989E0
:10219000457D171AF0CB95C23AD493587FE6E6A452
:1021A00041E6A2CE3C7B27136C76D43E8EE9FB60E1
:1021B000E9B5602A17006210AC3D224917CE8DC5E3
:1021C0001EFA3A0C454F989D1FB1ABC02541ECD08B
:1021D000274206DB2777998F11E56C0EC54CEED0B0
:1021E000365B0653A0AD787FC593F1482B4809B6FE
:1021F000F8E55236A72BAF3728660DDBD3EDCB16AB
:10220000ED14A0EEC2C59ABA9854A38506F317221E
:10221000F63ADA8B2B0D85EC00E330232A5C105D57
:102220008C3796B7C07846E36BB3030B3570DCFE92
:10223000D14956F3C84469DEC90AD6801B85A09AE5
:1022400019E45D34C086B75C3DB2D3E2568D706749
:10225000A90DD03E6128D1B9995E0E5B99330B77F9
:10226000B8726963804884451C2C6D02699A7E733C
:102270005C2973E4E082EBE9F2978F2461951CE816
:1022800038A957402184F0F3A6AF651D09C52BC0BE
:1022900046EBD436427830C3FFDC2BD5DBFAB4767C
:1022A0000C265E4986860CAEAC2C4EFA4D141003FB
:1022B000FD5851D74400A5E448B83FFC38CDDD7F38
:1022C000580E9E17A05CF1B3C7BD9EAC7903D09E9B
:1022D000CA7BD50F676FD8A4BC20E90C3B568D2B69
:1022E000A36AD70E9176CAB9D59DF60D17D3EC6DBA
:1022F00063AA994D43B54867DDDC4C1E6A93F260D2
:10230000039DB64EDA45F06D264AC4E9AAF1A2C093
:10231000DB11088EB4EB7B99E8D169B30B1EE59F06
:10232000735D5A52D71762DE364146A2E7A7CE4107
:102330008D806B8D3883A235AC81F6EDFAC6A31380
:102340001F4AF9670A5941981BB4D922A8FACF4409
:10235000D28E207EDE497C05F10950C8A9B2AC407E
:102360005FC293F14AC971138E47167E185E47F714
:102370008398D5842958B21322EAD85EEA19986E58
:1023800045184C90CD9C0DC9E348B7983C6FE52D9E
:102390002ACE0D3DF53CC48E00B371BE6B1BD2F24C
:1023A00025EE6A476F1733B81656BB628E6000532E
:1023B00083F487BA3670ED2B23E31248A22B84D81E
:1023C00066C09C8845991F4751BE1251D8CC7CE30A
:1023D000D107A5FD5BA29B4C1B9E4CA306570B028D
:1023E00007126018F73171F66C0C782BD661A9E8EA
:1023F000385CF576431F15104A19EB64A2DFACBBBD
:10240000C3B332ECE20B6C7E0772B177BCD44AB630
:102410003DB1E1A0DBD479A6A3DF0DB57E1613E1B3
:10242000FB120357D3CB58AD9F291A2CC76FAC783A
:102430003E018CA2E1300FB7FD697A11E7829B4221
:10244000AAE7CD0328E2A4870A634F154DAFC2B9AE
:102450004B85E6529404BD273E8F6F7F3D19024D98
:102460007A39DB1CF6C67379E2BAB138450986F5CC
:1024700070AB00225546213E97EAD11FEF0A2F6527
:102480002D557A5CE8EA75F231FD894CD9AB50994B
:102490000B2557AF84C457823D173AA94C341D5DB4
:1024A0005DAEF3DCFBE999B03AF28CEDCB50C8B9E4
:1024B0006796BF5600A00040AA2957C2D504767F70
:1024C0000C1AC3027E246071E710CFD1295FC97551
:1024D00088BF72D2B5527579C349A4E2E828FCB22C
:1024E000A38193332D9CA489B0BFCCBFD4F48018B2
:1024F0003073CBA1D4A3A3FA11D3D6F323AA37CE3A
:10250000B1E4EA05301FF4EFF66D8AADAEA582D8CE
:1025100032658CB88806553B0166653536A9351895
:102520004A1AA2CCCAB88AC868EB75E3EFC75DB097
:102530007D5D80C38799B2B05B667BF268C0346909
:1025400070D5A85CD848CBBB49838DCBDC79CEF560
:102550000B152F58445A0A99BACA60E64D35855969
:10256000AB98CA00F8B57B85FB30F4D8B20016F8FA
:102570008BE7DF61F89AD0F9F678911E35C1E13D1D
:10258000B2AD40E638D3A9E8D819041B48369534D3
:10259000C0F798A16544AA831AB08895D5D4492B71
:1025A0001022AC8AAA68D3053D52D77479E630531D
:1025B000F111B7315E5F4263160836796D8B8E6E0E
:1025C000F181C38308E3CF4667B3DEA9576C7C3B38
:1025D000A1DE9BC4D45078C485EE81E089A618B8EA
:1025E0005B3BD9968DC518877BC6AA1BEAD119A675
:1025F0003015CCE98482331E1A43758CE0C5411D29
:10260000293F15A7067409414EB9FB719CC4159C5E
:10261000CA2C239E5E69821BB46FC1818EE3655A0A
:10262000CF6DEE02541349302CC5B9B82074D2696D
:10263000A0B759CBBE83743CEC6EBC93B94705E29E
:10264000ADD3AA5D816D64029A928C560A091F0C63
:10265000AFA2BFB20759E8309126597A3122D7F19B
:10266000BEC2B98899D5F42A036ADA9489CD54E0B8
:1026700039B3E22E57175FA8EC0E3749D427BC2F89
:1026800040F3DAD83ED860F3801DDF7BAA764CD8C1
:102690008CF89568FA470CF53E5BED219B29F18E8D
:1026A000C18AA2475C4E2F0239CD2BD7A156D6172F
:1026B000A486AB981529993CD2E001BC3F6D795AAC
:1026C0003A4DD9EFACB6B6B0874569B289E4095E38
:1026D00064EC9D9562980251B0516B74FCF5172221
:1026E000BB27CBC136B4B027A4A037ED48E8005DC6
:1026F00046C4BCE5A72A40532878B3D03F0554B45C
:10270000D54901A76071738ED04B81E7A93DCFD425
:102710004221A16534160D35C0D07ED016B80E8981
:102720002EB701B903C56146659B7FA310B6A0EE25
:10273000113DDC04B80D1A349C9575E32E525FCC24
:102740008D5A165FB7C31F109117DF2E547E0E1AD5
:102750009E49DECB41CABFA653A14CE491D5F032CD
:1027600027587AAB0DDBF6959CDC433E1F9AF88226
:10277000B6B0AAB32BFD7C1B4AE84AAEC35E83EA1F
:102780003B150373923DAC1572867F18E538B07027
:10279000251FA4A28D78A080170FEF0C5BBD0BEC5A
:1027A000D15E91CE4F7B416E27E0CC5603E8602D81
:1027B00081FCD3ADACD64945D2EB0C7C18A873D9BB
:1027C000F96D622A4A295F8958069378E8F98118D9
:1027D00079FE63BB76A3E63E87254D3163587823A7
:1027E00081098E1311A37B31C219BC92001336A745
:1027F000930A3B7A0A840EF51E7AC98BF0C7F2E77A
:1028000082864C6AF8D98762F50D815D748FDE5A35
:10281000BCFDD03B8929402AD11E51E6C607CC28F1
:102820002157C96B3B2C282BAFB3A564CBC3E19ACE
:1028300099F1AEAE4EDC83EB8D1E7AA0A9017DB07E
:1028400083056827D0726397BB1C1346C4E4FC95CC
:102850007893BA4328AE8FC3014CA22FC7CEDD5B5D
:10286000FEBE9062049641DA8C6385B36598992B1D
:10287000C6E418EF0E0A01B7DD14B7FD34118A9AC9
:10288000CA1032383FBB14C252634549C22F40F0D0
:10289000381010E75939EFE2608336F8361B6F05C0
:1028A000AC40C3B92E04697BE3DDAD18EF8B7A51E0
:1028B000FCE6760A5EB478B64B929EEE7D64415695
:1028C000A21380EA0047504C2A43FB0AAE251B6E38
:1028D0004F6D94103F11EA7733680089D5A4C07B0F
:1028E000D55A585347EE0248DEBB2707A59B8A9767
:1028F000DF503C8A4F78B503220F2941F269F8BDB9
:102900001F7A988624CE7E3B16A772A7C40930B2E0
:10291000851A6C5ECE93DDA1426096AC340664B03D
:10292000BB787FFEEED90AA229C9F70CA7BBB23D3E
:10293000642FC7BB4924FC50D85F981639FD6ABC88
:102940000D4A3E0DDE7935EBD6D3CE6C8A96AD12AC
:10295000EEDB2E9B49691EB36004CFF5CE281D081F
:102960003CA21E06F9986A61AF0F5846AC70E67D2E
:102970005EB38775AA311827F3731D53905A8BBB2A
:10298000785C4AB64C23DB7E2FAD40E4239AB7C176
:1029900040010D34018FAE78B618A6F2A4C6644D7E
:1029A000A4B7EA984E1455DF21C238F890B8D3AADC
:1029B0003A8443B87C6E6A8F80A755DC0C87C2BD11
:1029C0002A9F5CDE76594494C27A4DA42099A2F1E4
:1029D000AFB02EB1A80EC1A7AA1D93661613628EC2
:1029E0000ECDA3F096837F3B3A55C8D8F8ABEA0AE0
:1029F000131D13D0199D98E25E146E49840859D6B0
:102A00006BF2F5A822E1B7CB4C7E32C50493517826
:102A10002F6B9F98CE641B83685D3597DC1DF5CCCA
:102A20002C1AEB4089D523D8EB5330090D2B535B7F
:102A3000C5A26ED766C76DFD8DF1F2925649DF656E
:102A40005E35D4F6BD3F8A72D8075D3434F4E7E4CE
:102A5000B02283BA5D6EA131E2C9E08FF043E75145
:102A60004CE41D4E48F8D16C1DFBC2F2057623AE36
:102A7000726AF490FB7134FB663B69D519FFABC0F9
:102A8000601C2781DCCD40A135C8BBBC5BF42ACFDC
:102A90002A3BC45CBF1E996E153C045155C1EA8C9B
:102AA00011ADAA158D600884173F9F6FE8E4E3E03D
:102AB00099B094CA9B20DE834E9F2BE7656ACEA215
:102AC0001912EF0540A36C71D818DC3061476CCC4B
:102AD000FF8D75B8DE4EA0A88FA798913028AAB9AF
:102AE0009015F5F1931BC002D45ADE1A6EBB65A295
:102AF0002C4974357A0559DEA1C8EE2E61FFC9D67E
:102B0000747E966219D2E101268C83B6C4028A8D46
:102B1000BA3C70F6A3BBEF2CAE81DA8CEEE38AEE02
:102B2000D50384275F9D3AEA88252FD627D44419F8
:102B30004759B3CCCDD9BEE468CC271D239C377749
:102B4000008F9ABE0C5F70B8DE9C2F15121C804E51
:102B5000FEBC05D31529A927B232BA8258FCA3724C
:102B6000DE0BB961260285EAC52298B1A5A9ED3C24
:102B7000CF8AAE3C5C396ACE53CDC6D2D9F14382FE
:102B80006BFEC3335880A1B0ABFABD532D5BE77920
:102B900075EACC5470E000E4E85EFC334A4150A290
:102BA000DA1CA48369C620245A832E0769F45AB11B
:102BB000B0AB3CAA480B7723D785352197701A050F
:102BC000599A25B944936DEA2FB27E03AEA412FF41
:102BD0006A6389B9FBB656CC222547876E59817F37
:102BE000FBF137BB9522ADD6EA948DA98F4BCDD89A
:102BF00067521669A62E9EF1A17D0083E6AC68BEE1
:102C0000D75C49D9F3292AE81871F1D06DAB282691
:102C1000041C3B4B210AA9F2ED703F703D5D5EA99B
:102C2000B6280BC4AA8B21C13D67A997A5EDF01961
:102C3000525E9019136E3A61B5E736D49E4A96E417
:102C40003DD8B9DA6063E9F6CEEDB629A2B2275BCA
:102C50000A91E56D7E99F455F0AF0455A35229050C
:102C6000B43EBE56D938D9AAA31BCD1586765B874C
:102C700080762689C7871D4102E09F9A5E9B6FE29E
:102C8000005B2C14E118AEBD296F279DB0E3D83648
:102C90009C20B9ED5309166A13F730B3C36636802A
:102CA0007FC603FCEFBD8A7B6FFC0F2DD6CE49B5E6
:102CB0006BF9BD72751F3835A6B5EB0635F7753C57
:102CC000D4755DC6C2E12B88ACFFD2CBEA5911EBBB
:102CD0007A40E4542BF45E7DF555C815A24130F5D9
:102CE0006CC026B18D2EB8E0CD3E589E2B862117A4
:102CF00025A32592B7B513E25E28266A5205CEB702
:102D0000E0EBCC0E7765AB508533D5C1C116755F4E
:102D1000DB63AED216D9F6C86502D6C69ACC4D8909
:102D2000899FF1B7DAED2F95B48D969678CEB53EA2
:102D30006253E2CF87009BE40B89F7ED3564B8CB93
:102D4000E4758FE1D527225FD8D2443CF509939EE4
:102D500065B9E200606A24E7B409289C2709777DF9
:102D6000E05539D20D040CCB6BB2453D929C76F404
:102D70001A3E475DCA557BB03594D9C65E45C2F14F
:102D8000A25A6D51ED54E321B9CE109733F52A586C
:102D900078983AB40DC43EC2144AAEF3DDB497C27B
:102DA000580FAE642433C56D30ACBD73E1C301EA86
:102DB000B4694A31E5F463183913E3AD375CB9DF20
:102DC00061F24861AD7899A1AFDF24F2301EA732DD
:102DD000ED4F1747D7F81064846F146F63A5219BDC
:102DE0003DAE020A7BABE682D195121CBD5309654C
:102DF0006FD08838E984F196C930E9289057706F10
:102E0000C03089A7B44BE096440E709458472FAC5D
:102E1000A758A667868C6835FD0AB430C78372E56B
:102E20000168AA455175E7856CFCA109E31DD752DD
:102E30001285E78B30B8D4FA814712132209A248D1
:102E40002454EE865DE1D96B52216A6EF047448DC1
:102E50003D5AA578A61367A0E2DBDA221E5A212488
:102E600096A16A02F4E0A888DB75C88B107D68CA59
:102E7000F0C35448E4D436995F9D30EAC08391C4CE
:102E8000DD46123C740CA9095B5E43016E454C1D86
:102E9000C9F2A4F6DCAC54E22AA5F032F0F54E00FB
:102EA0004A778566FF16D5D286AF729DCA34E33B5A
:102EB0002373624E42ACC51745F3347987333F998B
:102EC000CC5E68B71881C65C6C264BCCB320403C06
:102ED0009A0B1FB0FCE8B36E3BDA2AD61A517D7903
:102EE0002855A567C09E63378CF7041840BB86E65B
:102EF000F1E3F889E36AABC0021ADBD5DED16DFBE2
:102F00002EDF7521246B16C49E9A0339E8FB753CAD
:102F1000C768F8159E4FD5267CC8D66C49F9EDB523
:102F20009F2A3805117727C224E6938A821909E37C
:102F3000ED79CF8196DE57C24CD78DF38AD1520EF0
:102F40008DDC291C0B8F45E930BCC87160DB077D27
:102F50008E1D8130BFA22DB2E60630503CC33B3DF2
:102F6000B22408F6ECDDF38F0935FB26DB403EB9D1
:102F70006BBA15A5632641731DB65CBDC9FE094435
:102F800082FC26CB72A29F221714CE904F5015437D
:102F900028936D67FF647045F98DE013E6DC58D522
:102FA000B6AB681D45B5C19CA87FFA8C1B26008A6C
:102FB0004B02A47DA021DC3452D207F6DB9C02E355
:102FC000B602B6D7E84437D564E4EC0D8311DCB61D
:102FD00014F47744670AD78666CE817314D64617F1
:102FE000A9314AE12426ED32D0B4D887782AFC8C66
:102FF00088B204F3213F4E28462AFD1D8A2BF6F0A5
:10300000569A39349D4A095DCBFAB3CF8F5745871D
:10301000E981A08540C97B206E2A878F19A6F40319
:103020009878141C455E9A72CBB2F226B871EC0007
:10303000000000003E5B4F5B3E3E6B4F6B3E1C3E14
:103040007C3E1C183C7E3C181C577D571C1C5E7F28
:103050005E1C00183C1800FFE7C3E7FF00182418A7
:1030600000FFE7DBE7FF30483A060E2629792926DC
:10307000407F050507407F05253F5A3CE73C5A7FC6
:103080003E1C1C08081C1C3E7F14227F22145F5F1C
:10309000005F5F06097F017F006689956A60606056
:1030A000606094A2FFA29408047E040810207E2091
:1030B0001008082A1C08081C2A08081E10101010E6
:1030C0000C1E0C1E0C30383E3830060E3E0E06002C
:1030D0000000000000005F00000007000700147FF0
:1030E000147F14242A7F2A12231308646236495657
:1030F00020500008070300001C2241000041221C50
:10310000002A1C7F1C2A08083E0808008070300036
:103110000808080808000060600020100804023E4B
:103120005149453E00427F4000724949494621418C
:10313000494D331814127F1027454545393C4A49FB
:10314000493141211109073649494936464949293A
:103150001E0000140000004034000000081422414A
:103160001414141414004122140802015909063ED3
:10317000415D594E7C1211127C7F494949363E41CE
:103180004141227F4141413E7F494949417F0909EF
:1031900009013E414151737F0808087F00417F418A
:1031A000002040413F017F081422417F40404040C1
:1031B0007F021C027F7F0408107F3E4141413E7F19
:1031C000090909063E4151215E7F09192946264910
:1031D00049493203017F01033F4040403F1F2040E7
:1031E000201F3F4038403F631408146303047804F1
:1031F000036159494D43007F4141410204081020B9
:10320000004141417F04020102044040404040002F
:103210000307080020545478407F28444438384439
:10322000444428384444287F385454541800087EB5
:10323000090218A4A49C787F0804047800447D4007
:10324000002040403D007F1028440000417F4000A6
:103250007C047804787C080404783844444438FCBE
:103260001824241818242418FC7C08040408485442
:1032700054542404043F44243C4040207C1C2040FF
:10328000201C3C4030403C44281028444C909090F6
:103290007C4464544C440008364100000077000030
:1032A000004136080002010204023C2623263C1E8F
:1032B000A1A161123A4040207A3854545559215501
:1032C0005579412154547841215554784020545522
:1032D00079400C1E5272123955555559395454546F
:1032E0005939555454580000457C410002457D42EF
:1032F0000001457C40F0292429F0F0282528F07CA5
:10330000545545002054547C547C0A097F49324965
:103310004949323248484832324A4848303A4141B5
:10332000217A3A42402078009DA0A07D394444444F
:10333000393D4040403D3C24FF2424487E494366BB
:103340002B2FFC2F2BFF0929F620C0887E09032094
:10335000545479410000447D413048484A32384055
:1033600040227A007A0A0A727D0D19317D262929B8
:103370002F28262929292630484D402038080808BA
:103380000808080808382F10C8ACBA2F102834FADB
:1033900000007B000008142A142222142A14089525
:1033A00000220095AA005500AAAA55AA55AA000015
:1033B00000FF00101010FF00141414FF001010FF85
:1033C00000FF1010F010F0141414FC001414F70097
:1033D000FF0000FF00FF1414F404FC141417101F66
:1033E00010101F101F1414141F00101010F00000F4
:1033F00000001F101010101F10101010F01000000F
:1034000000FF101010101010101010FF100000001E
:10341000FF140000FF00FF00001F10170000FC0455
:10342000F414141710171414F404F40000FF00F738
:1034300014141414141414F700F71414141714109B
:10344000101F101F141414F4141010F010F00000CA
:103450001F101F0000001F14000000FC140000F0EB
:1034600010F01010FF10FF141414FF141010101F90
:1034700000000000F010FFFFFFFFFFF0F0F0F0F0A1
:10348000FFFFFF0000000000FFFF0F0F0F0F0F38BE
:10349000444438447C2A2A3E147E02020606027EF8
:1034A000027E0263554941633844443C04407E2017
:1034B0001E2006027E020299A5E7A5991C2A492A28
:1034C0001C4C7201724C304A4D4D303048784830B7
:1034D000BC625A463D3E494949007E0101017E2AAF
:1034E0002A2A2A2A44445F444440514A44404044E2
:1034F0004A51400000FF0103E080FF000008086B14
:103500006B083612362436060F090F06000018180D
:103510000000001010003040FF0101001F01011EDB
:1035200000191D1712003C3C3C3C00000000000646
:10353000011501260137014A015D01720188019FD1
:1035400001B801D201EE010B022A024B026E029376
:1035500002BA02E40210033F037003A403DC031762
:103560000455049704DD0427057505C80520067D6C
:1035700006E0064907B8072D08A9082D09B9094D25
:103580000AEA0A900B400CFA0CC00D910E6F0F5A0C
:103590001053115B1272139A14D41520178018F56A
:1035A00019801B231DDE1EB420A622B524E4263478
:1035B00029A72B402E0031EA330037453ABC3D683D
:1035C000414C456B49C84D68524F57805C006210B2
:1035D000111213151617181A1C1D1F212325272930
:1035E0002C2E3134373A3E4145494E52575C626881
:1035F0006E757B838B939CA5AFB9C4D0DCE9F700D3
:1036000000000200090F0000030401000C0000008C
:1036100000000000000000000000000000000301A6
:1036200000000000240027002A002D003000D5F003
:103630008D1410A1C881CFD9F1AF20000408020178
:1036400010408040102040804080080204018040EB
:1036500020100201108010204040200000000025B2
:103660000028002B002E003100040404040403048D
:103670000502020202040302020202060606060610
:1036800006040402020204041402130212021502C8
:103690000702080204010C010601000524D8237565
:1036A00025FE25CF28A026080B00020202000009F3
:1036B000040000010202000005240010010524019D
:1036C00001010424020605240600010705810310F8
:1036D000004009040100020A000000070502024040
:1036E00000000705830240000004030904120100E2
:1036F00002EF020140412336800001010203014133
:10370000726475696E6F204C4C430041726475623F
:103710006F7900004D2E11241FBECFEFDAE0DEBF1F
:10372000CDBF11E0A0E0B1E0EAEBFAE602C00590FF
:103730000D92A233B107D9F726E0A2E3B1E001C0B0
:103740001D92A032B207E1F71BE1CBE8DBE104C038
:103750002197FE010E945035CA38D107C9F70E944F
:10376000842E0C945B350C9400002F923F924F9264
:103770005F926F927F928F929F92AF92BF92CF9201
:10378000DF92EF92FF920F931F93CF93DF9300D0BE
:1037900000D01F92CDB7DEB730E0F901E80FF91F76
:1037A000F7FD84C0803891050CF080C0A02FA6954D
:1037B000A695A695B0E0077009F011967B01E7E0A9
:1037C000EE22FF24481B590B2B0173E055944794BC
:1037D0007A95E1F710E000E068E070E0FB01EE1997
:1037E000FF09FD83EC83A017B10709F45FC06201F4
:1037F000C00ED11EF8E0CF16D1040CF057C0360130
:103800007694762C6624779467944301880E991EEB
:1038100060E8660E711C680E791EB40160507E4F20
:103820007B836A83BC0177FD2BC05B01A40EB51EB0
:10383000F5012490E22DF0E01F010E2C01C0220CB6
:103840000A94EAF7EA81FB8134882328248AE11468
:10385000F104B1F0F7E0CF16D10491F0F501A49096
:10386000EA81FB81E819F909E60DF71DB12C0C80FE
:1038700002C0B594A7940A94E2F7B488AB28A48A4E
:103880006F5F7F4FEA81FB813196FB83EA83FB0107
:10389000E81BF90BE217F30724F46038710509F00F
:1038A000C2CF0F5F1F4F420F531F9DCF0F900F903E
:1038B0000F900F900F90DF91CF911F910F91FF907C
:1038C000EF90DF90CF90BF90AF909F908F907F90C0
:1038D0006F905F904F903F902F90089584E192E019
:1038E00020E0B22FB111BFEFFC010024B193B193DE
:1038F000B193B1930394D1F70895FC018091A8018D
:10390000882311F13FB7F89482E08093E900209179
:10391000F200822F90E01816190614F481E090E06E
:10392000882339F0289844E64093A7014091F1009C
:103930004083222339F02091F200211103C02BE6AD
:103940002093E8003FBF08958FEF9FEF08952FB7B2
:10395000F89483E08093E9009091E800892F8072C9
:1039600095FF04C09091F20080E4891B2FBF089559
:1039700080919F0181110DC082E080939B0184E0C2
:1039800080939C0110929E0110929D0181E0809392
:103990009F018BE991E00895CF93DF931F92CDB7FC
:1039A000DEB76983DC01ED91FC910280F381E02DAB
:1039B00041E050E0BE016F5F7F4F09950F90DF91AE
:1039C000CF91089583E08093E9008091F2008823ED
:1039D00019F08AE38093E80008950E94A71C90E004
:1039E0000895CF93DF931F92CDB7DEB7FC01848596
:1039F000958597FD08C02FEF3FEF358724870F90FF
:103A0000DF91CF910895CE0101960E947D1C019710
:103A100019F4898190E0F3CF8FEF9FEFF0CF0F93F0
:103A20001F93CF93DF931F92CDB7DEB78C01FC01BC
:103A30008485958597FF0BC0CE0101960E947D1C61
:103A4000019771F4898190E0F80195878487F801E6
:103A5000848595850F90DF91CF911F910F910895E7
:103A60008FEF9FEFF1CFFC018485958597FD0BC00B
:103A70009FB7F89482E08093E9008091F2009FBFA5
:103A800090E0019608959FB7F89482E08093E90052
:103A90008091F2009FBF90E0089540919501509170
:103AA0009601209193013091940142175307B4F489
:103AB0009091E8009570E1F39091E80092FD19C0B3
:103AC0008093F100809195019091960101968F73FA
:103AD0009927892B19F48EEF8093E8008091950146
:103AE000909196010196909396018093950181E0C3
:103AF000089580E00895EF92FF920F931F93CF9364
:103B0000DF93F82E192FE62E042F81E0860F880F01
:103B10000E944D1D83E00E944D1DCF2DD12FEC0E34
:103B2000FD2EF11CCE15DF05B9F007FF13C0FE0115
:103B300084910E944D1D182F80E00E944D1D81230D
:103B400021968111EFCFDF91CF911F910F91FF90BF
:103B5000EF9008958881EDCF81E0F5CFDF92EF926D
:103B6000FF920F931F93CF93DF93D82E8A01EB011F
:103B70007B01E40EF51ECE15DF0559F0D7FE12C00D
:103B8000FE0184910E944D1D21968111F4CF0FEF0B
:103B90001FEFC801DF91CF911F910F91FF90EF9020
:103BA000DF9008958881EECF0F931F93CF93DF931B
:103BB0001F92CDB7DEB782E0898342E450E067EA26
:103BC00076E380E80E94AE1D0E94B81CDC011296CC
:103BD0000D911C910115110589F0D801ED91FC9111
:103BE0000280F381E02DBE016F5F7F4FC801099510
:103BF00097FD04C0F80100851185ECCF89810F90F5
:103C0000DF91CF911F910F910895615030F0209175
:103C1000F100FC0120830196F8CF289884E6809378
:103C2000A7010895AF92BF92CF92DF92EF92FF92D9
:103C30000F931F93CF93DF936C017B018B01040FD4
:103C4000151FEB015E01AE18BF08C017D10759F070
:103C50006991D601ED91FC910190F081E02DC601B2
:103C60000995892B79F7C501DF91CF911F910F91AC
:103C7000FF90EF90DF90CF90BF90AF900895282FE6
:103C800030E0F901E150FA4C9491F901E45CF94C0F
:103C900084912759394CF9012491222309F430C029
:103CA0009923E9F091509F30D0F4E92FF0E0E55AE4
:103CB000F14E0C945035891E8D1E6A1E811E851E84
:103CC0006F1E6F1E6F1E901E961E9A1E9E1EA41EB5
:103CD0006F1EA81E909180009F7790938000E22F26
:103CE000F0E0EE0FFF1FE55AF94CA591B4919FB794
:103CF000F894EC91611132C080958E238C939FBF14
:103D00000895909180009F7DE8CF90918000977FEB
:103D1000E4CF94B59F7794BDE2CF94B59F7DFBCF60
:103D2000909190009F7790939000D9CF90919000C0
:103D30009F7DF9CF90919000977FF5CF9091C00033
:103D40009F779093C000CBCF9091C0009F7DF9CF1B
:103D50009091C200977F9093C200C1CF8E2BCECF9F
:103D6000CF93DF9390E0FC01E45CF94C24918759F8
:103D7000994CFC0184918823C9F090E0880F991F29
:103D8000FC01E05EF94CA591B491FC01E55AF94CB7
:103D9000C591D49161110DC09FB7F8948C91209575
:103DA00082238C938881282328839FBFDF91CF9122
:103DB0000895623051F49FB7F8943C91822F80951A
:103DC00083238C93E8812E2BEFCF8FB7F894EC915F
:103DD0002E2B2C938FBFEACF1F93CF93DF93182FF7
:103DE000EB0161E00E94B01E209739F460E0812F62
:103DF000DF91CF911F910C943F1ECF3FD10511F45D
:103E000061E0F5CFE12FF0E0E150FA4CE491E150B0
:103E1000EF3008F07FC0F0E0E05FF04E0C945035DA
:103E20001F1F271F2C1F361F401F8A1F8A1F8A1F14
:103E30004A1F541F5E1F681F751F8A1F7D1F84B590
:103E4000806884BDC7BDDF91CF911F91089584B56F
:103E5000806284BDC8BDF7CF809180008068809368
:103E60008000D0938900C0938800EDCF80918000BE
:103E7000806280938000D0938B00C0938A00E3CF50
:103E800080918000886080938000D0938D00C093E3
:103E90008C00D9CF80919000806880939000D0935F
:103EA0009900C0939800CFCF80919000806280935A
:103EB0009000D0939B00C0939A00C5CF8091900052
:103EC000886080939000D0939D00C0939C00BBCFEE
:103ED0008091C00080688093C0008091C0008F7B7B
:103EE0008093C000C093CF00AECF8091C0008062AD
:103EF0008093C000C093D000A6CF8091C20088609C
:103F00008093C2008091C2008B7F8093C200C093D7
:103F1000D20099CFC038D1050CF072CF67CF0F9384
:103F20001F93CF93DF93062F142FCFEFD0E0BE0166
:103F3000681B71098AE00E94EC1EBE01601B7109BA
:103F40008BE00E94EC1EBE01611B710989E0DF91CC
:103F5000CF911F910F910C94EC1E3FB7F894809174
:103F60007C0190917D01A0917E01B0917F0126B5E9
:103F7000A89B05C02F3F19F00196A11DB11D3FBFA1
:103F8000BA2FA92F982F8827BC01CD01620F711D70
:103F9000811D911D42E0660F771F881F991F4A956A
:103FA000D1F708958F929F92AF92BF92CF92DF92F6
:103FB000EF92FF924B015C010E94AD1F6B017C01EF
:103FC0000E94AD1F6C197D098E099F09683E7340E0
:103FD00081059105A8F321E0821A9108A108B10892
:103FE00088EEC80E83E0D81EE11CF11C81149104F8
:103FF000A104B10429F7FF90EF90DF90CF90BF901C
:10400000AF909F908F9008958F929F92AF92BF92A2
:10401000CF92DF92EF92FF920F931F93CF93DF9394
:104020006C017B018A0180910B01882309F45CC03B
:104030008091A801882309F457C080919A0180FFDC
:1040400005C08091E00082608093E000E801B12C1F
:104050008AEFA82E93E0892E2AE3922E209711F45E
:10406000BB20D9F10E94A71C81110AC0AA94AA20E2
:10407000D9F161E070E080E090E00E94D21FEECFC5
:104080008C171D0611F00CF08C2F9FB7F8948092BE
:10409000E9002091E80025FD02C09FBFDFCF282F57
:1040A00030E0C21BD30BF701815020F041914093C7
:1040B000F100FACFE20EF31EBB2021F09092E8004F
:1040C000B12CEBCF8091E80085FDE7CF9092E8001E
:1040D000BB24B394209709F3F3CF5D9884E68093D3
:1040E0009901101611063CF081E090E0F6019383EF
:1040F000828310E000E0C801DF91CF911F910F9102
:10410000FF90EF90DF90CF90BF90AF909F908F90F7
:1041100008954FB18CB123B190E08095909533E034
:10412000959587953A95E1F7887030E02095309520
:1041300035952795359527952470822B942F90954A
:10414000907F892B089583B7817F83BF83B7816078
:1041500083BF889583B78E7F83BF0895E0918B01DD
:10416000F0918C01908180918A01982B9083A0918D
:104170008801B09189012C919091870190959223AB
:104180009C9390818095892380830895E091880194
:10419000F0918901808190918701892B8083E09142
:1041A0008B01F0918C01908180918A018095892307
:1041B00080830895CF92DF92EF92FF920F931F9327
:1041C000CF93E82FF0E0E25EF94CC491E62FF0E0E7
:1041D000603398F5E153FA4CE4910E2F10E0F12C86
:1041E000E12C60E074E284EF90E0A70198010E9466
:1041F0003731215031094109510991E0211531052B
:1042000081E0480751056CF060E970ED83E090E0D3
:10421000A70198010E943731215031094109510904
:1042200093E0C13089F0C330F9F0CF911F910F9125
:10423000FF90EF90DF90CF900895EE0FFF1FE153B6
:10424000FB4C05911491CBCF80918100887F892B05
:1042500080938100309389002093880080916F00C3
:10426000826080936F00E1CF80919100887F892BDD
:1042700080939100309399002093980010937A01D5
:104280000093790181E080937801809171008260D0
:1042900080937100CACFE82FF0E0E25EF94CE49120
:1042A000E13019F0E33089F0089580916F008D7F3F
:1042B00080936F0080918301E0918401F0918501EA
:1042C0009081809589238083089510927801809150
:1042D0008001E0918101F0918201F2CFE091AB0188
:1042E000F091AC01BF016F5F7F4F7093AC016093A1
:1042F000AB012491922F907F822F8F70903819F408
:104300000E944B21EBCF903981F43296F093AC01AF
:10431000E093AB01FB0164919091A9018917F0F63C
:1043200067FDDCCF0E94DA20D9CF903E49F480911E
:10433000AD019091AE019093AC018093AB01CECFD3
:10434000903F19F41092AA01089597FDC7CF3296B5
:10435000F093AC01E093AB01FB016491A091790172
:10436000B0917A01322F262F0E9478316C507E4F07
:104370008F4F9F4F28EE33E040E050E00E945631CF
:104380002093740130937501409376015093770127
:104390008091740190917501A0917601B09177019F
:1043A000892B8A2B8B2B61F481E090E0A0E0B0E0B8
:1043B0008093740190937501A0937601B093770177
:1043C00008950F931F93CF93DF932091AF01222382
:1043D00029F1162FEC018091AA01882381F08091A8
:1043E0001E068617D8F000E08091A901081728F46E
:1043F000802F0E944B210F5FF7CF1092AA011093DC
:104400001E06D093AE01C093AD01D093AC01C09312
:10441000AB010E946E2181E08093AA01DF91CF91D0
:104420001F910F91089560387105E8F440345105EB
:10443000D0F4342F369536953695A0E83A9FF001A2
:104440001124E60FF71FE80FF91F3489CA0187709E
:10445000992741E050E001C0440F8A95EAF72223F2
:1044600019F0432B448B089540954323FBCF2F92A3
:104470003F924F925F926F927F928F929F92AF92F4
:10448000BF92CF92DF92EF92FF920F931F93CF9341
:10449000DF93CDB7DEB72D970FB6F894DEBF0FBE12
:1044A000CDBF6A3069F5FC01EA5EFB4FDC01A85E16
:1044B000BB4F2C9148E0249F9001112440815181F1
:1044C000240F351F3183208314971D921C922D9643
:1044D0000FB6F894DEBF0FBECDBFDF91CF911F9115
:1044E0000F91FF90EF90DF90CF90BF90AF909F9093
:1044F0008F907F906F905F904F903F902F90089596
:104500006D3029F39D878C878C5E9B4F9A838983BE
:10451000FC01808091802C853D85285E3B4F3C834B
:104520002B8330E8831691040CF071C0EC85FD8577
:10453000EA5EFB4F6080718040E4641671040CF009
:1045400066C0AB81BC814C9045E09401449E200D37
:10455000311D1124121613060CF059C0242C312CD5
:10456000910153E0220F331F5A95E1F7260D371DB5
:10457000121613060CF04BC0649FB001112410E01A
:1045800000E0FB01E15DFF4CFB87EA87E0E00530DE
:1045900029F0EA85FB85E00FF11FE491530198E0D3
:1045A000592E2E2F30E03E832D83E170EF83F12CC6
:1045B000E12CE414D8F4C4018E0D9F1D99878887DF
:1045C000D12CC12CC41470F4A6014A0D5B1D2F819F
:1045D000688579858C859D850E9413229FEFC91A75
:1045E000D90AF0CFAFEFEA1AFA0AE3CFED81FE81E4
:1045F000F595E7955A94A20CB31C5110D2CF0F5FDA
:104600001F4F820C931C0630110509F0BFCFEB81C0
:10461000FC812081422F50E0A981BA818D919C912B
:10462000B6E02B9F800D911D1124E981FA819183C1
:104630008083EC85FD85E75EFB4F2081222309F412
:1046400046CF6AEF64039001659F300D1124205816
:104650003F4F281739070CF03ACFAC85BD85ED9157
:10466000FC9111970190F081E02D6AE0CD012D962B
:104670000FB6F894DEBF0FBECDBFDF91CF911F9173
:104680000F91FF90EF90DF90CF90BF90AF909F90F1
:104690008F907F906F905F904F903F902F900994F4
:1046A000CF92DF92EF92FF920F931F93CF93DF93FE
:1046B0007C0163E070E00E943C359B018B01077038
:1046C000112785E0809FE001819FD00D1124C95BF7
:1046D000DE4F888199816817790771F1FB01F695A2
:1046E000E795F695E795E60FF71FE65DF74F84919E
:1046F0003196E491FE2FE82FCB0183709927880F24
:10470000991F02C0F695E7958A95E2F7F3705AE093
:10471000C52ED12CCF01B6010E9428358A83CB014A
:10472000B6010E9428358B83CF0164E670E00E94B9
:1047300028356C8339832883C70163E070E00E94C9
:104740003C3525E0209FF001219FF00D1124E95B0D
:10475000FE4FE80FF91F8281DF91CF911F910F91DA
:10476000FF90EF90DF90CF900895809146018823CD
:10477000E1F0E0914401F0E0E05EF74FE4918E2F2C
:1047800069E10E941C358093430125E08E2F622F42
:104790000E941C35392F0E941C35909342013093A2
:1047A000410180E1809345010895109245010895EB
:1047B000CF93C0913301C150C09333012C2F2F50A0
:1047C000330BC90163E070E00E943C35862F4AE359
:1047D0005AEA63EE7EEE04C0769567955795479545
:1047E0008A95D2F74170409332018FE7489F402D60
:1047F000112460E080E00E948F1F81E090E0CC23D4
:1048000011F090E080E0CF91089588E78093330124
:1048100008952F923F924F925F926F927F928F9264
:104820009F92AF92BF92CF92DF92EF92FF920F933F
:104830001F93CF93DF93CDB7DEB72F970FB6F894C2
:10484000DEBF0FBECDBF6A3071F5FC01EA5EFB4FE3
:10485000DC01A85EBB4F4C912081318156E0459F21
:10486000200D311D11243183208314971D921C9239
:1048700081E090E02F960FB6F894DEBF0FBECDBF5B
:10488000DF91CF911F910F91FF90EF90DF90CF902C
:10489000BF90AF909F908F907F906F905F904F9060
:1048A0003F902F90089520EE260F203408F79F8721
:1048B0008E878C5E9B4F9E838D83FC0100811181CE
:1048C0002E853F85285E3B4F3987288700381105A4
:1048D0000CF065C0EE85FF85EA5EFB4F808191811B
:1048E0009B838A83803491050CF059C0D9018C9147
:1048F000482E512C9801B5E08B9F200D311D1124BD
:1049000037FD4DC02A813B81E6E08E9F200D311D91
:10491000112437FD44C0EE85FF85E55EFB4F7080B6
:10492000EE85FF85E65EFB4F608024E0629FF0012C
:104930001124E255FF4F85909590A590B490813059
:1049400009F05FC026E0D22EF12CE12CD501C40184
:1049500081709927AA27BB2780FC02C0761479F0C2
:10496000262D892B8A2B8B2B09F4272D4A815B81DD
:104970004E0D5F1DB8018E859F850E941322B6944F
:10498000A794979487943FEFE31AF30A56E0E5164D
:10499000F104E1F6DA940F5F1F4FD110D5CFA8854F
:1049A000B9852C91422F50E0ED81FE81808191816B
:1049B000F6E02F9F800D911D1124AD81BE818D9356
:1049C0009C93EE85FF85E75EFB4F2081222309F44F
:1049D0004FCF6AEF64039001659F300D112420587A
:1049E0003F4F281739070CF043CFAE85BF85ED91B7
:1049F000FC9111970190F081E02D6AE0CD010995BD
:104A000037CF180186E089830A811B8196E09C8359
:104A1000D101A40DB51DBD87AC87D501C40181703E
:104A20009927AA27BB2780FC02C0761481F1892B25
:104A30008A2B8B2B31F16F826101F801E40DF51D9A
:104A4000FB87EA872C853D85C216D30604F57801DD
:104A500017FF02C0F12CE12C8A859B8581349105DA
:104A600014F080E490E0E816F9066CF42F81A701B9
:104A7000B6018E859F850E9413223FEFE31AF30A49
:104A8000EBCF7F82D9CF5FEFC51AD50ADBCFB694C3
:104A9000A794979487948C8181508C83040D151D65
:104AA0008111BBCF998191509983240C351C9111B0
:104AB000ABCF75CF0F931F93CF93DF938C01D0E0D3
:104AC000C0E0F801EC0FFD1F6491662341F080E027
:104AD00092E00E940924892B11F02196F2CFCE0199
:104AE000DF91CF911F910F910895AF92BF92CF9216
:104AF000DF92EF92FF920F93CF93DF930E946E1C91
:104B00002091330188E790E0821B91096CE270E00C
:104B10000E943C355B0183E7E82E82E0F82E9CE1A1
:104B2000C92ED12CD0E0C0E081E090E0AC16BD06EB
:104B300011F090E080E020913201289FB001299F80
:104B4000700D1124645F7F4F00E228E1A701C601C8
:104B50000E94B51B219688E1C80ED11C80E6E80EA4
:104B6000F11CC330D10501F708E020E243E552E033
:104B70006CE270E084E490E00E94B51B80E190E07C
:104B800090931506809314068AE390E0909317069D
:104B90008093160682E492E00E945A2587E090E016
:104BA000909315068093140610921706109216061D
:104BB0008EE292E0DF91CF910F91FF90EF90DF9026
:104BC000CF90BF90AF900C945A251092AF01E5E6BC
:104BD000F0E08081886080830895089590E080E00F
:104BE00008958038910548F4FC01EC5EFB4F80810C
:104BF00088618083818188618183089510923E015C
:104C000010923D018FEF9FEF9093480180934701F1
:104C10008FEF9FE590933701809336011092390111
:104C20001092380190E080E00E945023809344016C
:104C300082E080933501E7E2F4E0E491E0933A0109
:104C4000109245011092460110923B0110923C01D6
:104C500010923F0181E0809340010C94E5258F92F2
:104C60009F92AF92BF920F931F93CF93DF93CDB7D5
:104C7000DEB7A1970FB6F894DEBF0FBECDBF19A265
:104C8000423008F44AE08E010F5D1F4F842E912CB4
:104C9000B12CA12CA50194010E945631E62FB90137
:104CA000CA01EA3044F5E05DD801EE938D01232B73
:104CB000242B252B79F790E080E0109769F0FD0117
:104CC00001900020E9F73197AF014A1B5B0BBD0152
:104CD00080E092E00E94121EA1960FB6F894DEBF0B
:104CE0000FBECDBFDF91CF911F910F91BF90AF90BD
:104CF0009F908F900895E95CD7CFCF92DF92EF928B
:104D0000FF92CF93DF936B017C016DE280E092E034
:104D10000E940924EC0166277727CB016C197D09D5
:104D20008E099F094AE00E942F268C0F9D1FDF915C
:104D3000CF91FF90EF90DF90CF9008950E9456356D
:104D4000CF92DF92EF92FF920F931F93CF93DF9357
:104D500080914001882309F4D7C10E946E1C809184
:104D60003F01882309F456C008E128E148E854E0EF
:104D700062E070E088E190E00E94B51B20E148E32A
:104D800055E062E070E088E390E00E94B51B20E10E
:104D900048E955E062E070E088E490E00E94B51BCD
:104DA00020E148EB56E062E070E088E590E00E9488
:104DB000B51B0EE110E0C3E3D4E0FE0184918B311A
:104DC00009F4A0C165E170E0CE010E9424317C01AC
:104DD0006C01DD24282F3DEF3203C0011124805CDB
:104DE0009F4F909315068093140610931706009317
:104DF0001606CE010E945A258FEFC81AD80ACC0D8C
:104E0000DD1D82E090E0EE2011F086E090E0080FDA
:104E1000191FD3CFC0903D01D0903E01F12CE12C61
:104E200098E0C916D10424F44EEFE42EFF24FA943E
:104E3000E6012797D7FD19C0CE010E945023E0E17B
:104E40008E02A00111244851594F0EE028E068E17C
:104E500070E0C7010E94B51B209739F4C70108967E
:104E60000E94F125F2E0EF0EF11C28E0E20EF11CA9
:104E70002196CC16DD06F1F64091440130E3439FC4
:104E8000A001112448525B4F08E120E160E170E08D
:104E900088E390E00E94B51B28E4E22EF12C2097D5
:104EA00039F488E490E00E94F1253AE4E32EF12CF5
:104EB000CC24C394D12CC6018C0F9D1F20913601A8
:104EC00030913701281739070CF039C108E028E084
:104ED00040ED54E068E170E0C7010E94B51B1092FC
:104EE000150610921406109217061092160688E105
:104EF00098E00E945A258CE090E0909315068093EC
:104F0000140686E090E0909317068093160682E1DF
:104F100098E00E945A2560913D0170913E01072E54
:104F2000000C880B990B20E330E03093150620939A
:104F3000140623E030E0309317062093160697FFFF
:104F400019C10E947D2680913C01811120C0809171
:104F50003D0190913E01892BD1F407E027E044E028
:104F600058E070E060E084E590E00E94B51B8CE5BD
:104F700090E0909315068093140681E090E0909362
:104F800017068093160688EE97E00E945A2507E0E0
:104F900027E04FEE57E068E370E090E080E00E9489
:104FA000B51B40914601CDE0C49FA0011124435799
:104FB000584F08E02DE068E370E088E090E00E9440
:104FC000B51B07E027E046EF57E068E370E080E2BA
:104FD00090E00E94B51B80913B0190E00296C89F33
:104FE000A001C99F500D11244357584F08E02DE0F0
:104FF00068E370E088E290E00E94B51B07E027E0DC
:105000004DEF57E068E370E080E490E00E94B51B4C
:1050100080913C01882309F4B1C060913A0170E0AD
:105020008CE390E00E943C35EB018BE490E09093A0
:1050300015068093140689E390E0909317068093F9
:105040001606072E000C880B990B4AE00E942F26AB
:1050500081E590E0CA3010F087E590E008E02DE0AF
:1050600041EC57E068E370E00E94B51B07E027E0E1
:105070004BE058E068E370E088E690E00E94B51BE2
:1050800080913C0190E005962DE0289FA001299F8A
:10509000500D11244357584F08E068E370E080E753
:1050A00090E00E94B51B80913801909139018837BA
:1050B000910544F18091360190913701BC016F5FF9
:1050C0007F4F77FF02C061587F4F660F672F661FC3
:1050D000770B80913D0190913E010E943C356038F4
:1050E000710530F4FB01EC56FB4F80818C678083A7
:1050F000E4E9F4E024E135E08081806181932E17BA
:105100003F07D1F710924001809145014091410144
:10511000849F402D112460914201869F602D1124AF
:1051200090914301899F802D1124DF91CF911F9190
:105130000F91FF90EF90DF90CF900C948F1F0E9403
:10514000502390E18902A00111244851594F0EE0EB
:1051500028E068E170E0C7010E94B51BEFEFCE1AAE
:10516000DE0AF8E0EF0EF11C28E0C216D10409F0C7
:10517000A2CEB5CE4AE00E942F26E5CE8BE490E089
:10518000909315068093140689E390E09093170698
:105190008093160688E897E00E945A2567CFCF9241
:1051A000DF92EF92FF920F931F93CF93DF93809143
:1051B0004501882319F081508093450190911D0687
:1051C00080913F01882309F120911C0630E0209551
:1051D00030959C70892F90E082239323892B51F086
:1051E0006FEF83E993E00E94E12110923F0181E09B
:1051F0008093400181E090E0DF91CF911F910F916A
:10520000FF90EF90DF90CF90089580913C0188232C
:1052100009F420C120911C0630E020953095892F9B
:105220008223E0E085FF07C0E1E0209135012111F4
:1052300001C0E0E0E19586FF05C0809135018D3029
:1052400008F4EF5FEE23A1F08091340190913501D5
:10525000E90FE0933501F0E0EB5DFB4FE491E09363
:105260003A01E81710F4E093340181E080934001A3
:1052700080913401815080933401811124C1809147
:105280003A0180933401C1E0D0E060913D0170911A
:105290003E0100913601109137011616170614F4DD
:1052A000D7FD06C0601771079CF51C161D0684F516
:1052B0006C0F7D1F77FD3BC170933E0160933D01F4
:1052C00080913D0190913E010817190724F4109335
:1052D0003E0100933D01E0903D01F0903E01C70189
:1052E0000E945023C82F809344010E94B5232EE0D2
:1052F000C29FC001112460E087569C4F0E94E121AB
:105300000E151F0511F410923C0181E080934001BD
:1053100080911D06807890E020911C0630E0209559
:10532000309582239323892B51F080914601C1E06F
:105330008C27809346010E94B523C0934001809141
:105340001C0690E08095909520911D06207130E01C
:1053500082239323892BF1F080913B0191E08927EF
:1053600080933B01882309F4E7C080916500877F23
:10537000809365009093AF01809144012EE0829F5D
:10538000C001112460E087569C4F0E94E12181E01A
:105390008093400180911D06887090E020911C064A
:1053A00030E02095309582239323892BC1F08091A2
:1053B0003C01811114C080913D0190913E01892BE7
:1053C00071F46FEF83E993E00E94E12181E0809323
:1053D0003F01109239011092380180934001809171
:1053E0001D06847090E020911C0630E020953095D9
:1053F00082239323892B09F4FDCE80913C0191E017
:10540000892780933C01109239011092380188233A
:1054100009F4EDCE0E94B523809144012EE0829FD5
:10542000C001112460E087569C4F0E94E1218091C9
:105430003A018093340120913D0130913E018091E9
:105440003601909137012817390709F0D0CE109214
:105450003C01CDCE95FB222720F930E0CC27DD277B
:10546000C21BD30B96FF04C0C1E0D0E0C21BD30B1C
:105470008091380190913901209709F44DC0803C0A
:1054800023E092072CF40196909339018093380120
:10549000609138017091390168377105BCF4CB0116
:1054A00002978231910578F04297889728F4CB01D2
:1054B00083709927892B39F4CB01CC97CC9708F0CE
:1054C000E4CE60FFE2CED0E0C0E0DFCE68577109E5
:1054D000072E000C880B990B0E94313220E030E03F
:1054E00040E752E40E9487319B01AC0160E070E02C
:1054F00080E090E40E942A336B017C01BE01DD0F45
:10550000880B990B0E943132A70196010E94BD328F
:105510000E94F931EB01B9CE883791051CF081E08A
:10552000809340011092390110923801AECE109252
:105530003E0110923D01C4CE0E94E5251DCF1F9271
:105540000F920FB60F9211248F939F938091E100D9
:105550009091E100937F9093E10083FF0FC0109240
:10556000E90091E09093EB001092EC0092E39093AD
:10557000ED001092A80198E09093F00082FF22C005
:1055800093E09093E9009091F200992319F09AE347
:105590009093E80090919901992341F0909199019D
:1055A000915090939901911101C05D9A9091A7013A
:1055B000992341F09091A70191509093A7019111E7
:1055C00001C0289A84FF18C08091E2008E7E81601D
:1055D0008093E2008091E1008F7E8093E1008091D2
:1055E0009A018E7E806180939A019F918F910F9096
:1055F0000FBE0F901F90189580FFF7CF8091E200AB
:105600008E7E80618093E2008091E1008E7E8093A7
:10561000E10080919A018E7E8160E5CF1F920F920A
:105620000FB60F921124CF92DF92EF92FF920F9359
:105630001F932F933F934F935F936F937F938F931A
:105640009F93AF93BF93EF93FF93CF93DF93CDB728
:10565000DEB76C97DEBFCDBF1092E9008091E80005
:1056600083FF25C068E0CE0145960E94051E82EFAB
:105670008093E8008D8987FF39C09091E80090FF02
:10568000FCCF982F907609F034C19E894F89588DB0
:105690002F89F88C911131C0803861F58091980183
:1056A0008093F1001092F1008EEF8093E8006C96E9
:1056B0000FB6F894DEBF0FBECDBFDF91CF91FF9143
:1056C000EF91BF91AF919F918F917F916F915F917A
:1056D0004F913F912F911F910F91FF90EF90DF908D
:1056E000CF900F900FBE0F901F9018959EEF909344
:1056F000E800C7CF1092F100D5CF913059F4811155
:10570000D3CF4130510581F6809198018D7F8093F0
:105710009801CACF933049F48111C6CF4130510569
:1057200019F6809198018260F2CF953041F4809112
:10573000E80080FFFCCF20682093E300B5CF9630CF
:1057400009F0A9C00B8D1C8D22E01092E900109287
:10575000960110929501F2122EC0109294011092AF
:1057600093010E94D41D1F8299E09983FA8291E0EF
:105770009E8390EA98879AEF9987209195013091BE
:105780009601275F3F4F3C832B838D831092E90066
:105790001092960110929501109394010093930139
:1057A00049E050E0BE016F5F7F4F80E00E94AE1D78
:1057B0000E94D41D79CF10939401009393010E940D
:1057C000B81CDC0112960D911C910115110509F40C
:1057D00051C1D801ED91FC910480F581E02DBE010D
:1057E0006B5E7F4FC8010995009709F03EC1F80133
:1057F00000851185EACFF3E0FF120EC08F89882360
:1058000009F440C0823061F440E867E08BE097E340
:105810000E947B1D811148CF81E28093EB0047CF2E
:10582000813029F440E86BE08FEF96E3F1CF8330CD
:1058300099F70E94B81CDC011296ED90FC908E0145
:105840000F5F1F4F6801E114F10479F0D701ED916A
:10585000FC910680F781E02DB801C7010995080F7A
:10586000111DF701E084F184EECFD8011C92F601FE
:1058700001900020E9F73197BF016C197D0940E0E4
:10588000C601C6CF69EE76E3FB01449150E080E8A3
:105890000E94AE1D09CF973009F4BECF983021F495
:1058A00081E08093F10000CF993009F0FDCE837044
:1058B00009F0B2CFEDE0F1E081E031E096E3219133
:1058C000222371F08093E9003093EB00DF01119700
:1058D0002C912093EC009093ED008F5F873079F747
:1058E0008EE78093EA001092EA008F898093A801E6
:1058F000DBCE8B8D9C8D1092E90010929601109258
:1059000095019093940180939301898D811192C0A8
:105910008E899D89913A49F4813209F07DCF47E023
:1059200050E064E071E080E0B3CF913209F074CFD1
:10593000833269F48F89988DB0E0A0E080930001F4
:1059400090930101A0930201B0930301ADCE803288
:1059500069F48091E80082FFFCCF67E084E091E089
:105960000E94051E8BEF8093E8009ECE823209F0E4
:105970009BCE8F8980930B01EEEFFFE78591949189
:105980008B3F9C4D51F1E0E0F8E080910401909153
:105990000501A0910601B0910701803B9440A1054B
:1059A000B105F1F480910B0180FD1AC0EE3F8AE051
:1059B000F80789F587E797E79183808380916000F6
:1059C0008093970188E19BE00FB6F894A8958093A7
:1059D00060000FBE9093600067CEEEEFFAE0D5CF87
:1059E000808191818737974709F05ECEA895809195
:1059F00060008861809360008091970180936000CF
:105A0000EE3F2AE0F20789F08091FE0A9091FF0AAA
:105A10009183808349CE808191818737980751F2A5
:105A20009093FF0A8093FE0AC5CF1092FF0A10924E
:105A3000FE0A3ACE0E94B81CDC0112960D911C9110
:105A40000115110509F4E8CED801ED91FC91019002
:105A5000F081E02DBE016B5E7F4FC8010995811179
:105A600023CEF80100851185EBCF181619060CF42A
:105A70001BCED2CEF1E0FF12BECE6DEE76E304CFA8
:105A80001F920F920FB60F9211242F933F938F9373
:105A90009F93AF93BF9380918D0190918E01A091C0
:105AA0008F01B091900130917B0123E0230F2D37BE
:105AB00058F50196A11DB11D20937B0180938D01A6
:105AC00090938E01A0938F01B093900180917C01FF
:105AD00090917D01A0917E01B0917F010196A11D61
