:100000000C949B0B0C94C30B0C94C30B0C94C30B60
:100010000C94C30B0C94C30B0C94C30B0C94C30B28
:100020000C94C30B0C94C30B0C941C2D0C948B2DB3
:100030000C94C30B0C94C30B0C94C30B0C94C30B08
:100040000C94C30B0C945F300C94C30B0C94C30B37
:100050000C94C30B0C94C30B0C94C30B0C94BD2FCA
:100060000C94C30B0C94C30B0C94C30B0C94C30BD8
:100070000C94C30B0C94C30B0C94C30B0C94C30BC8
:100080000C9407300C94C30B0C94C30B0C94C30B4F
:100090000C94C30B0C94C30B0C94C30B0C94C30BA8
:1000A0000C94C30B0C94C30B0C94C30B9054003CE6
:1000B000905D003C9060003C9059003C905D003C9D
:1000C0009065003C80F09058003F905B003F90644A
:1000D000003F9054003F9060003F80F0905F0043ED
:1000E00090560043905B00439053004380F0905D36
:1000F000004B9054004B9059004B80F09054005AA4
:10010000905B005A80F09054001E9055001E90564F
:10011000001E9057001E9058001E9059001E905AC5
:10012000001E905B001E80F00000000000700100C7
:10013000C0000C00CAA77C0A42F555085342481972
:100140005EF55112003000000027450040941C006D
:1001500014F3190504F111042004000004411004F3
:1001600000040000104208015E14450F40F0010039
:100170005955551351555D0D8C927C085755550DA9
:100180005E55550D51520C015E55550F5655550F84
:1001900000A0000000A4000000C2280080A22800E7
:1001A0008062080040500D0000E318009C92241F5C
:1001B0005F555D0D9C1445115F1425075F55551162
:1001C0005F5114015E54551D1F41101F40F445003E
:1001D000100421071F41181D1F0441105EF0041F69
:1001E0009C10041F5E54450F5F9214035ED4451F9C
:1001F0005F92341B5655550D41F005011F04210730
:100200001F4208011FE4410F1743181D07C10901D0
:1002100051564D1100F0450000F0010040F401007E
:1002200080100C00100441109045000A80F0904AA4
:10023000001480F09040001490380012903C0010A0
:100240009034000E9038000C9030000A80F00609BF
:100250000F100A11070C120D0B040E051308020CE7
:1002600008140D150309160A0E000B01170F0304DD
:1002700010170514001115120601130216070110BC
:1002800004151116020517061203070014130008BF
:100290000C160917010D140E0A020F03150B040F9B
:1002A00009120C13050A100B0D060807110E903CDD
:1002B0000040800040E0414741494E0090510028F5
:1002C00080002890560028800028905A002880003E
:1002D00028E0434C4541520054494D4520555000BB
:1002E000903700789036008C903500A0903400B4A0
:1002F000903300C8903200DC903100F09030000460
:1003000080F047414D45204F5645520090680014FB
:100310008000149068001480F090490050904D00C7
:100320007880005090490050904D007880005090A7
:10033000490050904D007880005080F01F001E0151
:100340001F001F0501001E110F0103070F1F3F3F74
:100350001F0F0703010001030F1F3F3F1F0F030182
:1003600000000001071F3F3F1F07010000000000C1
:10037000030F3F3F0F0300000000000000073F3F56
:10038000070000000000000000003F3F00000000E8
:100390000003070F1F3F7FFFFF7F3F1F0F07030073
:1003A00003071F3F7FFFFF7F3F1F0703000000037E
:1003B0000F3F7FFFFF7F3F0F030000000000071F7C
:1003C0007FFFFF7F1F07000000000000000F7FFF7E
:1003D000FF7F0F0000000000000000007FFFFF7F94
:1003E0000000000000011F01001F001F031F001F6D
:1003F000151116150D001E1111001E110F001F05FD
:100400001B001F15111F0016150D0016150D001FDE
:10041000100F001F151116150D00011F01001F15EB
:1004200011001F05031818191A1B1C1D1D1E1E1F65
:10043000202D2D0045524153454420444943450059
:10044000504C41592054494D45004D415820434896
:1004500041494E004C4556454C001F1F1B1F1F1F96
:100460001D1F171F1F171B1D1F1F151F151F1F15D2
:100470001B151F1F111F111F4241434B20544F20BA
:100480005449544C45005B2050555A5A4C45205D08
:1004900000DE7BEFBDF7FFFFEFBDFF1F7CEFFD47E9
:1004A000E77BEFFFFFDF7B02DE7BEFBDF7FEFFEFB9
:1004B000BDF79F20EFBDFFFF7BEFBDF7DE7B02DEC8
:1004C0007BEFBDF7FFFFFFBDFFE493EFFDFFFF7F75
:1004D000EFBDF7DE7B03DE7BEFBDF7FFFFEFBDFF78
:1004E000E82BEFFDA7FF7BEFFFFFDF7B04DE7BEF59
:1004F000BDF7FFFFEFBD9FFF13EFFDFFFF7BEFBDDC
:10050000F7DE7B02DE7BEFBDF7FEFFEFBDF7FF7F7F
:10051000EF3D72FF7BEFFDF2DE7B06DE7BEFBDF78A
:10052000FF7BF4BDFFFFFFEFFD3FFE7FEFBDF7DE7A
:100530007B05FEFFFFBFF75FFCFBBDFFFFFCEFFD90
:10054000673F7DEFFFFFFF7B04DE7BEFBDF7FEFF24
:10055000EBBDF7E737EFBDFF5F78EFBDF7DE7B045C
:10056000DE7BEFBDF7BFFEF3BDF7FFFEEFBDF7DEAD
:100570007BEFBDF7DE7B06DE7BEFBDFFFFCBFFFD34
:10058000FF5F7FE5BDF7DE7BEFBDF7DE7B0ADE7B3D
:10059000EFBDF71EFDFFBDF73FFDEFBDFFFF7FEF96
:1005A000BDFFE87B063EFE7FBCF7FE7FEFBDF73F59
:1005B00078EFBDFD5F78EFBDF7DE7B083EFC2FBD19
:1005C000F7FEFFFFBDF7EDFFEFFDFF5F79EFBDF732
:1005D000DE7B06BEFCFFBDF7DFFBEFBDFFFE7FEF5E
:1005E000FDFFDF78EFBDF7DE7B07DE7FFFBDF7FFA6
:1005F000CFFFBDF7D24BEFFDFFF27FEFFDF7DF7BC3
:1006000007DE7BEFBDF7CCFBEFBDFF9F4AEFFDFBA5
:10061000FE7B6FBEFFE17B08DE7BEFBDF7FE7FEF69
:10062000BD87FFFFE2BDFFDF7BEFBDF7DE7B09DEAD
:100630007BEFBDF77E06EFBD77FF7FEFBD9FDF7BD2
:10064000EFBDF7DE7B05DE7BEFBDF7FED2EABDF73F
:10065000FF7FEFBDBFB67AEFBDF7DE7B0ADEFBEFB3
:10066000BDF7FEA7EFBDFF68AAEFBDFFEB7BEFBDB7
:10067000FFDE7B08E07FFFBFF9FFFFFFBFF7FF7FD3
:10068000EFFFFFFFFF8FFEF7FF370EDE7BEFBDF7BB
:10069000FFFFFFBF1706BD48FDFFFFFFEFBDF7DE01
:1006A0007B08DE7BEFBDF7DE7BEF3DFBECB3CFFEDF
:1006B000FFFFFFEFBDF7DE7B08DE7BEFBDF7DE7BE4
:1006C000EF3DFBECB3BFFDFFDFFFEFBDF7DE7B12BD
:1006D000DE7BFF83F7FE7FF2BDF77F7DEFBDFFDF9F
:1006E00079EFBDF7DE7B09FFFFFFBFFF9FFEFFBD78
:1006F000F9E4FFE9FFB7FF7FFFFFFFFF7B08FEFF85
:10070000FF3FF1E1FF9FBCFFFF5BEFFDFFD27BEFFF
:10071000FFF2DE7B081EFEFFA1F7FFFFFFBDE7FF34
:10072000FFE8FDFFFF7FEFE5FF5F7A11FE7FEFBD82
:10073000F7FF7FEFBD07FE7FEF7DF0FE7FEF81F7D4
:10074000FE6F1CDE7BEFBDF7FF07E2BDFFBFA9EF29
:10075000FDFFFF7FEFBDF7DE7B08DEFFFFBDF7FE8D
:10076000EFEFBDF7F02FEFBD6FFF7BEFBDF7DE7B47
:1007700007DEFBFFBDF7FE23F3BDFF88A8EFFD37C3
:10078000EA7BEFFDFFDE7B0ADE7BE1BDF73EFCFF8F
:10079000FFF0FE78FFBD0FFFFFEFBD07DE7B0ADE37
:1007A0007BEFBDF7FEFFEABDF79F7EEFBD1FE27B4B
:1007B000EFFDFFDF7B09DE7BEFBDF71EF6E8BDF73F
:1007C0001F7EEFBD9F5F7AEFFDFFDF7B07DE7BEFD4
:1007D000BDF7DFFDF4BDFFEBB7EFBDF7DE7BEFBD8F
:1007E000F7DE7B08DE7BEFBDF79E76EABDF7000003
:1007F000EFBDFFFF7BEFFDFFDF7B0ADE7BEFBDF789
:10080000FFFFFFBD1F8303E0FDFFFF7FEFBDF7DEAE
:100810007B07DE7BEFBDF79E1BEEBDF7FF03EFBD51
:10082000FFDF78EFBDF7DE7B0A90480064904A0056
:1008300064904C0064904D0064904F00C880F014A8
:10084000141418180004041F001C1C001F001F04AF
:10085000040601FC00EE00DC00C600AC004241438F
:100860004B20544F205449544C450049535355454F
:1008700053204C4953540050524556204953535528
:1008800045004E4558542049535355450052455351
:100890005441525400434F4E54494E554500FF01B8
:1008A000010101616101010101FF1A8408F00F18C3
:1008B000285898888888888888CFD0A1D8FFFF01D9
:1008C000010101616101010101FF1A8468F00F1843
:1008D000284888C8C8A8A898988F96A1D8FFFF0173
:1008E000010101616101010101FF1A0468F00F18A3
:1008F000285898C8C8A8A89898CFD6A0D8FFFF01B4
:10090000010101616101010101FF020468F00F189A
:10091000285898C8C888889898CFD6A0C0FFFF01EB
:100920000D0D01010101010101FF1A0468F00F180A
:100930002848888888A8AB8B888F96A0D8FFFF01AD
:100940000101010101010D0D01FFDA0468F00F182A
:100950002B5B98C8C888889898CFD6A0DBFFFF018A
:100960000D0D01010101010101FF028468F00F1862
:10097000285898C8D898CBDB98CFD6A1C0FFFF01E4
:100980000101010101010D0D01FF028408F00F18A2
:100990002B5B988888A8A88888CFD0A1C0FFFF01CA
:1009A0000101016161010D0D01FF1A0408F00F182A
:1009B0002B4B888888A8A888888F90A0D8FFFF0133
:1009C0000D0D01616101010101FF1A3468F00F187A
:1009D000284888C8C8888B9B988F96ACD8FFFF01A1
:1009E0000101016161010D0D01FF1A8468F00F180A
:1009F0002B5BB8E8C8888898B8EFD6A1D8FFFF016C
:100A00000D0D01616101010101FF028408F00F1861
:100A1000285898C8C8A8AB9B98CFD0A1C0FFFF01A9
:100A20000D0D010101010D0D01FF1A8468F00F1871
:100A30002B4B888888A8AB8B888F96A1D8FFFF01A5
:100A40000D0D010101010D0D01FF1A3468F00F18A1
:100A50002B5B98C8C8A8AB9B98CFD6ACD8FFFF013A
:100A60000D0D010101010D0D01FF1A0408F00F1811
:100A70002B5BB8E8C8888B9BB8EFD0A0D8FFFF01EC
:100A80000D0D010101010D0D01FF028408F00F1889
:100A90002B4B88C8C8888B9B988F90A1C0FFFF0103
:100AA0000D0D016161010D0D01FF028468F00F1849
:100AB0002B4B888888A8AB8B888F96A1C0FFFF013D
:100AC0000D0D016161010D0D01FFDA0468F00F18D1
:100AD0002B5B988888A8AB8B88CFD6A0DBFFFF0163
:100AE0000D0D016161010D0D01FF1A0468F00F1871
:100AF0002B5B98C8D898CBDB98CFD6A0D8FFFF0146
:100B00000D0D016161010D0D01FF028408F00F1848
:100B10002B5B98C8C8888B9B98CFD0A1C0FFFF01E2
:100B20000D0D010D0D010D0D01FF1A0468F00F18D8
:100B30002B5B988B8B888B8B88CFD6A0D8FFFF013F
:100B40006D6D010101016D6D01FF1A8468F00F18D0
:100B50002B5B98C8C8888B9B98CFD6A1D8FFFF0184
:100B60000D0D010D0D010D0D01FF1A8408F00F1878
:100B70002B5B98CBCBA8AB9B98CFD0A1D8FFFF0124
:100B80006D6D010101016D6D01FF020468F00F1828
:100B90002B4B88C8C8A8AB9B988F96A0C0FFFF5569
:100BA000AB550B656B05AB55ABFFAA54A8F00F1DF9
:100BB0002A5DAADDAADDAADDAADFBAF5EAFFFF41B8
:100BC000AD4DA155AB552B552BFFAA54A8F00F1DC9
:100BD0002A5DAADDAAD8ABDBA8DFBAF5EAFFFF558C
:100BE0002B552B55AB41AD4DA1FFAA54A8F00F18C2
:100BF0002B5BA8DDAADDAADDAADFBAF5EAFFFF5567
:100C00002B550B656B01AD4DA1FFAA54A8F00F1831
:100C10002B5BA8DDAADDAADDAADFBAF5EAFFFF415A
:100C2000AD4D01656B052B552BFFAA54A8F00F1D88
:100C30002A5DAADDAAD8ABDBA8DFBAF5EAFFFF413F
:100C40002D4D2155AB412D4D21FFAA54A8F00F1871
:100C50002B5BA8DDAAD8ABDBA8DFBAF5EAFFFF4122
:100C60002D4D01656B012D4D21FFAA54A8F00F18E1
:100C70002B5BA8DDAAD8ABDBA8DFBAF5EAFFFF4102
:100C80002D4D214D2D412D4D21FFAA54A8F00F18B7
:100C90002B5BA8DBABD8ABDBA8DFBAF5EAFFFF0123
:100CA0006D6D0155AB016D6D01FFAA54A8F00F18D1
:100CB0002B5BA8DDAAD8ABDBA8DFBAF5EAFFAA0157
:100CC00000010001000100010001000400500A00C1
:100CD0002000800080008000800080008055FFFFA1
:100CE000FFFFFFFFFFFFFFFFFFFFFEFCF8F00F1FFE
:100CF0003F7FFFFFFFFFFFFFFFFFFFFFFFFF4F42B1
:100D00004E2D5930352056455220302E313100C0FD
:100D1000C6CFDFFFFB73037CFEFFC7E3FF7F3E0010
:100D2000FFFFFF1B1B1B03000303FFFFFF03030069
:100D300000000000000000808080800000000000B3
:100D40000000000000000080E0F058AC56AB55AB4E
:100D50005500FF0101010202040810608000003FFD
:100D6000FFAA55AA55AA55AA55A85FAC5CAC5CACC5
:100D70005CAC5C0CCF3C0000000103060D1A152A88
:100D8000252A252A2522151209040201000000FF48
:100D9000FF57AB57AB57AB57AB03FF8080800000CA
:100DA00000000000000000FFFF55AA55AA55AA55F3
:100DB000AA00FF000000010102040830C000001F6B
:100DC0007FD5AA55AA55AA55AA54AF56AE56AE56C7
:100DD000AE562E86671E000000000103060D0A15A0
:100DE0001215121512110A09040201000000000078
:100DF00000000000008080C0C0C0C0808080000073
:100E000000000000000000C0F078AC56AB55AA55B9
:100E1000AA00FF000000010102040830C00000FF2A
:100E2000FF55AA55AA55AA55AA00FFFEAE56AE56C2
:100E3000AE56AE5607FE001F1715121512151215E5
:100E400012101F171215121512151215101F00007F
:100E500000502050001408221C413E3E476B6D6D2F
:100E6000413E001C1C001C3E7F4352454449540037
:100E70005245434F52440050555A5A4C450054492C
:100E80004D45204C494D4954454400454E444C4540
:100E90005353002F3430001E1111001F041F001E79
:100EA000091F001F001E011F1F1010001F15110039
:100EB0001F100F001F1511001F1010455241534500
:100EC00044204449434500504C41592054494D4524
:100ED0000050555A5A4C45004C494D495445440020
:100EE00054494D4500454E444C455353005B2052F8
:100EF00045434F5244205D002D2050534920434F1D
:100F00004C4F202D00004A554C59203230313800CA
:100F100050524F4752414D4D4544204259204F4277
:100F20004F4E4F0000544849532050524F475241B2
:100F30004D2049530052454C454153454420554EA0
:100F400044455200544845204D4954204C4943459E
:100F50004E53452E00C0402020101008F8F02844C1
:100F600044820211118282C4C4E8E00000F02844E7
:100F700044820211118282C4C468600000F02844D7
:100F8000448282FF000086C30000FF0000000000D2
:100F90000000000000F0284444820211118282C443
:100FA000C468600000F0284444820211118282C4A7
:100FB000C4E8E00000F02844448282FF0000FEFF05
:100FC0000000FF0000F0284444820211118282C414
:100FD000C4E8E01F1020204000FFFF19190C0C0787
:100FE0000700001F1020204000DFDF6D6D36361F28
:100FF0001F00001F1020204040FF80007F3F001096
:101000001F000000000000000000001F1020204012
:1010100000FFFF61613030181800001F10202040D1
:1010200000FFFF616130301F1F00001F10202040B3
:1010300040FF80007F3F00101F00001F1020204055
:1010400000FFFF616130301F1F00000000003E5BA9
:101050004F5B3E3E6B4F6B3E1C3E7C3E1C183C7E05
:101060003C181C577D571C1C5E7F5E1C00183C18EA
:1010700000FFE7C3E7FF0018241800FFE7DBE7FFE6
:1010800030483A060E2629792926407F0505074073
:101090007F05253F5A3CE73C5A7F3E1C1C08081C34
:1010A0001C3E7F14227F22145F5F005F5F06097F72
:1010B000017F006689956A606060606094A2FFA20B
:1010C0009408047E040810207E201008082A1C08BA
:1010D000081C2A08081E101010100C1E0C1E0C30C4
:1010E000383E3830060E3E0E0600000000000000BC
:1010F0005F00000007000700147F147F14242A7F7C
:101100002A12231308646236495620500008070348
:1011100000001C2241000041221C002A1C7F1C2AC6
:1011200008083E0808008070300008080808080019
:101130000060600020100804023E5149453E004214
:101140007F400072494949462141494D33181412E4
:101150007F1027454545393C4A494931412111090C
:10116000073649494936464949291E0000140000FE
:101170000040340000000814224114141414140018
:101180004122140802015909063E415D594E7C1264
:1011900011127C7F494949363E414141227F4141FC
:1011A000413E7F494949417F090909013E41415179
:1011B000737F0808087F00417F41002040413F01C4
:1011C0007F081422417F404040407F021C027F7F05
:1011D0000408107F3E4141413E7F090909063E4116
:1011E00051215E7F09192946264949493203017F69
:1011F00001033F4040403F1F2040201F3F403840F8
:101200003F631408146303047804036159494D4390
:10121000007F4141410204081020004141417F0408
:1012200002010204404040404000030708002054EF
:101230005478407F2844443838444444283844444F
:10124000287F385454541800087E090218A4A49C1E
:10125000787F0804047800447D40002040403D0031
:101260007F1028440000417F40007C047804787C93
:10127000080404783844444438FC182424181824FA
:101280002418FC7C08040408485454542404043FE3
:1012900044243C4040207C1C2040201C3C403040EA
:1012A0003C44281028444C9090907C4464544C4416
:1012B00000083641000000770000004136080002B7
:1012C000010204023C2623263C1EA1A161123A40E1
:1012D00040207A3854545559215555794121545458
:1012E0007841215554784020545579400C1E527253
:1012F000123955555559395454545939555454582F
:101300000000457C410002457D420001457C40F0E3
:10131000292429F0F0282528F07C54554500205434
:10132000547C547C0A097F49324949493232484841
:101330004832324A4848303A4141217A3A424020C4
:1013400078009DA0A07D39444444393D4040403D53
:101350003C24FF2424487E4943662B2FFC2F2BFF7F
:101360000929F620C0887E090320545479410000E1
:10137000447D413048484A32384040227A007A0A57
:101380000A727D0D19317D2629292F282629292920
:101390002630484D40203808080808080808083852
:1013A0002F10C8ACBA2F102834FA00007B000008B8
:1013B000142A142222142A14089500220095AA0047
:1013C0005500AAAA55AA55AA000000FF0010101047
:1013D000FF00141414FF001010FF00FF1010F01095
:1013E000F0141414FC001414F700FF0000FF00FFB9
:1013F0001414F404FC141417101F10101F101F14E1
:1014000014141F00101010F0000000001F10101026
:10141000101F10101010F010000000FF101010101E
:101420001010101010FF10000000FF140000FF004B
:10143000FF00001F10170000FC04F414141710170D
:101440001414F404F40000FF00F71414141414141A
:1014500014F700F7141414171410101F101F14148D
:1014600014F4141010F010F000001F101F00000002
:101470001F14000000FC140000F010F01010FF100A
:10148000FF141414FF141010101F00000000F010BF
:10149000FFFFFFFFFFF0F0F0F0F0FFFFFF000000A4
:1014A0000000FFFF0F0F0F0F0F38444438447C2A11
:1014B0002A3E147E02020606027E027E026355491F
:1014C00041633844443C04407E201E2006027E02D4
:1014D0000299A5E7A5991C2A492A1C4C7201724C55
:1014E000304A4D4D303048784830BC625A463D3E17
:1014F000494949007E0101017E2A2A2A2A2A4444B8
:101500005F444440514A444040444A51400000FF37
:101510000103E080FF000008086B6B0836123624D8
:1015200036060F090F060000181800000010100002
:101530003040FF0101001F01011E00191D1712009C
:101540003C3C3C3C00000000000601150126013730
:10155000014A015D01720188019F01B801D201EECB
:10156000010B022A024B026E029302BA02E402103D
:10157000033F037003A403DC03170455049704DD41
:101580000427057505C80520067D06E0064907B84D
:10159000072D08A9082D09B9094D0AEA0A900B4040
:1015A0000CFA0CC00D910E6F0F5A1053115B127292
:1015B000139A14D41520178018F519801B231DDEEB
:1015C0001EB420A622B524E4263429A72B402E00E1
:1015D00031EA330037453ABC3D68414C456B49C858
:1015E0004D68524F57805C00621011121315161788
:1015F000181A1C1D1F21232527292C2E3134373A78
:101600003E4145494E52575C62686E757B838B93B1
:101610009CA5AFB9C4D0DCE9F70000000200090FB7
:101620000000030401000C000000000000000000A6
:101630000000000000000000030100000000240082
:1016400027002A002D003000D5F08D1410A1C8818C
:10165000CFD9F1AF200004080201104080401020D3
:101660004080408008020401804020100201108068
:10167000102040402000000000250028002B002EF4
:1016800000310004040404040304050202020204FD
:10169000030202020206060606060604040202020D
:1016A00004041402130212021502070208020401C4
:1016B0000C01060100BB158F15221A511E061E9B38
:1016C0001CE9200E272321080B000202020000095A
:1016D000040000010202000005240010010524019D
:1016E00001010424020605240600010705810310F8
:1016F000004009040100020A000000070502024040
:1017000000000705830240000004030904120100E1
:1017100002EF020140412336800001010203014132
:10172000726475696E6F204C4C430041726475623F
:101730006F790000CA3011241FBECFEFDAE0DEBFA0
:10174000CDBF11E0A0E0B1E0EAE7FBE602C0059002
:101750000D92AA33B107D9F727E0AAE3B1E001C09F
:101760001D92AB35B207E1F71BE0CBE9DBE004C02B
:101770002197FE010E949535CA39D107C9F70E9409
:1017800001310C94BB350C940000CF93DF93DC0146
:1017900077FF13C022273327261B370B842F042EF5
:1017A000000C990B281739072CF4460F70E060E005
:1017B000141644F0DF91CF9108951416DCF76034CD
:1017C0007105C4F7A038B105A8F7262FCB01840F07
:1017D000911D47FD9A958134910514F040E4461B14
:1017E00027709FEF022E01C0990F0A94EAF7420F6B
:1017F000621B710977FF02C0695F7F4F83E07595B7
:1018000067958A95E1F7FB01F695FE2FEE27F79590
:10181000E795EA0FFB1FE15BFC4F28E030E06FEF3C
:1018200070E014163CF6483064F4D901A41BB109E9
:1018300047FDB395EB0102C0D595C795AA95E2F790
:101840009C238081982B90834850E058FF4F9FEF56
:10185000E8CF0F93CF93DF9397FF0CC0EE27FF27BE
:10186000E81BF90B4E171F0609F00CF47CC0480F5B
:1018700090E080E077FF0FC0AA27BB27A61BB70B1D
:10188000E22F022E000CFF0BAE17BF070CF06BC04F
:10189000260F70E060E0442309F465C080389105AC
:1018A0000CF061C012160CF05EC0603471050CF0D3
:1018B0005AC0FC01E40FF11DE138F10514F040E8D5
:1018C000481B562FFB01E20FF11D27FDFA95E1346D
:1018D000F10514F020E4261B57703FEF052E01C0E0
:1018E000330F0A94EAF7250F651B710977FF02C0D1
:1018F000695F7F4F53E0759567955A95E1F7769547
:10190000762F662777956795860F971F815B9C4F8B
:10191000A8E0B0E0CFEFD0E012162CF5283064F448
:10192000BD01621B710927FD7395FE0102C0F5958B
:10193000E7956A95E2F73E2301110DC03095FC0151
:10194000542F6081632361935150D9F728508058F8
:101950009F4F3FEFE1CFFC01542F6081632B6193D8
:101960005150D9F7F3CFDF91CF910F9108952F9276
:101970003F924F925F926F927F928F929F92AF921F
:10198000BF92CF92DF92EF92FF920F931F93CF936C
:10199000DF9300D000D01F92CDB7DEB7822E912CFE
:1019A0009401280F391F37FDD7C0803891050CF0FE
:1019B000D3C09B01200F311D37FDCEC060347105AF
:1019C0000CF0CAC0DB0177FF04C0AA27BB27A61B07
:1019D000B70BA770BB279B0177FF02C0295F3F4F62
:1019E000F3E035952795FA95E1F777FF08C0215088
:1019F000310968E070E0FB01EA1BFB0BDF01202EE0
:101A0000269426942694312C077019F0FFEF2F1A94
:101A10003F0ABA01A9015695542F44275795479577
:101A2000480F591F5C834B83220E331E48E050E061
:101A30003A016A1A7B0A2216330609F48DC028304F
:101A4000310509F489C02F3F5FEF35070CF458C00A
:101A50000B811C81055C1C4F6C0150E040E0EB8168
:101A6000FC81E554FC4F2F01D7FC3BC02F3F3207D0
:101A700009F46EC05A01A60EB71EF801F488F1E011
:101A8000EF1249C0F501A490EA2D0A2E01C0EE0F15
:101A90000A94EAF7FE2AF801F48A109711F1273028
:101AA0003105F9F0FA01E60FF71FFA83E9835201D5
:101AB000A40EB51EF501F489FD83FF24F394E9819A
:101AC000FA81EF1036C0F491F983EF2FF0E0062C85
:101AD00002C0F595E7950A94E2F7FD80FE2AF5012C
:101AE000F48A4F5F5F4FFFEFCF1ADF0A0F5F1F4F80
:101AF000481559052CF4F0E8CF16D10409F0B4CFFD
:101B00002F5F3F4F680D791D4B815C8140585F4FBF
:101B10005C834B8390CFF501A490EA2DF0E00A2E70
:101B200002C0EE0FFF1F0A94E2F7E095F095FE2247
:101B3000B2CFF491F983EF2FF0E0062C02C0F595B7
:101B4000E7950A94E2F7E095F095FD80FE22C7CF75
:101B5000109709F0A7CFC5CF0F900F900F900F905F
:101B60000F90DF91CF911F910F91FF90EF90DF9039
:101B7000CF90BF90AF909F908F907F906F905F902D
:101B80004F903F902F9008958FE493E020E0B22F84
:101B9000B111BFEFFC010024B193B193B193B193A4
:101BA0000394D1F70895FC018091E302882311F199
:101BB0003FB7F89482E08093E9002091F200822FF1
:101BC00090E01816190614F481E090E0882339F0AB
:101BD000289844E64093E2024091F100408322239A
:101BE00039F02091F200211103C02BE62093E80088
:101BF0003FBF08958FEF9FEF08952FB7F89483E0CC
:101C00008093E9009091E800892F807295FF04C0CD
:101C10009091F20080E4891B2FBF08958091DA0231
:101C200081110DC082E08093D60284E08093D702B8
:101C30001092D9021092D80281E08093DA0286EDE8
:101C400092E00895CF93DF931F92CDB7DEB76983FB
:101C5000DC01ED91FC910280F381E02D41E050E048
:101C6000BE016F5F7F4F09950F90DF91CF9108956F
:101C700083E08093E9008091F200882319F08AE3E1
:101C80008093E80008950E94FD0D90E00895CF93A1
:101C9000DF931F92CDB7DEB7FC018485958597FD54
:101CA00008C02FEF3FEF358724870F90DF91CF914A
:101CB0000895CE0101960E94D30D019719F48981F0
:101CC00090E0F3CF8FEF9FEFF0CF0F931F93CF9361
:101CD000DF931F92CDB7DEB78C01FC01848595851B
:101CE00097FF0BC0CE0101960E94D30D019771F4AE
:101CF000898190E0F80195878487F801848595852E
:101D00000F90DF91CF911F910F9108958FEF9FEF6B
:101D1000F1CFFC018485958597FD0BC09FB7F894A2
:101D200082E08093E9008091F2009FBF90E00196ED
:101D300008959FB7F89482E08093E9008091F200C3
:101D40009FBF90E008954091D0025091D102209120
:101D5000CE023091CF0242175307B4F49091E800BD
:101D60009570E1F39091E80092FD19C08093F10025
:101D70008091D0029091D10201968F739927892B7F
:101D800019F48EEF8093E8008091D0029091D102F7
:101D900001969093D1028093D00281E0089580E073
:101DA0000895EF92FF920F931F93CF93DF93F82E36
:101DB000192FE62E042F81E0860F880F0E94A30EB4
:101DC00083E00E94A30ECF2DD12FEC0EFD2EF11C2F
:101DD000CE15DF05B9F007FF13C0FE0184910E9404
:101DE000A30E182F80E00E94A30E8123219681115B
:101DF000EFCFDF91CF911F910F91FF90EF9008955A
:101E00008881EDCF81E0F5CFDF92EF92FF920F93C3
:101E10001F93CF93DF93D82E8A01EB017B01E40E51
:101E2000F51ECE15DF0559F0D7FE12C0FE018491D4
:101E30000E94A30E21968111F4CF0FEF1FEFC8016E
:101E4000DF91CF911F910F91FF90EF90DF90089558
:101E50008881EECF0F931F93CF93DF931F92CDB75F
:101E6000DEB782E0898342E450E067EC76E180E807
:101E70000E94040F0E940E0EDC0112960D911C911F
:101E80000115110589F0D801ED91FC910280F381D3
:101E9000E02DBE016F5F7F4FC801099597FD04C01B
:101EA000F80100851185ECCF89810F90DF91CF91EA
:101EB0001F910F910895615030F02091F100FC01C5
:101EC00020830196F8CF289884E68093E202089553
:101ED000AF92BF92CF92DF92EF92FF920F931F9338
:101EE000CF93DF936C017B018B01040F151FEB0176
:101EF0005E01AE18BF08C017D10759F06991D6012D
:101F0000ED91FC910190F081E02DC6010995892B9E
:101F100079F7C501DF91CF911F910F91FF90EF905D
:101F2000DF90CF90BF90AF900895282F30E0F90157
:101F3000E75EF94E9491F901EA5AF94E84912D57D2
:101F4000394EF9012491222309F430C09923E9F094
:101F500091509F30D0F4E92FF0E0EF54F04F0C9403
:101F60009535DF0FE30FC00FD70FDB0FC50FC50F80
:101F7000C50FE60FEC0FF00FF40FFA0FC50FFE0FB1
:101F8000909180009F7790938000E22FF0E0EE0F19
:101F9000FF1FEB58F94EA591B4919FB7F894EC91BF
:101FA000611132C080958E238C939FBF08959091CC
:101FB00080009F7DE8CF90918000977FE4CF94B51B
:101FC0009F7794BDE2CF94B59F7DFBCF9091900019
:101FD0009F7790939000D9CF909190009F7DF9CFFB
:101FE00090919000977FF5CF9091C0009F7790934C
:101FF000C000CBCF9091C0009F7DF9CF9091C200DF
:10200000977F9093C200C1CF8E2BCECFCF93DF931B
:1020100090E0FC01EA5AF94E24918D57994EFC014B
:1020200084918823C9F090E0880F991FFC01E65C39
:10203000F94EA591B491FC01EB58F94EC591D4919C
:1020400061110DC09FB7F8948C91209582238C93D9
:102050008881282328839FBFDF91CF910895623024
:1020600051F49FB7F8943C91822F809583238C93F1
:10207000E8812E2BEFCF8FB7F894EC912E2B2C9379
:102080008FBFEACF1F93CF93DF93182FEB0161E04F
:102090000E940610209739F460E0812FDF91CF91E4
:1020A0001F910C94950FCF3FD10511F461E0F5CF4E
:1020B000E12FF0E0E75EF94EE491E150EF3008F0F7
:1020C0007FC0F0E0EA59FF4E0C94953575107D10F5
:1020D00082108C109610E010E010E010A010AA10F2
:1020E000B410BE10CB10E010D31084B5806884BD4E
:1020F000C7BDDF91CF911F91089584B5806284BDE3
:10210000C8BDF7CF80918000806880938000D09315
:102110008900C0938800EDCF809180008062809319
:102120008000D0938B00C0938A00E3CF8091800021
:10213000886080938000D0938D00C0938C00D9CFAD
:1021400080919000806880939000D0939900C09314
:102150009800CFCF80919000806280939000D093C0
:102160009B00C0939A00C5CF8091900088608093B7
:102170009000D0939D00C0939C00BBCF8091C00085
:1021800080688093C0008091C0008F7B8093C000E6
:10219000C093CF00AECF8091C00080628093C0001A
:1021A000C093D000A6CF8091C20088608093C20007
:1021B0008091C2008B7F8093C200C093D20099CFE0
:1021C000C038D1050CF072CF67CF0F931F93CF9318
:1021D000DF93062F142FCFEFD0E0BE01681B7109EB
:1021E0008AE00E944210BE01601B71098BE00E94D0
:1021F0004210BE01611B710989E0DF91CF911F91EF
:102200000F910C9442103FB7F8948091B7029091CF
:10221000B802A091B902B091BA0226B5A89B05C038
:102220002F3F19F00196A11DB11D3FBFBA2FA92F55
:10223000982F8827BC01CD01620F711D811D911D52
:1022400042E0660F771F881F991F4A95D1F70895BE
:102250008F929F92AF92BF92CF92DF92EF92FF92B6
:102260004B015C010E9403116B017C010E94031170
:102270006C197D098E099F09683E7340810591059F
:10228000A8F321E0821A9108A108B10888EEC80ECF
:1022900083E0D81EE11CF11C81149104A104B10457
:1022A00029F7FF90EF90DF90CF90BF90AF909F9075
:1022B0008F9008958F929F92AF92BF92CF92DF92AC
:1022C000EF92FF920F931F93CF93DF936C017B01EB
:1022D0008A0180910B01882309F45CC08091E3029C
:1022E000882309F457C08091D50280FF05C08091F2
:1022F000E00082608093E000E801B12C8AEFA82E14
:1023000093E0892E2AE3922E209711F4BB20D9F175
:102310000E94FD0D81110AC0AA94AA20D9F161E0A2
:1023200070E080E090E00E942811EECF8C171D062F
:1023300011F00CF08C2F9FB7F8948092E900209157
:10234000E80025FD02C09FBFDFCF282F30E0C21B71
:10235000D30BF701815020F041914093F100FACF67
:10236000E20EF31EBB2021F09092E800B12CEBCFDF
:102370008091E80085FDE7CF9092E800BB24B394FC
:10238000209709F3F3CF5D9884E68093D40210166A
:1023900011063CF081E090E0F6019383828310E027
:1023A00000E0C801DF91CF911F910F91FF90EF9056
:1023B000DF90CF90BF90AF909F908F9008954FB1D6
:1023C0008CB123B190E08095909533E095958795F9
:1023D0003A95E1F7887030E020953095359527954E
:1023E000359527952470822B942F9095907F892B7B
:1023F000089583B7817F83BF83B7816083BF88954A
:1024000083B78E7F83BF0895E091C602F091C70223
:1024100090818091C502982B9083A091C302B091C6
:10242000C4022C919091C202909592239C9390812A
:102430008095892380830895E091C302F091C402BE
:1024400080819091C202892B8083E091C602F09135
:10245000C70290818091C502809589238083089569
:10246000CF93C82F0E940412CEBD00000DB407FE0A
:10247000FDCF8EB5CF910C941C12CF92DF92EF92CC
:10248000FF920F931F93CF93E82FF0E0E85CF94E93
:10249000C491E62FF0E0603398F5E751FA4EE491ED
:1024A0000E2F10E0F12CE12C60E074E284EF90E05C
:1024B000A70198010E9404352150310941095109B1
:1024C00091E02115310581E0480751056CF060E984
:1024D00070ED83E090E0A70198010E94043521503F
:1024E00031094109510993E0C13089F0C330F9F055
:1024F000CF911F910F91FF90EF90DF90CF900895B3
:10250000EE0FFF1FE751FB4E05911491CBCF809149
:102510008100887F892B80938100309389002093EC
:10252000880080916F00826080936F00E1CF80917E
:102530009100887F892B809391003093990020939C
:1025400098001093B5020093B40281E08093B30227
:1025500080917100826080937100CACFE82FF0E013
:10256000E85CF94EE491E13019F0E33089F0089528
:1025700080916F008D7F80936F008091BE02E0910B
:10258000BF02F091C00290818095892380830895D5
:102590001092B3028091BB02E091BC02F091BD02A7
:1025A000F2CFE091E602F091E702BF016F5F7F4F4B
:1025B0007093E7026093E6022491922F907F822F1E
:1025C0008F70903819F40E94AE12EBCF903981F4DD
:1025D0003296F093E702E093E602FB01649190915A
:1025E000E4028917F0F667FDDCCF0E943D12D9CFD7
:1025F000903E49F48091E8029091E9029093E702BD
:102600008093E602CECF903F19F41092E502089530
:1026100097FDC7CF3296F093E702E093E602FB0105
:102620006491A091B402B091B502322F262F0E947E
:1026300058356C507E4F8F4F9F4F28EE33E040E06F
:1026400050E00E9436352093AF023093B0024093A1
:10265000B1025093B2028091AF029091B002A0916A
:10266000B102B091B202892B8A2B8B2B61F481E0ED
:1026700090E0A0E0B0E08093AF029093B002A0930E
:10268000B102B093B20208950F931F93CF93DF93DB
:102690002091EA02222329F1162FEC018091E50214
:1026A000882381F0809159078617D8F000E0809147
:1026B000E402081728F4802F0E94AE120F5FF7CFB4
:1026C0001092E50210935907D093E902C093E802F3
:1026D000D093E702C093E6020E94D11281E080937A
:1026E000E502DF91CF911F910F9108956038710538
:1026F000E8F440345105D0F4342F369536953695AC
:10270000A0E83A9FF0011124E60FF71FE80FF91F28
:102710003489CA018770992741E050E001C0440F15
:102720008A95EAF7222319F0432B448B08954095AC
:102730004323FBCFEF92FF920F931F93CF93DF932F
:102740007B018C01040F111DEC0197FF02C0D0E04A
:10275000C0E0C8010138110514F080E890E0C81706
:10276000D9074CF421E0A701BE018BE393E00E945E
:1027700076132196EECFDF91CF911F910F91FF90AD
:10278000EF9008952F923F924F925F926F927F92B7
:102790008F929F92AF92BF92CF92DF92EF92FF9271
:1027A0000F931F93CF93DF93CDB7DEB72D970FB65F
:1027B000F894DEBF0FBECDBF6A3069F5FC01EA5E5A
:1027C000FB4FDC01A85EBB4F2C9148E0249F900199
:1027D000112440815181240F351F318320831497A8
:1027E0001D921C922D960FB6F894DEBF0FBECDBF82
:1027F000DF91CF911F910F91FF90EF90DF90CF90DD
:10280000BF90AF909F908F907F906F905F904F9010
:102810003F902F9008956D3029F39D878C878C5EB3
:102820009B4F9A838983FC01808091802C853D8514
:10283000285E3B4F3C832B8330E8831691040CF0D9
:1028400071C0EC85FD85EA5EFB4F6080718040E4DD
:10285000641671040CF066C0AB81BC814C9045E0FD
:102860009401449E200D311D1124121613060CF004
:1028700059C0242C312C910153E0220F331F5A955B
:10288000E1F7260D371D121613060CF04BC0649F9E
:10289000B001112410E000E0FB01E75BFF4EFB8775
:1028A000EA87E0E0053029F0EA85FB85E00FF11FBB
:1028B000E491530198E0592E2E2F30E03E832D8372
:1028C000E170EF83F12CE12CE414D8F4C4018E0DF7
:1028D0009F1D99878887D12CC12CC41470F4A60140
:1028E0004A0D5B1D2F81688579858C859D850E94A9
:1028F00076139FEFC91AD90AF0CFAFEFEA1AFA0A96
:10290000E3CFED81FE81F595E7955A94A20CB31CB7
:102910005110D2CF0F5F1F4F820C931C0630110550
:1029200009F0BFCFEB81FC812081422F50E0A981CB
:10293000BA818D919C91B6E02B9F800D911D112441
:10294000E981FA8191838083EC85FD85E75EFB4F09
:102950002081222309F446CF6AEF64039001659F2A
:10296000300D112420583F4F281739070CF03ACF6B
:10297000AC85BD85ED91FC9111970190F081E02D22
:102980006AE0CD012D960FB6F894DEBF0FBECDBF25
:10299000DF91CF911F910F91FF90EF90DF90CF903B
:1029A000BF90AF909F908F907F906F905F904F906F
:1029B0003F902F900994AF92BF92CF92DF92EF9207
:1029C000FF920F93CF93DF936C015B017A01E20ECC
:1029D000F11CEA0157FF02C0D0E0C0E0C70121E4CA
:1029E000E216F10414F080E490E0C817D90744F42B
:1029F000202FAE01B501C6010E9476132196EECFBD
:102A0000DF91CF910F91FF90EF90DF90CF90BF902B
:102A1000AF900895CF92DF92EF92FF920F93CF93F2
:102A2000DF936C017B01C42FD22F0E949A13B70150
:102A30006D0F711D615071094C2FC6010E949A13D0
:102A400001E02D2FA701B6018BE393E00E94DB1478
:102A5000B6016C0F711D615071092D2FA7018BE319
:102A600093E00E94DB14DF91CF910F91FF90EF90E4
:102A7000DF90CF90089584E090E09093A902809336
:102A8000A80281E090E09093A6028093A5020895A9
:102A900084E090E09093A9028093A8021092A6028D
:102AA0001092A5020895EF920F9300E028E046E10E
:102AB00068E370E08AE690E00E94290CEE24E3943B
:102AC00007E02EE04BE55EE069E370E08BE690E026
:102AD0000E94B70C4091EA0286E0489FA0011124B1
:102AE000415B514F26E069E370E08AE790E00E9485
:102AF000B70C0F91EF9008959C019091860295304C
:102B00006CF484E09802F0011124E359FD4F338303
:102B10002283718360839F5F909386020895CF9391
:102B2000C0916C02C150C0936C022C2F30E0C901DF
:102B30000A9797FD0196959587954AE35AEA63EEC1
:102B40007EEE04C076956795579547958A95D2F79E
:102B5000417040936B028FE7489F402D112460E045
:102B600080E00E94E51081E090E0CC2311F090E03D
:102B700080E0CF91089580E580936C020895EF92F4
:102B80000F9335E0440F551F3A95E1F74256574FE2
:102B9000E22E00E120E10E94B70C0F91EF90089522
:102BA0006F927F928F929F92AF92BF92CF92DF925D
:102BB000EF92FF920F93CF93DF936A012BE0289F50
:102BC0007001299FF00C1124269FE001279FD00D52
:102BD00011240097E1F09C012150310947E0429F08
:102BE000F001439FF00D112441E3469F9001479F60
:102BF000300D1124E20FF31FEA58FE4F20812150BF
:102C0000263028F42381348120343105F8F461150D
:102C1000710509F452C06150710927E0289FF00145
:102C2000299FF00D112441E3469F9001479F300DED
:102C30001124E20FF31FEA58FE4F20812150263065
:102C400000F52381348120343105D8F05E0189E01C
:102C5000A80EB11C37018DE1680E711C470188E296
:102C6000880E911C8614970441F100E02BE0A50129
:102C7000B3018BE393E00E94DB148FEF681A780AAC
:102C8000F1CF0097D1F0019727E0289FF001299F0D
:102C9000F00D112421E3269FC001279F900D1124E0
:102CA000E80FF91FEA58FE4F80818150863028F4E2
:102CB000838194818034910548F646E050E04C19B8
:102CC0005D09440F141664F4BE01685F7F4F6C0DFC
:102CD0007D1DC7014C96242F8C0D9D1D0E940A1549
:102CE00080E0DF91CF910F91FF90EF90DF90CF9038
:102CF000BF90AF909F908F907F906F9008951F939B
:102D000080937201813011F41092710165E00E948C
:102D10007335E92F482F50E09A01245F3F4F692F08
:102D200070E0260F371F2D31310514F02CE130E013
:102D3000209370019A01275F3F4F220F331F2E31DE
:102D4000310514F02DE130E02E0F20936F0193E256
:102D500090936E0114EF14039001159F300D112410
:102D600020563F4F94E0660F771F9A95E1F7261B98
:102D7000370B2431310514F424E130E020936D0148
:102D80002BEF829F202D1124205120936C0123E0F2
:102D9000280F220F90917101920F909371018A3048
:102DA000B0F44A50510924E1249FC001259F900DA1
:102DB0001124EE2379F090936B0180936A018AE0ED
:102DC0008093690188E7809368011F91089590E0DE
:102DD00080E0EFCF805A9109EECF0F931F93DC0173
:102DE00012968C911297833079F1EC91E150FF0BA0
:102DF000EE0FFF1FE85AFE4F80819181019691836B
:102E0000808300919A0210919B0220919C02309144
:102E10009D020F5F1F4F2F4F3F4F00939A02109359
:102E20009B0220939C0230939D02809171018150FE
:102E30008093710112968C911297882329F08091CA
:102E4000570181508093570183E012968C9312971B
:102E500016967C936E9315971F910F9108956FEFBF
:102E60008EE292E00C9444130E942F1783E090E0CE
:102E70009093A9028093A80281E08093A70208950D
:102E80000E942F1782E090E09093A9028093A802FD
:102E900081E08093A70208950E942F1784E090E0BC
:102EA0009093A9028093A80282E090E09093A602FA
:102EB0008093A50208950E942F1781E090E09093DF
:102EC0007501809374010895CF93109286028091CA
:102ED000740190917501019731F46BE577E185E913
:102EE00098E00E947C156CEF76E28DE898E00E94F5
:102EF0007C158091A5029091A602029709F052C01C
:102F0000C0917301C7320CF443C060E077E287E7F9
:102F100098E00E947C1563EE76E28BE698E00E94D2
:102F20007C155DE42091860286E028029001112440
:102F3000B9016150710980917401909175010397F5
:102F4000C9F585E090E0909375018093740140E0AD
:102F500025E330E0852F90E097FD019695958795C4
:102F6000919581959109815C80938C0220938B02CD
:102F700050938A02609389024093880240938702AB
:102F800010928D0281E08093A402CF910C942F17B0
:102F900067E077E282E898E00E947C151C160CF04E
:102FA000BACFB3CF61EF76E28DE598E00E947C1551
:102FB00059E5B8CFCB0177FDC901959587959195D6
:102FC000819591099C01215E3F4F82E090E09093B2
:102FD00075018093740141E0BDCF6FEF88E292E00C
:102FE0000C944413882349F080916500877F809377
:102FF000650081E08093EA0208951092EA028091D0
:1030000065008860809365000895CF93809157078D
:1030100090E08095909520915807207830E08223A9
:103020009323892B61F080918D02181644F481500E
:1030300080938D020E94ED1781E08093A40280911D
:10304000570790E08095909520915807207130E0C7
:1030500082239323892BB9F020918D02422F022ED7
:10306000000C550B80918602082E000C990B0197DD
:103070004817590744F42F5F20938D020E94ED17E3
:1030800081E08093A402809187028823B9F0809127
:103090005807887090E02091570730E020953095D0
:1030A00082239323892B51F08091EA02C1E08C277F
:1030B0000E94F2170E942F17C093A4028091570715
:1030C00090E08095909520915807247030E08223FD
:1030D0009323892B69F0E0918D0284E0E802F001EE
:1030E0001124E359FD4F0190F081E02DCF91099417
:1030F000CF91089510923B0110923C0180915807A6
:10310000982F907F41F190913A019F5F9D300CF58F
:1031100090933A0190913A01913011F09A30E9F48C
:1031200085FF03C09FEF90933C0186FF05C09091FF
:103130003C019F5F90933C0187FF03C09FEF9093FA
:103140003B0184FF0AC080913B018F5F80933B016C
:1031500008959AE0DDCF10923A010895EEE8F2E08A
:1031600025E030E089E392E561917191629FA001D1
:10317000639F500D729F500D1124840F951F2E5F79
:103180003F4F2B31310581F708952F923F924F9297
:103190005F926F927F928F929F92AF92BF92CF92E7
:1031A000DF92EF92FF920F931F93CF93DF93CDB7F0
:1031B000DEB72D970FB6F894DEBF0FBECDBF6A30D5
:1031C00071F5FC01EA5EFB4FDC01A85EBB4F4C9140
:1031D0002081318156E0459F200D311D112431831E
:1031E000208314971D921C9281E090E02D960FB6DB
:1031F000F894DEBF0FBECDBFDF91CF911F910F912D
:10320000FF90EF90DF90CF90BF90AF909F908F9006
:103210007F906F905F904F903F902F90089520EE99
:10322000260F203408F79D878C878C5E9B4F9E83EA
:103230008D83FC01208031802C853D85285E3B4FAD
:103240003987288730E8231631040CF064C0EC85F8
:10325000FD85EA5EFB4FE080F18050E4E516F10465
:103260000CF059C0A885B9851C91412E512C9101B3
:10327000B5E01B9F200D311D112437FD4CC0970177
:10328000E6E01E9F200D311D112437FD44C0EC8562
:10329000FD85E55EFB4F7080EC85FD85E65EFB4FAE
:1032A000608024E0629FF0011124E855FF4F859073
:1032B0009590A590B490113009F05FC026E0522E91
:1032C000D12CC12CD501C40181709927AA27BB2715
:1032D00080FC02C0761471F0262D892B8A2B8B2B53
:1032E00009F4272DA7014C0D5D1DB1018C859D852D
:1032F0000E947613B694A794979487943FEFC31ACD
:10330000D30A56E0C516D104E9F65A948FEF281A6D
:10331000380A5110D5CFA885B9852C91422F50E09D
:10332000ED81FE8180819181F6E02F9F800D911DBE
:103330001124AD81BE818D939C93EC85FD85E75E64
:10334000FB4F2081222309F44FCF6AEF64039001E1
:10335000659F300D112420583F4F281739070CF076
:1033600043CFAC85BD85ED91FC9111970190F08123
:10337000E02D6AE0CD01099537CF96E09B83FA8274
:10338000E982A6E0AC83F101E40DF51DFB87EA8735
:10339000D501C40181709927AA27BB2780FC02C0F0
:1033A0007614D1F0892B8A2B8B2BA1F06F826101CF
:1033B0002A853B85C216D3067CF40F81212F4981D3
:1033C0005A81B6018C859D850E94DB143FEFC31A9C
:1033D000D30AEECF7F82EBCFB694A79497948794CD
:1033E0005C8151505C8389819A81840D951D9A83FB
:1033F00089835111CDCF9B8191509B83240C351C27
:103400009111BDCF88CFEF92FF920F931F93CF936F
:10341000DF938C017B01D0E0C0E0F701EC0FFD1FD2
:103420006491662339F0C8010E94C518892B11F0F8
:103430002196F3CFCE01DF91CF911F910F91FF9095
:10344000EF9008958F929F92AF92BF92CF92DF92AA
:10345000EF920F93CF93DF930E94C40D20916C02E3
:1034600080E590E0821B91096DE170E00E9481355A
:103470004B018FE2C82E8DE0D82E9CE1A92EB12CF5
:10348000D0E0C0E081E090E08C169D0611F090E065
:1034900080E020916B02289FB001299F700D1124BC
:1034A000645F7F4FEE24E39400E228E1A601C501AA
:1034B0000E94B70C219688E1A80EB11C80E6C80EC8
:1034C000D11CC330D105F1F608E020E24FE05DE009
:1034D0006CE270E084E490E00E94B70C80E190E040
:1034E0009093500780934F078AE390E090935207A0
:1034F000809351076EEF7CE08BE393E0DF91CF91F7
:103500000F91EF90DF90CF90BF90AF909F908F90F2
:103510000C94031A682F8BE393E00C94C51808955C
:1035200090E080E0089597FF0DC022273327281BE5
:10353000390B4217130629F024F0480F90E080E081
:1035400031F408954423E9F380389105D4F76034C9
:103550007105B8F79C01240F311D2138310514F095
:1035600040E8481B362F377021E001C0220F3A9502
:10357000EAF7FB0133E0F595E7953A95E1F7F69523
:10358000FE2FEE27F795E795E80FF91FE15BFC4F5B
:103590008081822B81934150D9F7D3CFAF92BF92D4
:1035A000CF92DF92EF92FF920F931F93CF93DF930F
:1035B000B090890292E0A92EAB0C10918A02C091C2
:1035C0008B020C2E000CDD0B7E0141E0E41AF108A9
:1035D000C0908C020C2C000CDD0842E0410F00E092
:1035E0002A2DB701C60101970E94290C80918802FB
:1035F000882321F11C5F229752E0C51AD108412F80
:10360000BE01C6010E94931A84E08B0DBE01680FB3
:10361000711D87FD7A9561507109412FC6010E9485
:10362000931A4A2DB701C6010E94C50BC601810F2E
:10363000911D4A2DB70101970E94C50B10E000E0D3
:10364000D0E0C0E08DE6E82E82E0F82E20918B02DB
:10365000022E000C330B80918C02082E000C990B6B
:1036600060918D02E62F062E000CFF0B4091860222
:10367000042E000C550BC417D5071CF5D701129664
:103680006D917C91200F311F0C9644E050E0CE17D5
:10369000DF0711F050E040E0841B950B909350073A
:1036A00080934F0730935207209351078BE393E0A9
:1036B0000E94031A2196B4E0EB0EF11C0A5F1F4F23
:1036C000C5CFA901A6E06A02400D511D1124BA011F
:1036D00001E025E045E00E94290C809187028111DC
:1036E0000E9453151092A402DF91CF911F910F9168
:1036F000FF90EF90DF90CF90BF90AF9008958F92A2
:103700009F92AF92BF920F931F93CF93DF93CDB74A
:10371000DEB7A1970FB6F894DEBF0FBECDBF19A2DA
:10372000423008F44AE08E010F5D1F4F842E912C29
:10373000B12CA12CA50194010E943635E62FB901C8
:10374000CA01EA3044F5E05DD801EE938D01232BE8
:10375000242B252B79F790E080E0109769F0FD018C
:1037600001900020E9F73197AF014A1B5B0BBD01C7
:103770008BE393E00E94680FA1960FB6F894DEBF2A
:103780000FBECDBFDF91CF911F910F91BF90AF9032
:103790009F908F900895E95CD7CF2F923F924F92E0
:1037A0005F926F927F928F929F92AF92BF92CF92D1
:1037B000DF92EF92FF920F931F93CF93DF9390933B
:1037C000500780934F077093520760935107690128
:1037D0007A01CA01B90120E832E342E050E00E94D8
:1037E000363549015A01C701B60120E639E040E00B
:1037F00050E00E9436356CE3462E512C612C712C22
:10380000CA01B901A30192010E943635D62F272E95
:10381000382E092FC701B60128E230E040E050E021
:103820000E943635CA01B901A30192010E943635C2
:10383000C62F572E3C014C2E81149104A1F5D111B5
:103840003FC06A3018F480E30E948A1A4AE06C2F65
:10385000752DC3010E947F1B8EE20E948A1AC70148
:10386000B60122E096958795779567952A95D1F7C9
:103870002AE030E040E050E00E9436354AE0DF9137
:10388000CF911F910F91FF90EF90DF90CF90BF905D
:10389000AF909F908F907F906F905F904F903F90F0
:1038A0002F900C947F1B4AE0C501B4010E947F1B3E
:1038B0008AE30E948A1ADA3018F480E30E948A1A96
:1038C0004AE06D2F722D832D902F0E947F1B8AE37B
:1038D0000E948A1A29E0241518F080E30E948A1AAF
:1038E0004AE06C2F752DC301CACFCF92DF92EF92C1
:1038F000FF9269017A019093500780934F0770936C
:103900005207609351074AE0C701B901F7FE0BC0A7
:103910008DE20E948A1A66277727CB016C197D09F0
:103920008E099F094AE0FF90EF90DF90CF900C94B2
:103930007F1B0E94B635EF92FF920F931F93CF9398
:10394000DF938091A702882309F41CC1C091A802CB
:10395000D091A9020E94C40DC230D10519F123975C
:1039600009F42BC1EE24E39400E126E74DE55FE086
:1039700068E070E085E090E00E94B70C08E028E085
:1039800045E55FE070E060E08BE290E00E94B70CFC
:1039900028E045E55FE070E060E083E690E00E94AB
:1039A000B70CF0C082E290E09093500780934F07ED
:1039B00010925207109251076DEE7EE08BE393E078
:1039C0000E94031AC0E1D0E0D0935007C0934F0784
:1039D0008AE090E0909352078093510765EE7EE075
:1039E0008BE393E00E94031AD0935007C0934F07D4
:1039F00087E190E0909352078093510760EE7EE05C
:103A00008BE393E00E94031A86E190E090935007C5
:103A100080934F078DE190E0909352078093510778
:103A200068ED7EE08BE393E00E94031AD093500789
:103A3000C0934F078AE290E090935207809351071A
:103A400061ED7EE08BE393E00E94031AC1E0D0E0D9
:103A5000D0935007C0934F0784E390E090935207B0
:103A60008093510767EC7EE08BE393E00E94031A9A
:103A7000D0935007C0934F078AE390E0909352078A
:103A8000809351076BEB7EE08BE393E00E94031A77
:103A9000EE24E39405E023E148EA5EE060E170E0B3
:103AA00088E590E00E94B70C21E147E95EE060E222
:103AB00070E088E590E00E94B70C20918E02309172
:103AC0008F024091900250E06AE070E089E490E05B
:103AD0000E94751C2091910230E050E040E060E1CE
:103AE00070E080E790E00E94751C20919202309176
:103AF00093024091940250E06AE170E089E490E022
:103B00000E94751C2091950230E050E040E060E298
:103B100070E08EE690E00E94751C2091A30230E0D8
:103B200050E040E06AE270E089E490E00E94751C99
:103B300063E97EE08BE393E00E94031A20919602F2
:103B400030919702409198025091990264E370E09D
:103B500089E490E00E94CD1B20919A0230919B0253
:103B600040919C0250919D026AE370E089E490E0EC
:103B70000E94751C2DE242E866E070E08FEF9FEF37
:103B80000E940A158091A8029091A90281309105A6
:103B900011F0049749F48091A402811103C080912F
:103BA000A70281110E94CE1A1092A702DF91CF9135
:103BB0001F910F91FF90EF900895C8E0D0E008EFBB
:103BC0001EE064E170E0C8010E94B0347C01FF2473
:103BD000282F3DEF3203C0011124805C9F4F90934A
:103BE000500780934F07D0935207C0935107B801F5
:103BF0008BE393E00E94031A8FEFE81AF80A0E0D88
:103C00001F1D2696C833D105E1F6BCCFCF92DF92B7
:103C1000EF92FF92CF93DF938091A8029091A90237
:103C2000019739F50E9405188091A8029091A90288
:103C3000C2E0D0E0049711F0C1E0D0E00E94EA3386
:103C40006C01990FEE08FF080E940311C616D706F3
:103C5000E806F90631F06C257D258E259F250E940A
:103C60009534CE01DF91CF91FF90EF90DF90CF9010
:103C700008958091570790E080959095209158077E
:103C80002C7030E082239323892BB1F20E942F17EE
:103C900081E090E09093A9028093A8028093A7020C
:103CA000CBCF0F931F93CF93DF938091A802909176
:103CB000A902892B09F048C080E893E0909385021F
:103CC00080938402F999FECF80E893E00E94D33478
:103CD00024E833E030938502209384026F347244E9
:103CE0008E44954009F074C0F999FECF46E150E04A
:103CF00064E873E08EE892E00E94BB34C0918402D5
:103D0000D09185026696D0938502C0938402F9997A
:103D1000FECFCE010E94D9348C012296D093850229
:103D2000C09384020E94AE188017910709F050C01A
:103D300082E090E09093830280938202109281024D
:103D40008091EA020E94F2171092860268E475E1FF
:103D50008BE89EE00E947C156BE375E18EE79EE0A8
:103D60000E947C156CE477E187E79EE00E947C1559
:103D700060E477E180E79EE00E947C1564E377E1F0
:103D800089E69EE00E947C1586E180938C0282E2A7
:103D900080938B0284E580938A028EE1809389026E
:103DA0001092880281E0809387029091A5029093FF
:103DB0008D028093A40221E030E03093A902209389
:103DC000A8028093A702DF91CF911F910F910895D0
:103DD000EEE8F2E086E1DF011D928A95E9F781E0E5
:103DE00090E0909383028093820280938102A8CF17
:103DF0000F931F93CF93DF93282F2150330B89010B
:103E0000E901CC0FDD1FFE01EF5AF74F8591949128
:103E100063E00E944413BE01600F711F615C774F25
:103E200043E050E085E691E00E949E3486E0809376
:103E30006401DF91CF911F910F9108950F931F930C
:103E4000CF93DF93EC018B010E94463426E030E0F3
:103E500040E050E00E9404356F5F7F4F8F4F9F4FCF
:103E600068830E94463424E030E040E050E00E9445
:103E7000043569830A8390E080E00115110511F48F
:103E800080E491E09C838B831E821D828091560189
:103E90008F5F80935601012B29F0809157018F5F2E
:103EA00080935701DF91CF911F910F9108954F9209
:103EB0005F926F927F928F929F92AF92BF92CF92BA
:103EC000DF92EF92FF92CF93DF9385E0882E912CC3
:103ED000A12CB12C97E0C92ED12CE12CF12CD7E0EC
:103EE000C1E30E944634A50194010E9404352B01D0
:103EF0000E944634A70196010E940435D69FA00176
:103F0000D79F500D1124C49D9001C59D300D1124E3
:103F1000CA01820F931F8A589E4FFC0120812111F4
:103F2000E0CFDF91CF91FF90EF90DF90CF90BF90E7
:103F3000AF909F908F907F906F905F904F9008957B
:103F4000CF93DF9386E791E040E451E0FC0130E05D
:103F500020E01082548343832F5F3F4F37962730F2
:103F60003105B9F7C19622E08B36920779F71092A6
:103F7000570110925601CFE0D0E00E94571F61E038
:103F800070E00E941E1F2197C1F7DF91CF91089525
:103F9000BF92CF92DF92EF92FF920F931F93CF9336
:103FA000DF938091A5029091A6028130910509F4DA
:103FB00053C008F44AC0029709F460C0E8E5F1E094
:103FC0008CE0DF011D928A95E9F783E0809355012B
:103FD00082E08093540110926B0110926A0110925A
:103FE00050011092510110925201109253011092FF
:103FF0004F0110924E0110926401109269011092CB
:104000004D01109268011092490110924A011092DC
:104010004B0110924C011092480181E090E0909386
:10402000750180937401809381028093A70260E000
:1040300089E298E0DF91CF911F910F91FF90EF906F
:10404000DF90CF90BF900C9444130E94A01F81E09A
:1040500090E00E947F16B2CF0E94A01F8FE0809355
:10406000700186E180936F018EE180936E0188E795
:1040700080936D0188EC80936C01A0CFE091730177
:1040800087E1E802F0011124EF56FB4F66E771E08B
:10409000F12C30E020E050E040E000E411E0A2E04C
:1040A000EA2EBB24B394DB01D0E0C0E0253031051B
:1040B00078F4CF010196E491F0E0022E02C0EE0FF9
:1040C000FF1F0A94E2F74E0F5F1F285F3F4FFC016E
:1040D000CA018F7199278E31910508F06CC0883123
:1040E000910508F05FC06C01D694C794D694C7942C
:1040F000C394CC92837011968C9311971296BC92B4
:10410000129716961C921E92159714961C921E9248
:104110001397F39485E0569547958A95E1F72550D6
:10412000310921961796C730D10509F0BFCF6F5CD2
:104130007F4FA2E06B367A0709F0B5CFF0925601B7
:1041400090E080E041E0DC01A955BE4F21E030E085
:104150002F5F3F4F17965C9117975730A9F4ED01E9
:10416000AA975881573081F0D8965C91D8975730EC
:1041700059F05C91573041F01E965C911E97573074
:1041800019F018964C93189717962630310501F7B9
:10419000C19683399105B9F6F0925701E491E09305
:1041A00047010CCF87518C9311961C921197129650
:1041B000EC921297A6CF4E9751F080E08C93119617
:1041C0001C92119714961C930E931397A3CF87E01C
:1041D000F5CF8091A5029091A602029791F51092D9
:1041E00073018091A302883210F540E0942F4F5F55
:1041F000E92F97FF02C0E7E0E90FE595E595E59522
:104200000E2E000CFF0BE257FD4F208930E0892F66
:10421000877887FF03C08150886F8F5F02C0359514
:1042200027958A95E2F720FDE1CF9093730184E012
:1042300090E0909375018093740181E08093A702D0
:1042400008950C94C81F2F923F924F925F926F92E5
:104250007F928F929F92AF92BF92CF92DF92EF9216
:10426000FF920F931F93CF93DF93CDB7DEB72E97B7
:104270000FB6F894DEBF0FBECDBF409074015090D2
:10428000750126E04216510409F423C53091A702B6
:104290003D83332309F480C00E94C40D44E04416DA
:1042A000510409F0D0C082E290E0909350078093CF
:1042B0004F07109252071092510766E874E08BE3A3
:1042C00093E00E94031A412C512C320143941A822C
:1042D000198216E089819A8165E070E00E9481353B
:1042E00058E1589F7001599FF00C112467018AE032
:1042F000C80ED11C169F1001179F300C11245101BC
:1043000098E0A90EB11C80917301082E000C990B46
:10431000E981FA81E817F907B9F46701F6E0CF0EF1
:10432000D11C470125E0820E911CE814F90461F0CC
:1043300001E025E0A501B7018BE393E00E94DB14C7
:104340003FEFE31AF30AF1CF49815A814832510510
:1043500009F04FC0D0925007C0924F07B092520759
:10436000A092510768E774E08BE393E00E94031A80
:10437000E981FA813196FA83E983FFEF4F1A5F0AE8
:104380006F0A7F0A29813A812932310509F0A2CFCB
:104390000E9453151092A7028091740190917501AB
:1043A0008230910521F08530910509F0BFC38091DD
:1043B000A40281110E94CE1A40E060E080E02E96B7
:1043C0000FB6F894DEBF0FBECDBFDF91CF911F9126
:1043D0000F91FF90EF90DF90CF90BF90AF909F90A4
:1043E0008F907F906F905F904F903F902F900C94A4
:1043F000E510A3019201B501C6010E94751CE98177
:10440000FA8173E0F595E7957A95E1F7E257FD4F6C
:10441000808990E029813A812770332702C09595E1
:1044200087952A95E2F780FFA3CF89819A8149E099
:1044300009970CF04FE0B101665F7F4FC60102970C
:104440000E949A1395CF35E04316510409F015C127
:1044500082E080935307E0904901F0904A01009177
:104460004B0110914C019701A8018BE390E09A83D6
:1044700089836AE0862E912CA12CB12C2A3031053B
:104480004105510560F0CA01B901A50194010E94DE
:104490003635E981FA813697FA83E983EFCF9701C0
:1044A000A80170E060E089819A810E94751C81E01A
:1044B000809353073AE5A32E34E0B32E48E5842ECB
:1044C00041E0942E212C312C21011A8219825EE1C7
:1044D000F52E16E089819A8163E070E00E948135B3
:1044E000F89E3001F99E700C1124169F6001179FF1
:1044F000D00C1124F6E2CF0ED11CEE24E39405E09B
:1045000025E0A501B601C30185960E94B70CF40110
:10451000208131812031F7E23F0710F02FE037E2B0
:1045200050E040E0B601C3018B960E94751CF40177
:10453000819191914F01280E391E411C511C2981F6
:104540003A812F5F3F4F3A83298335E0A30EB11C98
:1045500049815A814630510509F0BCCF81E090E095
:104560009093500780934F070EE010E0109352078E
:104570000093510764E574E08BE393E00E94031A13
:10458000E1E0F0E0F0935007E0934F0784E190E022
:1045900090935207809351076AE474E08BE393E0B1
:1045A0000E94031A21E030E03093500720934F0718
:1045B0008AE190E0909352078093510760E474E0A1
:1045C0008BE393E00E94031A41E050E050935007C0
:1045D00040934F0780E290E09093520780935107F9
:1045E00064E374E08BE393E00E94031A8091A502D8
:1045F0009091A602892B81F520917201022E000C68
:10460000330B440B550B6EE070E089E490E00E94A0
:10461000751C20914E0130914F0150E040E064E163
:1046200070E089E490E00E94751C20915001309167
:10463000510140915201509153016AE170E089E4C7
:1046400090E00E94CD1BA201910160E270E089E43C
:1046500090E00E94751C9ECE89E490E090935007F4
:1046600080934F07109352070093510761E374E062
:104670008BE393E00E94031ACCCF8091A502909126
:10468000A602019799F552E04516510479F58CE19F
:1046900090E09A83898348E368E070E089819A8199
:1046A0000E94C50B69817A81645171094EE48CE1E5
:1046B00090E00E94931AE981FA813B96FA83E9839C
:1046C000E437F10541F780916901882309F462CE4E
:1046D00080914801882309F45DCE20E440E870E031
:1046E00060E090E080E00E940A1554CE26E731E0B9
:1046F0003C832B8342E451E05A83498324E0622EB9
:10470000712C89819A81825491409F838E83CB80C2
:10471000DC8008E110E0B12CA12CF3013496FB877A
:10472000EA87F601F081FC87F73009F04AC1F6010B
:1047300041812DEF2403A00111244A5F5F4F6E8158
:104740007F81C5010E94D0159FEFA91AB90AE7E041
:10475000CE0ED11C055F1F4FF7E0AF16B10409F76D
:104760002BE0620E711C49815A814F5F5F4F5A8363
:1047700049838B819C81C1969C838B839BE36916C3
:10478000710409F0BECFEAE6F0E0FA83E98300E0C5
:1047900020E450E040E069817A818BE393E00E945D
:1047A000DB1429813A812F5F3F4F3A8329832E36CC
:1047B000310569F74A94452809F085CF8091A50213
:1047C0009091A602EE24E39405E0029709F051C10E
:1047D0002FE046E154E070E060E090E080E00E946D
:1047E000B70C20914701022E000C330B440B550BE4
:1047F00066E070E090E080E00E94751C21E145E0F9
:1048000054E065E370E090E080E00E94B70C2091F6
:104810007301022E000C330B2F5F3F4F032E000C51
:10482000440B550B6BE370E090E080E00E94751C38
:1048300080917401909175010197B9F540914D01F6
:104840004983442391F1EE24E39405E021E147E913
:104850005EE065E370E08FE690E00E94B70C59815E
:1048600052FD23C0E0914001F09141019F0150E0D1
:1048700040E081E090E0E436F10510F090E080E067
:1048800061E070E03A9710F070E060E0860F971FEB
:1048900066E0689FF001699FF00D11246BE370E002
:1048A000CF0181599F4F0E94751C809155018983CA
:1048B0008BE099819802300111244301E8E18E0ECA
:1048C000911CF0915401FB83F80250011124609176
:1048D00050017091510180915201909153012AE051
:1048E00030E040E050E00E9436356B0165307105E4
:1048F0002CF02AE030E06901C61AD70A8EE08C9DC0
:10490000A0018D9D500D11244F565C4FB501615093
:104910007109E12C08E02EE0C30147960E94B70C14
:104920008CE08C9DA0018D9D500D1124475B5C4F48
:10493000EE24E39406E02CE0B501C4010E94B70C1C
:10494000398147E03402F00111245B8181E3580290
:10495000E00DF11D1124EA58FE4F90819983892FB3
:10496000815021E041E250E08630C0F44181042FC3
:1049700010E020E042E250E070E060E08CE690E081
:104980000E94BF15E9814E2F50E04150504C440F1A
:10499000551F440F551F400F511F21E070E060E08C
:1049A0008CE690E00E94BF15EE24E39405E02DE034
:1049B0004CE353E061E170E08DE690E00E94B70CBB
:1049C00082CE80916401882329F1E981FA81808176
:1049D00090E00A2C02C0959587950A94E2F78170C1
:1049E000FC85FF23A1F030904801F601E380F480BC
:1049F000332091F0811160C1F0EAEF16F10488F0E4
:104A0000F6019281992319F0933009F01AC150E010
:104A100040E095CE80E0E4CFFFEFEF16F10409F01F
:104A2000A8F496E0F694E7949A95E1F748018E0C85
:104A30009F1CE60CF71C882309F40FC121E042E219
:104A400050E0B701C4010E94BF157ECEB4E0EB2E4A
:104A5000F12CECCF3D800BC1312C09C14D855E8519
:104A60004150504C440F551F440F551F420D511DCE
:104A700021C123E142EF53E066E070E090E080E086
:104A80000E94B70CE09255071092560720914901F9
:104A900030914A0140914B0150914C0170E060E02F
:104AA00090E080E00E94751CE0925507E092560766
:104AB0008091A5029091A602892BA9F423E148EAEE
:104AC0005EE065E370E090E080E00E94B70C8091CA
:104AD000680182FDADCE20917201022E000C330BD5
:104AE000440B550B9FCEEE24E39405E02DE045EEFC
:104AF00053E065E370E090E080E00E94B70C8091A5
:104B0000500190915101A0915201B091530120E2C6
:104B10003CE140E050E0281B390B4A0B5B0B6BE398
:104B200070E090E080E00E94CD1B82CE039791F46C
:104B3000F0913F01F983FF2369F0F531E8F08091AE
:104B4000A5029091A602029729F084E4F0FD80E48A
:104B50000E9430128091640140916701849F402D32
:104B6000112460916601869F602D1124909165014A
:104B7000899F802D112423CC04E110E02981021BA0
:104B800011090730110514F006E010E098012F5FBD
:104B90003F4F220F6FE170E0601B710B40E890E027
:104BA00080E00E940A15302F330F3B8380E290E0B3
:104BB0006C01C01AD10AF12CE12C00E02B81A60176
:104BC000B7018BE393E00E94DB144FEFE41AF40A81
:104BD00050E8E516F10489F789818F3008F0BACFE3
:104BE00000913D0110913E01C8010E94A73446E0AA
:104BF000489F9001499F300D112480E490E0FC0112
:104C0000E21BF30B9F0182E080935307F981FF9F22
:104C1000C001112495958795820F931F909350079B
:104C200080934F078BE190E0909352078093510758
:104C3000B8018BE393E00E94031A81E0809353074D
:104C400089CF3FEFE316F10409F008F4EACE4801FA
:104C500024E0820E911CEA84FB84F601828182307A
:104C600009F4F8CE833009F0F7CE81E03826F6015A
:104C700021803C85232F30E03E872D8720E042E2D3
:104C800050E0B701C4010E94BF15332009F4E6CEFD
:104C9000ED85FE85E150F048EE0FFF1F422D41707B
:104CA0004887198688859985E80FF91FEB5DFB4FCA
:104CB000449150E021E0C5CE5FEFE516F10409F024
:104CC00008F4AFCE480144E0840E911CEA84FB84D2
:104CD000B5CE2E960FB6F894DEBF0FBECDBFDF91D6
:104CE000CF911F910F91FF90EF90DF90CF90BF90E9
:104CF000AF909F908F907F906F905F904F903F907C
:104D00002F900895CF93DF9380918102882309F437
:104D100054C08091820290918302019709F050C0A3
:104D200080E893E09093850280938402F999FECF06
:104D30004FE452E46EE475E080E893E00E94F734BB
:104D400080918402909185020496909385028093CD
:104D50008402F999FECF609184027091850246E148
:104D600050E08EE892E00E94DF34C0918402D0913E
:104D700085026696D0938502C09384020E94AE1885
:104D8000F999FECFBC01CE010E94FF3480918402CC
:104D9000909185020296909385028093840260919F
:104DA000EA0282E090E00E94E93482E090E0909391
:104DB00083028093820210928102DF91CF91089545
:104DC00084E893E0C2CF0E942F170E94822684E0DD
:104DD00090E0909375018093740181E08093A70225
:104DE00008950E942F170E94822686E090E09093FB
:104DF00075018093740108950E9482260C94C81F47
:104E0000809173018150809373010C94FC268091F2
:104E100073018F5F809373010C94FC262F923F9255
:104E20004F925F926F927F928F929F92AF92BF92BA
:104E3000CF92DF92EF92FF920F931F93CF93DF9366
:104E4000CDB7DEB7E5970FB6F894DEBF0FBECDBF86
:104E500080917401909175018330910509F445C5E5
:104E600038F58130910569F1029741F18091740123
:104E700090917501069709F0DCC581E090E0E59618
:104E80000FB6F894DEBF0FBECDBFDF91CF911F915B
:104E90000F91FF90EF90DF90CF90BF90AF909F90D9
:104EA0008F907F906F905F904F903F902F900895DC
:104EB0008430910509F45AC50597C1F60E9405187A
:104EC000D5CF80916401882319F0815080936401CB
:104ED00080916901882319F0815080936901809144
:104EE0004D01882319F0815080934D018091680114
:104EF000882319F08150809368010E947A184091AC
:104F00005601E0905701ABE6B2E026E731E0FF241E
:104F1000F39400E411E0F90170E060E080818823FF
:104F200049F0873039F08281882309F4E6C1833063
:104F300009F4EEC16F5F7F4F37966730710571F7E7
:104F40002F5C3F4FA217B30731F7E0925701409310
:104F500056018091A5029091A602029709F445C0DE
:104F600080916C0190E020916A0130916B012817CB
:104F7000390734F42F5F3F4F30936B0120936A0160
:104F8000209170014217C8F020916F01421750F430
:104F900050916D0120916A0130916B0152171306F7
:104FA00061F05CF020916E014217F8F420916A01E3
:104FB00030916B0128173907C4F00E94571F70E029
:104FC00060E00E941E1F64E084E392E00E944413AC
:104FD00080916A0190916B011816190614F490E003
:104FE00080E090936B0180936A0150915501C52E2A
:104FF000052E000CDD0880913C01B601680F711D83
:1050000087FD7A956730710510F010923C01809110
:105010005401E82E082E000CFF0890913B019701E7
:10502000290F311D97FD3A952530310510F010926A
:105030003B0190913C0130913B01911103C033231E
:1050400009F47AC127E02C9DF0012D9DF00D11246B
:1050500041E34E9DB0014F9D700D1124E60FF71FE7
:10506000EA58FE4FDE019C96622F01900D926A95E0
:10507000E1F76091580762FF59C15202F001112413
:105080008402E00DF11D1124EA58FE4F40812FEFFC
:10509000240F263008F04AC103811481011511053F
:1050A00009F044C1818092809111AAC1B0903B0166
:1050B000D701AB0DB11DB7FCBA9590913C01692F9A
:1050C000092E000C770BF601E60FF71F27E0A22E42
:1050D000AE9E9001AF9E300D1124E1E37E2E7A9EAC
:1050E000F0017B9EF00D11242E0F3F1F2A583E4FDA
:1050F000F901DE01959601900D92AA94E1F7A1E0E5
:105100009A121AC1D901EC911296FC91129713963A
:105110002D913C91EE2389F0E73008F00DC1203A43
:10512000310508F409C1F33041F4209156012150B2
:105130002093560120E431E0E0E0EDA3FFA339A77E
:1051400028A727E02C9DD0012D9DB00D112431E31F
:105150003E9DF0013F9DF00D1124AE0FBF1FAA58D8
:10516000BE4FFE01B59601900D922A95E1F7E52E0E
:10517000E90EE0925501F82EFB0CF0925401242F19
:105180002150330BF901EE0FFF1FEE0FFF1FE80D4B
:10519000F11DEE0FFF1FEE0FFF1F3B2D43E034020A
:1051A000600D711D11244B0153E0850E911C97FE7B
:1051B00004C04B0184E0880E911C95948794E80DFF
:1051C000F91DE25BFD4F84900E94ED17809147012D
:1051D000815080934701CF2C0F2C000CDD082E2D21
:1051E0000E2C000C330B882D869586958F5F8CA72F
:1051F000E82DE370EDA781E08EA718AA1FA697E01F
:10520000929FD001939FB00D112481E38C9DA0014A
:105210008D9D500D1124A40FB51FAA58BE4FFE013D
:10522000BC96492F01900D924A95E1F7E2E4F1E036
:1052300045E0DF011D924A95E9F7BF2DB802F00164
:1052400011244E2D4902E00DF11D1124EA58FE4FA4
:1052500050815BAB513009F040C101E010E083E0C8
:10526000E82EF12C41E397E0B92EC801B7010E9466
:1052700081356C0D7D1D820F931F0197873091053D
:10528000D8F46150710965307105B0F4469FF001A2
:10529000479FF00D1124B89EB001B99E700D1124E6
:1052A000E60FF71FEA58FE4F80818150863020F4C8
:1052B0008281833009F406C10E5F1F4F093011054A
:1052C000A1F68091490190914A01A0914B01B091C2
:1052D0004C01803866E9960768E9A607B10520F019
:1052E0008FE796E9A8E9B0E08093490190934A01DD
:1052F000A0934B01B0934C011FC08381948104970C
:1053000094838383892B09F015CEF282E39412CE25
:10531000838194810196948383838034914008F43F
:1053200009CE108214830383415004CE950F9093CD
:105330005501830F809354010091A5021091A6029C
:10534000C0905001D0905101E0905201F090530173
:105350000115110509F0D2C18091720183367CF4E8
:105360009091710119165CF0082E000C990B0196B2
:105370000E947F1662E089E193E00E944413FFEFF0
:10538000CF1ADF0AEF0AFF0AC0925001D0925101F2
:10539000E0925201F092530180919602909197020F
:1053A000A0919802B09199020196A11DB11D809320
:1053B000960290939702A0939802B09399028091DD
:1053C000480191E08927809348010130110509F4D3
:1053D00015C208F4D4C10230110509F43CC2809111
:1053E000570790E08095909520915807287030E0FD
:1053F00082239323892B09F4FDC10E946417FAC10B
:10540000332309F453CE90914801992319F0109257
:105410003C014CCE10923B0149CE10E000E0B09E22
:10542000C001B19E900D1124AC9C9001AD9C300D3B
:105430001124820F931F8A589E4FDC012C9121303A
:10544000C9F412962C9121502230A0F461E070E052
:105450000E94ED16F601EE5BFE4F21E030E0002EDB
:1054600001C0220F0A94EAF78081822B8083BFEF6C
:10547000EB1AFB0A0F5F1F4F0730110581F6EFEFA4
:10548000CE1ADE0AF5E0CF16D10439F681E00E948B
:10549000F81EC701FF0CAA0BBB0B409149015091AC
:1054A0004A0160914B0170914C01840F951FA61F1A
:1054B000B71F8093490190934A01A0934B01B09389
:1054C0004C01FFCED12CC12CF12CE12C10E000E0DE
:1054D000A7E0BA2EB1E3AB2EA2CFF12CE12C50E025
:1054E00040E063E0A62E7BEA972EE7E07E2EF1E314
:1054F0008F2EA1E0B0E02730310528F565E0C61613
:10550000D10408F5C6018E5B9E4FFC01B0806B2D67
:1055100070E0022E02C0759567950A94E2F760FD6F
:1055200012C0729EF001739EF00D11248C9CB0018C
:105530008D9C700D1124E60FF71FEA58FE4F608115
:105540007BA97617D9F14150510908F44BC0E1E02D
:10555000F0E0EC0FFD1FE40FF51FE0818E2F6A2DA8
:105560000E946735692F6150770B261B370BE99D29
:10557000812D112486958150990BC81AD90AE730DC
:1055800011F382E08E0F899D612D11246695962F6F
:10559000990F960FE82FE91BE150FF0B2E0F3F1FCD
:1055A0006150770BC60ED71EE1E0F0E0EC0FFD1F57
:1055B000E40FF51F80834F5F5F4F9DCF7FEFE71AAA
:1055C000F70A658176810617170708F48B01BD017C
:1055D000022E01C0660F0A94EAF7B62AFC01B082D7
:1055E00081E0D1CFFBA92F2E312CE214F3040CF46F
:1055F00068CE073E23E0120710F40F5F1F4F82E4CE
:10560000482E81E0582E96E7692E91E0792ED12C14
:10561000C12C912C812CB12CA12CA6014A585E4F93
:105620005DAB4CABD2018C9190E00A2C02C09595F9
:1056300087950A94E2F780FF14C0B8018CA99DA950
:10564000880D991D0E94ED16F301E80DF91D838167
:1056500094818032910510F480E290E080979483E9
:105660008383BFEFAB1ABB0AE7E08E0E911CF7E015
:10567000AF16B104B9F62FEF421A520A31E3C30E46
:10568000D11C41E3640E711C55EFC516D10409F617
:10569000109341010093400188EC80934D018BA948
:1056A0000E94F81E9101D7010E949B359B01AC011D
:1056B000D8010E942335C0904901D0904A01E09062
:1056C0004B01F0904C01DC01CB018C0D9D1DAE1DFA
:1056D000BF1D8093490190934A01A0934B01B09361
:1056E0004C0180914E0190914F018017910708F471
:1056F000C80190934F0180934E01E3CD0130110515
:1057000009F03DCE70E6C71679E0D706E104F10452
:1057100069F180ECC81682E1D806E104F10431F1A8
:1057200090E7C91697E1D906E104F104F9F0C11434
:10573000A9E1DA06E104F104C9F0C701B60128E2E3
:1057400030E040E050E00E943635672B682B692B33
:1057500009F015CED701C60180599A41A109B109B6
:1057600080399140A105B10508F009CE62E08CE0D6
:1057700093E00E9444138AE08093690100CE8091F7
:105780005701833208F42BCE82E093E090933E01E0
:1057900080933D014091490150914A0160914B0134
:1057A00070914C0180918E0290918F02A091900295
:1057B000B0E084179507A607B70750F440938E0210
:1057C00050938F02609390028091720180939102B6
:1057D00061E080EE92E00E94441383E090E09093B9
:1057E0007501809374010E9482261092480188E21C
:1057F00080933F0181E08093A70238CB20E2C2165C
:105800002CE1D206E104F10408F4E9CD88ED92E040
:1058100090933E0180933D014091490150914A018E
:1058200060914B0170914C01809192029091930292
:10583000A0919402B0E084179507A607B70740F639
:1058400040939202509393026093940280914E0190
:1058500080939502BDCF8091570190914701191611
:10586000C4F58111BCCD82ED92E090933E0180930E
:105870003D0180917301E82F87FF02C0E7E0E80F48
:10588000E595E595E5950E2E000CFF0B982F977882
:1058900097FF03C09150986F9F5F21E030E001C0F7
:1058A000220F9A95EAF7E257FD4F9089492F42233C
:1058B00061F4922B908B9091A3029F5F9093A3022F
:1058C00087321CF48F5F8093730161E08CEB92E070
:1058D00082CF882341F286EB92E090933E01809341
:1058E0003D0161E08EEA92E076CF10913F011123F5
:1058F000F9F0115010933F0180916401882319F051
:105900008150809364018091A5029091A602029734
:1059100009F08FC011118DC08091E402181728F48E
:10592000812F0E94AE121F5FF7CF1092E5029ECA30
:10593000809158078C7090E02091570730E02095B7
:10594000309582239323892B09F473C08091A5029B
:105950009091A602029709F050CD84E090E09093D8
:105960007501809374010E942F1744CF0E947A180A
:1059700030917301383231F480913C01181614F4DF
:1059800010923C0180913C0120913B01811102C0A9
:105990002223D9F0082E000C990B830F911D37FD9F
:1059A0009A9535E02302800D911D11248D329105C9
:1059B00060F48932910514F088E290E080937301DD
:1059C0000E94ED1781E08093A702809158078870AC
:1059D00090E02091570730E0209530958223932363
:1059E000892B51F08091EA0211E081270E94F21781
:1059F0000E942F171093A7028091570790E080957F
:105A0000909520915807247030E082239323892BAE
:105A100081F080917301883249F486E090E09093A0
:105A20007501809374010E942F1720CA0E94C81F1D
:105A30001DCA82E090E023CA1F920F920FB60F9208
:105A400011248F939F938091E1009091E100937FC7
:105A50009093E10083FF0FC01092E90091E09093D2
:105A6000EB001092EC0092E39093ED001092E302B1
:105A700098E09093F00082FF22C093E09093E900B9
:105A80009091F200992319F09AE39093E800909195
:105A9000D402992341F09091D40291509093D40272
:105AA000911101C05D9A9091E202992341F0909189
:105AB000E20291509093E202911101C0289A84FF72
:105AC00018C08091E2008E7E81608093E200809118
:105AD000E1008F7E8093E1008091D5028E7E80610F
