:100000000C94B90B0C94E10B0C94E10B0C94E10BE8
:100010000C94E10B0C94E10B0C94E10B0C94E10BB0
:100020000C94E10B0C94E10B0C94642A0C94D62AEA
:100030000C94E10B0C94E10B0C94E10B0C94E10B90
:100040000C94E10B0C9412260C94E10B0C94E10B34
:100050000C94E10B0C94E10B0C94E10B0C94EB244D
:100060000C94E10B0C94E10B0C94E10B0C94E10B60
:100070000C94E10B0C94E10B0C94E10B0C94E10B50
:100080000C9413270C94E10B0C94E10B0C94E10BF2
:100090000C94E10B0C94E10B0C94E10B0C94E10B30
:1000A0000C94E10B0C94E10B0C94E10B9A219D2133
:1000B0008C2190219421BE21BE21BE21A121A52108
:1000C000A921AF21B321BE21B921732278227D223B
:1000D00087229122DB22DB22DB229B22A522AF2278
:1000E000B922C622DB22CE220000000000700100EF
:1000F000C0000C00CAA77C0A42F5550853424819B3
:100100005EF55112003000000027450040941C00AD
:1001100014F3190504F11104200400000441100433
:1001200000040000104208015E14450F40F0010079
:100130005955551351555D0D8C927C085755550DE9
:100140005E55550D51520C015E55550F5655550FC4
:1001500000A0000000A4000000C2280080A2280027
:100160008062080040500D0000E318009C92241F9C
:100170005F555D0D9C1445115F1425075F555511A2
:100180005F5114015E54551D1F41101F40F445007E
:10019000100421071F41181D1F0441105EF0041FA9
:1001A0009C10041F5E54450F5F9214035ED4451FDC
:1001B0005F92341B5655550D41F005011F04210770
:1001C0001F4208011FE4410F1743181D07C1090111
:1001D00051564D1100F0450000F0010040F40100BF
:1001E00080100C00100441109045000A80F0904AE5
:1001F000001480F09040001490380012903C0010E1
:100200009034000E9038000C9030000A80F00609FF
:100210000F100A11070C120D0B040E051308020C27
:1002200008140D150309160A0E000B01170F03041D
:1002300010170514001115120601130216070110FC
:1002400004151116020517061203070014130008FF
:100250000C160917010D140E0A020F03150B040FDB
:1002600009120C13050A100B0D060807110E903C1D
:100270000040800040E0414741494E009051002835
:1002800080002890560028800028905A002880007E
:1002900028E0434C4541520054494D4520555000FB
:1002A000903700789036008C903500A0903400B4E0
:1002B000903300C8903200DC903100F090300004A0
:1002C00080F047414D45204F56455200906800143C
:1002D0008000149068001480F090490050904D0008
:1002E0007880005090490050904D007880005090E8
:1002F000490050904D007880005080F04241434BBF
:1003000020544F205449544C45005B2050555A5AB4
:100310004C45205D002D2D0045524153454420445D
:1003200049434500504C41592054494D45004D41E9
:100330005820434841494E004C4556454C001F1F2C
:100340001B1F1F1F1D1F171F1F171B1D1F1F151FE3
:10035000151F1F151B151F1F111F111F011F010046
:100360001F001F031F001F151116150D001E111170
:10037000001E110F001F051B001F15111F00161571
:100380000D0016150D001F100F001F151116150D6D
:1003900000011F01001F1511001F05031818191A6D
:1003A0001B1C1D1D1E1E1F201F001E011F001F05E0
:1003B00001001E110F0103070F1F3F3F1F0F07030F
:1003C000010001030F1F3F3F1F0F03010000000149
:1003D000071F3F3F1F07010000000000030F3F3FC2
:1003E0000F0300000000000000073F3F070000006F
:1003F0000000000000003F3F000000000003070F66
:100400001F3F7FFFFF7F3F1F0F07030003071F3FB3
:100410007FFFFF7F3F1F0703000000030F3F7FFFA9
:10042000FF7F3F0F030000000000071F7FFFFF7FDB
:100430001F07000000000000000F7FFFFF7F0F007C
:1004400000000000000000007FFFFF7F00000000B0
:1004500000DE7BEFBDF7FFFFEFBDFF1F7CEFFD4729
:10046000E77BEFFFFFDF7B02DE7BEFBDF7FEFFEFF9
:10047000BDF79F20EFBDFFFF7BEFBDF7DE7B02DE08
:100480007BEFBDF7FFFFFFBDFFE493EFFDFFFF7FB5
:10049000EFBDF7DE7B03DE7BEFBDF7FFFFEFBDFFB8
:1004A000E82BEFFDA7FF7BEFFFFFDF7B04DE7BEF99
:1004B000BDF7FFFFEFBD9FFF13EFFDFFFF7BEFBD1C
:1004C000F7DE7B02DE7BEFBDF7FEFFEFBDF7FF7FC0
:1004D000EF3D72FF7BEFFDF2DE7B06DE7BEFBDF7CB
:1004E000FF7BF4BDFFFFFFEFFD3FFE7FEFBDF7DEBB
:1004F0007B05FEFFFFBFF75FFCFBBDFFFFFCEFFDD1
:10050000673F7DEFFFFFFF7B04DE7BEFBDF7FEFF64
:10051000EBBDF7E737EFBDFF5F78EFBDF7DE7B049C
:10052000DE7BEFBDF7BFFEF3BDF7FFFEEFBDF7DEED
:100530007BEFBDF7DE7B06DE7BEFBDFFFFCBFFFD74
:10054000FF5F7FE5BDF7DE7BEFBDF7DE7B0ADE7B7D
:10055000EFBDF71EFDFFBDF73FFDEFBDFFFF7FEFD6
:10056000BDFFE87B063EFE7FBCF7FE7FEFBDF73F99
:1005700078EFBDFD5F78EFBDF7DE7B083EFC2FBD59
:10058000F7FEFFFFBDF7EDFFEFFDFF5F79EFBDF772
:10059000DE7B06BEFCFFBDF7DFFBEFBDFFFE7FEF9E
:1005A000FDFFDF78EFBDF7DE7B07DE7FFFBDF7FFE6
:1005B000CFFFBDF7D24BEFFDFFF27FEFFDF7DF7B03
:1005C00007DE7BEFBDF7CCFBEFBDFF9F4AEFFDFBE6
:1005D000FE7B6FBEFFE17B08DE7BEFBDF7FE7FEFAA
:1005E000BD87FFFFE2BDFFDF7BEFBDF7DE7B09DEEE
:1005F0007BEFBDF77E06EFBD77FF7FEFBD9FDF7B13
:10060000EFBDF7DE7B05DE7BEFBDF7FED2EABDF77F
:10061000FF7FEFBDBFB67AEFBDF7DE7B0ADEFBEFF3
:10062000BDF7FEA7EFBDFF68AAEFBDFFEB7BEFBDF7
:10063000FFDE7B08E07FFFBFF9FFFFFFBFF7FF7F13
:10064000EFFFFFFFFF8FFEF7FF370EDE7BEFBDF7FB
:10065000FFFFFFBF1706BD48FDFFFFFFEFBDF7DE41
:100660007B08DE7BEFBDF7DE7BEF3DFBECB3CFFE1F
:10067000FFFFFFEFBDF7DE7B08DE7BEFBDF7DE7B24
:10068000EF3DFBECB3BFFDFFDFFFEFBDF7DE7B12FD
:10069000DE7BFF83F7FE7FF2BDF77F7DEFBDFFDFDF
:1006A00079EFBDF7DE7B09FFFFFFBFFF9FFEFFBDB8
:1006B000F9E4FFE9FFB7FF7FFFFFFFFF7B08FEFFC5
:1006C000FF3FF1E1FF9FBCFFFF5BEFFDFFD27BEF40
:1006D000FFF2DE7B081EFEFFA1F7FFFFFFBDE7FF75
:1006E000FFE8FDFFFF7FEFE5FF5F7A11FE7FEFBDC3
:1006F000F7FF7FEFBD07FE7FEF7DF0FE7FEF81F715
:10070000FE6F1CDE7BEFBDF7FF07E2BDFFBFA9EF69
:10071000FDFFFF7FEFBDF7DE7B08DEFFFFBDF7FECD
:10072000EFEFBDF7F02FEFBD6FFF7BEFBDF7DE7B87
:1007300007DEFBFFBDF7FE23F3BDFF88A8EFFD3703
:10074000EA7BEFFDFFDE7B0ADE7BE1BDF73EFCFFCF
:10075000FFF0FE78FFBD0FFFFFEFBD07DE7B0ADE77
:100760007BEFBDF7FEFFEABDF79F7EEFBD1FE27B8B
:10077000EFFDFFDF7B09DE7BEFBDF71EF6E8BDF77F
:100780001F7EEFBD9F5F7AEFFDFFDF7B07DE7BEF14
:10079000BDF7DFFDF4BDFFEBB7EFBDF7DE7BEFBDCF
:1007A000F7DE7B08DE7BEFBDF79E76EABDF7000043
:1007B000EFBDFFFF7BEFFDFFDF7B0ADE7BEFBDF7C9
:1007C000FFFFFFBD1F8303E0FDFFFF7FEFBDF7DEEF
:1007D0007B07DE7BEFBDF79E1BEEBDF7FF03EFBD92
:1007E000FFDF78EFBDF7DE7B0A90480064904A0097
:1007F00064904C0064904D0064904F00C880F0906D
:1008000054003C905D003C9060003C9059003C904E
:100810005D003C9065003C80F09058003F905B008C
:100820003F9064003F9054003F9060003F80F09004
:100830005F004390560043905B0043905300438019
:10084000F0905D004B9054004B9059004B80F0901D
:1008500054005A905B005A80F09054001E9055004E
:100860001E9056001E9057001E9058001E90590072
:100870001E905A001E905B001E80F014141418186D
:100880000004041F001C1C001F001F040459084F13
:100890000841082F081908FF074241434B20544FD5
:1008A000205449544C4500495353554553204C4915
:1008B00053540050524556204953535545004E4518
:1008C00058542049535355450052455354415254AE
:1008D00000434F4E54494E554500FF01010101614F
:1008E0006101010101FF1A8408F00F182858988847
:1008F0008888888888CFD0A1D8FFFF0101010161D5
:100900006101010101FF1A8468F00F18284888C8A6
:10091000C8A8A898988F96A1D8FFFF01010101618E
:100920006101010101FF1A0468F00F18285898C8E6
:10093000C8A8A89898CFD6A0D8FFFF0101010161EF
:100940006101010101FF020468F00F18285898C8DE
:10095000C888889898CFD6A0C0FFFF010D0D01016F
:100960000101010101FF1A0468F00F182848888866
:1009700088A8AB8B888F96A0D8FFFF0101010101E9
:1009800001010D0D01FFDA0468F00F182B5B98C808
:10099000C888889898CFD6A0DBFFFF010D0D010114
:1009A0000101010101FF028468F00F18285898C85E
:1009B000D898CBDB98CFD6A1C0FFFF010101010180
:1009C00001010D0D01FF028408F00F182B5B9888C0
:1009D00088A8A88888CFD0A1C0FFFF0101010161CC
:1009E00061010D0D01FF1A0408F00F182B4B8888C8
:1009F00088A8A888888F90A0D8FFFF010D0D0161FD
:100A00006101010101FF1A3468F00F18284888C8F5
:100A1000C8888B9B988F96ACD8FFFF0101010161BC
:100A200061010D0D01FF1A8468F00F182B5BB8E807
:100A3000C8888898B8EFD6A1D8FFFF010D0D0161D5
:100A40006101010101FF028408F00F18285898C8BD
:100A5000C8A8AB9B98CFD0A1C0FFFF010D0D01012D
:100A600001010D0D01FF1A8468F00F182B4B8888C7
:100A700088A8AB8B888F96A1D8FFFF010D0D0101CF
:100A800001010D0D01FF1A3468F00F182B5B98C897
:100A9000C8A8AB9B98CFD6ACD8FFFF010D0D0101C4
:100AA00001010D0D01FF1A0408F00F182B5BB8E8C7
:100AB000C8888B9BB8EFD0A0D8FFFF010D0D0101B6
:100AC00001010D0D01FF028408F00F182B4B88C89F
:100AD000C8888B9B988F90A1C0FFFF010D0D01610D
:100AE00061010D0D01FF028468F00F182B4B8888FF
:100AF00088A8AB8B888F96A1C0FFFF010D0D016107
:100B000061010D0D01FFDA0468F00F182B5B988866
:100B100088A8AB8B88CFD6A0DBFFFF010D0D01614C
:100B200061010D0D01FF1A0468F00F182B5B98C8C6
:100B3000D898CBDB98CFD6A0D8FFFF010D0D01616F
:100B400061010D0D01FF028408F00F182B5B98C89E
:100B5000C8888B9B98CFD0A1C0FFFF010D0D010D60
:100B60000D010D0D01FF1A0468F00F182B5B988B17
:100B70008B888B8B88CFD6A0D8FFFF016D6D0101CC
:100B800001016D6D01FF1A8468F00F182B5B98C886
:100B9000C8888B9B98CFD6A1D8FFFF010D0D010D02
:100BA0000D010D0D01FF1A8408F00F182B5B98CB77
:100BB000CBA8AB9B98CFD0A1D8FFFF016D6D0101F1
:100BC00001016D6D01FF020468F00F182B4B88C8FE
:100BD000C8A8AB9B988F96A0C0FFFF55AB550B657F
:100BE0006B05AB55ABFFAA54A8F00F1D2A5DAADD1B
:100BF000AADDAADDAADFBAF5EAFFFF41AD4DA15596
:100C0000AB552B552BFFAA54A8F00F1D2A5DAADD6A
:100C1000AAD8ABDBA8DFBAF5EAFFFF552B552B5559
:100C2000AB41AD4DA1FFAA54A8F00F182B5BA8DD76
:100C3000AADDAADDAADFBAF5EAFFFF552B550B6541
:100C40006B01AD4DA1FFAA54A8F00F182B5BA8DDD6
:100C5000AADDAADDAADFBAF5EAFFFF41AD4D0165C5
:100C60006B052B552BFFAA54A8F00F1D2A5DAADD9A
:100C7000AAD8ABDBA8DFBAF5EAFFFF412D4D21551D
:100C8000AB412D4D21FFAA54A8F00F182B5BA8DD16
:100C9000AAD8ABDBA8DFBAF5EAFFFF412D4D01650D
:100CA0006B012D4D21FFAA54A8F00F182B5BA8DD76
:100CB000AAD8ABDBA8DFBAF5EAFFFF412D4D214DE5
:100CC0002D412D4D21FFAA54A8F00F182B5BA8DB56
:100CD000ABD8ABDBA8DFBAF5EAFFFF016D6D0155BC
:100CE000AB016D6D01FFAA54A8F00F182B5BA8DDB6
:100CF000AAD8ABDBA8DFBAF5EAFFAA010001000120
:100D0000000100010001000400500A0020008000E2
:100D100080008000800080008055FFFFFFFFFFFF04
:100D2000FFFFFFFFFFFFFEFCF8F00F1F3F7FFFFFFD
:100D3000FFFFFFFFFFFFFFFFFFFF4F424E2D593028
:100D4000352056455220302E313100C0C6CFDFFF4E
:100D5000FB73037CFEFFC7E3FF7F3E00FFFFFF1B2B
:100D60001B1B03000303FFFFFF0303000000000041
:100D70000000008080808000000000000000000073
:100D800000000080E0F058AC56AB55AB5500FF01B9
:100D900001010202040810608000003FFFAA55AA6A
:100DA00055AA55AA55A85FAC5CAC5CAC5CAC5C0CBD
:100DB000CF3C0000000103060D1A152A252A252A1A
:100DC0002522151209040201000000FFFF57AB574E
:100DD000AB57AB57AB03FF808080000000000000E2
:100DE000000000FFFF55AA55AA55AA55AA00FF000A
:100DF0000000010102040830C000001F7FD5AA5581
:100E0000AA55AA55AA54AF56AE56AE56AE562E8621
:100E1000671E000000000103060D0A1512151215C9
:100E200012110A0904020100000000000000000085
:100E3000008080C0C0C0C080808000000000000032
:100E4000000000C0F078AC56AB55AA55AA00FF00D0
:100E50000000010102040830C00000FFFF55AA5540
:100E6000AA55AA55AA00FFFEAE56AE56AE56AE56CD
:100E700007FE001F171512151215121512101F1755
:100E80001215121512151215101F000000502050D7
:100E9000001408221C413E3E476B6D6D413E001C14
:100EA0001C001C3E7F435245444954005245434F69
:100EB00052440050555A5A4C450054494D45204C17
:100EC000494D4954454400454E444C455353000058
:100ED00000000200090F0000030401000C000000E4
:100EE00000000000000000000000000000000301FE
:100EF00000000000240027002A002D003000D5F05B
:100F00008D1410A1C881CFD9F1AF200004080201CF
:100F10001040804010204080408008020401804042
:100F20002010020110801020404020000000002509
:100F30000028002B002E00310004040404040304E4
:100F40000502020202040302020202060606060667
:100F5000060404020202040414021302120215021F
:100F60000702080204010C01060100881BA21C3ABA
:100F70001C951B611E5D231A0CE00EFF142F3430EC
:100F8000001E1111001F041F001E091F001F001E5C
:100F9000011F1F1010001F1511001F100F001F153B
:100FA00011001F1010455241534544204449434508
:100FB00000504C41592054494D450050555A5A4C07
:100FC00045004C494D495445440054494D45004560
:100FD0004E444C455353005B205245434F524420EE
:100FE0005D002D2050534920434F4C4F202D0000D1
:100FF0004A554C5920323031380050524F475245F3
:101000004D4D4544204259204F424F4E4F00005411
:101010004849532050524F4752414D2049530052A6
:10102000454C454153454420554E44455200544893
:1010300045204D4954204C4943454E53452E00C050
:10104000402020101008F8F0284444820211118238
:1010500082C4C4E8E00000F02844448202111182F6
:1010600082C4C468600000F02844448282FF00000B
:1010700086C30000FF00000000000000000000F038
:10108000284444820211118282C4C468600000F0C6
:10109000284444820211118282C4C4E8E00000F0B6
:1010A0002844448282FF0000FEFF0000FF0000F0A1
:1010B000284444820211118282C4C4E8E01F102037
:1010C000204000FFFF19190C0C070700001F10201B
:1010D000204000DFDF6D6D36361F1F00001F10201F
:1010E000204040FF80007F3F00101F0000000000F4
:1010F00000000000001F1020204000FFFF61613051
:1011000030181800001F1020204000FFFF616130E0
:10111000301F1F00001F1020204040FF80007F3F35
:1011200000101F00001F1020204000FFFF616130F1
:10113000301F1F00000000003E5B4F5B3E3E6B4FC8
:101140006B3E1C3E7C3E1C183C7E3C181C577D5759
:101150001C1C5E7F5E1C00183C1800FFE7C3E7FF05
:101160000018241800FFE7DBE7FF30483A060E2698
:1011700029792926407F050507407F05253F5A3CF0
:10118000E73C5A7F3E1C1C08081C1C3E7F14227F33
:1011900022145F5F005F5F06097F017F006689950B
:1011A0006A606060606094A2FFA29408047E0408F4
:1011B00010207E201008082A1C08081C2A08081E77
:1011C000101010100C1E0C1E0C30383E3830060E5D
:1011D0003E0E06000000000000005F000000070057
:1011E0000700147F147F14242A7F2A122313086413
:1011F0006236495620500008070300001C224100B7
:101200000041221C002A1C7F1C2A08083E080800F6
:101210008070300008080808080000606000201096
:101220000804023E5149453E00427F400072494950
:1012300049462141494D331814127F102745454531
:10124000393C4A4949314121110907364949493652
:10125000464949291E0000140000004034000000E7
:101260000814224114141414140041221408020119
:101270005909063E415D594E7C1211127C7F494945
:1012800049363E414141227F4141413E7F494949E2
:10129000417F090909013E414151737F0808087FD8
:1012A00000417F41002040413F017F081422417FDF
:1012B000404040407F021C027F7F0408107F3E4177
:1012C00041413E7F090909063E4151215E7F0919CE
:1012D0002946264949493203017F01033F404040E6
:1012E0003F1F2040201F3F4038403F6314081463D5
:1012F00003047804036159494D43007F4141410291
:1013000004081020004141417F04020102044040D2
:10131000404040000307080020545478407F284490
:1013200044383844444428384444287F385454547A
:101330001800087E090218A4A49C787F0804047889
:1013400000447D40002040403D007F1028440000C4
:10135000417F40007C047804787C08040478384499
:10136000444438FC1824241818242418FC7C08044D
:101370000408485454542404043F44243C4040206E
:101380007C1C2040201C3C4030403C442810284419
:101390004C9090907C4464544C44000836410000CA
:1013A00000770000004136080002010204023C26DA
:1013B00023263C1EA1A161123A4040207A385454A1
:1013C0005559215555794121545478412155547826
:1013D0004020545579400C1E5272123955555559BA
:1013E000395454545939555454580000457C4100DF
:1013F00002457D420001457C40F0292429F0F02877
:101400002528F07C545545002054547C547C0A090E
:101410007F4932494949323248484832324A48487D
:10142000303A4141217A3A42402078009DA0A07D87
:1014300039444444393D4040403D3C24FF24244845
:101440007E4943662B2FFC2F2BFF0929F620C088ED
:101450007E090320545479410000447D41304848BE
:101460004A32384040227A007A0A0A727D0D1931D8
:101470007D2629292F28262929292630484D402034
:10148000380808080808080808382F10C8ACBA2F10
:10149000102834FA00007B000008142A14222214B9
:1014A0002A14089500220095AA005500AAAA55AA58
:1014B00055AA000000FF00101010FF00141414FFC4
:1014C000001010FF00FF1010F010F0141414FC00B6
:1014D0001414F700FF0000FF00FF1414F404FC14C0
:1014E0001417101F10101F101F1414141F001010B9
:1014F00010F0000000001F101010101F101010102E
:10150000F010000000FF101010101010101010FF4D
:1015100010000000FF140000FF00FF00001F101764
:101520000000FC04F414141710171414F404F4004D
:1015300000FF00F714141414141414F700F7141413
:1015400014171410101F101F141414F4141010F09A
:1015500010F000001F101F0000001F14000000FC0E
:10156000140000F010F01010FF10FF141414FF14FA
:101570001010101F00000000F010FFFFFFFFFFF031
:10158000F0F0F0F0FFFFFF0000000000FFFF0F0F82
:101590000F0F0F38444438447C2A2A3E147E02023E
:1015A0000606027E027E0263554941633844443C8C
:1015B00004407E201E2006027E020299A5E7A5991E
:1015C0001C2A492A1C4C7201724C304A4D4D303055
:1015D00048784830BC625A463D3E494949007E0140
:1015E00001017E2A2A2A2A2A44445F444440514A5F
:1015F000444040444A51400000FF0103E080FF00A6
:101600000008086B6B083612362436060F090F06E1
:10161000000018180000001010003040FF01010009
:101620001F01011E00191D1712003C3C3C3C00002C
:1016300000000006011501260137014A015D017213
:101640000188019F01B801D201EE010B022A024B71
:10165000026E029302BA02E40210033F037003A475
:1016600003DC03170455049704DD0427057505C83A
:101670000520067D06E0064907B8072D08A9082DB4
:1016800009B9094D0AEA0A900B400CFA0CC00D91F9
:101690000E6F0F5A1053115B1272139A14D4152047
:1016A000178018F519801B231DDE1EB420A622B555
:1016B00024E4263429A72B402E0031EA3300374595
:1016C0003ABC3D68414C456B49C84D68524F578004
:1016D0005C006210111213151617181A1C1D1F2119
:1016E000232527292C2E3134373A3E4145494E5285
:1016F000575C62686E757B838B939CA5AFB9C4D031
:10170000DCE9F7080B0002020201000904000001F5
:101710000202000005240010010524010101042437
:101720000206052406000107058103100040090494
:101730000100020A00000007050202400000070540
:1017400083024000000403090412010002EF0201B9
:101750004041233680000101020301417264756932
:101760006E6F204C4C430041726475626F790000CB
:10177000DF3311241FBECFEFDAE0DEBFCDBF11E0B3
:10178000A0E0B1E0E6E6FCE602C005900D92AA33C7
:10179000B107D9F727E0AAE3B1E001C01D92AB354C
:1017A000B207E1F71BE0C9EBDBE004C02197FE01C3
:1017B0000E94FF35C83BD107C9F70E944A310C94FB
:1017C00031360C94000010923B0110923C01809144
:1017D000FC06982F907F39F190913A019F5F9D30E0
:1017E0000CF09AE090933A0190913A01913011F007
:1017F0009A30D9F485FF03C09FEF90933C0186FF98
:1018000005C090913C019F5F90933C0187FF03C00E
:101810009FEF90933B0184FF08C080913B018F5F55
:1018200080933B01089510923A010895089580E055
:1018300090E008958091B8029091B902029791F5D5
:10184000109273018091B702883210F540E0942F16
:101850004F5FE92F97FF02C0E7E0E90FE595E595B7
:10186000E5950E2E000CFF0BEE55FD4F208930E064
:10187000892F877887FF03C08150886F8F5F02C0F0
:10188000359527958A95E2F720FDE1CF9093730176
:1018900084E090E0909375018093740181E08093DF
:1018A000BA0208950C94581A2F923F924F925F9269
:1018B0006F927F928F929F92AF92BF92CF92DF9260
:1018C000EF92FF920F931F93CF93DF93CDB7DEB7C5
:1018D0002D970FB6F894DEBF0FBECDBF6A30A1F4CE
:1018E000FC01E85EFB4F408132972081318156E058
:1018F000459F200D311D112431832083DC01AC5E16
:10190000BB4F1D921C92DAC020EE260F203408F047
:10191000D5C09D878C878C5E9B4F9E838D83FC01F9
:10192000E080F1802C853D85285E3B4F39872887F4
:1019300030E8E316F104D4F0A885B9852C91422F44
:1019400050E0ED81FE8180819181F6E02F9F800D36
:10195000911D1124AD81BE818D939C93EC85FD85F5
:10196000E75EFB4F2081211193C0A8C0EC85FD8567
:10197000EA5EFB4FA080B180B0E4AB16B104E4F6A0
:10198000E885F9851081812E912CC701F5E01F9F14
:10199000800D911D112497FDCFCFC50126E0129F28
:1019A000800D911D112497FDC7CFEC85FD85E55E67
:1019B000FB4F3080EC85FD85E65EFB4F208034E0F8
:1019C000639FF0011124E859FF4F459055906590B1
:1019D0007490113009F516E0650106E040FC04C082
:1019E000321449F0232D01C0222DA601B7018C85A8
:1019F0009D850E946B277694679457944794015075
:101A00005FEFC51AD50A0111E9CF11508FEFE81A1F
:101A1000F80A1111E1CF90CF96E09B83BA82A98298
:101A2000A6E0AC83F401EE0DFF1DFB87EA8740FCC6
:101A300004C03214B1F03F8201C02F8267012A85B1
:101A40003B85C216D3066CF40F81212F49815A8140
:101A5000B6018C859D850E94A0283FEFC31AD30A4A
:101A6000EECF76946794579447945C8151505C8391
:101A700089819A81880D991D9A8389835111D7CFC5
:101A80009B8191509B83E80CF91C9111C7CF54CFD7
:101A90006AEF64039001659F300D112420583F4F79
:101AA000281739075CF4AC85BD85ED91FC91119741
:101AB0000190F081E02D6AE0CD01099581E090E090
:101AC0002D960FB6F894DEBF0FBECDBFDF91CF913C
:101AD0001F910F91FF90EF90DF90CF90BF90AF904C
:101AE0009F908F907F906F905F904F903F902F903E
:101AF00008956FEF8EEE91E00C948B2E6FEF88EED1
:101B000091E00C948B2E882349F080916500877FAB
:101B10008093650081E08093DE0208951092DE02DA
:101B20008091650088608093650008952F923F92B0
:101B30004F925F926F927F928F929F92AF92BF92DD
:101B4000CF92DF92EF92FF920F931F93CF93DF9389
:101B50009093F4068093F3067093F6066093F5066F
:101B600069017A01CA01B90120E832E342E050E09C
:101B70000E94AC3549015A01C701B60120E639E09F
:101B800040E050E00E94AC356CE3462E512C612CB5
:101B9000712CCA01B901A30192010E94AC35D62F64
:101BA000272E382E092FC701B60128E230E040E089
:101BB00050E00E94AC35CA01B901A30192010E9414
:101BC000AC35C62F572E3C014C2E8114910409F5DB
:101BD000D1112CC06A3018F480E30E940E2F4AE025
:101BE0006C2F752DC3010E94BD2E8EE20E940E2F18
:101BF000C701B60122E096958795779567952A9556
:101C0000D1F72AE030E040E050E00E94AC354AE0F5
:101C100021C04AE0C501B4010E94BD2E8AE30E94A2
:101C20000E2FDA3018F480E30E940E2F4AE06D2F59
:101C3000722D832D902F0E94BD2E8AE30E940E2FBD
:101C400029E0241518F080E30E940E2F4AE06C2F43
:101C5000752DC301DF91CF911F910F91FF90EF90F0
:101C6000DF90CF90BF90AF909F908F907F906F90BC
:101C70005F904F903F902F900C94BD2ECF92DF92AB
:101C8000EF92FF920F931F9389019A019093F406AC
:101C90008093F3067093F6066093F50637FF0EC047
:101CA000680179018DE20E940E2F66277727CB010C
:101CB0006C197D098E099F094AE003C04AE0C901F9
:101CC000B8011F910F91FF90EF90DF90CF900C948F
:101CD000BD2EE2EAF2E025E030E089E392E5619191
:101CE0007191629FA001639F500D729F500D11244E
:101CF000840F951F2E5F3F4F2B31310581F70895DB
:101D0000CF93DF9380916B02882309F456C08091B2
:101D10006C0290916D020197B1F480E893E090938A
:101D20006F0280936E02F999FECF4FE452E46EE4A5
:101D300075E080E893E00E946D3580916E0290918D
:101D40006F02049602C084E893E090936F02809340
:101D50006E02F999FECF60916E0270916F0246E1BA
:101D600050E082EA92E00E945535C0916E02D09117
:101D70006F026696D0936F02C0936E020E94690E46
:101D8000F999FECFBC01CE010E94753580916E029B
:101D900090916F02029690936F0280936E02609111
:101DA000DE0282E090E00E945F3582E090E0909356
:101DB0006D0280936C0210926B02DF91CF910895B7
:101DC0003F924F925F926F927F928F929F92AF92CB
:101DD000BF92CF92DF92EF92FF920F931F93CF9318
:101DE000DF93CDB7DEB7E2970FB6F894DEBF0FBE34
:101DF000CDBF80917401909175018330910509F4F4
:101E0000AAC238F48130910561F0029709F449C300
:101E10004AC38430910509F4E1C2059709F441C32E
:101E200042C380916401882319F08150809364013A
:101E300080916901882319F0815080936901809114
:101E40004D01882319F0815080934D0180916801E4
:101E5000882319F08150809368010E94E30B9091D0
:101E600057018091560126E7E22E21E0F22E3BE653
:101E7000632E32E0732E970111E0A0E4B1E0F90186
:101E800067E070E04081442301F14730F1F0428186
:101E9000442319F0433061F018C043815481445009
:101EA000510954834383452B81F412839F5F0DC0F6
:101EB000438154814F5F5F4F54834383403451408B
:101EC00020F01082B483A38381506150710937964A
:101ED00061157105B9F62F5C3F4F42E02B36340790
:101EE00071F690935701809356012091B80230917A
:101EF000B9022230310509F445C020916C0130E06F
:101F000040916A0150916B014217530734F44F5FBF
:101F10005F4F50936B0140936A0190917001891754
:101F2000C8F090916F01891750F440916D0150E015
:101F300060916A0170916B01641775075CF4909170
:101F40006E018917F8F480916A0190916B018217F4
:101F50009307C4F00E94FC2060E070E00E94C12062
:101F600064E084EF91E00E948B2E80916A01909151
:101F70006B011816190614F480E090E090936B0141
:101F800080936A0130915501632F032E000C770B6B
:101F900080913C01DB01A80FB11D87FDBA95179711
:101FA00010F010923C0120915401022F022E000CDF
:101FB000110B80913B01F801E80FF11D87FDFA95A7
:101FC000359710F010923B0140913C01411105C042
:101FD00080913B01882309F45FC057E0569FF001D0
:101FE000579FF00D1124A1E3A09FC001A19F900D68
:101FF00011248E0F9F1F8A589E4FFC01DE019C9674
:1020000001900D925A95E1F7E091FC0650913B0149
:10201000E2FF53C2DC01AC90EFEFEA0DE63008F0CE
:102020004CC21396ED91FC911497EF2B09F045C229
:10203000FC0191808280442311F0511145C2D0905F
:102040003B01D801AD0DB11DD7FCBA95B0903C0154
:102050004B2D0B2C000C550BCB01840F951FE7E08B
:10206000CE2EC89EF001C99EF00D112481E3582E9A
:102070005A9EC0015B9E900D11248E0F9F1F8A589F
:102080009E4FFC01DE01959601900D92CA94E1F7F6
:10209000B1E08B1609F422C28091B8029091B90286
:1020A0000097B1F48091720183360CF055C0909185
:1020B000710119160CF450C0082E000C990B0196F2
:1020C0000E94F21F62E089ED92E00E948B2E44C0D4
:1020D000019709F041C0C0905001D0905101E090AB
:1020E0005201F0905301F0E6CF16F9E0DF06E1046B
:1020F000F10409F439C400ECC01602E1D006E10491
:10210000F10409F431C420E7C21627E1D206E10444
:10211000F10409F429C4C11439E1D306E104F1043E
:1021200009F422C4C701B60128E230E040E050E0E3
:102130000E94AC35672B682B692B71F440E9C41AF7
:102140004AE1D40AE108F10850E9C51651E0D50684
:10215000E104F10408F408C4809150019091510108
:10216000A0915201B09153010196A11DB11D809320
:10217000500190935101A0935201B09353014091AB
:10218000AA025091AB026091AC027091AD024F5F18
:102190005F4F6F4F7F4F4093AA025093AB02609303
:1021A000AC027093AD023091480121E023272093C7
:1021B00048012091B8023091B9022130310599F1DE
:1021C00028F02230310509F459C0B2C0809157017E
:1021D000833208F4ADC082EC92E090934501809385
:1021E00044014091490150914A0160914B01709125
:1021F0004C018091A2029091A302A091A402B0E0B0
:1022000084179507A607B70750F44093A20250938E
:10221000A3026093A402809172018093A50261E001
:1022200080EA92E075C080329C41A105B10508F4B6
:102230007FC088E992E090934501809344014091EA
:10224000490150914A0160914B0170914C0180917C
:10225000A6029091A702A091A802B0E0841795076A
:10226000A607B707E0F64093A6025093A702609333
:10227000A80280914E018093A902D1CF909147018D
:102280008091570119161CF4882319F051C081114F
:1022900036C082E992E09093450180934401809199
:1022A0007301E82F87FF02C0E7E0E80FE595E595A9
:1022B000E5950E2E000CFF0B982F977897FF03C023
:1022C0009150986F9F5F21E030E001C0220F9A95F6
:1022D000EAF7EE55FD4F9089492F422361F4292BEF
:1022E000208B9091B7029F5F9093B70287321CF4C6
:1022F0008F5F8093730161E08CE792E009C086E70D
:1023000092E0909345018093440161E08EE692E073
:102310000E948B2E83E090E090937501809374016E
:102320000E94800E1092480188E2809346010FC0FF
:102330008091FB0690E0809590952091FC06287096
:1023400030E082239323892B11F00E946C1F81E0DF
:102350008093BA02A8C080914601882309F1815078
:102360008093460190916401992319F091509093C4
:1023700064012091B8023091B9022230310509F090
:10238000FCC28111FAC210E08091D802181728F41B
:10239000812F0E947D261F5FF7CF1092D90283C044
:1023A0008091FB0690E0809590952091FC062C7022
:1023B00030E082239323892B09F4DFC28091B80295
:1023C0009091B902029709F0C0CF84E090E0909319
:1023D0007501809374010E94790DB9CF0E94E30BBF
:1023E00030917301383231F480913C01181614F4A5
:1023F00010923C0180913C0120913B01811102C06F
:102400002223D9F0082E000C990B830F911D37FD64
:102410009A95A5E02A02800D911D11248D32910517
:1024200060F48932910514F088E290E080937301A2
:102430000E947E0D81E08093BA028091FB0690E0BD
:10244000809590952091FC06287030E0822393239C
:10245000892B51F08091DE0211E081270E94830DCB
:102460000E94790D1093BA028091FB0690E080954E
:1024700090952091FC06247030E082239323892BD1
:1024800091F080917301883249F486E090E0909356
:102490007501809374010E94790D05C00E94581A3D
:1024A00002C00E94E61D809174019091750106970B
:1024B00009F063C281E090E062C2340F30935501AD
:1024C000250F20935401E8CD80914801882319F00D
:1024D00010923C01B4CD10923B01B1CDDC01EC91E6
:1024E0001296FC91129713968D919C911497EE235E
:1024F00089F0E73008F0D0CD803A910508F4CCCDD2
:10250000F33041F48091560181508093560180E46C
:1025100091E0E0E0EDA3FFA399A788A787E0C82E8C
:10252000C69EC001C79E900D112461E3609FD0013B
:10253000619FB00D1124A80FB91FAA58BE4FFE010C
:10254000B59601900D92CA94E1F73B0D3093550179
:102550002D0D20935401EA2DF0E03197EE0FFF1F6F
:10256000EE0FFF1FE90DF11DEE0FFF1FEE0FFF1F16
:10257000BD2D03E0B002400D511D1124CA01039688
:1025800097FD019695958795E80FF91FE25FFD4F3E
:1025900014910E947E0D80914701815080934701E4
:1025A0005091540120915501022E000C330B812FC4
:1025B000869586958F5F8CA7E12FE370EDA781E06C
:1025C0008EA718AA1FA647E0429FC001439F900D07
:1025D0001124C52E052E000CDD0861E35602800D86
:1025E000911D11248A589E4FFE01BC96DC0101907A
:1025F0000D924A95E1F745E0EDE3F1E0DF011D9230
:102600004A95E9F7FC013080F1E03F1681F000E0E7
:1026100010E080E090E0A12CB12CEBEA8E2EF7E0E8
:102620006F2EA1E37A2E44244394512CCAC0E1E0DA
:10263000F0E003E010E067E0A62E71E3B72ECF01D3
:10264000B8010E94EB35820F931F019787309105E7
:10265000F0F46C0D7D1D6150710965307105B8F4A1
:10266000A89EA001A99E500D1124B69EC001B79E40
:10267000900D1124840F951FDC01AA58BE4F8C9138
:102680008150863020F412968C91833029F0329656
:10269000E930F105A1F64CC15DE3A52E51E0B52E60
:1026A00000E010E06701812C912CD6018C918130E3
:1026B000B9F412968C918150823090F461E070E010
:1026C000C6010E94832081E090E0082C01C0880FA1
:1026D0000A94EAF7F5019081892B80830F5F1F4FE1
:1026E000FFEF8F1A9F0A27E0C20ED11C37E0831636
:1026F0009104D9F641E3E40EF11C5FEFA51AB50A87
:102700006E147F0479F681E00E945E20C801110FEB
:10271000AA0BBB0B0091490110914A0120914B017A
:1027200030914C01080F191F2A1F3B1F00934901CC
:1027300010934A0120934B0130934C01F9C065E09E
:10274000C616D10408F442C0019708F476C0E1E04F
:10275000F0E0EC0FFD1FE80FF91FE081E89D412D2F
:1027600011244695542F550F540F6E2F651B70E0A2
:1027700061507109261B370B50E041505109C41AB2
:10278000D50AE73009F342E0942E9E0E989C412D25
:1027900011244695542F550F540F692D651B70E079
:1027A00061507109260F371F50E041505109C40E86
:1027B000D51EE1E0F0E0EC0FFD1FE80FF91F90825D
:1027C00001962730310508F0BFCFB9CFF601E35CA1
:1027D000FE4F9080492D50E0022E02C0559547953E
:1027E0000A94E2F740FDB0CF629EB001639E700D87
:1027F00011247C9CA0017D9C500D1124460F571F75
:102800004A585E4FDA016C9136129ECF6FEFA61ACE
:10281000B60ADA0115964D915C91169704171507C3
:1028200008F48A01A201022E01C0440F0A94EAF7BB
:102830004929408399249394A9CF432C512CA41463
:10284000B5040CF475C0073EB3E01B0710F40F5F2E
:102850001F4F8DE3682E81E0782E6701812C912C2B
:10286000F301808190E0082C02C0959587950A9429
:10287000E2F780FF13C0B801C6010E948320D60191
:1028800013968D919C9114978032910510F080974A
:1028900002C080E090E0F60194838383FFEF8F1AFB
:1028A0009F0A27E0C20ED11C37E083169104C1F6BF
:1028B00041E3E40EF11C5FEF651A750A6BE6E6165C
:1028C00062E0F60651F6109343010093420188EC52
:1028D00080934D01832D0E945E209201D5010E94BC
:1028E00005369B01AC01D8010E949935C090490181
:1028F000D0904A01E0904B01F0904C01DC01CB01FB
:102900008C0D9D1DAE1DBF1D8093490190934A0102
:10291000A0934B01B0934C0180914E0190914F01D7
:102920008017910708F4C80190934F0180934E01DE
:102930008091490190914A01A0914B01B0914C01C5
:102940008038E6E99E07E8E9AE07B10520F08FE799
:1029500096E9A8E9B0E08093490190934A01A093D9
:102960004B01B0934C0198CB62E08CEC92E00E945A
:102970008B2E8AE080936901EFCB82E090E0E296B3
:102980000FB6F894DEBF0FBECDBFDF91CF911F9180
:102990000F91FF90EF90DF90CF90BF90AF909F90FE
:1029A0008F907F906F905F904F903F900895CF935E
:1029B000DF9386E791E040E451E0FC0127E030E05E
:1029C00010825483438321503109379621153105F4
:1029D000B9F7C19622E08B36920779F7109257012A
:1029E00010925601CFE0D0E00E94FC2061E070E040
:1029F0000E94C1202197C1F7DF91CF9108952F92B6
:102A00003F924F925F926F927F928F929F92AF927E
:102A1000BF92CF92DF92EF92FF920F931F93CF93CB
:102A2000DF93CDB7DEB729970FB6F894DEBF0FBEA0
:102A3000CDBF8091740190917501069709F41FC56F
:102A40008091BA02882309F460C40E94E830809122
:102A50007401909175018430910509F0A2C082E261
:102A600090E09093F4068093F3061092F60610928D
:102A7000F5066AE073E08FED92E00E94322D412C62
:102A8000512C320143941A82198216E089819A816D
:102A900065E070E00E94EB3528E1289F7001299FD6
:102AA000F00C112467013AE0C30ED11C169F1001EF
:102AB000179F300C1124510148E0A40EB11C8091E5
:102AC0007301082E000C990BE981FA818E179F077C
:102AD000B9F46701F6E0CF0ED11C470125E0820E64
:102AE000911CE814F90461F001E025E0A501B701AB
:102AF0008FED92E00E94A0283FEFE31AF30AF1CF96
:102B000049815A814832510579F4D092F406C09235
:102B1000F306B092F606A092F5066CEF72E08FED28
:102B200092E00E94322D2AC0A3019201B501C60194
:102B30000E943E0EE981FA8193E0F595E7959A951A
:102B4000E1F7EE55FD4F808990E029813A812770A9
:102B5000332702C0959587952A95E2F780FF0EC02E
:102B600089819A81099714F449E001C04FE0B101CD
:102B7000665F7F4FC60102970E94132FE981FA8199
:102B80003196FA83E983FFEF4F1A5F0A6F0A7F0AD3
:102B900029813A812932310509F078CF0E94F91C48
:102BA000B2C38530910509F017C182E08093F70622
:102BB000E0904901F0904A0100914B0110914C01C5
:102BC0009701A8018BE390E09A8389838AE0882E9D
:102BD000912CA12CB12C2A3031054105510560F012
:102BE000CA01B901A50194010E94AC35E981FA81BD
:102BF0003697FA83E983EFCF9701A80160E070E090
:102C000089819A810E943E0E81E08093F706BEE39F
:102C10008B2EB3E09B2E18E5C12E11E0D12E212C76
:102C2000312C21011A82198216E089819A8163E090
:102C300070E00E94EB35FEE1F89F3001F99F700CC7
:102C40001124169F5001179FB00C112426E2A20EEA
:102C5000B11CEE24E39405E025E0A401B501C30115
:102C600085960E946C2F7601F601208131812031FA
:102C7000F7E23F0710F02FE037E240E050E0B50107
:102C8000C3018B960E943E0E22E0C20ED11CF701BA
:102C900080819181280E391E411C511C29813A8165
:102CA0002F5F3F4F3A83298335E0830E911C498182
:102CB0005A814630510509F0B8CF81E090E09093F9
:102CC000F4068093F3060EE010E01093F6060093EE
:102CD000F50668E373E08FED92E00E94322DE1E0AB
:102CE000F0E0F093F406E093F30684E190E0909333
:102CF000F6068093F5066EE273E08FED92E00E9497
:102D0000322D21E030E03093F4062093F3068AE17F
:102D100090E09093F6068093F50664E273E08FED01
:102D200092E00E94322D41E050E05093F40640932F
:102D3000F30680E290E09093F6068093F50668E152
:102D400073E08FED92E00E94322D8091B802909155
:102D5000B902892B71F420917201022E000C330B01
:102D6000440B550B6EE070E089E490E00E943E0E4B
:102D700010C089E490E09093F4068093F3061093DA
:102D8000F6060093F50665E173E08FED92E00E9490
:102D9000322D20914E0130914F0140E050E064E12E
:102DA00070E089E490E00E943E0E20915001309145
:102DB000510140915201509153016AE170E089E460
:102DC00090E00E94960DA201910160E270E089E41A
:102DD00090E00E943E0E97C22091B8023091B90255
:102DE0002130310511F4029771F08DE391E09A835F
:102DF0008983F6E72F2EF1E03F2EA4E04A2E512CD6
:102E0000812C912C25C0ECE1F0E0FA83E98348E3C2
:102E100068E070E089819A810E94512D69817A81F0
:102E2000645171094EE48CE190E00E94BA2D298131
:102E30003A81255F3F4F3A8329832437310539F79B
:102E40008091740190917501019709F04CC2DCC02A
:102E5000610108E110E0A12CB12CF601F081FF83A3
:102E6000F73049F4F60141812DEF2403A00111242C
:102E70004A5F5F4F29C080916401882361F0E98136
:102E8000FA81808190E00A2C02C0959587950A947A
:102E9000E2F7817001C080E0FF81FF2399F09091FB
:102EA0004801F601E380F480992399F0811111C063
:102EB000F0EAEF16F10468F0F6012281222311F006
:102EC000233039F440E050E0B401C5010E94BB1E3C
:102ED00063C0FFEFEF16F10409F038F49701E6E064
:102EE00036952795EA95E1F702C024E030E03801F5
:102EF000620E731E7901E40CF51C882321F021E099
:102F000042E250E045C0F6018281823031F08330E8
:102F100039F481E098279B8304C0F1E0FB8301C072
:102F20001B82F601F181FC833F81232F30E039873A
:102F3000288720E042E250E0B701C3010E94AA1EA8
:102F40004B814423C9F08885998581509048880F2A
:102F5000991F998788879C8191709D831E82E8853F
:102F6000F9852D813E81E20FF31FF987E887E4564A
:102F7000FC4F449150E00BC0488559854150504C5E
:102F8000440F551F440F551F3C81430F511D21E035
:102F9000B701C3010E94AA1E4FEFA41AB40A57E05A
:102FA000C50ED11C055F1F4F87E0A816B10409F0BC
:102FB00054CF9FEF891A990AEBE04E0E511C2981DC
:102FC0003A812F5F3F4F3A83298331E3230E311C2F
:102FD00045E08416910409F03BCF8AE690E09A839D
:102FE000898300E020E440E050E069817A818FED40
:102FF00092E00E94A028E981FA813196FA83E98360
:10300000EE36F10571F71CCF8091B8029091B902AC
:10301000EE24E39405E0029759F52FE04DE853E0E4
:1030200060E070E080E090E00E946C2F209147010A
:10303000022E000C330B440B550B66E070E080E071
:1030400090E00E943E0E21E14CE753E065E370E022
:1030500080E090E00E946C2F20917301022E000C02
:10306000330B2F5F3F4F032E000C440B550B39C021
:1030700023E149E653E066E070E080E090E00E94E2
:103080006C2FE092F9061092FA06209149013091D6
:103090004A0140914B0150914C0160E070E080E0AA
:1030A00090E00E943E0EE092F906E092FA068091CE
:1030B000B8029091B902892BD9F423E142E95FE08B
:1030C00065E370E080E090E00E946C2F80916801E1
:1030D00082FD32C020917201022E000C330B440B92
:1030E000550B6BE370E080E090E00E943E0E24C040
:1030F000EE24E39405E02DE04CE553E065E370E059
:1031000080E090E00E946C2F8091500190915101DD
:10311000A0915201B091530140E25CE160E070E0A7
:103120009A01AB01281B390B4A0B5B0B6BE370E078
:1031300080E090E00E94960D80917401909175015D
:103140000197B9F5F0914D01F983FF2391F1EE2438
:10315000E39405E021E141E85FE065E370E08FE69C
:1031600090E00E946C2F298122FD23C0E091420152
:10317000F09143019F0140E050E061E070E0E436EF
:10318000F10510F060E070E081E090E03A9710F017
:1031900080E090E0860F971F66E0689FF001699FCE
:1031A000F00D11246BE370E0CF0181599F4F0E9415
:1031B0003E0E80915501882E082E000C99083BE0A8
:1031C000830250011124350148E1640E711C809185
:1031D0005401482E082E000C55085BE08502600162
:1031E0001124609150017091510180915201909190
:1031F00053012AE030E040E050E00E94AC357A8391
:1032000069836530710534F02AE030E0261B370B06
:103210003A8329838EE0E981FA818E9FA0018F9FF6
:10322000500D112443505C4FB60161507109E12CDF
:1032300008E02EE0C50147960E946C2F8CE02981A2
:103240003A81829FA001839F500D11244B545C4F03
:10325000EE24E39406E02CE0B601C3010E946C2F3B
:1032600087E0889DF001899DF00D112421E3249DC4
:10327000C001259D900D1124E80FF91FEA58FE4F5B
:1032800010818FEF810F8630C8F43181432F50E0D9
:103290005A83498320E042E250E060E070E08CE62F
:1032A00090E00E94AA1E49815A8184E0189F400D37
:1032B000511D11244450510921E003C021E041E295
:1032C00050E060E070E08CE690E00E94AA1EEE24E0
:1032D000E39405E02DE048EA53E061E170E08DE61B
:1032E00090E00E946C2F80916901882361F08091A9
:1032F0004801882341F020E440E860E070E080E08D
:1033000090E00E943B2F1092BA028091740190913C
:1033100075018230910519F08530910539F480E00E
:103320000E94221D40E060E080E08FC0039709F01A
:103330007BC0909146019983992309F475C095311A
:1033400080F08091B8029091B902029709F46CC0A4
:10335000E981E0FD02C084E401C080E40E948F2581
:1033600063C004E110E0F9810F1B1109073011055A
:1033700014F006E010E098012F5F3F4F220F6FE13D
:1033800070E0601B710B40E880E090E00E943B2FF2
:10339000202F220F2B8380E290E06C01C01AD10A0B
:1033A000E12CF12C00E02B81A601B7018FED92E01A
:1033B0000E94A0283FEFE31AF30A40E8E416F10464
:1033C00089F759815F3080F50091440110914501E2
:1033D000C8010E941D3546E0489F9001499F300D6D
:1033E000112480E490E0FC01E21BF30B9F0182E0DA
:1033F0008093F706F981FF9FC00111249595879569
:10340000820F931F9093F4068093F3068BE190E074
:103410009093F6068093F506B8018FED92E00E9436
:10342000322D81E08093F70680916401409167011D
:10343000849F402D112460916601869F602D112488
:1034400090916501899F802D112429960FB6F894DB
:10345000DEBF0FBECDBFDF91CF911F910F91FF90C7
:10346000EF90DF90CF90BF90AF909F908F907F9024
:103470006F905F904F903F902F900C94142D299651
:103480000FB6F894DEBF0FBECDBFDF91CF911F9175
:103490000F91FF90EF90DF90CF90BF90AF909F90F3
:1034A0008F907F906F905F904F903F902F900895F6
:1034B000BF92CF92DF92EF92FF920F931F93CF9321
:1034C000DF938091B8029091B9028130910509F1A2
:1034D000C8F0029709F0C2C0E091730187E1E802E9
:1034E000F0011124EF5AFB4F66E771E0F12C20E068
:1034F00030E040E050E000E411E0A2E0EA2EBB241E
:10350000B39419C00E94D71481E090E00E94F21F8A
:10351000A5C00E94D7148FE08093700186E180934C
:103520006F018EE180936E0188E780936D0188ECD6
:1035300080936C0193C0DB01C0E0D0E02530310501
:1035400078F4CF010196E491F0E0022E02C0EE0F74
:10355000FF1F0A94E2F74E0F5F1F285F3F4FFC01E9
:10356000CA018F7199278E31910520F58831910517
:1035700078F46C01D694C794D694C794C394CC9233
:10358000837011968C9311971296BC92129708C073
:1035900087518C9311961C9211971296EC92129768
:1035A00016961C921E92159714961C921E921397B3
:1035B000F3940DC04E9711F080E001C087E08C932A
:1035C00011961C92119714961C930E93139785E0F5
:1035D000569547958A95E1F725503109219617961A
:1035E000C730D10509F0AACF6F5C7F4FA2E06B36E0
:1035F0007A0709F0A0CFF092560180E090E041E018
:10360000C196DC01AA58BE4F25E030E017965C91C8
:1036100017975730A9F4ED01AA975881573081F0D8
:10362000D8965C91D897573059F05C91573041F05B
:103630001E965C911E97573019F018964C93189768
:103640002150310917962115310501F7833991056C
:10365000B9F6F0925701E491E09347018CE0E8E578
:10366000F1E0DF011D928A95E9F783E0809355012F
:1036700082E08093540110926B0110926A011092C3
:103680005001109251011092520110925301109268
:103690004F0110924E011092640110926901109234
:1036A0004D01109268011092490110924A01109246
:1036B0004B0110924C011092480181E090E09093F0
:1036C00075018093740180936B028093BA0260E06D
:1036D00089EE97E0DF91CF911F910F91FF90EF90CE
:1036E000DF90CF90BF900C948B2E9C01909186021E
:1036F00095306CF484E09802F0011124EE58FD4FEF
:1037000033832283718360839F5F90938602089541
:1037100080E58093710208950E94790D81E090E028
:10372000909375018093740108950F931F93CF9325
:10373000DF938091BB029091BC02892B09F056C0A7
:1037400080E893E090936F0280936E02F999FECF28
:1037500080E893E00E94493524E833E030936F021B
:1037600020936E026F3472448E44954061F5F9994E
:10377000FECF46E150E064E873E082EA92E00E9406
:103780003135C0916E02D0916F026696D0936F0270
:10379000C0936E02F999FECFCE010E944F358C0185
:1037A0002296D0936F02C0936E020E94690E80171A
:1037B000910749F482E090E090936D0280936C024F
:1037C00010926B020FC086E1E2EAF2E0DF011D9287
:1037D0008A95E9F781E090E090936D0280936C0206
:1037E00080936B028091DE020E94830D109286020C
:1037F0006BE273E287EC9EE00E94751B6EE173E260
:103800008AEB9EE00E94751B6EE473E283EB9EE000
:103810000E94751B62E473E28CEA9EE00E94751BB5
:1038200066E373E285EA9EE00E94751B86E1809361
:103830008C0282E280938B0284E580938A028EE17F
:10384000809389021092880281E080938702909190
:10385000B80290938E0280938D0221E030E0309385
:10386000BC022093BB028093BA02DF91CF911F91DB
:103870000F9108958F929F92AF92BF92CF92DF9255
:10388000EF920F93CF93DF930E94E8302091710263
:1038900080E590E0821B91096DE170E00E94EB35BC
:1038A0004B018BE6C82E8DE0D82E9CE1A92EB12CC1
:1038B000C0E0D0E081E090E08C169D0611F080E041
:1038C00090E020917002289FB001299F700D112473
:1038D000645F7F4FEE24E39400E228E1A601C50176
:1038E0000E946C2F219688E1A80EB11C80E6C80EBC
:1038F000D11CC330D105F1F608E020E24BE45DE0D5
:103900006CE270E084E490E00E946C2F80E190E033
:103910009093F4068093F3068AE390E09093F60682
:103920008093F5066AE37DE08FED92E0DF91CF9121
:103930000F91EF90DF90CF90BF90AF909F908F90BE
:103940000C94322DCF93C0917102C150C09371027B
:103950002C2F30E0C9010A9797FD01969595879520
:103960004AE35AEA63EE7EEE04C076956795579572
:1039700047958A95D2F74170409370028FE7489F30
:10398000402D112460E080E00E94142D81E090E041
:10399000CC2311F080E090E0CF9108950E94790D42
:1039A0000E94800E84E090E09093750180937401F2
:1039B00081E08093BA0208950E94790D0E94800EE2
:1039C00086E090E0909375018093740108950E94C1
:1039D000800E0C94581A809173018150809373016A
:1039E0000C94E71C809173018F5F809373010C949A
:1039F000E71CEF920F9300E028E046E168E370E0F7
:103A00008AE690E00E94F72DEE24E39407E02EE092
:103A100047E95EE069E370E08BE690E00E946C2F7E
:103A20004091DE0286E0489FA00111244557514F86
:103A300026E069E370E08AE790E00E946C2F0F9126
:103A4000EF9008956F927F928F929F92BF92CF9244
:103A5000DF92EF92FF920F931F93CF93DF9390919A
:103A60008D02911103C0882309F4A2C0E09089025D
:103A700022E0B22EBE0CD0918A0200918B02602E01
:103A8000000F7708630131E0C31AD108C0918C029E
:103A90008C2ECC0F990842E04D0F00E02B2DB60183
:103AA000C40101970E94F72D80918802882339F183
:103AB00094E0F92EFD0E830102501109E4012297D2
:103AC0004F2DB801CE010E94BA2D84E08E0DB801B1
:103AD000680F711D87FD7A95615071094F2DCE01D8
:103AE0000E94BA2D4B2DB601CE010E94512DCE0160
:103AF0008F0D911D4B2DB60101970E94512D00E0B5
:103B000010E0C0E0D0E082E7E82E82E0F82E40919D
:103B10008602042E000C550B90918B0280918C0232
:103B200020918E02C417D50764F5F7016281738175
:103B3000A801490F511D97FD5A95082E000C990BAD
:103B40000C96022E000C330BC217D30719F020E09D
:103B500030E002C024E030E0821B930B9093F40627
:103B60008093F3065093F6064093F5068FED92E0AE
:103B70000E94322D2196F4E0EF0EF11C0A5F1F4FD8
:103B8000C6CF36E02302B0011124690F711D97FDE5
:103B90007A9501E025E045E0082E000C990B0E9483
:103BA000F72D8091870281110E94F91C10928D02DD
:103BB000DF91CF911F910F91FF90EF90DF90CF9009
:103BC000BF909F908F907F906F900895CF9380913A
:103BD000FB0690E0809590952091FC06207830E0DF
:103BE00082239323892B29F080918E0218160CF4DE
:103BF00049C08091FB0690E0809590952091FC064D
:103C0000207130E082239323892B79F020918E025A
:103C1000422F022E000C550B80918602082E000CBC
:103C2000990B019748175907B4F1809187028823AF
:103C300069F08091FB0690E0809590952091FC06BC
:103C4000287030E082239323892B71F58091FC0644
:103C50008470282F30E09091FB06892F90E08095AA
:103C6000909582239323892B51F1E0918E0284E079
:103C7000E802F0011124EE58FD4F0190F081E02D93
:103C8000CF910994815080938E020E947E0D81E035
:103C900080938D02AECF2F5F20938E020E947E0D07
:103CA00081E080938D02C1CF8091DE02C1E08C273C
:103CB0000E94830D0E94790DC0938D02C7CFCF91D2
:103CC00008950F931F93CF93DF938091BB02909140
:103CD000BC02019749F40E94E61D8091BB029091BD
:103CE000BC020497C1F41AC08091FB0690E0809555
:103CF00090952091FC062C7030E082239323892B31
:103D000051F00E94790D81E090E09093BC02809385
:103D1000BB028093BA02C1E0D0E002C0C2E0D0E0B2
:103D20000E9462348C010E94C624012E000C220BDA
:103D3000330B602771278227932761157105810551
:103D4000910511F00E940B35CE01DF91CF911F91AB
:103D50000F910895EF920F9335E0440F551F3A9558
:103D6000E1F74652574FE22E00E120E10E946C2F0E
:103D70000F91EF9008956F927F928F929F92AF92E2
:103D8000BF92CF92DF92EF92FF920F93CF93DF9388
:103D90006A012BE0289F7001299FF00C1124269FB7
:103DA000E001279FD00D112418161906E4F49C0198
:103DB0002150310947E0429FF001439FF00D11244B
:103DC00041E3469F9001479F300D1124E20FF31FFE
:103DD000EA58FE4F20812150263028F42381348177
:103DE00020343105E0F5161617060CF053C061506B
:103DF000710927E0289FF001299FF00D112441E36C
:103E0000469F9001479F300D1124E20FF31FEA589F
:103E1000FE4F20812150263028F423813481203424
:103E20003105E8F418161906ACF5019727E0289F2C
:103E3000F001299FF00D112421E3269FC001279F47
:103E4000900D1124E80FF91FEA58FE4F8081815030
:103E5000863000F58381948180349105D8F05E012D
:103E600089E0A80EB11C37018DE1680E711C470175
:103E700088E2880E911C8614970461F000E02BE024
:103E8000A501B3018FED92E00E94A0288FEF681A80
:103E9000780AF1CF46E050E04C195D09440F141642
:103EA00064F4BE01685F7F4F6C0D7D1DC7014C96A9
:103EB000242F8C0D9D1D0E943B2F80E0DF91CF9120
:103EC0000F91FF90EF90DF90CF90BF90AF909F90B9
:103ED0008F907F906F900895CF931092860280917B
:103EE000740190917501019731F46CE87BE181EDEB
:103EF00098E00E94751B67EE7CE189EC98E00E94D7
:103F0000751B8091B8029091B9020297D9F4C091C3
:103F10007301C7323CF06BEE7CE183EB98E00E94CA
:103F2000751B08C062EF7CE18EEB98E00E94751B68
:103F30001C168CF36EEC7CE187EA98E00E94751BFE
:103F40005DE407C06CED7CE189E998E00E94751B97
:103F500059E52091860286E0280290011124B901DA
:103F6000615071098091740190917501039751F42A
:103F700085E090E0909375018093740140E025E323
:103F800030E012C0CB0177FDC901959587959195D9
:103F9000819591099C01215E3F4F82E090E09093D2
:103FA00075018093740141E0852F90E097FD0196A3
:103FB00095958795919581959109815C80938C0267
:103FC00020938B0250938A02609389024093880267
:103FD0004093870210928E0281E080938D02CF91F0
:103FE0000C94790D80937201813011F4109271015B
:103FF00065E00E94DD35692F282F30E0A901445F7C
:104000005F4FE92FF0E04E0F5F1F4D31510514F067
:104010004CE150E040937001A901475F5F4F440FAE
:10402000551F4E31510514F04DE150E0460F4093BD
:104030006F0193E290936E0174EF7203A001739F7E
:10404000500D112440565F4F94E0EE0FFF1F9A95DC
:10405000E1F74E1B5F0B4431510514F444E150E08D
:1040600040936D019BEF899F802D11248051809397
:104070006C01C9010396880F90917101890F80939B
:1040800071012A3031054CF42A50310944E1429F34
:10409000C001439F900D112402C080E090E06111A7
:1040A00002C0805A910990936B0180936A018AE063
:1040B0008093690188E78093680108950F931F93A7
:1040C000CF93DF93C82FD0E021978E01000F111FEF
:1040D000F801E357F74F8591949163E00E948B2E8E
:1040E000B8016C0F7D1F6558774F43E050E085E6BF
:1040F00091E00E94143586E080936401DF91CF91B6
:104100001F910F9108950F931F93DC0112964C910C
:104110001297433059F1EC91F0E0EE0FFF1FEA5A8D
:10412000FE4F808191810196918380830091AE0240
:104130001091AF022091B0023091B1020F5F1F4F7A
:104140002F4F3F4F0093AE021093AF022093B00267
:104150003093B102809171018150809371014423A9
:1041600029F08091570181508093570183E0129686
:104170008C93129716967C936E9315971F910F91BF
:1041800008950F931F93CF93DF93EC018B010E944F
:10419000BD3426E030E040E050E00E947A35DC019A
:1041A000CB010196A11DB11D88830E94BD3424E07E
:1041B00030E040E050E00E947A3569830A830115BF
:1041C000110519F080E090E002C080E491E09C834A
:1041D0008B831E821D82809156018F5F80935601D2
:1041E000012B29F0809157018F5F80935701DF9158
:1041F000CF911F910F9108954F925F926F927F928E
:104200008F929F92AF92BF92CF92DF92EF92FF92E6
:10421000CF93DF9385E0882E912CA12CB12C97E0D1
:10422000C92ED12CE12CF12CD7E0C1E30E94BD3482
:10423000A50194010E947A352B013C010E94BD34F6
:10424000A70196010E947A35D69F9001D79F300D25
:104250001124C49DC001C59D900D1124820F931F90
:104260008A589E4FFC0120812111E0CFDF91CF9130
:10427000FF90EF90DF90CF90BF90AF909F908F9086
:104280007F906F905F904F900895CF92DF92EF9262
:10429000FF920F931F93CF93DF936C017A018B01F1
:1042A000C0E0D0E0CE15DF0581F0D8016D918D0121
:1042B000D601ED91FC910190F081E02DC6010995A8
:1042C000892B11F02196EECF7E01C701DF91CF91AE
:1042D0001F910F91FF90EF90DF90CF900895362FB0
:1042E00090E0FC01E153F14F4491FC01E45FF04F99
:1042F0002491FC01E75CF04F8491882309F452C0BB
:104300004423E1F150E0FA013197EF30F105B0F5C7
:10431000EA5AFF4F0C94FF35909180009F7707C0B9
:10432000909180009F7D03C090918000977F909333
:10433000800024C094B59F7702C094B59F7D94BD42
:104340001DC0909190009F7707C0909190009F7D35
:1043500003C090919000977F909390000FC0909130
:10436000C0009F7703C09091C0009F7D9093C000D4
:1043700005C09091C200977F9093C200E82FF0E0B3
:10438000EE0FFF1FE55DF04FA591B4919FB7F89434
:10439000311104C08C912095282302C0EC912E2B62
:1043A0002C939FBF0895CF93DF9390E0FC01E45FCF
:1043B000F04F2491FC01E75CF04F8491882361F178
:1043C00090E0880F991FFC01E051F14FC591D49105
:1043D000FC01E55DF04FA591B491611109C09FB753
:1043E000F8948881209582238883EC912E230BC03A
:1043F000623061F49FB7F8948881322F309583231F
:104400008883EC912E2B2C939FBF06C08FB7F89416
:10441000E8812E2B28838FBFDF91CF9108950E94D2
:104420002C364091D0025091D1022091CE02309191
:10443000CF0242175307B4F49091E8009570E1F36E
:104440009091E80092FD19C08093F1008091D00214
:104450009091D10201968F739927892B19F48EEFD1
:104460008093E8008091D0029091D10201969093C0
:10447000D1028093D00281E0089580E008956150D8
:1044800030F02091F100FC0120830196F8CF2898AC
:1044900084E68093D60208951F93CF93DF93182F5D
:1044A000EB0161E00E94D321209711F460E004C089
:1044B000CF3FD10539F461E0812FDF91CF911F917A
:1044C0000C946F21E12FF0E0E153F14FE4918E2F36
:1044D00090E0FC013197EF30F10508F06CC0EB592A
:1044E000FF4F0C94FF3584B5806884BDC7BD68C09C
:1044F00084B5806284BDC8BD63C08091800080683F
:1045000080938000D0938900C093880059C0809127
:104510008000806280938000D0938B00C0938A00DB
:104520004FC080918000886080938000D0938D0080
:10453000C0938C0045C0809190008068809390006B
:10454000D0939900C09398003BC080919000806206
:1045500080939000D0939B00C0939A0031C08091CB
:104560009000886080939000D0939D00C0939C0041
:1045700027C08091C00080688093C0008091C000F7
:104580008F7B8093C000C093CF001AC08091C00081
:1045900080628093C000C093D00012C08091C2009E
:1045A00088608093C2008091C2008B7F8093C2009C
:1045B000C093D20005C0C038D1050CF07CCF76CFB7
:1045C000DF91CF911F9108958F929F92AF92BF92EA
:1045D000CF92DF92EF92FF926B017C010E94C62482
:1045E0004B015C01C114D104E104F104F1F00E941B
:1045F000C624DC01CB0188199909AA09BB09883EA8
:104600009340A105B10570F321E0C21AD108E10879
:10461000F10888EE880E83E0981EA11CB11CC1141D
:10462000D104E104F10419F7DDCFFF90EF90DF90A2
:10463000CF90BF90AF909F908F90089584E090E0CE
:104640009093BC028093BB0281E090E09093B9020A
:104650008093B802089584E090E09093BC02809328
:10466000BB021092B9021092B80208950E94790D0F
:1046700083E090E09093BC028093BB0281E0809342
:10468000BA0208950E94790D82E090E09093BC02F6
:104690008093BB0281E08093BA0208950E94790D55
:1046A00084E090E09093BC028093BB0282E090E0B3
:1046B0009093B9028093B8020895EF92FF920F93FE
:1046C0001F93CF93DF938091BA02882309F448C1E6
:1046D0000E94E8308091BB029091BC02823091052B
:1046E00051F0039709F01DC1C8E0D0E082EEE82E3A
:1046F0008FE0F82EF1C082E290E09093F406809370
:10470000F3061092F6061092F50667ED7FE08FED46
:1047100092E00E94322DC0E1D0E0D093F406C09325
:10472000F3068AE090E09093F6068093F5066FEC2E
:104730007FE08FED92E00E94322DD093F406C0937B
:10474000F30687E190E09093F6068093F5066AEC15
:104750007FE08FED92E00E94322D86E190E0909311
:10476000F4068093F3068DE190E09093F606809333
:10477000F50662EC7FE08FED92E00E94322DD0933F
:10478000F406C093F3068AE290E09093F6068093D5
:10479000F5066BEB7FE08FED92E00E94322DC1E0D9
:1047A000D0E0D093F406C093F30684E390E09093B6
:1047B000F6068093F50661EB7FE08FED92E00E94B4
:1047C000322DD093F406C093F3068AE390E09093E1
:1047D000F6068093F50665EA7FE08FED92E00E9491
:1047E000322DEE24E39405E023E142E95FE060E14D
:1047F00070E088E590E00E946C2F21E141E85FE0E5
:1048000060E270E088E590E00E946C2F2091A202A7
:104810003091A3024091A40250E06AE070E089E484
:1048200090E00E943E0E2091A50230E040E050E072
:1048300060E170E080E790E00E943E0E2091A602C9
:104840003091A7024091A80250E06AE170E089E44B
:1048500090E00E943E0E2091A90230E040E050E03E
:1048600060E270E08EE690E00E943E0E2091B7027A
:1048700030E040E050E06AE270E089E490E00E94BD
:104880003E0E6DE77FE08FED92E00E94322D209189
:10489000AA023091AB024091AC025091AD0264E3A8
:1048A00070E089E490E00E94960D2091AE02309174
:1048B000AF024091B0025091B1026AE370E089E426
:1048C00090E00E943E0E2DE242E866E070E08FEF3D
:1048D0009FEF0E943B2F44C064E170E0C7010E943B
:1048E00026358C0111272DEF2003C001219F900D4B
:1048F0001124805C9F4F9093F4068093F306D0932D
:10490000F606C093F506B7018FED92E00E94322DB6
:104910000F5F1F4FE00EF11E2696C833D105E1F65A
:104920001FC0EE24E39400E126E747E450E168E08D
:1049300070E085E090E00E946C2F08E028E04FE3F3
:1049400050E160E070E08BE290E00E946C2F28E084
:104950004FE350E160E070E083E690E00E946C2F4E
:104960008091BB029091BC028130910511F00497B7
:1049700021F48091BA020E94221D1092BA02DF91A6
:10498000CF911F910F91FF90EF9008953FB7F8944A
:104990008091CA029091CB02A091CC02B091CD023D
:1049A00026B5A89B05C02F3F19F00196A11DB11D8A
:1049B0003FBFBA2FA92F982F8827820F911DA11DC5
:1049C000B11DBC01CD0142E0660F771F881F991F02
:1049D0004A95D1F708951F920F920FB60F921124A6
:1049E0002F933F938F939F93AF93BF9380919B029D
:1049F00090919C02A0919D02B0919E023091C902BB
:104A000023E0230F2D3720F40196A11DB11D05C011
:104A100026E8230F0296A11DB11D2093C9028093A1
:104A20009B0290939C02A0939D02B0939E02809162
:104A3000CA029091CB02A091CC02B091CD02019616
:104A4000A11DB11D8093CA029093CB02A093CC020A
:104A5000B093CD02BF91AF919F918F913F912F91D4
:104A60000F900FBE0F901F9018958FB12CB193B17E
:104A700030E02095309520743327A90123E0559527
:104A800047952A95E1F7292F30E020953095207140
:104A900033273595279535952795242B8095807F4D
:104AA000822B089583B7817F83BF83B7816083BFE3
:104AB000889583B78E7F83BF0895E0919902F09126
:104AC0009A02908180919802892B8083E0919602CE
:104AD000F09197029081809195028095892380833F
:104AE000E0919902F0919A029081809198028095CC
:104AF000892380830895E0919602F0919702908136
:104B000080919502892B8083E0919902F0919A021D
:104B10009081809198028095892380830895CF9316
:104B2000C82F0E945D25CEBD00000DB407FEFDCF4D
:104B30008EB5CF910C947B25CF92DF92EF92FF92AE
:104B40000F931F93CF93E82FF0E0E251F14FC49100
:104B5000E62FF0E0603330F4ED52F94EE4910E2F81
:104B600010E006C0EE0FFF1FED52FA4E05911491B2
:104B70006801E12CF12C60E074E284EF90E0A70181
:104B800096010E947A35BA01A90141505109610983
:104B900071094115510581E06807710580F060E9F0
:104BA00070ED83E090E0A70196010E947A35BA018A
:104BB000A901415051096109710983E001C081E0F7
:104BC000C130C9F0C33031F590919100987F892BA5
:104BD0008093910050939900409398001093C802DD
:104BE0000093C70281E08093C602809171008260C9
:104BF000809371000FC090918100987F892B8093E2
:104C00008100509389004093880080916F008260FA
:104C100080936F00CF911F910F91FF90EF90DF90E5
:104C2000CF9008951F920F920FB60F9211248F9379
:104C30009F93AF93BF93EF93FF938091C10288231B
:104C400009F447C08091BD029091BE02A091BF02BD
:104C5000B091C002892B8A2B8B2B51F1909192023B
:104C6000E0919302F0919402808189278083809162
:104C7000BD029091BE02A091BF02B091C002181671
:104C800019061A061B0674F58091BD029091BE02AA
:104C9000A091BF02B091C0020197A109B109809310
:104CA000BD029093BE02A093BF02B093C0021AC08F
:104CB0001092C10280916F008D7F80936F00809170
:104CC0009202E0919302F091940290818095892361
:104CD00008C090919202E0919302F0919402808139
:104CE00089278083FF91EF91BF91AF919F918F9121
:104CF0000F900FBE0F901F901895E82FF0E0E25133
:104D0000F14FE491E13019F0E33069F008958091BA
:104D10006F008D7F80936F0080919202E0919302EB
:104D2000F091940208C01092C60280918F02E09127
:104D30009002F0919102908180958923808308955B
:104D4000E091DA02F091DB02BF016F5F7F4F709359
:104D5000DB026093DA022491922F907F822F8F7072
:104D6000903819F40E947D26EBCF903981F4329669
:104D7000F093DB02E093DA02FB0164919091D80298
:104D80008917F0F667FDDCCF0E949C25D9CF903EB5
:104D900049F48091DC029091DD029093DB028093D4
:104DA000DA02CECF903F19F41092D902089597FD00
:104DB000C7CF3296F093DB02E093DA02FB01A491B5
:104DC000B0E0B22B2091C7023091C8020E94CE35CC
:104DD0006C507E4F8F4F9F4F28EE33E040E050E005
:104DE0000E94AC352093C2023093C3024093C402A8
:104DF0005093C5028091C2029091C302A091C40257
:104E0000B091C502892B8A2B8B2B61F481E090E055
:104E1000A0E0B0E08093C2029093C302A093C402CA
:104E2000B093C50208951F920F920FB60F921124EE
:104E30002F933F934F935F936F937F938F939F93A2
:104E4000AF93BF93EF93FF938091C602882349F0FD
:104E500090918F02E0919002F091910280818927D8
:104E600080838091D902882329F18091C202909198
:104E7000C302A091C402B091C502892B8A2B8B2B4F
:104E8000C9F08091C2029091C302A091C402B09176
:104E9000C5020197A109B1098093C2029093C30290
:104EA000A093C402B093C502892B8A2B8B2B11F4DB
:104EB0000E94A026FF91EF91BF91AF919F918F919A
:104EC0007F916F915F914F913F912F910F900FBE06
:104ED0000F901F9018956038710528F540345105E2
:104EE00010F5DA0133E0B595A7953A95E1F7FD01A4
:104EF000F695FE2FEE27F795E795477055276E0F2D
:104F00007F1FFC01E60FF71F81E090E001C0880FD2
:104F10004A95EAF7222319F09489892B03C08095DA
:104F200094898923848B08952F923F924F925F92A8
:104F30006F927F928F929F92AF92BF92CF92DF92A9
:104F4000EF92FF920F931F93CF93DF93CDB7DEB70E
:104F50002A970FB6F894DEBF0FBECDBF6A30A1F41A
:104F6000FC01E85EFB4F408132972081318158E09F
:104F7000459F200D311D112431832083DC01AC5E5F
:104F8000BB4F1D921C92C3C06D3009F4C0C09A87FC
:104F900089878C5E9B4F9B838A83FC0100811181F2
:104FA00029853A85285E3B4F3D832C8300381105C7
:104FB000D4F0AC81BD812C91422F50E0EA81FB817D
:104FC00080819181F6E02F9F800D911D1124AA818F
:104FD000BB818D939C93E985FA85E75EFB4F208129
:104FE000211167C094C0E985FA85EA5EFB4F6080B5
:104FF0007180B0E46B167104E4F6EC81FD814080B1
:10500000C801F5E04F9E800D911D11241816190658
:1050100084F6242C312CC30128E0429E800D911D82
:105020001124181619062CF6A5E06A9FC001112458
:1050300098878F83E12CF12CB5E0EB1641F0EF81DE
:10504000F885EE0DFF1DED5CFE4E549001C0512C15
:105050006301E8E0E983F52DF170FE8358018A2DA4
:10506000801B8415A0F44601882D8C19841558F4F2
:105070002E81A401B50189859A850E946B272FEFA7
:10508000821A920AF1CF3FEFA31AB30AE8CF5694DF
:10509000598151505983C20CD31C5111DCCF8FEF71
:1050A000E81AF80A020D131D96E0E916F10421F63C
:1050B00080CF6AEF64039001659F300D1124205862
:1050C0003F4F281739071CF5A985BA85ED91FC914A
:1050D00011970190F081E02D6AE0CD012A960FB67C
:1050E000F894DEBF0FBECDBFDF91CF911F910F911E
:1050F000FF90EF90DF90CF90BF90AF909F908F90F8
:105100007F906F905F904F903F902F9009942A96D8
:105110000FB6F894DEBF0FBECDBFDF91CF911F91C8
:105120000F91FF90EF90DF90CF90BF90AF909F9046
:105130008F907F906F905F904F903F902F90089549
:10514000AF92BF92CF92DF92EF92FF920F93CF93E5
:10515000DF936C015B017A01E20EF11CEA0157FF5B
:1051600002C0C0E0D0E0C70121E4E216F10414F06F
:1051700080E490E0C817D90744F4202FAE01B501B0
:10518000C6010E946B272196EECFDF91CF910F9140
:10519000FF90EF90DF90CF90BF90AF900895CF93A6
:1051A000DF931F92CDB7DEB76983DC01ED91FC91EF
:1051B0000280F381E02D41E050E0BE016F5F7F4F40
:1051C00009950F90DF91CF91089583E08093E900D6
:1051D0008091F200882319F08AE38093E800089513
:1051E000FC018485958597FD0BC09FB7F89482E0FC
:1051F0008093E9008091F2009FBF90E001960895AE
:105200009FB7F89482E08093E9008091F2009FBFFD
:1052100090E008958F929F92AF92BF92CF92DF92CB
:10522000EF92FF920F931F93CF93DF936C017B015B
:105230008A0180910B01882309F45CC08091D70218
:10524000882309F457C08091D30280FF05C0809164
:10525000E00082608093E000E801B12C8AEFA82E84
:1052600093E0892E2AE3922E209711F4BB20D9F1E6
:105270000E94253181110AC0AA94AA20D9F161E0C7
:1052800070E080E090E00E94E422EECF282F30E032
:10529000C217D3070CF48C2F9FB7F8948092E900C3
:1052A0002091E80025FF1DC0282F30E0C21BD30B42
:1052B000F701815020F041914093F100FACFE20EC6
:1052C000F31EBB2019F09092E8000AC08091E8001C
:1052D00085FD07C09092E800BB24B394209709F0A5
:1052E000B12C9FBFC1CF5D9884E68093D502101684
:1052F000110644F081E090E0F6019383828380E020
:1053000090E001C0C801DF91CF911F910F91FF90F4
:10531000EF90DF90CF90BF90AF909F908F900895C7
:105320000E94253190E008950F931F93CF93DF9350
:105330001F92CDB7DEB78C01FC018485958597FF60
:105340000EC0CE0101960E94F730019719F48981B1
:1053500090E002C08FEF9FEFF80195878487F801F6
:10536000848595850F90DF91CF911F910F910895BE
:10537000CF93DF931F92CDB7DEB7FC01848595856F
:1053800097FD05C02FEF3FEF358724870BC0CE0177
:1053900001960E94F730019719F4898190E002C0CC
:1053A0008FEF9FEF0F90DF91CF910895DF92EF92F3
:1053B000FF920F931F93CF93DF93D82EF92EE42EF5
:1053C000062F10E0C8010196880F0E94112283E089
:1053D0000E941122CD2DDF2D0C0F1D1FC017D107EC
:1053E00089F0E7FE03C0FE01849101C088810E941C
:1053F0001122F82E80E00E9411228F212196811126
:10540000EDCF01C081E0DF91CF911F910F91FF900F
:10541000EF90DF900895DF92EF92FF920F931F932A
:10542000CF93DF93D82E8A017B01E40EF51EEB01AA
:10543000CE15DF0571F0D7FE03C0FE01849101C0D7
:1054400088810E94112221968111F2CF8FEF9FEF68
:1054500001C0C801DF91CF911F910F91FF90EF9094
:10546000DF9008950F931F93CF93DF931F92CDB7D3
:10547000DEB782E0898342E450E063E077E180E8D0
:105480000E940B2A0E943631DC0112960D911C916C
:1054900013970115110589F0D801ED91FC91028057
:1054A000F381E02DBE016F5F7F4FC801099597FD25
:1054B00004C0F80100851185ECCF89810F90DF9140
:1054C000CF911F910F9108951F920F920FB60F92D7
:1054D00011248F939F938091E1009091E100937F3D
:1054E0009093E10083FF0FC01092E90091E0909348
:1054F000EB001092EC0092E39093ED001092D70233
:1055000098E09093F00082FF20C093E09093E90030
:105510009091F200992319F09AE39093E80090910A
:10552000D502992339F09091D50291509093D502EC
:10553000992389F19091D602992339F09091D6025E
:1055400091509093D602992341F184FF10C080912D
:10555000E2008E7E81608093E2008091E1008F7E88
:105560008093E1008091D3028E7E806111C080FF24
:1055700016C08091E2008E7E80618093E20080916F
:10558000E1008E7E8093E1008091D3028E7E816067
:105590008093D30204C05D9ACDCF289AD6CF9F9135
:1055A0008F910F900FBE0F901F9018951F920F9222
:1055B0000FB60F921124CF92DF92EF92FF920F93CA
:1055C0001F932F933F934F935F936F937F938F938B
:1055D0009F93AF93BF93EF93FF93CF93DF93CDB799
:1055E000DEB76C97DEBFCDBF1092E9008091E80076
:1055F00083FFFBC168E0CE0145960E943F2282EF07
:105600008093E8008D8987FF05C09091E80090FFA6
:10561000FCCF03C09EEF9093E800982F907609F09E
:10562000C6C09E894F89588D2F89F88C91110CC066
:10563000803829F48091D2028093F10002C0109248
:10564000F1001092F10045C1913051F4811141C136
:105650004130510509F03DC18091D2028D7F0BC0D0
:10566000933061F4811135C14130510509F031C1E8
:105670008091D20282608093D2022BC1953049F48E
:105680008091E80080FFFCCF822F80688093E30048
:1056900020C1963009F05EC00B8D1C8D22E0109267
:1056A000E9001092D1021092D002F21232C0109290
:1056B000CF021092CE020E94322A99E0BE016F5FA3
:1056C0007F4FDB01E92F1D92EA95E9F79983FA8272
:1056D00091E09E8390EA98879AEF99872091D00273
:1056E0003091D102275F3F4F3C832B838D831092F3
:1056F000E9001092D1021092D0021093CF020093D1
:10570000CE0249E050E080E00E940B2A0E94322A3B
:10571000E0C01093CF020093CE020E943631DC012C
:1057200012960D911C9113970115110509F4BBC038
:10573000D801ED91FC910480F581E02DBE016B5EF6
:105740007F4FC8010995009709F0C7C0F80100858F
:105750001185EACF973009F445C1983021F481E0F2
:105760008093F100B6C0993009F0B3C0837009F09E
:1057700039C1E5E1F1E081E031E096E320812111DA
:1057800009C08EE78093EA001092EA008F89809327
:10579000D7029FC08093E9003093EB0021912093C2
:1057A000EC009093ED008F5F873041F7EACF8B8D4F
:1057B0009C8D1092E9001092D1021092D002909329
:1057C000CF028093CE02898D811153C08E899D892D
:1057D000913A49F4813209F005C147E050E064E0B4
:1057E00071E080E0BBC0913209F0FCC0833269F403
:1057F0008F89988DA0E0B0E0809300019093010123
:10580000A0930201B093030164C0803269F48091D7
:10581000E80082FFFCCF67E084E091E00E943F2235
:105820008BEF8093E80055C0823209F052C08F8917
:1058300080930B01EEEFFFE7859194918B3F9C4D98
:1058400019F0E0E0F8E002C0EEEFFAE08091040128
:1058500090910501A0910601B0910701803B944011
:10586000A105B10509F09EC080910B0180FF79C0B0
:1058700099C00E943631FC01028113810115110586
:1058800009F4B0C0D801ED91FC910190F081E02DB8
:10589000BE016B5E7F4FC801099581111AC0F801E6
:1058A00000851185EBCFF1E0FF1609F44EC0F3E05F
:1058B000FF1298C08F89882309F44AC0823089F486
:1058C00040E867E087E697E10E94D629882309F43B
:1058D00089C08EEF8093E80088C018161906CCF3B3
:1058E00081C0813029F440E86BE08BE597E1ECCF93
:1058F000833009F077C00E943631DC011296ED90BA
:10590000FC9013978E010F5F1F4F6801E114F104A3
:1059100079F0D701ED91FC910680F781E02DB80177
:10592000C7010995080F111DF701E084F184EECF3E
:10593000D8011C92F60101900020E9F73197BF01D0
:105940006C197D0940E0C601BFCF69E477E102C070
:1059500065E477E1FB01449150E080E80E940B2A66
:10596000B8CFEE3F2AE0F20751F08081918187376E
:10597000A7E79A0721F09093FF0A8093FE0A87E732
:1059800097E791838083809160008093D4029BE0AD
:1059900088E10FB6F894A895809360000FBE9093AD
:1059A000600097CF808191818737974709F091CF29
:1059B000A895809160008861809360008091D402F6
:1059C00080936000EE3FBAE0FB0739F08091FE0A59
:1059D0009091FF0A918380837CCF1092FF0A1092EE
:1059E000FE0A77CF81E28093EB006C960FB6F894B5
:1059F000DEBF0FBECDBFDF91CF91FF91EF91BF9181
:105A0000AF919F918F917F916F915F914F913F9156
:105A10002F911F910F91FF90EF90DF90CF900F90FB
:105A20000FBE0F901F9018950F931F93CF93DF9386
:105A3000062F142FCFEFD0E0BE01681B71098AE05A
:105A40000E944C22BE01601B71098BE00E944C2217
:105A5000BE01611B710989E0DF91CF911F910F9108
:105A60000C944C22EF92FF920F931F93CF93DF93EE
:105A70008C017B01C0E0D0E0F701EC0FFD1F6491C9
:105A8000662339F0C8010E94540C892B11F021962D
:105A9000F3CFCE01DF91CF911F910F91FF90EF9047
:105AA0000895CF93DF9377FF13C0EE27FF27E61B00
:105AB000F70B242F042E000C330BE217F3070CF026
:105AC00056C0460F14160CF052C060E070E007C0DC
:105AD00014160CF04CC0603471050CF048C08038CE
