:100000000C941E060C9446060C9446060C94460668
:100010000C9446060C9446060C9446060C94460630
:100020000C9446060C9446060C945A100C94C91075
:100030000C9446060C9446060C9446060C94460610
:100040000C9446060C949D130C9446060C9446069C
:100050000C9446060C9446060C9446060C94FB122F
:100060000C9446060C9446060C9446060C944606E0
:100070000C9446060C9446060C9446060C944606D0
:100080000C9445130C9446060C9446060C944606B4
:100090000C9446060C9446060C9446060C944606B0
:1000A0000C9446060C9446060C94460605A84CCDC6
:1000B000B2D44EB93836A9020C50B9918688083CA2
:1000C000A6AAAA2ABE000000803F0000000000701F
:1000D0000100C0000C00CAA77C0A42F55508534233
:1000E00048195EF551120030000000274500409489
:1000F0001C0014F3190504F111042004000004414C
:10010000100400040000104208015E14450F40F086
:1001100001005955551351555D0D8C927C0857556A
:10012000550D5E55550D51520C015E55550F5655E6
:10013000550F00A0000000A4000000C2280080A20B
:1001400028008062080040500D0000E318009C92D7
:10015000241F5F555D0D9C1445115F1425075F55E5
:1001600055115F5114015E54551D1F41101F40F47D
:100170004500100421071F41181D1F0441105EF0A7
:10018000041F9C10041F5E54450F5F9214035ED43D
:10019000451F5F92341B5655550D41F005011F0454
:1001A00021071F4208011FE4410F1743181D07C113
:1001B000090151564D1100F0450000F0010040F4D6
:1001C000010080100C001004411000000000003EEF
:1001D0005B4F5B3E3E6B4F6B3E1C3E7C3E1C183CB7
:1001E0007E3C181C577D571C1C5E7F5E1C00183C13
:1001F0001800FFE7C3E7FF0018241800FFE7DBE75C
:10020000FF30483A060E2629792926407F05050742
:10021000407F05253F5A3CE73C5A7F3E1C1C08089E
:100220001C1C3E7F14227F22145F5F005F5F060963
:100230007F017F006689956A606060606094A2FFBC
:10024000A29408047E040810207E201008082A1CAE
:1002500008081C2A08081E101010100C1E0C1E0C7A
:1002600030383E3830060E3E0E060000000000001A
:10027000005F00000007000700147F147F14242A89
:100280007F2A12231308646236495620500008075B
:100290000300001C2241000041221C002A1C7F1C7C
:1002A0002A08083E0808008070300008080808087E
:1002B000000060600020100804023E5149453E00E5
:1002C000427F400072494949462141494D33181443
:1002D000127F1027454545393C4A49493141211192
:1002E00009073649494936464949291E0000140084
:1002F00000004034000000081422411414141414A7
:10030000004122140802015909063E415D594E7C04
:100310001211127C7F494949363E414141227F41B9
:1003200041413E7F494949417F090909013E414117
:1003300051737F0808087F00417F41002040413F02
:10034000017F081422417F404040407F021C027F11
:100350007F0408107F3E4141413E7F090909063E66
:100360004151215E7F091929462649494932030135
:100370007F01033F4040403F1F2040201F3F403847
:10038000403F631408146303047804036159494D22
:1003900043007F4141410204081020004141417F58
:1003A00004020102044040404040000307080020CE
:1003B000545478407F2844443838444444283844CE
:1003C00044287F385454541800087E090218A4A405
:1003D0009C787F0804047800447D40002040403D24
:1003E000007F1028440000417F40007C047804789E
:1003F0007C080404783844444438FC182424181831
:10040000242418FC7C08040408485454542404048C
:100410003F44243C4040207C1C2040201C3C403079
:10042000403C44281028444C9090907C4464544CA8
:100430004400083641000000770000004136080003
:1004400002010204023C2623263C1EA1A161123AAD
:100450004040207A385454555921555579412154FA
:10046000547841215554784020545579400C1E52FF
:1004700072123955555559395454545939555454A3
:10048000580000457C410002457D420001457C400A
:10049000F0292429F0F0282528F07C545545002027
:1004A00054547C547C0A097F4932494949323248C4
:1004B000484832324A4848303A4141217A3A42402B
:1004C0002078009DA0A07D39444444393D404040FF
:1004D0003D3C24FF2424487E4943662B2FFC2F2BD0
:1004E000FF0929F620C0887E090320545479410071
:1004F00000447D413048484A32384040227A007AF0
:100500000A0A727D0D19317D2629292F28262929CD
:10051000292630484D4020380808080808080808EF
:10052000382F10C8ACBA2F102834FA00007B000016
:1005300008142A142222142A14089500220095AACD
:10054000005500AAAA55AA55AA000000FF001010E5
:1005500010FF00141414FF001010FF00FF1010F023
:1005600010F0141414FC001414F700FF0000FF0036
:10057000FF1414F404FC141417101F10101F101F84
:100580001414141F00101010F0000000001F1010B1
:1005900010101F10101010F010000000FF101010AD
:1005A000101010101010FF10000000FF140000FFCA
:1005B00000FF00001F10170000FC04F414141710B3
:1005C000171414F404F40000FF00F71414141414A6
:1005D0001414F700F7141414171410101F101F141C
:1005E0001414F4141010F010F000001F101F00007D
:1005F000001F14000000FC140000F010F01010FFA9
:1006000010FF141414FF141010101F00000000F04D
:1006100010FFFFFFFFFFF0F0F0F0F0FFFFFF000022
:10062000000000FFFF0F0F0F0F0F38444438447CC9
:100630002A2A3E147E02020606027E027E026355CC
:100640004941633844443C04407E201E2006027E1B
:10065000020299A5E7A5991C2A492A1C4C7201722D
:100660004C304A4D4D303048784830BC625A463D97
:100670003E494949007E0101017E2A2A2A2A2A444C
:10068000445F444440514A444040444A5140000081
:10069000FF0103E080FF000008086B6B083612368C
:1006A0002436060F090F060000181800000010106D
:1006B000003040FF0101001F01011E00191D17122B
:1006C000003C3C3C3C0000000000060115012601F6
:1006D00037014A015D01720188019F01B801D20111
:1006E000EE010B022A024B026E029302BA02E402EE
:1006F00010033F037003A403DC031704550497049D
:10070000DD0427057505C80520067D06E0064907B6
:10071000B8072D08A9082D09B9094D0AEA0A900B56
:10072000400CFA0CC00D910E6F0F5A1053115B1252
:1007300072139A14D41520178018F519801B231DE5
:10074000DE1EB420A622B524E4263429A72B402E91
:100750000031EA330037453ABC3D68414C456B49AE
:10076000C84D68524F57805C006210111213151665
:1007700017181A1C1D1F21232527292C2E31343729
:100780003A3E4145494E52575C62686E757B838B99
:10079000939CA5AFB9C4D0DCE9F7000000020009C2
:1007A0000F0000030401000C000000000000000026
:1007B0000000000000000000000301000000002411
:1007C0000027002A002D003000D5F08D1410A1C89C
:1007D00081CFD9F1AF200004080201104080401001
:1007E0002040804080080204018040201002011057
:1007F00080102040402000000000250028002B0031
:100800002E00310004040404040304050202020261
:100810000403020202020606060606060404020299
:100820000204041402130212021502070208020451
:10083000010C010601005259534B20302E30340078
:1008400000F8FC000000989898F8F8DAC40D0B0640
:10085000006060E0F0FC3C3030A080808000000050
:1008600000000080E0F03C0C0000000000000000F0
:1008700000001090F0F89E9E98188880800000007C
:1008800000606060FEFC3030300008183830000036
:1008900000000000FCFC0000000000000000000060
:1008A0000030303030301098D878381818080000F0
:1008B00040C060F8FC6480C060303030F0C00000A0
:1008C000007F7F3800307949497F3F303060000039
:1008D00000607C1F070000333161616161410000ED
:1008E00000703E1F0F061F7F70606070381C000094
:1008F00000000021797C666F6F6361610100000078
:1009000000387C4CFF7F0203434363637E3C00005E
:100910000000000E3F7F6060606070380C000000D7
:100920000000000000000F3F386060400000000041
:1009300010381EFFFF010130786868783F3F600083
:1009400000606060FEFC3030300008183830000075
:1009500000000000FCFC000000000000000000009F
:1009600000001030B0B0B0FEFE9098100000000003
:1009700000F0F00000000000000030E0C080000047
:1009800000387C4CFF7F0203434363637E3C0000DE
:100990000000000E3F7F6060606070380C00000057
:1009A0000000307959D9597F3F3131614000000052
:1009B00000030F3C703C0C00000000000307000027
:1009C000080868980800C07028C080000000001C5B
:1009D0007CF080C0E06070300C1A060400000080DB
:1009E000E0F03C0C00000000000000000000003EB1
:1009F0007F636160606060600000000000703E1F07
:100A00000F061F7F70606070381C0000000000003F
:100A1000000000FEFC60603020000000008080804C
:100A200080808080808080808080000000F0F000E6
:100A300000000000000030E0C08000000030786856
:100A40004C6C687F1F18303060000000000101010D
:100A500001010101010101010101000000030F3C3E
:100A6000703C0C00000000000307000006090906A6
:100A7000FEF2DEDEF2FEFEFEFEFEF2DEDEF2FEFE46
:100A8000FEFEFEF2DEDEF2FEFEE2BEBEE2FEFEFE96
:100A9000FEFEE2BEBEE2FEFEFEFEFEE2BEBEE2FEE6
:100AA000FEC6BEBEC6FEFEFEFEFEC6BEBEC6FEFE46
:100AB000FEFEFEC6BEBEC6FE903C000A80F0903729
:100AC00000C8903500C8903700C8903500C89032F3
:100AD00001F480F03E64045A0F6B37354612905093
:100AE0000014905400289058002880F09044007D15
:100AF0009043007D9042007D9041007D9040007DBC
:100B00009041007D9042007D9043007D90600014F4
:100B100090410014905B0014905600149051001402
:100B2000904C001490470014903C001480F0080B87
:100B30000002020201000904000001020200000597
:100B400024001001052401010104240206052406E5
:100B500000010705810310004009040100020A009A
:100B60000000070502024000000705830240000064
:100B70000403090412010002EF0201404123368000
:100B800000010102030141726475696E6F204C4CD3
:100B9000430041726475626F790078FCFE86FEFC4A
:100BA000780000000101010000008C8CFEFEFE8632
:100BB000800001010101010101000C86E6FEBEDC9E
:100BC000C00001010101010301000426363EFEF4CC
:100BD000E0000103030303010000E0F0D8FCFEFE87
:100BE000C0000000000303030000383E3676F6E63E
:100BF000E600030303030301000078FEFF9FF8F8FB
:100C0000700000000101010000000E0E06C6F67E15
:100C100006000000070703000000EEFF3F7DF9FF1C
:100C2000E60000010101010100003C7E7EE6FEFCC1
:100C30007C000002070703010000081411241FBEF6
:100C4000CFEFDAE0DEBFCDBF11E0A0E0B1E0E0E43D
:100C5000FFE302C005900D92AA33B107D9F726E051
:100C6000AAE3B1E001C01D92A832B207E1F716E095
:100C7000CEE1D6E004C02197FE010E947F1FCD3156
:100C8000D107C9F70E943F140C949E1F0C940000DA
:100C90004F925F926F927F928F929F92AF92BF928C
:100CA000CF92DF92EF92FF920F931F93CF93DF9338
:100CB00030E0F901E80FF91FF7FDC5C08038910554
:100CC0000CF0C1C0FB01E00FF11DF7FDBCC06034AA
:100CD00071050CF0B8C0DB0177FF04C0AA27BB2761
:100CE000A61BB70BA770BB27FB0177FD3796C3E0A8
:100CF000F595E795CA95E1F777FF07C0319768E06A
:100D000070E0EB01CA1BDB0BDE01602E669466947B
:100D10006694712C077019F0DFEF6D1A7D0ABF0120
:100D2000EF01D695DC2FCC27D795C795C80FD91FD3
:100D3000C85FDD4F8A01660E771E48E050E06A0109
:100D4000CA1ADB0A6616770609F47DC06830710599
:100D500009F479C06F3FEFEF7E070CF469C050E0F3
:100D600040E04E01F0E88F0E911C421753070CF043
:100D70005FC0FC01E40FF51FE038F1050CF058C02E
:100D8000F7FD37C06F3F760709F459C02801440EBC
:100D9000551E5E01A40EB51EF501F488F1E0EF12B8
:100DA0002BC0F2014490E42D0A2E01C0EE0F0A94EC
:100DB000EAF7FE2AF501F48A1097D9F06730710539
:100DC000C1F02801440E551E5401A40EB51EF501B4
:100DD000F488F1E0EF121EC0F2014490E42DF0E03F
:100DE0000C2C02C0F595E7950A94E2F7FE2AF5016E
:100DF000F48A4F5F5F4FB9CFF2014490E42DF0E0E9
:100E00000A2E02C0EE0FFF1F0A94E2F7E095F0955C
:100E1000FE22D0CFF2014490E42DF0E00C2C02C071
:100E2000F595E7950A94E2F7E095F095FE22DFCF7D
:100E30006F5F7F4FC058DF4F020F131F83CF109794
:100E400009F0BFCFD6CFDF91CF911F910F91FF90C7
:100E5000EF90DF90CF90BF90AF909F908F907F905A
:100E60006F905F904F900895FC018091B0018823AE
:100E700011F13FB7F89482E08093E9002091F200ED
:100E8000822F90E01816190614F481E090E0882370
:100E900039F0289844E64093AF014091F100408337
:100EA000222339F02091F200211103C02BE6209378
:100EB000E8003FBF08958FEF9FEF08952FB7F89494
:100EC00083E08093E9009091E800892F807295FF7C
:100ED00004C09091F20080E4891B2FBF0895809197
:100EE000A70181110DC082E08093A30184E080936B
:100EF000A4011092A6011092A50181E08093A701A0
:100F000083EA91E00895CF93DF931F92CDB7DEB7C8
:100F10006983DC01ED91FC910280F381E02D41E0D9
:100F200050E0BE016F5F7F4F09950F90DF91CF9129
:100F3000089583E08093E9008091F200882319F0FE
:100F40008AE38093E80008950E945E0790E0089588
:100F5000CF93DF931F92CDB7DEB7FC0184859585D3
:100F600097FD08C02FEF3FEF358724870F90DF9163
:100F7000CF910895CE0101960E943407019719F48C
:100F8000898190E0F3CF8FEF9FEFF0CF0F931F9306
:100F9000CF93DF931F92CDB7DEB78C01FC01848520
:100FA000958597FF0BC0CE0101960E9434070197EB
:100FB00071F4898190E0F80195878487F801848530
:100FC00095850F90DF91CF911F910F9108958FEF2D
:100FD0009FEFF1CFFC018485958597FD0BC09FB7EE
:100FE000F89482E08093E9008091F2009FBF90E046
:100FF000019608959FB7F89482E08093E90080916C
:10100000F2009FBF90E0089540919D0150919E0194
:1010100020919B0130919C0142175307B4F49091A9
:10102000E8009570E1F39091E80092FD19C080937B
:10103000F10080919D0190919E0101968F739927F7
:10104000892B19F48EEF8093E80080919D01909197
:101050009E01019690939E0180939D0181E00895E9
:1010600080E00895EF92FF920F931F93CF93DF9349
:10107000F82E192FE62E042F81E0860F880F0E948C
:10108000040883E00E940408CF2DD12FEC0EFD2E22
:10109000F11CCE15DF05B9F007FF13C0FE018491E6
:1010A0000E940408182F80E00E94040881232196E2
:1010B0008111EFCFDF91CF911F910F91FF90EF90B2
:1010C00008958881EDCF81E0F5CFDF92EF92FF9216
:1010D0000F931F93CF93DF93D82E8A01EB017B01EF
:1010E000E40EF51ECE15DF0559F0D7FE12C0FE0145
:1010F00084910E94040821968111F4CF0FEF1FEF15
:10110000C801DF91CF911F910F91FF90EF90DF9079
:1011100008958881EECF0F931F93CF93DF931F9293
:10112000CDB7DEB782E0898342E450E06EE27BE037
:1011300080E80E9465080E946F07DC0112960D91FD
:101140001C910115110589F0D801ED91FC910280E7
:10115000F381E02DBE016F5F7F4FC801099597FDB8
:1011600004C0F80100851185ECCF89810F90DF91D3
:10117000CF911F910F910895615030F02091F100AF
:10118000FC0120830196F8CF289884E68093AF0174
:101190000895AF92BF92CF92DF92EF92FF920F939A
:1011A0001F93CF93DF936C017B018B01040F151FFD
:1011B000EB015E01AE18BF08C017D10759F0699165
:1011C000D601ED91FC910190F081E02DC6010995C9
:1011D000892B79F7C501DF91CF911F910F91FF9076
:1011E000EF90DF90CF90BF90AF900895282F30E020
:1011F000F901E656F84F9491F901E952F84F8491BC
:101200002C5F374FF9012491222309F430C0992330
:10121000E9F091509F30D0F4E92FF0E0EE5EF64F08
:101220000C947F1F40094409210938093C0926090B
:101230002609260947094D09510955095B0926095F
:101240005F09909180009F7790938000E22FF0E0FB
:10125000EE0FFF1FEA50F84FA591B4919FB7F89495
:10126000EC91611132C080958E238C939FBF0895BD
:10127000909180009F7DE8CF90918000977FE4CF90
:1012800094B59F7794BDE2CF94B59F7DFBCF9091AD
:1012900090009F7790939000D9CF909190009F7D80
:1012A000F9CF90919000977FF5CF9091C0009F77F4
:1012B0009093C000CBCF9091C0009F7DF9CF9091CB
:1012C000C200977F9093C200C1CF8E2BCECFCF9319
:1012D000DF9390E0FC01E952F84F24918C5F974F27
:1012E000FC0184918823C9F090E0880F991FFC01CC
:1012F000E554F84FA591B491FC01EA50F84FC5911F
:10130000D49161110DC09FB7F8948C9120958223E0
:101310008C938881282328839FBFDF91CF910895E4
:10132000623051F49FB7F8943C91822F80958323CB
:101330008C93E8812E2BEFCF8FB7F894EC912E2B66
:101340002C938FBFEACF1F93CF93DF93182FEB011E
:1013500061E00E946709209739F460E0812FDF91F6
:10136000CF911F910C94F608CF3FD10511F461E0A5
:10137000F5CFE12FF0E0E656F84FE491E150EF3081
:1013800008F07FC0F0E0E953F64F0C947F1FD609B8
:10139000DE09E309ED09F709410A410A410A010A98
:1013A0000B0A150A1F0A2C0A410A340A84B5806800
:1013B00084BDC7BDDF91CF911F91089584B5806230
:1013C00084BDC8BDF7CF8091800080688093800085
:1013D000D0938900C0938800EDCF80918000806217
:1013E00080938000D0938B00C0938A00E3CF8091DC
:1013F0008000886080938000D0938D00C0938C0023
:10140000D9CF80919000806880939000D09399000C
:10141000C0939800CFCF809190008062809390001D
:10142000D0939B00C0939A00C5CF809190008860B4
:1014300080939000D0939D00C0939C00BBCF80917F
:10144000C00080688093C0008091C0008F7B809333
:10145000C000C093CF00AECF8091C0008062809367
:10146000C000C093D000A6CF8091C2008860809356
:10147000C2008091C2008B7F8093C200C093D200D3
:1014800099CFC038D1050CF072CF67CF3FB7F89431
:101490008091470190914801A0914901B0914A0182
:1014A00026B5A89B05C02F3F19F00196A11DB11DBF
:1014B0003FBFBA2FA92F982F8827BC01CD01620FFB
:1014C000711D811D911D42E0660F771F881F991FB6
:1014D0004A95D1F708958F929F92AF92BF92CF9283
:1014E000DF92EF92FF924B015C010E94460A6B0172
:1014F0007C010E94460A6C197D098E099F09683E8D
:10150000734081059105A8F321E0821A9108A10892
:10151000B10888EEC80E83E0D81EE11CF11C8114CE
:101520009104A104B10429F7FF90EF90DF90CF90D0
:10153000BF90AF909F908F9008958F929F92AF929F
:10154000BF92CF92DF92EF92FF920F931F93CF93B0
:10155000DF936C017B018A0180910B01882309F4E0
:101560005CC08091B001882309F457C08091A2012A
:1015700080FF05C08091E00082608093E000E80178
:10158000B12C8AEFA82E93E0892E2AE3922E209781
:1015900011F4BB20D9F10E945E0781110AC0AA9400
:1015A000AA20D9F161E070E080E090E00E946B0A2F
:1015B000EECF8C171D0611F00CF08C2F9FB7F8940E
:1015C0008092E9002091E80025FD02C09FBFDFCF97
:1015D000282F30E0C21BD30BF701815020F041913E
:1015E0004093F100FACFE20EF31EBB2021F090925F
:1015F000E800B12CEBCF8091E80085FDE7CF909219
:10160000E800BB24B394209709F3F3CF5D9884E6F8
:101610008093A101101611063CF081E090E0F601E4
:101620009383828310E000E0C801DF91CF911F9186
:101630000F91FF90EF90DF90CF90BF90AF909F9071
:101640008F9008954FB18CB123B190E08095909523
:1016500033E0959587953A95E1F7887030E02095CD
:10166000309535952795359527952470822B942FA5
:101670009095907F892B089583B7817F83BF83B72F
:10168000816083BF889583B78E7F83BF0895E09183
:101690005601F0915701908180915501982B9083CC
:1016A000A0915301B09154012C91909152019095C9
:1016B00092239C9390818095892380830895E09163
:1016C0005301F0915401808190915201892B8083C4
:1016D000E0915601F09157019081809155018095DC
:1016E000892380830895CF92DF92EF92FF920F9328
:1016F0001F93CF93E82FF0E0E754F84FC491E62F03
:10170000F0E0603398F5E659F84FE4910E2F10E0C1
:10171000F12CE12C60E074E284EF90E0A7019801E5
:101720000E945E1C215031094109510991E02115A7
:10173000310581E0480751056CF060E970ED83E008
:1017400090E0A70198010E945E1C215031094109D7
:10175000510993E0C13089F0C330F9F0CF911F9166
:101760000F91FF90EF90DF90CF900895EE0FFF1F45
:10177000E659F94F05911491CBCF80918100887F74
:10178000892B809381003093890020938800809179
:101790006F00826080936F00E1CF80919100887F1D
:1017A000892B809391003093990020939800109397
:1017B00045010093440181E08093430180917100D1
:1017C000826080937100CACFE82FF0E0E754F84FB1
:1017D000E491E13019F0E33089F0089580916F00D1
:1017E0008D7F80936F0080914E01E0914F01F091C9
:1017F0005001908180958923808308951092430140
:1018000080914B01E0914C01F0914D01F2CFE091BC
:10181000B301F091B401BF016F5F7F4F7093B401CA
:101820006093B3012491922F907F822F8F70903814
:1018300019F40E94E40BEBCF903981F43296F093C7
:10184000B401E093B301FB0164919091B101891758
:10185000F0F667FDDCCF0E94730BD9CF903E49F4C0
:101860008091B5019091B6019093B4018093B3013A
:10187000CECF903F19F41092B201089597FDC7CFD3
:101880003296F093B401E093B301FB016491A0910F
:101890004401B0914501322F262F0E94B21C6C509A
:1018A0007E4F8F4F9F4F28EE33E040E050E00E9484
:1018B000901C20933F01309340014093410150938D
:1018C000420180913F0190914001A0914101B0916E
:1018D0004201892B8A2B8B2B61F481E090E0A0E000
:1018E000B0E080933F0190934001A0934101B093F9
:1018F000420108950F931F93CF93DF932091B70177
:10190000222329F1162FEC018091B201882381F066
:10191000809126068617D8F000E08091B101081763
:1019200028F4802F0E94E40B0F5FF7CF1092B201D2
:1019300010932606D093B601C093B501D093B4019D
:10194000C093B3010E94070C81E08093B201DF9144
:10195000CF911F910F91089560387105E8F44034DC
:101960005105D0F4342F369536953695A0E83A9F38
:10197000F0011124E60FF71FE80FF91F3489CA019F
:101980008770992741E050E001C0440F8A95EAF73B
:10199000222319F0432B448B089540954323FBCF1A
:1019A0002F923F924F925F926F927F928F929F926F
:1019B000AF92BF92CF92DF92EF92FF920F931F935D
:1019C000CF93DF93CDB7DEB72D970FB6F894DEBF78
:1019D0000FBECDBF6A3069F5FC01EA5EFB4FDC014A
:1019E000A85EBB4F2C9148E0249F900111244081B8
:1019F0005181240F351F3183208314971D921C922F
:101A00002D960FB6F894DEBF0FBECDBFDF91CF91FC
:101A10001F910F91FF90EF90DF90CF90BF90AF900C
:101A20009F908F907F906F905F904F903F902F90FE
:101A300008956D3029F39D878C878C5E9B4F9A8328
:101A40008983FC01808091802C853D85285E3B4FF9
:101A50003C832B8330E8831691040CF071C0EC8535
:101A6000FD85EA5EFB4F6080718040E4641671047E
:101A70000CF066C0AB81BC814C9045E09401449E63
:101A8000200D311D1124121613060CF059C0242C00
:101A9000312C910153E0220F331F5A95E1F7260DA7
:101AA000371D121613060CF04BC0649FB0011124B1
:101AB00010E000E0FB01E653FE4FFB87EA87E0E021
:101AC000053029F0EA85FB85E00FF11FE491530111
:101AD00098E0592E2E2F30E03E832D83E170EF8366
:101AE000F12CE12CE414D8F4C4018E0D9F1D9987CC
:101AF0008887D12CC12CC41470F4A6014A0D5B1D3B
:101B00002F81688579858C859D850E94AC0C9FEF1F
:101B1000C91AD90AF0CFAFEFEA1AFA0AE3CFED817A
:101B2000FE81F595E7955A94A20CB31C5110D2CFC3
:101B30000F5F1F4F820C931C0630110509F0BFCFB9
:101B4000EB81FC812081422F50E0A981BA818D91E7
:101B50009C91B6E02B9F800D911D1124E981FA81A3
:101B600091838083EC85FD85E75EFB4F20812223F6
:101B700009F446CF6AEF64039001659F300D11248C
:101B800020583F4F281739070CF03ACFAC85BD8558
:101B9000ED91FC9111970190F081E02D6AE0CD016B
:101BA0002D960FB6F894DEBF0FBECDBFDF91CF915B
:101BB0001F910F91FF90EF90DF90CF90BF90AF906B
:101BC0009F908F907F906F905F904F903F902F905D
:101BD0000994AF92BF92CF92DF92EF92FF920F9350
:101BE000CF93DF936C015B017A01E20EF11CEA01F5
:101BF00057FF02C0D0E0C0E0C70121E4E216F104C3
:101C000014F080E490E0C817D90744F4202FAE0107
:101C1000B501C6010E94AC0C2196EECFDF91CF91A9
:101C20000F91FF90EF90DF90CF90BF90AF9008950D
:101C30009F92AF92BF92CF92DF92EF92FF920F935B
:101C40001F93CF93DF93EC016B01F42E5801615089
:101C50007109E12C022F242FA5010E9448062F2D87
:101C6000A501B601CE0101970E9448062F2DA501BE
:101C7000B601CE0101960E944806B6016F5F7F4F04
:101C80002F2DA501CE010E944806EE24E3942F2DAE
:101C9000A501B601CE010E944806DF91CF911F91A8
:101CA0000F91FF90EF90DF90CF90BF90AF909F90FB
:101CB0000895EF92FF920F931F93CF93DF937C01D0
:101CC0008B01D0E0C0E06A3071054CF0CB016AE0D6
:101CD00070E00E946B1FC7010E94590EEC01C80101
:101CE0006AE070E00E946B1F8C0184E0000F111FFE
:101CF0008A95E1F70656144F2CE048E070E060E06A
:101D0000C7018C0F9D1F0E94180ECE010896DF910F
:101D1000CF911F910F91FF90EF9008952F923F92D6
:101D20004F925F926F927F928F929F92AF92BF92EB
:101D3000CF92DF92EF92FF920F931F93CF93DF9397
:101D4000CDB7DEB72D970FB6F894DEBF0FBECDBF6F
:101D50006A3071F5FC01EA5EFB4FDC01A85EBB4F07
:101D60004C912081318156E0459F200D311D112479
:101D70003183208314971D921C9281E090E02D9670
:101D80000FB6F894DEBF0FBECDBFDF91CF911F918C
:101D90000F91FF90EF90DF90CF90BF90AF909F900A
:101DA0008F907F906F905F904F903F902F9008950D
:101DB00020EE260F203408F79D878C878C5E9B4F82
:101DC0009E838D83FC01208031802C853D85285E9B
:101DD0003B4F3987288730E8231631040CF064C064
:101DE000EC85FD85EA5EFB4FE080F18050E4E5166E
:101DF000F1040CF059C0A885B9851C91412E512CD5
:101E00009101B5E01B9F200D311D112437FD4CC001
:101E10009701E6E01E9F200D311D112437FD44C0BF
:101E2000EC85FD85E55EFB4F7080EC85FD85E65E0B
:101E3000FB4F608024E0629FF0011124E65BFF4FBE
:101E400085909590A590B490113009F05FC026E080
:101E5000522ED12CC12CD501C40181709927AA27FB
:101E6000BB2780FC02C0761471F0262D892B8A2BAB
:101E70008B2B09F4272DA7014C0D5D1DB1018C851D
:101E80009D850E94AC0CB694A794979487943FEFDD
:101E9000C31AD30A56E0C516D104E9F65A948FEF57
:101EA000281A380A5110D5CFA885B9852C91422F10
:101EB00050E0ED81FE8180819181F6E02F9F800DC1
:101EC000911D1124AD81BE818D939C93EC85FD8580
:101ED000E75EFB4F2081222309F44FCF6AEF6403B2
:101EE0009001659F300D112420583F4F2817390766
:101EF0000CF043CFAC85BD85ED91FC91119701901D
:101F0000F081E02D6AE0CD01099537CF96E09B8303
:101F1000FA82E982A6E0AC83F101E40DF51DFB87AE
:101F2000EA87D501C40181709927AA27BB2780FCC5
:101F300002C07614D1F0892B8A2B8B2BA1F06F82F3
:101F400061012A853B85C216D3067CF40F81212FBF
:101F500049815A81B6018C859D850E94E90D3FEF2C
:101F6000C31AD30AEECF7F82EBCFB694A79497948F
:101F700087945C8151505C8389819A81840D951D81
:101F80009A8389835111CDCF9B8191509B83240CDF
:101F9000351C9111BDCF88CF089590E080E0089561
:101FA0000E94991F8F929F92AF92BF92CF92DF9221
:101FB000EF92FF92CF93DF93EC01C12C8FE1D82EEB
:101FC000E12CF12C812C9FE0992EA12CB12C0E94A8
:101FD000FE1BA70196010E945E1C60587F4F8F4F29
:101FE0009F4F798368830E94FE1BA50194010E9484
:101FF0005E1CAB01BC0140585F4F6F4F7F4F5B834E
:102000004A83809198019091990128813981821B9E
:10201000930B97FF03C09195819591098115944089
:1020200074F48091960190919701841B950B97FF12
:1020300003C09195819591098115944044F20E94C5
:10204000FE1B20E038E040E050E00E945E1C0E9451
:10205000701D2BED3FE049E450E40E943B1E20E060
:1020600030E040E85AE30E943B1E6B017C010E9475
:10207000C11C20E030E040E852E40E943B1E0E9478
:10208000381D6C83C701B6010E94A81E20E030E015
:1020900040E852E40E943B1E0E94381D6D83DF9190
:1020A000CF91FF90EF90DF90CF90BF90AF909F9037
:1020B0008F9008951F920F920FB60F9211248F9355
:1020C0009F938091E1009091E100937F9093E100D4
:1020D00083FF0FC01092E90091E09093EB00109203
:1020E000EC0092E39093ED001092B00198E0909391
:1020F000F00082FF22C093E09093E9009091F200FB
:10210000992319F09AE39093E8009091A101992303
:1021100041F09091A10191509093A101911101C0C2
:102120005D9A9091AF01992341F09091AF01915048
:102130009093AF01911101C0289A84FF18C080913B
:10214000E2008E7E81608093E2008091E1008F7ECC
:102150008093E1008091A2018E7E80618093A20134
:102160009F918F910F900FBE0F901F90189580FF39
:10217000F7CF8091E2008E7E80618093E2008091B3
:10218000E1008E7E8093E1008091A2018E7E8160CD
:10219000E5CF1F920F920FB60F921124CF92DF92CC
:1021A000EF92FF920F931F932F933F934F935F9361
:1021B0006F937F938F939F93AF93BF93EF93FF930F
:1021C000CF93DF93CDB7DEB76C97DEBFCDBF109254
:1021D000E9008091E80083FF25C068E0CE014596C4
:1021E0000E94BC0882EF8093E8008D8987FF39C088
:1021F0009091E80090FFFCCF982F907609F034C1C1
:102200009E894F89588D2F89F88C911131C0803863
:1022100061F58091A0018093F1001092F1008EEFA2
:102220008093E8006C960FB6F894DEBF0FBECDBF6A
:10223000DF91CF91FF91EF91BF91AF919F918F91DE
:102240007F916F915F914F913F912F911F910F91CE
:10225000FF90EF90DF90CF900F900FBE0F901F90E8
:1022600018959EEF9093E800C7CF1092F100D5CF5C
:10227000913059F48111D3CF4130510581F68091CD
:10228000A0018D7F8093A001CACF933049F48111C2
:10229000C6CF4130510519F68091A0018260F2CF7E
:1022A000953041F48091E80080FFFCCF20682093B6
:1022B000E300B5CF963009F0A9C00B8D1C8D22E04C
:1022C0001092E90010929E0110929D01F2122EC010
:1022D00010929C0110929B010E948B081F8299E032
:1022E0009983FA8291E09E8390EA98879AEF998782
:1022F00020919D0130919E01275F3F4F3C832B83AE
:102300008D831092E90010929E0110929D0110930E
:102310009C0100939B0149E050E0BE016F5F7F4F3D
:1023200080E00E9465080E948B0879CF10939C0181
:1023300000939B010E946F07DC0112960D911C9186
:102340000115110509F451C1D801ED91FC910480EA
:10235000F581E02DBE016B5E7F4FC80109950097A6
:1023600009F03EC1F80100851185EACFF3E0FF12C4
:102370000EC08F89882309F440C0823061F440E8A0
:1023800067E082E99BE00E943208811148CF81E238
:102390008093EB0047CF813029F440E86BE086E87A
:1023A0009BE0F1CF833099F70E946F07DC01129612
:1023B000ED90FC908E010F5F1F4F6801E114F10456
:1023C00079F0D701ED91FC910680F781E02DB801FD
:1023D000C7010995080F111DF701E084F184EECFC4
:1023E000D8011C92F60101900020E9F73197BF0156
:1023F0006C197D0940E0C601C6CF60E77BE0FB01B8
:10240000449150E080E80E94650809CF973009F4B4
:10241000BECF983021F481E08093F10000CF993055
:1024200009F0FDCE837009F0B2CFE5E1F1E081E083
:1024300031E096E32191222371F08093E9003093FB
:10244000EB00DF0111972C912093EC009093ED00AD
:102450008F5F873079F78EE78093EA001092EA0069
:102460008F898093B001DBCE8B8D9C8D1092E9001B
:1024700010929E0110929D0190939C0180939B016C
:10248000898D811192C08E899D89913A49F481325A
:1024900009F07DCF47E050E064E071E080E0B3CF29
:1024A000913209F074CF833269F48F89988DB0E04E
:1024B000A0E08093000190930101A0930201B093EA
:1024C0000301ADCE803269F48091E80082FFFCCF39
:1024D00067E084E091E00E94BC088BEF8093E80005
:1024E0009ECE823209F09BCE8F8980930B01EEEF56
:1024F000FFE7859194918B3F9C4D51F1E0E0F8E02E
:102500008091040190910501A0910601B09107010D
:10251000803B9440A105B105F1F480910B0180FD51
:102520001AC0EE3F8AE0F80789F587E797E79183BD
:1025300080838091600080939F0188E19BE00FB6CB
:10254000F894A895809360000FBE9093600067CECA
:10255000EEEFFAE0D5CF808191818737974709F078
:102560005ECEA89580916000886180936000809124
:102570009F0180936000EE3F2AE0F20789F080918E
:10258000FE0A9091FF0A9183808349CE80819181D8
:102590008737980751F29093FF0A8093FE0AC5CFC0
:1025A0001092FF0A1092FE0A3ACE0E946F07DC01D9
:1025B00012960D911C910115110509F4E8CED80170
:1025C000ED91FC910190F081E02DBE016B5E7F4F9B
:1025D000C8010995811123CEF80100851185EBCF43
:1025E000181619060CF41BCED2CEF1E0FF12BECEA7
:1025F00064E77BE004CF1F920F920FB60F92112475
:102600002F933F938F939F93AF93BF9380915801E4
:1026100090915901A0915A01B0915B01309146010E
:1026200023E0230F2D3758F50196A11DB11D2093EE
:1026300046018093580190935901A0935A01B09399
:102640005B018091470190914801A0914901B091AF
:102650004A010196A11DB11D809347019093480145
:10266000A0934901B0934A01BF91AF919F918F917F
:102670003F912F910F900FBE0F901F90189526E855
:10268000230F0296A11DB11DD2CF1F920F920FB63C
:102690000F9211242F933F934F935F936F937F93E8
:1026A0008F939F93AF93BF93EF93FF9380914301D9
:1026B000882349F080914B01E0914C01F0914D014C
:1026C0009081892780838091B201882329F18091AC
:1026D0003F0190914001A0914101B0914201892BAD
:1026E0008A2B8B2BC9F080913F0190914001A091E2
:1026F0004101B09142010197A109B10980933F01C5
:1027000090934001A0934101B0934201892B8A2B01
:102710008B2B11F40E94070CFF91EF91BF91AF91A9
:102720009F918F917F916F915F914F913F912F91E9
:102730000F900FBE0F901F9018951F920F920FB61B
:102740000F9211248F939F93AF93BF93EF93FF93B7
:1027500080913E01882309F452C080913A01909102
:102760003B01A0913C01B0913D01892B8A2B8B2B21
:10277000A1F190914E01E0914F01F09150018081C3
:102780008927808380913A0190913B01A0913C017F
:10279000B0913D01181619061A061B069CF480918B
:1027A0003A0190913B01A0913C01B0913D0101970C
:1027B000A109B10980933A0190933B01A0933C0198
:1027C000B0933D01FF91EF91BF91AF919F918F9198
:1027D0000F900FBE0F901F90189510923E018091A0
:1027E0006F008D7F80936F0080914E01E0914F01CB
:1027F000F09150019081809589238083E3CF90915F
:102800004E01E0914F01F091500180818927F5CF71
:10281000E8EBF1E01382128288EE93E0A0E0B0E0F2
:1028200084839583A683B7838FE191E0918380832E
:102830008FEF9FEF95878487E8E0F2E013821282A2
:102840008CE3868380E1818710861782168617863F
:10285000108A118A128A10921D0610921C0610927C
:102860001F0610921E0681E08093200621E331E0CE
:102870003183208380932206109223060895CF93FC
:10288000DF93CDB7DEB72A970FB6F894DEBF0FBE41
:10289000CDBF789484B5826084BD84B5816084BDE9
:1028A00085B5826085BD85B5816085BD80916E00EE
:1028B000816080936E00109281008091810082601F
:1028C000809381008091810081608093810080915C
:1028D000800081608093800080919100826080936D
:1028E000910080919100816080939100809190008F
:1028F0008160809390008091C10084608093C100CA
:102900008091C10082608093C1008091C10081608C
:102910008093C1008091C30081608093C300809147
:10292000C00082608093C0008091C200816080936B
:10293000C20080917A00846080937A0080917A004E
:10294000826080937A0080917A00816080937A001F
:1029500080917A00806880937A001092B001109282
:10296000A0011092A2018091D70081608093D700CE
:1029700080EA8093D80089B5806189BD89B582607D
:1029800089BD09B400FEFDCF61E070E080E090E019
:102990000E946B0A8091D8008F7C80618093D80060
:1029A0008091E000807F8093E0008091E1008E7E46
:1029B0008093E1008DE08093E200559A209A2FB732
:1029C0002983F89480915101811127C0E5E1F8E055
:1029D0008491E8EEF7E09491E82FF0E0EE0FFF1F0E
:1029E000E554F84FA591B491EC91E92321F461E00D
:1029F00081E10E94F60861E081E10E9467098CB5DF
:102A000080618CBD8CB580648CBD61E08FE00E94DC
:102A1000670961E080E10E946709809151018F5F41
:102A20008093510139813FBF43E258E05A83498383
:102A300069817A81FB0184916F5F7F4F3296FA83BF
:102A4000E983FB016491882319F00E946709F0CFA4
:102A500061E086E00E94F60861E070E080E090E0CE
:102A60000E946B0A60E086E00E94F6086AE070E06F
:102A700080E090E00E946B0A61E086E00E94F60828
:102A8000E0E1F8E0E491F0E0EE0FFF1FEA50F84FCC
:102A9000859194919093570180935601E3EEF7E06E
:102AA000E491E0935501E8E0F8E0E491F0E0EE0F06
:102AB000FF1FEA50F84F85919491909354018093B1
:102AC0005301EBEDF7E0E491E09352018CB58C7F7C
:102AD0008CBD8DB581608DBD0E94470BE9ECF7E0A0
:102AE00087ED97E08E179F0749F024912EBD0000D7
:102AF0000DB407FEFDCF2EB53196F4CF0E945F0BCB
:102B000080916400816080936400809164008260A1
:102B10008093640080916400806880936400809159
:102B2000640080648093640080916500816080937C
:102B300065000E94220B87FF22C00E94470B85EA96
:102B40008EBD00000DB407FEFDCF8EB50E945F0B59
:102B500070E060E08AE00E94A30970E060E08BE032
:102B60000E94A30970E060E089E00E94A3098091BF
:102B700064008062809364000E943C0BFDCF8091D2
:102B8000B1018230A1F0E82FF0E0E754F84F249132
:102B900029838F5F8093B10161E085E00E9467091E
:102BA0003981313009F49DC0333009F4BCC061E093
:102BB0008DE00E94670982E090E00E94561C882305
:102BC00009F4DEC080916500877F8093650081E015
:102BD0008093B7018CE380930E0280E18093110211
:102BE00080916500877F8093650081E08093B701C5
:102BF000EE24E39400E120E840E458E068E170E06E
:102C000090E080E00E94480688E290E090931D06E4
:102C100080931C068AE390E090931F0680931E0623
:102C200046E358E05A834983E981FA816491662337
:102C300061F088E092E00E948E0E29813A812F5F38
:102C40003F4F3A832983892B79F710929A016FEFCE
:102C500070E08AE00E94A3096FEF70E08BE00E94B1
:102C6000A3096FEF70E089E00E94A3092FB7F894E1
:102C70008091580190915901A0915A01B0915B0146
:102C80002FBF20911A02222391F020911202382F97
:102C9000321B30931B0220910F02309110022F5FE4
:102CA0003F4F3093100220930F0210921A0240916E
:102CB0001602509117026091180270911902841740
:102CC0009507A607B7070CF063C0481B423010F009
:102CD0000E943C0B80E090E0892B41F20E940000B2
:102CE000C5CF109280001092810080918100886091
:102CF0008093810080918100816080938100E9E070
:102D0000F8E0E491F0E0EE0FFF1FEA50F84F8591F4
:102D100094919093500180934F01ECEDF7E0E49192
:102D2000E0934E0144CF1092900010929100809158
:102D300091008860809391008091910081608093E0
:102D40009100E9E0F8E0E491F0E0EE0FFF1FEA50B7
:102D5000F84F8591949190934D0180934C01ECED47
:102D6000F7E0E491E0934B018091B101882321F0D9
:102D70006CE380E00E94730B80E00E94E40B17CFAD
:102D80001092B7018091650088608093650022CF22
:102D900020911102AC01BD01420F511D611D711D39
:102DA0004093160250931702609318027093190211
:102DB0008093120290931302A0931402B093150211
:102DC00081E080931A0280912506809324060E9458
:102DD000220B8093250690919A01992309F40AC247
:102DE00020916001309161012150310930936101DE
:102DF0002093600190915F01992319F09150909375
:102E00005F0121314EE0340708F028C185FB992786
:102E100090F9692F619586FF02C061E0691B982FC8
:102E2000991F9927991F792F719584FF02C071E02E
:102E3000791B662319F0E8E1711101C0E0E24091CD
:102E40009801509199016E02400D511D112450932B
:102E5000990140939801872F072E000C990B209120
:102E6000960130919701E702200D311D1124309316
:102E70009701209396014F3F510509F034F440E04B
:102E800051E05093990140939801409198015091DD
:102E9000990141305F4134F040E05FE15093990186
:102EA000409398012F3F310509F034F420E031E0E0
:102EB00030939701209396012091960130919701CC
:102EC00021303F4034F0E0E0FFE0F0939701E093E1
:102ED00096010196982F990F890F6F5F860F809347
:102EE0009501843009F0ACC01092940124E631E0E1
:102EF0003A83298309E115E090E1F92EA981BA818D
:102F00002D913C9111971496FC91149712968D91E6
:102F10009C9113971596EC91AC014E0F511DE7FD56
:102F20005A95B9016F0F711DF7FD7A9560587109B7
:102F300061307F4128F0F195A981BA811496FC9304
:102F40004058510941305F4028F0E195A981BA818C
:102F50001596EC93E981FA814481240F311D47FDD8
:102F60003A95318320834581840F911D47FD9A95C1
:102F7000938382834091980150919901421B530B96
:102F800057FF03C05195419551094F3F510511F02D
:102F90000CF040C02091960130919701281B390B0D
:102FA00037FF03C03195219531092F3F310509F0D5
:102FB0008CF5809162019091630101969093630179
:102FC0008093620162E08EED9AE00E947A0C898122
:102FD0009A810E94D20F80916201909163016AE010
:102FE00070E00E946B1FFC01EC52F54FE4918E2FB4
:102FF000602F0E945F1F80935E018E2F612F0E94C1
:103000005F1F292F0E945F1F90935D0120935C0139
:10301000F0925F0129813A812A5F3F4F3A832983E9
:103020002459314009F06ACF80916001909161018B
:10303000892BC9F461E08EEB9AE00E947A0C13C0F0
:10304000809194018F5F80939401803108F44ECF7A
:1030500063E088EB9AE00E947A0C46CF253C3F4F14
:103060003CF410929A0180919A01882309F4AFC030
:1030700080E06CE172E0B82FB111BFEFFB010024DA
:10308000B193B193B193B1930394D1F7409195016A
:1030900078E0479FA00111244059554F6091960157
:1030A0007091970180919401883008F4F8C080E411
:1030B00090E0681B790B77FF02C0615C7F4F86E070
:1030C000759567958A95E1F764507109809198012B
:1030D0009091990197FDCF9606E0959587950A9571
:1030E000E1F7EE24E39408E028E004970E94480604
:1030F00084E691E09A838983A981BA8112966D91C1
:103100007C9177FF02C0615C7F4F16E075956795F3
:103110001A95E1F762507109E981FA818081918104
:1031200097FDCF96B6E095958795BA95E1F7EE2491
:10313000E39404E024E04CE65AE002970E9448063B
:1031400029813A812A5F3F4F3A83298324593140AC
:1031500099F640906001509061015DE445165EE093
:1031600055060CF49FC00CE01AE020E140E368E053
:1031700070E088E290E00E94180E80915F01B091AB
:103180005C018B9FE02D1124E983F0915D018F9FFD
:10319000202D11242B8390915E01899F802D112475
:1031A0006FEF70E0681B71098AE00E94A3096FEF5E
:1031B00070E03B81631B71098BE00E94A3096FEFF4
:1031C00070E04981641B710989E00E94A309809124
:1031D0001C028EBDEDE1F2E081910DB407FEFDCF42
:1031E0008EBD6CE176E06E177F07B1F70DB407FE78
:1031F000FDCF70CD0E94A21B6C01990FEE08FF0855
:103200000E94460AC616D706E806F90631F06C2574
:103210007D258E259F250E944D1C8091240690E0DF
:1032200080959095209125062C7030E08223932381
:10323000892B09F418CF81E080939A0160E070E156
:10324000709399016093980180E098E090939701C2
:103250008093960184E08093950110929401A4E6F6
:10326000B1E0BA83A98389819A810E94D20FE98152
:10327000FA813696FA83E983E459F140A1F7109276
:1032800063011092620148E85EE05093610140934F
:10329000600110925F0160E08CEE9AE0CECE90E08B
:1032A00080E007CF61E146166EE056064CF00CEC6C
:1032B00019E020E140E268E070E080E390E05BCF5D
:1032C000609162017091630190E080E00E94590E6C
:1032D00000EC19E028E04CE070E060E00E94180E7D
:1032E00060E01414150444F480E19EE0841995090B
:1032F0006CE370E00E946B1F70E090E080E00E9441
:10330000701D2BED3FE049E450E40E943B1E20E09D
:1033100030E040EF51E40E94C61C6B017C010E942A
:10332000A81E20E030E040E151E40E943B1E0E94D4
:10333000381D6D837E838F839887C701B6010E94F5
:10334000C11C905820E030E040E151E40E943B1E57
:103350000E94381D6B0100E023E14DE250E066E77A
:1033600070E088E092E00E94E90D66246394712C7D
:10337000312C212C89E090E09A878987FEEE8F2EF0
:1033800099249A94A8EFAA2EBB24BA94EFEF2E1A90
:103390003E0AF2E06F0E711CA60CB71C1985110FC6
:1033A0001F5FB1016A587F4F00E0212F46E350E0D4
:1033B00089859A85481B590B5A83498388E092E096
:1033C0000E94E90DA6E3B0E0A219B309BC83AB8368
:1033D000262DAD0169857A856A587F4F88E092E095
:1033E0000E94E90D66E770E062197309212F498197
:1033F0005A8188E092E00E94E90D262D4B815C8184
:1034000066E770E0E985FA856E1B7F0B88E092E045
:103410000E94E90D29853A85221633060CF41DC158
:1034200021E04FE350E066E770E088E092E00E9420
:10343000AC0C21E04DE250E066E770E088E092E0FD
:103440000E94AC0C21E046E350E06FE770E088E0BA
:1034500092E00E94AC0C21E046E350E06DE670E0A3
:1034600088E092E00E94AC0C41E050E05C834B832A
:10347000312C212C69E0862E912C6EEE7FEF7A8321
:10348000698378EF672E77247A949FEF291A390A97
:10349000AB81BC811296BC83AB836A0E7B1E51014B
:1034A000B6E7AB0EB11C21E0F401F696FA87E98786
:1034B000AF01B50188E092E00E94AC0C06E710E095
:1034C0000219130921E049855A85B80188E092E084
:1034D0000E94AC0C21E046E350E0481959095A8794
:1034E0004987B50188E092E00E94AC0C21E0498553
:1034F0005A85B80188E092E00E94AC0CB1016A5C88
:103500007F4F7A87698721E0AB0184010A581F4FFA
:10351000B80188E092E00E94AC0C21E049855A8510
:1035200086E790E0881999099A878987BC0188E025
:1035300092E00E94AC0C56E3A52EB12CA218B30861
:1035400021E0A501B80188E092E00E94AC0C21E0E6
:10355000A50169857A8588E092E00E94AC0C281468
:1035600039040CF487C0D601D696BC83AB830D8199
:103570001E810A581F4F4601D7FE04C08824992493
:103580008C189D082D803E8037FE03C03194219415
:10359000310886E790E036E3632E712C2814390455
:1035A0005CF09B818C811C830B83092F182F86E391
:1035B00090E046E7642E712CEB81FC81E615F7055F
:1035C0005CF0302F212F8C01832F922F3B812C8197
:1035D0007C826B82632E722E63012B813C81C21A26
:1035E000D30A5C01A01AB10AB7FE03C0B194A1943A
:1035F000B1087601D7FE03C03FEFE31AF30AF59452
:10360000E794081719070CF042C081E0482F880F93
:10361000550B5A8349836B817C8166167706CCF102
:1036200021E0AB01B801281439041CF0A8016B811A
:103630007C8188E092E00E94AC0CEA18FB08F7FE5F
:1036400006C089819A81080F191FEC0CFD1CAB8103
:10365000BC811196BC83AB83DECFB7FC97CEA98526
:10366000BA851197BA87A987B2E08B0E911CA80C76
:10367000B91C8CCE77FC09CF71E0871A910889813B
:103680009A8102969A838983680E791EFECE8FEF07
:10369000BDCF141415040CF470CD00E419E020E142
:1036A00040E460E370E080E290E065CD8F929F920D
:1036B000AF92BF92CF92DF92EF92FF92CF93DF93C0
:1036C000EC01688179818A819B8161157105810591
:1036D000910521F464E279ED8BE597E02DE133EF7C
:1036E00041E050E00E945E1C49015A019B01AC017F
:1036F000A7EAB1E40E947D1C6B017C01ACEEB4EF43
:10370000A50194010E948B1CDC01CB018C0D9D1D39
:10371000AE1DBF1DB7FF03C00197A109B048888344
:103720009983AA83BB839F77DF91CF91FF90EF901E
:10373000DF90CF90BF90AF909F908F9008950E94A0
:10374000561B08958CE091E00E94561B0895B0E04E
:10375000A0E080930C0190930D01A0930E01B09313
:103760000F0108958F929F92AF92BF92CF92DF92F6
:10377000EF92FF92CF93DF93EC01688179818A8188
:103780009B81611571058105910521F464E279ED54
:103790008BE597E02DE133EF41E050E00E945E1CA5
:1037A00049015A019B01AC01A7EAB1E40E947D1CCA
:1037B0006B017C01ACEEB4EFA50194010E948B1C5F
:1037C000C60ED71EE81EF91EF7FE06C081E0C81A15
:1037D000D108E10880E8F80AC882D982EA82FB822F
:1037E000C701B6019F77DF91CF91FF90EF90DF90F7
:1037F000CF90BF90AF909F908F9008958F929F929F
:10380000AF92BF92CF92DF92EF92FF926091100140
:103810007091110180911201909113016115710550
:103820008105910521F464E279ED8BE597E02DE1C6
:1038300033EF41E050E00E945E1C49015A019B01B8
:10384000AC01A7EAB1E40E947D1C6B017C01ACEEE7
:10385000B4EFA50194010E948B1CC60ED71EE81E72
:10386000F91EF7FE06C081E0C81AD108E10880E819
:10387000F80AC0921001D0921101E0921201F09268
:103880001301C701B6019F77FF90EF90DF90CF90B3
:10389000BF90AF909F908F900895609310017093A8
:1038A000110180931201909313010895F999FECFAD
:1038B00092BD81BDF89A992780B50895052E97FB92
:1038C0001EF400940E94751C57FD07D00E94901CA6
:1038D00007FC03D04EF40C94751C50954095309520
:1038E00021953F4F4F4F5F4F08959095809570956C
:1038F00061957F4F8F4F9F4F08950E94B21CA59FE7
:10390000900DB49F900DA49F800D911D11240895DA
:10391000B7FF0C947D1C0E947D1C821B930B0895A5
:10392000A1E21A2EAA1BBB1BFD010DC0AA1FBB1FC3
:10393000EE1FFF1FA217B307E407F50720F0A21B35
:10394000B30BE40BF50B661F771F881F991F1A94A2
:1039500069F760957095809590959B01AC01BD01CC
:10396000CF010895A29FB001B39FC001A39F700D26
:10397000811D1124911DB29F700D811D1124911D77
:1039800008950E94C41DE3950C94FE1D0E94DA1C4C
:103990000C94ED1D0E94BB1D58F00E94B41D40F018
:1039A00029F45F3F29F00C94AB1D51110C94351E86
:1039B0000C94B11D0E94121E68F39923B1F3552394
:1039C00091F3951B550BBB27AA2762177307840732
:1039D00038F09F5F5F4F220F331F441FAA1FA9F3C8
:1039E00035D00E2E3AF0E0E832D091505040E695B6
:1039F000001CCAF72BD0FE2F29D0660F771F881F17
:103A0000BB1F261737074807AB07B0E809F0BB0B09
:103A1000802DBF01FF2793585F4F3AF09E3F51051D
:103A200078F00C94AB1D0C94351E5F3FE4F3983E88
:103A3000D4F3869577956795B795F7959F5FC9F706
:103A4000880F911D9695879597F90895E1E0660F87
:103A5000771F881FBB1F621773078407BA0720F000
:103A6000621B730B840BBA0BEE1F88F7E095089569
:103A70000E943F1D6894B1110C94351E08950E9458
:103A80001A1E88F09F5798F0B92F9927B751B0F0B8
:103A9000E1F0660F771F881F991F1AF0BA95C9F7D2
:103AA00014C0B13091F00E94341EB1E008950C941E
:103AB000341E672F782F8827B85F39F0B93FCCF3D1
:103AC000869577956795B395D9F73EF4909580954F
:103AD000709561957F4F8F4F9F4F0895E89409C06F
:103AE00097FB3EF490958095709561957F4F8F4F31
:103AF0009F4F9923A9F0F92F96E9BB279395F69547
:103B0000879577956795B795F111F8CFFAF4BB0FC4
:103B100011F460FF1BC06F5F7F4F8F4F9F4F16C028
:103B2000882311F096E911C0772321F09EE8872FB2
:103B3000762F05C0662371F096E8862F70E060E06E
:103B40002AF09A95660F771F881FDAF7880F9695E7
:103B5000879597F9089597F99F6780E870E060E08E
:103B600008959FEF80EC089500240A941616170616
:103B700018060906089500240A941216130614065E
:103B8000050608950C94B11D0E941A1ED8F3E894FE
:103B9000E0E0BB279F57F0F02AED3FE049EC06C07C
:103BA000EE0FBB0F661F771F881F28F0B23A62071F
:103BB0007307840728F0B25A620B730B840BE395EA
:103BC0009A9572F7803830F49A95BB0F661F771F6D
:103BD000881FD2F790480C94181F092E0394000CEC
:103BE00011F4882352F0BB0F40F4BF2B11F460FF97
:103BF00004C06F5F7F4F8F4F9F4F0895EF93E0FF9B
:103C000007C0A2EA2AED3FE049EC5FEB0E94C11E2B
:103C10000E94ED1D0F90039401FC9058ECEAF0E037
:103C20000C94241F57FD9058440F551F59F05F3FC7
:103C300071F04795880F97FB991F61F09F3F79F0CE
:103C400087950895121613061406551FF2CF469550
:103C5000F1DF08C0161617061806991FF1CF8695D2
:103C60007105610508940895E894BB2766277727B6
:103C7000CB0197F908950E944E1E0C94ED1D0E94F1
:103C8000B41D38F00E94BB1D20F0952311F00C9458
:103C9000AB1D0C94B11D11240C94351E0E94121EF4
:103CA00070F3959FC1F3950F50E0551F629FF0018F
:103CB000729FBB27F00DB11D639FAA27F00DB11DA8
:103CC000AA1F649F6627B00DA11D661F829F222731
:103CD000B00DA11D621F739FB00DA11D621F839FB8
:103CE000A00D611D221F749F3327A00D611D231F8E
:103CF000849F600D211D822F762F6A2F11249F57DC
:103D000050409AF0F1F088234AF0EE0FFF1FBB1FDE
:103D1000661F771F881F91505040A9F79E3F51059D
:103D200080F00C94AB1D0C94351E5F3FE4F3983E7D
:103D3000D4F3869577956795B795F795E7959F5F47
:103D4000C1F7FE2B880F911D9695879597F90895D9
:103D50009F930E94C41D0F9007FCEE5F0C94FE1D04
:103D60000E94B41D38F00E94BB1D20F039F49F3F23
:103D700019F426F40C94B11D0EF4E095E7FB0C94B5
:103D8000AB1DE92F0E94121E58F3BA176207730782
:103D90008407950720F079F4A6F50C94341E0EF4F0
:103DA000E0950B2EBA2FA02D0B01B90190010C014B
:103DB000CA01A0011124FF27591B99F0593F50F463
:103DC000503E68F11A16F040A22F232F342F4427BB
:103DD000585FF3CF469537952795A795F0405395B3
:103DE000C9F77EF41F16BA0B620B730B840BBAF083
:103DF0009150A1F0FF0FBB1F661F771F881FC2F7EE
:103E00000EC0BA0F621F731F841F48F48795779501
:103E10006795B795F7959E3F08F0B0CF9395880FBB
:103E200008F09927EE0F9795879508959F3F31F0F9
:103E3000915020F4879577956795B795880F911DD8
:103E40009695879597F908959F938F937F936F9396
:103E5000FF93EF939B01AC010E943B1EEF91FF91FA
:103E60000E94381F2F913F914F915F910C943B1E00
:103E7000DF93CF931F930F93FF92EF92DF927B011B
:103E80008C01689406C0DA2EEF010E944E1EFE01DE
:103E9000E894A5912591359145915591A6F3EF01AF
:103EA0000E94C11EFE019701A801DA9469F7DF9014
:103EB000EF90FF900F911F91CF91DF910895991B83
:103EC00079E004C0991F961708F0961B881F7A9511
:103ED000C9F78095089597FB072E16F4009407D034
:103EE00077FD09D00E94851F07FC05D03EF4909510
:103EF00081959F4F0895709561957F4F0895EE0FBE
:103F0000FF1F0590F491E02D0994AA1BBB1B51E102
:103F100007C0AA1FBB1FA617B70710F0A61BB70B39
:103F2000881F991F5A95A9F780959095BC01CD01DE
:103F3000089581E090E0F8940C949E1FF894FFCFD0
:103F4000FFFFFFFF00E10000000000000100000093
:103F50000100000000C1808100000000000000831B
:103F6000079D0AA4079907EA07A807C607000000EB
:0A3F7000008E0EC908CD0FCC0F0023
:00000001FF
