:100000000C94ED050C9415060C9415060C9415062D
:100010000C9415060C9415060C9415060C941506F4
:100020000C9415060C9415060C94930F0C94021066
:100030000C9415060C9415060C9415060C941506D4
:100040000C9415060C94F6120C9415060C941506D7
:100050000C9415060C9415060C9415060C94341289
:100060000C9415060C9415060C9415060C941506A4
:100070000C9415060C9415060C9415060C94150694
:100080000C947E120C9415060C9415060C9415060F
:100090000C9415060C9415060C9415060C94150674
:1000A0000C9415060C9415060C94150605A84CCD59
:1000B000B2D44EB93836A9020C50B9918688083CA2
:1000C000A6AAAA2ABE000000803F0000000000701F
:1000D0000100C0000C00CAA77C0A42F55508534233
:1000E00048195EF551120030000000274500409489
:1000F0001C0014F3190504F111042004000004414C
:10010000100400040000104208015E14450F40F086
:1001100001005955551351555D0D8C927C0857556A
:10012000550D5E55550D51520C015E55550F5655E6
:10013000550F00A0000000A4000000C2280080A20B
:1001400028008062080040500D0000E318009C92D7
:10015000241F5F555D0D9C1445115F1425075F55E5
:1001600055115F5114015E54551D1F41101F40F47D
:100170004500100421071F41181D1F0441105EF0A7
:10018000041F9C10041F5E54450F5F9214035ED43D
:10019000451F5F92341B5655550D41F005011F0454
:1001A00021071F4208011FE4410F1743181D07C113
:1001B000090151564D1100F0450000F0010040F4D6
:1001C000010080100C0010044110050115012501EB
:1001D000370149015D01720188019F01B801D20117
:1001E000EE010B022A024B026E029302BA02E402F3
:1001F00010033E037003A403DC03160454049604A6
:10020000DC0426057505C80520067D06E0064807BE
:10021000B7072D08A9082D09B9094D0AEA0A900B5C
:10022000400CFA0CC00D910E6F0F5A1053115A1258
:1002300072139A14D31520178018F519801B221DEC
:10024000DE1EB420A622B524E4263429A72B402E96
:100250000031080809090A0B0B0C0D0E0E0F1011C6
:100260001213141617181A1B1D1F20222427292BBE
:100270002E3134373A3D4145494E52575C62686EE3
:10028000747B838A939BA5AEB9C4CFDCE9F70001E8
:1002900002030406080C00F4F8FAFCFDFEFF00005F
:1002A0000000003E5B4F5B3E3E6B4F6B3E1C3E7C56
:1002B0003E1C183C7E3C181C577D571C1C5E7F5E04
:1002C0001C00183C1800FFE7C3E7FF0018241800C3
:1002D000FFE7DBE7FF30483A060E2629792926405A
:1002E0007F050507407F05253F5A3CE73C5A7F3E86
:1002F0001C1C08081C1C3E7F14227F22145F5F0018
:100300005F5F06097F017F006689956A60606060B3
:100310006094A2FFA29408047E040810207E20109E
:1003200008082A1C08081C2A08081E101010100CA7
:100330001E0C1E0C30383E3830060E3E0E060000F5
:1003400000000000005F00000007000700147F1499
:100350007F14242A7F2A1223130864623649562008
:10036000500008070300001C2241000041221C002D
:100370002A1C7F1C2A08083E0808008070300008EC
:1003800008080808000060600020100804023E51C0
:1003900049453E00427F4000724949494621414952
:1003A0004D331814127F1027454545393C4A4949B9
:1003B0003141211109073649494936464949291E23
:1003C0000000140000004034000000081422411412
:1003D00014141414004122140802015909063E4164
:1003E0005D594E7C1211127C7F494949363E41418C
:1003F00041227F4141413E7F494949417F090909E5
:10040000013E414151737F0808087F00417F410050
:100410002040413F017F081422417F404040407FFF
:10042000021C027F7F0408107F3E4141413E7F094C
:100430000909063E4151215E7F091929462649498D
:10044000493203017F01033F4040403F1F204020CD
:100450001F3F4038403F63140814630304780403CB
:100460006159494D43007F41414102040810200079
:100470004141417F040201020440404040400003EA
:1004800007080020545478407F28444438384444B6
:100490004428384444287F385454541800087E09AE
:1004A0000218A4A49C787F0804047800447D4000CE
:1004B0002040403D007F1028440000417F40007CE8
:1004C000047804787C080404783844444438FC18E0
:1004D00024241818242418FC7C08040408485454C4
:1004E000542404043F44243C4040207C1C204020F1
:1004F0001C3C4030403C44281028444C9090907C58
:100500004464544C44000836410000007700000069
:100510004136080002010204023C2623263C1EA1AB
:10052000A161123A4040207A38545455592155550A
:1005300079412154547841215554784020545579BB
:10054000400C1E527212395555555939545454594C
:1005500039555454580000457C410002457D420005
:1005600001457C40F0292429F0F0282528F07C540E
:100570005545002054547C547C0A097F493249492E
:1005800049323248484832324A4848303A4141219B
:100590007A3A42402078009DA0A07D3944444439F5
:1005A0003D4040403D3C24FF2424487E4943662B87
:1005B0002FFC2F2BFF0929F620C0887E0903205429
:1005C0005479410000447D413048484A3238404027
:1005D000227A007A0A0A727D0D19317D2629292F87
:1005E00028262929292630484D402038080808089F
:1005F00008080808382F10C8ACBA2F102834FA00A1
:10060000007B000008142A142222142A14089500E2
:10061000220095AA005500AAAA55AA55AA000000D2
:10062000FF00101010FF00141414FF001010FF0042
:10063000FF1010F010F0141414FC001414F700FF55
:100640000000FF00FF1414F404FC141417101F1012
:10065000101F101F1414141F00101010F0000000C1
:10066000001F101010101F10101010F010000000CC
:10067000FF101010101010101010FF10000000FFDD
:10068000140000FF00FF00001F10170000FC04F41E
:1006900014141710171414F404F40000FF00F714D6
:1006A000141414141414F700F7141414171410105D
:1006B0001F101F141414F4141010F010F000001F79
:1006C000101F0000001F14000000FC140000F010B8
:1006D000F01010FF10FF141414FF141010101F005E
:1006E000000000F010FFFFFFFFFFF0F0F0F0F0FF60
:1006F000FFFF0000000000FFFF0F0F0F0F0F384437
:100700004438447C2A2A3E147E02020606027E02F7
:100710007E0263554941633844443C04407E201EB8
:100720002006027E020299A5E7A5991C2A492A1CE7
:100730004C7201724C304A4D4D303048784830BCD4
:10074000625A463D3E494949007E0101017E2A2AFE
:100750002A2A2A44445F444440514A444040444A7F
:1007600051400000FF0103E080FF000008086B6BB0
:10077000083612362436060F090F06000018180036
:1007800000001010003040FF0101001F01011E0099
:10079000191D1712003C3C3C3C0000000000D5F045
:1007A0008D1410A1C881CFD9F1AF20000000000046
:1007B000240027002A002D00300000000000250042
:1007C00028002B002E003100040802011040804058
:1007D0001020408040800802040180402010020167
:1007E0001080102040402004040404040304050287
:1007F00002020204030202020206060606060604BC
:100800000402020204045259534B20302E313000AE
:1008100000F8FC000000989898F8F8DAC40D0B0670
:10082000006060E0F0FC3C3030A080808000000080
:1008300000000080E0F03C0C000000000000000020
:1008400000001090F0F89E9E9818888080000000AC
:1008500000606060FEFC3030300008183830000066
:1008600000000000FCFC0000000000000000000090
:100870000030303030301098D87838181808000020
:1008800040C060F8FC6480C060303030F0C00000D0
:10089000007F7F3800307949497F3F303060000069
:1008A00000607C1F0700003331616161614100001D
:1008B00000703E1F0F061F7F70606070381C0000C4
:1008C00000000021797C666F6F63616101000000A8
:1008D00000387C4CFF7F0203434363637E3C00008F
:1008E0000000000E3F7F6060606070380C00000008
:1008F0000000000000000F3F386060400000000072
:1009000010381EFFFF010130786868783F3F6000B3
:1009100000606060FEFC30303000081838300000A5
:1009200000000000FCFC00000000000000000000CF
:1009300000001030B0B0B0FEFE9098100000000033
:1009400000F0F00000000000000030E0C080000077
:1009500000387C4CFF7F0203434363637E3C00000E
:100960000000000E3F7F6060606070380C00000087
:100970000000307959D9597F3F3131614000000082
:1009800000030F3C703C0C00000000000307000057
:10099000080868980800C07028C080000000001C8B
:1009A0007CF080C0E06070300C1A0604000000800B
:1009B000E0F03C0C00000000000000000000003EE1
:1009C0007F636160606060600000000000703E1F37
:1009D0000F061F7F70606070381C00000000000070
:1009E000000000FEFC60603020000000008080807D
:1009F00080808080808080808080000000F0F00017
:100A000000000000000030E0C08000000030786886
:100A10004C6C687F1F18303060000000000101013D
:100A200001010101010101010101000000030F3C6E
:100A3000703C0C0000000000030700000C12212194
:100A4000120CFEF2DEDEF2FEFEFEFEFEF2DEDEF254
:100A5000FEFEFEFEFEF2DEDEF2FEFEE2BEBEE2FEC6
:100A6000FEFEFEFEE2BEBEE2FEFEFEFEFEE2BEBEFA
:100A7000E2FEFEC6BEBEC6FEFEFEFEFEC6BEBEC692
:100A8000FEFEFEFEFEC6BEBEC6FE903C000A80F024
:100A9000D09C3700C89C3500C8E19C3201F480F03E
:100AA0003E64045A0F6B3735461290500014905430
:100AB00000289058002880F0DF9044007DE2D1901B
:100AC00040007DE2DB94600014E380F0080B00023C
:100AD00002020000090400000102020000052400D7
:100AE0001001052401010104240206052406000169
:100AF0000705810310004009040100020A000000FC
:100B000007050202400000070583024000000403BD
:100B1000090412010002EF02014041233680000166
:100B20000102030141726475696E6F204C4C4300F1
:100B300041726475626F790078FCFE86FEFC780075
:100B400000000101010000008C8CFEFEFE8680008A
:100B500001010101010101000C86E6FEBEDCC000BE
:100B600001010101010301000426363EFEF4E0000C
:100B70000103030303010000E0F0D8FCFEFEC00007
:100B80000000000303030000383E3676F6E6E60078
:100B9000030303030301000078FEFF9FF8F87000D1
:100BA00000000101010000000E0E06C6F67E0600E0
:100BB0000000070703000000EEFF3F7DF9FFE6009D
:100BC00000010101010100003C7E7EE6FEFC7C008C
:100BD0000002070703010000E31311241FBECFEF3B
:100BE000DAE0DEBFCDBF11E0A0E0B1E0E2EBFDE373
:100BF00002C005900D92A234B107D9F726E0A2E415
:100C0000B1E001C01D92AC32B207E1F715E0CDEEC4
:100C1000D5E004C02197FE010E94CC1ECC3ED10736
:100C2000C9F70E9414140C94D71E0C940000E3EC36
:100C3000F1E080E0A0E0B8E000800EBC8111012C62
:100C40001197A0FDFDCF0192B9F70DB40895FC01F5
:100C50008091B601882311F13FB7F89482E0809328
:100C6000E9002091F200822F90E01816190614F482
:100C700081E090E0882339F0289844E64093B5015C
:100C80004091F1004083222339F02091F20021119C
:100C900003C02BE62093E8003FBF08958FEF9FEF3E
:100CA00008952FB7F89483E08093E9009091E800CD
:100CB000892F807295FF04C09091F20080E4891B17
:100CC0002FBF08958091AD0181110DC082E0809306
:100CD000A90184E08093AA011092AC011092AB01AB
:100CE00081E08093AD0189EA91E00895CF93DF938D
:100CF0001F92CDB7DEB76983DC01ED91FC910280D4
:100D0000F381E02D41E050E0BE016F5F7F4F099518
:100D10000F90DF91CF91089583E08093E900809157
:100D2000F200882319F08AE38093E80008950E9476
:100D3000510690E00895CF93DF931F92CDB7DEB7B1
:100D4000FC018485958597FD08C02FEF3FEF35871F
:100D500024870F90DF91CF910895CE0101960E94D4
:100D60002706019719F4898190E0F3CF8FEF9FEF69
:100D7000F0CF0F931F93CF93DF931F92CDB7DEB7C2
:100D80008C01FC018485958597FF0BC0CE010196EF
:100D90000E942706019771F4898190E0F8019587F8
:100DA0008487F801848595850F90DF91CF911F91FD
:100DB0000F9108958FEF9FEFF1CFFC01848595850A
:100DC00097FD0BC09FB7F89482E08093E900809173
:100DD000F2009FBF90E0019608959FB7F89482E0DB
:100DE0008093E9008091F2009FBF90E008954091C8
:100DF000A3015091A4012091A1013091A2014217B9
:100E00005307B4F49091E8009570E1F39091E800F5
:100E100092FD19C08093F1008091A3019091A401EB
:100E200001968F739927892B19F48EEF8093E80030
:100E30008091A3019091A40101969093A4018093C5
:100E4000A30181E0089580E00895EF92FF920F934F
:100E50001F93CF93DF93F82E192FE62E042F81E0F6
:100E6000860F880F0E94F70683E00E94F706CF2DB9
:100E7000D12FEC0EFD2EF11CCE15DF05B9F007FFCA
:100E800013C0FE0184910E94F706182F80E00E9493
:100E9000F706812321968111EFCFDF91CF911F912A
:100EA0000F91FF90EF9008958881EDCF81E0F5CF0D
:100EB000DF92EF92FF920F931F93CF93DF93D82E81
:100EC0008A01EB017B01E40EF51ECE15DF0559F01A
:100ED000D7FE12C0FE0184910E94F706219681116F
:100EE000F4CF0FEF1FEFC801DF91CF911F910F914A
:100EF000FF90EF90DF9008958881EECF0F931F93BE
:100F0000CF93DF931F92CDB7DEB782E0898342E4AF
:100F100050E06CEC7AE080E80E9458070E9462067C
:100F2000DC0112960D911C910115110589F0D80173
:100F3000ED91FC910280F381E02DBE016F5F7F4F48
:100F4000C801099597FD04C0F80100851185ECCF13
:100F500089810F90DF91CF911F910F91089561507A
:100F600030F02091F100FC0120830196F8CF289801
:100F700084E68093B5010895809155010895AF925C
:100F8000BF92CF92DF92EF92FF920F931F93CF9376
:100F9000DF936C017B018B01040F151FEB015E01D8
:100FA000AE18BF08C017D10759F06991D601ED916D
:100FB000FC910190F081E02DC6010995892B79F70C
:100FC000C501DF91CF911F910F91FF90EF90DF90BE
:100FD000CF90BF90AF9008953FB7F89480915101A2
:100FE00090915201A0915301B091540126B5A89B54
:100FF00005C02F3F19F00196A11DB11D3FBFBA2FAB
:10100000A92F982F8827BC01CD01620F711D811D6A
:10101000911D42E0660F771F881F991F4A95D1F7EF
:1010200008958F929F92AF92BF92CF92DF92EF92EC
:10103000FF926B017C010E94EC074B015C01C11423
:10104000D104E104F104B9F00E94EC0768197909B0
:101050008A099B09683E73408105910580F321E070
:10106000C21AD108E108F10888EE880E83E0981EC4
:10107000A11CB11CE4CFFF90EF90DF90CF90BF9008
:10108000AF909F908F9008958F929F92AF92BF9252
:10109000CF92DF92EF92FF920F931F93CF93DF9344
:1010A0006C017B018A0180910B01882309F45CC0EB
:1010B0008091B601882309F457C08091A80180FF70
:1010C00005C08091E00082608093E000E801B12CCF
:1010D0008AEFA82E93E0892E2AE3922E209711F40E
:1010E000BB20D9F10E94510681110AC0AA94AA20FE
:1010F000D9F161E070E080E090E00E941108EECF4D
:101100008C171D0611F00CF08C2F9FB7F89480926D
:10111000E9002091E80025FD02C09FBFDFCF282F06
:1011200030E0C21BD30BF701815020F04191409376
:10113000F100FACFE20EF31EBB2021F09092E800FE
:10114000B12CEBCF8091E80085FDE7CF9092E800CD
:10115000BB24B394209709F3F3CF5D9884E6809382
:10116000A701101611063CF081E090E0F601938390
:10117000828310E000E0C801DF91CF911F910F91B1
:10118000FF90EF90DF90CF90BF90AF909F908F90A7
:101190000895BC0190E080E00C9411088FB1809517
:1011A000807F669B88601C9B846008953E9A3F9A6E
:1011B00081E08093550108955F926F927F928F92A4
:1011C0009F92AF92BF92CF92DF92EF92FF920F93D6
:1011D0001F93CF93DF9330E0F901E80FF91FF7FD7C
:1011E000BFC0803891050CF0BBC0FB01E00FF11DC2
:1011F000F7FDB6C0603471050CF0B2C0DB0177FFBB
:1012000004C0AA27BB27A61BB70BA770BB27FB01EF
:1012100077FD3796C3E0F595E795CA95E1F777FF37
:1012200007C0319768E070E0EB01CA1BDB0BDE0101
:10123000602E669466946694712C077019F0DFEF47
:101240006D1A7D0ABF01EF01D695DC2FCC27D7950B
:10125000C795C80FD91FCD53DE4F8A01660E771E82
:1012600048E050E06A01CA1ADB0A6615770509F4FE
:1012700077C06830710509F473C06F3FEFEF7E07E8
:101280000CF463C050E040E04E01F0E88F0E911C7A
:10129000421753070CF059C0FA01E80FF91FE03864
:1012A000F1050CF052C0F7FD35C06F3F760709F429
:1012B00053C05E01A40EB51EF501F080FA01E00FE7
:1012C000F11F55245394E51028C0E4910A2E01C063
:1012D000EE0F0A94EAF7FE2AF501F0821097D1F09A
:1012E00067307105B9F05401A40EB51EF501F08008
:1012F000FA01E00FF11F55245394E5101AC0E49150
:10130000F0E00C2C02C0F595E7950A94E2F7FE2A6E
:10131000F501F0824F5F5F4FBBCFE491F0E00A2E02
:1013200002C0EE0FFF1F0A94E2F7E095F095FE224F
:10133000D3CFE491F0E00C2C02C0F595E7950A9428
:10134000E2F7E095F095FE22E3CF6F5F7F4FC05844
:10135000DF4F020F131F89CF109709F0C4CFDACFE8
:10136000DF91CF911F910F91FF90EF90DF90CF9081
:10137000BF90AF909F908F907F906F905F900895F7
:1013800080389105B8F460347105A0F420E191E053
:1013900061FD94E060FD990F62FD9295687F269F44
:1013A000D0011124A80FAD53BE4F8C9140FF03C054
:1013B000892B8C93089590958923FBCFEF92FF9210
:1013C0000F931F93CF93DF937C018B01040F111DAB
:1013D000EB0177FF02C0D0E0C0E0C8010134110585
:1013E00014F080E490E0C817D9073CF440E0BE0157
:1013F000C7010E94C0092196F0CFDF91CF911F91C4
:101400000F91FF90EF9008952F923F924F925F922D
:101410006F927F928F929F92AF92BF92CF92DF9204
:10142000EF92FF920F931F93CF93DF93CDB7DEB769
:101430002A970FB6F894DEBF0FBECDBF9A8389837B
:101440006A3061F5DC0155968C91B8E08B9F900174
:101450001124E981FA8181899289820F931F928BED
:10146000818B108A178681E090E02A960FB6F89457
:10147000DEBF0FBECDBFDF91CF911F910F91FF90C7
:10148000EF90DF90CF90BF90AF909F908F907F9024
:101490006F905F904F903F902F9008956D3019F3AB
:1014A00029813A813A872987D9011F96AD90BC904E
:1014B000B0E8AB16B1040CF07BC0F901C188D2884A
:1014C000F0E4CF16D1040CF073C0D90155966C909E
:1014D000559745E09501649E200D311D112412168B
:1014E00013060CF065C0262C312C910153E0220F1D
:1014F000331F5A95E1F72C0D3D1D121613060CF003
:1015000057C05496BC91BB83E985FA85F389FC8367
:10151000649FB00111249B0122563D4F3A832983D9
:10152000712CE981FA818491F5E07F1201C080E09D
:10153000460138E0532E282F30E03E832D834C8027
:1015400080FF4B80411004C03B818C813817E1F053
:1015500010E000E00615C0F4D501A00FB11FB88758
:10156000AF83F12CE12CE61460F4B701680D791D0E
:10157000442D8F8198850E94C009BFEFEB1AFB0AAA
:10158000F2CF0F5F1F4FE6CF8D819E819595879596
:101590005A94820C931C5110CECF7394E981FA8136
:1015A0003196FA83E983A20CB31CF6E07F12B9CF1F
:1015B000A985BA8555962C915597422F50E01F96D4
:1015C0008D919C91B6E02B9F800D911D1124E98592
:1015D000FA85908B87872689222309F444CF6AEF06
:1015E00064039001659F300D112420583F4F281748
:1015F00039070CF038CFDF010190F081E02D019028
:10160000F081E02D6AE0CD0109952DCF08959F92DC
:10161000AF92BF92CF92DF92EF92FF920F931F9300
:10162000CF93DF93EC016B01F42E580161507109E7
:10163000E12C022F242FA5010E94DC082F2DA501EB
:10164000B601CE0101970E94DC082F2DA501B6013D
:10165000CE0101960E94DC08B6016F5F7F4F2F2DEF
:10166000A501CE010E94DC08EE24E3942F2DA501F4
:10167000B601CE010E94DC08DF91CF911F910F913E
:10168000FF90EF90DF90CF90BF90AF909F90089524
:10169000EF92FF920F931F93CF93DF937C018B0107
:1016A000D0E0C0E06A3071054CF0CB016AE070E038
:1016B0000E94A41EC7010E94480BEC01C8016AE009
:1016C00070E00E94A41E8C0184E0000F111F8A9517
:1016D000E1F7085C144F2CE048E070E060E0C701DF
:1016E0008C0F9D1F0E94070BCE010896DF91CF91B2
:1016F0001F910F91FF90EF90089581112FC01092CC
:101700004F018091BF0181110AC080915901E09180
:101710005A01F0915B01908180958923808382E05A
:101720008093490188EE93E09093430180934201B6
:1017300080919100887F8160809391008FE79EE384
:1017400090939900809398001092950010929400C5
:101750008091710082608093710008958091C00132
:101760008111FBCF80916F008D7F80936F008091FE
:101770005601E0915701F09158019081809589239D
:10178000808308952F923F924F925F926F927F9243
:101790008F929F92AF92BF92CF92DF92EF92FF9281
:1017A0000F931F93CF93DF9322242394312CC12CCA
:1017B00024E2D22E24EFE22EF12C30E9832E30EDFC
:1017C000932E33E0A32EB12CE091BA01F091BB012E
:1017D000CF0101969093BB018093BA012491322FDF
:1017E000307FC22FCF70D22FD370303821F48D2F9D
:1017F0000E947D0BE9CF303909F096C0E0915C0181
:10180000F0915D01099521E0822780934E01E091DE
:10181000BA01F091BB01CF0101969093BB01809377
:10182000BA01E4918091B9019091BE01D91760F697
:10183000D13021F49091C0019111C6CF8E0F87FD58
:10184000C3CFE82FF0E08C3308F04FC0EE5AFD4FC5
:10185000849190E0D11150C0E1E0E0934F01D3E0DA
:10186000C695C695CE5FC89F8001C99F100D1124F3
:10187000712C612CC701B601A30198010E94971B2E
:10188000215031094109510991E021153105F1E05B
:101890004F0751055CF0C501B401A30198010E94F6
:1018A000971B215031094109510993E0D13031F1A1
:1018B000D33009F089CFC0934901109343010093BD
:1018C000420180919100887F892B80939100309311
:1018D00099002093980010929500109294008091A6
:1018E00071008260809371006FCFEE0FFF1FEE5A80
:1018F000FE4F85919491AECFD1E0B2CFC093440119
:1019000080918100887F892B8093810030938900AA
:1019100020938800109285001092840080916F00BF
:10192000826080936F0050CF37FD4CC03296F093A9
:10193000BB01E093BA01FC018491A0914201B091F6
:101940004301322F282F0E94EB1B6C507E4F8F4F8C
:101950009F4F28EE33E040E050E00E94C91B2093E7
:101960004A0130934B0140934C0150934D018091BB
:101970004A0190914B01A0914C01B0914D01892BEE
:101980008A2B8B2B61F481E090E0A0E0B0E08093A3
:101990004A0190934B01A0934C01B0934D01DF910C
:1019A000CF911F910F91FF90EF90DF90CF90BF905C
:1019B000AF909F908F907F906F905F904F903F90EF
:1019C0002F900895303DA1F4F093BD01E093BC0148
:1019D0008091B701882309F4F7CEEC2FF0E0E257AD
:1019E000FD4FE491C091B901EC0FE093B901ECCE49
:1019F000303E21F5C11109C08091BC019091BD011B
:101A00009093BB018093BA01DFCE2091B7012F5F85
:101A10002093B701A10102C0440F551FCA95E2F7F8
:101A2000241715064CF39093BD018093BC0180915F
:101A3000B8018093B9011092B701C6CE303F09F0CA
:101A4000C3CE1092C201ABCFEF92FF921F93CF9300
:101A5000DF937C01D62F142F8091C201882351F18E
:101A60008091C101861798F1C0E08091BE01C8172E
:101A700028F48C2F0E947D0BCF5FF7CF1092C2010C
:101A8000D093C101F092BD01E092BC01F092BB0184
:101A9000E092BA011093B9011093B8011092B70106
:101AA00081E08093C201DF91CF911F91FF90EF9071
:101AB0000C94C20B8091C001882311F381E09091B6
:101AC000C101961708F080E08093BF01D9CFDF9164
:101AD000CF911F91FF90EF9008952F923F924F92D8
:101AE0005F926F927F928F929F92AF92BF92CF92AE
:101AF000DF92EF92FF920F931F93CF93DF9300D06B
:101B000000D000D01F92CDB7DEB7FC016A3039F5A6
:101B100025898189928936E0239F800D911D1124AA
:101B2000928B818B108A178681E090E027960FB602
:101B3000F894DEBF0FBECDBFDF91CF911F910F9103
:101B4000FF90EF90DF90CF90BF90AF909F908F90DD
:101B50007F906F905F904F903F902F90089580EE10
:101B6000860F803408F78F01878590899D838C8349
:101B70008038910554F1D80155962C915597422FF4
:101B800050E01F968D919C91B6E02B9F800D911D8A
:101B90001124F801908B87872689222329F26AEF86
:101BA00064039001659F300D112420583F4F281782
:101BB00039070CF0B9CF0190F081E02D0190F08150
:101BC000E02D6AE0C8010995AFCF41885288B0E4A2
:101BD0004B16510484F64589842E912C8C819D816D
:101BE000F5E04F9F800D911D112497FDC4CFC201D8
:101BF00026E0429F800D911D112497FDBCCFD80196
:101C00005496BC9054975396AC90B4E06B9FF001FF
:101C10001124E65BFF4FC590D590E590F4904130DC
:101C200039F5F6E07F2E912C812CC0FC18C04B2D8D
:101C3000BA1016C0F694E794D794C794EFEF8E1AB3
:101C40009E0AF6E08F16910481F77A942C813D81EB
:101C50002F5F3F4F3D832C837110E5CF8CCF4A2DF2
:101C6000B201680D791D8C819D810E94C009E2CF6F
:101C70006C817D817F836E833B01719461947108D7
:101C8000B6E0842F042E000C990B9D838C832E804C
:101C90003F8037FE02C0312C212CEE81FF81542F72
:101CA000F7FF02C05E81540F20E82219C101850FA1
:101CB000911D813891050CF082C0952FF6E0FA83D2
:101CC0001982C0FC7EC0BA1409F485C0BB82842F7F
:101CD0006981640390011124240D351DEE81FF817B
:101CE000F7FF04C0681479040CF075C037FF0EC00C
:101CF00066277727621B730BEC81FD816E177F07C8
:101D00000CF069C0842F820F30E020E0552309F4E5
:101D100062C06E817F81603871050CF05CC018165E
:101D20000CF059C0203431050CF055C0E22FB90138
:101D3000680F711D87FD7A956134710514F080E498
:101D4000821BE770AFEF0E2E01C0AA0F0A94EAF7CC
:101D50008E0F2E1B310937FF02C0295F3F4F63E012
:101D6000359527956A95E1F73695322F22273795D5
:101D70002795220D331D2D533E4F181664F58830DC
:101D800074F468E070E0681B710987FD7395EFEFEC
:101D9000F0E002C0F595E7956A95E2F7AE23FB8186
:101DA000F11111C0A095F901692F70817A23719307
:101DB0006150D9F7885020583F4FAFEFDECF922FB8
:101DC0007DCFAB8284CFF901692F70817A2B71931B
:101DD0006150D9F7EFCFF694E794D794C79429814F
:101DE0002F5F29833A8131503A8331116ACFB15044
:101DF0006E817F81680D791D7F836E8368187908F5
:101E0000B11145CFB8CE089590E080E008950E94CA
:101E1000D21E8F929F92AF92BF92CF92DF92EF929B
:101E2000FF92CF93DF93EC0180E8C82E8EE1D82E8D
:101E3000E12CF12C90E8892E9EE0992EA12CB12C5A
:101E40000E94291BA70196010E94971B60547F4F97
:101E50008F4F9F4F798368830E94291BA5019401AE
:101E60000E94971BAB01BC0140545F4F6F4F7F4FE7
:101E70005B834A8380919E0190919F0128813981E3
:101E8000821B930B97FF03C0919581959109811552
:101E9000944074F480919C0190919D01841B950B5A
:101EA00097FF03C09195819591098115944044F263
:101EB0000E94291B20E038E040E050E00E94971B80
:101EC0000E94A91C2BED3FE049E450E40E94741DE0
:101ED00020E030E040E85AE30E94741D6B017C0171
:101EE0000E94FA1B20E030E040E052E40E94741DA2
:101EF0000E94711C6C83C701B6010E94E11D20E0A5
:101F000030E040E052E40E94741D0E94711C6D8319
:101F1000DF91CF91FF90EF90DF90CF90BF90AF9087
:101F20009F908F9008951F920F920FB60F921124D9
:101F30008F939F938091E1009091E100937F909324
:101F4000E10083FF0FC01092E90091E09093EB0055
:101F50001092EC0092E39093ED001092B60198E09D
:101F60009093F00082FF22C093E09093E90090915B
:101F7000F200992319F09AE39093E8009091A70159
:101F8000992341F09091A70191509093A70191114D
:101F900001C05D9A9091B501992341F09091B501EE
:101FA00091509093B501911101C0289A84FF18C0F7
:101FB0008091E2008E7E81608093E2008091E1005A
:101FC0008F7E8093E1008091A8018E7E8061809356
:101FD000A8019F918F910F900FBE0F901F901895A1
:101FE00080FFF7CF8091E2008E7E80618093E200D7
:101FF0008091E1008E7E8093E1008091A8018E7E29
:102000008160E5CF1F920F920FB60F921124CF92ED
:10201000DF92EF92FF920F931F932F933F934F9373
:102020005F936F937F938F939F93AF93BF93EF9340
:10203000FF93CF93DF93CDB7DEB76C97DEBFCDBFF5
:102040001092E9008091E80083FF25C068E0CE018E
:1020500045960E94AF0782EF8093E8008D8987FF45
:1020600039C09091E80090FFFCCF982F907609F04E
:1020700034C19E894F89588D2F89F88C911131C0B8
:10208000803861F58091A6018093F1001092F100F3
:102090008EEF8093E8006C960FB6F894DEBF0FBE0B
:1020A000CDBFDF91CF91FF91EF91BF91AF919F9104
:1020B0008F917F916F915F914F913F912F911F91E0
:1020C0000F91FF90EF90DF90CF900F900FBE0F9089
:1020D0001F9018959EEF9093E800C7CF1092F100E3
:1020E000D5CF913059F48111D3CF4130510581F6CC
:1020F0008091A6018D7F8093A601CACF933049F4C9
:102100008111C6CF4130510519F68091A601826038
:10211000F2CF953041F48091E80080FFFCCF206839
:102120002093E300B5CF963009F0A9C00B8D1C8D2C
:1021300022E01092E9001092A4011092A301F21281
:102140002EC01092A2011092A1010E947E071F8250
:1021500099E09983FA8291E09E8390EA98879AEFBA
:1021600099872091A3013091A401275F3F4F3C83C1
:102170002B838D831092E9001092A4011092A30189
:102180001093A2010093A10149E050E0BE016F5FEE
:102190007F4F80E00E9458070E947E0779CF1093FE
:1021A000A2010093A1010E946206DC0112960D912A
:1021B0001C910115110509F451C1D801ED91FC9153
:1021C0000480F581E02DBE016B5E7F4FC80109954B
:1021D000009709F03EC1F80100851185EACFF3E0D0
:1021E000FF120EC08F89882309F440C0823061F449
:1021F00040E867E080E39BE00E942507811148CF1B
:1022000081E28093EB0047CF813029F440E86BE016
:1022100084E29BE0F1CF833099F70E946206DC01F3
:102220001296ED90FC908E010F5F1F4F6801E11434
:10223000F10479F0D701ED91FC910680F781E02D52
:10224000B801C7010995080F111DF701E084F18459
:10225000EECFD8011C92F60101900020E9F73197EA
:10226000BF016C197D0940E0C601C6CF6EE07BE07E
:10227000FB01449150E080E80E94580709CF973055
:1022800009F4BECF983021F481E08093F10000CFB3
:10229000993009F0FDCE837009F0B2CFE5E1F1E0AD
:1022A00081E031E096E32191222371F08093E900EF
:1022B0003093EB00DF0111972C912093EC00909369
:1022C000ED008F5F873079F78EE78093EA001092F8
:1022D000EA008F898093B601DBCE8B8D9C8D1092A6
:1022E000E9001092A4011092A3019093A20180939F
:1022F000A101898D811192C08E899D89913A49F4FD
:10230000813209F07DCF47E050E064E071E080E089
:10231000B3CF913209F074CF833269F48F89988DED
:10232000B0E0A0E08093000190930101A09302012E
:10233000B0930301ADCE803269F48091E80082FF52
:10234000FCCF67E084E091E00E94AF078BEF8093C1
:10235000E8009ECE823209F09BCE8F8980930B01DC
:10236000EEEFFFE7859194918B3F9C4D51F1E0E0BA
:10237000F8E08091040190910501A0910601B091CF
:102380000701803B9440A105B105F1F480910B0158
:1023900080FD1AC0EE3F8AE0F80789F587E797E7E6
:1023A00091838083809160008093A50188E19BE008
:1023B0000FB6F894A895809360000FBE90936000CC
:1023C00067CEEEEFFAE0D5CF8081918187379747CE
:1023D00009F05ECEA89580916000886180936000CE
:1023E0008091A50180936000EE3F2AE0F20789F01A
:1023F0008091FE0A9091FF0A9183808349CE80816B
:1024000091818737980751F29093FF0A8093FE0AD3
:10241000C5CF1092FF0A1092FE0A3ACE0E946206C1
:10242000DC0112960D911C910115110509F4E8CEFD
:10243000D801ED91FC910190F081E02DBE016B5E21
:102440007F4FC8010995811123CEF80100851185C0
:10245000EBCF181619060CF41BCED2CEF1E0FF120A
:10246000BECE62E17BE004CF1F920F920FB60F92B7
:1024700011242F933F938F939F93AF93BF9380919A
:102480005E0190915F01A0916001B0916101309176
:10249000500123E0230F2D3758F50196A11DB11DE2
:1024A0002093500180935E0190935F01A09360019F
:1024B000B09361018091510190915201A09153011B
:1024C000B09154010196A11DB11D809351019093CB
:1024D0005201A0935301B0935401BF91AF919F91CA
:1024E0008F913F912F910F900FBE0F901F901895D5
:1024F00026E8230F0296A11DB11DD2CF1F920F9285
:102500000FB60F9211242F933F934F935F936F93C6
:102510007F938F939F93AF93BF93EF93FF9380919C
:102520004F01882329F18091BF01811121C0809141
:102530004E0181111DC060914A0170914B01809143
:102540004C0190914D012091490130E050E040E074
:102550000E94C91B623071058105910548F4909174
:102560005901E0915A01F0915B01808189278083B4
:1025700080914A0190914B01A0914C01B0914D0185
:10258000892B8A2B8B2BE9F080914A0190914B018A
:10259000A0914C01B0914D010197A109B10980931F
:1025A0004A0190934B01A0934C01B0934D01892BAC
:1025B0008A2B8B2B31F48091C201882399F00E94E1
:1025C000C20BFF91EF91BF91AF919F918F917F913E
:1025D0006F915F914F913F912F910F900FBE0F9090
:1025E0001F90189580E00E947D0BEBCF1F920F92F9
:1025F0000FB60F9211242F933F934F935F936F93D6
:102600007F938F939F93AF93BF93EF93FF938091AB
:10261000C001882309F472C0809145019091460160
:10262000A0914701B0914801892B8A2B8B2B09F48B
:1026300051C080914E0181111DC060914501709182
:10264000460180914701909148012091440130E07A
:1026500050E040E00E94C91B623071058105910580
:1026600048F490915601E0915701F0915801808112
:10267000892780838091450190914601A09147016F
:10268000B0914801892B8A2B8B2B99F080914501C1
:1026900090914601A0914701B09148010197A1098D
:1026A000B1098093450190934601A0934701B093EF
:1026B0004801FF91EF91BF91AF919F918F917F91D1
:1026C0006F915F914F913F912F910F900FBE0F909F
:1026D0001F9018951092BF011092C00180916F0059
:1026E0008D7F80936F0080915601E0915701F091AA
:1026F00058019081809589238083DBCF80914E01A2
:102700008111D7CF609145017091460180914701B9
:10271000909148012091440130E050E040E00E9457
:10272000C91B623071058105910518F6909156011B
:10273000E0915701F091580180818927DDCF0F93F7
:102740001F93CF93DF938C0181E090E00E94811B67
:1027500080FF31C08AE090E00E94811B9FEF980FBC
:102760009E3F48F522E330E0D80150963C932E93EB
:102770001F9728E330E052963C932E935197CBE07D
:10278000D0E0D801ED91FC910190F081E02D682F0F
:10279000C8010995CE010E94811B2196C131D10546
:1027A00081F70E94170688EE93E0DF91CF911F9189
:1027B0000F910C94C908DF91CF911F910F9108954B
:1027C00004970C949F13E3ECF5E01382128288EED9
:1027D00093E0A0E0B0E084839583A683B7838FE184
:1027E00091E0918380838FEF9FEF95878487E3E16A
:1027F000F6E0138212821186128680E183871086AA
:1028000017821586108A1786128A118A81E0838BB7
:10281000148A858B168A81E391E0918380838FE30C
:1028200091E0958384830895CF93DF93CDB7DEB78E
:102830002A970FB6F894DEBF0FBECDBF789484B54B
:10284000826084BD84B5816084BD85B5826085BDAC
:1028500085B5816085BD80916E00816080936E003A
:10286000109281008091810082608093810080912C
:1028700081008160809381008091800081608093DD
:1028800080008091910082608093910080919100FE
:10289000816080939100809190008160809390008E
:1028A0008091C10084608093C1008091C1008260EA
:1028B0008093C1008091C10081608093C1008091AC
:1028C000C30081608093C3008091C00082608093C8
:1028D000C0008091C20081608093C20080917A0024
:1028E000846080937A0080917A00826080937A007D
:1028F00080917A00816080937A0080917A0080686C
:1029000080937A001092B6011092A6011092A8014D
:102910008091D70081608093D70080EA8093D800AF
:1029200089B5806189BD89B5826089BD09B400FE21
:10293000FDCF61E070E080E090E00E94110880919E
:10294000D8008F7C80618093D8008091E000807FE8
:102950008093E0008091E1008E7E8093E1008DE025
:102960008093E200559A209A81EC80937C0085B197
:10297000806F85B984B1877E84B984B1876E84B94C
:102980005E9A5F988AB1806D8AB9769A6E9881B3A3
:10299000806F81BB899880B38D7080BB80E58CBDD2
:1029A00081E08DBD85E090E00E94C9085F9A85E0D6
:1029B00090E00E94C9085E985C98EEE9F7E08CEA26
:1029C00097E024912EBD00000DB407FEFDCF319697
:1029D0008E179F07B1F75C9A81E88093640080911D
:1029E00065008160809365000E9417060E94CE08F2
:1029F00087FF15C05C9885EA8EBD00000DB407FE08
:102A0000FDCF5C9A2E982F982D988091640080625B
:102A10008093640081E083BF889513BEFCCF0E9441
:102A2000CE0882FF46C02D980E94CE088478843854
:102A3000D9F42D9A88EC90E00E94C9082F9882E082
:102A400090E00E94811B8F3F29F06FEF82E090E0C1
:102A50000E94891B84EF91E00E94C9082F9A0E946E
:102A6000CE0884788438D9F30E94CE0884718431EA
:102A7000D9F42D9A88EC90E00E94C9082E9882E043
:102A800090E00E94811B882329F060E082E090E0C2
:102A90000E94891B84EF91E00E94C9082E9A0E942F
:102AA000CE0884718431D9F388EC90E00E94C90883
:102AB000B6CF2D9A82E090E00E94811B882369F1B5
:102AC0000E94D60880E180931E068CEB97E09093DD
:102AD0005D0180935C018091BE018823D9F190E073
:102AE00023E08091BE01981778F591111BC0809169
:102AF00071008D7F8093710080915901E0915A019E
:102B0000F0915B0130818095832380838091650003
:102B10008860809365009F5FE4CF109255013E98D6
:102B20003F98D0CF80916F008D7F80936F00809110
:102B30005601E0915701F09158013081809583232F
:102B4000808320938100E7CF1092BF011092C001D3
:102B50001092C20181E08093BE01ECEEF7E0849117
:102B6000EDECF7E0249190E0880F991FFC01E6540A
:102B7000F84F45915491FC01E455F84FA591B4915B
:102B80008C91822B8C9380916500877F8093650068
:102B90001092900089E08093910050935B014093E4
:102BA0005A012093590180E00E947D0B0E94D608B3
:102BB000EE24E39400E120E840E158E068E170E0B1
:102BC00090E080E00E94DC0888E290E09093230689
:102BD000809322068AE390E0909325068093240652
:102BE00026E038E03A832983E981FA8164916623FB
:102BF00061F083E196E00E946D0D29813A812F5F9B
:102C00003F4F3A832983892B79F71092A00183E8FB
:102C100084BD8FEF87BD81EF809380001092880084
:102C200010928A008FB7F89440915E0150915F0135
:102C300060916001709161018FBF80911F06342FF8
:102C4000381B832F90912006992359F03093210649
:102C50001092200680E090E0892B21F30E94000072
:102C6000E1CF90911E06391740F48F5F891790F7D6
:102C700081E083BF889513BEEDCF81E0809320066D
:102C800040931F0680911A0690911B06019690931F
:102C90001B0680931A0680912B0680932A060E94B9
:102CA000CE0880932B069091A001992309F4F5C1D9
:102CB00020916601309167012150310930936701FD
:102CC0002093660190916501992319F0915090939A
:102CD000650121314EE0340708F02BC185FB9927AF
:102CE00090F9692F619586FF02C061E0691B982FFA
:102CF000991F9927991F792F719584FF02C071E060
:102D0000791B662319F0E0E3711101C0E0E4409102
:102D10009E0150919F016E02400D511D1124509350
:102D20009F0140939E01872F072E000C990B209145
:102D30009C0130919D01E702200D311D112430933B
:102D40009D0120939C014F3F510509F034F440E070
:102D500051E050939F0140939E0140919E015091FC
:102D60009F0141305F4134F040E05FE150939F01AB
:102D700040939E012F3F310509F034F420E031E00B
:102D800030939D0120939C0120919C0130919D01E5
:102D900021303F4034F0E0E0FFE0F0939D01E0930C
:102DA0009C010196982F990F890F6F5F860F809372
:102DB0009B01843009F0AEC010929A012AE631E0FE
:102DC0003A83298315E000E1A981BA812D913C91D4
:102DD00011971496FC91149712968D919C911397CC
:102DE0001596EC91AC014E0F511DE7FD5A95B901B6
:102DF0006F0F711DF7FD7A95605C710961387E4136
:102E000028F0F195A981BA811496FC93405C510990
:102E100041385E4028F0E195A981BA811596EC937E
:102E2000E981FA814481240F311D47FD3A953183B0
:102E300020834581840F911D47FD9A95938382835A
:102E400040919E0150919F01421B530B57FF03C0BD
:102E5000519541955109403851400CF044C02091A2
:102E60009C0130919D01281B390B37FF03C0319520
:102E70002195310920383140B4F580916801909155
:102E80006901019690936901809368016AE070E09E
:102E90000E94A41E482F62E08AEA9AE00E94240D54
:102EA00089819A810E94090F80916801909169013E
:102EB0006AE070E00E94A41EFC01E056F54FE49128
:102EC0008E2F69E10E94981E809364018E2F612FDE
:102ED0000E94981E292F0E94981E909363012093B0
:102EE00062010093650169817A816A5F7F4F7A830D
:102EF00069836A59714009F067CF809166019091AA
:102F00006701892BD9F440E061E080E99AE00E94F2
:102F1000240D14C080919A018F5F80939A018031B3
:102F200008F44CCF40E063E08AE89AE00E94240D68
:102F300043CF253C3F4F3CF41092A0018091A0016B
:102F4000882309F4A7C080E0E3ECF1E081118FEF62
:102F5000002481938193819381930394D1F71092FC
:102F60002506109224061092230610922206409104
:102F70009B01B8E04B9FA00111244E5B554F60911F
:102F80009C0170919D0180919A01883008F4DCC009
:102F900080E490E0681B790B77FF02C0615C7F4F93
:102FA00086E0759567958A95E1F76450710980917F
:102FB0009E0190919F0197FDCF9606E0959587958C
:102FC0000A95E1F7EE24E39408E028E004970E94D4
:102FD000DC08EAE6F1E0FA83E983A981BA81129676
:102FE0006D917C9177FF02C0615C7F4F16E0759513
:102FF00067951A95E1F763507109E981FA8180813B
:10300000918197FDCF96B6E095958795BA95E1F7B2
:10301000EE24E39406E026E04CE35AE003970E9496
:10302000DC0829813A812A5F3F4F3A8329832A5954
:10303000314099F640906601509067016DE4461664
:103040006EE056060CF483C00CED19E020E140E37D
:1030500068E070E088E290E00E94070B80916501D3
:1030600020916201829F202D112490916301899FFC
:10307000902D112430916401839F802D112433E819
:1030800034BD909597BD91EF909380002093880078
:1030900080938A000E941706DDCD0E94CD1A6C0134
:1030A000990FEE08FF080E94EC07C616D706E8063F
:1030B000F90631F06C257D258E259F250E94781B11
:1030C00080912A0690E08095909520912B062C7097
:1030D00030E082239323892B09F430CF81E0809361
:1030E000A001A0E0B0E1B0939F01A0939E01E0E0B9
:1030F000F8E0F0939D01E0939C0184E080939B01B4
:1031000010929A012AE631E03A83298389819A81D3
:103110000E94090F69817A816A5F7F4F7A83698390
:103120006A59714099F71092690110926801A8E8F4
:10313000BEE0B0936701A09366011092650140E084
:1031400060E088EB9AE0E3CE90E080E023CF71E18D
:1031500047167EE057064CF00CE919E020E140E20A
:1031600068E070E080E390E077CF60916801709153
:10317000690190E080E00E94480B00E919E028E036
:103180004CE070E060E00E94070B60E0141415044E
:1031900044F480E19EE0841995096CE370E00E949C
:1031A000A41E70E090E080E00E94A91C2BED3FE09F
:1031B00049E450E40E94741D20E030E040EF51E407
:1031C0000E94FF1B6B017C010E94E11D20E030E0AA
:1031D00040E151E40E94741D0E94711C6D837E8346
:1031E0008F839887C701B6010E94FA1B905820E090
:1031F00030E040E151E40E94741D0E94711C6B019B
:1032000043E16DE270E086E790E00E94DE0901E0B4
:1032100010E0912C812C89E090E09A878987FEEE5E
:10322000AF2EBB24BA94A8EF6A2E77247A94EFEFDE
:103230008E1A9E0A0E5F1F4F600E711E3984330C6A
:1032400033943982432DE6E32E2E312C29853A859D
:10325000221A330AB101C4018A589F4F0E94DE0925
:1032600066E370E0681979097C836B83402F898558
:103270009A858A589F4F0E94DE094981B10186E7ED
:1032800090E0881999090E94DE09402F6B817C81AA
:1032900086E790E0A985BA858A1B9B0B0E94DE0910
:1032A000E985FA858E169F060CF402C141E06FE3B2
:1032B00070E086E790E00E94C00941E06DE270E0B6
:1032C00086E790E00E94C00941E066E370E08FE786
:1032D00090E00E94C00941E066E370E08DE690E076
:1032E0000E94C00921E030E03A832983312C212C4F
:1032F00069E0862E912C6EEE7FEF7C836B8378EFF6
:10330000672E77247A949FEF291A390AA981BA8106
:103310001296BA83A9836A0E7B1E5101B6E7AB0EE3
:10332000B11C41E0F401F696FA87E987BF01C501B7
:103330000E94C00906E710E00219130941E06985FF
:103340007A85C8010E94C00941E026E330E02819CF
:1033500039093A872987B901C5010E94C00941E0AE
:1033600069857A85C8010E94C009B1016A5C7F4FF6
:103370007A87698741E084010A581F4FC8010E947B
:10338000C00941E069857A8586E790E08819990946
:103390009A8789870E94C00956E3A52EB12CA218EE
:1033A000B30841E0B501C8010E94C00941E0B50180
:1033B00089859A850E94C009281439040CF485C0B7
:1033C000D601D696BC83AB830D811E810A581F4F50
:1033D0005601D7FE04C0AA24BB24AC18BD082D801A
:1033E0003E8037FE03C031942194310886E790E097
:1033F00036E3632E712C2A143B045CF09B818C8194
:103400001C830B83092F182F86E390E046E7642E78
:10341000712CEB81FC81E615F7055CF0302F212F34
:103420008C01832F922F3B812C817C826B82632EB7
:10343000722E73012B813C81E21AF30A6C01C01ACF
:10344000D10AD7FE03C0D194C194D1084701F7FE39
:1034500003C03FEF831A930A9594879408171907BE
:103460000CF040C081E0682F880F770B7A83698366
:103470008B819C8168167906BCF141E0BC01C801D2
:103480002A143B041CF0B8018B819C810E94C00966
:103490008C189D0897FE06C0A981BA810A0F1B1FD0
:1034A0008E0C9F1CEB81FC813196FC83EB83E0CF7B
:1034B00077FCBDCEA985BA851197BA87A987B2E0F6
:1034C000AB0EB11C6A0C7B1CB2CE77FC1CCF71E03A
:1034D000871A91088B819C8102969C838B83680E4E
:1034E000791E11CF8FEFBFCF141415040CF4B6CD95
:1034F00000E119E020E140E460E370E080E290E068
:10350000ABCD8F929F92AF92BF92CF92DF92EF920C
:10351000FF92CF93DF93EC01688179818A819B814F
:10352000611571058105910521F464E279ED8BE562
:1035300097E02DE133EF41E050E00E94971B4901F5
:103540005A019B01AC01A7EAB1E40E94B61B6B01D2
:103550007C01ACEEB4EFA50194010E94C41BDC0118
:10356000CB018C0D9D1DAE1DBF1DB7FF03C0019784
:10357000A109B04888839983AA83BB839F77DF9191
:10358000CF91FF90EF90DF90CF90BF90AF909F9042
:103590008F9008950E94811A08958CE091E00E9416
:1035A000811A0895B0E0A0E080930C0190930D0182
:1035B000A0930E01B0930F0108958F929F92AF9246
:1035C000BF92CF92DF92EF92FF92CF93DF93EC0105
:1035D000688179818A819B816115710581059105D9
:1035E00021F464E279ED8BE597E02DE133EF41E0E2
:1035F00050E00E94971B49015A019B01AC01A7EAC8
:10360000B1E40E94B61B6B017C01ACEEB4EFA501E6
:1036100094010E94C41BC60ED71EE81EF91EF7FEB9
:1036200006C081E0C81AD108E10880E8F80AC8821B
:10363000D982EA82FB82C701B6019F77DF91CF91E1
:10364000FF90EF90DF90CF90BF90AF909F908F90C2
:1036500008958F929F92AF92BF92CF92DF92EF9296
:10366000FF9260911001709111018091120190916F
:103670001301611571058105910521F464E279ED6D
:103680008BE597E02DE133EF41E050E00E94971B7E
:1036900049015A019B01AC01A7EAB1E40E94B61BA3
:1036A0006B017C01ACEEB4EFA50194010E94C41B38
:1036B000C60ED71EE81EF91EF7FE06C081E0C81A26
:1036C000D108E10880E8F80AC0921001D0921101F7
:1036D000E0921201F0921301C701B6019F77FF90AB
:1036E000EF90DF90CF90BF90AF909F908F90089514
:1036F0006093100170931101809312019093130154
:103700000895F999FECF92BD81BDF89A992780B5A9
:103710000895262FF999FECF1FBA92BD81BD20BD15
:103720000FB6F894FA9AF99A0FBE01960895052EED
:1037300097FB1EF400940E94AE1B57FD07D00E9419
:10374000C91B07FC03D04EF40C94AE1B509540955A
:10375000309521953F4F4F4F5F4F0895909580953D
:10376000709561957F4F8F4F9F4F08950E94EB1B7F
:10377000A59F900DB49F900DA49F800D911D1124C5
:103780000895B7FF0C94B61B0E94B61B821B930BC7
:103790000895A1E21A2EAA1BBB1BFD010DC0AA1F92
:1037A000BB1FEE1FFF1FA217B307E407F50720F0AA
:1037B000A21BB30BE40BF50B661F771F881F991F25
:1037C0001A9469F760957095809590959B01AC016E
:1037D000BD01CF010895A29FB001B39FC001A39F77
:1037E000700D811D1124911DB29F700D811D11243A
:1037F000911D08950E94FD1CE3950C94371D0E94B5
:10380000131C0C94261D0E94F41C58F00E94ED1C01
:1038100040F029F45F3F29F00C94E41C51110C9402
:103820006E1D0C94EA1C0E944B1D68F39923B1F3A2
:10383000552391F3951B550BBB27AA2762177307D6
:10384000840738F09F5F5F4F220F331F441FAA1F6A
:10385000A9F335D00E2E3AF0E0E832D09150504026
:10386000E695001CCAF72BD0FE2F29D0660F771FD4
:10387000881FBB1F261737074807AB07B0E809F0BA
:10388000BB0B802DBF01FF2793585F4F3AF09E3F3F
:10389000510578F00C94E41C0C946E1D5F3FE4F32A
:1038A000983ED4F3869577956795B795F7959F5F82
:1038B000C9F7880F911D9695879597F90895E1E0CE
:1038C000660F771F881FBB1F621773078407BA072D
:1038D00020F0621B730B840BBA0BEE1F88F7E09588
:1038E00008950E94781C6894B1110C946E1D08957F
:1038F0000E94531D88F09F5798F0B92F9927B75110
:10390000B0F0E1F0660F771F881F991F1AF0BA9583
:10391000C9F714C0B13091F00E946D1DB1E0089557
:103920000C946D1D672F782F8827B85F39F0B93F49
:10393000CCF3869577956795B395D9F73EF4909536
:103940008095709561957F4F8F4F9F4F0895E894B4
:1039500009C097FB3EF490958095709561957F4FD7
:103960008F4F9F4F9923A9F0F92F96E9BB27939585
:10397000F695879577956795B795F111F8CFFAF495
:10398000BB0F11F460FF1BC06F5F7F4F8F4F9F4FC6
:1039900016C0882311F096E911C0772321F09EE824
:1039A000872F762F05C0662371F096E8862F70E08A
:1039B00060E02AF09A95660F771F881FDAF7880F64
:1039C0009695879597F9089597F99F6780E870E035
:1039D00060E008959FEF80EC089500240A94161685
:1039E000170618060906089500240A9412161306ED
:1039F0001406050608950C94EA1C0E94531DD8F382
:103A0000E894E0E0BB279F57F0F02AED3FE049EC57
:103A100006C0EE0FBB0F661F771F881F28F0B23A53
:103A200062077307840728F0B25A620B730B840B8A
:103A3000E3959A9572F7803830F49A95BB0F661F1C
:103A4000771F881FD2F790480C94511E092E0394BB
:103A5000000C11F4882352F0BB0F40F4BF2B11F47B
:103A600060FF04C06F5F7F4F8F4F9F4F0895EF93AC
:103A7000E0FF07C0A2EA2AED3FE049EC5FEB0E94BD
:103A8000FA1D0E94261D0F90039401FC9058ECEA49
:103A9000F0E00C945D1E57FD9058440F551F59F0EF
:103AA0005F3F71F04795880F97FB991F61F09F3F2B
:103AB00079F087950895121613061406551FF2CF54
:103AC0004695F1DF08C0161617061806991FF1CFA4
:103AD00086957105610508940895E894BB276627CB
:103AE0007727CB0197F908950E94871D0C94261D16
:103AF0000E94ED1C38F00E94F41C20F0952311F078
:103B00000C94E41C0C94EA1C11240C946E1D0E946D
:103B10004B1D70F3959FC1F3950F50E0551F629FA9
:103B2000F001729FBB27F00DB11D639FAA27F00D16
:103B3000B11DAA1F649F6627B00DA11D661F829F3D
:103B40002227B00DA11D621F739FB00DA11D621F22
:103B5000839FA00D611D221F749F3327A00D611D3F
:103B6000231F849F600D211D822F762F6A2F112421
:103B70009F5750409AF0F1F088234AF0EE0FFF1F54
:103B8000BB1F661F771F881F91505040A9F79E3FAB
:103B9000510580F00C94E41C0C946E1D5F3FE4F31F
:103BA000983ED4F3869577956795B795F795E79501
:103BB0009F5FC1F7FE2B880F911D9695879597F90A
:103BC00008959F930E94FD1C0F9007FCEE5F0C94DC
:103BD000371D0E94ED1C38F00E94F41C20F039F4CF
:103BE0009F3F19F426F40C94EA1C0EF4E095E7FBD1
:103BF0000C94E41CE92F0E944B1D58F3BA1762077E
:103C000073078407950720F079F4A6F50C946D1DD1
:103C10000EF4E0950B2EBA2FA02D0B01B9019001E7
:103C20000C01CA01A0011124FF27591B99F0593F2B
:103C300050F4503E68F11A16F040A22F232F342F73
:103C40004427585FF3CF469537952795A795F040C1
:103C50005395C9F77EF41F16BA0B620B730B840BD6
:103C6000BAF09150A1F0FF0FBB1F661F771F881F8E
:103C7000C2F70EC0BA0F621F731F841F48F48795E6
:103C800077956795B795F7959E3F08F0B0CF9395D8
:103C9000880F08F09927EE0F9795879508959F3F15
:103CA00031F0915020F4879577956795B795880FF7
:103CB000911D9695879597F908959F938F937F937C
:103CC0006F93FF93EF939B01AC010E94741DEF91E2
:103CD000FF910E94711E2F913F914F915F910C9423
:103CE000741DDF93CF931F930F93FF92EF92DF9298
:103CF0007B018C01689406C0DA2EEF010E94871DBB
:103D0000FE01E894A5912591359145915591A6F331
:103D1000EF010E94FA1DFE019701A801DA9469F7EC
:103D2000DF90EF90FF900F911F91CF91DF91089559
:103D3000991B79E004C0991F961708F0961B881FFD
:103D40007A95C9F78095089597FB072E16F400948D
:103D500007D077FD09D00E94B81E07FC05D03EF4BD
:103D6000909581959F4F0895709561957F4F089527
:103D7000AA1BBB1B51E107C0AA1FBB1FA617B70791
:103D800010F0A61BB70B881F991F5A95A9F78095AD
:103D90009095BC01CD010895EE0FFF1F0590F491A1
:103DA000E02D099481E090E0F8940C94D71EF894EB
:023DB000FFCF43
:103DB200FFFFFFFF00E10000000000000100000023
:103DC2000100000000C180810000000000000076B8
:103DD20006440897068C06DD069B06B9060000001D
:103DE200006D0DBF07040F030F9F13FCFF0000E0DF
:023DF2001300BC
:00000001FF
