:100000000C946B070C9493070C9493070C94930730
:100010000C9493070C9493070C9493070C949307F8
:100020000C9493070C9493070C9430270C949F27FF
:100030000C9493070C9493070C9493070C949307D8
:100040000C9493070C94732A0C9493070C949307C5
:100050000C9493070C9493070C9493070C94D12958
:100060000C9493070C9493070C9493070C949307A8
:100070000C9493070C9493070C9493070C94930798
:100080000C941B2A0C9493070C9493070C949307DD
:100090000C9493070C9493070C9493070C94930778
:1000A0000C9493070C9493070C94930700000000A2
:1000B00000700100C0000C00CAA77C0A42F5550878
:1000C000534248195EF551120030000000274500E8
:1000D00040941C0014F3190504F1110420040000DD
:1000E0000441100400040000104208015E14450F92
:1000F00040F001005955551351555D0D8C927C0807
:100100005755550D5E55550D51520C015E55550F05
:100110005655550F00A0000000A4000000C22800A2
:1001200080A228008062080040500D0000E3180003
:100130009C92241F5F555D0D9C1445115F1425078B
:100140005F5555115F5114015E54551D1F41101F1D
:1001500040F44500100421071F41181D1F044110E1
:100160005EF0041F9C10041F5E54450F5F92140341
:100170005ED4451F5F92341B5655550D41F0050165
:100180001F0421071F4208011FE4410F1743181DD8
:1001900007C1090151564D1100F0450000F0010062
:1001A00040F4010080100C0010044110904A00142B
:1001B00080F090480064904A0064904C0064904D38
:1001C0000064904F00C880F0515549540052455387
:1001D0005441525400434F4E54494E554500FE1E63
:1001E000E1145D254414E512C111EEA8CEA8AE6657
:1001F0008A8A8AEC06080E020C4E45572052454367
:100200004F5244003F3F333333333F3F033F3FFCC4
:10021000FCC0C0C0C0C0C07E7E667E7E607E7EB3F5
:10022000B3B3B3B3B7BEBC9F9F999999199F9FDF92
:10023000DFD9DFDFD8DFDFFFFFCCCCCCCCCCCC7E6E
:100240007E067E7E667E7E0000009898989898983C
:10025000F8F818F8F80C0C0CFDFDCDCDCDCDFDFD5A
:100260000001010000007E7E067E7E667E7E00002C
:1002700000000000BFBF333F3F303F3F00000000A1
:1002800000001F1F1818181818180000007E21CA37
:10029000210121EB1DAD20F91F9058000A90560056
:1002A0000A9054000A9052000A9050000A80F09080
:1002B0003700789036008C903500A0903400B490D0
:1002C0003300C8903200DC903100F0903000FF80A5
:1002D000F0906800148000149068001480F0904939
:1002E0000050904D007880005090490050904D0093
:1002F0007880005090490050904D007880005080E8
:10030000F09074001490680018905C001C905000ED
:1003100020904400249038002880F09037000C9002
:1003200034000C9030000C90380008903500089094
:1003300031000880F09043000A904F000A904C0072
:100340000A80F09060001E9061001E9062001E9076
:1003500063001E9064001E9065001E9066001E9053
:1003600067001E80F09044003C9047003C9049009C
:100370003C80F00000000000000000FFFFAAD5AAAA
:10038000D5AA803C7EFFFFFFFF7E3C3C76E7C7E7B7
:10039000F77E3C3C6EE7E3E7EF7E3C1818FF7E3CBF
:1003A0003C7E661818E74224245A66245A668181E6
:1003B0004299E700003C76A14A9DEF000000002032
:1003C000765AEF000000000000307C564552203085
:1003D0002E3130004F424E2D593039007F7F1C1C8A
:1003E0001C1C1C1C7F7F707E7E7070703E7FF7E748
:1003F000E7EFFE7C3F7F783C1E0EFEFC0000000015
:1004000000000000806010080404020202FFFFA93F
:1004100051AA52A448106080000000000000003C77
:10042000FFE454A454A454A454A757AA55AA55AA07
:1004300055AAC03F000000000000000000010306B4
:100440000D0E1D1A1D1A1D1A1D0A0D0603010000AE
:100450000000000000000000806010080404020298
:1004600002FFFFA951AA52A44810608000FCFCA41E
:1004700054A454A457A454A454A454A454A757AAAD
:1004800055AA55AA55AAC03F001F1F1A1D1A1D1AAA
:100490001D1A1D1A1D1A1D1A1D1A1D1A1D0A0D06D8
:1004A0000301000000000000000000008060100850
:1004B0000404020202FFFFA955A955A955A901FF8D
:1004C000000000000000003CFFE454A454A454A425
:1004D00054A757A657A657A657A604FF000000002A
:1004E00000000000000103060D0E1D1A1D1A1D1A42
:1004F0001D1A1D1A1D1A101F9045000A80F00206D1
:100500006E6E6E06023E716D5D415D3E0000140828
:100510001400000209251525090243524544495497
:10052000005245434F5244005645544552414E00F7
:100530005354414E44415244004E4F5649434500A6
:10054000424547494E4E4552000000000000000061
:10055000000000000000000000000000000000009B
:10056000000000000000000000000080C0E0F0F883
:100570007CB8D0E0C0800000000000000000000057
:10058000000000000000000000000000000000006B
:100590000000000000000000000000000080C0E03B
:1005A000C0800080C0E0F0F87C3A170F1F3F7DBE8E
:1005B000DFEFF7FB7F3F1F0E0480C0E0F0F87CF810
:1005C000F0E0C0800000000000000000000000001B
:1005D000000000000000000000000080C0E0F1FB0F
:1005E000F5EEDFBE7DFBF7EFDFBE7CF8702000008C
:1005F0000183C1E0F0F87CFAF7EFDFBF7DF8F0E0AF
:10060000F1FB7F3F1F0E04000000000000000020EF
:1006100070F8F0E0C0E0F0F8742E1F2F77FBFDFEBD
:10062000DFEFF7FF7F3E1D0B0783C1E0F0F87CFA98
:10063000F7EFDFBF7DFEFFEFF7FB7D3E1F0E0503EB
:10064000070F1F3E1C08000000000080C0E0F0F80B
:100650007CBEDDEBF7EFDFBE7CF8F0F87C3E1D0BD7
:100660000783010010387CFAF7EFDFBF7DFEFFEF54
:10067000F7FB7D3E1F0E0503010000000000000097
:10068000000000000000000000000103070F1F3EF3
:100690005FEFF7FB7D3F1F0F078241E0F0E0C08274
:1006A000070F1F3E7CF8F0E0F1FB7F3F1F0E0503B4
:1006B0000100000000000000000000000000000039
:1006C000000000000000000000000000000000002A
:1006D000000041E0F0F8FCBEDFEFF7FA7DFBF7EF3A
:1006E000DFBE7C3E1F0F070301000000000000007A
:1006F00000000000000000000000000000000000FA
:1007000000000000000000000000000000000000E9
:10071000000000000103070F173B7D3E1F0F07037A
:1007200001000000000000000000000000000000C8
:1007300000000000000000000000000000000000B9
:10074000000000000000000000E888E888EEEA8A67
:10075000EA8AE4080808080E504C41592054494DD3
:100760004500504C415920434F554E54005B205D8D
:100770000053434F524553004245535420350053D4
:1007800054414952532020002020205357454550C2
:100790000020004F43544F4245520032303139005F
:1007A0000050524F4752414D4D4544004259204F51
:1007B000424F4E4F0000544849530050524F475249
:1007C000414D2049530052454C4541534544005545
:1007D0004E44455220544845004D495400204C4950
:1007E00043454E53452E001B0000000000003E5BB9
:1007F0004F5B3E3E6B4F6B3E1C3E7C3E1C183C7E6E
:100800003C181C577D571C1C5E7F5E1C00183C1852
:1008100000FFE7C3E7FF0018241800FFE7DBE7FF4E
:1008200030483A060E2629792926407F05050740DB
:100830007F05253F5A3CE73C5A7F3E1C1C08081C9C
:100840001C3E7F14227F22145F5F005F5F06097FDA
:10085000017F006689956A606060606094A2FFA273
:100860009408047E040810207E201008082A1C0822
:10087000081C2A08081E101010100C1E0C1E0C302C
:10088000383E3830060E3E0E060000000000000024
:100890005F00000007000700147F147F14242A7FE4
:1008A0002A122313086462364956205000080703B1
:1008B00000001C2241000041221C002A1C7F1C2A2F
:1008C00008083E0808008070300008080808080082
:1008D0000060600020100804023E5149453E00427D
:1008E0007F400072494949462141494D331814124D
:1008F0007F1027454545393C4A4949314121110975
:10090000073649494936464949291E000014000066
:100910000040340000000814224114141414140080
:100920004122140802015909063E415D594E7C12CC
:1009300011127C7F494949363E414141227F414164
:10094000413E7F494949417F090909013E414151E1
:10095000737F0808087F00417F41002040413F012C
:100960007F081422417F404040407F021C027F7F6D
:100970000408107F3E4141413E7F090909063E417E
:1009800051215E7F09192946264949493203017FD1
:1009900001033F4040403F1F2040201F3F40384060
:1009A0003F631408146303047804036159494D43F9
:1009B000007F4141410204081020004141417F0471
:1009C0000201020440404040400003070800205458
:1009D0005478407F284444383844444428384444B8
:1009E000287F385454541800087E090218A4A49C87
:1009F000787F0804047800447D40002040403D009A
:100A00007F1028440000417F40007C047804787CFB
:100A1000080404783844444438FC18242418182462
:100A20002418FC7C08040408485454542404043F4B
:100A300044243C4040207C1C2040201C3C40304052
:100A40003C44281028444C9090907C4464544C447E
:100A5000000836410000007700000041360800021F
:100A6000010204023C2623263C1EA1A161123A4049
:100A700040207A38545455592155557941215454C0
:100A80007841215554784020545579400C1E5272BB
:100A90001239555555593954545459395554545897
:100AA0000000457C410002457D420001457C40F04C
:100AB000292429F0F0282528F07C5455450020549D
:100AC000547C547C0A097F493249494932324848AA
:100AD0004832324A4848303A4141217A3A4240202D
:100AE00078009DA0A07D39444444393D4040403DBC
:100AF0003C24FF2424487E4943662B2FFC2F2BFFE8
:100B00000929F620C0887E09032054547941000049
:100B1000447D413048484A32384040227A007A0ABF
:100B20000A727D0D19317D2629292F282629292988
:100B30002630484D402038080808080808080838BA
:100B40002F10C8ACBA2F102834FA00007B00000820
:100B5000142A142222142A14089500220095AA00AF
:100B60005500AAAA55AA55AA000000FF00101010AF
:100B7000FF00141414FF001010FF00FF1010F010FD
:100B8000F0141414FC001414F700FF0000FF00FF21
:100B90001414F404FC141417101F10101F101F1449
:100BA00014141F00101010F0000000001F1010108F
:100BB000101F10101010F010000000FF1010101087
:100BC0001010101010FF10000000FF140000FF00B4
:100BD000FF00001F10170000FC04F4141417101776
:100BE0001414F404F40000FF00F714141414141483
:100BF00014F700F7141414171410101F101F1414F6
:100C000014F4141010F010F000001F101F0000006A
:100C10001F14000000FC140000F010F01010FF1072
:100C2000FF141414FF141010101F00000000F01027
:100C3000FFFFFFFFFFF0F0F0F0F0FFFFFF0000000C
:100C40000000FFFF0F0F0F0F0F38444438447C2A79
:100C50002A3E147E02020606027E027E0263554987
:100C600041633844443C04407E201E2006027E023C
:100C70000299A5E7A5991C2A492A1C4C7201724CBD
:100C8000304A4D4D303048784830BC625A463D3E7F
:100C9000494949007E0101017E2A2A2A2A2A444420
:100CA0005F444440514A444040444A51400000FFA0
:100CB0000103E080FF000008086B6B083612362441
:100CC00036060F090F06000018180000001010006B
:100CD0003040FF0101001F01011E00191D17120005
:100CE0003C3C3C3C00000000000601150126013799
:100CF000014A015D01720188019F01B801D201EE34
:100D0000010B022A024B026E029302BA02E40210A5
:100D1000033F037003A403DC03170455049704DDA9
:100D20000427057505C80520067D06E0064907B8B5
:100D3000072D08A9082D09B9094D0AEA0A900B40A8
:100D40000CFA0CC00D910E6F0F5A1053115B1272FA
:100D5000139A14D41520178018F519801B231DDE53
:100D60001EB420A622B524E4263429A72B402E0049
:100D700031EA330037453ABC3D68414C456B49C8C0
:100D80004D68524F57805C006210111213151617F0
:100D9000181A1C1D1F21232527292C2E3134373AE0
:100DA0003E4145494E52575C62686E757B838B931A
:100DB0009CA5AFB9C4D0DCE9F70000000200090F20
:100DC0000000030401000C0000000000000000000F
:100DD00000000000000000000301000000002400EB
:100DE00027002A002D003000D5F08D1410A1C881F5
:100DF000CFD9F1AF2000040802011040804010203C
:100E000040804080080204018040201002011080D0
:100E1000102040402000000000250028002B002E5C
:100E20000031000404040404030405020202020465
:100E30000302020202060606060606040402020275
:100E4000040414021302120215020702080204012C
:100E50000C01060100541127119D18031DB81C2018
:100E60001B351F5C24EB21080B0002020200000965
:100E70000400000102020000052400100105240105
:100E80000101042402060524060001070581031060
:100E9000004009040100020A0000000705020240A8
:100EA000000007058302400000040309041201004A
:100EB00002EF02014041233680000101020301419B
:100EC000726475696E6F204C4C43004172647562A8
:100ED0006F790000DE2A11241FBECFEFDAE0DEBFFB
:100EE000CDBF11E0A0E0B1E0E4EAFFE502C005906B
:100EF0000D92AA33B107D9F727E0AAE3B1E001C008
:100F00001D92AA32B207E1F717E0CBE6D7E004C0A2
:100F10002197FE010E94AA2FCA36D107C9F70E9465
:100F2000152B0C94D02F0C9400000F931F93CF938C
:100F3000DF93DC0177FF15C0EE27FF27E61BF70BD9
:100F4000842F042E000C990BE817F9072CF4460F98
:100F500070E060E0141654F0DF91CF911F910F9173
:100F600008951416CCF760347105B4F7A038B105B4
:100F700098F7362FCB01840F911D47FD9A95813448
:100F8000910514F040E4461B37709FEF032E01C01B
:100F9000990F0A94EAF7430F631B710977FF02C0A8
:100FA000695F7F4F83E0759567958A95E1F7FB014F
:100FB000F695FE2FEE27F795E795EA0FFB1FE25E09
:100FC000FC4F68E070E0AFEFB0E014162CF648304C
:100FD00064F4EB01C41BD10947FDD3958D0102C018
:100FE00015950795CA95E2F790238081211108C0D5
:100FF0009095982390834850E058FF4F9FEFE5CF9E
:10100000982BF8CF0F93CF93DF9397FF0CC0EE2769
:10101000FF27E81BF90B4E171F0609F00CF47CC0E4
:10102000480F90E080E077FF0FC0AA27BB27A61BE0
:10103000B70BE22F022E000CFF0BAE17BF070CF010
:101040006BC0260F70E060E0442309F465C080386F
:1010500091050CF061C012160CF05EC06034710591
:101060000CF05AC0FC01E40FF11DE138F10514F059
:1010700040E8481B562FFB01E20FF11D27FDFA95B2
:10108000E134F10514F020E4261B57703FEF052EE4
:1010900001C0330F0A94EAF7250F651B710977FF2A
:1010A00002C0695F7F4F53E0759567955A95E1F7E8
:1010B0007695762F662777956795860F971F825EC0
:1010C0009C4FA8E0B0E0CFEFD0E012162CF528300E
:1010D00064F4BD01621B710927FD7395FE0102C016
:1010E000F595E7956A95E2F73E2301110DC030951D
:1010F000FC01542F6081632361935150D9F728502C
:1011000080589F4F3FEFE1CFFC01542F6081632B4C
:1011100061935150D9F7F3CFDF91CF910F9108959B
:101120002F923F924F925F926F927F928F929F92F7
:10113000AF92BF92CF92DF92EF92FF920F931F93E5
:10114000CF93DF93CDB7DEB72B970FB6F894DEBF02
:101150000FBECDBF10E0F801E60FF71FF7FDC2C0CC
:10116000603871050CF0BEC0FA01EE0DF11DF7FDFF
:10117000B9C0403451050CF0B5C0DA0157FF04C0C6
:10118000AA27BB27A41BB50BA770BB27FA0157FDE5
:101190003796F595E795F595E795F595E79557FF1A
:1011A00007C0319748E050E04A018A1A9B0AD401EF
:1011B0004E2C469446944694512C4E2D477019F06F
:1011C0004FEF441A540AAF01261B370B4E0E5F1E19
:1011D0003F017694762C6624779467945B01A60C85
:1011E000B71C860F971F680E791EF12CE12CC501E4
:1011F00080589F4F9B878A8788E090E04C018A1A2D
:101200009B0A9C828B824416550609F46BC04830B9
:10121000510509F467C04F3F8FEF58070CF457C0D2
:1012200047018A0C9B1C9A8289822A843B842E0C5B
:101230003F1C6701C60CD71CDE82CD82CB0197FD17
:1012400036C04F3F540709F44AC0FC01E20FF31FB8
:10125000E491F0E06F010A2E01C0CC0C0A94EAF789
:10126000ED81FE81D488CD28C48A109701F14730E2
:101270005105E9F0FC01E20FF31F8490CD80DE8080
:10128000E981FA81CE1ADF0AC20CD31CE82DF0E006
:101290004F010B8002C0959487940A94E2F79986D7
:1012A0008886F6018488F8858F2AF601848A01965B
:1012B000ED81FE813196FE83ED83FC01E61BF70B89
:1012C000E017F10724F48038910509F0B8CF4F5F9B
:1012D0005F4F200F311FF0E8EF0EF11C94CF1097F5
:1012E00049F6E5CF2B960FB6F894DEBF0FBECDBF03
:1012F000DF91CF911F910F91FF90EF90DF90CF90F2
:10130000BF90AF909F908F907F906F905F904F9025
:101310003F902F9008958EE193E020E0B22FB1111D
:10132000BFEFFC010024B193B193B193B193039447
:10133000D1F70895FC018091B202882311F13FB7E3
:10134000F89482E08093E9002091F200822F90E0EF
:101350001816190614F481E090E0882339F02898D3
:1013600044E64093B1024091F1004083222339F0DA
:101370002091F200211103C02BE62093E8003FBF2B
:1013800008958FEF9FEF08952FB7F89483E080932F
:10139000E9009091E800892F807295FF04C0909138
:1013A000F20080E4891B2FBF08958091A90281116A
:1013B0000DC082E08093A50284E08093A602109283
:1013C000A8021092A70281E08093A90285EA92E028
:1013D0000895CF93DF931F92CDB7DEB76983DC0109
:1013E000ED91FC910280F381E02D41E050E0BE01DF
:1013F0006F5F7F4F09950F90DF91CF91089583E044
:101400008093E9008091F200882319F08AE38093A9
:10141000E80008950E94C40990E00895CF93DF93F7
:101420001F92CDB7DEB7FC018485958597FD08C076
:101430002FEF3FEF358724870F90DF91CF910895ED
:10144000CE0101960E949A09019719F4898190E0D2
:10145000F3CF8FEF9FEFF0CF0F931F93CF93DF93D7
:101460001F92CDB7DEB78C01FC018485958597FF6F
:101470000BC0CE0101960E949A09019771F48981EF
:1014800090E0F80195878487F801848595850F9011
:10149000DF91CF911F910F9108958FEF9FEFF1CFC3
:1014A000FC018485958597FD0BC09FB7F89482E079
:1014B0008093E9008091F2009FBF90E0019608952B
:1014C0009FB7F89482E08093E9008091F2009FBF7B
:1014D00090E0089540919F025091A00220919D02BA
:1014E00030919E0242175307B4F49091E800957032
:1014F000E1F39091E80092FD19C08093F100809192
:101500009F029091A00201968F739927892B19F45D
:101510008EEF8093E80080919F029091A002019647
:101520009093A00280939F0281E0089580E0089547
:10153000EF92FF920F931F93CF93DF93F82E192F03
:10154000E62E042F81E0860F880F0E946A0A83E04E
:101550000E946A0ACF2DD12FEC0EFD2EF11CCE1564
:10156000DF05B9F007FF13C0FE0184910E946A0AEB
:10157000182F80E00E946A0A812321968111EFCF03
:10158000DF91CF911F910F91FF90EF900895888187
:10159000EDCF81E0F5CFDF92EF92FF920F931F9393
:1015A000CF93DF93D82E8A01EB017B01E40EF51E69
:1015B000CE15DF0559F0D7FE12C0FE0184910E94BE
:1015C0006A0A21968111F4CF0FEF1FEFC801DF9156
:1015D000CF911F910F91FF90EF90DF900895888138
:1015E000EECF0F931F93CF93DF931F92CDB7DEB74C
:1015F00082E0898342E450E067E67EE080E80E9472
:10160000CB0A0E94D509DC0112960D911C9101159F
:10161000110589F0D801ED91FC910280F381E02D54
:10162000BE016F5F7F4FC801099597FD04C0F801A7
:1016300000851185ECCF89810F90DF91CF911F91AB
:101640000F910895615030F02091F100FC0120834A
:101650000196F8CF289884E68093B1020895AF925E
:10166000BF92CF92DF92EF92FF920F931F93CF938F
:10167000DF936C017B018B01040F151FEB015E01F1
:10168000AE18BF08C017D10759F06991D601ED9186
:10169000FC910190F081E02DC6010995892B79F725
:1016A000C501DF91CF911F910F91FF90EF90DF90D7
:1016B000CF90BF90AF900895282F30E0F901E75404
:1016C000F24F9491F901EA50F24F84912D5D314F20
:1016D000F9012491222309F430C09923E9F09150B3
:1016E0009F30D0F4E92FF0E0E858F44F0C94AA2F83
:1016F000A60BAA0B870B9E0BA20B8C0B8C0B8C0BD7
:10170000AD0BB30BB70BBB0BC10B8C0BC50B909187
:1017100080009F7790938000E22FF0E0EE0FFF1F94
:10172000EB5EF14FA591B4919FB7F894EC916111E4
:1017300032C080958E238C939FBF08959091800036
:101740009F7DE8CF90918000977FE4CF94B59F77FD
:1017500094BDE2CF94B59F7DFBCF909190009F7791
:1017600090939000D9CF909190009F7DF9CF909168
:101770009000977FF5CF9091C0009F779093C00025
:10178000CBCF9091C0009F7DF9CF9091C200977F01
:101790009093C200C1CF8E2BCECFCF93DF9390E03A
:1017A000FC01EA50F24F24918D5D914FFC01849130
:1017B0008823C9F090E0880F991FFC01E652F24F90
:1017C000A591B491FC01EB5EF14FC591D4916111EB
:1017D0000DC09FB7F8948C91209582238C938881BB
:1017E000282328839FBFDF91CF910895623051F461
:1017F0009FB7F8943C91822F809583238C93E88146
:101800002E2BEFCF8FB7F894EC912E2B2C938FBF0C
:10181000EACF1F93CF93DF93182FEB0161E00E9473
:10182000CD0B209739F460E0812FDF91CF911F918C
:101830000C945C0BCF3FD10511F461E0F5CFE12FA3
:10184000F0E0E754F24FE491E150EF3008F07FC050
:10185000F0E0E35DF34F0C94AA2F3C0C440C490CD0
:10186000530C5D0CA70CA70CA70C670C710C7B0C20
:10187000850C920CA70C9A0C84B5806884BDC7BDFA
:10188000DF91CF911F91089584B5806284BDC8BD5A
:10189000F7CF80918000806880938000D09389008A
:1018A000C0938800EDCF809180008062809380009B
:1018B000D0938B00C0938A00E3CF80918000886032
:1018C00080938000D0938D00C0938C00D9CF8091FD
:1018D0009000806880939000D0939900C093980006
:1018E000CFCF80919000806280939000D0939B0036
:1018F000C0939A00C5CF809190008860809390003B
:10190000D0939D00C0939C00BBCF8091C0008068A5
:101910008093C0008091C0008F7B8093C000C093F3
:10192000CF00AECF8091C00080628093C000C09392
:10193000D000A6CF8091C20088608093C2008091C1
:10194000C2008B7F8093C200C093D20099CFC03871
:10195000D1050CF072CF67CF0F931F93CF93DF9316
:10196000062F142FCFEFD0E0BE01681B71098AE06B
:101970000E94090CBE01601B71098BE00E94090CDA
:10198000BE01611B710989E0DF91CF911F910F9119
:101990000C94090C3FB7F8948091860290918702CD
:1019A000A0918802B091890226B5A89B05C02F3F5F
:1019B00019F00196A11DB11D3FBFBA2FA92F982F75
:1019C0008827BC01CD01620F711D811D911D42E070
:1019D000660F771F881F991F4A95D1F708958F9238
:1019E0009F92AF92BF92CF92DF92EF92FF924B0104
:1019F0005C010E94CA0C6B017C010E94CA0C6C192C
:101A00007D098E099F09683E734081059105A8F301
:101A100021E0821A9108A108B10888EEC80E83E07F
:101A2000D81EE11CF11C81149104A104B10429F712
:101A3000FF90EF90DF90CF90BF90AF909F908F90EE
:101A400008958F929F92AF92BF92CF92DF92EF92C2
:101A5000FF920F931F93CF93DF936C017B018A0159
:101A600080910B01882309F45CC08091B202882325
:101A700009F457C08091A40280FF05C08091E00066
:101A800082608093E000E801B12C8AEFA82E93E0F9
:101A9000892E2AE3922E209711F4BB20D9F10E94BF
:101AA000C40981110AC0AA94AA20D9F161E070E0AA
:101AB00080E090E00E94EF0CEECF8C171D0611F035
:101AC0000CF08C2F9FB7F8948092E9002091E800E9
:101AD00025FD02C09FBFDFCF282F30E0C21BD30BF4
:101AE000F701815020F041914093F100FACFE20ECE
:101AF000F31EBB2021F09092E800B12CEBCF809137
:101B0000E80085FDE7CF9092E800BB24B3942097CE
:101B100009F3F3CF5D9884E68093A30210161106B3
:101B20003CF081E090E0F6019383828310E000E0D6
:101B3000C801DF91CF911F910F91FF90EF90DF903F
:101B4000CF90BF90AF909F908F9008954FB18CB180
:101B500023B190E08095909533E0959587953A95DF
:101B6000E1F7887030E020953095359527953595CB
:101B700027952470822B942F9095907F892B089520
:101B800083B7817F83BF83B7816083BF889583B725
:101B90008E7F83BF0895E0919502F0919602908127
:101BA00080919402982B9083A0919202B09193021D
:101BB0002C9190919102909592239C939081809585
:101BC000892380830895E0919202F09193028081AD
:101BD00090919102892B8083E0919502F091960279
:101BE0009081809194028095892380830895CF927B
:101BF000DF92EF92FF920F931F93CF93E82FF0E0C5
:101C0000E852F24FC491E62FF0E0603398F5E757C1
:101C1000F24FE4910E2F10E0F12CE12C60E074E221
:101C200084EF90E0A70198010E94172F21503109FD
:101C30004109510991E02115310581E0480751051D
:101C40006CF060E970ED83E090E0A70198010E94DC
:101C5000172F215031094109510993E0C13089F012
:101C6000C330F9F0CF911F910F91FF90EF90DF906B
:101C7000CF900895EE0FFF1FE757F34F0591149192
:101C8000CBCF80918100887F892B80938100309316
:101C900089002093880080916F00826080936F009C
:101CA000E1CF80919100887F892B809391003093C0
:101CB000990020939800109384020093830281E09E
:101CC0008093820280917100826080937100CACFFC
:101CD000E82FF0E0E852F24FE491E13019F0E33000
:101CE00089F0089580916F008D7F80936F008091BF
:101CF0008D02E0918E02F0918F0290818095892370
:101D0000808308951092820280918A02E0918B0272
:101D1000F0918C02F2CFE091B502F091B602BF01D2
:101D20006F5F7F4F7093B6026093B5022491922F3C
:101D3000907F822F8F70903819F40E94680EEBCF3D
:101D4000903981F43296F093B602E093B502FB012C
:101D500064919091B3028917F0F667FDDCCF0E9481
:101D6000F70DD9CF903E49F48091B7029091B80217
:101D70009093B6028093B502CECF903F19F41092A3
:101D8000B402089597FDC7CF3296F093B602E09360
:101D9000B502FB016491A0918302B0918402322FBD
:101DA000262F0E946B2F6C507E4F8F4F9F4F28EE37
:101DB00033E040E050E00E94492F20937E023093B0
:101DC0007F02409380025093810280917E02909125
:101DD0007F02A0918002B0918102892B8A2B8B2BEC
:101DE00061F481E090E0A0E0B0E080937E02909307
:101DF0007F02A0938002B093810208950F931F93F6
:101E0000CF93DF932091B902222329F1162FEC0101
:101E10008091B402882381F0809128078617D8F03A
:101E200000E08091B302081728F4802F0E94680E0A
:101E30000F5FF7CF1092B40210932807D093B80227
:101E4000C093B702D093B602C093B5020E948B0E26
:101E500081E08093B402DF91CF911F910F9108959B
:101E600060387105E8F440345105D0F4342F3695CC
:101E700036953695A0E83A9FF0011124E60FF71F3A
:101E8000E80FF91F3489CA018770992741E050E0B3
:101E900001C0440F8A95EAF7222319F0432B448BA3
:101EA000089540954323FBCF2F923F924F925F922C
:101EB0006F927F928F929F92AF92BF92CF92DF925A
:101EC000EF92FF920F931F93CF93DF93CDB7DEB7BF
:101ED0002D970FB6F894DEBF0FBECDBF6A3069F5FF
:101EE000FC01EA5EFB4FDC01A85EBB4F2C9148E091
:101EF000249F9001112440815181240F351F31838B
:101F0000208314971D921C922D960FB6F894DEBF75
:101F10000FBECDBFDF91CF911F910F91FF90EF903A
:101F2000DF90CF90BF90AF909F908F907F906F90F9
:101F30005F904F903F902F9008956D3029F39D87CB
:101F40008C878C5E9B4F9A838983FC018080918073
:101F50002C853D85285E3B4F3C832B8330E88316E0
:101F600091040CF071C0EC85FD85EA5EFB4F60804A
:101F7000718040E4641671040CF066C0AB81BC81D2
:101F80004C9045E09401449E200D311D1124121601
:101F900013060CF059C0242C312C910153E0220F70
:101FA000331F5A95E1F7260D371D121613060CF054
:101FB0004BC0649FB001112410E000E0FB01E75129
:101FC000F84FFB87EA87E0E0053029F0EA85FB85DA
:101FD000E00FF11FE491530198E0592E2E2F30E0CD
:101FE0003E832D83E170EF83F12CE12CE414D8F4CF
:101FF000C4018E0D9F1D99878887D12CC12CC414D4
:1020000070F4A6014A0D5B1D2F81688579858C854A
:102010009D850E94300F9FEFC91AD90AF0CFAFEF0C
:10202000EA1AFA0AE3CFED81FE81F595E7955A9415
:10203000A20CB31C5110D2CF0F5F1F4F820C931C08
:102040000630110509F0BFCFEB81FC812081422FC2
:1020500050E0A981BA818D919C91B6E02B9F800DB3
:10206000911D1124E981FA8191838083EC85FD859E
:10207000E75EFB4F2081222309F446CF6AEF640319
:102080009001659F300D112420583F4F28173907C4
:102090000CF03ACFAC85BD85ED91FC911197019084
:1020A000F081E02D6AE0CD012D960FB6F894DEBFE9
:1020B0000FBECDBFDF91CF911F910F91FF90EF9099
:1020C000DF90CF90BF90AF909F908F907F906F9058
:1020D0005F904F903F902F900994AF92BF92CF9214
:1020E000DF92EF92FF920F93CF93DF936C015B012E
:1020F0007A01E20EF11CEA0157FF02C0D0E0C0E015
:10210000C70121E4E216F10414F080E490E0C8175E
:10211000D90744F4202FAE01B501C6010E94300F4B
:102120002196EECFDF91CF910F91FF90EF90DF904E
:10213000CF90BF90AF9008957F928F929F92AF9271
:10214000BF92CF92DF92EF92FF920F931F93CF93A4
:10215000DF936C017B01722E8C01040F111DEC01C9
:1021600021E0A701BE018AE093E00E94300F5E01EA
:102170008FEFA81AB80A0A151B0581F54701870CCD
:10218000911C81E0881A9108860121E0A401B80120
:102190008AE093E00E94300F0F5F1F4F0A151B0566
:1021A000A4F301E0272DA701B6018AE093E00E9485
:1021B0006D10272DA701BE018AE093E00E946D10EB
:1021C000DF91CF911F910F91FF90EF90DF90CF9013
:1021D000BF90AF909F908F907F900895E501C0CF02
:1021E0008091720280937502833061F49091740241
:1021F000943029F490912707907909F084E0815078
:102200009EE103C09AE08230D4F7899F802D11248B
:102210008093730284E090E0909378028093770239
:1022200081E08093760208959C0190914C02973052
:102230006CF484E09802F0011124E55DFD4F3383D6
:102240002283718360839F5F90934C020895CF93A4
:10225000C0912A02C150C0932A022C2F2F50330B59
:10226000C90163E070E00E94962F862F4AE35AEA84
:1022700063EE7EEE04C076956795579547958A95EF
:10228000D2F74170409329028FE7489F402D1124D7
:1022900060E080E00E94AC0C81E090E0CC2311F083
:1022A00090E080E0CF91089588E780932A02089516
:1022B0008091600190915F0190935D0180935E0138
:1022C000209161019091620187FF1CC0892F809548
:1022D000881F8827881F20935F01909360012091B9
:1022E000630190916401811105C0892F8095881F39
:1022F0008827881F20936101909362019FEF90933C
:102300006401089581E0E7CF0F931F93CF93DF938C
:1023100030E020E0C42FD0E08E010F5F1F4F76E049
:10232000F901EC0FFD1FE695E170E80FD801A20F4F
:10233000B31FA695A170562F5A1BE630E0F457FD47
:102340001AC05E307CF45703D0011124EA0FFB2F32
:10235000F11DEE0FFF1FE358FE4F0190F081E02DBD
:10236000EF2B49F4453029F02F5F3F4F23303105E3
:10237000B9F681E001C080E0DF91CF911F910F910C
:1023800008952F923F924F925F926F927F928F9219
:102390009F92AF92BF92CF92DF92EF92FF920F93F4
:1023A0001F93CF93DF9380912502885F809325024E
:1023B00006E058E2652E712C8091250280340CF4E1
:1023C000F1C020914C0130914D012530310509F0CB
:1023D000E9C080548093250210912802C091260202
:1023E000D12FDC1B1D1336C080912707847262E059
:1023F00059F185E693E00E94FE0E81E0D11191C073
:10240000809127021003F0011124E80FF11D87FDD0
:10241000FA95EE0FFF1FE358FE4F11821082809154
:102420004A01882309F486C0D093710182E090E0CC
:1024300090934D0180934C017092770160927601E8
:1024400091E090937602B8CF83E493E00E94FE0E71
:1024500080E0D4CF90914B0180914A01A091580126
:10246000B091590120904901312C80904501909004
:102470004601A0904701B0904801C0907201D090F1
:102480007301E0907401F09075012CE0D2022001FC
:10249000112430E020E0F901EE0FFF1FE40DF51DDF
:1024A000E358FE4F4081518147305105E1F41182DC
:1024B000108291508F5F1196682F70E06F5F7F4F91
:1024C000629DA001639D500D729D500D1124052E3B
:1024D000000C660B770B840E951EA61EB71EC40E4D
:1024E000D51EE61EF71E2F5F3F4F2630310599F6A9
:1024F00090934B0180934A01B0935901A0935801E6
:102500008092450190924601A0924701B092480105
:10251000C0927201D0927301E0927401F092750141
:1025200097CFCF5FC0932602C8300CF069CF8111DE
:1025300067CF42CF2091490130E0A0EDB7E00E9483
:102540006B2F609372017093730180937401909369
:102550007501C0904501D0904601E0904701F09090
:102560004801DC01CB018C0D9D1DAE1DBF1D80936C
:10257000450190934601A0934701B0934801809193
:1025800056019091570197FD019695958795209159
:10259000580130915901820F931F909359018093F4
:1025A000580142CFDF91CF911F910F91FF90EF9093
:1025B000DF90CF90BF90AF909F908F907F906F9063
:1025C0005F904F903F902F9008958F929F92AF927F
:1025D000BF92CF92DF92EF92FF920F931F93CF9310
:1025E000DF938091250290914401891B80932502FD
:1025F000E6E0CE2EC2E0D0E008E210E09924939409
:102600008091250287FF33C120914C0130914D010B
:102610002430310509F02BC1805C809325020E9493
:10262000581180902802A82C082C000CBB08D090D0
:102630002702ED2C0D2C000CFF08CA9CF001CB9C4E
:10264000F00D1124EE0DFF1DEE0FFF1FE358FE4F9E
:1026500080819181079709F052C080914B01815090
:1026600080934B0180914A018F5F80934A012091B2
:102670005801309159012F5F3F4F309359012093FA
:10268000580190E0019640914901489F9001499F6F
:10269000300D1124C901330FAA0BBB0B409145012A
:1026A000509146016091470170914801480F591FB0
:1026B0006A1F7B1F40934501509346016093470179
:1026C00070934801409172015091730160917401BF
:1026D00070917501840F951FA61FB71F809372011B
:1026E00090937301A0937401B0937501D09263012C
:1026F0008092640162E085E393E00E94FE0ECA9C32
:10270000F001CB9CF00D1124EE0DFF1DEE0FFF1F0D
:10271000E358FE4F118210821814BCF4C5010197D2
:10272000C89EF001C99EF00D1124EE0DFF1DEE0FA5
:10273000FF1FE358FE4F80819181019731F08A9409
:102740008092280210927C015BCF91E0DD20A1F005
:10275000CA9CF001CB9CF00D1124C7010197E80F32
:10276000F91FEE0FFF1FE358FE4F91E020813181EA
:102770002130310509F090E080917C018260982B36
:1027800085E0D81609F45AC0CA9CF001CB9CF00D24
:1027900011248FEFE81AF80AEE0DFF1DEE0FFF1F50
:1027A000E358FE4F81E0208131812130310509F06D
:1027B00080E0880F880F892B80937C01873009F097
:1027C0003FC08092710180914B0181112CC080919A
:1027D0004A018A3040F18091720190917301A09179
:1027E0007401B0917501409145015091460160918D
:1027F000470170914801480F591F6A1F7B1F409382
:102800004501509346016093470170934801880F3A
:10281000991FAA1FBB1F8093720190937301A0930D
:102820007401B0937501D0934D01C0934C01109386
:1028300077010093760190927602E2CE81E0B9CFE3
:1028400020912602082E000C990B31E0320F02C0B5
:10285000959587953A95E2F780FF03C021952093DF
:10286000260280912602D80ED0922702C9CEDF918F
:10287000CF911F910F91FF90EF90DF90CF90BF907D
:10288000AF909F908F9008958091760190917701FD
:1028900001979093770180937601181619060CF42E
:1028A0008AC040917801509179019FEF80E030E03B
:1028B00020E0BA01022E02C0759567950A94E2F7EE
:1028C00060FF04C08F5F9F3F09F4922F2F5F3F4F3F
:1028D0002E30310571F790937101982F990F990F50
:1028E000482F491B440F90914301E42FE90FE093D7
:1028F000430190E0BC0161507109689F9001699F9C
:10290000300D789F300D1124C901019620914901A5
:10291000289FD001299FB00D112424E130E00E94AE
:10292000B02F9B01AC01209372013093730140934F
:1029300074015093750180914A018823A1F0E1113F
:102940003BC080914B01811137C063E070E080E0B3
:1029500090E00E947A2F60937201709373018093CC
:102960007401909375018091450190914601A09169
:102970004701B091480140917201509173016091FB
:10298000740170917501840F951FA61FB71F809366
:10299000450190934601A0934701B093480182E01E
:1029A00090E090934D0180934C0188E290E09093E9
:1029B000770180937601089562E070E080E090E016
:1029C000C8CFEF92FF920F931F93CF93DF93209185
:1029D000270720748091260790E08095909550E01D
:1029E000822395233091700140913D01892B41F064
:1029F00081E080933E01842F403258F480E209C088
:102A0000211102C010923E01842F90913E0191113C
:102A1000F3CF381B309370010EE110E0C0917001CC
:102A2000C7FF48C0D0916E01D15040916F016D2F0A
:102A300080916D010E948411F0903E01882329F15C
:102A4000D0936E01FF2099F080914501909146014D
:102A5000A0914701B09148010196A11DB11D80933D
:102A6000450190934601A0934701B0934801C05C93
:102A7000C09370011093770100937601CFCF219717
:102A8000D0937701C0937601C9CF10927001C091A5
:102A90007601D0917701CE31D10529F463E08BE145
:102AA00093E00E94FE0EFF2051F3109277011092E6
:102AB0007601B4CF809176019091770118161906AE
:102AC000ECF5C0913C01CC2369F080916D01C80FF9
:102AD00040916F0160916E018C2F0E9484118111D1
:102AE000C0936D018091260790E08095909520918C
:102AF0002707247230E082239323892B09F470C0C6
:102B0000C0916F01C53009F46BC0CF5FC3704C2F0B
:102B100060916E0180916D010E948411882309F4F7
:102B20005FC0C0936F0163E089E992E0DF91CF91CC
:102B30001F910F91FF90EF900C94FE0E10916F017A
:102B400000916D01F0906E0120914B013091430195
:102B500090E080E0412F012E000C550BBA016F5F11
:102B60007F4FB6E0EB2EFC01E40FF51FE695E17018
:102B7000E00FE63010F5DB01A80FB91FA695A17094
:102B8000FF2DFA1BAF2FFE30C0F4EC01CC0FDD1F80
:102B9000C959DE4F0990D881C02DEA9ED001112479
:102BA000EA0FFB2FF11DEE0FFF1FE358FE4FD183FD
:102BB000C083C130D105D9F43F5F153021F00196B3
:102BC0008330910581F63093430120934B0182E0DD
:102BD00090E090934D0180934C0181E080937602C8
:102BE000DF91CF911F910F91FF90EF90089527975C
:102BF00021F72F5FE2CF50915501852F6AE00E94A7
:102C00008A2F482F889FC0011124843091050CF42D
:102C100049C095958795282F30E0852F65E00E9463
:102C20008A2FE92FF0E0852F6AE00E948A2F9530E5
:102C3000D8F182E090E0E89FB001E99F700DF89F25
:102C4000700D11246C5F7F4F629FC001639F900DD8
:102C5000729F900D11249595879595958795813450
:102C600008F080E480933D0183E0840F880F4111D8
:102C700001C088E0893108F088E18093440121E0B7
:102C8000240F822F443028F4852F64E10E948A2F7C
:102C90008D5F80935401822F880F880F820F80935D
:102CA0004901089581E0B7CF81E090E0C4CF6FEF94
:102CB0008CEA91E00C94FE0E0E94571683E090E09F
:102CC000909378028093770281E080937602089552
:102CD0000E94571682E090E09093780280937702EA
:102CE00081E08093760208950E9457161092530255
:102CF00010925402109255021092560285E090E014
:102D000090935C0180935B0108950E94571682E0C6
:102D100090E090935C0180935B0181E08093760268
:102D20000895882349F080916500877F809365002E
:102D300081E08093B90208951092B90280916500F4
:102D40008860809365000895CF938091260790E076
:102D50008095909520912707207230E0822393235D
:102D6000892BD9F0809172021816BCF48150982FEB
:102D7000815024E09202F0011124E55DFD4F208195
:102D80003181232BA1F3909372026FEF88EF94E0CF
:102D90000E94FE0E81E0809371028091260790E0F0
:102DA0008095909520912707207430E0822393230B
:102DB000892B39F180917202482F082E000C550B97
:102DC00020914C02022E000C330B21503109421786
:102DD0005307BCF48F5F982F8F5F24E09202F001BD
:102DE0001124E55DFD4F20813181232BA1F39093C8
:102DF00072026FEF88EF94E00E94FE0E81E08093F4
:102E0000710280914D028823B9F080912707887064
:102E100090E02091260730E020953095822393237F
:102E2000892B51F08091B902C1E08C270E94911644
:102E30000E945716C09371028091260790E08095FA
:102E4000909520912707247030E082239323892BCB
:102E500069F0E091720284E0E802F0011124E55D7E
:102E6000FD4F0190F081E02DCF910994CF9108950D
:102E7000E7E5F2E025E030E089E39EE561917191BC
:102E8000629FA001639F500D729F500D1124840F0B
:102E9000951F2E5F3F4F2F31310581F708952F92F7
:102EA0003F924F925F926F927F928F929F92AF92DA
:102EB000BF92CF92DF92EF92FF920F931F93CF9327
:102EC000DF93CDB7DEB72B970FB6F894DEBF0FBEFA
:102ED000CDBF6A3081F5FC01EC5EFB4FDC01A85EE2
:102EE000BB4F4C912081318156E0459F200D311D13
:102EF00011243183208312978FE390E08D939C936C
:102F000081E090E02B960FB6F894DEBF0FBECDBFE8
:102F1000DF91CF911F910F91FF90EF90DF90CF90B5
:102F2000BF90AF909F908F907F906F905F904F90E9
:102F30003F902F90089520EE260F203408F79B87AE
:102F40008A87FC01EC5EFB4FE080F180885E9B4F3E
:102F50009F838E83EA85FB85EA5EFB4FFC83EB83D0
:102F6000F0E8EF16F1040CF05CC0DC017C90E72D7A
:102F7000F0E0FA83E983F6E07F9EC0011124AB8183
:102F8000BC810D911C919C01215C3F4F20173107A2
:102F900008F447C08E0D9F1D97FD43C0EA85FB8551
:102FA000E55EFB4F6080EA85FB85E65EFB4F508067
:102FB000B4E06B9FF0011124E45DFF4F8590959084
:102FC000A590B490E1E07E1259C036E0732ED12C6A
:102FD000C12CD501C40181709927AA27BB2780FC89
:102FE00002C0651471F0252D892B8A2B8B2B09F4D7
:102FF000262DA801B7016C0D7D1D8A859B850E9439
:10300000300FB694A79497948794FFEFCF1ADF0AF6
:1030100026E0C216D104E9F67A9401501109711024
:10302000D6CFAE81BF812C913AEF3203A00111249B
:10303000AB81BC818D919C911197480F591F4D9385
:103040005C93EA85FB85E75EFB4F8081882309F46A
:1030500057CFB6E02B9FC00111240197481759079D
:103060000CF04ECFAA85BB85ED91FC911197019094
:10307000F081E02D6AE0CD01099542CF0F5F1F4F2F
:10308000180189819A81281A390A16E0670196E0A9
:10309000492EA981BA81AC0DBD1DB987A887D5017C
:1030A000C40181709927AA27BB2780FC02C0651440
:1030B000C1F0892B8A2B8B2B91F05D82E885F985F5
:1030C000CE16DF0674F40D81272DA101B6018A8585
:1030D0009B850E946D10FFEFCF1ADF0AEFCF6D8244
:1030E000EDCFB694A794979487944A94C884D984D2
:1030F0004110CFCF115029813A81221A330A111180
:10310000C5CF8FCF0F931F93CF93DF938C01D0E068
:10311000C0E0F801EC0FFD1F6491662341F08AE0E6
:1031200093E00E944F17892B11F02196F2CFCE0128
:10313000DF91CF911F910F9108958F929F92AF923F
:10314000BF92CF92DF92EF920F93CF93DF930E94C3
:103150008B0920912A0288E790E0821B91096CE29A
:1031600070E00E94962F4B012CEFC22E23E0D22E4E
:103170003BE2A32EB12CD0E0C0E081E090E08C16C1
:103180009D0611F090E080E020912902289FB00177
:10319000299F700D1124665D7F4F95E1E92E0CE1AA
:1031A0009601A5018AE093E00E949008219685E1AE
:1031B000A81AB10884E5C80ED11CC330D105E9F6C0
:1031C00080E2E82E08E02CED33E050E040E068E4D7
:1031D00070E08AE093E00E9490088CE590E0909384
:1031E0001F0780931E0785E390E09093210780934B
:1031F000200784ED93E00E94821882E690E090938D
:103200001F0780931E0788E390E090932107809327
:1032100020078BEC93E0DF91CF910F91EF90DF903F
:10322000CF90BF90AF909F908F900C94821808958C
:1032300090E080E0089597FF0DC022273327281BD8
:10324000390B4217130629F024F0480F90E080E074
:1032500031F408954423E9F380389105D4F76034BC
:103260007105B8F79C01240F311D2138310514F088
:1032700040E8481B362F377021E001C0220F3A95F5
:10328000EAF7FB0133E0F595E7953A95E1F7F69516
:10329000FE2FEE27F795E795E80FF91FE25EFC4F4A
:1032A0008081822B81934150D9F7D3CFEF92FF9247
:1032B0000F931F93CF93DF937C01EB01142F022F09
:1032C0000E941B19BE01600F711D07FD7A956150A8
:1032D0007109412FC7010E941B190250219621E05C
:1032E000402FBE01C7010E949507C701810F911DA4
:1032F00021E0402FBE010197DF91CF911F910F91E7
:10330000FF90EF900C949507AF92BF92CF92DF920F
:10331000EF92FF920F931F93CF93DF9310914F0281
:10332000D0905002E09051020E2C000CFF08E11AE0
:10333000F10817FDF394C09152020C2E000CDD0B26
:1033400022E0210F42E04D0D00E0B701CE010197D0
:103350000E94020880914E02882359F024E0210F38
:1033600044E04D0DB70161507109CE0102970E94F2
:103370005619D12CC12C2BE2E22E22E0F22E8091A4
:103380004C02082E000C990BC816D906E4F5F7017B
:1033900082819381892BA9F160915102062E000C44
:1033A000770B808191815B01892B19F0FCE0AF1ACA
:1033B000B10880917202082E000C990BC816D9062C
:1033C00059F46550710901E025E045E0CE010E9405
:1033D000020884E0A80EB11CF70182819381D0938A
:1033E0001F07C0931E07B0922107A09220070E94DA
:1033F00082182696FFEFCF1ADF0A84E0E80EF11C50
:10340000BECF2296F7CF80914D02882341F100E094
:1034100026E148E070E060E088E790E00E94020862
:103420002091B902E7E02E9F90011124245F3A4FCA
:1034300086E0E82E07E050E040E069E770E08AE0CF
:1034400093E00E9490089FE0E92E2EEF34E046E0E2
:1034500050E069E770E08AE093E00E9490081092E3
:103460007102DF91CF911F910F91FF90EF90DF904C
:10347000CF90BF90AF9008958F929F92AF92BF92DE
:103480000F931F93CF93DF93CDB7DEB7A1970FB6FE
:10349000F894DEBF0FBECDBF19A2423008F44AE057
:1034A0008E010F5D1F4F842E912CB12CA12CA501F4
:1034B00094010E94492FE62FB901CA01EA3044F570
:1034C000E05DD801EE938D01232B242B252B79F77A
:1034D00090E080E0109769F0FD0101900020E9F78D
:1034E0003197AF014A1B5B0BBD018AE093E00E945C
:1034F0002F0BA1960FB6F894DEBF0FBECDBFDF91A4
:10350000CF911F910F91BF90AF909F908F90089592
:10351000E95CD7CFCF92DF92EF92FF92CF93DF9308
:1035200097FF1BC06B017C016DE28AE093E00E9473
:103530004F17EC0166277727CB016C197D098E099F
:103540009F094AE00E943C1A8C0F9D1FDF91CF918A
:10355000FF90EF90DF90CF9008954AE0DF91CF91F8
:10356000FF90EF90DF90CF900C943C1A4F925F92B7
:103570006F927F92AF92BF92CF92DF92EF92FF92C3
:103580000F931F93CF93DF935C01EB0169017A01E5
:103590000115110519F1C801880F991F080F191F8E
:1035A0009601F7FE09C0C00FD11F22273327A901BA
:1035B0002C193D094E095F098AE0482E512C612CD7
:1035C000712CC00FD11FCA01B901A30192010E9441
:1035D000492F211531054105510599F7B0921F0773
:1035E000A0921E07D0932107C0932007C701B60100
:1035F000DF91CF911F910F91FF90EF90DF90CF90CF
:10360000BF90AF907F906F905F904F900C948A1A0C
:10361000CF93C82F6AE38AE093E00E944F17CA3025
:1036200028F460E38AE093E00E944F176C2F70E06B
:1036300090E080E04AE0CF910C943C1A0E94CB2F9E
:103640002F923F924F925F926F927F928F929F92B2
:10365000AF92BF92CF92DF92EF920F931F93CF93CF
:10366000DF9380917602882369F0C0917702D09130
:1036700078020E948B09C230D10509F450C028F5A8
:10368000219749F18091770290917802019749F44E
:1036900080917102811103C08091760281110E9494
:1036A000841910927602DF91CF911F910F91EF90C4
:1036B000DF90CF90BF90AF909F908F907F906F9052
:1036C0005F904F903F902F900895C330D10509F43B
:1036D00017C12497B9F6C0E4EC2E00E429E435E0E4
:1036E00050E040E068E070E08AE093E00E949008DB
:1036F000209153023091540240915502509156024C
:10370000211531054105510509F4BCCF02E010E057
:103710006FEF7FEF90E080E00E94B61AB3CF84E0B5
:1037200090E090931F0780931E0787E390E09093AB
:1037300021078093200788E797E00E9482188AE09B
:1037400090E090931F0780931E078BE290E0909388
:1037500021078093200781E797E00E948218412C7F
:10376000512C32014394A6E1CA2ED12CD0E0C0E006
:10377000B7E32B2E312CD0921F07C0921E078DE38A
:1037800090E090932107809320078DE697E00E94B8
:1037900082184E019FEF891A990AD0921F07C09292
:1037A0001E073092210720922007C301B2010E9418
:1037B0008A1ACC0FDD1FCC0FDD1FC95ADD4F2881BF
:1037C00039814A8150E002E010E061E070E0C6011A
:1037D0000E94B61A5601E6E0AE0EB11CE4E1EE2EF0
:1037E00005E029E437E04DE050E0B5018AE093E0E0
:1037F0000E9490082B8130E050E040E002E010E0B1
:103800006FEF7FEFC5010E94B61AFEE0CF0ED11C0C
:103810008FEF481A580A680A780AE401C530D105C2
:1038200009F0A9CF22E449E46FEF7FEF83E190E054
:103830000E949C1082E690E090931F0780931E07E1
:10384000CFE3D0E0D0932107C093200782E697E032
:103850000E94821820916F023091700250E040E087
:103860006FEF7FEF88E690E00E94B61A80E790E065
:1038700090931F0780931E07D0932107C0932007C2
:1038800088E597E00E94821840906B0250906C028D
:1038900060906D0270906E02C301B20120EC3BE4B7
:1038A00043E050E00E94492F63E270E086E790E039
:1038B0000E94B61AC301B20120E13EE040E050E0B0
:1038C0000E94492F6CE3862E912CA12CB12CCA01A9
:1038D000B901A50194010E94492F862F0E94081B5F
:1038E000C301B201A50194010E94492FCA01B90187
:1038F000A50194010E94492F862F0E94081BC2CE69
:1039000008E110E0CFE7D7E0FE0184918B3139F177
:1039100065E170E0CE010E94C32E5C016C01DD24E4
:1039200010931F0700931E07C601880F991F8C0D67
:103930009D1D4F969093210780932007CE010E94F2
:103940008218FFEFCF1ADF0ACC0DDD1D82E090E078
:10395000AA2011F086E090E0080F191FD5CF25E3CB
:1039600041E166E070E085E190E00E949C108ACE23
:10397000CF92DF92EF92FF92CF93DF938091770205
:1039800090917802019739F50E94A41680917702F0
:1039900090917802C2E0D0E0049711F0C1E0D0E04D
:1039A0000E94062E6C01990FEE08FF080E94CA0CB7
:1039B000C616D706E806F90631F06C257D258E255A
:1039C0009F250E94B12ECE01DF91CF91FF90EF9005
:1039D000DF90CF9008958091260790E08095909594
:1039E000209127072C7030E082239323892BB1F29A
:1039F0000E94571681E090E09093780280937702BE
:103A000080937602CBCF0F931F93CF93DF93809158
:103A1000770290917802892B09F053C080EE92E0F2
:103A200090934B0280934A02F999FECF80EE92E088
:103A30000E94E62E24EE32E030934B0220934A029D
:103A40006F3472448E44994009F0A6C0F999FECFB4
:103A50004AE150E064EE72E087E592E00E94CE2EEB
:103A6000C0914A02D0914B026A96D0934B02C09308
:103A70004A02F999FECFCE010E94EC2E8C012296CB
:103A8000D0934B02C0934A020E94381780179107C7
:103A900009F082C082E090E090934902809348024E
:103AA000109247028091B9020E949116109253021F
:103AB00010925402109255021092560281E08093A7
:103AC000750282E08093740220915A02809157021D
:103AD00090915802A0915902B0E02C3308F06CC0CC
:103AE00080343DE0930733E0A307B10508F064C0DC
:103AF00010924C0260EF70E180E495E00E94141196
:103B000060EF70E189E395E00E94141160EF70E1CD
:103B100080E395E00E94141180917402833034F0A8
:103B200060EF70E188E295E00E94141170E060E0BF
:103B300090E080E00E94141168E676E181E295E071
:103B40000E9414116CE576E18AE195E00E9414115F
:103B500080E5809352028FE38093510285E2809347
:103B6000500280E480934F0210924E0281E08093D5
:103B70004D0290917502909372028093710221E040
:103B800030E0309378022093770280937602DF91C1
:103B9000CF911F910F910895E7E5F2E08AE1DF01EF
:103BA0001D928A95E9F781E090E090934902809315
:103BB00048028093470276CF33E0309374022A356F
:103BC00030F48032914AA740B10508F491CF84E0E7
:103BD000809374028DCF4F925F926F927F92AF92DB
:103BE000BF92CF92DF92EF92FF920F931F93CF93EA
:103BF000DF93C0E7D0E0B12CA12C8EE1482E512CF0
:103C0000612C712C80917801909179010A2C02C06D
:103C1000959587950A94E2F780FF27C010E000E0B1
:103C20000E94622EC0907601D090770121E0C21AE6
:103C3000D1080D2C000CEE08FF08A30192010E9490
:103C4000172F21E06C157D058E059F050CF020E0F7
:103C500040E368E070E0C8018C0F9D1F0E9495074B
:103C60000F5F1F4F08301105D9F68FEFA81AB80A59
:103C7000289741F6DF91CF911F910F91FF90EF9020
:103C8000DF90CF90BF90AF907F906F905F904F90FC
:103C900008958F929F92AF92BF92CF92DF92EF9250
:103CA000FF920F931F93CF93DF9380915A0181501E
:103CB00080935A01811184C020915801309159019B
:103CC000809156019091570128173907DCF0281B85
:103CD000390B3093590120935801803921E0920724
:103CE0006CF424E630E0883C910514F428E230E0DE
:103CF000820F931F909357018093560111E081E04A
:103D000000E008C081E0909155019A3008F080E011
:103D100010E001E09091540190935A01C1E0D0E08D
:103D2000811102C0C3E0D0E09EE4C92E91E0D92EFB
:103D3000F12CE12C22E0822E912CA12CB12CEC163E
:103D4000FD060CF043C00E94622EA50194010E9462
:103D5000172F672B682B692BB1F587E090E0F601F0
:103D600091838083FFEFEF1AFF0A22E0C20ED11C7D
:103D700083E0E816F10419F7011102C0112399F04C
:103D80000E94622E9E01DD0F440B550B0E94172FDF
:103D9000EB01CC0FDD1F1123E9F0C25BDE4F85E0A4
:103DA00090E099838883DF91CF911F910F91FF90CD
:103DB000EF90DF90CF90BF90AF909F908F9008953D
:103DC00010E000E0AFCF81E090E0C9CFF6011182B2
:103DD0001082C8CF0E94622E22E030E040E050E026
:103DE0000E94172F672B682B692B29F484E090E041
:103DF000C25BDE4FD6CF83E090E0FACF80917601B0
:103E0000909177010197909377018093760118162E
:103E1000190644F186E0EEE4F1E0A7E6B1E0019096
:103E20000D928A95E1F70E94491E82E080936D0110
:103E30008EE080936E018091690190916A01892BD7
:103E400091F080E080936F011092700110927A01DE
:103E500010923E0110924A0181E090E090934D0152
:103E600080934C01089585E0EDCF8091730280939B
:103E7000550110924501109246011092470110928F
:103E8000480110924101109259011092580120E509
:103E900030E0309357012093560110924201109266
:103EA00072011092730110927401109275018C339B
:103EB00009F04DC080E49DE0A3E0B0E080934501AF
:103EC00090934601A0934701B0934801EDE7F1E0DC
:103ED0001182108213821282158214821782168236
:103EE00011861086138612863C9682E0E532F8072A
:103EF00079F78FEF80935E01809360018093620178
:103F0000809364011092430110924B0110923F0183
:103F10000E94FB158091540180935A010E94491E12
:103F200010924D0110924C0188E790E09093770138
:103F30008093760181E090E090935C0180935B0137
:103F40008093760260E082EB91E00C94FE0E8A355D
:103F500009F0BCCF80E291EAA7E0B0E08093450190
:103F600090934601A0934701B093480180EA90E006
:103F70009093570180935601A9CF0C94351FE6E02A
:103F8000F0E0DF01A81BB10987FDB395CD0154E036
:103F9000880F991F5A95E1F7EEE0F0E0E61BF10972
:103FA00067FDF3958E0F9F1F63E0880F991F6A9539
:103FB000E1F747FD495F459545954595841B910976
:103FC00047FD93952530310531F440916B0240FF58
:103FD00002C026E030E043E0220F331F4A95E1F7AC
:103FE000B9016D587C4F48E050E0825E9C4F0C94C4
:103FF000BA2ECF92DF92EF92FF920F931F93CF933F
:10400000DF9325E030E040E06091280280912702B4
:104010000E94BF1F80912602882309F46BC0009183
:104020002802081B002E000C110BC1E0D0E080918B
:104030002502883014F0D0E0C0E0C00FD11F2CE082
:104040002C9FC0012D9F900D11249C0123583E4FA1
:104050007901C017D10754F1D12CC12CF601EE0F14
:10406000FF1FEE0DFF1D208131812730310569F4DE
:104070002091250227FD215F2595259525952595DC
:10408000022E000C330B295F3F4F40E06C2F8C2D2C
:104090000E94BF1F3FEFC31AD30A86E0C816D1049F
:1040A000E9F62197ACE0EA1AF108D3CFEEE0F0E0B0
:1040B000E01BF10B83E0EE0FFF1F8A95E1F7909173
:1040C000250297FD995F95959595959521E040E39B
:1040D00068E070E0DF01A90FB11D97FDBA95CD0131
:1040E000DF91CF911F910F91FF90EF90DF90CF90D4
:1040F0000C949507DF91CF911F910F91FF90EF9056
:10410000DF90CF900895EF92FF920F931F93CF937C
:10411000DF930DE511E0D0E0C0E08BE0E82EF12C5C
:10412000F801618167FD0CC097012C1B3D0B2097A6
:1041300011F430E020E040E0F80180810E94BF1FD0
:1041400021960E5F1F4FC430D10551F7DF91CF91FB
:104150001F910F91FF90EF900895CF92DF92EF9211
:104160000F93CF93DF930E948320809128029EE0DB
:10417000C92ED12CC81AD10887FDD39423E0CC0CCA
:10418000DD1C2A95E1F780912702C6E0D0E0C81B2C
:10419000D10987FDD39533E0CC0FDD1F3A95E1F7C8
:1041A00090917C018091250291111FC087FD895F4C
:1041B000859585958595C81AD10887FDD39488E0A3
:1041C000E82E08E023E833E0AE01B6018AE093E090
:1041D0000E949008C0927B01C0937A01DF91CF9139
:1041E0000F91EF90DF90CF90089587FD895F8595BF
:1041F00085958595909126028902C00DD11D1124C7
:10420000DECF8F929F92AF92BF92CF92DF92EF92CA
:10421000FF920F931F93CF93DF9380917C018730A0
:1042200011F40E9483208091720190917301A091FA
:104230007401B0917501892B8A2B8B2B09F451C025
:1042400080917101CEE0D0E0C81BD10987FDD395E4
:1042500083E0CC0FDD1F8A95E1F75E0182E0A80EB6
:10426000B11C10922407109225079EE1E92EF12C33
:104270004E0184E0880E911C6E018FEFC81AD80A97
:104280002091720130917301409174015091750138
:1042900001E010E0B701C6010E94B61A8FEFC81AFC
:1042A000D80AC814D90461F78FEFE81AF80A81E236
:1042B000E816F10409F781E080932407809325072D
:1042C0008091760181FF0DC02091720130917301C0
:1042D00040917401509175016FE170E0C5010E9439
:1042E000B61ADF91CF911F910F91FF90EF90DF9061
:1042F000CF90BF90AF909F908F90089580917C0158
:10430000873011F40C94832008958F929F92AF927E
:10431000BF92CF92DF92EF92FF920F931F93CF93B2
:10432000DF93A82E962EB42E822EC42F440FDD0BC1
:1043300021967801680186E0C80ED11CCE01019754
:10434000869581708A0D9C2F96959170692D691BB9
:1043500030E020E00115110519F0F70120813181CD
:10436000482D0E94BF1FF5E0BF1639F0219682E06C
:10437000E80EF11CCE14DF0409F7DF91CF911F91F5
:104380000F91FF90EF90DF90CF90BF90AF909F90F4
:104390008F9008950F931F9307E611E0209170010D
:1043A00040916F0160916E0180916D010E948521A5
:1043B00080916D0180937B0180916E0180937A01E1
:1043C00080916F01809366018091700180936501F7
:1043D0001F910F910895EF92FF920F931F93CF9328
:1043E000DF9380915B0190915C018530910529F10B
:1043F000C0917602039741F5CC23B1F000E020E1B3
:1044000040E168E170E090E080E00E94020820E373
:1044100048E668E070E080E190E00E94020840E039
:1044200060E080E00E94AC0C80917102811101C0BB
:10443000C1110E94841910927602DF91CF911F91D1
:104440000F91FF90EF900895CC2309F4D3C00E9400
:104450008B0949E667E070E080E190E00E941B195B
:1044600049E668E370E080E190E00E941B1921E0DA
:1044700040E368E070E088E790E00E949507CDE7B0
:10448000EC2EC1E0FC2E10E0D0E0C0E0FE01EE0F0B
:10449000FF1FEE0DFF1D208131812115310529F00F
:1044A00040E0612F8C2F0E94BF1F2196C630D1059E
:1044B00069F78CE0E80EF11C1F5F1E3029F7F090C1
:1044C000760274E1E72E05E029E437E04CE250E0A3
:1044D00070E060E08AE093E00E94900860915501EE
:1044E00070E090E080E026E030E030931F072093FA
:1044F0001E072FE330E030932107209320070E940E
:104500008A1A20914501309146014091470150910E
:10451000480102E010E06FEF7FEF8AE790E00E9431
:10452000B61A22E148E070E060E090E080E00E948E
:104530005619E0915801F09159012091560130919E
:104540005701CF01A4E0880F991FAA95E1F7B9019F
:104550000E94962FC62FE217F30724F080916B027A
:1045600080FDC0E001E02C2F46E061E070E081E0DA
:1045700090E00E94020820E12C1B6C2FCC0F770BDF
:104580006F5F7F4F00E046E081E090E00E9402080C
:10459000C0915B01D0915C01F1106DC0249709F0CE
:1045A00088C080914001882309F483C080917601FE
:1045B0009091770123E0959587952A95E1F7817091
:1045C000809324078093250788E490E090931F0749
:1045D00080931E078DE390E090932107809320073E
:1045E00089EF91E00E94821881E0809324078093F4
:1045F00025075FC000E02CE046E064E370E086E061
:1046000090E00E9402082AE246E070E060E08AE75B
:1046100090E00E94020880914C0190914D01019719
:1046200081F460917A0180916E01681754F010E076
:1046300000E0209165014091660180917B010E941C
:10464000852180914C0190914D01049709F037CF5D
:1046500080917B01882309F432CF60917A01062E84
:10466000000C770B00E028E048E0082E000C990BC6
:104670000E94020824CF64E1E62E05E02AEE31E034
:104680004CE250E06AE770E08AE093E00E94900814
:10469000C130D10509F074C058E2E52E0EE027E4E0
:1046A00032E04CE050E069E370E08AE093E00E9481
:1046B000900880914C0190914D01019721F48091D7
:1046C0006E018C307CF4809150019091510145E055
:1046D000892B09F040E00EE411E020E06EE082E07A
:1046E0000E94852180915B0190915C01029761F4A9
:1046F000E0914C01F0914D01EE0FFF1FE357FD4F8C
:1047000085919491FC01099580915B0190915C01E8
:104710008230910509F063C080913F018A3008F42E
:104720006DC04DE0481B642F70E0CB01039621E083
:1047300030E001C0220F8A95EAF7822F869521503A
:1047400090916B022923821B082E000C990B97FF76
:1047500003C091958195910923E030E0261B370B2A
:1047600001C0880F2A95EAF7440F440F440F841BB9
:1047700060E018160CF080E040E00E94AC0C5BCECC
:10478000249709F096CF22E44EE16FEF7FEF81E3AB
:1047900090E00E94561900E020E44CE170E060E0F7
:1047A00082E390E00E94020838E3E32E08E02FE065
:1047B00032E050E040E06CE370E08AE093E00E9479
:1047C000900848E0E42E0BE024E032E048E350E0BB
:1047D0006CE370E08AE093E00E949008E2CE0497D8
:1047E00069F4609176017091770168537240660FA9
:1047F000771F862F161617060CF4BECF60E0BBCFCE
:10480000CF93DF938091480290914902019709F07C
:1048100050C080EE92E090934B0280934A02F99947
:10482000FECF4FE452E46EE479E080EE92E00E9425
:104830000A2F80914A0290914B02049690934B026A
:1048400080934A02F999FECF60914A0270914B021F
:104850004AE150E087E592E00E94F22EC0914A02C0
:10486000D0914B026A96D0934B02C0934A020E94A9
:104870003817F999FECFBC01CE010E94122F80910A
:104880004A0290914B02029690934B0280934A0207
:104890006091B90282E090E00E94FC2E82E090E0FC
:1048A000909349028093480210924702DF91CF9182
:1048B000089584EE92E0C2CF80915B0190915C01FB
:1048C0008230910509F456C060F40197A9F18091F6
:1048D0005B0190915C01059709F4ECC082E090E0E7
:1048E00008958330910509F4E2C0049781F720917F
:1048F000760130917701215031093093770120936F
:1049000076012D31F2E03F074CF7809127078C703C
:1049100090E04091260750E04095509584239523E0
:10492000892B19F412161306CCF285E090E09093CF
:104930005C0180935B01CBCF8091760190917701F0
:104940000197909377018093760145973CF680918B
:104950006F029091700201969093700280936F02A3
:1049600082E090E090935C0180935B0181E0809312
:104970007602ADCF80916B0290916C02A0916D0296
:10498000B0916E020196A11DB11D80936B029093B0
:104990006C02A0936D02B0936E0281E08093470297
:1049A00010923B0110923C0180912707982F907F35
:1049B00009F47AC090913A019F5F9B300CF072C06D
:1049C00090933A0190913A01913011F09A30C1F4EC
:1049D00084FF03C09FEF90933C0187FF05C0909137
:1049E0003C019F5F90933C0185FF03C09FEF909334
:1049F0003B0186FF05C080913B018F5F80933B01A7
:104A0000E0914C01F0914D01EE0FFF1FE252FE4F7D
:104A100085919491FC01099580915B0190915C01D5
:104A2000029709F054CF80912707887090E0209179
:104A3000260730E02095309582239323892B09F4B3
:104A40004DCF10924C0265E876E185ED91E00E9431
:104A500014116DEB7FE18DEC91E00E94141164E77D
:104A600076E188EC91E00E94141187E38093520272
:104A70008DE38093510281E1809350028BE3809318
:104A80004F0281E080934E0280934D021092720299
:104A9000809371028091470281110E94002483E07B
:104AA00090E060CF9AE08CCF10923A01A9CF0E949B
:104AB000A4160DCF81E090E008958F929F92AF925F
:104AC000BF92CF92DF92EF92FF921F93CF93DF932B
:104AD000C0917601D09177011C161D060CF03FC0E5
:104AE0002197D0937701C093760180917C01873024
:104AF00089F48091250290914401891B80932502BD
:104B00008091250287FF06C0805C809325020E9469
:104B10005811F6CFCD2BB9F48091720190917301A9
:104B2000A0917401B0917501892B8A2B8B2B59F0C0
:104B3000109272011092730110927401109275011B
:104B400081E080937602DF91CF911F91FF90EF90EB
:104B5000DF90CF90BF90AF909F908F90089529E8FD
:104B600031E081E090E060E0F90150E040E0C19187
:104B7000D191209779F0DF011E97ED90FC9011976D
:104B8000982FEF2839F41196DC93CE931C961D9242
:104B90001C9261E04F5F5F4F4630510541F78F5FD8
:104BA000245F3F4F8E3001F790933F01662321F041
:104BB00081E080934201C5CF80914201882339F082
:104BC00063E08BE193E00E94FE0E1092420110918F
:104BD0002702ADE7B1E0EEE070E060E090E080E059
:104BE000C12CD12C7601C394F1E030E020E0B82E46
:104BF000A901440F551F4A0F5B1FEA0148815981E3
:104C00004130510549F038F04350510943305105C6
:104C100010F4122FEB2DF0E02F5F3F4F26303105BF
:104C200039F7FF2319F146015701082E04C0880CFB
:104C3000991CAA1CBB1C0A94D2F7682979291196E1
:104C40001C921E9213961C921E92129715961C92FD
:104C50001E92149717961C921E92169719961C92E4
:104C60001E9218971B961C921E921A9701961C96DC
:104C70008E30910509F0B8CF10932702E0932802F7
:104C80007093790160937801672B91F062E081E085
:104C900093E00E94FE0E83E090E090934D0180939C
:104CA0004C018EE190E090937701809376014BCF99
:104CB000EE3079F1D6E0ED02F0011124E10FF11DA3
:104CC00017FDFA95EE0FFF1FE358FE4F808191818B
:104CD0008530910551F490934D0180934C011092D1
:104CE000260288E3809325022ECF24E030E0309323
:104CF0004D0120934C01039751F48FEF80932602CE
:104D00001092250210927C0110927B011CCF81E051
:104D1000F5CF8091110290911202892B99F5809123
:104D2000500190915101892B31F0809113029091A3
:104D30001402892B39F5809141018F5F80934101E5
:104D40008F30B0F0C0915501C33690F4CF5FC0935F
:104D50005501109241010E94FB158C2F65E00E94C5
:104D60008A2F91110CC08EED92E062E00E94FE0E3F
:104D700010924D0110924C0184E190E094CF81EDAE
:104D800092E0F3CFA0915501409145015091460129
:104D90006091470170914801E7E5F2E085E090E01D
:104DA0009C012150310980889188A288B388C088ED
:104DB000D188E288F12CC416D506E606F70680F401
:104DC0002430310551F0848A958AA68AB78A211544
:104DD000310519F490E080E006C03497C901E0CFB6
:104DE0008530910559F0FC01EE0FFF1FEE0FFF1FFC
:104DF000E95AFD4F408351836283A383409353025A
:104E000050935402609355027093560221E0892B0F
:104E100009F020E0209340018091470281110E9417
:104E2000002488E592E0909377018093760184E0F6
:104E300090E090935C0180935B0181E08093760227
:104E400061E08FEA92E0DF91CF911F91FF90EF90A8
:104E5000DF90CF90BF90AF909F908F900C94FE0EFC
:104E60001F920F920FB60F9211248F939F938091F0
:104E7000E1009091E100937F9093E10083FF0FC0E8
:104E80001092E90091E09093EB001092EC0092E315
:104E90009093ED001092B20298E09093F00082FFA0
:104EA00022C093E09093E9009091F200992319F0C9
:104EB0009AE39093E8009091A302992341F0909196
:104EC000A30291509093A302911101C05D9A909119
:104ED000B102992341F09091B10291509093B102A7
:104EE000911101C0289A84FF18C08091E2008E7E43
:104EF00081608093E2008091E1008F7E8093E100E9
:104F00008091A4028E7E80618093A4029F918F91F4
:104F10000F900FBE0F901F90189580FFF7CF8091D4
:104F2000E2008E7E80618093E2008091E1008E7EBF
:104F30008093E1008091A4028E7E8160E5CF1F9274
:104F40000F920FB60F921124CF92DF92EF92FF9241
:104F50000F931F932F933F934F935F936F937F9381
:104F60008F939F93AF93BF93EF93FF93CF93DF9371
:104F7000CDB7DEB76C97DEBFCDBF1092E900809150
:104F8000E80083FF25C068E0CE0145960E94220B11
:104F900082EF8093E8008D8987FF39C09091E80007
:104FA00090FFFCCF982F907609F034C19E894F89ED
:104FB000588D2F89F88C911131C0803861F580911E
:104FC000A2028093F1001092F1008EEF8093E8002E
:104FD0006C960FB6F894DEBF0FBECDBFDF91CF91B8
:104FE000FF91EF91BF91AF919F918F917F916F91C1
:104FF0005F914F913F912F911F910F91FF90EF90F3
:10500000DF90CF900F900FBE0F901F9018959EEFDE
:105010009093E800C7CF1092F100D5CF913059F4AA
:105020008111D3CF4130510581F68091A2028D7F4D
:105030008093A202CACF933049F48111C6CF413088
:10504000510519F68091A2028260F2CF953041F4A9
:105050008091E80080FFFCCF20682093E300B5CF6B
:10506000963009F0A9C00B8D1C8D22E01092E9004A
:105070001092A00210929F02F2122EC010929E0275
:1050800010929D020E94F10A1F8299E09983FA8290
:1050900091E09E8390EA98879AEF998720919F02EA
:1050A0003091A002275F3F4F3C832B838D8310926A
:1050B000E9001092A00210929F0210939E020093AA
:1050C0009D0249E050E0BE016F5F7F4F80E00E948B
:1050D000CB0A0E94F10A79CF10939E0200939D02A1
:1050E0000E94D509DC0112960D911C910115110544
:1050F00009F451C1D801ED91FC910480F581E02DB6
:10510000BE016B5E7F4FC8010995009709F03EC153
:10511000F80100851185EACFF3E0FF120EC08F89F8
:10512000882309F440C0823061F440E867E08BECEA
:105130009EE00E94980A811148CF81E28093EB00A3
:1051400047CF813029F440E86BE08FEB9EE0F1CF50
:10515000833099F70E94D509DC011296ED90FC90FE
:105160008E010F5F1F4F6801E114F10479F0D70140
:10517000ED91FC910680F781E02DB801C7010995FA
:10518000080F111DF701E084F184EECFD8011C92C5
:10519000F60101900020E9F73197BF016C197D09F4
:1051A00040E0C601C6CF69EA7EE0FB01449150E0D1
:1051B00080E80E94CB0A09CF973009F4BECF98301F
:1051C00021F481E08093F10000CF993009F0FDCE09
:1051D000837009F0B2CFE5E1F1E081E031E096E3E0
:1051E0002191222371F08093E9003093EB00DF01DD
:1051F00011972C912093EC009093ED008F5F8730F6
:1052000079F78EE78093EA001092EA008F89809305
:10521000B202DBCE8B8D9C8D1092E9001092A00221
:1052200010929F0290939E0280939D02898D81111E
:1052300092C08E899D89913A49F4813209F07DCFDF
:1052400047E050E064E071E080E0B3CF913209F0D4
:1052500074CF833269F48F89988DB0E0A0E0809399
:10526000000190930101A0930201B0930301ADCE20
:10527000803269F48091E80082FFFCCF67E084E02F
:1052800091E00E94220B8BEF8093E8009ECE823249
:1052900009F09BCE8F8980930B01EEEFFFE785919C
:1052A00094918B3F9C4D51F1E0E0F8E08091040136
:1052B00090910501A0910601B0910701803B9440B7
:1052C000A105B105F1F480910B0180FD1AC0EE3FFC
:1052D0008AE0F80789F587E797E7918380838091D3
:1052E00060008093A10288E19BE00FB6F894A89536
:1052F000809360000FBE9093600067CEEEEFFAE0FF
:10530000D5CF808191818737974709F05ECEA895E8
:10531000809160008861809360008091A1028093F9
:105320006000EE3F2AE0F20789F08091FE0A90913A
:10533000FF0A9183808349CE8081918187379807C6
:1053400051F29093FF0A8093FE0AC5CF1092FF0A94
:105350001092FE0A3ACE0E94D509DC0112960D91F8
:105360001C910115110509F4E8CED801ED91FC91CD
:105370000190F081E02DBE016B5E7F4FC801099561
:10538000811123CEF80100851185EBCF181619067F
:105390000CF41BCED2CEF1E0FF12BECE6DEA7EE061
:1053A00004CF1F920F920FB60F9211242F933F93A9
:1053B0008F939F93AF93BF938091970290919802A0
:1053C000A0919902B0919A023091850223E0230FB7
:1053D0002D3758F50196A11DB11D209385028093AC
:1053E000970290939802A0939902B0939A028091A9
:1053F000860290918702A0918802B091890201965D
:10540000A11DB11D8093860290938702A09388020C
:10541000B0938902BF91AF919F918F913F912F914E
:105420000F900FBE0F901F90189526E8230F02963D
:10543000A11DB11DD2CF1F920F920FB60F92112452
:105440002F933F934F935F936F937F938F939F938C
:10545000AF93BF93EF93FF9380918202882349F02B
:1054600080918A02E0918B02F0918C0290818927D1
:1054700080838091B402882329F180917E029091EB
:105480007F02A0918002B0918102892B8A2B8B2B05
:10549000C9F080917E0290917F02A0918002B0912C
:1054A00081020197A109B10980937E0290937F0246
:1054B000A0938002B0938102892B8A2B8B2B11F44D
:1054C0000E948B0EFF91EF91BF91AF919F918F91B1
:1054D0007F916F915F914F913F912F910F900FBEF0
:1054E0000F901F9018951F920F920FB60F921124D4
:1054F0008F939F93AF93BF93EF93FF9380917D0220
:10550000882309F452C08091790290917A02A09187
:105510007B02B0917C02892B8A2B8B2BA1F190917D
:105520008D02E0918E02F0918F0280818927808325
:105530008091790290917A02A0917B02B0917C02D5
:10554000181619061A061B069CF480917902909190
:105550007A02A0917B02B0917C020197A109B10966
:105560008093790290937A02A0937B02B0937C029D
:10557000FF91EF91BF91AF919F918F910F900FBECF
:105580000F901F90189510927D0280916F008D7F73
:1055900080936F0080918D02E0918E02F0918F02D6
:1055A0009081809589238083E3CF90918D02E09153
:1055B0008E02F0918F0280818927F5CFEAEBF2E02D
:1055C0001382128288EE93E0A0E0B0E0848395839A
:1055D000A683B7838FE191E0918380838FEF9FEF64
:1055E00095878487EAE0F3E0138212828CE3868356
:1055F00080E181871086178216861786108A118AA5
:10560000128A10921F0710921E0710922107109203
:10561000200781E08093220721E331E0318320835A
:1056200080932407109225070895789484B58260AA
:1056300084BD84B5816084BD85B5826085BD85B536
:10564000816085BD80916E00816080936E001092B4
:10565000810080918100826080938100809181002F
:1056600081608093810080918000816080938000C0
:10567000809191008260809391008091910081607F
:105680008093910080919000816080939000809140
:10569000C10084608093C1008091C10082608093CA
:1056A000C1008091C10081608093C1008091C300DE
:1056B00081608093C3008091C00082608093C000AD
:1056C0008091C20081608093C20080917A008460E2
:1056D00080937A0080917A00826080937A00809132
:1056E0007A00816080937A0080917A00806880934C
:1056F0007A001092B2021092A2021092A40280913B
:10570000D70081608093D70080EA8093D80089B564
:10571000806189BD89B5826089BD09B400FEFDCF75
:1057200061E070E080E090E00E94EF0C8091D80092
:105730008F7C80618093D8008091E000807F80938F
:10574000E0008091E1008E7E8093E1008DE0809307
:10575000E200559A209ACFB7F89480919002811177
:1057600027C0E4E3FEE08491E7E0FEE09491E82FB7
:10577000F0E0EE0FFF1FE652F24FA591B491EC91CD
:10578000E92321F461E081E10E945C0B61E081E1A9
:105790000E94CD0B8CB580618CBD8CB580648CBDB6
:1057A00061E08FE00E94CD0B61E080E10E94CD0BB3
:1057B000809190028F5F80939002CFBFC2E4DEE0C1
:1057C000BE01FE0184916F5F7F4F2296FB016491C1
:1057D000882319F00E94CD0BF3CF61E086E00E9490
:1057E0005C0B61E070E080E090E00E94EF0C60E014
:1057F00086E00E945C0B6AE070E080E090E00E942E
:10580000EF0C61E086E00E945C0BEFE2FEE0E491C9
:10581000F0E0EE0FFF1FEB5EF14F859194919093B6
:10582000960280939502E2E0FEE0E491E093940218
:10583000E7E2FEE0E491F0E0EE0FFF1FEB5EF14FD8
:10584000859194919093930280939202EAEFFDE008
:10585000E491E09391028CB58C7F8CBD8DB5816015
:105860008DBD0E94CB0DE8EEFDE086EF9DE08E172A
:105870009F0749F024912EBD00000DB407FEFDCF17
:105880002EB53196F4CF0E94E30D809164008160C3
:1058900080936400809164008260809364008091B2
:1058A00064008068809364008091640080648093C9
:1058B0006400809165008160809365000E94A60D60
:1058C00087FF18C00E94CB0D85EA8EBD00000DB485
:1058D00007FEFDCF8EB50E94E30D4FEF6FEF8FEF08
:1058E0000E94AC0C809164008062809364000E94EE
:1058F000C00DFDCF8091B302823091F0E82FF0E02F
:10590000E852F24FC4918F5F8093B30261E085E06B
:105910000E94CD0BC13009F46DC0C33009F48CC0B6
:1059200061E08DE00E94CD0B82E090E00E94DE2ECF
:10593000882309F4AEC080916500877F809365005D
:1059400081E08093B9028CE38093100380E180931F
:10595000130381E0809324078093250710929C0213
:1059600010929B02E5E5FEE085919491FC0109957A
:1059700086E0D82ECEE1D7E000E010E0CC24C3943E
:105980002FB7F8948091970290919802A091990274
:10599000B0919A022FBF20911C03222391F02091F5
:1059A0001403F82FF21BF0931D0320911103309183
:1059B00012032F5F3F4F3093120320931103109275
:1059C0001C03409118035091190360911A037091C0
:1059D0001B0384179507A607B7070CF062C0481B86
:1059E000423010F00E94C00D0115110549F20E94CD
:1059F0000000C6CF1092800010928100809181003B
:105A00008860809381008091810081608093810013
:105A1000E8E2FEE0E491F0E0EE0FFF1FEB5EF14FF5
:105A20008591949190938F0280938E02EBEFFDE02D
:105A3000E491E0938D0274CF109290001092910047
:105A400080919100886080939100809191008160A5
:105A500080939100E8E2FEE0E491F0E0EE0FFF1F9A
:105A6000EB5EF14F8591949190938C0280938B0221
:105A7000EBEFFDE0E491E0938A028091B30288238A
:105A800021F06CE380E00E94F70D80E00E94680E38
:105A900047CF1092B90280916500886080936500BD
:105AA00052CF20911303AC01BD01420F511D611D66
:105AB000711D409318035093190360931A03709358
:105AC0001B038093140390931503A0931603B093C4
:105AD0001703C0921C0380912707809326070E941A
